:020000040800F2
:10000000F0FF0010490D05083DD600083520040812
:10001000E90D0508E90D0508E90D050800000000D7
:1000200000000000000000000000000039D60008B9
:1000300035D600080000000031D6000855E003085E
:10004000E90D0508E90D0508E90D0508E90D0508A4
:10005000E90D0508E90D0508C9350408F536040859
:10006000B93604087D3604084136040831FB04081B
:1000700021FB040811FB040801FB0408EDFA040845
:10008000D9FA0408C5FA0408E90D0508E90D0508C0
:10009000E90D0508E90D0508E90D05080536040810
:1000A00071CB0308F5CB030861CB03081DCC030813
:1000B000E5CB0308D5CB0308C5CB0308E90D05083C
:1000C000E90D0508E90D0508E90D0508E90D050824
:1000D000E90D0508E90D050851E1030895E003085D
:1000E0008D350408E90D0508010F010851CB0308FF
:1000F00081CB030841CB0308A5CB0308B1FA040860
:10010000E90D0508E90D0508B5CB0308E90D05085B
:10011000E90D0508E90D0508A95A0308955A0308D1
:100120009DFA040889FA040875FA040861FA0408BB
:100130004DFA0408E90D0508E90D0508E90D050863
:10014000E90D0508E90D0508E90D05085DED000854
:1001500039FA040825FA040811FA0408E90D05081B
:10016000E90D0508E90D0508E90D0508E90D050883
:10017000E90D0508E90D0508E90D0508E90D050873
:08018000E90D0508E90D050871
:08018800F80805000100000069
:100190000B3001001A0000009031002024440020A0
:1001A00000000000080800081F30010024000000C3
:1001B00058310020404400200000000024080008BE
:1001C000050201000400000070410020644400208A
:1001D0000000000048080008030101000A000000B8
:1001E000DC3000206844002000000000A58C0008DE
:1001F0001302010004000000942000207444002039
:10020000000000004C08000812200100110000004E
:10021000E04300207844002000000000500800085F
:100220000D10010040000000F03900208C44002037
:1002300000000000018303080400080080000000A3
:1002400048390020CC4400200000000000000000DD
:10025000F901010004000000303900204C45002065
:100260000000000085B80308FD0101002400000023
:100270000C3900205045002000000000DFB70308C3
:10028000FB01010001000000C83800207445002077
:1002900000000000BD630408FC010100090000002B
:1002A000943700207845002000000000CD6304084A
:1002B0000A800100280000006837002084450020E3
:1002C00000000000F1960108160215003F00000032
:1002D000A0260020AC450020000000004D6304086B
:1002E000340001001000000094360020EC4500208E
:1002F00000000000F91A02081102010008000000C5
:100300006C360020FC450020000000006208000858
:100310001212010004000000643600200446002090
:10032000000000006A0800081820010032000000E8
:10033000303600200846002000000000E55E04087A
:10034000061001001C0000004C2600203C46002046
:1003500000000000E9630408000201000B00000037
:10036000B43200205846002000000000815D0408DF
:10037000FE01010014000000C4400020644600207B
:1003800000000000595D04081B020100100000007D
:10039000A84F0020B052002000000000BD5D0408FE
:1003A0002312010010000000D84C0020C052002091
:1003B0000000000070080008371001002E00000047
:1003C000184F0020D05200200000000080080008D4
:1003D0000E02010002000000D44C00200053002057
:1003E00000000000AE080008161001000600000022
:1003F000CC4C00200453002000000000B00800088E
:100400002F100100220000008C5200200C5300200D
:1004100000000000B60800081E00010009000000EE
:10042000D04B00203053002000000000D808000806
:100430000510010006000000C04B00203C530020C6
:1004400000000000E2080008F581010068000000DB
:10045000B847002044530020000000007532010816
:100460002320010010000000784C0020AC53002035
:100470000000000005980108FD070100760000005B
:10048000FE460020BC530020000000006D1501084E
:100490001C0202001C0000004463002020640020B5
:1004A00000000000255E040828200100180000005C
:1004B000A86200203C6400200000000031B0010868
:1004C00014000100040000000C62002054640020AD
:1004D00000000000E8080008012001000C000000F6
:1004E000D85700205864002000000000EC080008E5
:1004F0000C200600CC000000B856002064640020E8
:1005000000000000C5C302080EF003009E010000B9
:10051000F45400203065002000000000CD1A0208CD
:100520000101010004000000C4540020D066002036
:1005300000000000000000000001010004000000B5
:10054000BC540020D466002000000000F808000819
:100550000201010003000000B8540020D86600200A
:10056000000000002DBE0208220201001C01000054
:10057000D45D0020DC66002000000000555F040808
:100580001900010005000000907000202471002077
:1005900000000000FC0800081A0001000E00000026
:1005A000646E00202C710020000000000209000889
:1005B000203201000A000000586E00203C7100202B
:1005C00000000000C90F02081500100070000000B4
:1005D000F06B0020487100200000000000000000C7
:1005E0002A00080060000000846E0020B87100201E
:1005F00000000000A51A02082C00040010000000F2
:10060000287200201872002000000000B90C0208B7
:100610002B001200240000005C72002038720020C1
:10062000000000008D0C0208292014007800000052
:10063000DC69002080720020000000000000000043
:100640000A020100140000009C7A0020BC7D0020FA
:100650000000000089C3020803000100010000003F
:100660008C750020D07D00200000000000000000FC
:100670001300010004000000B8750020D47D0020A4
:100680000000000010090008031201003D000000F6
:100690007C7D0020D87D00200000000014090008A7
:1006A00025201E002C010000E47A0020187E002086
:1006B0000000000000000000101001000200000017
:1006C00048750020447F0020000000005209000807
:1006D000F82101000600000078750020487F002006
:1006E0000000000054090008020001000C00000096
:1006F00054800020E880002000000000000000007E
:100700002902010040000000B07F0020F48000209A
:10071000000000005A09000828020400040000003C
:10072000948400203886002000000000B95D040891
:100730002702040004000000908400203C86002072
:1007400000000000AD5D04081F020800100000005A
:10075000D48100204086002000000000395D04089C
:100760001A0201003C000000948100205086002005
:1007700000000000F95F04083810010001000000CB
:10078000608100208C860020000000009A0900088B
:10079000081203000F0000002487002014870020A7
:1007A00000000000895D040827000100040000002B
:1007B000B486002034870020000000009C09000857
:1007C00010020100010000004C9B0020489B00200B
:1007D00000000000A0090008020201000300000060
:1007E000449B0020509B00200000000000000000FF
:1007F0001D020200060000003C9B0020549B0020CC
:080800000000000000000000F0
:10080800AE014A015E012C016400020000000100F3
:100818000A019A01001E0A00000200000000000000
:1008280000010000000500000102030000000000B4
:100838000000000000000000000000000080070029
:100848000000000000000100000000010000054554
:100858004C4C3000001900020000000000000101AB
:100868000101FFFFFFFF0000000000000000000082
:10087800000000000000000020003200C800D0077F
:1008880096001400320028004C0440060005500071
:1008980014000F00080064000100010005000A00B0
:1008A8000000F40196000000C409000019000000CF
:1008B8000000000000000000000000000000000030
:1008C8000000000000000000000000000000000020
:1008D80000050100000000000000200003010000E6
:1008E80003000023E8036400040A000114001E004A
:1008F800900100000000280100007E05EA05B4050B
:100908003200E803D0070000080040300000000073
:1009180000000000000000000000000000000000CF
:1009280000000000000000000000000000000000BF
:1009380000000000000000000000000000000000AF
:100948000000000000000000010000050101F401A2
:10095800140000000000000000000000000000007B
:10096800000000000000000000000000000000007F
:10097800000000000000000000000000000000006F
:10098800000000000000000000000000000000005F
:0909980000000000200300000033
:1009A1000403090412010002EF02014083045632DC
:1009B10000020102030100001201000202020040D4
:1009C1008304405700020102030100000902640090
:1009D100030100C0320904000001030000000921E5
:1009E100110100012236000705830309000A080BE3
:1009F10001020202010009040100010202010005D5
:100A01002400100105240100020424020205240629
:100A11000102070582030800FF09040200020A001F
:100A210000000705010240000007058102400000A7
:100A310009024300020100C0320904000001020260
:100A41000100052400100105240100010424020213
:100A51000524060001070582030800FF09040100BF
:100A6100020A00000007050102400000070581029B
:100A710040000000FF00000000FF00000000000037
:100A81000000AA550701000001AA55050100000850
:100A91008C3C0508FF1FFF1F00000401000000003F
:100AA1000000000210000000070000007D000000AF
:100AB100010000000000803F05010905A101A1001E
:100AC100050109300931093209330935093409367B
:100AD10009371581257F75089508810205091901D6
:100AE100290815002501950875018102C0C0000083
:100AF10009022200010100E03209040000010301A2
:100B010002000921110100012236000705830309B2
:100B1100000A0000B9820008B5820008B18200080D
:100B2100A5820008A1820008AD820008A982000800
:100B31002D83000821830008F98200080D83000835
:100B4100E5820008D1820008BD82000800600240F1
:100B5100106002400000000000000000000B0000D7
:100B610000000000000000000000000000600240E2
:100B7100286002400100000000000000060C000097
:100B810000000000000000000000000000600240C2
:100B9100406002400200000000000000100D000053
:100BA10000000000000000000000000000600240A2
:100BB100586002400300000000000000160E000013
:100BC1000000000000000000000000000060024082
:100BD100706002400400000000000000200F0000CF
:100BE1000000000000000000000000000060024062
:100BF100886002400500000000000000261000008F
:100C01000000000000000000000000000060024041
:100C1100A06002400600000000000000301100004A
:100C21000000000000000000000000000060024021
:100C3100B86002400700000000000000362F0000ED
:100C410000000000000000000000000000640240FD
:100C510010640240000000000000000000380000A5
:100C610000000000000000000000000000640240DD
:100C71002864024001000000000000000639000065
:100C810000000000000000000000000000640240BD
:100C9100406402400200000000000000103A000021
:100CA100000000000000000000000000006402409D
:100CB100586402400300000000000000163B0000E1
:100CC100000000000000000000000000006402407D
:100CD100706402400400000000000000203C00009D
:100CE100000000000000000000000000006402405D
:100CF1008864024005000000000000002644000056
:100D0100000000000000000000000000006402403C
:100D1100A064024006000000000000003045000011
:100D2100000000000000000000000000006402401C
:100D3100B8640240070000000000000036460000D1
:100D410000000000000000000000000000000000A2
:100D5100010203040102030406070809FDD7000884
:100D6100B9DE000831DA0008D5830008B58900082A
:100D7100E583000801840008AD8300089D83000815
:100D810000000000000000002D202D2D202D2D2D14
:100D91002D202D2D2D2D0000000000000000000051
:100DA10000000000000000AA550B010000AA550533
:100DB100010000AA550902000000AA5503009F0086
:100DC10001000000C01200001C44002000000000CF
:100DD100F44300200000000001007EFFFFFFFFFF41
:100DE10098AD050814AD050800000000115C03086A
:100DF100A0860100040000000000000000000000C7
:100E010000000000000000000000000000000000E1
:100E110000000000000000000000000000000000D1
:100E210098AD0508A0AD05080000000041B6030813
:100E3100E8030000040000000000000000000000C2
:100E410000000000000000000000000000000000A1
:100E51000000000000000000000000000000000091
:100E6100A8AD050800000000000000008DBE0208CA
:100E71007D000000FF0000000000000000000000F5
:100E81000000000000000000000000000000000061
:100E91000000000000000000000000000000000051
:100EA10030DC050800000000000000005DCF0208F2
:100EB1007D000000FF0000000000000000000000B5
:100EC1000000000000000000000000000000000021
:100ED1000000000000000000000000000000000011
:100EE100CCBB05080000000000000000A9E90208D1
:100EF1007D000000FF000000000000000000000075
:100F010000000000000000000000000000000000E0
:100F110000000000000000000000000000000000D0
:100F2100B0AD05080000000000000000F1BA0308A0
:100F3100E8030000030000000000000000000000C2
:100F410000000000000000000000000000000000A0
:100F51000000000000000000000000000000000090
:100F6100B4AD05080000000000000000C5840208BF
:100F71001027000003000000000000000000000036
:100F81000000000000000000000000000000000060
:100F91000000000000000000000000000000000050
:100FA10038D8050800000000A5A50108992004080B
:100FB1005F76000005000000000000000000000056
:100FC1000000000000000000000000000000000020
:100FD1000000000000000000000000000000000010
:100FE100D4DB0508000000000000000031490408BE
:100FF10010270000010000000000000000000000B8
:1010010000000000000000000000000000000000DF
:1010110000000000000000000000000000000000CF
:10102100C0AD0508000000000000000045B603083F
:10103100E8030000050000000000000000000000BF
:10104100000000000000000000000000000000009F
:10105100000000000000000000000000000000008F
:10106100CCAD05080000000000000000955E0308FB
:10107100204E0000030000000000000000000000FE
:10108100000000000000000000000000000000005F
:10109100000000000000000000000000000000004F
:1010A100DCAD05080000000000000000915C0308B1
:1010B100204E0000030000000000000000000000BE
:1010C100000000000000000000000000000000001F
:1010D100000000000000000000000000000000000F
:1010E100ECAD0508000000000000000051C003083D
:1010F100400D03000300000000000000000000009C
:1011010000000000000000000000000000000000DE
:1011110000000000000000000000000000000000CE
:1011210040AD05080000000000000000B94B0108B7
:101131001027000003000000000000000000000074
:10114100000000000000000000000000000000009E
:10115100000000000000000000000000000000008E
:10116100FCAD0508000000000000000001EF0108CF
:10117100A086010001000000000000000000000046
:10118100000000000000000000000000000000005E
:10119100000000000000000000000000000000004E
:1011A10004AE050800000000000000001DB50308A2
:1011B100A861000001000000000000000000000024
:1011C100000000000000000000000000000000001E
:1011D100000000000000000000000000000000000E
:1011E10010AE050800000000000000007DE60308C5
:1011F100A00F00000100000000000000000000003E
:1012010000000000000000000000000000000000DD
:1012110000000000000000000000000000000000CD
:101221001CAE050800000000000000009D7B0108C5
:101231001A41000001000000000000000000000051
:10124100000000000000000000000000000000009D
:10125100000000000000000000000000000000008D
:1012610020AE05080000000000000000DD8C000831
:101271001027000001000000000000000000000035
:10128100000000000000000000000000000000005D
:10129100000000000000000000000000000000004D
:1012A10028AD0508000000000000000065D301081A
:1012B10050C3000001000000000000000000000019
:1012C100000000000000000000000000000000001D
:1012D100000000000000000000000000000000000D
:1012E1002CAE05080000000000000000FD9700087A
:1012F100400D03000000000000000000000000009D
:1013010000000000000000000000000000000000DC
:1013110000000000000000000000000000000000CC
:1013210034AE050800000000000000004D5C030819
:10133100400D03000000000000000000000000005C
:10134100000000000000000000000000000000009C
:10135100000000000000000000000000000000008C
:101361003CAE05080000000000000000698601088D
:1013710050C3000003000000000000000000000056
:10138100000000000000000000000000000000005C
:10139100000000000000000000000000000000004C
:1013A10048AE050800000000000000004D6603087B
:1013B10040420F000000000000000000000000009B
:1013C100000000000000000000000000000000001C
:1013D100000000000000000000000000000000000C
:1013E10054AE050800000000000000002963030856
:1013F10050C30000000000000000000000000000D9
:1014010000000000000000000000000000000000DB
:1014110000000000000000000000000000000000CB
:1014210001007F00010000000D8E01080000000096
:10143100000000001449050880590020D4590020FB
:1014410001000000000000000000000071A8010878
:10145100805C00200000000000000000000000008F
:10146100305C0508000000000000000000000000E2
:10147100E85C05080000000000000000000000001A
:10148100945C0508D601FF01010000001DC8010898
:101491000000000000000000BC5D050845CB01080C
:1014A1000000000000000000745D05082D202D2DB6
:1014B100202D2D2D2D202D2D2D00000000000000B0
:1014C100000000000000000000000000FFFFFFFF1F
:1014D10091AE01080000000000000000C05B05089B
:1014E10001000000FA0000000100000001000000FE
:1014F100010000000001010100000000D45700209C
:101501000000F40101000000D25700200000F401A6
:1015110001000000D05700200000F401010000008C
:10152100CE5700200000F40101000000CC5700203C
:101531000000F40101000000CA5700200000F4017E
:1015410001000000C85700200000F4010100000064
:10155100799501083D95010800000000B049050892
:10156100B857002005320100C65700206400F4017D
:1015710001000000C45700206400C40901000000FC
:10158100B6570020E803D00701000000B45700203F
:10159100E803D00701000000B2570020E803D0079C
:1015A10001000000B05700201E00B80B0100000030
:1015B100BE57002005000F0001000000C0570020A9
:1015C10003000A0001000000AE5700201E00F401D4
:1015D10001000000C2570020020000003C4A05083B
:1015E100AC5700201400640001000000BA5700202D
:1015F1003200E80301000000AA5700200000C800E3
:1016010001000000B556002000C80100B4560020BA
:1016110000500100B3560020005A0100B1560020CD
:1016210002000000484A050890B3050898B3050870
:10163100464C00200100C40900000000444C002079
:101641000100C40900000000424C00200100C4094F
:1016510000000000404C00200100C409000000000F
:101661003C4C00200100C409000000003E4C002059
:101671000100C409000000003A4C00200100C40927
:1016810000000000384C00200100C40900000000E7
:10169100DF54002000C80100DE54002000C8010012
:1016A100DC5400200000FFFF0A000000DA54002093
:1016B1000100C80001000000D8540020320030753C
:1016C10032000000D654002005820500D4540020C9
:1016D10005002C0105000000D3540020055A050027
:1016E100D054002000FF0100D2540020020000006D
:1016F100100E0020CE5400200300000074430508A2
:10170100CF54002000FF0100D1540020020000004E
:10171100100E0020CD540020030000007443050882
:10172100CD9401085D94010800000000544A0508A9
:10173100E8570020EE02CA0801000000E657002029
:1017410000C8010064000000E557002000C8010046
:1017510064000000E457002002000000604B05080F
:10176100CA5400200000803E05000000C85400203B
:1017710080C1803E05000000C25400200083007D2E
:1017810005000000C054002080C1803E050000001B
:10179100BB54002000FF0100B45400206400F40198
:1017A10001000000B2540020040000006C4B050849
:1017B100B154002002000000804B0508EE570020C4
:1017C1003E0000008C4B0508EC5700200100FF7F14
:1017D10001000000EB57002002000000884C0508C2
:1017E100E654002003000000984C0508E554002051
:1017F10003000000984C0508A2560020000A0100D1
:10180100A05600200000E803010000009E560020C1
:101811000000E803010000009C5600200000E803DE
:10182100010000009A5600200000E80301000000BA
:10183100925600200000E8030100000098560020A5
:101841000000E80301000000965600200000E803B4
:10185100010000009456002000140100B056002041
:1018610002000000A84C0508AE5600200000F4015B
:1018710001000000AC5600200000F401010000004E
:10188100AA5600200000F40101000000A856002023
:101891000000F40101000000A65600200000A00F86
:1018A10001000000A45600200000A00F010000006C
:1018B100975700201964010096570020020000008C
:1018C100B44C050894570020E803D0070A00000033
:1018D10092570020006401000A0000008757002091
:1018E1000064010086570020006401008E5700202B
:1018F100006401000A0000008D570020006401000F
:101901000A0000008C570020006401000A0000005A
:101911009157002000FF01000A00000090570020AD
:1019210000FF01000A0000008F57002000FF0100A6
:101931000A0000008B57002001FF01000A0000008F
:101941008A57002001FF01000A000000895700208A
:1019510001FF01000A000000F05400200000F40122
:1019610001000000EE5400200000A00F0100000063
:10197100EC5400200000A00F01000000EA540020F8
:101981000000A00F01000000E85400200000A00F9B
:1019910001000000015C002000C80100005C002083
:1019A10000640100FF5B002000640100FE5B002079
:1019B10000640100FD5B002000640100FC5B00206D
:1019C100FF080100FB5B002001640100C5930108D1
:1019D1008993010800000000C04C0508045C002048
:1019E10001320100035C002001000000304D0508B8
:1019F100025C002004000000384D0508FA5B00205D
:101A010000640100F85B00201400E80301000000FD
:101A1100F65B0020E80330750A000000F45B00204B
:101A210000C80100F35B002000C80100F25B002048
:101A310000C80100F15B002000320100065C0020BB
:101A4100004B0100055C0020040000004C4D05081E
:101A5100F05B0020006401000A000000145C00201B
:101A61000000D007010000000F5C002000C8010049
:101A71000E5C002000C801000D5C002000C80100C0
:101A8100125C00200000D007010000000C5C002067
:101A910000C801000B5C002000C801000A5C0020A6
:101AA10000C80100105C00200000D0070100000008
:101AB100095C002000C80100085C002000C801008A
:101AC100075C002000C80100CD910108B591010813
:101AD10000000000604D0508E3540020005A010099
:101AE100E254002000C80100E0540020E803D007C0
:101AF100010000000000000000000000B1A8010882
:101B0100FC4D0508454C4C45300000000991010889
:101B1100BD90010800000000444E05087D900108B9
:101B21003590010800000000E04E0508E1AA010817
:101B3100C5AA010800000000604F0508CC54002030
:101B410001030100399601080D960108000000000B
:101B5100B8520508D18F0108858F010800000000E7
:101B6100285305085DA901086596010800000000D9
:101B7100C4530508DD9101080000000000000000C9
:101B810044540508B992010861920108000000005F
:101B9100A85405084D9301081193010800000000A5
:101BA10050550508B1050208019401080000000024
:101BB100DC550508A95700200106010025920108FE
:101BC100F191010800000000D8560508E50402085B
:101BD10041AB01080000000048570508F90502085B
:101BE10009AC01080000000098580508A85700201A
:101BF10001030100859101085591010800000000D1
:101C01006C590508510602080000000000000000A0
:101C1100D05905081D900108ADAA01080000000077
:101C2100505A0508000000000000000000000000FC
:101C3100B45A05083594010881AC01080000000080
:101C4100185B050800000000000000000000000013
:101C5100305D05081C4100209CFF2C0100000000A4
:101C6100845F0020E0150C1700000000785B002065
:101C710002000000685D0508AC54002088136F174E
:101C810001000000AE54002088136F17000000000F
:101C9100CE3000200000000000000000CC30002009
:101CA1000000000000000000CA3000200000000019
:101CB10000000000C830002000000000000000000B
:101CC100C63000200000000000000000C4300020E9
:101CD1000000000000000000AC0500200000000032
:101CE100000000003454002003000000585E050885
:101CF100A454002088136F170100000066410020E2
:101D010088136F1700000000C58E01080000000055
:101D110000000000685E0508795B002001000000FA
:101D2100BC5E05086841002001000000C85E05088E
:101D31005E41002002000000D05E050800000000A6
:101D41000000000000000000DC5E0508AD8E010807
:101D51000000000000000000785F0508000000009E
:101D61000000000000000000CC5F0508000000003A
:101D710000000000000000003C600508B054002095
:101D8100020000007460050862410020E0150C1794
:101D9100000000000000803F000000000000000083
:101DA1000000000000000000000000000000000032
:101DB1000000000000000000000000000000803F63
:101DC1000000000000000000000000000000803F53
:101DD1000000000000000000000000000000803F43
:101DE10000000000000000000000000001000000F1
:101DF1000000FA430000FA430000803FF16203084B
:101E0100000000000000000000000000FFFFFFFFD5
:101E1100FFFFFFFFFF0000000000000044810020E1
:101E210008000000000000003481002008000000CC
:101E3100818900086188000811DA000800000000AB
:101E410099830008C9D70008D987000831D700084D
:101E5100000000000000000055830008F188000820
:101E6100218800085DD90008000000006D8300088A
:101E710035D70008AD87000885D6000800000000AE
:101E8100000000006183000801000000A00F0000B5
:101E9100B80B00000102FFFF010000002CD805086B
:101EA10000000802050303000000000034D8050803
:101EB10001000802050403000000000080CE0508AF
:101EC1000200FE01011003000000000070B60508C9
:101ED1000300140200030000000000003CD80508C4
:101EE10004001F02020008000000000044D8050899
:101EF10005001F020201080000000000FFFF0000B2
:101F0100FFFFFFFF3CA805080000000000000000E3
:101F11000102030406070809010000000817002058
:101F210000000000000000000000000000000000B0
:101F310000000000000000000000000000000000A0
:101F41000000000000000000000000000000000090
:101F51000000000000000000000000000000000080
:101F61000000000000000000000000000000000070
:101F71000000000000000000000000000000000060
:082800000000000000000000D0
:108000002DE9F04700230F6801264FF0030C02E032
:108010000133102B41D006FA03F232EA0704F7D1FC
:10802000D0F800E05C000CFA04F52EEA050EC0F86A
:1080300000E091F80490D0F800A009FA04FE09F1DC
:10804000FF394EEA0A0EB9F1010FA846C0F800E068
:108050006FEA050515D8D0F808E005EA0E05856039
:108060004D79D0F808E0A54045EA0E0585604568E1
:1080700025EA020242608A7945689A4092B22A4310
:108080004260C26822EA0802C260CA79C568A2409A
:1080900001332A43102BC260BDD1BDE8F08700BF79
:1080A000037830B403B30246C0F10105531912F846
:1080B000014FDBB2002CF9D101335B00DAB20C4C7A
:1080C0000B80032322706370017859B102230025CD
:1080D0005A1CD2B2E154A55410F8011F0233DBB28E
:1080E0000029F5D130BC704702221346E7E700BFF4
:1080F00068170020084AD2E9403199420AD0D118C5
:10810000013391F808110170C3F30A03C2F800317A
:10811000012070470020704768170020064AD2F8F7
:108120000839D2F80C29934294BF4FF40060002024
:10813000013B9B1A1844704768170020012380F800
:108140005130704707B501A8FFF7D4FF0028FAD0D7
:108150009DF8040003B05DF804FB044BD3E9400331
:10816000984288BF03F50063181A7047681700200B
:1081700001207047024BC3F81029C3F81419704747
:1081800068170020024BC3F81829C3F81C19704760
:10819000681700207047704730B4134DD5E940236D
:1081A0009A4286BF03F50064A21A9A1A0A44B2F5ED
:1081B000006F13D8A9B101444A1E013810F8014FCD
:1081C000E918824203F1010381F80841C3F30A036D
:1081D000F4D1C5F80431002030BC7047022030BC17
:1081E00070470846F8E700BF68170020212838B517
:1081F0000C4605D022282ED0202813D0002038BDD0
:108200000029FBD0072AF9D11A4BD3F8200993F89B
:10821000241993F8252993F8263920602171627179
:10822000A371EBE70029E9D0072AE7D1114DD5F872
:1082300014391BB10968D5F81009984720682179CD
:108240006279A379C5F8200985F8241985F82529CC
:1082500085F82639D2E70029D0D0022ACED1054AA6
:10826000D2F81C39002BC9D00988D2F818099847D0
:10827000C4E700BF68170020024B0020C3F828099C
:10828000704700BF68170020044B00200522C3F888
:108290002829C3F81C09C3F814097047681700207F
:1082A000704700BF704700BF704700BF704700BFF6
:1082B000704700BF704700BF704700BF08B5024855
:1082C000FFF7EEFE014808BD6CA8050868170020FE
:1082D00008B50248FFF7E4FE014808BD7CA8050880
:1082E0006817002008B50248FFF7DAFE014808BD0C
:1082F00088A805086817002008B50248FFF7D0FED7
:10830000014808BD94A805086817002008B5024870
:10831000FFF7C6FE014808BDA0A8050868170020A1
:10832000042301480B8070478801002010B4074ADD
:10833000074B92F82C09122403F114020C80012837
:108340000CBF184610465DF8044B704768170020B4
:108350008C010020642301480B807047B401002089
:10836000432301480B8070471802002010B5084CC9
:10837000D4F8D400FF2809D00649D1F8302901F6F5
:108380003411FFF733FFFF23C4F8D430002010BDB1
:108390008801002068170020E8E700BF08B5D0F882
:1083A000E4355B6A9847002008BD00BF08B5D0F8E7
:1083B000E4351B6A9847002008BD00BFD0F8E435BB
:1083C00010B504461B689847D4F8E8359B68984771
:1083D000002010BD08B5D0F8E435DB6903B198473B
:1083E000002008BD08B5042290F81211D0F8E83535
:1083F00080F8131180F81221DB689847002008BD2F
:1084000010B5D0F8E83504461B699847032384F873
:108410001231002010BD00BF0B0617D401EB810301
:1084200000EBC30310B400EB81000124002283F8A9
:10843000764383F8741383F87523426D5DF8044B1B
:10844000136843F4001300201360704701F07F01AC
:1084500001EB810300EBC303012200EB810083F8F1
:108460001C1183F81E2183F81D2182691368002BDB
:1084700001DA43F0804343F4001313600020704797
:1084800082B00023016801930B6901930E4B03E056
:108490000A690192013B13D0019A002AF8DA019A85
:1084A000094B42F001020192019A0A610A690192A4
:1084B00003E00A690192013B02D0019AD207F8D485
:1084C000002002B0704700BF400D0300436D064A14
:1084D0001A61C278012A06D100F2CC5058614FF0DF
:1084E000802219681A6070471800086010B5802152
:1084F0000446FFF791FF20460021FFF78DFF20463D
:10850000BDE81040E2E700BF70B44B78012B26D0E5
:108510000B784A6900EB83035C6D25682369D2B14F
:108520008A684A6102F07F0223F4002323F07F036C
:1085300042F4002213432361C378012B04BF0B696B
:108540006361C5F3076363F07B0363F31F65256015
:10855000002070BC70478A6802F07F02E4E78269FD
:108560004C691568136944B38E68B4428CBF06F039
:108570007F0404F07F0423F4002323F07F0344F4FA
:10858000002443EA040388BF4E611361C378012BC2
:108590001DD0C5F3076464F07B0464F31F651560A8
:1085A000002BD5D14B69002BD2D002690878516BD2
:1085B000012383400B435363CAE723F4002323F0D2
:1085C0007F0343F400231361C378012BE1D10B78BF
:1085D0000C6900EB8300C5F30763816963F07B03DB
:1085E00063F31F654C610020156070BC704700BFCD
:1085F0002DE9F0434B78012B30D00B784C6900EB20
:1086000083035E6D356837691CB38B681C44013C7D
:10861000B4FBF3F4C4F3090203FB02F3C3F3120344
:108620004B61144643EAC44363F31C073761C378C4
:10863000012B04BF0B697361CB78012B44D0C5F3C8
:10864000076363F07B0363F31F6535600020BDE8BB
:10865000F0838A680124C2F31203E3E791F80080F3
:108660004E6900EB880EDEF818C0DCF80050DCF82C
:10867000107076B3D1F80890384A06EB0904013C33
:10868000B4FBF9F402EAC444C6F312022243CC78E4
:1086900007F060473A43012C174649D0CCF8102028
:1086A000C278012A55D00269516B03FA08F30B43D3
:1086B0005363C5F3076363F07B0363F31F65CCF873
:1086C00000500020BDE8F0834B7973B345F00055AE
:1086D000B5E707F0604747F40027CC78CCF8107076
:1086E000C378012B2FD0012CE3D102699268D20507
:1086F00054BF45F0005545F08055C5F3076262F060
:108700007B0262F31F65CCF80050002B9ED1B0B203
:1087100003308010DEF8D04098D0CA6852F8041BAD
:10872000216001339842F9D190E745F0805586E702
:1087300064F35E77CCF81070C378012BD5D10A6949
:10874000CCF81420D1E70A69CCF81420012CB0D160
:10875000CBE70B69CCF81430ABE700BF0000F81F83
:1087600038B501EB810400EBC4040D46002184F808
:108770007453C4F88C1384F87513C4F88833C4F8A0
:108780008023C3782821012B01FB050108BFEDB22E
:1087900001F55D7108BFC4F884231DB9FFF7B4FE6D
:1087A000002038BDFFF724FF002038BD10B501EBD5
:1087B0008101084A00EBC1010446B1F88C13104650
:1087C000FFF7EAFC034A204640230121FFF7C8FFD8
:1087D000002010BDA4200020E8E700BF30B44C7892
:1087E0000022012C154612D0097800EB81040123E8
:1087F0008B40646D63F31F4501696FF3CF322260D4
:10880000CB6923EA0503002030BCCB6170470B78AD
:1088100000EB83019C4064F30F058C69ECE700BF1B
:1088200040F2011310B500F5A2710446A0F84431DE
:10883000FFF7D4FF0123A4F89C3304F567712046A9
:10884000FFF7CCFF4FF48173A4F86C3104F5B671D7
:108850002046FFF7C3FFFFF70FFD002010BD00BF4C
:1088600038B540F2031304460D46A0F8943100F5E4
:10887000CA71FFF7B3FF29462046FFF7D1FF00205A
:1088800038BD00BFF0B44B780A78012B4FF00004DC
:1088900000EB820524D0012393406D6D63F31F44E8
:1088A0002E68330415D48A6891F803C0CF880F4925
:1088B000C2F30A0242F0805343F400430CF0030277
:1088C00043EA824307F00F0243EA825331400B43ED
:1088D0002B600369DA691443DC610020F0BC704747
:1088E0009340AD6963F30F04DAE700BF007833EC1F
:1088F0002DE9F04140F20113044602254FF04008F3
:1089000001270026A0F84431C0F84C8180F8475177
:10891000A0F84A7180F8486100F5A271FFF7B2FF34
:1089200004F56771A4F89C73C4F8A48384F89F537A
:1089300084F8A0632046FFF7A5FF082203234FF425
:108940008171C4F87421A4F86C1184F86F3104F5B6
:10895000B671A4F872512046FFF794FF064B9D8331
:10896000FFF792FC054A434620463946FFF7F8FEDA
:108970003046BDE8F08100BF88010020A42000201F
:1089800070B50323092240F2031604460D46C0F8D1
:108990009C2180F89731A0F89A31A0F8946100F5F5
:1089A000CA71FFF76FFF29462046FFF7A1FF00209D
:1089B00070BD00BF70B5002540260446A0F8745372
:1089C00080F87753C0F87C6300F55D71FFF75AFFBC
:1089D0004FF48073A4F81C3104F58E71C4F824613F
:1089E00084F81F51A4F822512046FFF74BFFD4F81A
:1089F000E835A078012284F812215B689847284660
:108A000070BD00BF82B000230193019A094B42F070
:108A100010020192C168019A0A610A69019203E099
:108A20000A690192013B02D0019AD206F8D40020D3
:108A300002B07047400D030082B000230193019AF9
:108A40000B4B42F020020192019A61F38A120192CB
:108A5000C168019A0A610A69019203E00A690192F8
:108A6000013B02D0019A9206F8D4002002B0704770
:108A7000400D03000E4BDA68D20310D4DA68D10639
:108A80000FD4DA68D20510D4DA6812F0E00F0AD1F8
:108A9000DB6813F0020F14BF082009207047012083
:108AA000704706207047072070470220704700BFBC
:108AB000003C024000207047704730B1034B93F9EF
:108AC0007C090028D4BF00200120704768170020CF
:108AD00008B5FFF7F2FF60B1064A92F87D3992F8C7
:108AE0007E295B0003F00203002A18BF43F0010354
:108AF0000B6008BD6817002008B5FFF7DEFF18B14E
:108B0000024BD3F880390B8008BD00BF68170020E6
:108B100070B5FFF7D2FF90B1094AB2F8845975B128
:108B2000D2F888690023B3421C4608DA02EB4404F9
:108B30000133B4F88C49AC42DBB2F4D30B7070BD96
:108B40006817002008B5FFF7B8FF10B100230B70BD
:108B5000137008BD0420704728B1034B93F9D80067
:108B6000003818BF012070478801002008B5FFF7C2
:108B7000F3FF50B1054B93F9D820012AC3BF93F8F6
:108B8000DB30C3F340030B60002008BD88010020E8
:108B900008B5FFF7E1FF18B1024B93F8DA300B701C
:108BA00008BD00BF8801002070B5FFF7D5FF38B1C0
:108BB0000E4C94F8DB30DB0703D500230B701370E9
:108BC00070BD0B4D94F9D93095F89C6993FBF6F381
:108BD00001330B7094F9D94095F89C1994FBF1F38B
:108BE00001FB134301331370EAE700BF8801002043
:108BF000681700200320704770B50B4A92F8A0391F
:108C000006255E1CB6FBF5F405FB146492F8A15929
:108C1000AC4207D002EBC30382F8A049C3F8A40911
:108C2000C3F8A81970BD00BF68170020002230B536
:108C300004461046914200DC30BDA35C0825584034
:108C400010F0800F4FEA400318BF83F0D503013DB9
:108C5000D8B2F5D10132EDE710B5E9B10F4BD3F839
:108C6000D409814218DCBAB1D3F89C399A4213DC9A
:108C70000B4C013A013903FB012184F8E61004F1A1
:108C8000E2000521FFF7D2FF062184F8E70004F196
:108C9000E200BDE81040AFE710BD00BF681700203C
:108CA000880100200023038083708380C3800372C7
:108CB000704700BF074A084992F8D839097801334C
:108CC000DBB2994282F8D83904BF002382F8D83940
:108CD000704700BF6817002014000010F8B5794CE9
:108CE000D4F8DC3983B1784B5B6893F82E305BB1F4
:108CF000764B94F8E029A3FB0013012A4FEA931363
:108D000030D0022A08D002B1F8BD714B9842FBD98D
:108D1000012384F8E039F8BDD4F8E42964329A429A
:108D20003ED894F8D83904EB031393F8642EFF2A45
:108D300006D068490132012083F8642E81F8E800EA
:108D4000FFF7B8FF94F8583E0122092B84F8E02978
:108D5000DAD1B4F8023F13449BB2A4F8023FA4F85E
:108D60005E3EF8BD94F8D819C4F8E4398C2303FBAF
:108D7000014394F8580E83F8FA29002604F6EC15FE
:108D80000A220223092884F8F669C4F8E85984F80D
:108D9000F72984F8E039B7D10131A4F85C1EF8BD99
:108DA00094F8F62994F8F7399A42ADD104F6EB100D
:108DB00004F6F415002310F8012F082153405A003F
:108DC00013F0800F08BF5B0082F0070214BFD3B21C
:108DD000DBB20139F3D18542EDD194F8F5299A42FD
:108DE00039D194F8D869B4F8EF5994F8F379B4F814
:108DF000F10994F8F43994F8EDC904EB06126DBA50
:108E000040BA43EA0723ADB294F8EE7982F8641EC3
:108E1000C2F8685E81B22F4D94F9EC09C2F86C1E5D
:108E200047EA0C271BB20121032EA2F8667EA2F8A6
:108E3000703E82F8650E85F8E81009D894F8582E2F
:108E40000C2A2AD00D2A03D104EB4606A6F85C0EA4
:108E5000FFF730FF5CE794F8D83904EB031393F87D
:108E6000642EFF2A06D01B490132012083F8642EAC
:108E700081F8E800FFF71EFF94F8583E0122092B05
:108E800084F8E0297FF440AFB4F8003F13449BB26C
:108E9000A4F8003FA4F8603EF8BD94F8FE1E0E4A08
:108EA00003EB830303EB830349089B0004EB4606B3
:108EB00093FBF1F382FB0312DB17C3EBA203A6F8CB
:108EC0005C3EC5E76817002014000010D34D621007
:108ED0003F4B4C0088010020676666660B4B93F899
:108EE000F61993F8F72991420ED010B493F8F629A9
:108EF000D3F8E849511CD2B2C0B2C9B283F8F6190E
:108F0000A0545DF8044B7047704700BF68170020FD
:108F1000FD2870B522D0F02804D0EF2822D00224FA
:108F2000204670BD114D0320052641282E444FF0E8
:108F3000000405F1010580F080030DD0042B0BD94E
:108F4000FFF7E6FF2044B542C4B2E9D015F8010BA3
:108F5000412880F08003F1D10420F3E7044D0B2079
:108F60000426E2E7034D0C200626DEE75439050807
:108F7000503905085C3905080C4AD2F8183F30B45E
:108F80001C68D2F8105F5D6019810025611C1960B2
:108F90009D812070D2F8183FD2F8101F1A685A60CD
:108FA0004FF6F67230BC19609A817047681700203E
:108FB000134B10B400220F2483F81E1F090A83F8F4
:108FC0001D0F83F81F1FC3F8202FC3F8242FC3F8E9
:108FD000282F83F81C4F03F61C70012110F8014F55
:108FE000013122440E29D2B2F8D183F82A2F054943
:108FF000D3F82C0F5DF8044B102235F007BB00BFEF
:109000006817002084260020054B002183F8301FBC
:10901000C3F8341FD3F82C3F03B1C9E7704700BF32
:10902000681700202DE9F04FCF4DD04CDFF87C932E
:1090300084460F4616460FCD2DED068B0FC40FCD7F
:109040000FC495E807008BB099F8E63E029684E8D5
:109050000700CDE906C7042B00F26381DFE813F0B7
:10906000C70161015C010500D7019FEDC18ADFEDF9
:10907000C18ADFF83C83C049C8F82410BF49C04BFF
:10908000C04AC8F820100299002918BF134638EECC
:10909000887AF5EE006A86EE87AAC8F82C30BA4FB7
:1090A000BA4B03930026DFEDBA7A9FEDBA9A28EE09
:1090B000278AF0EE679A079BB34200F02781039B53
:1090C00013F8014B039306F1010B5FFA8BF2002CAE
:1090D00000F0A281DFF8DCC2002303E00133152B8E
:1090E00000F09A8103EB43015D001CF80100A042EF
:1090F000F4D14944049291F8391F002900F0948179
:10910000204633F037FF036805938246184633F054
:109110001DFF9AF8051034F073F890F800C0BCF108
:10912000000F40F0798109EB050025090321013D7D
:10913000049A80F8792F8D4280F8781F059B04F0FF
:109140000F0000F23F81944C04EB450CBCF840C08A
:109150004CFA00FE1EF0010E00F04681012303FAD6
:1091600000F0013800EA0C002544049247F074FC3A
:1091700095F84850DFF840C2049A28440CEBC0052B
:109180000321A971EA715CF830007D6100F13F4173
:1091900001F57E0104EB9124012394F84C109AF818
:1091A000082001F01F044909032903FA04F300F021
:1091B0001681042900F00E81022900F00681AB8897
:1091C0000893B3FA83F3C3F11F03C3F3CC0100EB9D
:1091D000810103F007030C6A9B000F259D4024EAE0
:1091E00005040C620C6A02FA03F323430B620223A8
:1091F00008A90993FEF704FFDAF80030029A002A62
:1092000000F0A780B9F8E42E00EE102AB8EEC00AEC
:10921000FCEEC07A17EE901A604A934200F0868006
:10922000A2F58062934200F0818002F58042934271
:109230007CD002F58062934278D002F5806293423E
:1092400074D0574B586B40084FF6FF73B0FBF1F2E8
:109250001A44120CB0FBF2F20298002869D0B2FB5B
:10926000F1F199F8E60E04288BB267D007EE902A48
:10927000F8EE676A66EE887A29EE677A99F8E70E63
:1092800006990091A6EEA87A019051463846C7ED9E
:10929000027A87ED037A29F055FD002E40F38E8087
:1092A0007B68D8F84020934200F08A80012E00F0BD
:1092B0008580D8F85820934200F08280022E7DD01D
:1092C000D8F8702093427BD0032E77D0D8F888202E
:1092D000934275D0042E71D0D8F8A02093426FD05D
:1092E000052E6BD0D8F8B820934269D0062E65D0F1
:1092F000D8F8D020D31A18BF01235E460122082EC9
:109300003B747A7407F118077FF4D5AE17480BB099
:10931000BDEC068BBDE8F08F9FED228AF0EE488A07
:10932000A7E69FED218AF0EE488AA2E61C4B586B17
:109330008AE799F8E60E0428194697D107EE901AA5
:1093400007EE102AF8EE677AF8EE476A67EEA97A18
:1093500092E7B0EE4A0A049348F07EF9FCEEC07A38
:10936000049B17EE901A57E7643905081C0000109B
:10937000ACC5A737ACC5A73661BE020875B80308EF
:1093800009BA020869B803085000001053260020EB
:109390006F12833A00007A445039050800040140F6
:1093A00060280020282930386F1203396817002000
:1093B00014000010A02600200C27002001239CE7A9
:1093C00000239AE7C7F814C018E718494C6C2343E8
:1093D0004B64F4E615490C6B23430B63EFE613492A
:1093E0000C6C23430B64EAE6C7F814E006E7DFF8E9
:1093F00058809FED0F8A0F4B0F4AC8E908320023AF
:10940000069301230293F0EE488A0C4B3FE6DFF807
:1094100038809FED0B8AEEE70A4A084BC8F82420F3
:10942000C8F82C30002072E70B68FFDE00380240DD
:109430006F12833A75B8030861BE020869B8030861
:109440000000000001BD020814000010F8B51A4D1C
:1094500095F83830002BFBD161B30144174F4E1EF5
:10946000441ED7F80C29D7F8081914F801CF531C5B
:10947000C3F30A038B422CBF4FF400600020C91ACB
:109480002A4401440129C7F80C3982F83CC00FD1A5
:10949000012034F03BFDD7F80839D7F80C198B427E
:1094A00094BF4FF4006200225B1A1344012BEFD0EB
:1094B000B442D6D10020F8BD6028002068170020F3
:1094C0000A4B0846D3F8281910B569B1D3F82839E2
:1094D000052B09D1064C002AD4F83C3804DD11468E
:1094E000FFF7B4FFD4F83C3810BD00BF6817002068
:1094F0006028002010B590F85010002380F85030FC
:1095000089B10C4CD4F828297AB1D4F82829052A35
:109510000DD1094C3C30D4F83C38FFF797FFD4F814
:109520003C38012010BD0120FCE71046FAE7184640
:10953000F8E700BF6817002060280020002280F8AC
:109540005120D7E790F85020531C0244DBB280F83A
:10955000503082F83C1090F851200AB1132B00D9FA
:10956000C8E77047F8B5054626201DF0ADFE134C40
:109570000146F0B9D4F8400890F838301E3B012B72
:1095800001D935F077F80E4F0026AE4209DBB4F86A
:1095900064380133A4F86438D4F83C38C4F874381B
:1095A000F8BD17F8011BD4F8400835F063F8013610
:1095B000EBE7002384F87238EEE700BF6028002054
:1095C000A430002038B5154C94F8A13994F8A0299E
:1095D0009A421CD004EBC303114AD3F8A419D3F860
:1095E000A8090023984213DC8B780E4A5B0882F8A6
:1095F0007238C2F87808FFF7B5FF94F8A139062150
:109600000133B3FBF1F201FB123384F8A13938BD09
:10961000CD5C02F8015B0133E4E700BF681700206E
:10962000A4300020602800202DE9F84F1B4C05468F
:109630001E2094F87CA894F87DB894F87E68B4F85D
:109640008098B4F8828894F884781DF03DFE30B19B
:10965000B8F1000F03D0C14601264FF0000A94F87C
:109660008638DA070AD494F88B283AB9012F12D039
:10967000022F03D113F0020F08BF012685F800A0C6
:1096800085F801B0AE70A5F80490A5F806802F7299
:109690002846BDE8F88F3E46F0E700BF602800206E
:1096A00013B50446FFF758FA08B300230DF106027C
:1096B0002046ADF8063012F0CDFFC0B10D4C9DF83C
:1096C000062094F9D81084F8ED20032908BF62F031
:1096D0007F024FF00501084808BF84F8ED20FFF72E
:1096E000A5FA062184F8EE000348FFF785FA02B0D8
:1096F00010BD00BF88010020710200202DE9F84F45
:109700002DED028BFFF728FA002844D0264B93F961
:10971000D80001283FDD93F8EF40DFF894809FEDFB
:10972000238A0FF27C0BDBE900AB15468E1E02EBA1
:1097300044094D4504D1BDEC028B2046BDE8F88FAD
:1097400038F8027B26F8027F07EE907AF8EEE77A87
:1097500067EE887A17EE900A46F08EFD52465B4619
:1097600046F0E2FD41EC100B49F0D2FD51EC100B3C
:1097700047F002F90E2F80B20AD919303223B0FB1C
:10978000F3F080B200EB800000EB8000400080B27C
:1097900025F8020BCDE70024CDE700BFAFF3008032
:1097A0001655B5BBB16B024088010020CDCCCC3D35
:1097B0001031002038B50D46FFF7CEF9044638B118
:1097C0000C4890F8DB30DB0704D5B0F8DC002880CB
:1097D000204638BD084A90F9D93092F89C2993FB6D
:1097E000F2F102FB113201320131F03012F046FF8A
:1097F000EDE700BF88010020681700202DE9F04F39
:10980000A94D95F8C0388BB08146002B40F0B5804B
:10981000D5F8C468002E00F0B080A44AD2F8F44015
:1098200004F0F021B1F1E02F6ED1C2F8F430D5F898
:10983000C828944268D004930593ADF81830B5F861
:10984000803895F87CE8ADF8143095F87DC895F827
:10985000843895F87EA88DF818300DF110088DF831
:1098600010E08DF811C08DF812A098E8070007AB42
:1098700003C38F4F1A80C4F342533B44C4F30342E3
:1098800093F85210C5F8C8488E4502F1010201D183
:10989000944508D030468DF81C108DF81D2012F02C
:1098A000EDFEADF82000304613F01EF9032804F059
:1098B000070B34D0042836D000239A4501A930463E
:1098C00018BF8DF81E3012F053FF48B1019BC4F34E
:1098D000001103F001038B4202D0304612F0F6FF74
:1098E0000A2207A9404649F0ACFF68B19DF81E3036
:1098F000BDF81C2085F87E38BDF82030A5F87C28FE
:10990000A5F880383DF0D8FC95F8CCA804AF95F8C0
:10991000CC38032B7BD8DFE803F00A3376A35F440F
:1099200097F85730C9E75F4497F85F30C5E7394685
:10993000304612F023FF044658B107A8FFF774FE23
:109940009DF81E109DF810308B4260D0304613F009
:1099500033F895F8CC38013303F0030385F8CC389D
:109960000CB99A45D3D195F88638DB0700D524B1D8
:10997000336849461B68304698470BB0BDE8F08F06
:1099800001A8FFF751FE95F886889DF8044008F07D
:109990000108ECB1B8F1000F39D13A460DF10301DD
:1099A000304612F0EEFE044688B307A8FFF73CFEEF
:1099B0009DF81C109DF803309DF81D208B4203D1AB
:1099C0009DF81030934222D0304612F0FFFFC0E7DE
:1099D000B8F1000FBDD13946304612F0CCFE044636
:1099E000A8B107A8FFF720FEBDF82010BDF8103081
:1099F0008B420CD085F8CD8885F8CE883368304608
:109A00009B699847A5E795F88638D80701D50024C3
:109A10009FE707A9304612F0ABFE04460028F6D0B7
:109A20001E201DF051FC95F8CF3883428046EED0C1
:109A300085F8CF0860B1B5F88238002BE7D1079BD5
:109A4000D907E4D40121304612F040FF444680E7B4
:109A5000079BDA07DBD50146304612F037FF78E77F
:109A60003846FFF7E1FD97E8070007AB03C31A800C
:109A70009DF810309BB10DF11D0207A9304612F080
:109A800080FE0DF11E01304612F078FE0A2207A971
:109A9000384649F0D6FE041E18BF012459E708A92C
:109AA000304612F068FEECE76028002088010020B4
:109AB000503905082DE9F041FD2984B0044669D0EC
:109AC000F02949D0EF2900F0BF804AB1034686183B
:109AD00003AD002003F8010B9E4205F8010BF9D1FC
:109AE000BB4B0B2003F1090501E013F8010F814284
:109AF00055D0AB42F9D14B1E152B21D8DFE813F01E
:109B0000C500D000DA00E500EF00F50016000701FF
:109B10000301200020002601260126011301130164
:109B200013010301200020001E01AD00A94D95F88E
:109B30008638DE0700F17181B5F83C39ADF80C309C
:109B40003AB1224403AB13F8011B04F8011BA242F3
:109B5000F9D104B0BDE8F0819F4F03214FF0050813
:109B6000B844002501370CE0FFF7D2F9064660192A
:109B70003246FFF79FFF70194745C5B2E9D017F885
:109B8000011B412981F08003084601D0042BEBD84A
:109B90000426ECE7914F0B214FF00408E0E78D4BD2
:109BA000D3F8680980060CD4002AD2D0224403AB33
:109BB00013F8011B04F8011B9442F9D104B0BDE86D
:109BC000F08193F8D00810F0020F93F8E80840D025
:109BD000052834BF02250325142917D97C39C8B2BA
:109BE0000628E1D80629DFD801A050F821F000BFEF
:109BF000C79D0008C79D0008AF9D0008A99B0008ED
:109C0000A79D00089F9D0008979D00080929CBD9B2
:109C10000A390A29C8D801A656F821F0839D000800
:109C2000F99D0008A99B0008A99B0008A99B0008B2
:109C3000A99B0008A99B0008A99B0008A99B0008F4
:109C4000799D0008C79D0008654F0C214FF006085C
:109C500086E70B29A8D10125CFE05E4BB3F85C194C
:109C6000CD055ABFCB4303F00103032311F0440F8A
:109C700018BF042311F0020F18BF072311F4806FDF
:109C800018BF0923ADF80C305AE7564BB3F8FC3037
:109C900003EB83035B0003F5C873ADF80C304FE7AB
:109CA000514BD3ED037AFDEEE77A17EE903AADF81B
:109CB0000C3045E7474B93F80309B3F8F018002838
:109CC00040F0A680ADF80C103AE74249B1F8F03800
:109CD00091F81C19B3FBF1F3ADF80C3030E73D4BB4
:109CE000D3F84C39ADF80C302AE73A4BB3F83C19AD
:109CF000002900F0878001922BF040FF019A80B28A
:109D0000ADF80C001CE7334BB3F8663916E7314B5E
:109D10003649B3F9643981FB0301DB17C3EBA103B7
:109D2000ADF80C300CE72B4B03EB4101B1F8423995
:109D300003EB83035B00ADF80C3001E7254B93F890
:109D4000863803F00103ADF80C30F9E6254BDFED62
:109D5000286AD3ED407A0C39C9B203EB810393ED45
:109D6000547A67EEA67A67EE877AFDEEE77A17EE09
:109D7000903AADF80C30E3E6B3F8E238ADF80C30C9
:109D800012E7B3F8E43803EB830303EB83039B0090
:109D9000ADF80C3008E7D3F8DC38039304E7D3F8C8
:109DA000D838039300E7D3F8D4380393FCE6B3F82C
:109DB000E238104903EBC3039B00A1FB03135B09CB
:109DC000ADF80C30F0E6B3F8EC38ADF80C30EBE65B
:109DD000B8390508602800205439050850390508AD
:109DE0005C39050814000010803100206766666643
:109DF00000007A441F85EB51EDB28DF80C508DF8C0
:109E00000D00D1E6D3F8540980F3100080B277E753
:109E100093F81C39B1FBF3F154E7019220F014FAE6
:109E200005F51263D3ED037A019AFCEEE77A17EE9B
:109E3000903A9BB200287FF481AED5F8581911F002
:109E4000100F18BF002379E600F01F02400901231C
:109E5000032803FA02F304D004280CD0022805D00A
:109E60007047074A116C0B4313647047044A516CE6
:109E70000B4353647047024A116B0B4313637047E3
:109E800000380240002845D003682A4A03F13F41C8
:109E900001F57E0102EB9122F0B592F84C2002F020
:109EA0001F0452090121032A01FA04F13DD0042ABA
:109EB00036D0022A2FD00022B0F804C01146012665
:109EC000032706FA01FE3EEA0C0001F101011CD154
:109ED0001D6807FA02F425EA04051D60186806FAF1
:109EE00002F505431D609D6825EA04059D6098689C
:109EF0009860586820EA0E00586058685860D86822
:109F000020EA0400D860D868D860102902F1020263
:109F1000D7D1F0BD7047084A546C21435164CAE759
:109F2000054A146B21431163C5E7034A146C2143AE
:109F30001164C0E75039050800380240002800F0DD
:109F4000638103689D4A03F13F4101F57E0102EB05
:109F5000912210B492F84C2002F01F045209012102
:109F6000032A01FA04F100F06281042A00F056810C
:109F7000022A00F04A818288D40700F133819007D9
:109F800000F11E81510700F10781140700F1F280F2
:109F9000D00600F1DD80910600F1C880540600F182
:109FA000B380100600F19E80D10500F189809405F0
:109FB00074D4500561D411054ED4D4043BD490041C
:109FC00028D4510415D4120402D45DF8044B704710
:109FD0001A685DF8044B22F040421A601A681A6051
:109FE000DA6822F04042DA60DA6842F08042DA60F1
:109FF0007047196821F04051196019681960D968D3
:10A0000021F04051D960D968120441F08051D960E3
:10A01000DBD5DDE7196821F0406119601968196026
:10A02000D96821F04061D960D96841F08061D96078
:10A030005104C8D5DDE7196821F04071196019682D
:10A040001960D96821F04071D960D968900441F055
:10A050008071D960B5D5DDE7196821F44001196038
:10A0600019681960D96821F44001D960D968D4040D
:10A0700041F48001D960A2D5DDE7196821F44011CF
:10A08000196019681960D96821F44011D960D9683C
:10A0900041F48011D96011058FD5DDE7196821F4ED
:10A0A0004021196019681960D96821F44021D960EC
:10A0B000D968500541F48021D9607FF57CAFDCE799
:10A0C000196821F44031196019681960D96821F4C0
:10A0D0004031D960D968940541F48031D9607FF569
:10A0E00068AFDBE7196821F440411960196819600D
:10A0F000D96821F44041D960D96841F48041D960E0
:10A10000D1057FF554AFDBE7196821F440511960A0
:10A1100019681960D96821F44051D960D9681006CE
:10A1200041F48051D9607FF53FAFDBE7196821F436
:10A130004061196019681960D96821F44061D960DB
:10A14000D968540641F48061D9607FF52AAFDBE716
:10A15000196821F44071196019681960D96821F4EF
:10A160004071D960D96841F48071D96091067FF55A
:10A1700015AFDBE7196821F0C00119601968196093
:10A18000D96821F0C001D960D968D00641F04001FA
:10A19000D9607FF500AFDBE7196821F03001196065
:10A1A00019681960D96821F03001D960D96814079D
:10A1B00041F01001D9607FF5EBAEDBE750390508BF
:10A1C000196821F00C01196019681960D96821F02B
:10A1D0000C01D960D96841F00401D96051077FF5BD
:10A1E000D4AED9E7196821F0030119601968196024
:10A1F000D96821F00301D960D968900741F00101C5
:10A20000D9607FF5BFAEDBE770470D4A546C214340
:10A2100051648288D4077FF5B2AEE3E7084A146B35
:10A22000214311638288D4077FF5A9AEDAE7044A97
:10A23000146C214311648288D4077FF5A0AED1E766
:10A2400000380240004870476C270020484B5B688C
:10A25000C3F308032DE9F041002B65D1EFF311831F
:10A26000002B61D1434A444CD2F83C18A068D2F884
:10A270003C389942F8D1D2F874399842F4D8D2F8DF
:10A2800070594FF47A7404FB05F3181AB0FBF5F01B
:10A2900004FB0101364D384810264FF47A7401272B
:10A2A0006B68C3F30803F3B9EFF31183DBB9D2F89A
:10A2B0003C38D0F808E0D2F83CC86345F7D1D2F872
:10A2C00074C9E645F3D8D2F8708904FB08FCACEBFE
:10A2D0000E0CBCFBF8FC04FB03C35B1AB3F57A7FDE
:10A2E000DED3BDE8F081EFF3118E86F31288D0F84B
:10A2F00008800368DB0344BFC2F86C79D0F808809B
:10A30000D2F83CC8D2F86C395FFA8EFE8EF3118811
:10A31000D2F870E9634404FB0EFCACEB080CBCFB08
:10A32000FEFC04FB03C3D8E7EFF31180102383F393
:10A33000128811490F4A8D680B68DC0342BF012364
:10A34000C2F86C398D68D2F83C38D2F86C19C0B2BA
:10A3500080F31188D2F870494FF47A70194400FBE9
:10A3600004F35B1BB3FBF4F300FB013192E700BF86
:10A3700000ED00E06028002010E000E02DE9F84F3B
:10A38000B34C94F87819D4F88009C1F3400137F040
:10A390002FFE94F87819D4F87C09C94301F0010123
:10A3A00037F026FEAB49AC4B4FF0050B10200125D2
:10A3B000D4F8802942B117689288D7F814C012EAFD
:10A3C0000C0F14BF7A833A83D4F87C2942B1176802
:10A3D0009288D7F814C012EA0C0F14BF7A833A831C
:10A3E0004FF032084FF47A7E4A68C2F30802002A1E
:10A3F00040F00D81EFF31182002A40F00881D4F87B
:10A400003C78D3F808C0D4F83C289742F7D1D4F868
:10A4100074299445F3D8D4F870690EFB06F2A2EBC8
:10A420000C02B2FBF6F20EFB07274A68C2F30802E1
:10A43000002A40F0AA80EFF31182002A40F0A580A4
:10A44000D4F83C28D3F808A0D4F83C68B242F7D13D
:10A45000D4F87469B245F3D8D4F870690EFB06FCE1
:10A46000ACEB0A0CBCFBF6FC0EFB02C2D21BB2F535
:10A470007A7FDAD3B8F10108B6D1D4F8802942B195
:10A4800017689288D7F814C012EA0C0F14BF7A83A9
:10A490003A83D4F87C2942B117689288D7F814C05F
:10A4A00012EA0C0F14BF7A833A834FF032084FF44C
:10A4B0007A7E4A68C2F30802002A40F08780EFF3F0
:10A4C0001182002A40F08280D4F83C78D3F808C08A
:10A4D000D4F83C289742F7D1D4F874299445F3D89E
:10A4E000D4F870990EFB09F2A2EB0C02B2FBF9F260
:10A4F0000EFB07274A68C2F308023ABBEFF311824A
:10A5000022BBD4F83C28D3F808A0D4F83C68B24267
:10A51000F7D1D4F87469B245F3D8D4F870990EFB2A
:10A5200009FCACEB0A0CBCFBF9FC0EFB02C2D21B13
:10A53000B2F57A7FDED3B8F10108BAD10BF1FF365C
:10A5400016F0FF0B7FF434AFBDE8F88FEFF31189FD
:10A5500080F312889E681A68D20344BFC4F86C590D
:10A560009E68D4F83C28D4F86CC95FFA89F989F35D
:10A570001188D4F8709962440EFB09FCACEB060C10
:10A58000BCFBF9FC0EFB02C2D1E7EFF3118980F3AB
:10A590001288D3F808A01A68D20344BFC4F86C59D3
:10A5A000D3F808A0D4F83C28D4F86CC95FFA89F92C
:10A5B00089F31188D4F8706962440EFB06FCACEB99
:10A5C0000A0CBCFBF6FC0EFB02C24FE7EFF3118C4A
:10A5D00080F31288D3F808901A68D60344BFC4F8F1
:10A5E0006C59D3F80890D4F83C28D4F86C795FFA09
:10A5F0008CFC8CF31188D4F870C917440EFB0CF254
:10A60000A2EB0902B2FBFCF20EFB072772E7EFF3A5
:10A61000118C80F31288D3F808901A68D60344BFCF
:10A62000C4F86C59D3F80890D4F83C28D4F86C7965
:10A630005FFA8CFC8CF31188D4F8706917440EFB18
:10A6400006F2A2EB0902B2FBF6F20EFB0727ECE6DC
:10A650006028002000ED00E010E000E02DE9F84F58
:10A66000BF4CC04FC04D4FF00A08FFF787FE0126D0
:10A670004FF4FA7C4FF0100E4FF47A707B68C3F3FE
:10A680000803002B40F05482EFF31183002B40F0BD
:10A690004F82D4F83C28A968D4F83C389A42F8D1C3
:10A6A000D4F874399942F4D8D4F8709900FB09F3BE
:10A6B0005B1AB3FBF9F300FB02327B68C3F30803B8
:10A6C000002B40F0F481EFF31183002B40F0EF8179
:10A6D000D4F83C38D5F808A0D4F83C188B42F7D110
:10A6E000D4F874198A45F3D8D4F8709900FB09F1AD
:10A6F000A1EB0A01B1FBF9F100FB03139B1AB3F5BF
:10A700007A7FDAD3BCF1010CB8D194F87819D4F877
:10A710008009C1F3400137F06BFC94F87819D4F844
:10A720007C09C94301F0010137F062FC4FF00609D2
:10A730004FF0100C0126D4F8803933B11A689B8889
:10A7400051690B4214BF53831383D4F87C3933B15E
:10A750001A689B8851690B4214BF538313834FF0CF
:10A76000FA0E4FF47A707B68C3F30803002B40F0B5
:10A770007E81EFF31183002B40F07981D4F83C18EF
:10A78000D5F808A0D4F83C389942F7D1D4F87439F8
:10A790009A45F3D8D4F8702900FB02F3A3EB0A031F
:10A7A000B3FBF2F300FB01317B68C3F30803002B1A
:10A7B00040F03D81EFF31183002B40F03881D4F855
:10A7C0003C28D5F808B0D4F83C389A42F7D1D4F8F0
:10A7D00074399B45F3D8D4F8703900FB03FAAAEB1F
:10A7E0000B0ABAFBF3FA00FB02A2521AB2F57A7F07
:10A7F000DAD3BEF1010EB6D1D4F8802932B1116896
:10A8000092884869024214BF4A830A83D4F87C299B
:10A8100032B1116892884869024214BF4A830A83A0
:10A820004FF0FA0E4FF47A707A68C2F30802002AE9
:10A8300040F0DD80EFF31182002A40F0D880D4F898
:10A840003C28D5F808A0D4F83C188A42F7D1D4F8AF
:10A8500074198A45F3D800FB03F1A1EB0A01B1FB9F
:10A86000F3F300FB02317B68C3F30803002B40F0D5
:10A870009E80EFF31183002B40F09980D4F83C28A0
:10A88000D5F808B0D4F83C389A42F7D1D4F87439E6
:10A890009B45F3D8D4F8703900FB03FAAAEB0B0AF6
:10A8A000BAFBF3FA00FB02A2521AB2F57A7FDAD3AE
:10A8B000BEF1010EB8D109F1FF3919F0FF097FF49B
:10A8C0003AAF4FF47A7C60464FF0100E01267B6859
:10A8D000C3F30803002B40F00B81EFF31183002B2F
:10A8E00040F00681D4F83C28A968D4F83C389A4254
:10A8F000F8D1D4F874399942F4D8D4F8709900FB9F
:10A9000009F35B1AB3FBF9F300FB02327B68C3F374
:10A9100008035BBBEFF3118343BBD4F83C38D5F895
:10A9200008A0D4F83C188B42F7D1D4F874198A45A2
:10A93000F3D8D4F8709900FB09F1A1EB0A01B1FB3F
:10A94000F9F100FB03139B1AB3F57A7FDED3BCF158
:10A95000010CBCD1B8F101087FF487AEBDE8F88FD7
:10A960006028002000ED00E010E000E0EFF3118926
:10A970008EF31288D5F808A02B68DB0344BFC4F817
:10A980006C69D5F808A0D4F83C38D4F86C195FFA93
:10A9900089F989F31188D4F870990B4400FB09F107
:10A9A000A1EB0A01B1FBF9F100FB0313CBE7EFF3D5
:10A9B00011838CF31288D5F808B02A68D20344BFFB
:10A9C000C4F86C69D5F808B0D4F83C28D4F86CA960
:10A9D000DBB283F31188D4F87039524400FB03FAD8
:10A9E000AAEB0B0ABAFBF3FA00FB02A25CE7EFF357
:10A9F00011828CF31288D5F808A02B68D90344BFC4
:10AA0000C4F86C69D5F808A0D4F83C38D4F86C19AF
:10AA1000D2B282F31188D4F87029194400FB02F3F2
:10AA2000A3EB0A03B3FBF2F300FB01311BE7EFF3E7
:10AA300011838CF31288D5F808B02A68D20344BF7A
:10AA4000C4F86C69D5F808B0D4F83C28D4F86CA9DF
:10AA5000DBB283F31188D4F87039524400FB03FA57
:10AA6000AAEB0B0ABAFBF3FA00FB02A2BDE6EFF376
:10AA700011828CF31288D5F808A02B68D90344BF43
:10AA8000C4F86C69D5F808A0D4F83C38D4F86C192F
:10AA9000D2B282F31188D4F87029194400FB02F372
:10AAA000A3EB0A03B3FBF2F300FB01317CE6EFF307
:10AAB00011898EF31288D5F808A02B68DB0344BFF8
:10AAC000C4F86C69D5F808A0D4F83C38D4F86C19EF
:10AAD0005FFA89F989F31188D4F870990B4400FB67
:10AAE00009F1A1EB0A01B1FBF9F100FB031305E643
:10AAF000EFF311818EF31288D5F808902B68DA03F2
:10AB000044BFC4F86C69D5F80890D4F83C38D4F840
:10AB10006C29C9B281F31188D4F870191A4400FB6A
:10AB200001F3A3EB0903B3FBF1F300FB0232EDE603
:10AB3000EFF311818EF31288D5F808902B68DA03B1
:10AB400044BFC4F86C69D5F80890D4F83C38D4F800
:10AB50006C29C9B281F31188D4F870191A4400FB2A
:10AB600001F3A3EB0903B3FBF1F300FB0232A4E50D
:10AB7000B0B10C49D1F88839102B03D10521002040
:10AB800038F050BA03EB43020A4482F88C092020C3
:10AB900082F88D090120034482F88E09C1F88839B2
:10ABA000704700BF6028002000285FD00368374A44
:10ABB0002DE9F04103F13F4404F57E0402EB9422B9
:10ABC000012492F84C2002F01F055209032A04FACE
:10ABD00005F456D0042A4FD0022A48D08588B5FA09
:10ABE00085F0C0F11F00C0F3CC0603EB860600F031
:10ABF000070082000F24306A944020EA040030628B
:10AC0000306A01FA02F20243002132624FF0010E73
:10AC10000A464FF0030C02270EFA02F838EA050044
:10AC200002F101021CD118680CFA01F420EA0400B8
:10AC30001860186807FA01F606431E609E6826EA47
:10AC400004069E6098689860586820EA080058607A
:10AC500058685860D86820EA0400D860D868D8607E
:10AC6000102A01F10201D7D1BDE8F0817047084AEE
:10AC7000556C2C435464B1E7054A156B2C4314639F
:10AC8000ACE7034A156C2C431464A7E75039050858
:10AC900000380240F8B5734CD4F8CC39002B00F0E2
:10ACA0008C8094F8D4590023284684F8D839FFF7CB
:10ACB000CBF805F01F026D090123032D03FA02F3FF
:10ACC00000F09480042D00F08180022D79D094F85A
:10ACD000D00936F0AFFE054610B140F21223C38012
:10ACE00094F8D10936F0A6FE10B140F21323C380C8
:10ACF00094F8D20936F09EFE10B14FF40573C3806C
:10AD000094F8D3290A21284636F07EFF94F8D10919
:10AD100036F090FE94F8D3290A2136F075FF94F8A6
:10AD2000D20936F087FE94F8D3290A2136F06CFF59
:10AD3000D4F8CC294C4B9A425DD04C4B9A424AD025
:10AD40004B4B9A4262D04B4B9A426AD04A4B9A4242
:10AD500072D04A4B9A427AD094F8D83973BB01200A
:10AD6000022447491588B1F8FA60B1F8F830B1F813
:10AD70000271A1F800013343B1F8FC60A1F8FE4074
:10AD80003343B1F804613B43B1F8067133433B43AD
:10AD9000B1F8086105F441510B4303439BB22343CF
:10ADA0001380938B23F400631B041B0C9383168284
:10ADB00013889BB243F040031380F8BD0020044683
:10ADC000CFE7304A516A0B43536280E72D4A11693D
:10ADD0000B4313617BE703F50033196A41F48041AB
:10ADE0001962196A21F480411962B5E7254A116A8E
:10ADF0000B4313626BE703F58433596A41F48051C6
:10AE00005962596A21F480515962A5E703F5FE336E
:10AE1000196A41F400411962196A21F4004119626A
:10AE20009AE703F58233596A41F400515962596A2D
:10AE300021F4005159628FE703F56843596A41F4E0
:10AE400080115962596A21F48011596284E703F52F
:10AE50006443596A41F400115962596A21F400119E
:10AE6000596279E760280020003001400038004036
:10AE7000003C0040003401400050014000540140BB
:10AE8000880100200038024070B5464E96F8EC4923
:10AE900004EB440306EBC303650093F8F039032B7E
:10AEA0006ED8DFE803F059291E02254406EBC505DC
:10AEB000D5F8F409002870D196F8503A9C425FD03A
:10AEC000013404F00302934286F8EC2958D002EBD7
:10AED000420406EBC4040223C4F8F40984F8F039F0
:10AEE00070BD2B1906EBC303D3F8F42972B1013AF4
:10AEF000C3F8F429002070BD2B1906EBC303D3F867
:10AF0000F429002AF3D1022283F8F029254406EB24
:10AF1000C50595F8FC39013BDBB285F8FC398BBBE4
:10AF2000214B96F8506AD3F80C11D5F8F809621C39
:10AF300002F003024B1E0324B242034485F8F04999
:10AF4000B3FBF1F0C5F8F4091AD0994218D80138CA
:10AF5000C5F8F409012070BD38F070FF80B1124BC4
:10AF60002C44D3F80C2106EBC404012102F51C5338
:10AF700084F8F0190F33B3FBF2F3C4F8F43970BD61
:10AF8000012070BD084BD3F80C21012002F2E733F9
:10AF9000B3FBF2F3C5F8F43970BD0138C5F8F40914
:10AFA000002070BD602800208801002038B583682B
:10AFB000044613B11A689B8853836068828940F203
:10AFC000E9330289013B12F0020F9BB236D0F52320
:10AFD000838140F2E9330289013B12F0010F9BB2F9
:10AFE00026D08389838940F2E9330289013B12F03C
:10AFF000020F9BB217D0FF23838140F2E93302890D
:10B00000013B12F0010F9BB208D08589EDB2A36815
:10B0100013B11A689B881383284638BD002BEED1E4
:10B0200038F098FDF3E7002BDFD138F093FDEEE721
:10B03000002BD0D138F08EFD6068D3E7002BC0D153
:10B0400038F088FD6068CDE72DE9F04F2DED108BCD
:10B05000034697B004331593DFEDCACA1490022358
:10B060008A4613928B461293149C4FEADB0604EB3C
:10B07000461202EB06103101A6EB86034FEAC60822
:10B0800006EB4605CDE9000100EBC303043108F1EE
:10B0900004001196204421442C01C6EBC60C0394F5
:10B0A000EC00119D04944FEACC0405946C0106EB6E
:10B0B000860E0294159D009C03EB46174FEACE0EB8
:10B0C00002EBC6064FEACB094FF0000C51ED01AA86
:10B0D000D3ED001A92ED007A94ED005A96ED004AF5
:10B0E000D7ED007A15ED012A50ED016A32EE07BA6C
:10B0F00076EE840A7AEE855A31EEA70A3BEE256A8F
:10B1000070EE804A76EEC46A36EE244A36EE646A01
:10B1100005ED014A82ED006AD0ED00BAD6ED012AB4
:10B12000D3ED019A95ED00AA92ED016A97ED013AEF
:10B1300091ED00CAD4ED014A7BEEE23A36EEE19A97
:10B1400032EE472A73EEE98A3AEE464A39EE279AFA
:10B1500078EE838AB0EE428AA9EE6C8ADC44E2453E
:10B1600073EEC33AB0EE441AA8EEEC1A76EEE77A24
:10B1700033EEA97A7CEE643A77EEA17A3AEE066A6B
:10B180007AEEC51A3CEE24AA74EECC4A39EE833A24
:10B1900035EE6A5AF0EE639AF0EE48AAE7EE2C9A82
:10B1A000A8EEAC4AE7EE2C4AE7EE6CAAF0EE418A34
:10B1B000B0EE427AB0EE612A7BEE656A7BEEA22A9F
:10B1C00076EE4A5AA9EE2C7AA7EEAC2AA7EEAC5A34
:10B1D000E7EEEC8A32EE83BA76EEC3BA35EEE09A49
:10B1E00075EEC07A36EE0A6A76EEE26A36EE0BAAA1
:10B1F00076EE836A77EEA07A34EE423A77EE290A49
:10B2000036EE4B6A7BEEA22A39EE000A73EEAA3ABA
:10B2100078EE244A37EE697A31EE055A71EEA85A73
:10B2200032EE044A85ED00AA82ED016A4D4441EDFB
:10B23000012A4A44C4ED006A81ED000AC4ED017A96
:10B24000494440ED010A4C4487ED007AC6ED003ACE
:10B25000C3ED004A80ED003A87ED014A484486ED8F
:10B26000015A4F44C3ED015A4E444B443FF62EAFB2
:10B27000119B072B40F2C781029D149E019B0398EE
:10B280000499059A083575190C330E95354608F161
:10B2900008080EF10804EB1808300831083246445B
:10B2A0002C1928186918AA18079305F10C030D9694
:10B2B0000C940B900A91099208934FF001084FF0FB
:10B2C000000E129B9E44139B03EBCE0303EBCE02B6
:10B2D000109302EBCE0303EBCE01029101EBCE0102
:10B2E00001EBCE0505EBCE06D6ED007A0F93AEEB63
:10B2F0008E03019106EB031303EBCE07D3ED01AAF6
:10B30000CDED067A019BD5ED007A97ED01BACDED32
:10B31000057AD3ED007A029BCDED047AD3ED007A65
:10B320000F9BCDED037A07EBCE0CD3ED007ADCED6D
:10B3300001BACDED027A0CEBCE01D2ED007A109A73
:10B34000009101EBCE00014691ED01DACDED017ADD
:10B350000099D2ED007A91ED01CA00EBCE0000EB2E
:10B36000CE0494ED01EAD0ED01DACDED007ADDE90D
:10B370000776DDE90954DDE90B01DDE90D23C4465B
:10B3800002E000BFF304353F94ED009A90ED00FA1F
:10B3900091ED006AD5ED007AD3ED006A57ED014AD0
:10B3A00092ED005A56ED013A96ED00AA35EE060AE6
:10B3B00073EEA65A39EE278A34EE8F7A70EE082A99
:10B3C00075EE87EA35EE465A3EEEA26A73EEE63A2D
:10B3D00006ED016AD1ED019AD2ED01FAD4ED016AD0
:10B3E000D3ED011A95ED013AD0ED018A97ED004AAF
:10B3F0003FEEE96A35EE491A76EE660A31EE271A13
:10B400003AEE612A75EE677A70EE830A3FEEA95A2A
:10B4100074EECF9A77EE897A7AEE211AB0EE42AACC
:10B4200074EE68FAA0EEECAADC44E24535EEC77A89
:10B43000B0EE639A74EE285A38EEC44AF0EE698A88
:10B44000A1EE6C9AE7EEAC8A36EE436A7FEE644A70
:10B4500036EE266AA0EEAC2AF0EE4A0AE7EEEC0AD7
:10B46000E7EEAC4AF0EE687AF0EE498A36EE833ABF
:10B47000E6EE6C8AE1EE2C3AB0EE6F1AA6EE2C1ACC
:10B4800071EEE56AA6EE2C4A71EEA55A75EE031A26
:10B490007EEEE22A37EE43FA75EEE1EAB0EE686A34
:10B4A00076EEC08A39EE044A7FEE86FA76EEC86AF6
:10B4B00033EE816A38EE888A73EEC13A37EE457A08
:10B4C0002CEE2E1A3FEE055A22EECC9A9DED03FA91
:10B4D00070EE266A33EE077AAFEE221AAFEE2E9A9E
:10B4E0007AEE244A9DED01FA79EEA09A25EE4BAA58
:10B4F00072EE670A37EE822A6BEE087AAFEE08AA80
:10B50000EFEE057A2DEEA63A9DED05FA67EE6D8A0F
:10B51000AFEE073AEFEE268A66EE6A2A9DED00FA54
:10B520002AEEA00AEFEE202A6EEE02EADDED060A10
:10B5300023EECE5AE0EEA3EA2BEEA98ADDED023A25
:10B54000AFEE060AA3EE848A24EE6B7A6DEE246ACF
:10B550009DED044A2FEECD6AA0EE825AA3EEA97AA1
:10B56000E4EE2F6AA4EE246A75EEA15AC6ED005AE5
:10B5700083ED001A83ED019A4E4447ED017A87ED81
:10B5800000AA4B4480ED003AC0ED018A4F4482EDA1
:10B59000000A4844C2ED012AC5ED00EA85ED015AD2
:10B5A0004A44C1ED006A81ED016A4D4484ED008A90
:10B5B00084ED017A49444C443FF6E6AE0E9B0833D5
:10B5C0000E930D9B08330D930C9B08330C930B9B30
:10B5D00008330B930A9B08330A93099B083309939A
:10B5E000089B08330893079B08330793119B08F1C6
:10B5F000010843457FF465AE129BDDF844B0DB00E3
:10B600009BB2129330E517B0BDEC108BBDE8F08F04
:10B61000036870B55E6A26B133460522BDE8704006
:10B62000184704460D464E1D00E023689B682046DF
:10B6300098470028F9D0236815F8011B1B6820469D
:10B640009847B542F1D170BD2DE9F047164D074638
:10B65000002095F9599A05F5266684B007EB010894
:10B6600005F5506504464FF0B60A3368ABB193F860
:10B670003830142B11D019F1020F01D04B450CD1E9
:10B68000002269463046CDE90244CDE90078ADF8A4
:10B6900008A08DF80E402BF021F9E036B542E4D138
:10B6A00004B0BDE8F08700BF60280020F0B40D684A
:10B6B00000240CE0BCF1050F18D8A0F137030A2BC9
:10B6C00014D104EB840415F8010B03EB4404A0F13E
:10B6D0003003DEB2092EA0F16107A0F1410CF0D9D0
:10B6E000052FE7D8A0F157030A2BEAD00D601460AC
:10B6F000F0BC70472DE9F743124E0124A023182512
:10B700005FFA84F8FF2B14DCD6F8000DE9B2C1F122
:10B710001C0282725F1C026880F80B80DBB200930F
:10B72000C1F11B01D2F8189000234246C9B2C847A4
:10B730003B46013DE6D10134052CE0D103B0BDE824
:10B74000F08300BF6028002070B4447941BB0368D7
:10B750004FF400524FF40076202502213CBB1A8C96
:10B7600022F001021204120C1A841A8B188C22F097
:10B77000F30280B2120420F00A00120C014342F0DE
:10B78000010241F001011A8319841A8B22F00C0284
:10B790001204120C1A831A8B92B270BC1A8370476F
:10B7A00000220368164615461146002CD7D0042CFB
:10B7B00021D0082C38D0198C21F480510904090CAF
:10B7C00019849C8B1D8C45F6FF7040F6FF41284084
:10B7D0002140024342F4805241F4807199831A84DB
:10B7E0009A8B22F440621204120C9A839A8B92B2C2
:10B7F00070BC9A8370471A8C22F010021204120C4B
:10B800001A84188B198C89B240F6FF4221F0A001EE
:10B8100002400D4342F4807245F010051A831D84E6
:10B820001A8B22F44062B3E71A8C22F4807212045D
:10B83000120C1A84998B1A8C21F0F30192B209042C
:10B8400022F42062090C324342F4807241F001017B
:10B8500099831A849A8B22F00C02C4E70B88F0B407
:10B8600033BB028C4C880E898B88C98822F0010278
:10B870001204120C0284058B028CADB225F0F30584
:10B8800092B22B4322F00A0243EA061322439BB2F0
:10B8900042F0010203830284038B23F00C031B0498
:10B8A0001B0C0383038B9BB21943F0BC01837047CD
:10B8B000042B048C2CD0082B4E888A880D89C988CB
:10B8C00051D024F480542404240C0484838B078CEA
:10B8D0002C0344EA022440F6FF421A4045F6FF7367
:10B8E0003B4043EA063322439BB292B243F4805377
:10B8F00082830384828B22F440621204120C8283BE
:10B90000838B9BB243EA01239BB2F0BC83837047D5
:10B9100024F010042404240C4D880F898A88C988D7
:10B920000484068B038C12029BB242EA073423F094
:10B93000A00340F6FF42324043EA051322439BB284
:10B9400092B243F0100302830384028B22F440621C
:10B950001204120C0283038B9BB243EA01239BB2B5
:10B96000F0BC0383704724F480742404240C048402
:10B97000848B038CA4B29BB224F0F30423F42063E1
:10B98000224343EA062342EA05129BB243F4807342
:10B9900092B282830384838B23F00C031B041B0C61
:10B9A0008383838B9BB21943F0BC8183704700BFB4
:10B9B000094B93F8E63E042B08D9053B032B08D826
:10B9C00001231A4600B1037010467047002301227C
:10B9D000F8E700231A46F5E7681700202DE9F0473D
:10B9E0009AB0DDE9226ADDF8909004460D461746CC
:10B9F000984602E0206832F031FE206832F036FED0
:10BA00000028F7D10146642201A847F050FF254BDA
:10BA10008DF80450CDF85CA00293002D3ED0AB1EF3
:10BA2000012B3DD9042D14BF00230323DFF878A098
:10BA30008DF80530DAF83C3803961E440123CDE931
:10BA4000059404968DF85B3037B14246394607A815
:10BA500047F005FF8DF85A809AF8466D0023189339
:10BA6000CEB99AF8450D642202FB00A001A900F6A8
:10BA7000485047F0F4FE01238AF8456D8AF8463DA8
:10BA8000236843B143463A46294620461AB0BDE8EA
:10BA9000F0470CF0C7BD1AB0BDE8F0870523C5E735
:10BAA0000223C3E764350020602800209FED737AED
:10BAB00007EE901A20EE070AF8EE677A27EE800A62
:10BAC000FDEEC07A17EE903A2033402B00F2C7808B
:10BAD000DFED6B7AB4EEE70AF1EE10FAF0EE407AA1
:10BAE0000CDD9FED686ADFED686AB0EE677AB4EE50
:10BAF000E67AF1EE10FA77EEC67AF6DC9FED637A1D
:10BB0000F4EEC77AF1EE10FA0CD59FED5E6ADFED28
:10BB1000606AB0EE677AB4EEE67AF1EE10FA77EE8C
:10BB2000867AF6D49FED5B7AF4EEC77AF1EE10FADE
:10BB300000F38D809FED587AF4EEC77AF1EE10FA9B
