:020000040800F2
:1000000000000120E9BA050869BB05080D93040842
:100010007193040869BB050869BB0508000000006E
:1000200000000000000000000000000069BB05089F
:1000300069BB05080000000069BB05085D4E0408A7
:1000400069BB050869BB050869BB050869BB0508EC
:1000500069BB050869BB050879A40408A5A50408BF
:1000600069A504082DA50408F1A4040829A205081F
:1000700019A2050809A20508F9A10508E5A10508C6
:10008000D1A10508BDA1050869BB050869BB050824
:1000900069BB050869BB050869BB0508B5A4040868
:1000A000517E0508D97E0508417E0508017F0508B7
:1000B000C97E0508B97E0508A97E050865A405085E
:1000C00089A4050869BB050869BB050869BB050863
:1000D00069BB0508ED570408A55504085D530408DD
:1000E0003DA4040869BB050869BB0508317E050805
:1000F000617E050869BB0508897E0508A9A1050878
:1001000069BB050869BB0508997E050869BB050838
:1001100015510408CD4E040869BB050891F3000889
:1001200095A1050881A105086DA1050859A105083B
:1001300045A10508000000000000000000000000CC
:1001400000000000000000000000000029F8000886
:1001500031A105081DA1050809A1050869BB05080D
:1001600069BB050869BB050869BB050869BB0508CB
:1001700069BB050869BB050800000000000000001D
:1001800069BB050869BB050869BB050869BB0508AB
:1001900069BB050869BB05080000000069BB0508CC
:1001A00000000000000000000000000069BB05081E
:1001B00069BB050869BB05080000000000000000DD
:1001C000000000000000000000000000000000002F
:1001D00000000000000000000000000069BB0508EE
:0801E00040B60500010000001B
:1001E8000E02010002000000704F0120744F012030
:1001F800000000005009000805100100060000007A
:10020800004F0120784F012000000000520900082B
:100218002320010010000000504E0120804F0120D3
:1002280000000000F18402080D10010058000000D1
:10023800EC4D0120904F01200000000051EC030814
:1002480004000800800000002C4D0120E84F012028
:100258000000000000000000FB0101000100000098
:10026800C44C012068500120000000009D2F0508A3
:10027800FC01010009000000904B01206C50012096
:1002880000000000AD2F0508F7010100060000007E
:10029800844B012078500120000000005809000814
:1002A800F901010004000000804B0120805001206A
:1002B80000000000F52D04080A8001002800000055
:1002C800584B01208450012000000000691D0208DD
:1002D800160215003F0000003C1F0120AC50012011
:1002E80000000000E52E05083400010010000000A1
:1002F800844A0120EC5001200000000025B70208C4
:1003080011020100080000005C4A0120FC50012095
:10031800000000005E09000812120100040000003D
:10032800544A012004510120000000006609000819
:100338001820010032000000204A01200851012045
:100348000000000039300508FF1101000600000018
:10035800E44901203C51012000000000DD2405088B
:100368000812040014000000EC4901204451012047
:100378000000000029250508061001001C000000E7
:10038800201F01205851012000000000CD2F050832
:1003980013020100040000001C1F012074510120F9
:1003A800000000006A090008FD01010021000000AA
:1003B800F84801207851012000000000472D04086A
:1003C8001220010011000000744601209C510120F8
:1003D800000000006E090008000201000B00000088
:1003E800B0430120B0510120000000000925050894
:1003F800020201000300000014380120BC51012052
:1004080000000000000000000C02010004000000D1
:10041800F0370120C0510120000000001125050817
:10042800FE01010014000000EC380120C451012035
:1004380000000000AD2405080B3001001A00000080
:10044800E46B0120EC6C012000000000800900082A
:100458001F30010024000000AC6B0120086D012052
:10046800000000009C0900080502010004000000CB
:10047800906C01202C6D012000000000C0090008CC
:10048800030101000A0000004C6B0120306D0120BF
:10049800000000007D2701081B0201001000000079
:1004A8001C780120C07C012000000000952505086B
:1004B8001B1001000C000000D0720120D07C01202C
:1004C80000000000A9B8010821020100F0000000A6
:1004D80048710120DC7C0120000000009D9A010881
:1004E800231201001000000050750120CC7D01206E
:1004F80000000000C4090008371001002E000000A9
:1005080098770120DC7D012000000000D409000854
:100518001610010006000000487501200C7E01201D
:1005280000000000020A00082F100100220000004D
:100538009C7C0120147E012000000000080A0008AD
:100548001E000100090000008C740120387E012083
:10055800000000002A0A0008F58101006800000078
:10056800D8700120447E01200000000009AE010877
:10057800FD070100760000001E700120AC7E0120FE
:1005880000000000D9850108261001000E000000B7
:10059800347F0120247F01200000000031840108FD
:1005A800F62101000C0000006C8B0120C48B012097
:1005B80000000000340A00081C0202001C000000B1
:1005C8005C8A0120148C012000000000ED2D050834
:1005D8002820010018000000788A0120308C0120B2
:1005E800000000008520020814000100040000003B
:1005F800548A0120488C012000000000400A0008AD
:10060800012001000C000000AC8301204C8C01206B
:1006180000000000440A00080EF003009E010000DC
:10062800C4800120588C0120000000006199020854
:10063800130001000400000000880120F88D01204B
:1006480000000000500A0008010101000400000039
:1006580004800120FC8D0120000000000000000043
:100668000001010004000000FC7F0120008E012031
:1006780000000000540A0008020101000300000005
:10068800F87F0120048E01200000000091B90308C2
:10069800220201001C0100004C850120088E012067
:1006A80000000000552F05080C200600CC000000B3
:1006B80088820120248F01200000000051B903081E
:1006C800010201000B00000010800120F08F0120C2
:1006D80000000000F92405081A0001000E000000BF
:1006E8007C9C01207C9D012000000000580A000825
:1006F800203201000A0000006C9B01208C9D012023
:10070800000000003D99020815001000700000006C
:100718002C9A0120989D0120000000000000000094
:100728002A000800600000003C990120089E012072
:1007380000000000159902082C00040010000000B9
:10074800789E0120689E012000000000F5960208AE
:100758002B00120024000000AC9E0120889E01207E
:1007680000000000C9960208292014007800000043
:100778001C970120D09E012000000000000000000E
:1007880003000100010000007CA00120A0A30120BB
:100798000000000000000000031201003D000000FE
:1007A8005CA30120A4A3012000000000660A000841
:1007B80025201E002C010000C4A00120E4A3012074
:1007C80000000000000000001010010002000000FE
:1007D800CC9F012010A5012000000000A40A0008F9
:1007E800F8210100060000006CA0012014A50120DA
:1007F80000000000A60A000819000100050000001A
:10080800609F01201CA5012000000000AC0A000820
:10081800020001000C000000D8A8012080A90120D6
:100828000000000000000000290201004000000054
:1008380014A801208CA9012000000000B20A0008B9
:100848000A0201001400000088A70120ECA9012079
:1008580000000000B1BC03082802040004000000E6
:1008680020AE0120B8AF0120000000009125050846
:1008780027020400040000001CAE0120BCAF0120C8
:1008880000000000852505081F0208001000000070
:1008980060AB0120C0AF012000000000592405080A
:1008A8001A0201003C00000024AB0120D0AF012057
:1008B80000000000AD3005083810010001000000FC
:1008C80018AA01200CB0012000000000F20A00085C
:1008D8000702010002000000E0B2012054B5012027
:1008E80000000000F40A00081D02020006000000D3
:1008F800B0B2012058B5012000000000000000003F
:100908000602040010000000B8B2012060B5012002
:1009180000000000C12E05082700010004000000A7
:10092800BCB0012070B5012000000000F60A0008E4
:10093800100201000100000078B5012074B5012003
:0809480000000000FA0A00089B
:1009500000002000020100003D0100000000000036
:10096000000001010101FFFFFFFF0000012C00005A
:1009700000010000054D4B4637000000000200005A
:10098000AE014A015E012C0164010100000001007A
:100990000A019A01001E0A00000200000000000087
:1009A000000100000005000001020300000000003B
:1009B00000000000000000000000000000800700B0
:1009C0000000000000000000000000000000000027
:1009D0000000000020003200C800D007960014007C
:1009E000320028004C0440060005500014000F009F
:1009F000080064000100010005000A000000F40185
:100A00009600C4090000190000000000000000006A
:100A100000000000000000000000000000000000D6
:100A200000000000000000000000000501000000C0
:100A300000000000000000000100000002020000B1
:100A400003000023E8036400040A000114001E00F0
:100A500008044430B30000007E05EA05B405320006
:100A6000E803D007000000000000000000000000C4
:100A70000000000000000000000000000000000076
:100A80000000000000000000000000000000000066
:100A90000000000000000000000000000000000056
:100AA0000000010000050101F4011400000028010C
:100AB0000000000000000000000000000000000036
:100AC0000000000000000000000000000000000026
:100AD0000000000000000000000000000000000016
:100AE0000000000000000000000000000000000006
:0B0AF00000000000013C20030000009B
:100AFB0000C20100000008000A06000200000040CE
:100B0B000100000009026400030100C03209040067
:100B1B00000103000000092111010001223600072A
:100B2B0005830308000A080B0102020201000904F5
:100B3B00010001020201000524001001052401003F
:100B4B0002042402020524060102070582030800A1
:100B5B00FF09040200020A00000007050102400021
:100B6B0000070581024000005D2D01085D2C010886
:100B7B00DD56010800000000092101083953010866
:100B8B0035210108000000000000000000000000FB
:100B9B00E9200108F9200108D9200108C920010822
:100BAB001A0300000000000000000000000000001D
:100BBB000000000000000000000000000403090416
:100BCB00120100020000004083042A5700020102B8
:100BDB000301000012010002020000408304405791
:100BEB00000201020301000012010002EF020140AA
:100BFB008304563200020102030110007D00000045
:100C0B00BD2B0108AD2A010825CE0008A5CE000892
:100C1B0029CF000869D0000829200108B18B0008F2
:100C2B00A98B0008010000000000803FC58B000865
:100C3B00BD8A0008858A0008998A00083D8A000849
:100C4B00298A0008158A0008A92C0108092C01081B
:100C5B003554010800000000000000000952010893
:100C6B0041520108000000000000000000000000DD
:100C7B006D2001085D2001084D2001083D20010871
:100C8B00A5BA00086D9100085D910008C98A00089B
:100C9B0005910008A59000080D890008B0010120FE
:100CAB00008002021F00000053544D202020202002
:100CBB0050726F647574202020202020202020206B
:100CCB00302E30310A060002000000400100000007
:100CDB0009072000010104C03209040000020806C4
:100CEB005005070581024000000705010240000086
:100CFB0009022000010104C03209040000020806A9
:100D0B005005070581024000000705010240000065
:100D1B0009022000010104C0320904000002080688
:100D2B0050050705810200020007050102000200C1
:100D3B000A06000200000040010000000902220028
:100D4B00010100E032090400000103010200092146
:100D5B00110100012236000705830308000A000079
:100D6B0009022200010100E0320904000001030125
:100D7B000200092111010001223600070583030837
:100D8B000007000009022200010100E03209040003
:100D9B0000010301020009211101000122360007A5
:100DAB0005830308000A00000A0600020000004049
:100DBB000100000009074300020104C032090400CE
:100DCB0000010202010005240010010524010001AD
:100DDB000424020205240600010705820308001003
:100DEB0009040100020A000000070501024000008F
:100DFB00070581024000000009024300020100C008
:100E0B003209040000010202010005240010010553
:100E1B0024010001042402020524060001070582B7
:100E2B000308001009040100020A00000007050175
:100E3B0002000200070581020002000009024300C4
:100E4B00020100C032090400000102020100052466
:100E5B0000100105240100010424020205240600F0
:100E6B00010705820308001009040100020A0000B3
:100E7B000007050102400000070581024000000049
:100E8B0000FF0000000000000000AA550701000051
:100E9B0001000000006002401060024000000000F2
:100EAB0000000000000B000000000000000000002C
:100EBB0000000000006002402860024001000000BA
:100ECB0000000000060C0000000000000000000005
:100EDB000000000000600240406002400200000081
:100EEB0000000000100D00000000000000000000DA
:100EFB000000000000600240586002400300000048
:100F0B0000000000160E00000000000000000000B2
:100F1B00000000000060024070600240040000000E
:100F2B0000000000200F0000000000000000000087
:100F3B0000000000006002408860024005000000D5
:100F4B000000000026100000000000000000000060
:100F5B000000000000600240A0600240060000009C
:100F6B000000000030110000000000000000000035
:100F7B000000000000600240B86002400700000063
:100F8B0000000000362F00000000000000000000F1
:100F9B0000000000006402401064024000000000EA
:100FAB0000000000003800000000000000000000FE
:100FBB0000000000006402402864024001000000B1
:100FCB0000000000063900000000000000000000D7
:100FDB000000000000640240406402400200000078
:100FEB0000000000103A00000000000000000000AC
:100FFB00000000000064024058640240030000003F
:10100B0000000000163B0000000000000000000084
:10101B000000000000640240706402400400000005
:10102B0000000000203C0000000000000000000059
:10103B0000000000006402408864024005000000CC
:10104B00000000002644000000000000000000002B
:10105B000000000000640240A06402400600000093
:10106B000000000030450000000000000000000000
:10107B000000000000640240B8640240070000005A
:10108B0000000000364600000000000000000000D9
:10109B0000000000AA550501000008008C0306089B
:1010AB00FF1FFF1F05010905A101A1000501093063
:1010BB0009310932093309350934093609371581E4
:1010CB00257F750895088102050919012908150066
:1010DB002501950875018102C0C00000092111018D
:1010EB0000012236002D202D2D202D2D2D2D202DD4
:1010FB002D2D2D000000000000000000000000005E
:10110B0000000000AA550B010000AA5505010000C4
:10111B00AA550902000000AA5503009F0100000018
:10112B00C012000001000000000001007EFF000063
:10113B00FFFFFFFFFF000000FFFFFFFF6C7F0120A1
:10114B0000000000447F0120000000001C7C06080A
:10115B00987B06080000000005BA0308A086010072
:10116B000400000000000000000000000000000070
:10117B000000000000000000000000000000000064
:10118B000000000000000000000000001C7C0608AE
:10119B00247C0608000000003D3C0408E803000026
:1011AB000400000000000000000000000000000030
:1011BB000000000000000000000000000000000024
:1011CB000000000000000000000000002C7C06085E
:1011DB000000000000000000B50F00007D000000C3
:1011EB00FF000000000000000000000000000000F5
:1011FB0000000000000000000000000000000000E4
:10120B000000000000000000000000007CF7060852
:10121B000000000000000000ED0500007D00000054
:10122B00FF000000000000000000000000000000B4
:10123B0000000000000000000000000000000000A3
:10124B000000000000000000000000007C8C06087D
:10125B0000000000000000002D1100007D000000C8
:10126B00FF00000000000000000000000000000074
:10127B000000000000000000000000000000000063
:10128B00000000000000000000000000347C060895
:10129B00000000000000000095330408E803000084
:1012AB000300000000000000000000000000000030
:1012BB000000000000000000000000000000000023
:1012CB00000000000000000000000000387C060851
:1012DB000000000000000000DD2E030810270000B6
:1012EB0003000000000000000000000000000000F0
:1012FB0000000000000000000000000000000000E3
:10130B0000000000000000000000000084F306084D
:10131B0000000000C5920208C19304085F7600002C
:10132B0005000000000000000000000000000000AD
:10133B0000000000000000000000000000000000A2
:10134B0000000000000000000000000020F706086D
:10135B00000000000000000021AC04081027000072
:10136B000100000000000000000000000000000071
:10137B000000000000000000000000000000000062
:10138B00000000000000000000000000447C060884
:10139B000000000000000000552C0408E8030000CA
:1013AB00050000000000000000000000000000002D
:1013BB000000000000000000000000000000000022
:1013CB00000000000000000000000000507C060838
:1013DB00000000000000000005BF0308204E0000C5
:1013EB0003000000000000000000000000000000EF
:1013FB0000000000000000000000000000000000E2
:10140B00000000000000000000000000607C0608E7
:10141B000000000000000000EDBC0308204E00009F
:10142B0003000000000000000000000000000000AE
:10143B0000000000000000000000000000000000A1
:10144B00000000000000000000000000707C060897
:10145B000000000000000000D5380408400D030018
:10146B00030000000000000000000000000000006E
:10147B000000000000000000000000000000000061
:10148B00000000000000000000000000807C060847
:10149B00000000000000000021FA030810270000E4
:1014AB000100000000000000000000000000000030
:1014BB000000000000000000000000000000000021
:1014CB00000000000000000000000000C47B0608C4
:1014DB0000000000000000007DC401081027000080
:1014EB0003000000000000000000000000000000EE
:1014FB0000000000000000000000000000000000E1
:10150B00000000000000000000000000887C0608BE
:10151B000000000000000000C1800208A08601004E
:10152B0001000000000000000000000000000000AF
:10153B0000000000000000000000000000000000A0
:10154B00000000000000000000000000907C060876
:10155B0000000000000000001532040850C300001A
:10156B00010000000000000000000000000000006F
:10157B000000000000000000000000000000000060
:10158B00000000000000000000000000987C06082E
:10159B000000000000000000052E0408A8610000F8
:1015AB00010000000000000000000000000000002F
:1015BB000000000000000000000000000000000020
:1015CB00000000000000000000000000A47C0608E2
:1015DB000000000000000000314E0208A086010050
:1015EB0001000000000000000000000000000000EF
:1015FB0000000000000000000000000000000000E0
:10160B00000000000000000000000000B07C060895
:10161B000000000000000000895E0408A00F00001D
:10162B0001000000000000000000000000000000AE
:10163B00000000000000000000000000000000009F
:10164B00000000000000000000000000BC7C060849
:10165B000000000000000000E9FB0108102700005B
:10166B00010000000000000000000000000000006E
:10167B00000000000000000000000000000000005F
:10168B00000000000000000000000000C87C0608FD
:10169B000000000000000000F5F201081A410000F4
:1016AB00010000000000000000000000000000002E
:1016BB00000000000000000000000000000000001F
:1016CB00000000000000000000000000CC7C0608B9
:1016DB000000000000000000B527010810270000E3
:1016EB0001000000000000000000000000000000EE
:1016FB0000000000000000000000000000000000DF
:10170B00000000000000000000000000AC7B060899
:10171B0000000000000000009D57020850C30000AD
:10172B0001000000000000000000000000000000AD
:10173B00000000000000000000000000000000009E
:10174B00000000000000000000000000D87C06082C
:10175B000000000000000000A9300108400D03004C
:10176B00000000000000000000000000000000006E
:10177B00000000000000000000000000000000005E
:10178B00000000000000000000000000E07C0608E4
:10179B00000000000000000095BA0308400D030094
:1017AB00000000000000000000000000000000002E
:1017BB00000000000000000000000000000000001E
:1017CB00000000000000000000000000E87C06089C
:1017DB000000000000000000B507020850C3000025
:1017EB0003000000000000000000000000000000EB
:1017FB0000000000000000000000000000000000DE
:10180B00000000000000000000000000F47C06084F
:10181B00000000000000000049CF030840420F0009
:10182B0000000000000000000000000000000000AD
:10183B00000000000000000000000000000000009D
:10184B00000000000000000000000000007D060802
:10185B00000000000000000015C2030850C3000088
:10186B00000000000000000000000000000000006D
:10187B00000000000000000000000000000000005D
:10188B0000000000000000000000000001007F00CD
:10189B00FF010000E0010100C91302080000000075
:1018AB00000000001C0B06080800000000000000F0
:1018BB0000000000000000002025060800000000CA
:1018CB000000000000000000D82506080000000002
:1018DB000000000000000000842506080000000046
:1018EB0000000000C52902089184012001010000BD
:1018FB007D4402080000000000000000AC26060832
:10190B00A54702080000000000000000642606083E
:10191B002D202D2D202D2D2D2D202D2D2D0000009A
:10192B0000000000000000000000000000000000AC
:10193B00FFFFFFFFDD350208000000000000000084
:10194B00B024060801000000FA00000001000000AE
:10195B00010000000001010100010000A48301202F
:10196B000000F40101000000A28301200000F4013B
:10197B0001000000A08301200000F4010100000021
:10198B009E8301200000F401010000009C830120D4
:10199B000000F401010000009A8301200000F40113
:1019AB0001000000988301200000F40101000000F9
:1019BB00B51B0208791B0208000000007411060811
:1019CB008883012005320100968301206400F40115
:1019DB0001000000948301206400C4090100000091
:1019EB0086830120E803D0070100000084830120D7
:1019FB00E803D0070100000082830120E803D00731
:101A0B0001000000808301201E00B80B01000000C4
:101A1B008E83012005000F00010000009083012040
:101A2B0003000A00010000007E8301201E00F40168
:101A3B000100000092830120020000000012060842
:101A4B007C83012014006400010000008A830120C4
:101A5B003200E803010000007A8301200000C80077
:101A6B00010000008582012000C801008482012052
:101A7B000050010083820120005A01008182012065
:101A8B00020000000C120608CC830608D48306085B
:101A9B00A64E01200100C40900000000A44E012045
:101AAB000100C40900000000A24E01200100C4097E
:101ABB0000000000A04E01200100C409000000003E
:101ACB009C4E01200100C409000000009E4E012025
:101ADB000100C409000000009A4E01200100C40956
:101AEB0000000000984E01200100C4090000000016
:101AFB002F80012000C801002E80012000C80100AA
:101B0B002C8001200000FFFF0A0000002A8001202A
:101B1B000100C80001000000288001203200307550
:101B2B003200000026800120058205002480012060
:101B3B0005002C010500000023800120055A05003B
:101B4B002080012000FF0100228001200200000004
:101B5B00980F01201E800120030000004C05060891
:101B6B001F80012000FF01002180012002000000E6
:101B7B00980F01201D800120030000004C05060872
:101B8B00091B0208991A0208000000001812060827
:101B9B00BC830120EE02CA0801000000BA830120B9
:101BAB0000C8010064000000B983012000C80100D7
:101BBB0064000000B8830120020000002413060813
:101BCB000A8001200000803E0500000008800120F3
:101BDB0080C1803E05000000028001200083007D53
:101BEB00050000000080012080C1803E0500000040
:101BFB00FB7F012000FF0100F47F01206400F40152
:101C0B0001000000F27F01200400000030130608E1
:101C1B00F17F01200200000044130608B58001206B
:101C2B000D00000050130608B28001200064010073
:101C3B00B0800120320010270A000000AE80012086
:101C4B000D00000050130608AD8001200D000000B0
:101C5B0050130608AC800120020000008813060810
:101C6B00C28301203E00000094130608C0830120AC
:101C7B000100FF7F01000000BF8301200200000074
:101C8B0090140608B780012003000000A01406087A
:101C9B00B680012003000000A01406087282012008
:101CAB00000A0100708201200000E803010000001F
:101CBB006E8201200000E803010000006C8201200D
:101CCB000000E803010000006A8201200000E80325
:101CDB0001000000628201200000E8030100000007
:101CEB00688201200000E8030100000066820120E9
:101CFB000000E803010000006482012000140100D1
:101D0B008082012002000000B01406087E820120B0
:101D1B000000F401010000007C8201200000F401AE
:101D2B00010000007A8201200000F4010100000094
:101D3B00788201200000F40101000000768201206E
:101D4B000000A00F01000000748201200000A00F12
:101D5B0001000000678301201964010066830120E4
:101D6B0002000000BC14060864830120E803D007BE
:101D7B000A00000062830120006401000A000000D9
:101D8B005783012000640100568301200064010089
:101D9B005E830120006401000A0000005D830120C6
:101DAB00006401000A0000005C8301200064010054
:101DBB000A0000006183012000FF01000A000000FF
:101DCB006083012000FF01000A0000005F830120F7
:101DDB0000FF01000A0000005B83012001FF0100EE
:101DEB000A0000005A83012001FF01000A000000D5
:101DFB005983012001FF01000A000000C08001206F
:101E0B000000F40101000000BE8001200000A00FC3
:101E1B0001000000BC8001200000A00F01000000A9
:101E2B00BA8001200000A00F01000000B880012043
:101E3B000000A00F01000000D984012000C80100A0
:101E4B00D884012000640100D784012000640100C4
:101E5B00D684012000640100D584012000640100B8
:101E6B00D4840120FF080100D38401200164010008
:101E7B00011A0208C519020800000000C814060860
:101E8B00DC84012001320100DB8401200100000011
:101E9B0038150608DA8401200400000040150608F6
:101EAB00D284012000640100D08401201400E803D7
:101EBB0001000000CE840120E80330750A00000009
:101ECB00CD84012000C80100CC84012000C8010092
:101EDB00CB84012000C80100CA840120003201001C
:101EEB00DE840120004B0100DD8401200400000092
:101EFB0054150608C9840120006401000A00000083
:101F0B00EC8401200000D00701000000E7840120D1
:101F1B0000C80100E684012000C80100E58401200F
:101F2B0000C80100EA8401200000D0070100000076
:101F3B00E484012000C80100E384012000C80100F3
:101F4B00E284012000C80100E88401200000D007D2
:101F5B0001000000E184012000C80100E0840120A1
:101F6B0000C80100DF84012000C80100B917020876
:101F7B00A11702080000000068150608A9800120BF
:101F8B00005A0100A880012000C80100A680012092
:101F9B00E803D00701000000000000000000000073
:101FAB00052A0208041606084D4154454B463732A4
:101FBB00320000001C800120000301001B80012067
:101FCB0000030100DD160208911602080000000054
:101FDB0058160608511602080916020800000000E0
:101FEB00F416060829170208C13502080000000084
:101FFB00741706080C80012001030100911C0208D4
:10200B00651C020800000000CC1A06088D1502089A
:10201B0041150208000000003C1B0608C917020806
:10202B00614D020800000000D81B0608BD380208ED
:10203B00BD1C020800000000801C060819180208CD
:10204B000000000000000000001D0608F518020843
:10205B009D18020800000000641D0608891902087B
:10206B004D190208000000000C1E060849830208E7
:10207B003D1A020800000000981E06087983012013
:10208B0001060100611802082D180208000000006B
:10209B00941F06087F8202086137020800000000C7
:1020AB00042006089183020829380208000000006A
:1020BB0054210608788301200103010071170208DF
:1020CB00411702080000000028220608ED830208D1
:1020DB0000000000000000008C220608D915020841
:1020EB00A9350208000000000C23060800000000C0
:1020FB00000000000000000098230608711A020877
:10210B00A1380208000000000824060800000000A7
:10211B000000000000000000202606083C6C012097
:10212B009CFF2C0100000000FC860120E0150C1721
:10213B00000000002584012002000000582606083C
:10214B00EC7F012088136F1701000000EE7F012048
:10215B0088136F1700000000EA4E012000000000FA
:10216B0000000000E84E012000000000000000000D
:10217B00E64E01200000000000000000E44E0120AC
:10218B000000000000000000E24E012000000000F3
:10219B0000000000E04E01200000000000000000E5
:1021AB00300601200000000000000000757F0120B8
:1021BB000300000048270608E47F012088136F17EF
:1021CB0001000000866C012088136F1700000000CF
:1021DB0081140208000000000000000058270608C8
:1021EB002684012001000000AC270608886C012022
:1021FB0001000000B82706087E6C012002000000D9
:10220B00C0270608000000000000000000000000CE
:10221B00CC2706086914020800000000000000002B
:10222B006828060800000000000000000000000005
:10223B00BC280608000000000000000000000000A1
:10224B002C290608F07F01200200000064290608F3
:10225B00826C0120E0150C1700000000809101201A
:10226B00D491012001D601FFFFFFFFFF0000803F4B
:10227B000000000000000000000000000000000053
:10228B000000000000000000000000000000000043
:10229B00000000000000803F000000000000000074
:1022AB00000000000000803F000000000000000064
:1022BB00000000000000803F000000000000000054
:1022CB0000000000010000000000FA430000FA4388
:1022DB000000803FFFFFFFFFFF0000000000000039
:1022EB00DCA901200800000000000000CCA901209F
:1022FB0008000000C9890008AD8900086989000839
:10230B00000000005D890008498900083589000834
:10231B0000000000000000000000000000000000B2
:10232B00258900080000000015890008ED910008C0
:10233B00118900088988000841F60008B5F00308E8
:10234B00000000000000000000000000685E0C00B0
:10235B0002010000A00F0000B80B00000102FFFFFC
:10236B0001000000FFFF000078F3060800000802E0
:10237B00050304000000000080F3060801000802BA
:10238B00050404000000000078A106080200FE010D
:10239B0001100300000000002C8706080300140244
:1023AB00000300000000000088F3060804001F0271
:1023BB00020008000000000090F3060805001F0251
:1023CB000201080000000000FFFFFFFF00000000FB
:1023DB0004010000000700000000000000000000E6
:1023EB0000020000100000000000000000000000D0
:1023FB0007000000FF010000F4010000FF000000D7
:10240B0058760608B0010000020000000900000029
:10241B00010000002819012000000000000000004E
:10242B0000000000000000000000000000000000A1
:10243B000000000000000000000000000000000091
:10244B000000000000000000000000000000000081
:10245B000000000000000000000000000000000071
:10246B000000000000000000000000000000000061
:08247B00000000000000000059
:1024830001000000010000002023002000000000E4
:042493002000000025
:082800000000000000000000D0
:10800000026C03463AB11A6CD20608D50022012050
:1080100083F83C207047426480F83C20F3E71A6CF8
:1080200049494A4811401A6841F00201F0B4196404
:108030004168474D21F44031416041685C6821430B
:1080400041605168186921F48071D3F808C0DF6875
:10805000516054689E6A44EA0024AE4254605468F9
:1080600024F040745460506840EA0C0050609068FE
:1080700020F400609060916841EA0701916054D05B
:108080009068DC6A20F07060906091680E439660A2
:10809000906820F040509060916821439160906812
:1080A0009C6920F002009060916841EA440191606F
:1080B00093F82010002941D05468596A44F40064B0
:1080C000481E5460516821F460415160516841EA92
:1080D00040315160D06A0025DC6920F470005E698F
:1080E000611ED0622846D46A44EA0154D46294687E
:1080F00024F400749460946893F8301044EA4124A6
:108100009460946824F480649460916841EA8621C4
:1081100091605D641A6C22F0030242F001021A645D
:10812000002283F83C20F0BC7047916821F0706118
:108130009160916821F040519160B0E7516821F45D
:1081400000615160C6E700BFFDEEFFFF0023014064
:108150000100000F2DE9F04F022389468A462DEDDC
:10816000108B99B0DFEDCABA14930346169004330E
:10817000159217934FEADA06169DDDF85CC04FEAB8
:10818000CA0305EB46111396F0004FF0000B01EB0C
:10819000061437010390A6EB86020194049706EBC0
:1081A000460E04EBC202041D381D06EB86072C4464
:1081B000C6EBC60802972844029D02EB46174FEA19
:1081C000C808ED0001EBC60602954FEA0E150595AD
:1081D0004FEACE050695139D4FEA451E019D95ED8C
:1081E000007AD34492ED005AD7ED004AD945D1ED3B
:1081F000006A50ED013A35EE241AD6ED002A1CED46
:10820000016A73EE875A54ED017A33EEC73A36EEBF
:10821000264A77EEA21A36EE666A77EEE27A74EEB6
:10822000256A71EE812A77EE633A37EEC57A36EE2B
:10823000A22A77EEE47A76EEE26A0CED012A37EEB6
:10824000247A77EE857AD1ED018AC1ED006A74EE69
:10825000655A96ED015AB0EE460A94ED004AA7EE33
:108260002B6AD2ED010AE7EEAB3A74EE456AD7ED20
:10827000012AA7EE6B0A9CED007AD5ED014A34EE97
:10828000054A37EE689A90ED005A36EEE02A76EE0F
:10829000E26A30EEA28A32EE222A76EEA06AF0EE90
:1082A000492A75EE640A37EE287A75EE249AE2EED2
:1082B0006B2A74EEC54AF0EE608AB0EE40AAE6EE94
:1082C000AB4AE6EEAB8AA6EEEBAAF0EE496AB0EE58
:1082D000629A37EE695AE2EE2B6AB0EE432A74EEE8
:1082E00008AAA7EEEB9AA7EEAB2A77EE297A35EE2D
:1082F000617A75EEC89A35EE415A75EEC45A37EE7A
:10830000AABA77EEEA7A37EE011A8CED00BA36EEA9
:10831000287AC1ED017A39EE844A76EEC27A1944A0
:1083200075EE885A9C4435EE215A00ED014A70EEF4
:108330008A0A70EE244AC5ED005A36EE686A80ED6E
:10834000001A72EEA33A85ED015A33EE093A04EDB4
:10835000017A72EE266A87ED006A1D44C6ED000AB6
:108360001844C2ED004AC4ED007A1C44C7ED016A0E
:108370001F44C6ED013A1E4482ED013A1A443FF60D
:108380002EAF139A072A40F2C681039A0EF1080E07
:10839000169F08F108000832029E059D4FF0000864
:1083A00094463A46083608357244069C0499D346EA
:1083B000109207EB0C0208340C310F92BA190E928E
:1083C0007A190D923A190C923A180B927A1809926E
:1083D00007F10C020A9201220892149ADDF824C0D7
:1083E0009044159A0A9F02EBC8020B9EA8EB880ED8
:1083F0000C9D02EBC80192ED00BA0D9C01EBC80286
:10840000D1ED00AA0E9802EBC80192ED00AA01EB93
:10841000C802D1ED009A02EBC80192ED009A01EB7F
:10842000C802D1ED008A0F9902EB0E1E92ED008A70
:10843000109A0EEBC80ADEED017A1192CDED047AA6
:108440000AEBC802DAED017A02EBC80A1291CDED0F
:10845000057AD2ED017A0AEBC802DDF820E0CDED15
:10846000017ADAED017A02EBC80ACDED067AD2ED97
:10847000017A0AEBC802CDED027ADAED017ACDED90
:10848000077AD2ED017ADDE91121CDED037A01E021
:10849000F304353F17ED017ADE44D2ED007A94ED16
:1084A000005AF145D5ED006A37EE274AD0ED004A73
:1084B00077EE677A1CED016A96ED007A91ED001A6D
:1084C00076EE055A36EE872A97ED00DA71EE24EA49
:1084D00076EE453A74EE252A31EE641A35EE466A98
:1084E0003EEE825A74EE655A31EE664A72EE854A65
:1084F00031EE471AB0EE67CA47ED014A34EE077A0B
:10850000D1ED014A31EE261AD0ED016A72EEC52A8C
:1085100095ED014AA7EE6BCA74EEE60A96ED010AE4
:10852000E7EE2B7A92ED017A94ED015A74EEA64AA9
:108530003DEE473ADCED006A70EEC4CA70EEC00A48
:10854000B0EE43EA7CEE80CA74EE001A70EE840A44
:10855000ACEEEBEA36EEC54A3DEE077AB0EE63DAF2
:1085600036EE850AACEEAB3AF0EE4EDAA1EE2BDA3F
:10857000A1EE2B6AE1EE6BDA75EE666AB0EE441A94
:10858000F0EE4CCA37EE405AA0EEAB1AE0EEEBCA62
:10859000E0EEAB6A37EE007A74EEA10A35EEE1FA4E
:1085A00075EEE45A75EE6EFA37EE600A71EEA55A72
:1085B000DDED061A35EE425A7FEE244A3FEE822A5E
:1085C00022EEE1FA61EE80FADDED051A3EEE855A03
:1085D0003EEE066A73EEAD3A21EE82EA73EE4DDAB4
:1085E0003DEE033A24EEE1DADDED071A34EE2C4AD3
:1085F0007CEE266A61EE85CA25EEE1CADDED041A3D
:1086000077EE81EA77EEC17AE9EEA2FADDED032A90
:10861000A9EE80FA9DED030AAAEEA4EADDED014A77
:10862000AAEE82DA9DED012AE8EEA5CADDED025A36
:10863000A8EE85CA9DED025A21EEAD1A62EE832A9C
:108640006EEEE11A27EEC00A64EEA34A26EEC22AB5
:1086500065EE865A24EE455AABEE2E1AEBEE2D1A35
:10866000E8EE272AA8EE030AEAEE264AAAEE232A13
:10867000E9EE045AA9EE065A37EE207A87ED007A21
:108680001F44C2ED00FA82ED01FA1A440CED01EA32
:108690008CED00DA9C44C4ED00CA84ED01CA1C4490
:1086A00081ED001AC1ED011A1944C6ED002A86EDCC
:1086B000010A1E44C0ED005A80ED015A1844C5ED70
:1086C000004A85ED012A1D443FF6E4AE1099089A50
:1086D0000831013210910F99089208310F910E99CB
:1086E00008310E910D9908310D910C9908310C91BA
:1086F0000B9908310B910A9908310A9109990831AF
:108700000991139991427FF468AE149B8A46DB006D
:108710009BB214932EE519B0BDEC108BBDE8F08F21
:10872000124B30B41D686B6A28B943EA014300203C
:10873000AB6230BC7047AC6A013803EB14440BD019
:10874000002303F14002013305EB8202DBB25268E1
:10875000834204EB1244F4D3403044EA014405EB75
:1087600080004460002030BC704700BF88190120A1
:10877000037870B42BB30246C0F10105531912F807
:10878000014FDBB2002CF9D101335B000E4C032208
:108790000B8084F8043484F80524017879B102232D
:1087A00000265A1CE518023354FA82F285F80414A4
:1087B000DBB282F8046410F8011F0029F1D170BC0B
:1087C00070470223E2E700BF88190120F0B40F4B85
:1087D000C40800F0070700221E5D03EBD005BE4071
:1087E000F6B2C7F1080300278B4228BF0B46C3F13E
:1087F00008049A40C91A46FA04F415F8016F42EACF
:108800000402EED11046F0BC704700BFCC1E012020
:1088100030B5EFF31181802383F312880A4AD2F82E
:108820007835D2F87C45D2F87805D2F87C55CAB2B2
:1088300082F31188013BA84294BF4FF400600020EE
:108840001B1B184430BD00BF88190120012380F88C
:1088500051307047014BD3F88005704788190120CB
:1088600001207047024BC3F88425C3F88815704770
:1088700088190120024BC3F88C25C3F89015704766
:108880008819012070477047212870B505D022282B
:1088900029D0202810D0002070BD0029FBD0072A45
:1088A000F9D1184B18791C685A799B790871002006
:1088B0000C604A718B7170BD0029ECD0072AEAD197
:1088C0001148104B0C680E794D79D0F888258979BC
:1088D0001C601E715D719971002ADCD02146D0F8B0
:1088E00084059047D7E70029D5D0022AD3D1064A7C
:1088F000D2F89035002BCED00988D2F88C05984755
:10890000C9E700BF0000012088190120002070473E
:108910000020704703460A2201481A80704700BFB2
:10892000080001200346642201481A80704700BFF6
:1089300014000120012901D000207047014BD3F819
:108940009030184700000120012901D009F09EBB9A
:10895000014BD3F88C30184700000120014BD3F8AD
:10896000883018470000012010B40B780A460446EE
:1089700003F00303012B05D0022B0BD000205DF880
:10898000044B70478B8843B9204611465DF8044B71
:108990000CF01EBE8B88832BF6D0034B5DF8044B86
:1089A000D3F88030184700BF0000012038B5054BD0
:1089B00004460D46DB6F9847294620460AF03CF9ED
:1089C000002038BD0000012038B5054B04460D4697
:1089D0009B6F9847294620460AF0AAF9002038BD27
:1089E00000000120F0B4002452004E1C2746030F63
:1089F000B0F1204F4FEA001003F1300503F13703C7
:108A000034BF0D550B5537550234A242EFD1F0BC9F
:108A1000704700BF024808B5FFF7AAFE014808BD2D
:108A2000AC7606088C1D0120024808B5FFF7A0FEB1
:108A3000014808BDBC7606088C1D01200B481A228F
:108A40000B4B00681B680A80C01801D109487047A9
:108A5000094B0822094910B51C68FFF7C3FF04221F
:108A600007492046FFF7BEFF024810BD107AF01FED
:108A7000187AF01FB0000120147AF01FB200012014
:108A8000C2000120024808B5FFF772FE014808BD88
:108A9000C87606088C1D012008B520B90448FFF7E8
:108AA00067FE044808BD0448FFF762FE014808BDA0
:108AB000D47606088C1D0120F876060804230148A8
:108AC0000B807047CC0001200020704798B182686D
:108AD0000C4B12B107229A70704718780421DA60A3
:108AE00003281A611A750CBF80224FF480729970A6
:108AF000C3E901227047034B012241F2E4715A702D
:108B00005A547047D85101200378022B0FD00069C6
:108B100008B9012070470E4B1B78032B12D080B28E
:108B20004FF6F773984294BF002001207047084920
:108B300041F6500243688A58B3EB422F2CBF012004
:108B400000207047034B984294BF002001207047DB
:108B5000D8510120F7FFFF0F30B40378022B13D058
:108B6000104A41F64801436841F63C04555802F565
:108B7000C25100692B400968023812595B0A01FB97
:108B8000003030BC10447047064B41F6300441F6CB
:108B9000340142681859595800EB410030BC00EBD1
:108BA00052207047D851012000487047B41E012060
:108BB000034B93F82805032894BF00200120704739
:108BC0008819012010B503200C4650F047FD0328FA
:108BD0000AD0074B93F89435012B4FF012030CBFCA
:108BE00004480548238010BD12230448238010BD8B
:108BF00088190120F8000120E4000120D0000120A4
:108C00002DE9F04FDFF81883BA4D4446DFF824937E
:108C10002DED068B89B0CDE9060105920FCD0FC46D
:108C20000FCD0FC495E8070099F89A3584E807003E
:108C3000042B00F20C81DFE813F037010A01050173
:108C4000050045019FEDAC8A9FEDAC9AAC4AAD4B57
:108C50000598AD49002818BF1346AC4AC8E906215B
:108C600039EE087ADFEDAA7AF5EE006AA94A28EE15
:108C7000278AA94EB0EE67AA02F11507C6EE879AB9
:108C80000025DFEDA68A0292C8F82430079BAB428C
:108C900000F0D280029B05F1010B13F8014B5FFA43
:108CA0008BF20293002C00F01B81002103E00131C4
:108CB000152900F0158101EB41004B0017F800C0A9
:108CC000A445F4D1484490F8B515CDE90332002904
:108CD00000F00E8120463BF0F9FD824600684FF01F
:108CE000B9FA9AF805103BF02FFE0078002840F002
:108CF000F780039B4FEA141E04F00F0C049A09EB53
:108D000003010EF1FF34032381F8F5259C4281F81D
:108D1000F43500F2C580774901EB4401888D40FAB3
:108D20000CF111F0010100F0BD800121039201FA64
:108D30000CF10139084052F05FFD6E4BDFF8F8C1CD
:108D400002211C44039A032394F8344020440CEB82
:108D5000C00070618371C2719AF8082040F0ACF8CD
:108D6000059B002B78D0B9F8983599F89A1507EE3D
:108D7000903AD9F8A8370429F8EEE77AFCEEE77ABA
:108D800017EE900AB3FBF0F202F57F4202F1FF0208
:108D90004FEA1242B3FBF2F2B2FBF0F083B270D0B2
:108DA00007EE902AF8EE676A66EE887A28EEE77A90
:108DB00099F89B05069901903046A9EE267A009114
:108DC0005146C6ED027A86ED037A33F007FD002D99
:108DD00062DD7368D8F8382093425FD0012D5BD0F4
:108DE000D8F85020934259D0022D55D0D8F8682099
:108DF000934253D0032D4FD0D8F8802093424DD0CA
:108E0000042D49D0D8F89820934247D0052D43D05F
:108E1000D8F8B020934241D0062D3DD0D8F8C820D4
:108E2000D31A18BF01235D46012233741836082D6A
:108E300006F8072C7FF42AAF394809B0BDEC068B41
:108E4000BDE8F08F9FED378AB0EE489AFEE69FEDC1
:108E5000368AB0EE489AF9E6FAFE697AFCEEE77ACD
:108E6000D9F8A8174FF6FF7317EE902A1846B1FBF2
:108E7000F2F21A44120CB1FBF2F299F89A15042995
:108E80008ED107EE900A07EE102AF8EE677AF8EE18
:108E9000476A67EE8A7A89E70123C4E70023C2E7BD
:108EA00070615DE771615BE70023174A01219FED67
:108EB000188A0693154BB0EE489A0591C8E9063218
:108EC0000F4BCDE60023104A01219FED188A06932F
:108ED0000E4BB0EE489A0591C8E90632084BBFE642
:108EE000134A0020064BC8F81C20C8F82430A4E719
:108EF0000B68FFDE10F80508ACC5A737ACC5A73670
:108F0000D52D040839B5030885BC0308E12D0408F4
:108F10006F12833A271F01204800002000007A4486
:108F200014000020282930386F1203390000000097
:108F300025B8030888190120A81F01202DE9F8434E
:108F4000884600294FD04718461E284C802507F137
:108F5000FF39EFF3118185F31288D4F87825C9B26F
:108F6000D4F87C05D4F87835D4F87CC581F3118821
:108F7000634594BF4FF400630023121A1344012B7E
:108F80001AD101203BF0C6FEEFF3118185F3128860
:108F9000D4F87825C9B2D4F87C05D4F87835D4F85B
:108FA0007C7581F31188BB4294BF4FF400630023AA
:108FB000121A1344012BE4D0EFF3118285F31288C7
:108FC000D4F87C35D2B216F8011F234483F8AC17CD
:108FD000D4F87C350133C3F30A03C4F87C3582F33B
:108FE00011884E45B5D14046BDE8F8838819012067
:108FF000F8B5002390F8505080F85030CDB10F4AAA
:109000001278032A17D10E4E00F13C04D6F8607195
:1090100029462046FFF792FFD6F860312D1A044406
:10902000DB1B322B01D8002DF2D1B5FA85F04009B7
:10903000F8BD0120FCE71846FAE700BFA82B012085
:10904000802A0120002280F85120D1E790F850209A
:10905000531C0244DBB280F8503082F83C1090F888
:1090600051200AB1132B00D9C2E77047F8B50B4B5A
:109070000D4614461B78032B0FD1094ED6F86071AC
:10908000002C0ADD21462846FFF758FFD6F860314C
:10909000241A0544DB1B322BF2D9F8BDA82B012082
:1090A000802A01202DE9F0410BB315460E4603EB53
:1090B0000208134F01E00AF009FCD7F864410023CD
:1090C0003146284624691A46A0470028F3D10AF001
:1090D000FDFB0028FBD0013506F50076A845ECD154
:1090E000D7F860310020C7F86831BDE8F081044F3F
:1090F0000020D7F86031C7F86831BDE8F08100BFC3
:10910000802A01202DE9F041F3B115460E4603EB0C
:109110000208114FD7F86441002331462846A4685D
:109120001A46A0470028F5D00AF0D0FB0028FBD053
:10913000013506F50076A845ECD1D7F8603100205E
:10914000C7F86831BDE8F081034F0020D7F86031DF
:10915000C7F86831BDE8F081802A012008B50AF01F
:10916000B5FB80F00100404240B208BD38B514465E
:109170000D460AF09DFB02464FF400730020126872
:109180002A60238038BD00BF154BDB68C3F3022380
:1091900010B4C3F107041A1D042C28BF0424062AA6
:1091A0004FF0FF328CBF033B0023A240002821EA8E
:1091B000020101FA03F108DB09010A4BC9B20344B9
:1091C00083F800135DF8044B704700F00F000901AD
:1091D000054BC9B2034419765DF8044B704700BFD4
:1091E00000ED00E000E100E0FCEC00E030B5274DD0
:1091F00041F2873026490022D5F8A83783B0254CA4
:10920000A1FB03132449C4F8780104F5B670DB0C04
:10921000C4F86C11C4F87C21013BC4E95C320AF04B
:1092200053FF1E4B062137201A6C42F020021A64AD
:109230001B6C03F020030193019BFFF7A5FFD4F8FB
:109240006C314FF400001649164A4860D96841F065
:109250000101D96099680A40062A06D0B2F5803F1C
:1092600003D01A6842F001021A6041F23C23002048
:109270000D49EB580D4AC5F89005C3F81002C5F822
:109280008805C3E9812103B030BD00BF88190120E2
:1092900083DE1B43802A0120001400400038024076
:1092A00000E100E007000100342101202C2C012006
:1092B00038B50F4B0F4AD3F8A837A2FB03239B09FD
:1092C000013BB3F1807F10D20B4A0024F0200B4900
:1092D0000725536081F82300214694604FF0FF304A
:1092E0001560FFF751FF204638BD012038BD00BF93
:1092F00088190120D34D621010E000E000ED00E07D
:109300004309012200F01F0084B0013B02FA00F083
:10931000032B0BD8DFE803F015021E0C124B5A6C1E
:1093200002435A645A6C10400090009B04B070478E
:109330000D4B1A6B02431A631A6B10400390039B88
:10934000F4E7094B5A6B02435A635A6B1040029080
:10935000029BEBE7044B1A6C02431A641A6C104030
:109360000190019BE2E700BF0038024018B10022E3
:1093700001213FF0A1BD704718B1002220213FF02C
:109380009BBD7047F8B56A4C00234FF4F072202162
:10939000054604F51B6084F8AC3956F001F904F574
:1093A00039604FF4F072202156F0FAF894F8710DFC
:1093B00010B194F8722D0AB90020F8BD3FF052FEAA
:1093C000C4F8800D28B182790AB1412AF4D1232250
:1093D000C2800D21574E3FF02BFED4F8800D3FF098
:1093E0006DFF94F8720D013840B241F041FB022349
:1093F0002021C4F8780D84F8743D4DF01DF8B6F8BE
:109400000A114D4841F004FAD4F8800D3FF050FFA6
:10941000FF218C204DF056F90746D4F8800D3FF01F
:109420004DFF0821D4F8780D4DF006F81B2F04D01D
:10943000D4F8800DFFF7A0FFBEE70122D4F8803DED
:1094400084F8AC290BB12322DA80B6F80A113A4825
:1094500041F0DEF9D4F8800D3FF02AFF40210A20C8
:109460004DF030F9FF218A204DF02CF90346D4F855
:10947000800DC3F3801384F8843D3FF01FFF082163
:10948000D4F8780D4CF0D8FF94F8703D012B46D0FD
:10949000022B3CD0002B3ED094F8853D182B09D1EF
:1094A00094F8842DB6F80A31A4F8885DA4F88A2DC2
:1094B000A4F88C3DB6F80A111F4841F0A9F9B6F896
:1094C0000A111D4841F0A4F9D4F8800D3FF0F0FED8
:1094D000022100204DF0F6F8D4F8800D3FF0EEFEAA
:1094E000D4F8780D08214CF0A7FF94F8952D94F846
:1094F000963D0120C2F1200294F8941DC3F110039F
:1095000084F8972D84F8983D84F8901DF8BD1023B9
:10951000A6F80A31C0E72023A6F80A31BCE7002DDF
:10952000F5D094F8843D002B14BF10232023EFE7DF
:10953000802A012000000120F437012000487047F4
:1095400008200120002800F08F80B0F804C0BCFA89
:109550008CF3202BC3F11F0200F086806F4B2DE9A6
:10956000F04F9D18DFF8E48185B0036808EB8200B6
:1095700095F838200024DFF8D8E10192C0F89C1D4E
:10958000674A02E00134102C65D04FF0010909FA56
:1095900004F10CEA010531EA0C01F3D14FF0030AA2
:1095A00004FA09F718684FF00F0B0AFA07F704EAF4
:1095B0000A0124F0030620EA0700890006F180462C
:1095C00018600BFA01F0D3F80CB006F59C362BEAC4
:1095D0000707DF60DEF8447047F48047CEF8447038
:1095E000DEF8447007F480470397039FB76827EAC3
:1095F00000004C4FBB421AD007F58067BB4234D005
:10960000494FBB4235D0494FBB426BD0484FBB425C
:1096100071D0484FBB4269D0474FBB4278D0474FCB
:10962000BB420CBF0727082707FA01F10843B060C7
:1096300001341168102C41EA05011160516821EADA
:1096400005015160916841EA05019160D16821EA04
:109650000505D56099D1019B984498F8DC3DF02B25
:109660000CD805B0BDE8F08F704709FA01F1084346
:10967000DDE7022707FA01F10843D8E7F021304B74
:10968000264888F8DC1DD968019AC1F302210244FA
:10969000C1F107000B1D92F84840042892F94820B8
:1096A00028BF0420062B4FF0FF338CBF0339002165
:1096B0008340002A6FEA030303F0030303FA01F374
:1096C0001EDB204801211B0104F01F0485185209EC
:1096D000DBB201FA04F485F8003340F8224005B00B
:1096E000BDE8F08F0AFA01F10843A0E7052707FA61
:1096F00001F108439BE7042707FA01F1084396E7C5
:1097000004F00F041B01104ADBB222441376A8E7D1
:10971000062707FA01F1084389E700BF10F805089A
:10972000003C01400000024000080240000C0240E2
:10973000001002400014024000180240001C0240C9
:1097400000ED00E000E100E0FCEC00E0802A0120F8
:10975000003802402DE9F041D0F800E00C46DFF877
:10976000588084B0DEF804501746DFF850C0194620
:1097700005EA0805DDF82880064603932C43424697
:1097800044EA0C0CCEF804C00CF0D0FF78B9316874
:109790000246039B30468F624021CDF800800CF0DA
:1097A000F5FF003818BF012004B0BDE8F0810120AA
:1097B00004B0BDE8F08100BF009800FC00200180EB
:1097C000F8B5144F04460D460BE09B69DB0602D545
:1097D0000CF06CFFE0B9D7F8E43D5B1BB3F5805F9C
:1097E00009D823682A464FF4805120469E69B60660
:1097F000EBD50020F8BD636C2021002201200B4333
:1098000084F84020636484F8411084F84220F8BD55
:109810000120F8BD802A01202DE9F84FC44C4FF0FB
:10982000050BC44F4FF0100894F8E81DD4F8F00D64
:10983000C1F34001C04D3FF047FD94F8E81DD4F856
:10984000EC0DC94301F001013FF03EFDD4F8F03DBD
:1098500033B11A689B8851690B4218BF1B0493618E
:10986000D4F8EC3D33B11A689B8851690B4218BF9C
:109870001B049361B4F8F83D002B40F0518194F83B
:10988000FA1DD4F8FC0D3FF01FFD4FF0320C4FF4E1
:109890007A7001267B68C3F30803002B40F0148123
:1098A000EFF31183002B40F00F81D4F86021A968F9
:1098B000D4F860319A42F8D1D4F8203E9942F4D8D5
:1098C000D4F81C9E00FB09F35B1AB3FBF9F300FB11
:1098D00002327B68C3F30803002B40F0B480EFF33F
:1098E0001183002B40F0AF80D4F86031D5F808A088
:1098F000D4F860118B42F7D1D4F8201E8A45F3D8F2
:10990000D4F81C9E00FB09F1A1EB0A01B1FBF9F1AF
:1099100000FB03139B1AB3F57A7FDAD3BCF1010C79
:10992000B8D1D4F8F03D33B11A689B8851690B4225
:1099300018BF1B049361D4F8EC3D33B11A689B88BF
:1099400051690B4218BF1B049361B4F8F83D002B1A
:1099500040F0DA8094F8FA1DD4F8FC0D81F0010192
:109960003FF0B2FC4FF0320C4FF47A7001267B6866
:10997000C3F30803002B40F08780EFF31183002B23
:1099800040F08280D4F86021A968D4F860319A420E
:10999000F8D1D4F8203E9942F4D8D4F81C9E00FBAC
:1099A00009F35B1AB3FBF9F300FB02327B68C3F3E4
:1099B00008033BBBEFF3118323BBD4F86031D5F828
:1099C00008A0D4F860118B42F7D1D4F8201E8A4544
:1099D000F3D8D4F81C9E00FB09F1A1EB0A01B1FBFE
:1099E000F9F100FB03139B1AB3F57A7FDED3BCF1C8
:1099F000010CBCD10BF1FF3616F0FF0B7FF426AF44
:109A0000BDE8F88FEFF3118988F31288D5F808A024
:109A10002B68DB0303D5C4F8186ED5F808A0D4F87A
:109A200060315FFA89F9D4F8181E89F31188D4F8E7
:109A30001C9E0B4400FB09F1A1EB0A01B1FBF9F1FB
:109A400000FB0313CFE7EFF3118988F31288D5F8F1
:109A500008A02B68D90303D5C4F8186ED5F808A060
:109A6000D4F860315FFA89F9D4F8181E89F31188A7
:109A7000D4F81C9E0B4400FB09F1A1EB0A01B1FBD9
:109A8000F9F100FB031345E7EFF3118188F3128826
:109A9000D5F808902B68DA0303D5C4F8186ED5F80A
:109AA0000890D4F86031C9B2D4F8182E81F3118827
:109AB000D4F81C1E1A4400FB01F3A3EB0903B3FB0B
:109AC000F1F300FB023271E7EFF3118188F31288A2
:109AD000D5F808902B68DB0303D5C4F8186ED5F8C9
:109AE0000890D4F86031C9B2D4F8182E81F31188E7
:109AF000D4F81C1E1A4400FB01F3A3EB0903B3FBCB
:109B0000F1F300FB0232E4E6D4F8143E002B3FF4FC
:109B100029AF0023D4F8002E136084F8113E21E70A
:109B2000D4F8143E002B3FF4B0AE3BF0BDF9ACE6E8
:109B3000802A012000ED00E010E000E02DE9F04F68
:109B40000A2383B0CB4CCC4FCC4D0193FFF764FE7E
:109B500001264FF4FA7C4FF0100E4FF47A707B68B8
:109B6000C3F30803002B40F05182EFF31183002B65
:109B700040F04C82D4F86021A968D4F860319A4250
:109B8000F8D1D4F8203E9942F4D8D4F81C9E00FBBA
:109B900009F35B1AB3FBF9F300FB02327B68C3F3F2
:109BA0000803002B40F01182EFF31183002B40F0EB
:109BB0000C82D4F86031D5F808A0D4F860118B423B
:109BC000F7D1D4F8201E8A45F3D8D4F81C9E00FBA8
:109BD00009F1A1EB0A01B1FBF9F100FB03139B1A98
:109BE000B3F57A7FDAD3BCF1010CB8D194F8E81D53
:109BF0004FF00608D4F8F00D4FF01009C1F3400102
:109C00003FF062FB94F8E81DD4F8EC0DC94301F075
:109C100001013FF059FBD4F8F03D33B11A689B883D
:109C200051690B4218BF1B049361D4F8EC3D33B16A
:109C30001A689B8851690B4218BF1B049361B4F8E2
:109C4000F83D002B40F0228294F8FA1DD4F8FC0D68
:109C50003FF03AFBFA204FF47A7101267B68C3F398
:109C60000803002B40F09081EFF31183002B40F0AC
:109C70008B81D4F86021D5F808A0D4F860319A42DD
:109C8000F7D1D4F8203E9A45F3D8D4F81CEE01FB66
:109C90000EF3A3EB0A03B3FBFEF301FB02327B6876
:109CA000C3F30803002B40F04E81EFF31183002B28
:109CB00040F04981D4F86031D5F808B0D4F860E1BB
:109CC0007345F7D1D4F820EEF345F3D8D4F81CAEA1
:109CD00001FB0AFEAEEB0B0EBEFBFAFE01FB03E33B
:109CE0009B1AB3F57A7FDAD30138B7D1D4F8F03DB7
:109CF00033B11A689B8851690B4218BF1B049361EA
:109D0000D4F8EC3D33B11A689B8851690B4218BFF7
:109D10001B049361B4F8F83D002B40F0BF8194F828
:109D2000FA1DD4F8FC0D81F001013FF0CDFAFA20C4
:109D30004FF47A7101267B68C3F30803002B40F0CF
:109D4000E180EFF31183002B40F0DC80D4F8602138
:109D5000D5F808A0D4F860319A42F7D1D4F8203E63
:109D60009A45F3D8D4F81CEE01FB0EF3A3EB0A03DB
:109D7000B3FBFEF301FB02327B68C3F30803002B45
:109D800040F09F80EFF31183002B40F09A80D4F8CD
:109D90006031D5F808B0D4F860E17345F7D1D4F854
:109DA00020EEF345F3D8D4F81CAE01FB0AFEAEEB6F
:109DB0000B0EBEFBFAFE01FB03E39B1AB3F57A7FA1
:109DC000DAD30138B7D108F1FF3818F0FF087FF473
:109DD00022AF4FF47A7C4FF0100E012660467B686C
:109DE000C3F30803002B40F03181EFF31183002B04
:109DF00040F02C81D4F86021A968D4F860319A42EF
:109E0000F8D1D4F8203E9942F4D8D4F81C9E00FB37
:109E100009F35B1AB3FBF9F300FB02327B68C3F36F
:109E200008036BBBEFF3118353BBD4F86031D5F853
:109E300008A0D4F860118B42F7D1D4F8201E8A45CF
:109E4000F3D8D4F81C9E00FB09F1A1EB0A01B1FB89
:109E5000F9F100FB03139B1AB3F57A7FDED3BCF153
:109E6000010CBCD1019B013B01937FF46FAE03B0A9
:109E7000BDE8F08F802A012000ED00E010E000E056
:109E8000EFF311898EF31288D5F808A02B68DB0355
:109E900003D5C4F8186ED5F808A0D4F860315FFA7D
:109EA00089F9D4F8181E89F31188D4F81C9E0B4444
:109EB00000FB09F1A1EB0A01B1FBF9F100FB03136F
:109EC000C9E7EFF3118A89F31288D5F808B02B6837
:109ED000DB0303D5C4F8186ED5F808B0D4F86031A8
:109EE0005FFA8AFAD4F818EE8AF31188D4F81CAE17
:109EF000734401FB0AFEAEEB0B0EBEFBFAFE01FB48
:109F000003E35AE7EFF3118E89F31288D5F808A01E
:109F10002B68DA0303D5C4F8186ED5F808A0D4F876
:109F200060315FFA8EFED4F8182E8EF31188D4F8C3
:109F30001CEE1A4401FB0EF3A3EB0A03B3FBFEF382
:109F400001FB023218E7EFF3118A89F31288D5F882
:109F500008B02B68DB0303D5C4F8186ED5F808B039
:109F6000D4F860315FFA8AFAD4F818EE8AF31188CF
:109F7000D4F81CAE734401FB0AFEAEEB0B0EBEFB25
:109F8000FAFE01FB03E3ABE6EFF3118E89F31288CF
:109F9000D5F808A02B68DA0303D5C4F8186ED5F8F5
:109FA00008A0D4F860315FFA8EFED4F8182E8EF334
:109FB0001188D4F81CEE1A4401FB0EF3A3EB0A033C
:109FC000B3FBFEF301FB023269E6EFF311898EF376
:109FD0001288D5F808A02B68D90303D5C4F8186EE9
:109FE000D5F808A0D4F860315FFA89F9D4F8181EC2
:109FF00089F31188D4F81C9E0B4400FB09F1A1EBF6
:10A000000A01B1FBF9F100FB0313E8E5EFF311815D
:10A010008EF31288D5F808902B68DB0303D5C4F8BB
:10A02000186ED5F80890D4F86031C9B2D4F8182E5B
:10A0300081F31188D4F81C1E1A4400FB01F3A3EB32
:10A040000903B3FBF1F300FB0232A7E5EFF3118143
:10A050008EF31288D5F808902B68DA0303D5C4F87C
:10A06000186ED5F80890D4F86031C9B2D4F8182E1B
:10A0700081F31188D4F81C1E1A4400FB01F3A3EBF2
:10A080000903B3FBF1F300FB0232C7E6D4F8143E38
:10A09000002B3FF4DFAD3AF007FFDBE5D4F8143EC8
:10A0A000002B3FF444AE0023D4F8002E136084F854
:10A0B000113E3CE610B4B8B10D4CD4F8243E102B40
:10A0C00005D1052100205DF8044B3FF0B5BE03EB40
:10A0D0004302224482F8291E012182F8280E0B44F3
:10A0E00082F82A1EC4F8243E5DF8044B704700BF76
:10A0F000802A01202DE9F04FD04C002387B004F6D0
:10A10000586894F86C2EC4F8583EC8E90133C8E981
:10A1100003331AB194F86D3E84F8583E94F86E3EBD
:10A120001BB194F86F3E84F8673E94F8723E1BB101
:10A1300094F8733E84F8623E94F8703E1BB194F834
:10A14000713E84F85D3E94F8743E013B4FFA83FA09
:10A15000DBB2BAF1FF3F029300F01481B022B8499C
:10A16000B84D002302FB0A112E4605F1280050319C
:10A170001F469B46019355F0A1F90395357851464A
:10A18000284641F0C1FF8146002840F0FE8001379B
:10A190000536042FF2D194F8840E039DFFF7B0F832
:10A1A0004FF44032A84E00230121C4F88C2E3046D3
:10A1B000D4F8802EC4F8A4BEC4F8A01EC4F8981E1B
:10A1C00084F8B81EC4F8903EC4F8B03EC4F8B43E5B
:10A1D000C4F8943E84F8A83EC4F8AC3EC4F89C3E53
:10A1E000C4F8882EFDF70CFFBAF1000F40F0EC80A8
:10A1F000019B83F0010919F0FF0F40F0E580A6F103
:10A20000080050F0CDF9012308F11408EA78002A7B
:10A2100040F034810535A845F8D104EB0A030299D2
:10A22000022093F97C2E3BF0C1FD0546002800F08A
:10A23000A980002740684EF0D1FD06213A46DFF89C
:10A2400028824EF0DBFDBBF1010F4FF400638CBFA1
:10A250004FF480613946D5E90102C4F8E01E4FF49D
:10A2600000554FF48071C4F8D42EC4F8E43E4FF486
:10A2700000320323C4F8D00E4046C4F8D87EC4F898
:10A28000F83EC4F8DC7EC4F8F47EC4F8FC7EC4F862
:10A29000007FC4F8E85EC4F8EC1EC4F8F02E0DF0A0
:10A2A00031F894F8C43EC4F8C08E012B0597C4F869
:10A2B000086F67D00123D4F8885E84F8C43EAB6889
:10A2C000DE0714D4614B6249D3F8A837AA68B3FB00
:10A2D000F1F342F0010203EB4303AA600593059BEF
:10A2E0002BB1059B013B0593059B002BF9D1AB6876
:10A2F000D80747D5D4F8C82E564B134043F4807383
:10A30000C4F8C83E6B68590507D5D4F8C83E23F495
:10A31000405343F48053C4F8C83ED4F8C83E13F405
:10A32000805340F03D81C4F8CC3E4B4800234B495C
:10A330006FF02202C4F8100F494884F8C43E5B460F
:10A34000C4F80C1F05F14C01C4F81C0F2A606E689C
:10A35000444A46F0806644486E60AE6846F48076B3
:10A36000AE600CF047FF414B5A68D20640F02581A1
:10A37000D4F8883E9A6812F0405F03D19A6842F0A0
:10A3800080429A6007B0BDE8F08F28463EF06AFE32
:10A39000FB1D03210022DBB2CDF8049008B18371CC
:10A3A000C2713EF045FE307841F0E0FE0BF1010352
:10A3B00086F802B05FFA83FB4FF0070370703371C9
:10A3C0004FF00103F370E2E6B0220021284848274D
:10A3D00055F0E6F8B0220021254855F0E1F8254B6C
:10A3E000384684F8347FC4F8303FFEF789FF4FF4D5
:10A3F000403000230121D4F8302FC4F83C0F1E4810
:10A40000C4F8501FC4F8481F84F8681FC4F8403FC0
:10A41000C4F8603FC4F8643FC4F8443FC4F8543FF4
:10A4200084F8583FC4F85C3FC4F84C3FC4F8382F58
:10A43000FDF7E6FD0E4850F0B3F8E4E6802A01206F
:10A4400010F80508D83801200839012088190120A2
:10A4500040420F00FEF8FFFF3D250108412501089D
:10A460002D2501080801002050390120002301405A
:10A47000B039012000200140B839012094F8C40E01
:10A4800000215A1C2F7901280491D2B269783DD05D
:10A490004FF00100092984F8C40E4ED94FF0030E85
:10A4A0006FF01D00D4F888CE4FF007091EFB0100A5
:10A4B000DCF80CE009FA00F907FA00F02EEA0907C7
:10A4C000CCF80C70DCF80C703843CCF80C00062B80
:10A4D0004FF005001CD86FF0040710FB0373D4F88D
:10A4E000887E1F2000FA03FC786B01FA03F320EA50
:10A4F0000C007863786B03437B63D4F8883E3E4856
:10A50000834230D04FF0000384F8C43E134681E606
:10A510000C2B32D86FF0220710FB0373D4F8880E8F
:10A520001F2707FA03FC076B01FA03F327EA0C075E
:10A530000763076B3B430363DFE7D4F8880E01EB47
:10A5400041094FF0070ED0F810C007FA09F70EFACC
:10A5500009FE2CEA0E0CC0F810C0D0F810C047EA73
:10A560000C070761B3E7122921D01129CAD1234969
:10A570004B6843F400034B60C4E76FF0400710FBE7
:10A580000373D4F8880E1F2707FA03FCC76A01FA81
:10A5900003F327EA0C07C762C76A3B43C362ACE711
:10A5A000D4F8CC3E23F00603C4F8CC3EBDE61349F4
:10A5B0004B6843F480034B60A4E7D4F8882E0E491F
:10A5C0008A420DD05B68DB063FF5DCAE0C4B9A424D
:10A5D0007FF4D8AE9A6812F0405F7FF4D3AECDE638
:10A5E000936813F0405F03D1936843F08043936016
:10A5F000024B5B68C6E600BF00200140002301401B
:10A60000002201402DE9F041D0F800E00C46DFF8CF
:10A61000588084B0DEF804501746DFF850C0194661
:10A6200005EA0805DDF82880064603932C434246D8
:10A6300044EA0C0CCEF804C00CF078F878B9316814
:10A640000246039B30468F628021CDF800800CF0DB
:10A650009DF8003818BF012004B0BDE8F08101204A
:10A6600004B0BDE8F08100BF009800FC002001812B
:10A670000A4610B102213EF01FBC7047034690F815
:10A680003C00012800F03E810220F0B4012483F850
:10A690003D0083F83C40142A45D8DFE812F04D0015
:10A6A0004400440044007B00440044004400DA00BD
:10A6B000440044004400AA00440044004400060151
:10A6C00044004400440015001A688E68156A0F683B
:10A6D00025F48015AB4C1562106A556820F4001003
:10A6E000D2F854C040EA0650A74E0CEA0404B24225
:10A6F00044EA072400F0088106F58066B24200F0C3
:10A7000003814E6855605465D6651062506D0C69C2
:10A7100040F400605065506D20F480605065516DCC
:10A7200041EA0421516500220121104683F83D10C1
:10A7300083F83C20F0BC70471A68D1F808C0156A4D
:10A740000F6825F00105914C1562106A56689569ED
:10A7500020F002002C408C4D40EA0C00AA4244EA52
:10A76000070400F0DD8005F58065AA4200F0D8807E
:10A770004D68566094615563106290690C6940F0B1
:10A7800008009061906920F0040090619169214374
:10A790009161C8E71A68D1F808C0156A0F6825F0FA
:10A7A00010057B4C1562106A5668956920F02000F0
:10A7B0002C40754D40EA0C10AA4244EA072400F0F0
:10A7C000C38005F58065AA4200F0BE804D685660E2
:10A7D00094619563106290690C6940F40060906127
:10A7E000906920F480609061916941EA042191614F
:10A7F00099E71A688E68156A0F6825F48055644CCD
:10A800001562106A556820F40050D2F81CC040EA66
:10A8100006305D4E0CEA0404B24244EA072400F01C
:10A820008D8006F58066B24200F088804E685560E3
:10A83000D46116641062D0690C6940F40060D06184
:10A84000D06920F48060D061D16941EA0421D161EE
:10A8500069E71A68D1F808C0156A0F6825F4807591
:10A860004A4C1562106A5668D56920F400702C4075
:10A87000454D40EA0C20AA4244EA070473D005F58E
:10A880008065AA426FD04D685660D461D56310626E
:10A89000D0690C6940F00800D061D06920F0040054
:10A8A000D061D1692143D1613DE71A688E68156A8C
:10A8B0000F6825F48035374C1562106A556820F40E
:10A8C0000030D2F854C040EA06402F4E0CEA04048F
:10A8D000B24244EA07041DD006F58066B24219D0A0
:10A8E0004E685560546596651062506D0C6940F075
:10A8F00008005065506D20F004005065516D2143F3
:10A90000516510E70220704725F480254E6945EA1D
:10A910008625F6E625F480354E6945EA0625DFE70B
:10A9200026F4407C20F008008E69CF684D693843DA
:10A93000354320F0040045EA0C0619E725F480456C
:10A940004E6945EA861571E726F4406C20F08000D8
:10A950008E69CF684D6940EA0710354320F040000A
:10A960004CEA850632E726F4405C20F400608E69EC
:10A97000CF684D6940EA0720354320F480604CEAF7
:10A98000051680E7FF8FFFFE000001408CFFFEFFF1
:10A99000FF8CFFFE8FFFFEFF70B5484E96F8E04F2C
:10A9A00004EB4403650006EBC30393F8E43F032B79
:10A9B00079D8DFE803F04A2B2002254406EBC505D1
:10A9C000D5F8E83F002B70D13D4A12F8B42C9442E0
:10A9D00069D0013404F003018A4286F8E01F62D096
:10A9E00001EB41040222184606EBC404C4F8E83F18
:10A9F00084F8E42F70BD2B1906EBC303D3F8E82FBE
:10AA000072B1013A0020C3F8E82F70BD2B1906EB94
:10AA1000C303D3F8E82F002AF3D1022283F8E42FEE
:10AA2000254406EBC50696F8F03F013BDBB286F8FD
:10AA3000F03FF3B1234B0120D3F80C2102F2E733AE
:10AA4000B3FBF2F3C6F8E83F70BD41F053FA50B3E0
:10AA50001C4A42F20F732C440121D2F80C2106EB60
:10AA6000C404134484F8E41FB3FBF2F3C4F8E83FD2
:10AA700070BD144A0323601C1149D2F80C21D6F88A
:10AA8000EC4F184086F8E43F531E234411F8B44CB1
:10AA9000001BB3FBF2F118BF01209A42C6F8E81F71
:10AAA00088BF002030B9012070BD013B0020C5F8EF
:10AAB000E83F70BD0139C6F8E81F70BD802A01204B
:10AAC000783B01200000012003689B0AA3F5801356
:10AAD000522B00D970470E4A134470B593F8604268
:10AAE00084B00D2C12D800294FF0000309494FF013
:10AAF000010514BF1E460226427901EB8410694607
:10AB0000CDE90065CDE9023309F00EFA04B070BD5D
:10AB100010F80508C83A0120C36810B5044682B091
:10AB20001BB19A88196812048A61606840F2E9339F
:10AB30008268013B12F0020F9BB21CD0F52240F25A
:10AB4000E933027300E033B38268013B12F0010F76
:10AB50009BB2F8D0C368606801230DF107020021A1
:10AB60004EF00CFEE36813B11A689B8893619DF860
:10AB7000070002B010BD002BDAD1154A904207D071
:10AB8000144B984222D003F580639842E4D102230B
:10AB9000114AD8210DE00E4A904207D00D4B984241
:10ABA00012D003F580639842D5D102230A4AD821F6
:10ABB000606801FB0323B3F81C23013292B2A3F8AF
:10ABC0001C23B3F81C33C7E70123EFE70123DFE7BA
:10ABD0000030014000380040783B01200378012B11
:10ABE00001D00020704790F90420084902EB42028E
:10ABF00001EB421292F8C516202901D01846704781
:10AC0000D2F884369869C0F3C0307047783B012091
:10AC100070B5174C82B00D46134694F8F067022EBB
:10AC200008D00A46014604F5FE6002B0BDE8704057
:10AC300040F0AEBDD4F8FC271AB19188166809041B
:10AC4000B1610146D4F8F40701934CF001F8019B7F
:10AC50002A460021D4F8F4074EF090FDD4F8FC37D2
:10AC600013B11A689B889361012002B070BD00BFC8
:10AC7000783B01202DE9F04F037883B00446022B86
:10AC800000F08C80012B04D00025284603B0BDE8DD
:10AC9000F08F90F90400554E042886F83438D4BF5C
:10ACA00000250125B0F1FF3F08BF45F00105002D4B
:10ACB000EAD100EB40024FEA400C06EB4212D2F818
:10ACC0008476002FE0D092F8C5E6BEF1200FDBD1EC
:10ACD000BF6917F40047D7D192F8C4E6BEF1010F5F
:10ACE000D2D04FF04008DFF818E1DFF818B14FF08C
:10ACF000210A94F80590DBF8E44D82F8C5A682F8A5
:10AD0000C68606F63408C2F8C876A2F8AE36C2F88F
:10AD1000B0E6B2F8AEE682F8C4361FFA8EF3DFF87A
:10AD2000E8E0C2F8A886FF2BC2F8B8E659D8B2F816
:10AD3000AEE64FF000781FFA8EFE84442C48009453
:10AD40004FEA490900EB4C100A4606EB4C14494601
:10AD500014301923A4F8ACE6FFF754FC002836D1D0
:10AD6000D4F884262349536894F8AC660B40224DEE
:10AD7000D4F8B81643EA0903A94243EA064343EA72
:10AD80000803536084F8C40603D01C4B994218BFD3
:10AD9000F227136801251F43176076E7C3681BB1CC
:10ADA0009A8818681204826160684BF051FF012193
:10ADB00060684BF04DFFE3683BB101251A689B8842
:10ADC0002846936103B0BDE8F08F01255DE7B6F832
:10ADD00036380022013384F8C4269BB2A6F83638F0
:10ADE00053E74FF0FF0E4FF08078A6E7783B012045
:10ADF000E8410120009C00FC216E0108296F010838
:10AE00000000FFFF802A01206D700108036870B503
:10AE10005E6A26B133460522BDE8704018470446F5
:10AE20000D464E1D00E023689B6820469847002889
:10AE3000F9D02368204615F8011B1B689847B542D6
:10AE4000F1D170BD2DE9F0470023194D84B00746BC
:10AE500095F93D9805F644064FF0B60A00EB010857
:10AE600005F6E4251C46D6F800C0304600226946A7
:10AE7000E036BCF1000F14D09CF838C0BCF1140FC0
:10AE80000FD019F1020F01D0CC450AD1CDE902440F
:10AE9000CDE90078ADF808A08DF80E4032F094F8B6
:10AEA0000346B542DFD1184604B0BDE8F08700BFC5
:10AEB000783B0120F0B500230E680DE0BCF1050FD2
:10AEC00017D9BEF1050F18D80A2C16D103EB83034E
:10AED00016F8010B04EB4303A0F13005A0F1610C5F
:10AEE000A0F1410EA0F13704EFB2092FE6D82C46AD
:10AEF000ECE7A0F157040A2CE8D00E601360F0BD17
:10AF00002DE9F743A0230124114E18255FFA84F898
:10AF1000FF2B14DCE9B2D6F8E40A5F1CDBB2C1F106
:10AF20001C02C1F11B0180F80B808272C9B2026859
:10AF300000930023D2F818904246C8473B46013D93
:10AF4000E6D10134052CE0D103B0BDE8F08300BFA9
:10AF5000783B012010B50A4C94F8010B003818BF5B
:10AF60000120FEF70FFA50B1064904F6E8203FF041
:10AF7000E3FB04F6E82017F02FF804F6E82010BDF4
:10AF8000783B0120C4FA05082DE9F04F914C164694
:10AF90000B2287B094F88A8D054694F895AD8946C2
:10AFA0004046114602951D469DF8407039F01EFD41
:10AFB000C245834640F0BC80039040463EF052F8C4
:10AFC00017F008030246019300F0A580BBF1000FC3
:10AFD00000F09D809BF80710890700F19880C4F865
:10AFE00054BBC4F8500BC4F84C0B002800F0EE80A2
:10AFF00040F60B3105F0020AC1804FF48073DFF890
:10B00000F4810299584608EB030284F8145B00258A
:10B01000C4F83C1BC4F8282B31466F4AC4F81C3BCB
:10B02000C4F8102BC4F8203BC4F8186B84F8157BC7
:10B03000C4F8409BC4F8248BC4F8305BC4F82C5B84
:10B04000C4F8385BC4F8345BC4F86C5D84F8705D98
:10B05000A4F8645D31F0F2F9D4F8540B07F0010163
:10B06000FFF732FD5D4A5E4BD4F8540BC4F8785DAF
:10B07000C4F87C2DC4F8743DBAF1000F1CD0D4F88C
:10B080005C7BCFB13A6803689A4215D00123314600
:10B09000384684F8713D31F0D1F908F5057229463A
:10B0A000D4F85C0B4CF034FF2A4608F50771D4F84D
:10B0B000540B4CF02DFF07E04A4A002302F108012F
:10B0C00084F8713D4CF024FFD4F8543B1B689B0A74
:10B0D000A3F58013522B32D8434A134493F86022CD
:10B0E0000D2A2CD8414B03EB8213C4F8583B019B2B
:10B0F0005BB33F4831F0C4F93D4807B0BDE8F08F7D
:10B10000039BCDE9040113B1D879830725D500202D
:10B1100007B0BDE8F08F15F00101F1D105F0020C88
:10B120005FFA8CFABAF1000F32D1D4F854BB64E75D
:10B130000B220C21504639F059FC03903DE70023C7
:10B14000C4F8583B019B002BD3D1294831F08EF92C
:10B150000121274831F0BAF9CBE7504605F0020A41
:10B160003DF080FF039AD4460599C4F8542B049A05
:10B17000C4F84C0B904202D1BAF1000F1CD1002848
:10B18000CED040F60C3EA0F806E0BAF1000FCCD0CD
:10B19000B8F1000FBBD0C4F8502B91B9BBF1000F30
:10B1A000B5D0C4F854BB5FFA8CFA002A3FF425AF3F
:10B1B00040F60B31D18020E7B8F1000FA7D0C4F8DA
:10B1C000502BC4F85CBBD4F854BBECE705F0020A82
:10B1D00013E700BF783B012014FB0508B1BB03084F
:10B1E000E5C40308EC48012010F80508C83A01201E
:10B1F00088460120D84601202DE9F04F4021B94C66
:10B200000027042341F2542504F6AC764FF0A04207
:10B21000616194F8BD0302218BB06360C4F80064DF
:10B220006451226027632761E7626762A161E16080
:10B23000C4E90777002800F05B810321164684F8F3
:10B24000BD13936823F001039360F368304643F025
:10B250004003F36009F0FEF9B36B012F054643F498
:10B260008033B36316D0FDB194F894550223012DB9
:10B2700084F8BD3300F0FA802368802101205962F0
:10B280005A6A42F480029A62FDF74AFA00200BB033
:10B29000BDE8F08FB36843F00603B360B36843F0D2
:10B2A0002003B360002DDFD123683220DA6822F05A
:10B2B000C042DA60DA6842F08042DA600BF0BEF930
:10B2C000606848B32A4601272946C2EBC203561CD0
:10B2D00004EB830383F83C20A3F84220F2B283F806
:10B2E0003D70824283F83F101965C3E91111ECD318
:10B2F00000221146C2EBC203561C04EB830383F801
:10B30000FC21F2B283F8FD11824283F8FF11C3F8E9
:10B310001012C3E98111EDD300222368D4F80CC0C8
:10B320001646D4F81080D4F82CE0D4E906710191C7
:10B3300002F14001013203EB81010F2A4E60F7D187
:10B340009A6BBEF1000F40F03D8122F400129A6327
:10B350001A6842F040021A601A6842F080021A60CD
:10B360000022012F03F50066C3F8002ED3F8002851
:10B37000C3F80028D3F8002800F01B81032F00F049
:10B38000188142F00302C3F800284FF48461564A42
:10B39000196102E0013A00F02C8119698F06F9D495
:10B3A0001021514A196102E0013A00F02081196927
:10B3B000C906F9D4002131617161F161E0B103F591
:10B3C00010624FF0904A4FF0006B0F464FF67F39F6
:10B3D0009C4607E0176001311761C2F808902032DF
:10B3E000814260D01368002BF4DA11B1C2F800A0DA
:10B3F000F1E7C2F800B0EEE73269B8F1010F22F4CC
:10B400008072326100F0E78000216FF08042996124
:10B410005A61B8F1000F03D19A6942F010029A61A3
:10B420009969324A0A439A61019A1AB19A6942F0BB
:10B4300008029A61BEF1010F00F0C880002D7FF470
:10B4400013AF0121626A84F838508A4284F8BD1330
:10B4500000F0D1807368032043F0020373600BF0A7
:10B46000EDF894F89455012D7FF406AF03204EF0CB
:10B47000F5F803283FF400AF2368802228464021D6
:10B480005A625A6A42F400129A62FDF749F9202181
:10B490000220FDF745F940210320FDF741F9002086
:10B4A0000BB0BDE8F08F002163460CF530624FF021
:10B4B000904A4FF0006B0F464FF67F39844607E005
:10B4C000176001311761C2F808902032614593D0AE
:10B4D00010680028F4DA11B1C2F800A0F1E7C2F850
:10B4E00000B0EEE788190120400D030000383C80D1
:10B4F00000F0FF054B4B03204FF4C05684F8BC53BB
:10B500001A6B42F001021A630A221B6B069105A90D
:10B5100003F00103089044480493049B07950596A3
:10B52000099208F0DFFBE36A012B71D03D4B062145
:10B5300043205A6B42F080025A635A6B02F0800239
:10B540000292029A5A6C42F480425A645B6C03F491
:10B5500080430393039BFDF717FE032326683349BB
:10B560000820A269886084F8BD33012AB36827697E
:10B5700023F00103B3607FF468AEB26B2C4B22F46E
:10B580008032616BB2630129F26803EA0203F3605F
:10B59000F36823F44013F36003D1F36843F480139A
:10B5A000F360304609F056F8012F05467FF45BAE94
:10B5B00070E6BCF1000F3FF4E6AE42F00102C3F8C2
:10B5C0000028E2E642F400129A63C9E69969194A32
:10B5D0000A439A6132E718490020184A31636FF034
:10B5E0008041376B3A4332639861596118E701250E
:10B5F000E0E60125D4E684F8F4539969C4F8FC2305
:10B6000041F000610E4A9961596D0A435A6521E77C
:10B610004FF4007305A904480593CDE9065508F0D9
:10B6200061FB83E7003802400000024000E100E0D7
