:020000040800F2
:100000000020001085320308A1510008459802081D
:100010009D5100089951000895510008000000000A
:1000200000000000000000000000000091510008E6
:100030008D5100080000000089510008C1520208DB
:10004000ED320308ED320308ED320308ED32030808
:10005000ED320308ED32030805BF020831C0020883
:10006000F5BF0208B9BF02087DBF020841010010B8
:1000700031010010210100101101001001010010D8
:10008000ED000010D9000010ED320308ED32030836
:10009000A98B0008ED320308ED32030841BF0208C6
:1000A000C937020829380208B93702083938020866
:1000B0001938020809380208F9370208ED32030836
:1000C000ED320308ED320308ED320308ED32030888
:1000D000ED32030885540208F553020865530208FF
:1000E000C9BE0208ED32030879510008ED32030859
:1000F000D9370208ED320308E9370208ED32030868
:10010000000000000000000000000000ED320308C5
:10011000ED320308ED32030865CC010851CC01082B
:10012000C5000010B10000109D00001089000010F3
:1001300075000010ED320308000000000000000010
:10014000ED320308ED320308ED3203080000000031
:10015000000000000000000000000000000000009F
:100160000000000000000000ED320308ED3203083B
:10017000ED32030800000000000000000000000055
:0801800000000000ED3203084D
:100188002DE9F04300230F6801264FF0030C02E02D
:100198000133102B25D006FA03F535EA0702F7D10B
:1001A8000A7902F1FF385C00B8F1010F0CFA04FE7D
:1001B80019D97546ED43D0F800E00EEA050505604B
:1001C8000568A2402A430260C568CA790CFA04FE91
:1001D80025EA0E0502FA04F401332C43102BC460FF
:1001E800D9D1BDE8F083D0F8088028EA0E08C0F815
:1001F800088091F80580D0F8089008FA04F848EAD1
:100208000908C0F80880B0F804801FFA88F828EABE
:100218000505858091F80680858808FA03F848EA7C
:1002280005081FFA88F86FEA0E05A0F80480C2E7EF
:10023800F0B40568344E354C354925F01F0202F1FB
:10024800804202F582320123176805F01F0503FA80
:1002580005F527EA05051560026822F01F0702F078
:100268001F02BD5903FA02F225EA0202BA510579C2
:10027800026805F1804522F01F0605F5823502F077
:100288001F02775903FA02F23A437251026822F0C8
:100298001F0602F01F02355903FA02F225EA02028C
:1002A8003251026822F01F0602F01F02755803FA45
:1002B80002F225EA020272504279102A0ED0016831
:1002C80002F1804221F01F0002F5823201F01F0185
:1002D80084588B4023438350F0BC7047026822F057
:1002E8001F0502F01F022E5903FA02F232432A5167
:1002F800026822F01F0002F01F0244589340234373
:100308004350F0BC704700BF04040140080401409A
:100318000C040140036870B55E6A26B133460522B5
:10032800BDE87040184704460D464E1D00E023689E
:100338009B68204698470028F9D0236815F8011BC8
:100348001B6820469847B542F1D170BDFF20704721
:10035800012380F851307047014B1868704700BF7F
:100368002810002001207047704770477047704779
:1003780008B103487047034B5B6807221A8270472D
:100388000000002028100020F2E700BF21B9012852
:100398008CBF022000207047022070470C4B5B681E
:1003A800DA78042A07D8598A38B10A4B03EBC20213
:1003B8009068084470470020704710B4054C04EB5F
:1003C800C2025DF8044B9289511A1982704700BF26
:1003D8002810002000000020064B5B685A8A18B1DC
:1003E800054B986A104470470349898D8A1A1A8206
:1003F800704700BF2810002000000020064B5B68F3
:100408005A8A18B1054B186B104470470349898EF6
:100418008A1A1A82704700BF2810002000000020A6
:10042800074B5B681B7803F07F03212B01D0022068
:10043800704700F0DF00022814BF02200020704738
:1004480028100020212814D0202810D10D494B68ED
:1004580008721A7802F07F02212A08D10A4A10B5D8
:1004680000249A615C8220469047204610BD0220F5
:100478007047044B5B681A7802F07F02212AF6D194
:10048800024AECE7281000209103000879030008CD
:10049800704700BF034B1A7A202A04BF00221A7241
:1004A800704700BF28100020014B0422DA60704713
:1004B80028100020024B9A7E0AB10522DA607047A4
:1004C800281000200D4A0E4B11680E4A89B221F0FF
:1004D80007010B445B001B68C3F30903136013682F
:1004E8009BB201335B1008D007482C32016822F810
:1004F800021B013B00F10400F8D17047505C00403A
:100508001E3000202810002020620040014B0022ED
:10051800DA6670472810002008B5002837D0204A2E
:1005280000205168A2F870000B7813F07F0317D0F1
:10053800012B31D0022B24D1497901F00F039B0004
:1005480003F1804303F5B84309061B681AD403F482
:100558004053B3F5805F10D1012382F870300CE06E
:10056800497A11F0200318BF022348064CBF43F014
:10057800010323F0010382F87030536F1B69984719
:10058800084808BD03F03003102BF6D1E4E7044B0C
:100598005B6802221A8208BD02F1700008BD00BF24
:1005A800281000209810002038B110B5054C636F52
:1005B8001B68984760680A3010BD024B5B680122CF
:1005C8001A8270472810002038B110B5054C636FA7
:1005D8009B68984760680C3010BD024B5B6801222D
:1005E8001A827047281000200023F0B452004F1CD4
:1005F8001E46B0F1204F4FEA107404F130052ABFAF
:100608003734CD54CC54FE5402339A424FEA00108A
:10061800EFD1F0BC704700BF38B5134A134B1068D0
:100628001B68C01814D11249124A4D68124C002395
:100638000120AB7210604FF4E0554FF41640136080
:10064800A1F878002360156023601060CB6038BD86
:100658000A4B0B491C680822FFF7C6FF09492046C8
:100668000422FFF7C1FFDEE7ACF7FF1FB4F7FF1F57
:1006780028100020405C0040445C0040B0F7FF1F99
:100688003A0000204A0000200F4B104A1B689BB21A
:1006980023F0070303EBC0031A443E294FEA420242
:1006A8000AD94B09C80604BF03F1FF339BB29B026A
:1006B80043F40043136070474B08C90748BF013330
:1006C8009B021360704700BF505C0040063000205A
:1006D800F8B51F4D2A688AB195F87A70EB1901228E
:1006E80093F82C30037014462B681B1B2B602E6864
:1006F800174485F87A7096B12046F8BD2C6895F8AD
:100708007A7014B31346EE19F1180133DBB291F87D
:100718002C1081549C421A46F6D8E2B2E4E74021F4
:100728000320FFF7B1FF0B4A85F87A60136823F4BA
:10073800804323F070039BB283F4405343F4004397
:1007480043F0800313602046F8BD2246CCE700BF83
:10075800281000200C5C004007B501A8FFF7B8FF7F
:100768000028FAD09DF8040003B05DF804FB00BF30
:100778002DE9F84FDFF8BCB1674FDBF80420674E6E
:10078800DFF8B4A1DFF8B48165496648DFF8B091B5
:10079800C0230025537255813D60326802EA0A027F
:1007A80042F4007292B23260326802EA080292B2EF
:1007B80048F2800482F01002224332603A6892B212
:1007C80022F007021144490040220A60396889B2C0
:1007D80021F0070101F1005101F5405149004FF0A6
:1007E800800CC1F800C0D6F800C090F8801040F620
:1007F8000F6000EA0C00204330602846FFF744FFF2
:100808003168DFF840C1DFF840E1474801EA0901F3
:1008180089B281F4405121433160DCF8001001EACB
:100828000A0189B2CCF80010396889B221F00701B1
:100838008E444FEA4E0EC023CEF80030DCF800306C
:10084800DFF808E103EA08039BB283F0200323439F
:10085800CCF80030DCF8003003EA090323439BB2EC
:10086800CCF80030036803EA0A0343F4C0639BB280
:1008780003603B689BB223F007039E444FEA4E0E89
:100888004FF48073CEF80030036803EA090323436A
:100898009BB20360036803EA08039BB283F020035A
:1008A80023430360F36803EA0A0A1FFA8AF3F36032
:1008B8003B68402211469BB21C4A23F007031A44A6
:1008C80052004FF4887313600320FFF7DDFEF368CE
:1008D80003EA09039BB283F440532343F360F368AC
:1008E80003EA080323439BB2F36040F60F71AA00A2
:1008F80002F1804202F5B84213680B402B430135E0
:100908002343042D1360F2D1094A80210123116089
:10091800CBF80C30BDE8F88F505C0040005C00401C
:100928000430002000000020085C00401C3000203B
:100938004C5C0040281000208F89FFFFBF8FFFFF0D
:100948008FBFFFFF045C00400830002010300020FB
:10095800054B064A1B689BB223F0070303EBC00351
:100968001A44520011607047505C00400230002069
:10097800202970B526D811B34B1C5B108EB20C46DB
:10098800124A30F8025B22F8045B013BF9D1314688
:100998000120FFF7DDFF0E490E4ACB6E2344CB66DC
:1009A800136823F4E04323F040039BB283F0300341
:1009B80043F4004343F080031360204670BD0C46A7
:1009C800204670BD202634461023D9E780610040B8
:1009D80028100020045C0040F8B590F8506000230F
:1009E80080F85030EEB1124DEA68E2B1EA68052AA3
:1009F8001BD1EF6F00F13C04EB6E83B93146204602
:100A0800FFF7B6FFEB6FDB1B322BA6EB00060444A7
:100A180001D8002EF0D1B6FA86F04009F8BD0020C2
:100A2800F0E70120FAE71046F8E71846F6E700BFB6
:100A380028100020002280F85120CDE790F850209F
:100A4800531C0244DBB280F8503082F83C1090F816
:100A580051200AB1132B00D9BEE77047F8B50D4CE9
:100A6800E3680E46154693B1E368052B0FD1E76F8F
:100A7800002D0CDDE36E5BB929463046FFF778FFA1
:100A8800E36FDB1B322BA5EB00050644F0D9F8BD5C
:100A98000020F5E728100020704700BF08B50C4B70
:100AA800002093F88010FFF7EFFD0A4B5A68107A80
:100AB800082806D14FF480511022A3F88010A3F81B
:100AC8008220A0F10900B0FA80F0400908BD00BFFB
:100AD80000000020281000202DE9F0412F4F7E68EB
:100AE800338A2BB9357A042D40D0B48A042504E022
:100AF800B48AA34294BF042502259C4228BF1C4601
:100B08001FFA84F8B36940469847254B1B689BB287
:100B180023F0070303F1005303F540535A00631C05
:100B2800126892B202F1005202F540525B104FEA8D
:100B3800420205D030F8021B22F8041B013BF9D110
:100B480041460020FFF704FF338A718AA3EB0803AC
:100B5800414430204FF44052338271827E68A7F8B6
:100B68008200A7F880203572BDE8F08197F88420CC
:100B7800012A04D01023A7F882300725F3E7084993
:100B8800084A096887F8843089B221F007010A44C5
:100B9800520030211360A7F88210E4E728100020E3
:100BA800505C00400230002070B53E4C63681878F5
:100BB80010F07F0031D0022801D0022070BD5A8881
:100BC800002AFBD11A79002AF8D15A7956B222F0B4
:100BD8008002950005F1804101F5B841002E0968B1
:100BE800B4BF01F0300101F44051032AE6D80029CE
:100BF800E4D09B7A002BE1D005F1804505F5B84596
:100C0800002E2B680EDB03F44053B3F5805F27D02A
:100C1800636F5B699847002070BD5A7A22F0200202
:100C28005A7270BD03F03003102BF1D12B685A06AD
:100C380008D52B6840F60F72134043F4004343F085
:100C4800C0032B602B6823F4E04323F040039BB2DE
:100C580083F0300343F4004343F080032B60D7E76D
:100C68009AB9114B104693F88010FFF70DFD2B68C9
:100C780023F4804323F070039BB283F4405343F47E
:100C8800004343F080032B60C2E72B685B04EED57A
:100C98002B6840F60F72134043F4404343F080033F
:100CA8002B60E4E72810002000000020084BDA68D9
:100CB800D10709D4DA68D20608D4DB6813F0040F28
:100CC80014BF03200420704701207047022070479A
:100CD8000020024000207047704730B1034B93F961
:100CE80085000028D4BF002001207047281000206C
:100CF80008B5FFF7F2FF60B1064A92F8863092F81D
:100D080087205B0003F00203002A18BF43F00103A9
:100D18000B6008BD2810002008B5FFF7DEFF18B1EA
:100D2800024BD3F888300B8008BD00BF2810002084
:100D380070B5FFF7D2FF90B1094AB2F88C5075B17F
:100D4800D2F890600023B3421C4608DA02EB440450
:100D58000133B4F89440AC42DBB2F4D30B7070BDED
:100D68002810002008B5FFF7B8FF10B100230B705A
:100D7800137008BD0420704740B1054B93F98600F5
:100D880020B193F98400003818BF0120704700BFD4
:100D98000000002008B5FFF7EFFF50B1054B93F9AD
:100DA8008420012AC3BF93F88730C3F340030B6044
:100DB800002008BD0000002008B5FFF7DDFF18B1CE
:100DC800024B93F886300B7008BD00BF000000206E
:100DD80010B5FFF7D1FF38B10E4C94F88730DB0718
:100DE80003D500230B70137010BD94F98530002BC8
:100DF800B8BF0733DB1001330B7094F985305942C3
:100E080001F0070103F0070358BF4B420133137089
:100E1800EAE700BF000000200320704770B50A4AC7
:100E280092F89E3006255E1CB6FBF5F405FB1464AB
:100E380092F89F50AC4205D002EBC303C3E92801E6
:100E480082F89E4070BD00BF28100020002230B5F7
:100E580004461046914200DC30BDA35C082558408A
:100E680010F0800F4FEA400318BF83F0D503013D0F
:100E7800D8B2F5D10132EDE70139C9B2042910B56C
:100E880015D8013AD2B2072A11D8094C02EBC1028F
:100E980004F18E00052184F89220FFF7D7FF062180
:100EA80084F8930004F18E00BDE81040B6E710BD49
:100EB8000000002041F26C6383804FF4827303804A
:100EC800012383700023C38003727047074A92F896
:100ED800D03092F8D1100133DBB2994282F8D03089
:100EE80004BF002382F8D030704700BF28100020CC
:100EF800F8B57A4CD4F8D43083B1D4F8D83093F814
:100F08002E305BB1764B94F8DC20A3FB0013012A4A
:100F18004FEA931330D0022A08D002B1F8BD714BC2
:100F28009842FBD9012384F8DC30F8BDD4F8E020DE
:100F380064329A423FD894F8D03004EB031393F804
:100F48008023FF2A06D068490132012083F88023D4
:100F580081F89400FFF7BAFF94F874330122092B43
:100F680084F8DC20DAD1B4F81E3413449BB2A4F818
:100F78001E34A4F87A33F8BD94F8D010C4F8E030E1
:100F880001EB810304EB031394F8740383F8F62050
:100F9800002604F1E8050A220223092884F8F260F1
:100FA800C4F8E45084F8F32084F8DC30B6D1013179
:100FB800A4F87813F8BD94F8F22094F8F3309A4224
:100FC800ACD104F1E70004F1F005002310F8012F7B
:100FD800082153405A0013F0800F08BF5B0082F0CD
:100FE800070214BFD3B2DBB20139F3D18542EDD188
:100FF80094F8F1209A4239D194F8D060B4F8EB50C3
:1010080094F8EF70B4F8ED0094F8F03094F8E9C073
:1010180004EB06126DBA40BA43EA0723ADB294F85E
:10102800EA7082F88013C2F8845381B22E4D94F985
:10103800E800C2F8881347EA0C271BB20121032EE7
:10104800A2F88273A2F88C3382F8810385F8941091
:1010580009D894F874230C2A2AD00D2A03D104EB5A
:101068004606A6F87803FFF731FF5BE794F8D0301F
:1010780004EB031393F88023FF2A06D01A490132A0
:10108800012083F8802381F89400FFF71FFF94F86C
:1010980074330122092B84F8DC207FF43FAFB4F8C5
:1010A8001C3413449BB2A4F81C34A4F87C33F8BD58
:1010B80094F81A140D4A03EB830303EB83034908DE
:1010C8009B0004EB460693FBF1F382FB0312DB174C
:1010D800C3EBA203A6F87833C5E700BF28100020A9
:1010E800D34D62103F4B4C000000002067666666D7
:1010F8000B4B93F8F21093F8F32091420ED010B4F2
:1011080093F8F220D3F8E440511CD2B2C0B2C9B26D
:1011180083F8F210A0545DF8044B7047704700BF85
:10112800281000200C4AD2F8343430B41C68D2F8A5
:101138002C545D6019810025611C19609D81207007
:10114800D2F83434D2F82C141A685A604FF6F67272
:1011580030BC19609A81704728100020114B30B4B8
:10116800D3F8D825C3F8DC2503F5876003F5996122
:1011780003F5976503F5B9640132C3F83054C3F831
:101188003444C3F8D82530BCC3F82804C3F8B804DD
:10119800C3F8BC04C3F82C14C3F8C815C3F8CC159D
:1011A800704700BF281000205E2810B511D05D28B8
:1011B80005D00D4BBDE81040D3F8E03518470A4C70
:1011C800D4F8E0359847D4F8E0353D20BDE8104024
:1011D8001847054C5D20D4F8E0359847D4F8E03539
:1011E8003E20BDE8104018472810002090F86030D5
:1011F80043B942690121072082F84430A2F8460029
:1012080082F84810704700BF454B984226D0B0F18D
:10121800804F2ED0434B984235D0434B984212D042
:10122800424B98423AD0424B984242D0414B984266
:101238004AD0414B98425DD0404B98424FD0404BEA
:10124800984262D0704703F502331A6942F00402EB
:101258001A611A6922F004021A61704703F564439F
:10126800DA6842F40062DA60DA6822F40062DA606E
:101278007047344B1A6942F001021A611A6922F068
:1012880001021A61704703F503331A6942F002023A
:101298001A611A6922F002021A61704703F50033D5
:1012A8001A6942F010021A611A6922F010021A61D2
:1012B800704703F5FE331A6942F020021A611A6971
:1012C80022F020021A61704703F55C43DA6842F4A1
:1012D8000052DA60DA6822F40052DA60704703F5E7
:1012E8004C43DA6842F40032DA60DA6822F40032F9
:1012F800DA60704703F55043DA6842F48032DA6006
:10130800DA6822F48032DA60704703F54843DA6815
:1013180042F48022DA60DA6822F48022DA6091E707
:10132800002C01400004004000080040001000406C
:1013380000140040003401400040014000440140D6
:10134800004801400010024038B504460D460A46E0
:101358000068FF2133F027F921682944216038BD4E
:10136800026810B57F21541C0460117002680024C3
:10137800511C01600E211470FFF7E6FF012010BD1B
:10138800134B10B400220F2483F8E615090A83F8DA
:10139800E50583F8E715C3F8E825C3F8EC25C3F895
:1013A800F02583F8E44503F2E450012110F8014FD9
:1013B800013122440E29D2B2F8D183F8F225054929
:1013C800D3F8F4055DF8044B102224F09BB900BF54
:1013D800281000200C160020054B002183F8F81572
:1013E800C3F8FC15D3F8F43503B1C9E7704700BF5B
:1013F8002810002000B583B00268084B8188CDF81A
:1014080001203222D3F80036ADF805108DF80020FF
:101418006846984703B05DF804FB00BF2810002019
:1014280010B504460068FFF7EFFE094AB2FBF1F178
:10143800204689B222F0AEFA0649074BC1F8683E49
:1014480020460022BDE8104001F6686122F0F8B994
:10145800005125022810002021EF00082DE9F04F47
:10146800DFF88093CD4E4D4686468C4617460FCD05
:1014780006F567642DED068B0FC40FCD0FC495E8F4
:1014880007008BB096F80234059784E80700CDE989
:1014980006EC042B78D8DFE803F064775F03740068
:1014A8009FEDBF8ADFEDBF8ABF49C6F88C1EBF49D2
:1014B800BF4BC04AC6F8881E0599002918BF1346B5
:1014C80038EE887AF5EE006AC6EE879ABA4DDFF8EC
:1014D80018B3C6F8943EA5F69D2A0024DFEDB77A26
:1014E8009FEDB79A28EE278AB0EE67AA079BA3421A
:1014F80000F01F811AF8010B04F1010818285FFA9F
:1015080088F146D0202800F076812E2800F07781D7
:101518002F2800F07881162800F07981172800F02C
:101528007A811D2800F07B81232800F07C811F2808
:1015380000F07D81122800F07E812B2800F07F8149
:10154800A04A9C4BC6F88C2E0020C6F8943E0BB0DF
:10155800BDEC068BBDE8F08F9FED9B8AF0EE488AC4
:10156800A2E79FED968A904A904BC6F88C2EC6F853
:10157800883E00220123CDE90532F0EE488A8D4BE2
:101588009EE79FED928AEEE79FED918AF0EE488AFA
:101598008AE70623049300270309013B09EB430C60
:1015A800012200F00F00BCF834C1029302FA00F0E7
:1015B800884B0391013807EB470703EBC70300EAA1
:1015C8000C000AEE903A31F0E1FC029B03994B447F
:1015D8004FF0030E93F8403118447F4B03EBC00CD7
:1015E80001228CF807108CF806E053F83000C5F893
:1015F80014C000F1384309EB932393F8483103F002
:101608001F015B09022B02FA01F200F0EF80032BA5
:1016180000F0BF80012B00F0B780BCF804300893BD
:10162800B3FA83F3C3F11F03C3F3CC0200EB8202C6
:1016380003F00703116A049F9B004FF00F0C0CFA8C
:1016480003FC21EA0C011162116A9F403B460B43DF
:10165800136208A902230993FEF792FD059B002B4C
:101668006DD0B6F8003496F8020407EE903AF8EE1A
:10167800E77A0428FCEEE77A17EE901ABBFBF1F242
:1016880002F57F4202F1FF024FEA1242BBFBF2F27F
:10169800B2FBF1F18BB268D007EE902AF8EEE76A58
:1016A80066EE887A29EE677A96F80304069900911F
:1016B800A6EEA87A019028461AEE901AC5ED027A8D
:1016C80085ED037A1BF008F8002C59DD6B68D6F815
:1016D800A82E934256D0012C52D0D6F8C02E934251
:1016E80050D0022C4CD0D6F8D82E93424AD0032C96
:1016F80046D0D6F8F02E934244D0042C40D0D6F8E9
:10170800082F93423ED0052C3AD0D6F8202F93428A
:1017180038D0062C34D0D6F8382FD31A18BF012366
:1017280044460122082C2B746A7405F118057FF4CD
:10173800DDAE2A480BB0BDEC068BBDE8F08FB0EEED
:10174800690A32F09DFAFCEEC07A96F8020417EEA8
:10175800902A4FF6FF71BBFBF2F204280A444FEAC5
:1017680012420B46BBFBF2F296D107EE901A07EE37
:10177800102AF8EEE77AF8EEC76A67EE8A7A91E7F8
:101788000123CDE70023CBE7154B59690A435A617A
:1017980043E7134BD9690A43DA613EE72810002072
:1017A800ACC5A737ACC5A736E1970108591D020893
:1017B800ED8F01084D1D0208CC1E00206F12833AE0
:1017C80000007A44519501082829303800000000AB
:1017D8006F1203397C4603088C1F0020981E0020D6
:1017E800001002405046030800A24A04164B9969AB
:1017F8000A439A6111E7042304930127CCE60623E0
:1018080004930227C8E6022304930327C4E60223AD
:1018180004930427C0E6012304930527BCE60A23A2
:1018280004930627B8E6012304930727B4E60123A7
:1018380004930827B0E6012304930927ACE60123A3
:1018480004930A27A8E600BF00100240024B014695
:10185800586F23F095BF00BF20210020F8B505463A
:10186800262013F04FFC124C0146E0B9A06F90F807
:1018780038301E3B012B01D923F082FF0D4F002683
:10188800AE4209DBB4F89C300133A4F89C300A4B13
:10189800DB6FC4F8AC30F8BD17F8011BA06F23F05C
:1018A8006FFF0136ECE7002384F8AA30EFE700BFAA
:1018B800202100209C2100202810002038B5144C3D
:1018C80094F89F3094F89E209A421AD004EBC303F0
:1018D800104AD3E928100023984213DC8B780E4A6B
:1018E8005B0882F8AA30C2F8B000FFF7B7FF94F897
:1018F8009F3006210133B3FBF1F201FB123384F868
:101908009F3038BDCD5C02F8015B0133E4E700BFCE
:10191800281000209C210020202100202DE9F84FCC
:101928001B4C05461E2094F8B4A094F8B5B094F862
:10193800B660B4F8B890B4F8BA8094F8BC7013F0F4
:10194800E1FB30B1B8F1000F03D0C14601264FF0DA
:10195800000A94F8BE30DA070AD494F8C3203AB9DA
:10196800012F12D0022F03D113F0020F08BF012656
:1019780085F800A085F801B0AE70A5F80490A5F828
:1019880006802F722846BDE8F88F3E46F0E700BF74
:101998002021002013B50446FFF7EEF908B3002311
:1019A8000DF106022046ADF806300CF0D5FFC0B1A7
:1019B8000D4C9DF8062094F9841084F89920032989
:1019C80008BF62F07F024FF00501084808BF84F89D
:1019D8009920FFF73BFA062184F89A000348FFF79D
:1019E8001DFA02B010BD00BF0000002095000020C5
:1019F8002DE9F84F2DED028BFFF7BEF9002844D0F2
:101A0800254B93F9840001283FDD93F89B40DFF8CC
:101A180090809FED228A0FF2780BDBE900AB154628
:101A28008E1E02EB44094D4504D1BDEC028B2046C5
:101A3800BDE8F88F38F8027B26F8027F07EE907A27
:101A4800F8EEE77A67EE887A17EE900A30F0AEFE85
:101A580052465B4630F002FF41EC100B32F0D4FAEC
:101A680051EC100B31F022FA0E2F80B20AD919303E
:101A78003223B0FBF3F080B200EB800000EB800073
:101A8800400080B225F8020BCDE70024CDE700BF67
:101A98001655B5BBB16B024000000020CDCCCC3D43
:101AA8000822002038B50D46FFF766F9044638B11C
:101AB8000E4B93F88720D20704D5B3F88800288006
:101AC800204638BD93F985300948594201F007018D
:101AD80003F0070258BF4A42002BB8BF0733DB1098
:101AE8000132591C0CF04CFFE9E700BF0000002050
:101AF8009C0000202DE9F04FA94D95F8F0308BB0EF
:101B08008146002B40F0B580D5F8F460002E00F037
:101B1800B080A44AD2F8A04004F0F021B1F1E02F3F
:101B28006ED1C2F8A030D5F8F820944268D004935A
:101B38000593ADF81830B5F8B83095F8B4E0ADF8BD
:101B4800143095F8B5C095F8BC3095F8B6A08DF866
:101B580018300DF110088DF810E08DF811C08DF8CF
:101B680012A098E8070007AB03C38F4F1A80C4F38D
:101B780042533B44C4F3034293F84E11C5F8F8406E
:101B88008E4502F1010201D1944508D030468DF806
:101B98001C108DF81D200CF0F3FEADF82000304627
:101BA8000DF0E0F8032804F0070B34D0042836D0F1
:101BB80000239A4501A9304618BF8DF81E300CF055
:101BC80029FF48B1019BC4F3001103F001038B42C4
:101BD80002D030460CF0B8FF0A2207A9404632F07E
:101BE800ACFC68B19DF81E30BDF81C2085F8B630F5
:101BF800BDF82030A5F8B420A5F8B8302BF07AFA53
:101C080095F8FCA004AF95F8FC30032B7BD8DFE8EF
:101C180003F00A3376A35F4497F85331C9E75F446A
:101C280097F85B31C5E7394630460CF0F9FE0446B3
:101C380058B107A8FFF772FE9DF81E109DF81030E6
:101C48008B4260D030460CF0F5FF95F8FC3001333C
:101C580003F0030385F8FC300CB99A45D3D195F805
:101C6800BE30DB0700D524B1336849461B683046CF
:101C780098470BB0BDE8F08F01A8FFF74FFE95F825
:101C8800BE809DF8044008F00108ECB1B8F1000FDF
:101C980039D13A460DF1030130460CF0C4FE044632
:101CA80088B307A8FFF73AFE9DF81C109DF803308B
:101CB8009DF81D208B4203D19DF81030934222D00D
:101CC80030460CF0C1FFC0E7B8F1000FBDD139466E
:101CD80030460CF0A2FE0446A8B107A8FFF71EFE86
:101CE800BDF82010BDF810308B420CD085F8FD806F
:101CF80085F8FE80336830469B699847A5E795F8D4
:101D0800BE30D80701D500249FE707A930460CF05C
:101D180081FE04460028F6D01E2013F0F3F995F84A
:101D2800FF3083428046EED085F8FF0060B1B5F8F9
:101D3800BA30002BE7D1079BD907E4D401213046FC
:101D48000CF002FF444680E7079BDA07DBD5014623
:101D580030460CF0F9FE78E73846FFF7DFFD97E8E4
:101D6800070007AB03C31A809DF810309BB10DF133
:101D78001D0207A930460CF056FE0DF11E01304633
:101D88000CF04EFE0A2207A9384632F0D6FB041E94
:101D980018BF012459E708A930460CF03EFEECE7CD
:101DA80020210020000000205046030870B5214D76
:101DB80095F80031EA181C4692F804218AB11E4EA3
:101DC80009225C1CA6FB04135B0803EBC303E31A9C
:101DD800E918DCB291F8041109B1013AF1D185F89A
:101DE800004102681549561C06600C2616700268E8
:101DF800561C0660002616700268561C066003EB27
:101E0800430603EB8603147019440D222BF0BEF928
:101E180095F80011084B4A1CA3FB02035B082944F0
:101E280003EBC3030120D31A81F8040185F80031BC
:101E380070BD00BF20210020398EE33830220020F9
:101E48002DE9F041684ED6F8F47084B0044638465F
:101E58000D460CF087FF86F8850157B10DF1090290
:101E680002A938460CF0DFFD002840F08E8096F875
:101E780085010023ADF808308DF80A301A46431E54
:101E8800DBB20021FF20FD2B8DF80C20ADF80E10E1
:101E98008DF80B0003D9002004B0BDE8F0819DF84F
:101EA8000830042B00F09680052B00F09980032B56
:101EB80000F09880022B00F08C80012B08BF0421D1
:101EC80000F088809DF809309DF80A10D6F8F400D3
:101ED800013B0DF10E028DF809300CF03DFD96F82E
:101EE8008531032B73D0042B0CD1404A9DF80A008E
:101EF8000121002301E012F8011F81426DD2013354
:101F0800082BF8D1D6F88821029B394F9A420DF157
:101F180008084FD023680D22591C21601A702368C5
:101F28000022591C21601A7023689DF80820591C4A
:101F380021601A7023689DF80920591C21601A70C5
:101F480023689DF80C20591C21601A7023689DF89D
:101F58000A20591C21601A70BDF80E1020462BF07B
:101F680045F923689DF80B20591C216020461A70FA
:101F78000721FFF7E9F998E8030087E80300012043
:101F8800C6F8905104B0BDE8F08101A938460CF0BC
:101F980041FD00283FF46BAF38460DF10A010CF003
:101FA8003FFD00283FF463AF019B96F8850103F0DD
:101FB800010264E77A68D8F804309A42AAD1D6F8C0
:101FC80090310C4AEB1A93427FF665AFA2E70A4AB2
:101FD8008CE703218DF8081074E78DF80A3091E733
:101FE8000121F7E70221F5E720210020AB4703088C
:101FF800A822002080841E00A34703082DE9F04191
:102008002A4C2B4AD4F89431B4F8A071B4F89C61E6
:1020180082FB0352DB17C3EBA2031FFA83F8474581
:1020280082B00D4603D1B4F8A231B34233D002686E
:102038000190511C34230160137002680023511C65
:102048000160137041462BF0D1F8019831462BF00E
:10205800CDF8019847F6FF712BF0C8F8019847F6BC
:10206800FF712BF0C3F8019847F6FF712BF0BEF80B
:10207800019847F6FF712BF0B9F801980221FFF794
:1020880063F90120A4F8A081A4F8A261C4F8A451BE
:1020980002B0BDE8F081D4F8A431064ACB1A9342C5
:1020A800C5D8002002B0BDE8F08100BF2021002083
:1020B8006766666680841E0003687E22591C10B518
:1020C80001601A7003680022591C01601A704FF6EB
:1020D800FF7104462BF064F80D4B93F8B321B3F865
:1020E800CC118AB193F8D231B1FBF3F120462BF031
:1020F80057F8204647F6FF712BF052F82046082182
:10210800FFF722F9012010BD20462BF049F8F0E72F
:102118002021002008B5A0F10103B3FA83F30228B7
:102128004FEA531301D0184608BD0F2012F0C4FF20
:1021380030B9064B93F8BE3003F00103184608BDCA
:10214800BDE808400F2012F0DDBF00BF20210020AD
:102158002DE9F84322F02EF9254E264A2649274C28
:1021680010274FF47A754FF0010C7368C3F3080316
:10217800EBB9EFF31183D3B9CB6FD4F80880D1F85A
:102188007CE07345F8D1D2F8DCE1F045F4D8D2F818
:10219800D89105FB09FEAEEB080EBEFBF9FE05FB68
:1021A80003E31B1AB3F57A7FDFD3BDE8F883EFF3B7
:1021B800118887F31288D4F808902368DB0344BF9A
:1021C800C2F8D4C1D4F80890D1F87CE0D2F8D43160
:1021D8005FFA88F888F31188D2F8D881734405FB30
:1021E80008FEAEEB090EBEFBF8FE05FB03E3D8E7DD
:1021F80000ED00E0202100202810002010E000E081
:1022080000F01F0240090123022803FA02F304D058
:1022180003280CD0012805D07047074A91690B4361
:1022280093617047044A51690B4353617047024AEE
:10223800D1690B43D361704700100240002845D094
:1022480003682A4A03F1384102EB9122F0B492F86C
:10225800482102F01F0452090121022A01FA04F15F
:102268003FD0032A38D0012A31D0002187880125A0
:102278000846032605FA00FC3CEA070200F10100C3
:102288001ED19A6806FA01F422EA04029A609A6852
:102298009A609A8892B222EA0C029A809A8892B23C
:1022A8009A801A6822EA04021A60D3F800C005FA74
:1022B80001F242EA0C021A60DA6822EA0402DA60E1
:1022C800102801F10201D5D1F0BC70477047084AC7
:1022D800546921435161C8E7054AD4692143D16152
:1022E800C3E7034A946921439161BEE75046030856
:1022F80000100240002800F03D810368A74A03F15E
:10230800384102EB912210B492F8482102F01F04E0
:1023180052090121022A01FA04F100F04381032A3B
:1023280000F03281012A00F026818288D40700F16A
:102338001181900700F1FE80510700F1EB8014072E
:1023480000F1D880D00600F1C580910600F1B28076
:10235800540600F19F80100600F18C80D10579D4D5
:10236800940568D4500557D4110546D4D40435D4FF
:10237800900424D4510413D4120402D45DF8044BFD
:1023880070471A685DF8044B22F040421A601A68D8
:102398001A60DA6822F0404242F08042DA60704700
:1023A800196821F04051196019681960D96821F03D
:1023B800405141F080511204D960DFD5E1E7196836
:1023C80021F04061196019681960D96821F04061ED
:1023D80041F08061D9605104CED5E1E7196821F058
:1023E8004071196019681960D96821F0407141F08D
:1023F80080719004D960BDD5E1E7196821F44001E6
:10240800196019681960D96821F4400141F4800104
:10241800D404D960ACD5E1E7196821F440111960FA
:1024280019681960D96821F4401141F48011D96004
:1024380011059BD5E1E7196821F440211960196855
:102448001960D96821F4402141F480215005D960F0
:102458008AD5E1E7196821F44031196019681960D3
:10246800D96821F4403141F480319405D9607FF571
:1024780079AFE0E7196821F44041196019681960DB
:10248800D96821F4404141F48041D960D1057FF5F4
:1024980067AFDFE7196821F44051196019681960BE
:1024A800D96821F4405141F480511006D9607FF574
:1024B80055AFDFE7196821F44061196019681960A0
:1024C800D96821F4406141F480615406D9607FF5F0
:1024D80042AFDFE7196821F4407119601968196083
:1024E800D96821F4407141F48071D96091067FF573
:1024F8002FAFDFE7196821F0C0011960196819606A
:10250800D96821F0C00141F04001D006D9607FF5BB
:102518001CAFDFE7196821F03001196019681960EC
:10252800D96821F0300141F010011407D9607FF516
:1025380009AFDFE7196821F00C0119601968196003
:10254800D96821F00C0141F00401D96051077FF5E9
:10255800F6AEDFE7196821F0030119601968196000
:10256800D96821F0030141F001019007D9607FF596
:10257800E3AEDFE770470A4A546921435161828814
:10258800D4077FF5D6AEE5E7054AD4692143D16182
:102598008288D4077FF5CDAEDCE700BF504603083C
:1025A80000100240044A9469214391618288D4074B
:1025B8007FF5BFAECEE700BF00100240004870476D
:1025C800EC1F002000285CD00368364AF0B503F100
:1025D800384402EB9422012492F8482102F01F05A6
:1025E8005209022A04FA05F456D0032A4FD0012AC8
:1025F80048D08488B4FA84F0C0F11F00C0F3CC0638
:1026080003EB860600F0070082000F25306A95402C
:1026180020EA05003062306A01FA02F20243002122
:10262800326208464FF0010C032702260CFA00FE1E
:102638003EEA040200F101001ED19A6807FA01F58A
:1026480022EA05029A609A689A609A8892B222EA07
:102658000E029A809A8892B29A801A6822EA050233
:102668001A60D3F800E006FA01F242EA0E021A6094
:10267800DA6822EA0502DA60102801F10201D5D1F0
:10268800F0BD7047084A55692C435461B1E7064AC2
:10269800D5692C43D461ACE7034A95692C4394610E
:1026A800A7E700BF5046030800100240F8B5344DB4
:1026B800D5F8E031002B5BD0D5E97946187CD5F800
:1026C800EC71FFF79DFD2F4B9C4252D02E4A136BA5
:1026D80023F01003136310232B4A116B0B4313636E
:1026E80016B140F21513F38095F8F131002B14BFA1
:1026F8003E211E213046042229F0A4F817B14FF4D8
:102708008B73FB8095F8F131002B14BF3E211E21FD
:102718003846042229F096F8216895F8F0511B4BA9
:102728001B481C4A21F0010121602168002D08BFC7
:1027380003460A40226023612268002342F0010216
:102748002260A360E360A360A36843F40043A3602E
:1027580023682360636823F0784323F400436360AD
:10276800236823F400332360236843F001032360C4
:10277800F8BD0549084B0A6B22F020020A63ABE753
:10278800202100200058004000100240300E500068
:102798007A25E000FFE0CF00200000102DE9F84F77
:1027A800C54C94F808120546C1F34001D4F810024C
:1027B80029F074FB94F80812D4F80C02C94301F00C
:1027C800010129F06BFB002D00F0E08005F1FF39D5
:1027D800BA4EBB4FBB4D5FFA89F94FF01008D4F8D9
:1027E800103233B11A689B88918A0B4218BF1B04B8
:1027F8009361D4F80C3233B11A689B88918A0B42E2
:1028080018BF1B049361B4F81832002B40F04C81B8
:1028180094F81A12D4F81C0229F040FBFA204FF45D
:102828007A714FF0010C7B68C3F30803002B40F06A
:102838000F81EFF31183002B40F00A81F26FD5F876
:1028480008E0F36F9A42F9D1D4F8DC319E45F5D807
:10285800D4F8D8A101FB0AF3A3EB0E03B3FBFAF3F8
:1028680001FB02327B68C3F30803002B40F0B08001
:10287800EFF31183002B40F0AB80F36FD5F808B06D
:10288800D6F87CE07345F8D1D4F8DCE1F345F4D808
:10289800D4F8D8A101FB0AFEAEEB0B0EBEFBFAFE84
:1028A80001FB03E39B1AB3F57A7FDBD30138BAD176
:1028B800D4F8103233B11A689B88918A0B4218BF3A
:1028C8001B049361D4F80C3233B11A689B88918A3F
:1028D8000B4218BF1B049361B4F81832002B40F068
:1028E800D78094F81A12D4F81C0281F0010129F05B
:1028F800D5FAFA204FF47A714FF0010C7B68C3F3D4
:102908000803002B40F08480EFF31183002B7FD164
:10291800F26FD5F808E0F36F9A42F9D1D4F8DC31B8
:102928009E45F5D8D4F8D8A101FB0AF3A3EB0E0312
:10293800B3FBFAF301FB02327B68C3F308033BBB2A
:10294800EFF3118323BBF36FD5F808B0D6F87CE01A
:102958007345F8D1D4F8DCE1F345F4D8D4F8D8A11C
:1029680001FB0AFEAEEB0B0EBEFBFAFE01FB03E316
:102978009B1AB3F57A7FDFD30138BFD109F1FF394C
:102988005FFA89F9B9F1FF0F7FF429AFBDE8F88F35
:10299800EFF3118A88F31288D5F808B02B68DB03A7
:1029A80044BFC4F8D4C1D5F808B0F36FD4F8D4E163
:1029B8005FFA8AFA8AF31188D4F8D8A1734401FB24
:1029C8000AFEAEEB0B0EBEFBFAFE01FB03E3CFE7FC
:1029D800EFF3118A88F31288D5F808B02B68DB0367
:1029E80044BFC4F8D4C1D5F808B0F36FD4F8D4E123
:1029F8005FFA8AFA8AF31188D4F8D8A1734401FBE4
:102A08000AFEAEEB0B0EBEFBFAFE01FB03E349E741
:102A1800EFF3118E88F31288D5F808A02B68DA0333
:102A280044BFC4F8D4C1D5F808A0F36FD4F8D421B2
:102A38005FFA8EFE8EF31188D4F8D8E11A4401FBB0
:102A48000EF3A3EB0A03B3FBFEF301FB023273E7B9
:102A5800EFF3118E88F31288D5F808A02B68DA03F3
:102A680044BFC4F8D4C1D5F808A0F36FD4F8D42172
:102A78005FFA8EFE8EF31188D4F8D8E11A4401FB70
:102A88000EF3A3EB0A03B3FBFEF301FB0232E9E604
:102A9800D4F83432002B3FF42CAFD4F82022002392
:102AA800136084F8313224E7D4F83432002B3FF431
:102AB800B5AE22F021FCB1E620210020281000202C
:102AC80000ED00E010E000E02DE9F04FC54CC64EE7
:102AD80094F80812D4F81002DFF81483C34D83B0B9
:102AE800C1F3400129F0DAF994F80812D4F80C027D
:102AF800C94301F0010129F0D1F9052301934FF0F1
:102B08001009D4F8103233B11A689B88918A0B42A5
:102B180018BF1B049361D4F80C3233B11A689B8830
:102B2800918A0B4218BF1B049361B4F81832002B2A
:102B380040F04F8194F81A12D4F81C0229F0AEF92B
:102B480032204FF47A710127D8F80430C3F3080310
:102B5800002B40F01281EFF31183002B40F00D8120
:102B6800F26FD5F808E0F36F9A42F9D1D4F8DC3166
:102B78009E45F5D8D4F8D8A101FB0AF3A3EB0E03C0
:102B8800B3FBFAF301FB0232D8F80430C3F30803AD
:102B9800002B40F0B280EFF31183002B40F0AD80A2
:102BA800F36FD5F808B0D6F87CE07345F8D1D4F8BF
:102BB800DCE1F345F4D8D4F8D8A101FB0AFEAEEB6A
:102BC8000B0EBEFBFAFE01FB03E39B1AB3F57A7FFB
:102BD800DAD30138B8D1D4F8103233B11A689B88E7
:102BE800918A0B4218BF1B049361D4F80C3233B19D
:102BF8001A689B88918A0B4218BF1B049361B4F82A
:102C08001832002B40F0D98094F81A12D4F81C021C
:102C180081F0010129F042F932204FF47A7101273D
:102C2800D8F80430C3F30803002B40F08680EFF394
:102C38001183002B40F08180F26FD5F808E0F36F24
:102C48009A42F9D1D4F8DC319E45F5D8D4F8D8A108
:102C580001FB0AF3A3EB0E03B3FBFAF301FB023209
:102C6800D8F80430C3F308033BBBEFF3118323BB4D
:102C7800F36FD5F808B0D6F87CE07345F8D1D4F8EE
:102C8800DCE1F345F4D8D4F8D8A101FB0AFEAEEB99
:102C98000B0EBEFBFAFE01FB03E39B1AB3F57A7F2A
:102CA800DED30138BCD1019B5F1E17F0FF030193EF
:102CB8007FF427AF03B0BDE8F08FEFF3118A89F3F3
:102CC8001288D5F808B02B68DB0344BFC4F8D47168
:102CD800D5F808B0F36FD4F8D4E15FFA8AFA8AF32A
:102CE8001188D4F8D8A1734401FB0AFEAEEB0B0E91
:102CF800BEFBFAFE01FB03E3CFE7EFF3118A89F38A
:102D08001288D5F808B02B68DB0344BFC4F8D47127
:102D1800D5F808B0F36FD4F8D4E15FFA8AFA8AF3E9
:102D28001188D4F8D8A1734401FB0AFEAEEB0B0E50
:102D3800BEFBFAFE01FB03E347E7EFF3118E89F3CD
:102D48001288D5F808A02B68DA0344BFC4F8D471F8
:102D5800D5F808A0F36FD4F8D4215FFA8EFE8EF36D
:102D68001188D4F8D8E11A4401FB0EF3A3EB0A0347
:102D7800B3FBFEF301FB023272E7EFF3118E89F326
:102D88001288D5F808A02B68DA0344BFC4F8D471B8
:102D9800D5F808A0F36FD4F8D4215FFA8EFE8EF32D
:102DA8001188D4F8D8E11A4401FB0EF3A3EB0A0307
:102DB800B3FBFEF301FB0232E6E6D4F83432002B13
:102DC8003FF42AAFD4F820220023136084F831326C
:102DD80022E7D4F83432002B3FF4B2AE22F08CFA5A
:102DE800AEE600BF202100202810002010E000E0FF
:102DF80000ED00E030B5264C94F88432012B85B004
:102E080004D0032021F034F805B030BD062319465C
:102E180002AA04F521702FF043FA80B19DF80D2025
:102E28009DF80B309DF8091092005B0002F0040237
:102E380003F00203134301F00102134317D194F87E
:102E48008452012DDDD10DF1070212482B460C21C9
:102E58002FF026FA9DF8072002F00F020028D0D0A4
:102E6800002ACED0042A0ED084F8C152CCE7012B18
:102E780009D0022B03D003F00303032BC1D1012394
:102E880084F8C132C0E7002384F8C132BCE700BF30
:102E980020210020A42300200F4991F88432012B1F
:102EA80001D00020704730B591F98842621C85B086
:102EB8000FD0022C0DDC0DF10F0591F88912009549
:102EC800024620462FF05EF918B19DF80F0005B0B4
:102ED80030BD002005B030BD202100202DE9F04F85
:102EE8002DED108B034697B004331593DFEDCACA56
:102EF800149002238A4613928B461293149C4FEA2D
:102F0800DB0604EB461202EB06103101A6EB860342
:102F18004FEAC60806EB4605CDE9000100EBC303FE
:102F2800043108F104001196204421442C01C6EB19
:102F3800C60C0394EC00119D04944FEACC0405944C
:102F48006C0106EB860E0294159D009C03EB461758
:102F58004FEACE0E02EBC6064FEACB094FF0000C43
:102F680051ED01AAD3ED001A92ED007A94ED005AC2
:102F780096ED004AD7ED007A15ED012A50ED016A69
:102F880032EE07BA76EE840A7AEE855A31EEA70A4F
:102F98003BEE256A70EE804A76EEC46A36EE244A25
:102FA80036EE646A05ED014A82ED006AD0ED00BA9A
:102FB800D6ED012AD3ED019A95ED00AA92ED016AAA
:102FC80097ED013A91ED00CAD4ED014A7BEEE23A61
:102FD80036EEE19A32EE472A73EEE98A3AEE464A2D
:102FE80039EE279A78EE838AB0EE428AA9EE6C8A87
:102FF800DC44E24573EEC33AB0EE441AA8EEEC1A8C
:1030080076EEE77A33EEA97A7CEE643A77EEA17A27
:103018003AEE066A7AEEC51A3CEE24AA74EECC4A59
:1030280039EE833A35EE6A5AF0EE639AF0EE48AA22
:10303800E7EE2C9AA8EEAC4AE7EE2C4AE7EE6CAA2B
:10304800F0EE418AB0EE427AB0EE612A7BEE656A14
:103058007BEEA22A76EE4A5AA9EE2C7AA7EEAC2A83
:10306800A7EEAC5AE7EEEC8A32EE83BA76EEC3BA34
:1030780035EEE09A75EEC07A36EE0A6A76EEE26AC6
:1030880036EE0BAA76EE836A77EEA07A34EE423AF1
:1030980077EE290A36EE4B6A7BEEA22A39EE000A51
:1030A80073EEAA3A78EE244A37EE697A31EE055A79
:1030B80071EEA85A32EE044A85ED00AA82ED016A43
:1030C8004D4441ED012A4A44C4ED006A81ED000AED
:1030D800C4ED017A494440ED010A4C4487ED007A79
:1030E800C6ED003AC3ED004A80ED003A87ED014A8B
:1030F800484486ED015A4F44C3ED015A4E444B44AF
:103108003FF62EAF119B072B40F2C781029D149EFC
:10311800019B03980499059A083575190C330E9587
:10312800354608F108080EF10804EB180830083194
:10313800083246442C1928186918AA18079305F16B
:103148000C030D960C940B900A91099208934FF07A
:1031580001084FF0000E129B9E44139B03EBCE0315
:1031680003EBCE02109302EBCE0303EBCE010291E8
:1031780001EBCE0101EBCE0505EBCE06D6ED007ACC
:103188000F93AEEB8E03019106EB031303EBCE070F
:10319800D3ED01AACDED067A019BD5ED007A97ED26
:1031A80001BACDED057AD3ED007A029BCDED047A14
:1031B800D3ED007A0F9BCDED037A07EBCE0CD3ED60
:1031C800007ADCED01BACDED027A0CEBCE01D2ED3E
:1031D800007A109A009101EBCE00014691ED01DAD8
:1031E800CDED017A0099D2ED007A91ED01CA00EB9C
:1031F800CE0000EBCE0494ED01EAD0ED01DACDED7E
:10320800007ADDE90776DDE90954DDE90B01DDE93E
:103218000D23C44602E000BFF304353F94ED009A45
:1032280090ED00FA91ED006AD5ED007AD3ED006AD1
:1032380057ED014A92ED005A56ED013A96ED00AA73
:1032480035EE060A73EEA65A39EE278A34EE8F7ADF
:1032580070EE082A75EE87EA35EE465A3EEEA26A07
:1032680073EEE63A06ED016AD1ED019AD2ED01FA64
:10327800D4ED016AD3ED011A95ED013AD0ED018A3A
:1032880097ED004A3FEEE96A35EE491A76EE660A8E
:1032980031EE271A3AEE612A75EE677A70EE830AE4
:1032A8003FEEA95A74EECF9A77EE897A7AEE211A10
:1032B800B0EE42AA74EE68FAA0EEECAADC44E2454D
:1032C80035EEC77AB0EE639A74EE285A38EEC44ADF
:1032D800F0EE698AA1EE6C9AE7EEAC8A36EE436AA4
:1032E8007FEE644A36EE266AA0EEAC2AF0EE4A0A71
:1032F800E7EEEC0AE7EEAC4AF0EE687AF0EE498ABF
:1033080036EE833AE6EE6C8AE1EE2C3AB0EE6F1AAE
:10331800A6EE2C1A71EEE56AA6EE2C4A71EEA55AB5
:1033280075EE031A7EEEE22A37EE43FA75EEE1EA0D
:10333800B0EE686A76EEC08A39EE044A7FEE86FA05
:1033480076EEC86A33EE816A38EE888A73EEC13A3F
:1033580037EE457A2CEE2E1A3FEE055A22EECC9A1D
:103368009DED03FA70EE266A33EE077AAFEE221A65
:10337800AFEE2E9A7AEE244A9DED01FA79EEA09AE4
:1033880025EE4BAA72EE670A37EE822A6BEE087AB0
:10339800AFEE08AAEFEE057A2DEEA63A9DED05FAF6
:1033A80067EE6D8AAFEE073AEFEE268A66EE6A2A76
:1033B8009DED00FA2AEEA00AEFEE202A6EEE02EA50
:1033C800DDED060A23EECE5AE0EEA3EA2BEEA98A3B
:1033D800DDED023AAFEE060AA3EE848A24EE6B7A9C
:1033E8006DEE246A9DED044A2FEECD6AA0EE825A56
:1033F800A3EEA97AE4EE2F6AA4EE246A75EEA15A28
:10340800C6ED005A83ED001A83ED019A4E4447ED4C
:10341800017A87ED00AA4B4480ED003AC0ED018A9D
:103428004F4482ED000A4844C2ED012AC5ED00EA86
:1034380085ED015A4A44C1ED006A81ED016A4D44A7
:1034480084ED008A84ED017A49444C443FF6E6AEA7
:103458000E9B08330E930D9B08330D930C9B08337A
:103468000C930B9B08330B930A9B08330A93099B15
:1034780008330993089B08330893079B083307937D
:10348800119B08F1010843457FF465AE129BDDF8F6
:1034980044B0DB009BB2129330E517B0BDEC108B43
:1034A800BDE8F08F2DE9F047164D0746002095F945
:1034B800B99805F50C6684B007EB010805F5366583
:1034C80004464FF0B60A3368ABB193F83830142B82
:1034D80011D019F1020F01D04B450CD100226946D9
:1034E8003046CDE90244CDE90078ADF808A08DF862
:1034F8000E4019F085FEE036B542E4D104B0BDE8CF
:10350800F08700BF2021002070B44479F1B9036826
:103518004FF400514FF4007530220326ECB9196AB4
:1035280021F00101196299691A6A21F0F30122F068
:103538000A02324341F0010199611A629A6922F044
:103548000C029A619A699A6170BC704700210368FD
:103558000D4610220126002CE1D0042C1ED0082C88
:103568001A6A34D04EF6FF7002401A62DA69186A95
:1035780045F6FF7540F6FF4428402240014342F4D7
:10358800807241F48051DA611962DA694FF2FF31D1
:103598000A40DA61DA69DA6170BC7047196A4FF675
:1035A800EF70014019629869196A4FF65F742140FB
:1035B80020F473400A4340F4807098611A629A6953
:1035C80022F440629A619A699A6170BC70474FF61A
:1035D800FF610A401A62D8691A6A92B24FF60C71F2
:1035E80022F420622A43014041F0010142F4807232
:1035F800D9611A62DA694FF6F3710A40DA61DA6959
:10360800DA6170BC704710B504460068FDF7FCFD30
:103618000A4A20464FF6FF7120F0BCF920460021E7
:10362800FFF772FF0649074BC1F86C3E204600229F
:10363800BDE8104001F66C6120F002B90051250286
:103648002810002043BE000810B40C4C1821224654
:10365800002300E01179884202F1180206D00133F4
:103668000B2BF7D100205DF8044B704703EB4303A5
:1036780004EBC3005DF8044B704700BF7C460308A9
:10368800094B93F80234042B08D9053B032B08D8BF
:1036980001231A4600B10370104670470023012227
:1036A800F8E700231A46F5E7281000209FED737A03
:1036B80007EE901A20EE070AF8EE677A27EE800ADE
:1036C800FDEEC07A17EE903A2033402B00F2C78007
:1036D800DFED6B7AB4EEE70AF1EE10FAF0EE407A1D
:1036E8000CDD9FED686ADFED686AB0EE677AB4EECC
:1036F800E67AF1EE10FA77EEC67AF6DC9FED637A99
:10370800F4EEC77AF1EE10FA0CD59FED5E6ADFEDA4
:10371800606AB0EE677AB4EEE67AF1EE10FA77EE08
:10372800867AF6D49FED5B7AF4EEC77AF1EE10FA5A
:1037380000F38D809FED587AF4EEC77AF1EE10FA17
:1037480044BF9FED527A77EE677A27EEA76ADFEDDE
:10375800535A9FED537ADFED536AA6EE257A67EE4A
:10376800865AE6EE076AB6EE007AE5EEA67A27EE06
:10377800877ADFED486A70EE267ABDEEE76A16EEC4
:10378800103A2033402B67D8B4EEE60AF1EE10FA6F
:103798000CDDDFED3C5A9FED3C6AF0EE676AF4EE13
:1037A800C66AF1EE10FA77EEE57AF6DCDFED376AF5
:1037B800F4EEE67AF1EE10FA0CD5DFED325A9FED11
:1037C800346AF0EE676AF4EEC66AF1EE10FA77EE44
:1037D800A57AF6D4DFED2F6AF4EEE67AF1EE10FA68
:1037E80040DDDFED276A76EEE77A67EEA75A9FEDB0
:1037F8002B5A9FED2B6ADFED2B6AA5EE856A27EE23
:10380800A55AE5EE866AB8EE006AE5EE267A67EE16
:10381800867AC7EE206A0023836143610362C3612D
:10382800B7EE006A76EE865A76EE666A86EE257AF6
:1038380067EE277A66EE876AC0ED017AC0ED037AF3
:1038480080ED007A80ED027AC0ED046A70479FED42
:103858000C7A77EE677A78E7DFED137AD9E79FED90
:10386800127A86E7DFED0C6AF4EEE67AF1EE10FAEA
:1038780044BFDFED066A76EEE77AB6E727D4D2369C
:10388800DB0F4940DB0FC940E4CB1641DB0F49C0D1
:10389800E4CB16C1DB0FC93FDB0FC9BF92E741B9C3
:1038A8009730083C15A82ABE0000000010B5FDF7A7
:1038B800FDF901280CD14FF4302400E04CB1FDF79C
:1038C800F5F9012804F1FF34F8D0002C08BF0520D1
:1038D80010BD052010BD00BF0C480D4BD0F8781B5B
:1038E80010B40C4CC0F8683B8A1E2231B0F8923BE9
:1038F8001B01A4FB03C3DB08A3F5B06322F8023F56
:103908009142F3D15DF8044B704700BF202100209D
:10391800C5A80008CDCCCCCC70B5084C251D2E46CA
:1039280014F8010B1EF0B6F828B1037805F8013B2E
:10393800B442F5D170BDFF23F8E700BFD42C0020B6
:103948002DE9F0471C4F012607F10805B2464FF054
:103958003C094FF0000817F8010B27F04DFF04460B
:1039680090B180F80690C671FB7803F07F02012AB7
:1039780018D013F0800F20460DD185F8048028F068
:1039880081FA85F805802C600136052E05F10805B9
:10399800E1D1BDE8F08785F804A028F079FA85F828
:1039A80005A0F0E71B0604D42046FEF747FCFB7889
:1039B800DFE728F06DFAF7E7DC2C00202DE9F04F5F
:1039C800964F83B007F10C06012417F8015B002D10
:1039D80044D04FEA151808F1FF38B8F1050F05F083
:1039E8000F013ED8DFF8549209EB4803B3F83401CD
:1039F80040FA01F212F001024FD001238B40013B43
:103A08001840C8442FF0C2FA98F84031844A184444
:103A180002EBC000182D4FF004027061C47182716E
:103A28003DD0202D00F0D0802E2D00F0D0802F2DFD
:103A380026D0162D00F0CF80172D00F0D0801D2D38
:103A480000F0D180232D00F0D2801F2D00F0D3800C
:103A5800122D00F0D4802B2D00F0D58003B0BDE8E6
:103A6800F08F00237361182D00F0D180202D00F015
:103A7800D2802E2D00F0CD802F2D4FF00000D8D110
:103A88004FF0020A0321674B01EB410103EBC1012F
:103A980000286DD0A3F12C0905E07261E3E74FF02F
:103AA800060A09F12C01036803F1384209EB92294F
:103AB8004FF0010C99F8482102F01F0E5209022A12
:103AC8000CFA0EFC7AD0032A72D0012A69D08088B9
:103AD800B0FA80F2C2F11F02C2F3CC0C03EB8C0CDB
:103AE80002F00702DCF820E092004FF00F0808FA15
:103AF80002F82EEA080ECCF820E0DCF820E00AFAFA
:103B080002F242EA0E020025CCF820204FF0010A0A
:103B1800AC464FF003094FF002080AFA0CFB3BEAE7
:103B280000020CF1010C1ED19A6809FA05FE22EA7E
:103B38000E029A609A689A609A8892B222EA0B02F8
:103B48009A809A8892B29A801A6822EA0E021A60BB
:103B5800D3F800B008FA05F242EA0B021A60DA68F4
:103B680022EA0E02DA60BCF1100F05F10205D4D189
:103B78002D4B2E4AB3F8E40BB3F8E63B0090013422
:103B880000200190B2FBF3F330469BB2E4B218F088
:103B9800A3FD0123092C737406F118067FF415AFF1
:103BA8005CE7234A154652694CEA02026A618EE7CD
:103BB8001F4DEA694CEA0202EA6188E71C4DAA69CE
:103BC8004CEA0202AA6182E71A4992466BE71A494F
:103BD8004FF0060A67E74FF0020A042153E74FF057
:103BE800010A05214FE74FF00A0A06214BE74FF07B
:103BF800010A072147E74FF0010A082143E74FF080
:103C0800010A09213FE74FF0010A0A213BE705496C
:103C1800AEE70949ACE70749AAE700BF082D00202D
:103C28008C1F00207C4603082021002040420F0002
:103C38000010024094460308AC46030850460308A7
:103C48002DE9F047864CDFED876A94F8D43CB4F848
:103C5800D62CB4F8D88CA4F8E88C07EE103AB8EE55
:103C6800C76AB7EE007A07EE902AF0EE475AB4F822
:103C7800D22CE6EE665A4FEA48059542A6EE267A19
:103C8800B8BF154604F6DC42F8EEE77AC2ED005AF2
:103C980067EEA67A1FFA85FA04F54E6104F6E44247
:103CA800C2ED007AA4F8EAAC07EE900A81ED007A3A
:103CB80013B96D4A82F8A430F8EE677A9FED6B0A63
:103CC8006B4E80EE270A30F021F8ADB26D00B0FBE4
:103CD800F5F5012DB8BF0125EDB2B0FBF5F39BB2A8
:103CE800074684F8EC5C00EE103ABBEEED0A86ED70
:103CF800000A30F00BF85F4BDFED5F6AB8FBF0F0BD
:103D0800A3FB0737FF0807EE907AF8EEE77A022858
:103D180086EEA77AB8BF022084F8F40C06F10C01ED
:103D280000239FED561ADFED565ADFED561A9FED28
:103D3800566A9FED562ADFED562A9FED563ADFED7B
:103D4800563A9FED564A86ED027A07EE903AB8EE5B
:103D5800E77AF0EE657AE7EE017AFDEEE76A16EEAD
:103D6800902A2032402A78D8B4EEE17AF1EE10FA9F
:103D78000CDDDFED4B6A9FED4B7AB0EE675AB4EE7F
:103D8800C75AF1EE10FA77EEE67AF6DCF4EEC67A68
:103D9800F1EE10FA0CD5DFED426A9FED437AB0EEF2
:103DA800675AB4EEC75AF1EE10FA77EEA67AF6D44F
:103DB800F4EEE57AF1EE10FA47DD74EE677A67EE15
:103DC800A76AF0EE624AE6EE824AF0EE430AE6EEB1
:103DD800A40AB7EE007A27EEE65A77EE677AB6EECF
:103DE800007AE5EE207A67EE877A0133202BE1EC42
:103DF800017AAAD107EE905AF8EEE77AF7EE006A50
:103E080086EEA77A294A2A49A4F8903702F12803AE
:103E1800C4F88827C4F88437A8321020142384F8FB
:103E2800E555C4F89427A4F88007A4F88C3707EE62
:103E380090AAF8EE677A81ED007AC1EDAC7AC1ED0F
:103E4800AD7AC1EDAE7ABDE8F087F4EEE37AF1EE33
:103E580010FA48BF76EE677AB1E7F6EE007AC4E763
:103E6800202100200AD7233C0000002000247449A8
:103E7800102E0020ABAAAAAADB0FC9413C8C4F3EEA
:103E8800DB0FC93F0100F840DB0F49C092E741B999
:103E98009730083C15A82ABEDB0FC9BFDB0F494085
:103EA800DB0FC940E4CB1641E4CB16C1B447030885
:103EB80008270020F0B5284CB4F8805DA4F8185203
:103EC80083B0EDB994F87C0D27F096FC94F87D2D1D
:103ED800C4F81C02003A18BF012284F81A2248B11B
:103EE80094F87E1D2B22002914BF11210121C280C4
:103EF80027F054FE002003B0BDE8F04021F00EBAD0
:103F080094F87C7D384627F077FC064608B3384697
:103F1800FFF79AFB0746E0B12B23C4F83462F3801D
:103F28003046397AFEF74EFB00260C4AB2FBF5F311
:103F3800C3F34F0000909BB23946019604F5087010
:103F4800A4F8825D18F0C8FBD4F820321E6084F80B
:103F5800316203B0F0BD00BF2021002040420F00B5
:103F68002DE9F84F244C94F8903D84F8843D04F6EC
:103F78008759002504F6A45419F801BF5846FFF7DD
:103F880063FB8246EEB24FF0010801350027584620
:103F9800BAF1000F2AD004F80E7C04F80D7C04F85E
:103FA8000F6C04F8108C44F804AC27F025FC18B109
:103FB8004644C67180F806809AF80810FEF702FB9E
:103FC8000E4A002150461FF0E5FC0D4B23600D4BB7
:103FD800221D21465046C4E901371FF031FC9AF8EA
:103FE8000510DAF800003A4618F0C2FA082D04F174
:103FF8001C04C1D1BDE8F88F2021002040420F00E9
:1040080089C60108C58D010870B52B4C2B4B94F857
:10401800BC6EC4F8B43E30460023C4F8743EC4F8FD
:10402800783EC4F87C3EC4F8B03EA4F8B83EFFF72A
:104038000BFB00283ED0224B0268054603F1C00066
:10404800597C11B159688A422AD018339842F7D15D
:1040580000233046C4F8A05D84F8943D27F0CCFBDB
:1040680008B10223C380297AFEF7ACFA2846154A1C
:1040780000211FF08FFC144A1449C4F8A41D00261F
:10408800111F2846124BC4F8A83DC4F8AC6D1FF0A8
:10409800D7FB697928683246BDE8704018F068BADD
:1040A800138D0C490C4A9BB20133B2FBF3F381F830
:1040B800A530CDE770BD00BF2021002000FFFF0024
:1040C800CC1E002040420F00C82E0020ED8D0108B4
:1040D8008D8F01080000002000A24A042DE9F84352
:1040E8001F4E96F8C38E86F8088206F56C6706F5AB
:1040F800037500244FF0050917F8010B18BB286059
:104108000134032C05F10405F6D16FEA0801D6F84D
:104118000C0201F0010127F0C1FE96F80812D6F84A
:10412800100281F00201C1F3400127F0B7FE96F8B2
:104138000812D6F8140281F00401BDE8F843C1F36F
:10414800800127F0ABBE27F057FB01342860E3B2AB
:1041580010B180F80690C3712868FEF76FF8D0E7B1
:10416800202100200B6810B414681B1B03605468DE
:104178004B681B1B43608B6892685DF8044B9B1A65
:1041880083607047F0B40D6800240CE0BCF1050FA3
:1041980018D8A0F137030A2B14D104EB840415F8BE
:1041A800010B03EB4404A0F13003DEB2092EA0F1A9
:1041B8006107A0F1410CF0D9052FE7D8A0F157030A
:1041C8000A2BEAD00D601460F0BC70472DE9F04767
:1041D800041E0D4612DB092C26DC824A0B46824857
:1041E800A0FB0410C00800EB8000A4EB40000021F5
:1041F800125C1A7059702846BDE8F08764422D2376
:10420800092C01F8013B24D8764A774BA3FB040319
:10421800DB0803EB8303A4EB43030020D35C487063
:104228000B702846BDE8F0876F4B632CA3FB042670
:104238004FEAD60621DC6B4A0B466B49A1FB060107
:10424800C90801EB8101A6EB4101515C03F8011B90
:10425800C5E7654A632CA2FB04364FEAD60637D871
:10426800604A614BA3FB0603DB0803EB8303A6EB61
:104278004303D35C01F8013BC7E7A3FB0627B4F56A
:104288007A7F4FEAD7070DD2564A0B465649A1FB0B
:104298000701C90801EB8101A7EB4101515C03F853
:1042A800011BCAE7A3FB072842F20F7294424FEAA8
:1042B800D80836D84B4A0B464B49A1FB0801C90818
:1042C80001EB8101A8EB4101515C03F8011BDDE71B
:1042D800A2FB0637B4F57A7F4FEAD7070CD2414ADA
:1042E800414BA3FB0703DB0803EB8303A7EB430363
:1042F800D35C01F8013BB4E7A2FB073842F20F7325
:104308009C424FEAD80821D8364A374BA3FB08030A
:10431800DB0803EB8303A8EB4303D35C01F8013B01
:10432800DEE7324AA3FB080994424FEAD90921D8AB
:104338002C4A0B462C49A1FB0901C90801EB810154
:10434800A9EB4101515C03F8011BB5E7274BA2FB20
:1043580008099C424FEAD90921D8224A224BA3FBDB
:104368000903DB0803EB8303A9EB4303D35C01F8E0
:10437800013BCAE71E4AA3FB090394424FEAD30A4A
:1043880021D80B461849174AA1FB0A01C90801EBB5
:104398008101AAEB4101515C03F8011BCAE7144BE8
:1043A800A2FB09029C424FEAD20A13D80E4B0D4ACF
:1043B800A3FB0A03DB0803EB8303AAEB4303D35CE9
:1043C80001F8013BCAE70A22BAFBF2F029F01CFA0D
:1043D8000346D7E70A22BAFBF2F029F015FA01469C
:1043E800E4E700BF3C850308CDCCCCCC9F86010018
:1043F8003F420F0007B50C46054621F0AAF92046B2
:1044080021F0A7F9002108461FF0A2F80021012099
:104418001FF09EF8284621F0AFF9A8B1012100202D
:104428001FF096F8284621F09FF901462046019191
:1044380021F09EF901990028F8D0204621F0A0F932
:10444800002108461FF084F8204621F095F900283D
:10445800E0D0012100201FF07BF8204621F084F9EC
:1044680001462846019121F083F901990028F8D0E6
:10447800284621F085F9002108461FF069F8C9E7A8
:104488002DE9F04F5FFA81F9002185B0074608460B
:1044980016461FF05DF8002101201FF059F822F0A0
:1044A800F3F9022E0AD0042E44F6C01818BF4FF4B0
:1044B8009648B9F1070F07D900200EE0B9F1FF0FB0
:1044C8004FF41648F5D10326BC4D95F8C4AEBAF1A1
:1044D800000F05D10020C5F8C80E05B0BDE8F08F63
:1044E800032EB74C0BD0A14499F80704FFF7ACF89A
:1044F8000028EFD0C4F84806C3799A07EAD4504692
:1045080084F8636EFFF7A0F8C4F84C0A0028E1D0DD
:10451800AC4AAD4BC4F8043602F1480003234FF40B
:104528008061A4F80836C4F81806002302F24C404B
:104538004FF0010A032EC4F80C86C4F83036C4F8CC
:104548001016C4F82436C4F82036C4F81C06C4F87B
:104558001416C4F82C36C4F8283684F8543EA4F847
:1045680050AEC4F85C3EA4F8603E84F8623E9146C2
:104578000ED0D4F848B69BF8040027F03DF9C4F8EB
:10458800440658460AF06EFC514648460AF07DFC3F
:10459800322020F0EDFD012E09D1D4F84C0A414615
:1045A800FCF73EFFD4F84806FFF72DF80AE0022E84
:1045B8003BD1D4F848060AF044FCD4F84C0A4146EA
:1045C800FCF72EFFC5F8C89E4FF0060A022E11D040
:1045D800D5F8C80E21F0D0F860B1012100201EF0F6
:1045E800B7FFD5F8C80E21F0C7F8014600287DD1DD
:1045F8001EF0AEFF384621F0BFF880B10121084611
:104608001EF0A6FF4FF0050B4FF00008384621F0CA
:10461800B3F80146002872D101201EF099FF042E3C
:10462800D6D0052020F0A4FDD0E7032E56D14FF0B8
:10463800000A5146654884F864AE40222FF0B3FF63
:104648008DF80FA04FF0010A9DF80F30072B09D9FC
:104658005C4801210AF019FCD4F84C0A4146FCF7E1
:10466800DFFEAFE79DF80F3003EB430304EBC30312
:1046780093F8B53E5BB39DF80F3003EB430304EBAF
:10468800C303D3F8B83E13B39DF80F30234493F80F
:104698000704E0B1FEF7D8FF8346C0B10AF0D1FBAA
:1046A8009DF80F3094F8642E03EB430304EBC30327
:1046B80005EBC201D3F8B83EC1F8CC3E9BF80730F1
:1046C8000132DB0748BF81F8D0AE84F8642E9DF82C
:1046D8000F300133DBB28DF80F30B5E7042E7FF4CD
:1046E80071AFD4F848060AF0ACFB56E7D5F8C80E07
:1046F80021F03AF80146384621F042F871E7384689
:1047080021F032F895F81A3F01468BB9242803D1D5
:104718004FF0010385F81A3F012E04D13846019164
:1047280021F02EF80199D5F8C80E21F029F86DE787
:10473800012B06D14D280CBF0223002385F81A3F10
:10474800EAE7022B06D13C280CBF0323002385F897
:104758001A3FE1E7032B10D10A2802D985F81A8FEE
:10476800DAE7042385F80D0F85F80C8F85F80F8F8D
:1047780085F80E0F85F81A3FCEE7042B09D195F876
:104788000E3F85F81B0F434085F80E3F85F81ABF8A
:10479800C2E7052BC0D195F80C3F95F80D9F95F809
:1047A8000E0F4B4514D25A1C2B44484085F80E0F67
:1047B80085F80C2F83F8101FAEE700BF20210020DA
:1047C800281000202C160020DC480308EC2F0020BD
:1047D8008842C3D195F81B3F85F81AAFF42B9BD1BB
:1047E800B9F1000F98D12421384685F81A9F20F096
:1047F800C7FF4D21384620F0C3FF3E21384620F040
:10480800BFFF4946384620F0BBFFF421384620F068
:10481800B7FFF421384620F0B3FF032E1BD0D4F89D
:104828004806437901689D080223AB40DB439BB2ED
:104838000B61CD682B40CB60007920210AF0F0FA9B
:10484800D4F848064A4649461EF0FAFFD4F84836D6
:104858001868FCF7D9FC0022D4F84C0A11461EF05F
:10486800EFFFD4F84C3A1868FCF7CEFC012034E688
:10487800114A013002EBC000F0B4D0F8C0C20F4EAC
:1048880000233360336133623363336433653366E3
:104898003367BCF1000F0DD090F8BC7257B13F01DF
:1048A80000240CEB04030FCB35191034A74285E81C
:1048B8000F00F6D1F0BC7047504603083C3000208A
:1048C800F0B5044683B018461F460D4616462DF02F
:1048D80001FE2368E67228440097A07229463246F2
:1048E8005D6920460023A84703B0F0BD70B50C4EA3
:1048F800D6F8D83093F82C206AB10A4D0024DB6929
:10490800B5EC010AE0B29847D6F8D83093F82C20D5
:1049180001349442F3DBBDE870405B6A184700BF7E
:1049280028100020BC30002010B50B4C0021D4F812
:10493800BC0F20F025FFD4F8BC0F002120F020FF89
:10494800D4F8BC0F002120F01BFFD4F8BC0F0021C5
:10495800BDE8104020F014BF202100202DE9F04FC1
:10496800CC4CDFF848938DB08246002754F80B0CE6
:10497800002800F0FE8020F0FFFE0646002800F028
:10498800D881C54BC54EDB6F44F8073CE0250023B2
:10499800A4F10B0804F8033C7D4354F80B0C20F0F9
:1049A800EBFE002800F0E58054F80B0C20F0DCFE4C
:1049B80014F8023C5A1E83460B2A0DD8DFE812F081
:1049C80020003B004700540084009C00E2001501D1
:1049D80034013F0178018F0124280DD0BAF1000F6E
:1049E80007D1AF4A1278824240F07F81012204F851
:1049F800032C0D2BD1D186E0012304F8023CCCE72F
:104A080000234D28C4F8C53084F8CD3084F8CE3062
:104A180004D0582808D004F8023CBEE7022204F863
:104A2800022C84F8C430B8E7032304F8023C0223BC
:104A380084F8C430B1E704233C2804F8023C0BD0C6
:104A4800BBF13E0F0CD0002304F8023CA5E70A2373
:104A58003C2804F8023CF3D1002304F8013C9CE70D
:104A6800012304F8013C98E7D4F8C50073190344FE
:104A7800421CC4F8C52083F8CBB894F8CD00022AAC
:104A88008BEA000184F8CD1087D12378C02BDAD8BF
:104A98006278FF2A08D1052BD5D9012384F8C430C0
:104AA800072304F8023C78E7A4F8C12000229342C7
:104AB800C4F8C93014BF0523062384F8C320C4F8FA
:104AC800C52004F8023C68E7D4F8C500731903440C
:104AD800421CC4F8C52083F8CBB894F8CD00D4F8AC
:104AE800C9308BEA00019A4284F8CD107FF455AFA3
:104AF800062304F8023C50E794F8CD308342A2D153
:104B08000D2304F8023C14F8016C002E40F0F380E9
:104B1800644B08940FCB04AD85E80F00D4F8C93076
:104B2800D4F8D100ADF82C6023440993B4F8C1300F
:104B3800ADF8283094F8C3308DF82A3001238DF869
:104B48002E302A4603AB08A9039621F0ABFE48B1E4
:104B5800049B059394F8C420534B0493294640467C
:104B680018F04EFB039D002304F8023C002D40F092
:104B7800D8800137032F04F1E0047FF4F7AE0DB0BD
:104B8800BDE8F08FD4F8C50072190244431CC4F87C
:104B9800C53082F8CBB894F8CD2094F8CE000193B4
:104BA8008BEA0202594684F8CD2028F0A5FE019B25
:104BB80084F8CE00072B7FF4F0AEB4F80530C02B94
:104BC8003FF641AFB4F80320A4F8C120A27884F8D6
:104BD800C32000229342C4F8C93014BF0823092314
:104BE800C4F8C52004F8023CD7E6014694F8CE0084
:104BF80028F082FE94F8CD3084F8CE008BEA0303C7
:104C0800D4F8C50084F8CD3073190344421CC4F8A5
:104C1800C52083F8CBB8D4F8C9309A427FF4BDAE2A
:104C2800092304F8023CB8E694F8CD30434084F8F0
:104C3800CD3094F8CE3083427FF405AF58E7D4F8EE
:104C4800C50072190244431CC4F8C53082F8CBB8B9
:104C580094F8CE000193594628F04EFE019B84F843
:104C6800CE00052B7FF499AEB4F80120B4F80330D8
:104C7800A4F8C120227884F8C32000229342C4F803
:104C8800C93014BF0B230C23C4F8C52004F8023C18
:104C980083E600BFEB2900202810002020210020F7
:104CA8002A310020E4490308747A0020FC9F002080
:104CB800014694F8CE0028F01FFE84F8CE00D4F800
:104CC800C50073190344421CC4F8C52083F8CBB847
:104CD800D4F8C9309A427FF460AE0C239BE694F86E
:104CE800CE3083427FF4AFAE0AE7232804BF022206
:104CF80004F8032C7DE6012E4FF0000502D004F8DD
:104D0800025C36E7D4F8C93008942344099308A80C
:104D1800B4F8C130CDE90A55ADF8283015F03EFC9D
:104D2800EDE754F80B0C20F014FD54F80B0CA847D1
:104D38001FE714F8033C002B3FF41BAF204A54F83C
:104D4800071CD26F521A632A7FF613AF012B2FD09C
:104D5800022B7FF40EAF1B4D54F80B3C45F8E03C9A
:104D680045E93B33402305F8DC3CA5F1E40345E97C
:104D78002633154A15F8893C05F8DB0C0121003B60
:104D880082F8F010114A45F8E42C18BF01231048A6
:104D980005F8903C27F084FB4FF400501EF0EAFA27
:104DA8000C4827F071FB05F87B6C05F87A6CE0E697
:104DB800094BC9F80030094B094ADA60D9E600BF47
:104DC800281000201832002020210020F11C0208A1
:104DD8006E85030874850308EFBEADDE00ED00E0C4
:104DE8000400FA0538B50A4C0025236803F081034E
:104DF800812B06D194F904001EF0D2F908B100689D
:104E080038BD0135062D04F10C04EED10020F7E77A
:104E1800E030002038B5041F00F1080554F8043FBD
:104E2800D81780EA43000AF0EBFBA542F6D138BD5B
:104E38002DE9F041C54CDFEDC67A14ED1E7A94F8E1
:104E480021002DED028BB8EE478A28EE278A00282C
:104E580040F0C980E26A94F8201094F83D30002AA6
:104E680019DD07EE902ADFEDBB6AF8EEE77AC3F1A9
:104E7800640386EEA77A00EE103AB8EEC00A20EE78
:104E8800070A29B920EE000ADFEDB37A20EE270AD7
:104E98002EF03CFF80B2638C6084834200F0A380D4
:104EA80014F8747CAD4EDFEDAE8A4FF00008002593
:104EB80094F840302B41DB0714D594F82030002BB0
:104EC80040F08280638C07EE103A002F00F0FE80DD
:104ED800B8EE477AC8EE877A77EE887A88EE277A2E
:104EE80086ED027A0135042D06F12406E0D194F806
:104EF8002550268D002D40F0EC80002F60D194F8CD
:104F08003C3084F8495084F84830002E58D0002DA1
:104F180056D007EE906A0123B8EE678ADFED907AE3
:104F280084F84A309D42C7EE888A2CD0022D47D19A
:104F380054F8781C8B48B0EE480A28F0A1FA94F887
:104F48004930012B08BFD4ED2E7A27D0022B37D158
:104F580054F8781C8448B0EE480A28F091FA94F87E
:104F68004930012B08BFD4ED2E7A20D0022B27D14F
:104F7800B0EE480ABDEC028B54F8781C7B48BDE8BB
:104F8800F04128F07DBAD4ED2E7A78EEA76A002396
:104F980087EEA67AC4F8BC3084ED307A78EEA76A3A
:104FA800002387EEA67AC4F8C43084ED327A77EE0F
:104FB800A88A002387EEA87AC4F8CC3084ED347A26
:104FC800BDEC028BBDE8F081638C54F8781C00EED0
:104FD800103A301DB8EE400A002F71D128F050FA6F
:104FE80014F8747C7EE714F8747C002F3FF45AAFF1
:104FF80094F82550268D002DE2D0626C94F8263066
:1050080092F883201343DBD1E26A94F83D30002AFA
:1050180068DD07EE902ADFED4F6AF8EEE77AC3F114
:10502800640386EEA77A012D00EE103AB8EEC00AA6
:1050380027EE000A62D02EF069FE80B22085002F8C
:1050480078D08642BCD00028BAD094F84930002BDA
:10505800B6D007EE900AB8EE678ADFED417A012BE9
:10506800C7EE888A51D0022BAAD154F8781C3D4843
:10507800B0EE480A28F0EEF894F84930012B08BF42
:10508800D4ED2E7A49D0022B9AD154F8781C3648A0
:10509800B0EE480A28F0DEF894F84930012B08BF32
:1050A800D4ED2E7A3FD0022B8AD1B0EE480ABDEC5F
:1050B800028B54F8781C2D48BDE8F04128F0CAB896
:1050C800301D28F0C7F814F8747C0BE7C6F8048084
:1050D800FEE6626C94F8263092F8832013437FF43E
:1050E8000CAF91E700232385002F7FF469AF94F874
:1050F8003C3084F8495084F8483061E720EE000AD3
:10510800DFED157A20EE270A95E7D4ED2E7A78EEB2
:10511800A76A87EEA67A84ED307A78EEA76A87EEDA
:10512800A67A84ED327A77EEA88A87EEA87A84ED9B
:10513800347A45E794F83C3084F8495084F848308C
:1051480000283FF43DAF0646E3E600BF18320020D2
:10515800BD37863500409C45CDCC4C3CA431002061
:1051680083F9223E6432002088320020AC320020CD
:10517800024B4FF480221A60704700BF14040140AC
:10518800704700BF704700BF704700BFFEE700BF11
:10519800FEE700BFFEE700BF704700BF30B5254CF3
:1051A800A36943F0010383B0A361FDF707FA112156
:1051B800054626F0F3FC284626F064FEC8201FF0BA
:1051C800D7FF284626F064FE636943F40033636121
:1051D8004FF4C05240F2023369464FF09040CDE997
:1051E8000023FAF7CDFF4FF09043134A596A13484A
:1051F80021F470415962596A41F460415962596A0F
:1052080021F470215962596A4FF4802541F46021D4
:105218005962122405600821012302F1D400C2F862
:10522800D44082F8D91082F8DA30FBF701F803B0DD
:1052380030BD00BF001002401832002014040140A5
:105248000023C0E90033C0E90433C0E90633C0E9EC
:105258000833836083818362704700BF8B6830B4F2
:10526800D1E904250C6A23431343D1E906242B43CF
:1052780013434D6A026823438C6A2B4322F4FF428E
:10528800234322F070021343D1E900428D89036061
:105298004560846030BCC260704700BF02683B490B
:1052A8004FF6FE731A4088424FF000030260036015
:1052B80043608360C36027D0354B98421ED0354B7E
:1052C80098422DD0344B984230D0344B984221D05C
:1052D800334B984230D0334B984239D0324B9842B6
:1052E8003CD0324B98422DD0314B98423CD0314B78
:1052F80098423FD0304B984242D070472F4A53686B
:1053080043F0F003536070472C4A536843F00F038F
:1053180053607047294A536843F4702353607047B9
:10532800264A536843F4706353607047234A5368AE
:1053380043F4704353607047204A536843F4700342
:10534800536070471E4A536843F0F0035360704738
:105358001A4A536843F0706353607047184A536899
:1053680043F00F0353607047154A536843F4706362
:1053780053607047124A536843F470435360704750
:105388000F4A536843F470235360B6E7080002409D
:105398001C00024030000240440002405800024015
:1053A8006C00024080000240080402401C040240D5
:1053B8003004024044040240580402400000024005
:1053C800000402402DE9F04FB94B93F8F010002289
:1053D800C3E93822C3E93A2291B0C3F8DC2019B1F5
:1053E80093F8F12083F8DC2093F8F2201AB193F8AF
:1053F800F32083F8EB2093F8F6201AB193F8F720FE
:1054080083F8E62093F8F4201AB193F8F52083F88E
:10541800E12093F8F830013B4FFA83F9B9F1FF3FE7
:10542800DBB2019300F01481A24AA34D09EB4901B4
:1054380002EB810352F821401A799B6803930023F9
:105448000292AB461F469A461E469BF80080494684
:10545800404626F0D7FF034640469846FBB126F063
:10546800CBF9F31D1321DBB220B14FF0000C83718F
:1054780080F807C026F092FB9BF8000026F0E0FFBA
:105488007B1C8BF80270DFB24FF007038BF80430F7
:105498004FF001038BF80100C2468BF80330013648
:1054A800042E0BF1050BD0D15346002B00F0D08011
:1054B800019B012B40F2CF80804AD36A23F47853B2
:1054C800D362D36A43F0805343F45853D3620298AB
:1054D800FCF796FEDDF80C8040462CF09BFD002280
:1054E80006212CF033FE4046FFF7D8FE05A8FFF74B
:1054F800A7FE012F8CBF8023002304F14000704ACF
:105508000A93059000234FF4806005A9069207933B
:10551800202209930F930C904FF4005340464FF408
:105528008076CDE90D23ADF820700B96FFF796FE37
:10553800D8F8003043F00103C8F80030A36823F01E
:105548004053A360A36843F08053A3600A201FF070
:105558000FFEA36823F08043A360A368A360A36839
:1055680043F00043A360A368002BFCDBA36823F08F
:105578004053A360A368B4F1A04F43F00053A36065
:1055880000F0A8804F4B9C4200F0A4804E4A4F4B3D
:1055980091680B4043F468339360E2684C4B1340C6
:1055A80043F40053E360236B013F23F00F031F43D1
:1055B800414B276303F114084FF0380C01230727E8
:1055C8004FF0060E1F26EA7842B3581C042B95F8B4
:1055D80001A02979C0B25BD803EB4303226B4FEAE1
:1055E800430906FA09F322EA03020AFA09F949EA21
:1055F80002022263BAF1090F37D9AAF10A02A36994
:10560800A36902EB420207FA02F923EA0903A3613C
:10561800A36901FA02F21A43A2610346053545451A
:10562800D1D1A36843F00103A3602368DB07FCD54D
:10563800E36823F00203E360E36843F00203E360F6
:10564800E36843F00103E360A36843F00403A36045
:1056580011B0BDE8F08F194BDA6A22F4F872DA62F9
:10566800DA6A42F4D872DA6231E70AF1FF33626922
:10567800626903EB43030CFA03F922EA0902626147
:105688006269033301FA03F31A4362610346C5E70B
:10569800092B28D8053B626B0EFB03F306FA03F9C6
:1056A80022EA09020AFA03F313436363A2E700BF7D
:1056B80018320020F4490308F43200200010024098
:1056C8001C3300200001005000070050E010FCFFD0
:1056D80007C0FFFD124A134B92681340104A43F467
:1056E8006833936059E70E2B0CD80A3BA26B0EFB6C
:1056F80003F306FA03F922EA09020AFA03F3134349
:10570800A36377E70F3BE26B0EFB03F306FA03F99B
:1057180022EA09020AFA03F31343E3636AE700BFC4
:1057280000030050E010FCFF2DE9F04F2DED028B37
:10573800DFF848B3DFF848839BB00D460446C02223
:105748000BF6A460002101952EF02DFF98F840314A
:105758006BB198F84131F3B99BF80424003A20461C
:1057680018BF01222946FBF779FECBF8D800DBF8F1
:10577800D830002B00F0EF800022019883F82C002D
:10578800012183F82D101A6383F82E201BB0BDEC7D
:10579800028BBDE8F08FAC4D9BF802640FCD08F585
:1057A80086740FC40FCD0FC495E80700072E84E850
:1057B800070040F2BB80082E02D1A44BC8F8443140
:1057C800DFF8C0A29FEDA28A0AF55B6303930AF291
:1057D8001333049300230293DDE90132934240F32B
:1057E800CB81049B13F8015B04939DF80830059363
:1057F8000133DEB228460696FDF726FF0446002848
:1058080000F0BC80284625F0F7FF039B586110B1D3
:105818000323C67183719BF80334E6790BB186F0D4
:10582800010698F84831E768002B40F0A380002F64
:1058380000F0A48098F849919BF8023425680893F1
:10584800B9F1000F00F01B82824A002303E0013304
:105858004B4500F0148211688D4202F11802F6D10E
:105868005FFA83F97B4ACAF8084009EB490302EB5F
:10587800C303CAF84830059A98F849318AF81120C4
:10588800013B2079059325F0B7FF06F001010131AE
:10589800490141F00E01CAF81410227A25F0D2FF0E
:1058A800059B994500F0668216F00203079300F005
:1058B800F0810023F600CDE909330B9306F00802C6
:1058C80004230C920D9398F84831002B00F00782BE
:1058D8003B68DAF848204FF6FE710B4097603B6052
:1058E8000FAB1E46384608EE903AFFF7D7FC304615
:1058F800FFF7A6FC22685849B1EB922F4FEA922392
:10590800C0F09F80554A934240F2AA81A3F58013C4
:105918004B3B072B00F29580DFE813F091009300D2
:105928009002930093008E0293003800042E7FF6B5
:1059380047AF9BF805344A4AC8F84421012B07D0E1
:10594800022B03BF9BF80634B3FA83F35B090023E9
:1059580088F8483134E7434D434C0FCD0FC40FCD81
:105968000FC495E80700A4F1200384E80700CBF8EA
:10597800D8300BE72769002F7FF45CAF3B4B3C4ADC
:10598800C8F83031C8F828210023F6E00623394A40
:10599800134493F91C24207DD2B239212CF0D6FB74
:1059A800089B3548DAF848102268082B4FF49073A2
:1059B80003FB09030CBF062612260B61ADF84860ED
:1059C80080214FF400764C32CDE914161020109344
:1059D8000F9200234FF4006C4FF400521190139370
:1059E8001793CDF858C01892DAF8083098F848217B
:1059F8001E68CAF84470002A00F06F811A6906927E
:105A080006980893FFF74AFC089B0022597930460C
:105A18001DF028FE089B93F805E0BEF10C0F68D82E
:105A2800DFE81EF03200670067006700F7006700D4
:105A380067006700D200670067006700AE000023B8
:105A4800A5E70022A7E700BF184A03087D9E0208C1
:105A58007B14C04164330020520010004A0010003B
:105A6800AD9E0208744A0308643F00204D1D0208D9
:105A7800551D0208504603086436002028100020EF
:105A8800183200201C110020336A099923F0010301
:105A980033628C460A99336A7268B0694CEA010C21
:105AA800AF4920F4803023F0020320F073008E42C7
:105AB8004CEA030340F0600000F0D081DFF8B0C288
:105AC800664500F0CB810CF5406C664500F0C68158
