:020000040800F2
:10000000F0FF0010F1CF050871E300080DA104080E
:1000100091D0050891D0050891D005080000000096
:100020000000000000000000000000006DE3000878
:1000300069E300080000000065E300089562040819
:1000400091D0050891D0050891D0050891D00508F8
:1000500091D0050891D00508B5B70408E1B80408A7
:10006000A5B8040869B804082DB80408E5B5050862
:10007000D5B50508C5B50508B5B50508A1B5050888
:100080008DB5050879B5050891D0050891D005080A
:1000900091D0050891D0050891D00508F1B7040862
:1000A0007D520408FD5204086D52040821530408CF
:1000B000F1520408E1520408D152040835BF050882
:1000C0003DBF050829BF050831BF050891D00508C7
:1000D00091D00508E96504082D65040871640408D9
:1000E00079B7040891D00508590A01085D5204083F
:1000F0008D5204084D520408B152040865B5050834
:1001000091D0050891D00508C152040891D0050886
:10011000B5630408F9620408D1D60308BDD6030804
:1001200051B505083DB5050829B5050815B50508FB
:1001300001B5050891D0050891D0050891D00508B2
:1001400091D0050891D0050891D0050805DD00087B
:10015000EDB40508D9B40508C5B4050891D0050863
:100160001DBF050825BF050891D0050891D00508D9
:1001700091D0050891D0050891D0050891D00508C7
:0801800091D0050891D005089B
:08018800A0CB050001000000FE
:100190000E020100020000002C59002030590020FE
:1001A00000000000400900080510010006000000E2
:1001B000B85800203459002000000000420900080F
:1001C00013020100040000003C2300203C590020E1
:1001D00000000000480900080D1001004C0000005C
:1001E000E45700204059002000000000F5FD0308FE
:1001F0000400080080000000245700208C590020D3
:1002000000000000000000000902010001000000E1
:10021000CC5600200C5A0020000000004C090008B9
:10022000FD0101001E00000088560020105A002029
:10023000000000007F380408FB01010001000000FD
:1002400044560020305A002000000000D55D05080B
:10025000FC0101000900000010550020345A002064
:1002600000000000E55D0508F70101000600000040
:1002700004550020405A0020000000004E090008EC
:10028000F90101000400000000550020485A002038
:1002900000000000253904080A8001002800000041
:1002A000D85400204C5A002000000000FD0C020829
:1002B000160215003F0000007C270020745A002021
:1002C000000000001D5D0508340001001000000062
:1002D00004540020B45A0020000000008D9702084A
:1002E0001102010008000000DC530020C45A002065
:1002F0000000000054090008121201000400000070
:10030000D4530020CC5A0020000000005C090008F3
:100310001820010032000000A0530020D05A002015
:10032000000000006D5E0508FF11010006000000DE
:1003300064530020045B002000000000914F05087A
:10034000081203000F000000705300200C5B002017
:1003500000000000F94F0508061001001C00000015
:10036000602700201C5B002000000000015E0508E3
:100370001220010011000000B04C0020385B00206A
:100380000000000060090008000201000B000000EE
:10039000EC4900204C5B002000000000BD4F050828
:1003A000020201000300000058270020585B0020D3
:1003B00000000000000000000C020100040000002A
:1003C000382700205C5B002000000000E14F05089A
:1003D000110001000C000000423E0020605B002084
:1003E0000000000091DD0308FE0101001400000080
:1003F000483D00206C5B002000000000614F0508B4
:100400002312010010000000608E002008930020DD
:100410000000000074090008371001002E000000E1
:10042000B09200201893002000000000840900080A
:100430001610010006000000588E0020489300208E
:1004400000000000B20900082F1001002200000087
:10045000E49200205093002000000000B80900083A
:100460001E000100090000008C8C00207493002005
:1004700000000000DA090008F581010068000000B2
:10048000E48B00208093002000000000C7160108C4
:1004900023200100100000003C8F0020E893002082
:1004A00000000000110E0208FD07010076000000A8
:1004B000228B0020F8930020000000009D16010808
:1004C000261001000E00000080940020709400208F
:1004D00000000000011501080B3001001A000000A7
:1004E000088B0020C094002000000000E4090008F0
:1004F0001F30010024000000288D0020DC94002023
:1005000000000000000A00080502010004000000CD
:10051000088F00200095002000000000240A000839
:10052000030101000A000000A48C002004950020B3
:1005300000000000F51001080EF003009E0100000D
:1005400050A70020ACB00020000000006993020812
:10055000130001000400000080B000204CB2002015
:1005600000000000280A000801010100040000004A
:1005700090A6002050B20020000000000000000003
:10058000000101000400000088A6002054B20020F1
:10059000000000002C0A0008020101000300000016
:1005A00084A6002058B200200000000099440308EF
:1005B000220201001C01000024AE00205CB20020D9
:1005C000000000008D5D05080C200600CC00000036
:1005D00014A9002078B30020000000005D44030847
:1005E000010201000B0000009CA6002044B4002082
:1005F00000000000AD4F05081B02010010000000C4
:10060000C4AC002050B40020000000006150050878
:100610001B1001000C0000009496002060B4002024
:10062000000000000DA6010821020100F0000000FA
:10063000189500206CB4002000000000F5A401080B
:100640002C00040010000000F0C10020E0C10020D8
:1006500000000000C11F02082B001200240000004F
:1006600024C2002000C2002000000000951F0208E4
:10067000292014007800000068C0002048C2002033
:100680000000000000000000F62101000C00000046
:1006900094BE0020C0C2002000000000300A000804
:1006A0001C0202001C00000038BE002010C3002005
:1006B00000000000855F05082820010018000000E8
:1006C00054BE00202CC300200000000009260208B0
:1006D000140001000400000020BE002044C30020DC
:1006E000000000003C0A0008012001000C0000008E
:1006F0008CB5002048C3002000000000400A00081C
:10070000190001000500000094C80020B0C90020B5
:10071000000000004C0A00081A0001000E00000052
:100720001CC80020B8C9002000000000520A0008C0
:10073000203201000A000000E8C60020C8C90020DD
:100740000000000045930208150010007000000032
:1007500080C40020D4C90020000000000000000078
:100760002A00080060000000DCC8002044CA002005
:10077000000000001D9302080A020100140000009E
:10078000D4CD00200CD10020000000001147030848
:100790000300010001000000A0CD002020D10020B6
:1007A0000000000000000000031201003D000000F6
:1007B000B4D0002024D1002000000000600A00080E
:1007C00025201E002C0100001CCE002064D100203A
:1007D00000000000000000001010010002000000F6
:1007E0004CCD002090D20020000000009E0A00089E
:1007F000F82101000600000080CD002094D20020E6
:1008000000000000A00A0008020001000C00000027
:1008100058D30020ECD300200000000000000000AE
:100820002902010040000000B8D20020F8D30020C7
:1008300000000000A60A00082802040004000000CE
:1008400080D800205CDA0020000000005D50050820
:1008500027020400040000007CD8002060DA002099
:1008600000000000515005081F02080010000000A1
:10087000C0D5002064DA0020000000000D4F0508FC
:100880001A0201003C00000084D5002074DA002028
:1008900000000000E15E05083810010001000000C2
:1008A00078D40020B0DA002000000000E60A00083A
:1008B000270001000400000038DB00203CDB0020A2
:1008C00000000000E80A000810020100010000001A
:1008D000FCF30020F8F3002000000000EC0A000800
:1008E0000702010002000000E0F3002000F40020F5
:1008F00000000000EE0A00081D02020006000000D1
:10090000ACF3002004F40020000000000000000010
:10091000060203000C000000B4F300208CFB002052
:10092000000000006D5F05083900010005000000AF
:10093000C0F3002098FB002000000000C54F050810
:1009400000002000020100000000010013003F0130
:10095000000000000000000001010101FFFFFFFF97
:10096000000000010000055350344E000008000252
:100970000000000000000000000000000000000077
:100980000000000020003200C800D00796001400CC
:10099000320028004C0440060005500014000F00EF
:1009A000080064000100010005000A000000F401D5
:1009B0009600C409000019000000000000000000BB
:1009C0000000000000000000000000000000000027
:1009D0000000000000000000000000050100000011
:1009E00000000000AE014A015E012C01640101001B
:1009F000000001000A019A01001E0A000002000026
:100A000000000000000100000005000001020300DA
:100A100000000000000000000000000000000000D6
:100A20000080070000000000088461302C010000F5
:100A3000000000000100000002020000030000238B
:100A4000E8036400040A000114001E0000002801ED
:100A500000007E05EA05B4053200E803D007000077
:100A60000000000000000000000000000000000086
:100A70000000000000000000000000000000000076
:100A80000000000000000000000000000000000066
:100A90000000000000000000000000000100000550
:100AA0000101F4011400000000000000000000003B
:100AB0000000000000000000000000000000000036
:100AC0000000000000000000000000000000000026
:100AD0000000000000000000000000000000000016
:100AE0000000000000000000200300000000013CA6
:100AF0000403090412010002EF020140830456328C
:100B00000002010203010000120100020202004083
:100B10008304405700020102030100001A03000091
:100B200000000000000000000000000000000000C5
:100B3000000000000000000004030904120100028C
:100B4000000000408304205700020102030100005E
:100B500009022000010104C0320904000002080655
:100B60005005070581024000000705010240000012
:100B700009026400030100C03209040000010300FF
:100B80000000092111010001223600070583030935
:100B9000000A080B0102020201000904010001021F
:100BA00002010005240010010524010002042402B2
:100BB000020524060102070582030800FF0904025A
:100BC00000020A000000070501024000000705813D
:100BD0000240000009024300020100C03209040083
:100BE000000102020100052400100105240100019A
:100BF000042402020524060001070582030800FF01
:100C000009040100020A000000070501024000007B
:100C10000705810240000000FF00000008000000FE
:100C20000060024010600240000000000000000070
:100C3000000B0000000000000000000000000000A9
:100C40000060024028600240010000000000000037
:100C5000060C000000000000000000000000000082
:100C600000600240406002400200000000000000FE
:100C7000100D000000000000000000000000000057
:100C800000600240586002400300000000000000C5
:100C9000160E000000000000000000000000000030
:100CA000006002407060024004000000000000008C
:100CB000200F000000000000000000000000000005
:100CC0000060024088600240050000000000000053
:100CD00026100000000000000000000000000000DE
:100CE00000600240A060024006000000000000001A
:100CF00030110000000000000000000000000000B3
:100D000000600240B86002400700000000000000E0
:100D1000362F00000000000000000000000000006E
:100D20000064024010640240000000000000000067
:100D3000003800000000000000000000000000007B
:100D4000006402402864024001000000000000002E
:100D50000639000000000000000000000000000054
:100D600000640240406402400200000000000000F5
:100D7000103A000000000000000000000000000029
:100D800000640240586402400300000000000000BC
:100D9000163B000000000000000000000000000002
:100DA0000064024070640240040000000000000083
:100DB000203C0000000000000000000000000000D7
:100DC000006402408864024005000000000000004A
:100DD00026440000000000000000000000000000A9
:100DE00000640240A0640240060000000000000011
:100DF000304500000000000000000000000000007E
:100E000000640240B86402400700000000000000D7
:100E10003646000000000000000000000000000056
:100E20007D00000001820008FD810008F9810008B2
:100E3000ED810008E9810008F5810008F1810008D2
:100E400021A50008758D00083D860008D501010820
:100E500051020108ED030108ED830008B183000889
:100E6000A9830008010000000000803F050109057A
:100E7000A101A10005010930093109320933093501
:100E80000934093609371581257F750895088102CF
:100E90000509190129081500250195087501810228
:100EA000C0C0000009022200010100E03209040074
:100EB000000103010200092111010001223600078F
:100EC00005830309000A000021450108254A01089D
:100ED0009D450108F90B010865440108090C01084A
:100EE000250C0108D10B0108C10B0108000000000E
:100EF000000000003D010108410001082D0101082A
:100F00003D820008D90001088100010839820008EB
:100F1000F40500207D9900085D99000829DA000891
:100F20000000000000000000FD970008199700086D
:100F300000000000000000000000000039840008EC
:100F4000C5820008B982000819990008359900087F
:100F500071820008FD980008E198000800800202F4
:100F60001F00000053544D202020202050726F6439
:100F7000757420202020202020202020302E303189
:100F800000FF0000000000000000AA55070100005B
:100F90000101AA55050100007EFF0000FFFFFFFFD1
:100FA000080000003C190608FF1FFF1F000000009A
:100FB0000102030401020304060708092D202D2D58
:100FC000202D2D2D2D202D2D2D2D00000000000079
:100FD0000000000000000000000000AA550B010006
:100FE00000AA5505010000AA550902000000AA55F3
:100FF00003009F0001000000C0120000B894002010
:101000000000000090940020000000008890060876
:10101000049006080000000099D90308A08601008A
:1010200004000000000000000000000000000000BC
:1010300000000000000000000000000000000000B0
:10104000000000000000000000000000889006087A
:10105000909006080000000075480408E8030000AE
:10106000040000000000000000000000000000007C
:101070000000000000000000000000000000000070
:10108000000000000000000000000000989006082A
:1010900000000000000000006D4503087D00000016
:1010A000FF00000000000000000000000000000041
:1010B0000000000000000000000000000000000030
:1010C000000000000000000000000000680B07089E
:1010D0000000000000000000855803087D000000AB
:1010E000FF00000000000000000000000000000001
:1010F00000000000000000000000000000000000F0
:10110000000000000000000000000000ECA0060845
:101110000000000000000000AD7303087D00000027
:10112000FF000000000000000000000000000000C0
:1011300000000000000000000000000000000000AF
:10114000000000000000000000000000A090060861
:101150000000000000000000D93E0408E803000081
:10116000030000000000000000000000000000007C
:10117000000000000000000000000000000000006F
:10118000000000000000000000000000A49006081D
:1011900000000000000000002D03030810270000DD
:1011A000030000000000000000000000000000003C
:1011B000000000000000000000000000000000002F
:1011C0000000000000000000000000007C0707088D
:1011D00000000000A91B0208C1A104085F760000FE
:1011E00005000000000000000000000000000000FA
:1011F00000000000000000000000000000000000EF
:101200000000000000000000000000000C0B0708B8
:10121000000000000000000039C104081027000091
:1012200001000000000000000000000000000000BD
:1012300000000000000000000000000000000000AE
:10124000000000000000000000000000B090060850
:10125000000000000000000051350408E803000011
:101260000500000000000000000000000000000079
:10127000000000000000000000000000000000006E
:10128000000000000000000000000000BC90060804
:10129000000000000000000065490308204E000027
:1012A000030000000000000000000000000000003B
:1012B000000000000000000000000000000000002E
:1012C000000000000000000000000000CC900608B4
:1012D00000000000000000004D470308204E000001
:1012E00003000000000000000000000000000000FB
:1012F00000000000000000000000000000000000EE
:10130000000000000000000000000000DC90060863
:101310000000000000000000ED440408400D030040
:1013200003000000000000000000000000000000BA
:1013300000000000000000000000000000000000AD
:10134000000000000000000000000000EC90060813
:101350000000000000000000BD010408102700008C
:10136000010000000000000000000000000000007C
:10137000000000000000000000000000000000006D
:10138000000000000000000000000000309006088F
:10139000000000000000000055B201081027000006
:1013A000030000000000000000000000000000003A
:1013B000000000000000000000000000000000002D
:1013C000000000000000000000000000F49006088B
:1013D0000000000000000000D9620208A0860100A1
:1013E00001000000000000000000000000000000FC
:1013F00000000000000000000000000000000000ED
:10140000000000000000000000000000FC90060842
:101410000000000000000000613D040850C300000F
:1014200001000000000000000000000000000000BB
:1014300000000000000000000000000000000000AC
:1014400000000000000000000000000004910608F9
:10145000000000000000000049390408A8610000F5
:10146000010000000000000000000000000000007B
:10147000000000000000000000000000000000006C
:1014800000000000000000000000000010910608AD
:10149000000000000000000031050208A0860100E5
:1014A000010000000000000000000000000000003B
:1014B000000000000000000000000000000000002C
:1014C0000000000000000000000000001C91060861
:1014D0000000000000000000916A0408A00F000056
:1014E00001000000000000000000000000000000FB
:1014F00000000000000000000000000000000000EC
:101500000000000000000000000000002891060814
:1015100000000000000000009DFF010810270000EF
:1015200001000000000000000000000000000000BA
:1015300000000000000000000000000000000000AB
:1015400000000000000000000000000034910608C8
:101550000000000000000000D1D90308A00F000027
:10156000010000000000000000000000000000007A
:10157000000000000000000000000000000000006B
:10158000000000000000000000000000409106087C
:101590000000000000000000FD8601081A41000064
:1015A000010000000000000000000000000000003A
:1015B000000000000000000000000000000000002B
:1015C0000000000000000000000000004491060838
:1015D00000000000000000002D110108102700008D
:1015E00001000000000000000000000000000000FA
:1015F00000000000000000000000000000000000EB
:101600000000000000000000000000001890060824
:1016100000000000000000000D45020850C300005B
:1016200001000000000000000000000000000000B9
:1016300000000000000000000000000000000000AA
:1016400000000000000000000000000050910608AB
:10165000000000000000000031230108400D0300DD
:10166000000000000000000000000000000000007A
:10167000000000000000000000000000000000006A
:101680000000000000000000000000005891060863
:10169000000000000000000071DA0308400D0300A4
:1016A000000000000000000000000000000000003A
:1016B000000000000000000000000000000000002A
:1016C000000000000000000000000000609106081B
:1016D00000000000000000006DE6010850C300009B
:1016E00003000000000000000000000000000000F7
:1016F00000000000000000000000000000000000EA
:101700000000000000000000000000006C910608CE
:10171000000000000000000021DF030840420F002D
:1017200000000000000000000000000000000000B9
:1017300000000000000000000000000000000000A9
:101740000000000000000000000000007891060882
:101750000000000000000000B5DD030850C30000D9
:101760000000000000000000000000000000000079
:101770000000000000000000000000000000000069
:1017800000000000000000000000000001007F00D9
:1017900000000100E00101FF01000000699D010857
:1017A0000000000000000000481B060800000000C8
:1017B0000000000000000000AC210608000000004E
:1017C000000000000000000058210608080000008A
:1017D0000000000000000000FDCC010833AD002037
:1017E0000101FF00FFFFFFFF69F50108EDF60108A9
:1017F0000000000028230608B5F4010800000000DE
:10180000000000008C220608CDF80108000000004E
:1018100000000000442206082D202D2D202D2D2D06
:101820002D202D2D2D0000000000000000000000E4
:1018300000000000000000000000000000000000A8
:1018400000000000F4210608B48E00209CFF2C014B
:1018500000000000D4AF0020E0150C1700000000CD
:1018600031AD0020020000002C22060879A60020DD
:10187000020000003822060874A6002088136F17A3
:101880000100000076A6002088136F1700000000FA
:101890009A58002000000000000000009858002026
:1018A000000000000000000096580020000000002A
:1018B000000000009458002000000000000000001C
:1018C0009258002000000000000000009058002006
:1018D0000000000000000000900600200000000052
:1018E00000000000FDA50020030000008C23060876
:1018F0006CA6002088136F1701000000FE8E0020E8
:1019000088136F1700000000299E010800000000E6
:10191000000000009C23060832AD002001000000FA
:10192000F0230608008F002001000000FC230608B9
:10193000F68E0020020000000424060800000000CB
:10194000000000000000000010240608119E01089D
:101950000000000000000000AC24060800000000A9
:101960000000000000000000002506080000000044
:1019700000000000000000007025060878A6002086
:1019800002000000A8250608FA8E0020E0150C17BA
:101990000000000034B7002088B7002001000000DC
:1019A000000000000000000000000000683B060886
:1019B000D601FF00FFFFFFFFF5DC0108000000007B
:1019C00000000000F83A060801000000FA000000DC
:1019D0000100000001000000010000000001010101
:1019E0000000000086B500200000F40101000000A6
:1019F00084B500200000F4010100000082B5002041
:101A00000000F4010100000080B500200000F40196
:101A1000010000007EB500200000F401010000007C
:101A20007CB500200000F401010000007AB5002020
:101A30000000F40101000000690B02083D0B0208E0
:101A400000000000BC2706086AB50020053201002E
:101A500078B500206400F4010100000076B5002094
:101A60006400C4090100000068B50020E803D00745
:101A70000100000066B50020E803D0070100000067
:101A800064B50020E803D0070100000062B5002023
:101A90001E00B80B0100000070B5002005000F000B
:101AA0000100000072B5002003000A0001000000E0
:101AB00060B500201E00F4010100000074B5002094
:101AC00002000000482806085EB5002014006400EB
:101AD000010000006CB500203200E80301000000A6
:101AE0005CB500200000C8000100000011A9002022
:101AF00000C8010010A90020005001000FA900201B
:101B0000005A01000DA90020020000005428060818
:101B10004C98060854980608565800200100C4093D
:101B200000000000545800200100C409000000001B
:101B3000525800200100C409000000005058002045
:101B40000100C409000000004C5800200100C40935
:101B5000000000004E5800200100C40900000000F1
:101B60004A5800200100C409000000004858002025
:101B70000100C40900000000BBA6002000C801004D
:101B8000BAA6002000C80100B8A600200000FFFF90
:101B90000A000000B6A600200100C80001000000F5
:101BA000B4A600203200307532000000B2A600203A
:101BB00005820500B0A6002005002C0105000000EC
:101BC000AFA60020055A0500ACA6002000FF0100CA
:101BD000AEA6002002000000A8110020AAA6002046
:101BE000030000000C160608ABA6002000FF010051
:101BF000ADA6002002000000A8110020A9A6002028
:101C0000030000000C160608ED0A02089D0A0208EF
:101C100000000000602806089CB50020EE02CA08FB
:101C2000010000009AB5002000C801006400000017
:101C300099B5002000C801006400000098B500209C
:101C4000020000006C29060896A600200000803ED5
:101C50000500000094A6002080C1803E0500000021
:101C60008EA600200083007D050000008CA60020C9
:101C700080C1803E0500000087A6002000FF010013
:101C800080A600206400F401010000007EA6002070
:101C900004000000782906087DA60020020000004C
:101CA0008C29060841A700200D000000982906088D
:101CB0003EA70020006401003CA70020320010274E
:101CC0000A0000003AA700200D000000982906082D
:101CD00039A700200D0000009829060838A7002029
:101CE00002000000D0290608A2B500203E00000036
:101CF000DC290608A0B500200100FF7F01000000DC
:101D00009FB5002002000000D82A060843A7002043
:101D100003000000E82A060842A700200300000094
:101D2000E82A0608FEA80020000A0100FCA80020FE
:101D30000000E80301000000FAA800200000E8030A
:101D400001000000F8A800200000E80301000000E6
:101D5000F6A800200000E80301000000EEA8002023
:101D60000000E80301000000F4A800200000E803E0
:101D700001000000F2A800200000E80301000000BC
:101D8000F0A80020001401000CA9002002000000AF
:101D9000F82A06080AA900200000F401010000004A
:101DA00008A900200000F4010100000006A900209D
:101DB0000000F4010100000004A900200000F4016B
:101DC0000100000002A900200000A00F0100000097
:101DD00000A900200000A00F01000000F3A90020CE
:101DE00019640100F2A9002002000000042B06087B
:101DF000F0A90020E803D0070A000000EEA90020A7
:101E0000006401000A000000E3A900200064010052
:101E1000E2A9002000640100EAA90020006401009A
:101E20000A000000E9A90020006401000A00000087
:101E3000E8A90020006401000A000000EDA90020CC
:101E400000FF01000A000000ECA9002000FF0100D3
:101E50000A000000EBA9002000FF01000A000000BA
:101E6000E7A9002001FF01000A000000E6A9002008
:101E700001FF01000A000000E5A9002001FF0100A8
:101E80000A0000004CA700200000F401010000003F
:101E90004AA700200000A00F0100000048A7002072
:101EA0000000A00F0100000046A700200000A00FC6
:101EB0000100000044A700200000A00F0100000066
:101EC0007BAD002000C801007AAD00200064010055
:101ED00079AD00200064010078AD002000640100AD
:101EE00077AD00200064010076AD0020FF080100FE
:101EF00075AD00200164010019A40108DDA30108EB
:101F000000000000102B06087EAD00200132010009
:101F10007DAD002001000000802B06087CAD002074
:101F200004000000882B060874AD00200064010046
:101F300072AD00201400E8030100000070AD002025
:101F4000E80330750A0000006FAD002000C80100F2
:101F50006EAD002000C801006DAD002000C801007A
:101F60006CAD00200032010080AD0020004B01006C
:101F70007FAD0020040000009C2B06086BAD002004
:101F8000006401000A0000008EAD00200000D007B0
:101F90000100000089AD002000C8010088AD0020CC
:101FA00000C8010087AD002000C801008CAD0020F2
:101FB0000000D0070100000086AD002000C801002D
:101FC00085AD002000C8010084AD002000C80100DC
:101FD0008AAD00200000D0070100000083AD002082
:101FE00000C8010082AD002000C8010081AD0020C2
:101FF00000C80100C1A10108A9A10108000000005A
:10200000B02B060835A70020005A010034A7002095
:1020100000C8010032A70020E803D007010000003B
:102020000000000000000000E92102084C2C060816
:102030005350524143494E4746344E454F000000ED
:10204000A8A6002000030100A7A6002000030100AD
:10205000E5A0010899A0010800000000A02C0608D6
:1020600059A0010811A00108000000003C2D06083D
:1020700031A10108D9DC010800000000BC2D0608D0
:1020800098A60020010301002D0C0208050C02088F
:102090000000000014310608959F0108499F0108BF
:1020A0000000000084310608D1A10108550402088F
:1020B0000000000020320608B9220208550C020870
:1020C00000000000C832060831A20108000000002C
:1020D00000000000483306080DA30108B5A201085E
:1020E00000000000AC330608A1A3010865A30108A5
:1020F0000000000054340608FD09020855A4010838
:1021000000000000E034060805AA002001060100D6
:1021100079A2010845A2010800000000DC3506088C
:102120003109020875DE0108000000004C3606087F
:10213000450A02083DDF0108000000009C37060840
:1021400004AA00200103010079A1010849A10108A6
:102150000000000070380608598D020800000000D9
:1021600000000000D4380608E19F0108C1DC010826
:1021700000000000543906080000000000000000C4
:1021800000000000E039060889A40108B5DF010855
:1021900000000000503A0608FFFFFFFF0000803FEC
:1021A000000000000000000000000000000000002F
:1021B000000000000000000000000000000000001F
:1021C000000000000000803F000000000000000050
:1021D000000000000000803F000000000000000040
:1021E000000000000000803F000000000000000030
:1021F00000000000010000000000FA430000FA4364
:102200000000803FCD030408000000000000000033
:1022100000000000FFFFFFFFFF00000000000000C3
:1022200048D40020080000000000000038D400203E
:1022300008000000F1990008D9990008C1DC0008E5
:1022400000000000898400083590000851980008BB
:10225000A98F00080000000000000000458400086D
:102260001182000805820008A9980008C598000896
:102270008D98000871980008559800081D440108C1
:10228000214301080DDC0008000000005D84000807
:10229000AD8F000825980008058F00080000000099
:1022A0000000000051840008685E0C00020100007C
:1022B000A00F0000B80B00000102FFFF01000000AA
:1022C000FFFF000070070708000008020503030075
:1022D0000000000078070708010008020504030059
:1022E000000000001CB406080200FE0101100300FB
:1022F000000000009C9B060803001402000300007D
:10230000000000008007070804001F020200080008
:10231000000000008807070805001F0202010800EE
:1023200000000000FFFFFFFF0000040100000000AC
:102330000000000210000000070000000200000082
:10234000020000000400000020000000FF01000067
:10235000F4010000FF000000DC880608081A0020D5
:102360000000000000000000010203040607080945
:10237000F3100108EF100108E7100108DD0E010855
:10238000D1210108FD2101085D210108DD100108AE
:10239000CD100108BD100108AD100108D50E0108CF
:1023A00001000000401A00200000000000000000B2
:1023B000000000000000000000000000000000001D
:1023C000000000000000000000000000000000000D
:1023D00000000000000000000000000000000000FD
:1023E00000000000000000000000000000000000ED
:1023F00000000000000000000000000000000000DD
:082400000000000000000000D4
:082800000000000000000000D0
:1080000070B4C3080D4CE25C00F00706B24004EB0C
:10801000D004D2B20020C6F108038B4228BF0B4621
:10802000C3F108052A419840C91A40EA02004FF0FE
:10803000000614F8012FEED170BC7047E01A002042
:10804000084AD2E91C31994209D0D118013391F87C
:1080500078100170C3F30A031367012070470020F2
:10806000704700BFA01A0020064AD2F87838D2F82C
:108070007C28934294BF4FF400600020013B9B1A80
:1080800018447047A01A0020012380F8513070472F
:1080900007B501A8FFF7D4FF0028FAD09DF8040027
:1080A00003B05DF804FB044BD3E91C03984288BF7E
:1080B00003F50063181A7047A01A002001207047CA
:1080C000024BC3F88028C3F884187047A01A002018
:1080D000024BC3F88828C3F88C187047A01A0020F8
:1080E0007047704730B4124DD5E91C239A4286BFC1
:1080F00003F50064A21A9A1A0A44B2F5006F12D866
:10810000A1B101444A1E013810F8014FE91882421A
:1081100003F1010381F87840C3F30A03F4D16B67DC
:10812000002030BC7047022030BC70470846F8E79A
:10813000A01A0020212838B50C4605D022282ED0C0
:10814000202813D0002038BD0029FBD0072AF9D100
:108150001A4BD3F8900893F8941893F8952893F84D
:108160009638206021716271A371EBE70029E9D094
:10817000072AE7D1114DD5F884381BB10968D5F825
:1081800080089847206821796279A379C5F890081A
:1081900085F8941885F8952885F89638D2E700294F
:1081A000D0D0022ACED1054AD2F88C38002BC9D0C3
:1081B0000988D2F888089847C4E700BFA01A0020B1
:1081C000024B0020C3F89808704700BFA01A002097
:1081D000044B00200522C3F89828C3F88C08C3F884
:1081E00084087047A01A0020704700BF704700BF86
:1081F000704700BF704700BF704700BF704700BFA7
:10820000704700BF042301480B807047880100209D
:1082100010B4074A074B92F89C08122403F1140289
:108220000C8001280CBF184610465DF8044B7047BF
:10823000A01A00208C010020002070470020704709
:108240000023F0B452004F1C1E46B0F1204F4FEAFD
:10825000107404F130052ABF3734CD54CC54FE5489
:1082600002339A424FEA0010EFD1F0BC704700BFD2
:108270000B4A0C4B10681B681A22C0180A8001D1E7
:108280000948704710B5094B09491C680822FFF7D7
:10829000D7FF204607490422FFF7D2FF024810BD4E
:1082A000E8F7FF1FECF7FF1FB4010020EAF7FF1FFC
:1082B000B6010020C6010020042301480B8070474E
:1082C000D0010020122301480B807047D401002008
:1082D000A0B182680D4B12B107229A7070471978CD
:1082E000DA6003294FF004000CBF80214FF4807145
:1082F000C3E901111A611A7598707047034B41F276
:10830000E47101225A545A70704700BF806B0020FC
:108310000378022B10D0006908B9012070470C4B7C
:108320001B78032B0EBF0B4B80B24FF6F7739842AE
:1083300094BF0020012070470549436841F6500270
:108340008A58B3EB422F2CBF01200020704700BF9A
:10835000806B0020F7FFFF0F0378022B14D030B49E
:10836000104A4368006941F6480402F5C2511559A4
:10837000096841F63C042B4012595B0A023801FBA4
:108380000030104430BC7047064B426841F634015F
:1083900041F630005958185800EB410000EB5220CC
:1083A000704700BF806B002000487047C81A00204B
:1083B000034B93F82400032894BF0020012070474A
:1083C000A01A002010B5084CE26D13899907FCD55E
:1083D00013891B06F9D40A203DF08AFD206EBDE802
:1083E000104041F06BBE00BFA01A0020034B93F871
:1083F0002400003818BF0120704700BFA01A0020D9
:1084000010B40C4A92F8A03802EBC3010133DBB27E
:10841000042B4FF0050408BF00234FF4045081F8EB
:10842000A44882F8A038C1F8A8085DF8044B4FF0C2
:10843000FF307047A01A0020202301480B807047AE
:10844000E8010020642301480B80704708020020E7
:10845000432301480B8070476C02002010B5084C84
:10846000D4F82801FF2809D00649D1F8C42801F61C
:10847000C801FFF75FFEFF23C4F82831002010BDBC
:1084800088010020A01A0020E8E700BF08B5124BC1
:10849000D86D828940F2E9330289013B12F0020F64
:1084A0009BB212D0FF23838140F2E9330289013B62
:1084B00012F0010F9BB202D08089C0B208BD002B20
:1084C000F4D143F089FBC0B208BD002BE4D143F0E6
:1084D00083FBC0B2F8E700BFA01A002070B50546C4
:1084E0000E460924FFF7D2FFFF2803D1013CF9D142
:1084F000012070BDFE2801D0022070BD0649334620
:108500002A46C86D002153F075F8FFF7BFFFFFF74B
:10851000BDFF002070BD00BFA01A002010B51C4C8C
:1085200000232362FFF7B2FFE06D828940F2E93356
:108530000289013B12F0020F9BB217D0FD23838109
:1085400040F2E9330289013B12F0010F9BB212D0D5
:108550008389FFF79BFFFF2812D1FFF797FFFF28C2
:108560000ED10423022084F8243010BD002BDFD16B
:1085700043F032FBEDE7002BE4D143F02DFBE8E7BD
:10858000D4F8D03863610923002084F8243010BD6A
:10859000A01A002070B582B040F040060C0E0546CF
:1085A0000A0A080C95238DF801408DF804108DF807
:1085B00000608DF802008DF803208DF80530082446
:1085C000FFF764FFFF2802D0013CF9D11DBB1A4B15
:1085D000D86D062583896E464FF47A734FF6FF7186
:1085E0003EB316F8012B0489013BA4079BB215D5B5
:1085F00093B283814FF47A730489E40703F1FF3265
:1086000011D5013D8289EBD10924FFF73FFFFF28F7
:1086100002D1013CF9D1FF2002B070BD8B42E2D102
:1086200043F0DAFAF0E793B28B42E5D143F0D4FAA3
:10863000EAE7FF22D7E700BFA01A00202DE9F843A0
:10864000194C94F82460042E0546894690461F462E
:1086500008D0082E02D00020BDE8F883FFF75EFFA7
:108660000228F8D1206E41F023FDA37E93B9690260
:108670001120FFF78FFF98B9D4F8D038C4F80090D4
:108680000522C4E90387656084F824206361012022
:10869000BDE8F88329461120FFF77CFF0028EBD0C6
:1086A000FFF790FED7E700BFA01A0020F8B56A4C8C
:1086B00000234FF4F0722021054604F6D80084F818
:1086C000D43858F05CFA04F6B8204FF4F072202148
:1086D00058F055FA94F8990C10B194F89A2C0AB9FC
:1086E0000020F8BD41F010FAC4F8A40C28B182793A
:1086F0000AB1412AF4D12322C28009213DF058FA5F
:10870000D4F8A40C554E41F0D9FC94F89A0C0138D9
:1087100040B243F013FB0223102184F89C3CC4F8C0
:10872000A00C4FF0FBFEB6F82C114D4843F01CFA9C
:10873000D4F8A40C41F0BCFCFF218C204FF080FF4A
:108740000746D4F8A40C41F0B9FCD4F8A00C0421DD
:108750004FF0E4FE1B2F05D0D4F8A40C20213DF0EF
:1087600027FABDE7D4F8A43C012284F8D4280BB141
:108770002322DA80B6F82C11394843F0F5F9D4F801
:10878000A40C41F095FC40210A204FF059FFFF2135
:108790008A204FF055FFC0F38013D4F8A40C84F85E
:1087A000A83C41F08BFCD4F8A00C04214FF0B6FE9D
:1087B00094F8983C012B46D0022B3CD0002B3ED0A5
:1087C00094F8A93C182B09D194F8A82CB6F82C31B0
:1087D000A4F8AC5CA4F8AE2CA4F8B03CB6F82C110C
:1087E0001F4843F0C1F9B6F82C111D4843F0BCF9FD
:1087F000D4F8A40C41F05CFC022100204FF020FFD3
:10880000D4F8A40C41F05AFCD4F8A00C04214FF089
:1088100085FE94F8B92C94F8BA3C94F8B81C84F806
:10882000B41CC2F12002C3F1100384F8BB2C84F8FD
:10883000BC3C0120F8BD0823A6F82C31C0E710236A
:10884000A6F82C31BCE7002DF5D094F8A83C002BFD
:1088500014BF08231023EFE7A01A0020880100208E
:108860003C2700202DE9F04FCE4DDFF86883DFF87C
:10887000709384460F4616460FCD44462DED068B69
:108880000FC40FCD0FC495E807008BB099F8C23C18
:10889000029684E80700CDE906C7042B00F25C814C
:1088A000DFE813F0BA015A0155010500CA019FED36
:1088B000BE8ADFEDBE8ABE49C8F81C10BD49BE4B5A
:1088C000BE4AC8F818100299002918BF134638EE9E
:1088D000887AF5EE006A86EE87AAC8F82430B84F89
:1088E000B84B03930026DFEDB87A9FEDB89A28EED7
:1088F000278AF0EE679A079BB34200F02281039B20
:1089000013F8014B039306F1010B5FFA8BF2002C75
:1089100000F09581DFF8CCC2002303E00133152B72
:1089200000F08D8103EB43015D001CF80100A042C3
:10893000F4D14944049291F8DD1C002900F08781AC
:1089400020463CF0F7FE03680593824618463CF04B
:10895000DDFE9AF805103CF031FF90F800E0BEF122
:10896000000F40F06C8109EB050025090321013D52
:10897000049A059B80F81D2D8D4280F81C1D04F083
:108980000F0C00F23581874800EB4500808D40FADE
:108990000CF414F0010400F03D81012404FA0CF3FE
:1089A000013B1840049254F0ABF97E4BDFF838C21B
:1089B000049A1D44032195F834307A4D18440CEB89
:1089C000C0037B619971DA715CF830009AF8082075
:1089D00000F13F4101F57E0105EB912191F838103E
:1089E00001F01F054909032904FA05F400F00D817F
:1089F000042900F00581022900F0FD809B8808937E
:108A0000B3FA83F3C3F11F03C3F3CC0100EB81017D
:108A100003F007030C6A9B000F259D4024EA050420
:108A20000C620C6A02FA03F323430B62022308A9C7
:108A300009930CF0DDFBDAF80030029A002A00F00E
:108A4000A380B9F8C02C00EE102AB8EEC00AFCEEE4
:108A5000C07A17EE901A5E4A934200F08280A2F527
:108A6000806293427DD002F58042934279D002F534
:108A70008062934275D002F58062934271D0D9F83A
:108A8000D02E50084FF6FF73B0FBF1F21A44120CCF
:108A9000B0FBF2F20298002866D0B2FBF1F199F82F
:108AA000C20C04288BB264D007EE902AF8EE676AF5
:108AB00066EE887A29EE677A99F8C30C06990091D8
:108AC000A6EEA87A019051463846C7ED027A87EDA6
:108AD000037A31F01DFE002E61DD7B68D8F8382066
:108AE000934200F08380012E59D0D8F85020934251
:108AF0007CD0022E53D0D8F86820934276D0032E33
:108B00004DD0D8F88020934270D0042E47D0D8F8AA
:108B1000982093426AD0052E41D0D8F8B0209342D5
:108B200064D0062E3BD0D8F8C820D31A18BF012332
:108B30005E460122082E3B747A7407F118077FF411
:108B4000DAAE24480BB0BDEC068BBDE8F08F9FED8C
:108B5000228AF0EE488AAEE69FED208AF0EE488A3F
:108B6000A9E6D9F8D00E8DE799F8C20C0428194669
:108B70009AD107EE901A07EE102AF8EE677AF8EE0F
:108B8000476A67EEA97A95E7B0EE4A0A049355F072
:108B90008FF9FCEEC07A049B17EE901A5BE7012375
:108BA000C6E700BF200C0608ACC5A737ACC5A73682
:108BB00041450308153904083940030809390408F8
:108BC00048000010672700206F12833A00007A44A3
:108BD0000004014014000010282930386F120339B6
:108BE000A01A00207C270020E827002000239FE710
:108BF000C7F814E021E717494D6C2C434C64FDE69F
:108C000014490D6B2C430C63F8E612490D6C2C4390
:108C10000C64F3E67C6110E79FED0F8A0F4BC8F8F8
:108C2000183000230E4A069301230293C8F81C2033
:108C30000C4BF0EE488A4AE69FED0B8AEEE70B4AB2
:108C4000084BC8F81C20C8F8243000207AE70B68CD
:108C5000FFDE00BF003802406F12833A1539040866
:108C600041450308093904080000000031430308A6
:108C7000F8B51A4C94F8D43E002BFBD159B30144FB
:108C80004E1E451ED4F87C28D4F8781815F8017FBC
:108C9000531CC3F30A038B422CBF4FF40060002027
:108CA000C91A224401440129C4F87C3882F8D87ECC
:108CB0000FD101203DF04AFAD4F87838D4F87C1866
:108CC0008B4294BF4FF4006200225B1A1344012BC5
:108CD000EFD0B542D6D10020F8BD00BFA01A0020C9
:108CE00010B590F85010002380F8503081B10B4C33
:108CF000D4F8982872B1D4F89828052A0CD13C30C1
:108D0000D4F8D038FFF7B4FFD4F8D038012010BD24
:108D10000120FCE71046FAE71846F8E7A01A002001
:108D2000002280F85120DBE790F85020531C0244C9
:108D3000DBB280F8503082F83C1090F851200AB134
:108D4000132B00D9CCE7704710B5094CD4F89838EC
:108D5000084611465BB1D4F89838052B07D1002A94
:108D6000D4F8D03803DDFFF783FFD4F8D03810BD36
:108D7000A01A00202DE9F04143794A4C002B14BF82
:108D80000122002284F8502003D184F82430BDE869
:108D9000F08190F8018008F1FF3676B20546304642
:108DA0000F4642F0CBFF0223E06584F858302B7861
:108DB000002B53D1ED78002D44D14FF48071E06D3C
:108DC00025664FF0ABFB4FF47A703DF0BFF9206E93
:108DD00041F074F9E06D0A2683894FF6FF714FF474
:108DE0007A73FF270289950718D587814FF47A7324
:108DF0000289D20703F1FF3520D5013E8289F1D1E6
:108E0000294B0289920711D5028912F080020DD1F7
:108E1000D4F8D018227601236161B6E7013B9BB2FA
:108E20008B42DFD142F0D8FEE06DE9E7013BE8D1AB
:108E3000227E84F82430531C2376A8E7ABB28B4201
:108E4000D6D1EFE7284640F05FFE054608B11E2365
:108E5000C380092128463CF0ABFEAEE706EB860650
:108E60003E44414696F9032000203DF0A3FD06460E
:108E700030B1406851F088F9B36884F86C3018B9A3
:108E8000002384F8643095E7084A431E02EB43133D
:108E900017210022A36651F089F9012384F8643078
:108EA00088E700BFA01A0020A1860100B8020020B8
:108EB000114B70B5D3F8D04E054600680E466408D5
:108EC0000CF09AF8B4FBF6F1B1F5803F03D3012C16
:108ED000FAD96408F6E72246284689B23CF0A8FA97
:108EE0000649074BC1F8443E28460022BDE87040C1
:108EF00001F644613CF01CBAA01A0020982B002017
:108F00004DFB01082549D1F84C3E0F2B04D05A1CCB
:108F1000C1F84C2E0020704770B5214C94F8D45EF7
:108F20000023C1F84C3EF5B9D4F87828D4F87C3841
:108F3000B2F5006F19D09A422CD01AD9C2F500634D
:108F4000402B18D9403B02F14005C1F8503E0123A7
:108F500084F8D43EC4F8785892B2402311490A44A8
:108F600081210BF051F9002070BDC4F878588BB105
:108F70002A469B1AE4E74FF0000502EB0306C1F80E
:108F8000505E0CBF02210121C4F8786892B284F8C7
:108F9000D41EE3E7002384F8D43EE4E7982B0020B6
:108FA000A01A002078290020ACE700BF70B51E4C45
:108FB00094F8D43E012B03D0022B0AD0002070BDC0
:108FC00001461A48D0F8503E53B984F8D43E0020E8
:108FD00070BD00231A4681210BF016F90023F4E737
:108FE000402BD4F8782810D9403B02F14005C0F856
:108FF000503EC4F8785892B240230D4C08462244A3
:1090000081210BF001F9002070BD4FF0000503EB4A
:109010000206C0F8505E08BF0220C4F8786892B219
:1090200008BF84F8D40EE8E7A01A0020982B00208F
:1090300078290020012905D008B503210BF07CFD1B
:10904000002008BDB2E700BF70B5104DD5F85C3EFA
:1090500004462BB195F8602E95F8743E134310D05A
:10906000812120460BF09CF895F8743E022B00D02D
:1090700070BD2046064ABDE870401F2301210BF059
:10908000F3B801210BF08CF8EAE700BF982B002021
:10909000EC39002070B50C4C0C4BC4F8783E04F64B
:1090A0007862054684F8841E00260D23812184F809
:1090B000886E0BF0A9F8284604F654621F23BDE819
:1090C000704001210BF0D0B8982B0020555342532B
:1090D0002DE9F041B04C94F8633EC4F88C0E82B098
:1090E00088465A2B00F2B580DFE813F0C900B300C0
:1090F000B300D900B300B300B300B300B300B300B2
:10910000B300B300B300B300B300B300B300B300C7
:109110000D01B300B300B300B300B300B300B3005C
:1091200031017400B300B3007400B300B300B300A6
:10913000B300BA01B3006201B300B3007C00B30016
:109140000B02B300B300B300B3005B00B300B30085
:10915000B300B300B300B300B300B300B300B30077
:10916000B300B300B300B300B300B300B300B30067
:10917000B300B300B300B300B300B300B300B30057
:10918000B300B300B300B300B300B300B300B30047
:10919000B300B300B300B300B300B300B300B30037
:1091A000E60194F8643E9B0700F16E82B4F86A3ED3
:1091B000D4F8652ED4F89C1E5BBA9BB212BAD018B4
:1091C0008842C4F8A43EC4F8A02E03D9FFF718F9CA
:1091D000002851DB0020A4F8940E0546284602B072
:1091E000BDE8F08194F8883E002B40F0FF8094F9B0
:1091F000603E002B2DDAD4F8903E08469B689847D5
:10920000002840F02182B4F86A5ED4F8657ED4F874
:109210009C3E6DBAADB23FBA7A199A42C4F8A45EC8
:10922000C4F8A07E03D9FFF7EBF8002824DBD4F8BC
:10923000983ED4F85C6E03FB05F503FB07F20220B1
:10924000B542C4F8A02EC4F8A45E84F8880E00F0DD
:10925000D380524A92F8A038591CC9B202EBC3031A
:1092600005244FF40050042982F8A01883F8A4487C
:10927000C3F8A80800F0A6814FF0FF35AEE7D4F898
:109280005C3E002BE5D1D4F8903E08469B68984799
:109290000546002840F0D881A4F8940E9EE7404B84
:1092A000002203F1120103F8012F8B42FBD13B494D
:1092B0003C4891F8A05894F8963E702606709D425E
:1092C0004FF00C06C67110D001EBC301013391F8C9
:1092D000A4588570B1F8A818DBB2042B49BA818173
:1092E00014BF84F8963E84F8962E94F8673E1222B6
:1092F0009342A4F8942E98BFA4F8943E00252846E3
:1093000002B0BDE8F08194F8643EDA0700F14281D2
:10931000D4F8903E94F8670EDA6901EBC10102EBD4
:1093200081010A79531D834228BF0346A4F8943E65
:10933000002BE3D0013B1B489BB20133194403448B
:1093400011F8012D03F8012D8342F9D1D6E7164E0D
:10935000164F35460823073EC5F10700A4F8943E92
:10936000002202E092F848201D462B46B54203F841
:10937000012900EB030217FA82F2F3D1D4F8903EF0
:109380004046DB6898470028B8D0AB7863F07F038D
:10939000AB70002522E700BF982B0020A01A002008
:1093A0007F5B0020805B0020875B0020200C06088C
:1093B000D4F8903EC94A5B680846111D9847054697
:1093C000002840F04181D4F89C3EC54AD4F8981E4C
:1093D000013B180E1070180C09BAD37050701B0A9C
:1093E000082093705160A4F8940EF7E6D4F8A46EA8
:1093F000D4F8A02ED4F8983ED4F8905EB2FBF3F2E5
:10940000B6F5805F28BF4FF480562D69B449B6FB8E
:10941000F3F340469BB24FF48057A4F8947EA847DC
:109420000028C0F2BC803346AD4AD4F88C0E8121AE
:109430000AF0EAFED4F8A02ED4F8A40ED4F8803EA8
:109440003244851B9E1BC4F8A02EC4F8A45EC4F849
:10945000806E002D7FF452AF032384F8883EBDE672
:109460009F4E0027334606F10C0203F8017B9A4217
:10947000FBD1D4F8903E40465B686A4601A9984704
:109480000546002840F0EB80019BBDF80020013B21
:10949000190E52BAF3713171190C1B0A717108203F
:1094A000B371022172810C23BDF80220F070317279
:1094B0007272A4F8943E91E68A4E8B4F3046082390
:1094C000073EC0F10705A4F8943E002202E092F89E
:1094D000502018460346864203F8012905EB030293
:1094E00017FA82F2F3D1D4F8903E4046DB689847F1
:1094F00000283FF403AFF37863F07F03F370002597
:109500006CE694F8883E002B62D194F9603E002B03
:10951000FFF69FAED4F8903E08469B689847002817
:1095200040F09280D4F8903E4046DB68984705466C
:10953000002840F0BA80B4F86A3ED4F8656ED4F8DA
:109540009C2E5BBA9FB236BAF3199342C4F8A47E3C
:10955000C4F8A06E00F2A380D4F8983ED4F85C2E34
:1095600003FB06F603FB07F39342C4F8A06EC4F8AE
:10957000A43E7FF46EAEB3F5805F28BF4FF48053F6
:109580000121D4F88C0E564A84F8881E9BB20AF04A
:109590006BFE23E607235549A4F8943ECAE6544AD5
:1095A00092F8A038591CC9B202EBC30304244FF44B
:1095B0008850A14282F8A01883F8A448C3F8A808EC
:1095C0007FF45AAE002382F8A0384FF0FF3505E64D
:1095D000D4F8A46ED4F8900ED4F8983ED4F8A02E07
:1095E0004569B2FBF3F2B6F5805F28BF4FF48056B1
:1095F0000846B6FBF3F33A499BB2A847002862DB62
:10960000D4F8A02ED4F8A45ED4F8803E3244AD1B2A
:109610009B1BC4F8A02EC4F8A45EC4F8803E2DB9EC
:10962000D4F88C0E2946FFF735FDD7E5B5F5805FF8
:1096300028BF4FF48055ABB2D4F88C0E284A0121D4
:109640000AF012FE0025C9E5294A92F8A038591CF3
:10965000C9B202EBC30302244FF4685003E6244A64
:1096600092F8A03802EBC3010133DBB202244FF4BD
:109670006850042B81F8A448C1F8A80820D082F8CB
:10968000A0384FF0FF35A9E5194A92F8A038591CC7
:10969000C9B202EBC30305244FF41050E3E5FEF713
:1096A000AFFE0028BFF658AFE6E5114A92F8A038A1
:1096B000591CC9B202EBC30302244FF41C50D2E57B
:1096C00082F8A078D8E50A4A92F8A038591CC9B2A5
:1096D00002EBC30304244FF440706AE7303A0020E1
:1096E000805B0020875B0020200C0608600C0608C9
:1096F000A01A002010B5074B93F8611E0446FFF72F
:10970000E7FC002800DB10BD20460121BDE8104029
:10971000C0E400BF982B002070B5344C94F8885EEC
:109720002DB1012D01D1FFF7E5FF002070BDB0F88C
:10973000B433D4F8582EC4F87C2E1F2BD4F85C2EEA
:10974000C4F8802E064608D1294BD4F8542E9A42EC
:1097500003D194F8611E01291AD9264A92F8A0383B
:1097600002EBC3010133DBB2042B08BF0023052544
:109770004FF40050C1F8A80882F8A0383046022300
:1097800081F8A45884F8743EFFF75EFC002070BD99
:1097900094F8623E013B0F2BDFD8FFF799FC0028BD
:1097A0001CDB94F8883E013B022BBED9B4F8941E12
:1097B000C1B1D4F85C3ED4F8802E84F8845E8B422C
:1097C00028BF0B46D11A0425C4F8801E0A4A84F823
:1097D000885E304681210AF017FDA6E73046FFF784
:1097E00033FCA2E73046FFF755FC9EE7982B00209C
:1097F00055534243A01A0020805B002008B5084B57
:1098000093F8883E022B07D0033B012B02D800219E
:10981000FFF740FC002008BDFFF76CFF002008BDEB
:10982000982B002010B501EB8101084A00EBC10123
:109830000446B1F88C131046FEF754FC034A204648
:10984000402301210AF010FD002010BD403A002005
:10985000E8E700BF10B5044C04480A4621460AF068
:1098600079FC204610BD00BF803A00200C89060814
:1098700010B5044C04480A4621460AF06BFC204609
:1098800010BD00BF803A00201C89060810B5044CAA
:1098900004480A4621460AF05DFC204610BD00BF80
:1098A000803A00202889060810B5044C04480A466E
:1098B00021460AF04FFC204610BD00BF803A002030
:1098C0003489060810B5044C04480A4621460AF0BB
:1098D00041FC204610BD00BF803A002040890608A8
:1098E00010B5044C04480A4621460AF033FC2046D1
:1098F00010BD00BF803B00205489060810B5044C01
:1099000004480A4621460AF025FC204610BD00BF47
:10991000803B00206489060810B5044C04480A46C0
:1099200021460AF017FC204610BD00BF803B0020F6
:10993000708906080A4608B5054920B905480AF0A5
:1099400009FC034808BD04480AF004FC004808BDAF
:10995000803B0020848906089C89060810B5812177
:1099600004460AF0A7FC204601210AF0A3FC024BA2
:10997000002083F8880E10BD982B002070B5044697
:10998000144EFFF7EBFF20460223402281210AF00C
:10999000D9FC40220121204602230AF0D3FCD6F84C
:1099A000903E00251B6886F8885E284686F8745E1F
:1099B000984720460BF0A6F8204601210BF0BCF892
:1099C000204606F654621F2301210AF04DFC28466A
:1099D00070BD00BF982B002038B50D46044683218A
:1099E0000AF068FC294620460AF09AFC002038BD9F
:1099F00038B509220D460446032383210AF0A2FC50
:109A0000294620460AF00AFD002038BD00F01F025A
:109A100040090123032803FA02F304D004280CD0E0
:109A2000022805D07047074A116C0B431364704736
:109A3000044A516C0B4353647047024A116B0B4349
:109A400013637047003802400048704748280020E0
:109A500058B183884FF00042B3FA83F332FA03F32C
:109A600003D002490A6813430B607047003C014071
:109A7000002871D0F0B58388B3FA83F3202B0A460F
:109A800083B00446C3F11F0150D0344F344D07EB6F
:109A900081036E1843F8102C002196F858603CF0B2
:109AA00087F8A38821682F48B3FA83F3C3F11F0214
:109AB00002F0FC0404F1804404F59C3402F003023B
:109AC0004FEA820E4FF00F0C01F13F42A1680CFAF1
:109AD0000EFC21EA0C01A16002F57E02A168C2F32E
:109AE00087224FF0004C02FA0EF22CFA03F30A43DD
:109AF000A260436102681C4922EA030202604268D4
:109B000022EA0302426002681A430260826822EA83
:109B100003028260C26822EA0302C2600A68374414
:109B200013430B6097F83030F02B01D803B0F0BD31
:109B30003544F02195F868308DF8043003224FF455
:109B4000807301A887F830108DF80520ADF8063035
:109B50000BF010F803B0F0BD704700BF903C002040
:109B6000200C0608003C0140083C014000285FD062
:109B70000368374A2DE9F04103F13F4404F57E04C0
:109B800002EB9422012492F8382002F01F055209BA
:109B9000032A04FA05F456D0042A4FD0022A48D0EA
:109BA0008588B5FA85F0C0F11F00C0F3CC0603EB41
:109BB000860600F0070082000F24306A944020EAF5
:109BC00004003062306A01FA02F20243002132627C
:109BD0004FF0010E0A464FF0030C02270EFA02F86E
:109BE00038EA050002F101021CD118680CFA01F4F0
:109BF00020EA04001860186807FA01F606431E60A0
:109C00009E6826EA04069E6098689860586820EA74
:109C10000800586058685860D86820EA0400D86086
:109C2000D868D860102A01F10201D7D1BDE8F081CF
:109C30007047084A556C2C435464B1E7054A156BCC
:109C40002C431463ACE7034A156C2C431464A7E758
:109C5000200C0608003802402DE9F04FC04CC14EE0
:109C600094F83710E06BDFF80483BF4D83B0C1F385
:109C7000400140F029FA94F83710A06BC94301F075
:109C8000010140F021FA052301934FF01009E36B25
:109C900033B11A689B8851690B4214BF53831383F5
:109CA000A36B33B11A689B8851690B4214BF53836D
:109CB0001383B4F84430002B40F04B8194F84610E5
:109CC000A06C40F001FA32204FF47A710127D8F8E5
:109CD0000430C3F30803002B40F01281EFF311832B
:109CE000002B40F00D81D6F8D028D5F808E0D6F842
:109CF000D0389A42F7D1E36E9E45F4D8D4F868A0E4
:109D000001FB0AF3A3EB0E03B3FBFAF301FB0232F0
:109D1000D8F80430C3F30803002B40F0B280EFF30F
:109D20001183002B40F0AD80D6F8D038D5F808B0BC
:109D3000D6F8D0E87345F7D1D4F86CE0F345F3D802
:109D4000D4F868A001FB0AFEAEEB0B0EBEFBFAFED8
:109D500001FB03E39B1AB3F57A7FD9D30138B6D15F
:109D6000E36B33B11A689B8851690B4214BF53836C
:109D70001383A36B33B11A689B8851690B4214BFDC
:109D800053831383B4F84430002B40F0D88094F808
:109D90004610A06C81F0010140F096F932204FF49A
:109DA0007A710127D8F80430C3F30803002B40F080
:109DB0008880EFF31183002B40F08380D6F8D02801
:109DC000D5F808E0D6F8D0389A42F7D1E36E9E4530
:109DD000F4D8D4F868A001FB0AF3A3EB0E03B3FB9D
:109DE000FAF301FB0232D8F80430C3F3080343BB93
:109DF000EFF311832BBBD6F8D038D5F808B0D6F8DE
:109E0000D0E87345F7D1D4F86CE0F345F3D8D4F833
:109E100068A001FB0AFEAEEB0B0EBEFBFAFE01FBD7
:109E200003E39B1AB3F57A7FDDD30138BAD1019BE6
:109E30005F1E17F0FF0301937FF429AF03B0BDE865
:109E4000F08FEFF3118A89F31288D5F808B02B68E8
:109E5000DB0344BF6766D5F808B0D6F8D038D4F82D
:109E600064E05FFA8AFA8AF31188D4F868A0734430
:109E700001FB0AFEAEEB0B0EBEFBFAFE01FB03E399
:109E8000CFE7EFF3118A89F31288D5F808B02B6871
:109E9000DB0344BF6766D5F808B0D6F8D038D4F8ED
:109EA00064E05FFA8AFA8AF31188D4F868A07344F0
:109EB00001FB0AFEAEEB0B0EBEFBFAFE01FB03E359
:109EC00048E7EFF3118E89F31288D5F808A02B68C4
:109ED000DA0344BF6766D5F808A0D6F8D038626EBA
:109EE0005FFA8EFE8EF31188D4F868E01A4401FB05
:109EF0000EF3A3EB0A03B3FBFEF301FB023272E79E
:109F0000EFF3118E89F31288D5F808A02B68DA03D5
:109F100044BF6766D5F808A0D6F8D038626E5FFAFD
:109F20008EFE8EF31188D4F868E01A4401FB0EF31C
:109F3000A3EB0A03B3FBFEF301FB0232E8E6236E58
:109F4000002B3FF42BAFE26C0023136084F85D30EC
:109F500024E7236E002B3FF4B6AE3CF0BBF9B2E62B
:109F6000903C0020A01A002010E000E000ED00E08E
:109F70002DE9F04F83B00A23BA4CBB4EDFF8F082D4
:109F8000BA4D0193FFF768FE10274FF4FA704FF4B3
:109F90007A714FF0010CD8F80430C3F30803002B9A
:109FA00040F05082EFF31183002B40F04B82D6F843
:109FB000D028D5F808E0D6F8D0389A42F7D1E36E29
:109FC0009E45F4D8D4F8689001FB09F3A3EB0E0387
:109FD000B3FBF9F301FB0232D8F80430C3F30803F2
:109FE000002B40F00E82EFF31183002B40F009822A
:109FF000D6F8D038D5F808A0D6F8D0E87345F7D110
:10A00000D4F86CE0F245F3D8D4F8689001FB09FE6F
:10A01000AEEB0A0EBEFBF9FE01FB03E39B1AB3F5A0
:10A020007A7FD9D30138B6D194F83710E06BC1F3F9
:10A03000400140F049F894F83710A06BC94301F093
:10A04000010140F041F806274FF01009E36B33B1EE
:10A050001A689B8851690B4214BF53831383A36B07
:10A0600033B11A689B8851690B4214BF5383138321
:10A07000B4F84430002B40F0258294F84610A06CD0
:10A0800040F022F8FA204FF47A714FF0010CD8F822
:10A090000430C3F30803002B40F09381EFF31183E6
:10A0A000002B40F08E81D6F8D028D5F808A0D6F83D
:10A0B000D0389A42F7D1E36E9A45F4D8D4F868E0E4
:10A0C00001FB0EF3A3EB0A03B3FBFEF301FB023229
:10A0D000D8F80430C3F30803002B40F05181EFF3AC
:10A0E0001183002B40F04C81D6F8D038D5F808B059
:10A0F000D6F8D0E87345F7D1D4F86CE0F345F3D83F
:10A10000D4F868A001FB0AFEAEEB0B0EBEFBFAFE14
:10A1100001FB03E39B1AB3F57A7FD9D30138B6D19B
:10A12000E36B33B11A689B8851690B4214BF5383A8
:10A130001383A36B33B11A689B8851690B4214BF18
:10A1400053831383B4F84430002B40F0C28194F859
:10A150004610A06C81F001013FF0B6FFFA204FF4E9
:10A160007A714FF0010CD8F80430C3F30803002BC8
:10A1700040F0E680EFF31183002B40F0E180D6F849
:10A18000D028D5F808A0D6F8D0389A42F7D1E36E97
:10A190009A45F4D8D4F868E001FB0EF3A3EB0A0368
:10A1A000B3FBFEF301FB0232D8F80430C3F308031B
:10A1B000002B40F0A480EFF31183002B40F09F8030
:10A1C000D6F8D038D5F808B0D6F8D0E87345F7D12E
:10A1D000D4F86CE0F345F3D8D4F868A001FB0AFE8C
:10A1E000AEEB0B0EBEFBFAFE01FB03E39B1AB3F5CD
:10A1F0007A7FD9D30138B6D1013F17F0FF077FF43A
:10A2000025AF4FF47A70014610274FF0010CD8F8B3
:10A210000430C3F30803002B40F03481EFF31183C3
:10A22000002B40F02F81D6F8D028D5F808E0D6F8DA
:10A23000D0389A42F7D1E36E9E45F4D8D4F86890AE
:10A2400001FB09F3A3EB0E03B3FBF9F301FB0232AD
:10A25000D8F80430C3F3080383BBEFF311836BBB5F
:10A2600008E000BF903C0020A01A002010E000E0B1
:10A2700000ED00E0D6F8D038D5F808A0D6F8D0E840
:10A280007345F7D1D4F86CE0F245F3D8D4F8689070
:10A2900001FB09FEAEEB0A0EBEFBF9FE01FB03E378
:10A2A0009B1AB3F57A7FD3D30138B0D1019B013B20
:10A2B00001937FF467AE03B0BDE8F08FEFF311892F
:10A2C00087F31288D5F808A02B68DB0344BFC4F8D5
:10A2D00064C0D5F808A0D6F8D038D4F864E05FFAA6
:10A2E00089F989F31188D4F86890734401FB09FE59
:10A2F000AEEB0A0EBEFBF9FE01FB03E3D0E7EFF382
:10A30000118A89F31288D5F808B02B68DB0344BFA3
:10A31000C4F864C0D5F808B0D6F8D038D4F864E0F2
:10A320005FFA8AFA8AF31188D4F868A0734401FBB3
:10A330000AFEAEEB0B0EBEFBFAFE01FB03E355E794
:10A34000EFF3118E89F31288D5F808A02B68DA0391
:10A3500044BFC4F864C0D5F808A0D6F8D038626EFF
:10A360005FFA8EFE8EF31188D4F868E01A4401FB80
:10A370000EF3A3EB0A03B3FBFEF301FB023213E778
:10A38000EFF3118A89F31288D5F808B02B68DB0344
:10A3900044BFC4F864C0D5F808B0D6F8D038D4F8B3
:10A3A00064E05FFA8AFA8AF31188D4F868A07344EB
:10A3B00001FB0AFEAEEB0B0EBEFBFAFE01FB03E354
:10A3C000A8E6EFF3118E89F31288D5F808A02B6860
:10A3D000DA0344BFC4F864C0D5F808A0D6F8D03872
:10A3E000626E5FFA8EFE8EF31188D4F868E01A442C
:10A3F00001FB0EF3A3EB0A03B3FBFEF301FB0232F6
:10A4000066E6EFF3118987F31288D5F808A02B6868
:10A41000DB0344BFC4F864C0D5F808A0D6F8D03830
:10A42000D4F864E05FFA89F989F31188D4F8689068
:10A43000734401FB09FEAEEB0A0EBEFBF9FE01FB05
:10A4400003E3EBE5EFF3118E87F31288D5F808905C
:10A450002B68DA0344BFC4F864C0D5F80890D6F876
:10A46000D038626E5FFA8EFE8EF31188D4F868E001
:10A470001A4401FB0EF3A3EB0903B3FBFEF301FB4C
:10A480000232A9E5EFF3118E87F31288D5F8089010
:10A490002B68DA0344BFC4F864C0D5F80890D6F836
:10A4A000D038626E5FFA8EFE8EF31188D4F868E0C1
:10A4B0001A4401FB0EF3A3EB0903B3FBFEF301FB0C
:10A4C0000232C5E6236E002B3FF4DCAD3BF002FF09
:10A4D000D8E5236E002B3FF441AEE26C00231360FD
:10A4E00084F85D303AE610B4A8B10C4C236F102B01
:10A4F00005D15DF8044B0521002040F045BE03EB7B
:10A500004302224482F8751001210B4482F8740042
:10A5100082F8761023675DF8044B7047903C00206A
:10A52000C0782021DFE700BF2DE9F04FDFF87CA3E2
:10A530002DED028B9AF8B8100022CAE92A22CAE946
:10A540002C2297B0CAF8A42019B19AF8B9208AF839
:10A55000A4209AF8BA201AB19AF8BB208AF8B3203E
:10A560009AF8BE201AB19AF8BF208AF8AE209AF85D
:10A57000BC201AB19AF8BD208AF8A9209AF8C030F8
:10A5800005935A1ED3B257B204937B1C00F0AA80E5
:10A59000BC4ABD4E52F83780029602EBC702002338
:10A5A0001279019308EE102A1D4634469946267802
:10A5B0003946304642F096FE83463046BBF1000FE6
:10A5C0001ED03FF0A1FAEA1D1321D2B220B14FF004
:10A5D000000E827180F807E03BF0EAFA207842F042
:10A5E000B3FE4FF0070309F1010223714FF001039D
:10A5F00084F802906070CDF804B05FFA82F9E370DD
:10A600000135042D04F10504D1D118EE100A029E83
:10A61000CDF80C90FFF7FAF99C499D4A4868024032
:10A6200042F440324A600FB9019B5BB9994C482013
:10A63000FFF7ECF92046022151F092FCA26842F0AB
:10A640000102A2609148934A4168BAF8C24041F4BD
:10A6500000014160516821F480515160916B21F4F7
:10A66000401141F480119163D16841F46001D160DF
:10A67000956B85F44011C1F3015101EB81011F205D
:10A6800000FA01FC25EA0C0C112505FA01F141EA5A
:10A690000C019163D16841F4E011D160956BC5F371
:10A6A0000151C1F10401C9B201EB810188404FF0B1
:10A6B000100C25EA00000CFA01F108439063E4B1A4
:10A6C000BAF8C410CAF8CC40A1B1BAF8C620CAF88A
:10A6D000D01062B1019B7048521A90FBF2F2CAF896
:10A6E000D4206BB917B0BDEC028BBDE8F08F6B4A7C
:10A6F0001288EFE76A4A1188E7E76A4A1488DFE7B9
:10A700004046039951F02CFC5F4B012003F11409E2
:10A710000723F278441CE4B252B375783279A5F17C
:10A720000A0101EB410105EB450C092D03FA01FE7D
:10A7300003FA0CFB02FA01F140F28E80D8F80C20EB
:10A7400022EA0E0E41EA0E01C8F80C10421E02EB7E
:10A7500082021F21062801FA02FC05FA02F261D8E2
:10A76000D8F8341021EA0C010A432046C8F83420F6
:10A770000536B145CDD1D8F80820049942F40072CD
:10A78000C8F80820D8F8082042F48072C8F80820D9
:10A79000D8F80820574442F00102C8F8082097F979
:10A7A000C82002203CF006F9044600289AD04068F0
:10A7B0004FF0EAFC059A06214FF0F8FC60680AF0B9
:10A7C00081FA07A80AF040FA039EA368364A079365
:10A7D000012E8CBF4FF48060002000230D9008F103
:10A7E0004C054FF40060089509920A934FF480726B
:10A7F0000C930E904FF4003360680B9607A94FF44A
:10A800000055CDE90F5211930AF030FA62681368CF
:10A8100043F001031360D8F8083043F08043C8F8D0
:10A8200008305FE7C11FA0F10D0201EB81014FF07D
:10A830001F0E02EB82020C280EFA01FC0EFA02F047
:10A8400005FA01F113D8D8F8302022EA0C0211439E
:10A850002046C8F830108BE7D8F8101002FA0CF236
:10A8600021EA0B0B42EA0B02C8F810206EE7D8F879
:10A870002C1005FA02F221EA00010A432046C8F82A
:10A880002C2075E7900C0608343D00200023014081
:10A89000E030FCFF00200140803801002E7AFF1FCD
:10A8A0002C7AFF1F2A7AFF1F683D0020903C002071
:10A8B000F8B5264E00EBC00406EB8404D4F8E4504F
:10A8C000002D36D094F8F5C00CF0FF07BCF1000F56
:10A8D0002FD149004FF0010CC9B284F8F61084F86A
:10A8E000F72084F8F9C084F8FA7084F8F8C084F886
:10A8F000F5C084F8F470AA88C4E93F33940502D502
:10A9000001273846F8BD2B88D9050CD44FF4805365
:10A9100001E0013B10D02A889205FAD42B889BB223
:10A9200043F480732B80AB889BB243F44073AB80BD
:10A93000E6E700273846F8BDB6F84C3101339BB244
:10A94000A6F84C3150F04CFFDBE700BF903C0020F4
:10A9500070B5464E96F84E4104EB440306EBC30334
:10A96000650093F85031032B6ED8DFE803F05929C6
:10A970001E02254406EBC505D5F85401002870D108
:10A9800096F8B0319C425FD0013404F00302934248
:10A9900086F84E2158D002EB420406EBC404022391
:10A9A000C4F8540184F8503170BD2B1906EBC30371
:10A9B000D3F8542172B1013AC3F85421002070BD7C
:10A9C0002B1906EBC303D3F85421002AF3D102223A
:10A9D00083F85021254406EBC50595F85C31013B11
:10A9E000DBB285F85C318BBB214B96F8B061D3F8B4
:10A9F0003013D5F85801621C02F003024B1E0324E9
:10AA0000B242034485F85041B3FBF1F0C5F854015C
:10AA10001AD0994218D80138C5F85401012070BDE8
:10AA200041F094FA80B1124B2C44D3F8302306EB5A
:10AA3000C404012102F51C5384F850110F33B3FBF9
:10AA4000F2F3C4F8543170BD012070BD084BD3F847
:10AA50003023012002F2E733B3FBF2F3C5F854319F
:10AA600070BD0138C5F85401002070BD903C002035
:10AA700088010020054B93F8B121002AFBD1D3F8BF
:10AA8000143D03491B6801F10C001847903C00205D
:10AA9000443E002038B58368044613B11A689B8889
:10AAA00053836068828940F2E9330289013B12F0E6
:10AAB000020F9BB236D0F523838140F2E93302893D
:10AAC000013B12F0010F9BB226D08389838940F2AB
:10AAD000E9330289013B12F0020F9BB217D0FF232A
:10AAE000838140F2E9330289013B12F0010F9BB2EE
:10AAF00008D08589EDB2A36813B11A689B881383C7
:10AB0000284638BD002BEED141F066F8F3E7002B64
:10AB1000DFD141F061F8EEE7002BD0D141F05CF8D5
:10AB20006068D3E7002BC0D141F056F86068CDE7EC
:10AB300070B52E4D95F8184D022C84B01AD0012C0A
:10AB400002D0002004B070BD95F91C4D631CF8D0F4
:10AB5000032CF6DC0091134695F81D1D0246204695
:10AB600050F0D0FF0028ECD0204604B0BDE8704083
:10AB700051F0D0B8D5F8203D13B11C689B88638391
:10AB8000D5F81C6DB38940F2E9343389013C13F0E8
:10AB9000020FA4B219D084B2B48140F2E9343389EF
:10ABA000013C13F0010FA4B21BD0B3891346304609
:10ABB0000A46002150F01EFDD5F8203DA3B11A68C9
:10ABC0009B881383012004B070BD002CDDD130467A
:10ABD000CDE9021241F000F8DDE90212D5F81C6D52
:10ABE000E4E7002CDBD1F2E70120ABE7903C00204A
:10ABF00010B50278022A044613D0012A01D00020A1
:10AC000010BD2D4B90F9040083F8582D421CF6D04E
:10AC10000328F4DC0A4603F658536179BDE8104076
:10AC200046E6836813B11A689B88538363689889E2
:10AC300040F2E9321889013A10F0020F92B225D0A1
:10AC400089B2998140F2E9321989013A11F0010F74
:10AC500092B22BD09A899A8940F2E9321989013A45
:10AC600011F0020F92B21ED001229A8140F2E93215
:10AC70001989013A11F0010F92B20ED09B89A36895
:10AC8000BBB11A689B881383012010BD002AD1D163
:10AC9000184640F0A1FF6368DDE7002AE8D11846B6
:10ACA00040F09AFFEBE7002AD8D1F8E7002ACBD191
:10ACB000EEE7012010BD00BF903C00202DE9F04FD1
:10ACC0002DED108B034697B004331593DFEDCACA00
:10ACD000149002238A4613928B461293149C4FEAD7
:10ACE000DB0604EB461202EB06103101A6EB8603ED
:10ACF0004FEAC60806EB4605CDE9000100EBC303A9
:10AD0000043108F104001196204421442C01C6EBC3
:10AD1000C60C0394EC00119D04944FEACC040594F6
:10AD20006C0106EB860E0294159D009C03EB461702
:10AD30004FEACE0E02EBC6064FEACB094FF0000CED
:10AD400051ED01AAD3ED001A92ED007A94ED005A6C
:10AD500096ED004AD7ED007A15ED012A50ED016A13
:10AD600032EE07BA76EE840A7AEE855A31EEA70AF9
:10AD70003BEE256A70EE804A76EEC46A36EE244ACF
:10AD800036EE646A05ED014A82ED006AD0ED00BA44
:10AD9000D6ED012AD3ED019A95ED00AA92ED016A54
:10ADA00097ED013A91ED00CAD4ED014A7BEEE23A0B
:10ADB00036EEE19A32EE472A73EEE98A3AEE464AD7
:10ADC00039EE279A78EE838AB0EE428AA9EE6C8A31
:10ADD000DC44E24573EEC33AB0EE441AA8EEEC1A36
:10ADE00076EEE77A33EEA97A7CEE643A77EEA17AD2
:10ADF0003AEE066A7AEEC51A3CEE24AA74EECC4A04
:10AE000039EE833A35EE6A5AF0EE639AF0EE48AACC
:10AE1000E7EE2C9AA8EEAC4AE7EE2C4AE7EE6CAAD5
:10AE2000F0EE418AB0EE427AB0EE612A7BEE656ABE
:10AE30007BEEA22A76EE4A5AA9EE2C7AA7EEAC2A2D
:10AE4000A7EEAC5AE7EEEC8A32EE83BA76EEC3BADE
:10AE500035EEE09A75EEC07A36EE0A6A76EEE26A70
:10AE600036EE0BAA76EE836A77EEA07A34EE423A9B
:10AE700077EE290A36EE4B6A7BEEA22A39EE000AFB
:10AE800073EEAA3A78EE244A37EE697A31EE055A23
:10AE900071EEA85A32EE044A85ED00AA82ED016AED
:10AEA0004D4441ED012A4A44C4ED006A81ED000A97
:10AEB000C4ED017A494440ED010A4C4487ED007A23
:10AEC000C6ED003AC3ED004A80ED003A87ED014A35
:10AED000484486ED015A4F44C3ED015A4E444B4459
:10AEE0003FF62EAF119B072B40F2C781029D149EA7
:10AEF000019B03980499059A083575190C330E9532
:10AF0000354608F108080EF10804EB18083008313E
:10AF1000083246442C1928186918AA18079305F115
:10AF20000C030D960C940B900A91099208934FF024
:10AF300001084FF0000E129B9E44139B03EBCE03BF
:10AF400003EBCE02109302EBCE0303EBCE01029192
:10AF500001EBCE0101EBCE0505EBCE06D6ED007A76
:10AF60000F93AEEB8E03019106EB031303EBCE07B9
:10AF7000D3ED01AACDED067A019BD5ED007A97EDD0
:10AF800001BACDED057AD3ED007A029BCDED047ABE
:10AF9000D3ED007A0F9BCDED037A07EBCE0CD3ED0A
:10AFA000007ADCED01BACDED027A0CEBCE01D2EDE8
:10AFB000007A109A009101EBCE00014691ED01DA82
:10AFC000CDED017A0099D2ED007A91ED01CA00EB46
:10AFD000CE0000EBCE0494ED01EAD0ED01DACDED28
:10AFE000007ADDE90776DDE90954DDE90B01DDE9E9
:10AFF0000D23C44602E000BFF304353F94ED009AF0
:10B0000090ED00FA91ED006AD5ED007AD3ED006A7B
:10B0100057ED014A92ED005A56ED013A96ED00AA1D
:10B0200035EE060A73EEA65A39EE278A34EE8F7A89
:10B0300070EE082A75EE87EA35EE465A3EEEA26AB1
:10B0400073EEE63A06ED016AD1ED019AD2ED01FA0E
:10B05000D4ED016AD3ED011A95ED013AD0ED018AE4
:10B0600097ED004A3FEEE96A35EE491A76EE660A38
:10B0700031EE271A3AEE612A75EE677A70EE830A8E
:10B080003FEEA95A74EECF9A77EE897A7AEE211ABA
:10B09000B0EE42AA74EE68FAA0EEECAADC44E245F7
:10B0A00035EEC77AB0EE639A74EE285A38EEC44A89
:10B0B000F0EE698AA1EE6C9AE7EEAC8A36EE436A4E
:10B0C0007FEE644A36EE266AA0EEAC2AF0EE4A0A1B
:10B0D000E7EEEC0AE7EEAC4AF0EE687AF0EE498A69
:10B0E00036EE833AE6EE6C8AE1EE2C3AB0EE6F1A59
:10B0F000A6EE2C1A71EEE56AA6EE2C4A71EEA55A60
:10B1000075EE031A7EEEE22A37EE43FA75EEE1EAB7
:10B11000B0EE686A76EEC08A39EE044A7FEE86FAAF
:10B1200076EEC86A33EE816A38EE888A73EEC13AE9
:10B1300037EE457A2CEE2E1A3FEE055A22EECC9AC7
:10B140009DED03FA70EE266A33EE077AAFEE221A0F
:10B15000AFEE2E9A7AEE244A9DED01FA79EEA09A8E
:10B1600025EE4BAA72EE670A37EE822A6BEE087A5A
:10B17000AFEE08AAEFEE057A2DEEA63A9DED05FAA0
:10B1800067EE6D8AAFEE073AEFEE268A66EE6A2A20
:10B190009DED00FA2AEEA00AEFEE202A6EEE02EAFA
:10B1A000DDED060A23EECE5AE0EEA3EA2BEEA98AE5
:10B1B000DDED023AAFEE060AA3EE848A24EE6B7A46
:10B1C0006DEE246A9DED044A2FEECD6AA0EE825A00
:10B1D000A3EEA97AE4EE2F6AA4EE246A75EEA15AD2
:10B1E000C6ED005A83ED001A83ED019A4E4447EDF7
:10B1F000017A87ED00AA4B4480ED003AC0ED018A48
:10B200004F4482ED000A4844C2ED012AC5ED00EA30
:10B2100085ED015A4A44C1ED006A81ED016A4D4451
:10B2200084ED008A84ED017A49444C443FF6E6AE51
:10B230000E9B08330E930D9B08330D930C9B083324
:10B240000C930B9B08330B930A9B08330A93099BBF
:10B2500008330993089B08330893079B0833079327
:10B26000119B08F1010843457FF465AE129BDDF8A0
:10B2700044B0DB009BB2129330E517B0BDEC108BED
:10B28000BDE8F08F036870B55E6A26B133460522CB
:10B29000BDE87040184704460D464E1D00E0236887
:10B2A0009B68204698470028F9D0236815F8011BB1
:10B2B0001B6820469847B542F1D170BD2DE9F04793
:10B2C000154B054603F66854002093F9618D84B050
:10B2D0006F1804F5287A06464FF0B6092368ABB11B
:10B2E00093F83830142B11D018F1020F01D04345D8
:10B2F0000CD1002269462046CDE90266CDE900570F
:10B30000ADF808908DF80E6032F056FFE034A2459B
:10B31000E4D104B0BDE8F087903C0020F0B40D68A3
:10B3200000240CE0BCF1050F18D8A0F137030A2B5C
:10B3300014D104EB840415F8010B03EB4404A0F1D1
:10B340003003DEB2092EA0F16107A0F1410CF0D963
:10B35000052FE7D8A0F157030A2BEAD00D6014603F
:10B36000F0BC70472DE9F743124E0124A0231825A5
:10B370005FFA84F8FF2B14DC56F8F00CE9B2C1F147
:10B380001C0282725F1C026880F80B80DBB20093A3
:10B39000C1F11B01D2F8189000234246C9B2C84738
:10B3A0003B46013DE6D10134052CE0D103B0BDE8B8
:10B3B000F08300BF884D002010B50A4C14F8D30C60
:10B3C000003818BF0120FDF771F950B10649A4F10A
:10B3D000EC0040F04DFBA4F1EC0011F0D3FEA4F121
:10B3E000EC0010BD884D0020A80C06082DE9F041A6
:10B3F000BF4BC04EC04DC14C0822C3F88820336BF0
:10B4000082B043F00103336307464FF4C05228462D
:10B4100040F2023388466946CDE9002309F0E8FE90
:10B420006B6AC4F8208523F470436B626B6AC4F8BE
:10B43000287543F420436B626B6AB149C4F8241544
:10B4400023F470236B626B6AAE4844F8C40C43F477
:10B4500020236B62736CAC4944F8C01C43F48043F6
:10B460007364736BA948AA4944F8B40C43F0800391
:10B4700002257363A74F04F8BC5CA74EA74D44F8A0
:10B48000701C4FF0A04344F8B83CA54A44F8A87C8F
:10B4900003F53463A1F5D07144F86C5C44F8A46CF6
:10B4A00044F8683C44F8A01C0123DFF8A4C244F827
:10B4B000ACCC07F51077A5F5E465A6F5A066A1F577
:10B4C0008C6144F8647C44F8B05CA66004F8B93C34
:10B4D00005F5A075536106F5B07644F8341C84F880
:10B4E0004E3019468F4B904A44F82C5CA7F5BC6748
:10B4F000A03544F8206C8D4E44F8247C44F81C3C64
:10B5000007F5D45703F5695344F8185C4FF05025FC
:10B510000020DFF840E2E260ACF5687C02F5A04272
:10B520002761666107F5A04706F5A046A361E561BE
:10B53000A3F54853A4F1C405C4E909762262A364C3
:10B5400044F830EC44F828CC02462B4684F85000EE
:10B55000402683F81C21A3F822210132042AC3E9E2
:10B56000496083F81D1183F81F01C3F8300103F10E
:10B570002803EED1002211462B46402083F8742385
:10B58000A3F87A230132042AC3E9DF0183F8751393
:10B5900083F87713C3F8881303F12803EED14FF033
:10B5A000A04363489A6822F001029A60DA6842F088
:10B5B0004002DA6008F06EFF14F8BB3C0022212143
:10B5C00061F317420BB142F4801214F8C11C54F815
:10B5D000B83C01299A6300F0E280DA68A66C54F85E
:10B5E000B40CC2F3076121F0600141F0400161F346
:10B5F0001F620021DA603160026861F3CC220260D0
:10B6000014F8B92C012A00F0B7801021494809F03C
:10B6100093FA484809F076FA54F8B40C14F8C33C8D
:10B6200000224FF0FF31026142618161C26153B378
:10B6300005F11407404E114607EB83074FEA830CD0
:10B640004FF0FF0E56F8042F1368002BACBF0023F9
:10B650004FF09043B74213601161C2F808E0F1D196
:10B6600005F15003354963440027FF2651F8042FA4
:10B670001568002DACBF00254FF09045994215602C
:10B6800017619660F2D1036914F8C11C43F480730A
:10B690000129036160D054F8B82C29480023936134
:10B6A00000294FF0FF336FF08041516153605161C9
:10B6B00014BF00231023906143F470139069D4F8F1
