:020000040800F2
:10000000F0FF001009820508E1E400084D8F0408A4
:10001000A9820508A9820508A98205080000000038
:10002000000000000000000000000000DDE4000807
:10003000D9E4000800000000D5E400081980040895
:10004000A9820508A9820508A9820508A9820508D0
:10005000A9820508A9820508F59F040821A10408C2
:10006000E5A00408A9A004086DA0040855680508C7
:1000700045680508356805082568050811680508FC
:10008000FD670508E9670508A9820508A982050832
:10009000A9820508A9820508A982050831A00408DB
:1000A000ED690408756A0408DD6904089D6A04089E
:1000B000656A0408556A0408456A040869710508F8
:1000C000717105085D71050865710508A98205084B
:1000D000A98205086D830408B1820408F58104082B
:1000E000B99F0408A9820508BD0B0108CD69040861
:1000F000FD690408BD690408256A0408D567050878
:10010000A9820508A9820508356A0408A98205089C
:1001100039810408A982050845850308318503084B
:10012000C1670508AD670508996705088567050873
:1001300071670508A9820508A9820508A982050832
:10014000A9820508A9820508A982050871DE0008B0
:100150005D67050849670508356705087D8004085F
:100160005171050859710508A9820508A982050879
:10017000A9820508A9820508A9820508A98205089F
:08018000A9820508A982050807
:08018800B87D05000100000034
:100190000E02010002000000B0490020B449002016
:1001A00000000000B0080008051001000600000073
:1001B0002C490020B849002000000000B2080008C7
:1001C0001302010004000000CC210020C0490020DF
:1001D00000000000B8080008122001001100000013
:1001E0009C490020C449002000000000BC08000811
:1001F0000D1001006400000050480020D849002084
:1002000000000000C1C503080400080080000000D1
:10021000904700203C4A0020000000000000000041
:10022000090201000100000038470020BC4A0020FC
:1002300000000000CE080008FD01010024000000BD
:10024000F0460020C04A00200000000023470408B8
:10025000FB01010001000000AC460020E44A002040
:1002600000000000C5D10408FC01010009000000E5
:1002700078450020E84A002000000000D5D104089D
:10028000F7010100060000006C450020F44A002040
:1002900000000000D0080008F9010100040000007F
:1002A00068450020FC4A002000000000CD470408FB
:1002B0000A8001002800000040450020004B00207B
:1002C00000000000390F0208160215003F00000070
:1002D00020220020284B00200000000055D10408F7
:1002E00034000100100000006C440020684B002026
:1002F00000000000B94202081102010008000000DD
:1003000044440020784B002000000000D60800087C
:1003100012120100040000003C440020804B002029
:1003200000000000DE080008182001003200000074
:1003300008440020844B002000000000FDCB04088E
:10034000FF11010006000000CC430020B84B002044
:100350000000000019CB0408081203000F00000081
:10036000D8430020C04B0020000000003DCB040813
:10037000061001001C00000004220020D04B0020C9
:1003800000000000F1D10408000201000B00000091
:100390007C3A0020EC4B00200000000035CB040824
:1003A000FE010100140000003C390020F84B002041
:1003B00000000000E9CA0408231201001000000038
:1003C000E87E00207C83002000000000E408000894
:1003D000371001002E000000248300208C830020B1
:1003E00000000000F40800081610010006000000DC
:1003F000E07E0020BC8300200000000022090008ED
:100400002F1001002200000058830020C483002028
:1004100000000000280900081E000100090000007B
:10042000187D0020E8830020000000004A09000831
:10043000F581010068000000707C0020F48300203A
:1004400000000000EF16010823200100100000004A
:10045000B07F00205C840020000000004D100208E6
:10046000FD07010076000000AE7B00206C840020B8
:1004700000000000C5160108261001000E00000053
:10048000F4840020E4840020000000006D150108C1
:100490000B3001001A000000947B002034850020FE
:1004A00000000000540900081F3001002400000073
:1004B000AC7D00205085002000000000700900087D
:1004C00005020100040000007C7F002074850020EC
:1004D0000000000094090008030101000A00000068
:1004E000307D002078850020000000009111010877
:1004F000140001000400000080950020AC9500204D
:100500000000000098090008012001000C00000014
:10051000C48B0020B0950020000000009C0900085A
:100520000EF003009E010000DC880020BC95002036
:1005300000000000D53102080101010004000000A4
:10054000AC8800205C970020000000000000000044
:100550000001010004000000A48800206097002032
:1005600000000000A80900080201010003000000CB
:10057000A08800206497002000000000B14C030810
:10058000220201001C010000109100206897002049
:10059000000000005DCD04080C200600CC00000027
:1005A000A08A00208498002000000000554E030817
:1005B0001B02010010000000A08E002050990020B6
:1005C00000000000A5CB0408203201000A00000052
:1005D0007CA6002088A6002000000000E12302087D
:1005E000150010007000000088A4002094A60020D0
:1005F00000000000000000002A0008006000000069
:1006000098A3002004A7002000000000AD310208DC
:100610002C0004001000000074A7002064A7002034
:1006200000000000B92102082B0012002400000085
:10063000A8A7002084A70020000000008D21020848
:10064000292014007800000078A10020CCA7002009
:100650000000000000000000F62101000C00000076
:10066000D09F002044A8002000000000AC09000832
:100670001C0202001C000000789F002094A80020AB
:1006800000000000C5CC040828200100180000006C
:10069000949F0020B0A8002000000000212502083F
:1006A000031201003D000000ECAD002030AE002040
:1006B00000000000B809000825201E002C010000E1
:1006C00050AB002070AE00200000000000000000D1
:1006D000101001000200000038AB00209CAF002089
:1006E00000000000F6090008F821010006000000E3
:1006F00018AB0020A0AF002000000000F80900089F
:1007000019000100050000006CAA0020A8AF00201D
:1007100000000000FE0900081A0001000E000000A1
:10072000F4A90020B0AF002000000000040A000877
:10073000290201004000000068B2002034B8002007
:1007400000000000140A00080A0201001400000062
:100750009CB7002094B8002000000000F553030867
:100760000300010001000000F8B70020A8B8002035
:100770000000000000000000130001000400000061
:1007800024B80020ACB8002000000000540A000883
:10079000381001000100000078BB00206CBC002074
:1007A00000000000580A0008020001000C000000D0
:1007B000DCBB002070BC0020000000000000000036
:1007C0002802040004000000D8BD00207CBF0020E7
:1007D00000000000A1CB0408270204000400000070
:1007E000D4BD002080BF00200000000095CB04088D
:1007F0001F02080010000000C4BD002084BF0020BC
:100800000000000095CA04081A0201003C00000024
:1008100088BD002094BF00200000000001CE040825
:10082000060203000C00000060C0002054C000203D
:100830000000000041CD0408270001000400000072
:10084000F4BF00206CC00020000000005A0A00081D
:100850001002010001000000B0D40020ACD4002040
:10086000000000005E0A000807020100020000000C
:1008700094D40020B4D4002000000000600A0008D6
:10088000020201000300000084D40020B8D400203C
:1008900000000000000000001D0202000600000031
:1008A0007CD40020BCD40020000000000000000028
:1008B00000002000020100000000011900000001FA
:1008C00000000546344259000008000200001000F4
:1008D0005500010000000000000001010101FFFFC0
:1008E000FFFF00000000000000000000000000000A
:1008F0000000000020003200C800D007960014005D
:10090000320028004C0440060005500014000F007F
:10091000080064000100010005000A000000F40165
:100920009600C4090000190000000000000000004B
:1009300000000000000000000000000000000000B7
:1009400000000000000000000000000501000000A1
:1009500000000000AE014A015E012C0164010200AA
:10096000000001000A019A01001E0A0000020000B6
:10097000000000000001000000050000010203006B
:100980000000000000000000000000000000000067
:10099000008007000000000003000023E80364005B
:1009A000040A000114001E00900100000000000075
:1009B0000100000002020000000000000000000032
:1009C0000000000000000000000000000000000027
:1009D0000000000000000000000000000000000017
:1009E0000000000000000000000000000000000007
:1009F00000000000010000050101F40114000000E6
:100A0000280100007E05EA05B4053200E803D0079E
:100A100000000000000000000000000000000000D6
:100A200000000000000000000000000000000000C6
:100A300000000000000000000000000000000000B6
:100A400000000000000000000000000000000000A6
:100A500000000000080040300000200300000000FB
:020A6000023C56
:100A62000403090412010002EF020140830456321A
:100A72000002010203010000120100020202004012
:100A82008304405700020102030100001A03000020
:100A92000000000000000000000000000000000054
:100AA200000000000000000004030904120100021B
:100AB20000000040830420570002010203010000ED
:100AC20009022000010104C03209040000020806E4
:100AD20050050705810240000007050102400000A1
:100AE20009026400030100C032090400000103008E
:100AF20000000921110100012236000705830309C4
:100B0200000A080B010202020100090401000102AD
:100B12000201000524001001052401000204240240
:100B2200020524060102070582030800FF090402E8
:100B320000020A00000007050102400000070581CB
:100B42000240000009024300020100C03209040011
:100B52000001020201000524001001052401000128
:100B6200042402020524060001070582030800FF8F
:100B720009040100020A000000070501024000000A
:100B82000705810240000000FF0000000501090581
:100B9200A101A100050109300931093209330935E2
:100BA2000934093609371581257F750895088102B0
:100BB2000509190129081500250195087501810209
:100BC200C0C0000009022200010100E03209040055
:100BD2000001030102000921110100012236000770
:100BE20005830309000A0000006002401060024011
:100BF2000000000000000000000B000000000000E8
:100C02000000000000000000006002402860024076
:100C12000100000000000000060C000000000000BF
:100C2200000000000000000000600240406002403E
:100C32000200000000000000100D00000000000093
:100C42000000000000000000006002405860024006
:100C52000300000000000000160E0000000000006B
:100C620000000000000000000060024070600240CE
:100C72000400000000000000200F0000000000003F
:100C82000000000000000000006002408860024096
:100C92000500000000000000261000000000000017
:100CA200000000000000000000600240A06002405E
:100CB20006000000000000003011000000000000EB
:100CC200000000000000000000600240B860024026
:100CD2000700000000000000362F000000000000A6
:100CE20000000000000000000064024010640240A6
:100CF20000000000000000000038000000000000BA
:100D0200000000000000000000640240286402406D
:100D12000100000000000000063900000000000091
:100D22000000000000000000006402404064024035
:100D32000200000000000000103A00000000000065
:100D420000000000000000000064024058640240FD
:100D52000300000000000000163B0000000000003D
:100D620000000000000000000064024070640240C5
:100D72000400000000000000203C00000000000011
:100D8200000000000000000000640240886402408D
:100D920005000000000000002644000000000000E2
:100DA200000000000000000000640240A064024055
:100DB20006000000000000003045000000000000B6
:100DC200000000000000000000640240B86402401D
:100DD200070000000000000036460000000000008E
:100DE20000000000000000007D00000001820008F9
:100DF200FD810008F9810008ED810008E981000801
:100E0200F5810008F18100084DAB0008C19E000881
:100E1200B986000839030108B50301085105010824
:100E2200ED830008B1830008A983000801000000D7
:100E32000000803F3D9D00085D9C0008F18E000887
:100E4200C584000869A00008D5840008F184000860
:100E52009D8400088D84000800000000000000004E
:100E6200A1020108A5010108910201083D820008C2
:100E72003D020108E501010839820008F005002061
:100E8200CDA10008ADA1000899A000080000000053
:100E9200000000002D9B0008499A00080000000095
:100EA200000000000000000039840008C58200082C
:100EB200B98200087D9E0008999E00087182000890
:100EC200619E0008459E0008008002021F0000008B
:100ED20053544D202020202050726F6475742020BE
:100EE2002020202020202020302E303100FF000042
:100EF200000000000000AA55070100000101AA55E8
:100F0200050100007EFF0000FFFFFFFF0800000058
:100F12004CC70508FF1FFF1F000000000102030469
:100F220001020304060708092D202D2D202D2D2D49
:100F32002D202D2D2D2D00000000000000000000AE
:100F420000000000000000AA550B010000AA550590
:100F5200010000AA550902000000AA5503009F00E3
:100F620001000000C01200002C85002000000000DB
:100F72000485002000000000143B0608903A060891
:100F820000000000394D0308A086010004000000A3
:100F9200000000000000000000000000000000004F
:100FA200000000000000000000000000000000003F
:100FB2000000000000000000143B06081C3B06086D
:100FC2000000000031550408E8030000040000009E
:100FD200000000000000000000000000000000000F
:100FE20000000000000000000000000000000000FF
:100FF2000000000000000000243B06080000000082
:1010020000000000F94E03087D000000FF00000010
:1010120000000000000000000000000000000000CE
:1010220000000000000000000000000000000000BE
:101032000000000000000000988F06080000000079
:10104200000000005D5903087D000000FF00000061
:10105200000000000000000000000000000000008E
:10106200000000000000000000000000000000007E
:1010720000000000000000009C450608000000007F
:1010820000000000658F03087D000000FF000000E3
:10109200000000000000000000000000000000004E
:1010A200000000000000000000000000000000003E
:1010B20000000000000000002C3B060800000000B9
:1010C20000000000954B0408E80300000300000044
:1010D200000000000000000000000000000000000E
:1010E20000000000000000000000000000000000FE
:1010F2000000000000000000303B06080000000075
:1011020000000000EDE202081027000003000000CA
:1011120000000000000000000000000000000000CD
:1011220000000000000000000000000000000000BD
:101132000000000000000000A08B06080000000074
:10114200A11D0208B18F04085F76000005000000AF
:10115200000000000000000000000000000000008D
:10116200000000000000000000000000000000007D
:1011720000000000000000003C8F06080000000094
:101182000000000025B40408102700000100000040
:10119200000000000000000000000000000000004D
:1011A200000000000000000000000000000000003D
:1011B20000000000000000003C3B060800000000A8
:1011C2000000000089450408E80300000500000053
:1011D200000000000000000000000000000000000D
:1011E20000000000000000000000000000000000FD
:1011F2000000000000000000483B0608000000005C
:101202000000000049560308204E000003000000C1
:1012120000000000000000000000000000000000CC
:1012220000000000000000000000000000000000BC
:101232000000000000000000583B0608000000000B
:101242000000000031540308204E0000030000009B
:10125200000000000000000000000000000000008C
:10126200000000000000000000000000000000007C
:101272000000000000000000683B060800000000BB
:1012820000000000A9510408400D03000300000003
:10129200000000000000000000000000000000004C
:1012A200000000000000000000000000000000003C
:1012B2000000000000000000783B0608000000006B
:1012C20000000000E51304081027000001000000E0
:1012D200000000000000000000000000000000000C
:1012E20000000000000000000000000000000000FC
:1012F2000000000000000000BC3A060800000000E8
:101302000000000019A101081027000003000000DE
:1013120000000000000000000000000000000000CB
:1013220000000000000000000000000000000000BB
:101332000000000000000000803B060800000000E2
:10134200000000003D4C0208A086010001000000E0
:10135200000000000000000000000000000000008B
:10136200000000000000000000000000000000007B
:101372000000000000000000883B0608000000009A
:1013820000000000154A040850C3000001000000DC
:10139200000000000000000000000000000000004B
:1013A200000000000000000000000000000000003B
:1013B2000000000000000000903B06080000000052
:1013C20000000000B5F50308A8610000010000005C
:1013D200000000000000000000000000000000000B
:1013E20000000000000000000000000000000000FB
:1013F20000000000000000009C3B06080000000006
:1014020000000000A9E80108A08601000100000018
:1014120000000000000000000000000000000000CA
:1014220000000000000000000000000000000000BA
:101432000000000000000000A83B060800000000B9
:101442000000000041C60308A00F000001000000D8
:10145200000000000000000000000000000000008A
:10146200000000000000000000000000000000007A
:101472000000000000000000B43B0608000000006D
:1014820000000000B57E01081A41000001000000C2
:10149200000000000000000000000000000000004A
:1014A200000000000000000000000000000000003A
:1014B2000000000000000000B83B06080000000029
:1014C20000000000C91101081027000001000000FF
:1014D200000000000000000000000000000000000A
:1014E20000000000000000000000000000000000FA
:1014F2000000000000000000A43A060800000000FE
:10150200000000008DF2010850C30000010000003D
:1015120000000000000000000000000000000000C9
:1015220000000000000000000000000000000000B9
:101532000000000000000000C43B0608000000009C
:10154200000000004D220108400D030000000000D1
:101552000000000000000000000000000000000089
:101562000000000000000000000000000000000079
:101572000000000000000000CC3B06080000000054
:10158200000000007DC50308400D030000000000BC
:101592000000000000000000000000000000000049
:1015A2000000000000000000000000000000000039
:1015B2000000000000000000D43B0608000000000C
:1015C2000000000065D5010850C3000003000000C0
:1015D2000000000000000000000000000000000009
:1015E20000000000000000000000000000000000F9
:1015F2000000000000000000E03B060800000000C0
:10160200000000007989030840420F00000000003A
:1016120000000000000000000000000000000000C8
:1016220000000000000000000000000000000000B8
:101632000000000000000000EC3B06080000000073
:101642000000000019C6030850C30000000000009B
:101652000000000000000000000000000000000088
:101662000000000000000000000000000000000078
:10167200000000000000000001007F0001000000E7
:10168200D18B0108000000000000000020C90508FD
:10169200000000000000000019BC0108409000207A
:1016A20000000000000000000000000044E1050806
:1016B200000000000000000000000000FCE105083E
:1016C200000000000000000000000000A8E1050882
:1016D2000101000079E101080000000000000000A3
:1016E200D0E20508A1E401080000000000000000AB
:1016F20088E205082D202D2D202D2D2D2D202D2D7C
:101702002D000000000000000000000000000000AA
:1017120000000000FFFFFFFF71D001080000000081
:1017220000000000D4E0050801000000FA000000FB
:101732000100000001000000BC8B00200000F40149
:1017420001000000BA8B00200000F401010000003B
:10175200B88B00200000F40101000000B68B0020CD
:101762000000F40101000000B48B00200000F4012D
:1017720001000000B28B00200000F4010100000013
:10178200B08B00200000F401010000004D9301081D
:101792001193010800000000B8CE0508A08B0020BC
:1017A20005320100AE8B00206400F401010000004C
:1017B200AC8B00206400C409010000009E8B002055
:1017C200E803D007010000009C8B0020E803D0074B
:1017D200010000009A8B0020E803D00701000000FE
:1017E200988B00201E00B80B01000000A68B002081
:1017F20005000F0001000000A88B002003000A0072
:1018020001000000968B00201E00F4010100000080
:10181200AA8B00200200000044CF0508948B002010
:101822001400640001000000A28B00203200E803D3
:1018320001000000928B00200000C800010000009F
:101842009D8A002000C801009C8A002000500100EF
:101852009B8A0020005A0100998A002002000000A1
:1018620050CF0508683D0608703D0608DA4800209A
:101872000100C40900000000D84800200100C4098A
:1018820000000000D64800200100C409000000004A
:10189200D44800200100C40900000000D048002004
:1018A2000100C40900000000D24800200100C40960
:1018B20000000000CE4800200100C4090000000022
:1018C200CC4800200100C40900000000C7880020A5
:1018D20000C80100C688002000C80100C48800209A
:1018E2000000FFFF0A000000C28800200100C800BB
:1018F20001000000C0880020320030753200000074
:10190200BE88002005820500BC88002005002C014D
:1019120005000000BB880020055A0500B888002099
:1019220000FF0100BA880020020000008C0F002096
:10193200B6880020030000001CC40508B7880020F8
:1019420000FF0100B9880020020000008C0F002077
:10195200B5880020030000001CC40508A1920108FC
:1019620031920108000000005CCF0508D48B0020F2
:10197200EE02CA0801000000D28B002000C801005C
:1019820064000000D18B002000C801006400000048
:10199200D08B00200200000068D00508B288002029
:1019A2000000803E05000000B088002080C1803E1B
:1019B20005000000AA8800200083007D05000000C9
:1019C200A888002080C1803E05000000A388002076
:1019D20000FF01009C8800206400F4010100000067
:1019E2009A8800200400000074D00508998800201D
:1019F2000200000088D00508DA8B00203E000000BB
:101A020094D00508D88B00200100FF7F0100000060
:101A1200D78B00200200000090D10508CE8800205C
:101A220003000000A0D10508CD88002003000000BB
:101A3200A0D105088A8A0020000A0100888A0020B5
:101A42000000E80301000000868A00200000E8038D
:101A520001000000848A00200000E8030100000069
:101A6200828A00200000E803010000007A8A002038
:101A72000000E80301000000808A00200000E80363
:101A8200010000007E8A00200000E803010000003F
:101A92007C8A002000140100988A002002000000C5
:101AA200B0D10508968A00200000F4010100000070
:101AB200948A00200000F40101000000928A0020B4
:101AC2000000F40101000000908A00200000F401EF
:101AD200010000008E8A00200000A00F010000001B
:101AE2008C8A00200000A00F010000007F8B0020E4
:101AF200196401007E8B002002000000BCD10508A1
:101B02007C8B0020E803D0070A0000007A8B0020BB
:101B1200006401000A0000006F8B002000640100D5
:101B22006E8B002000640100768B002000640100AF
:101B32000A000000758B0020006401000A0000000A
:101B4200748B0020006401000A000000798B0020E1
:101B520000FF01000A000000788B002000FF010056
:101B62000A000000778B002000FF01000A0000003D
:101B7200738B002001FF01000A000000728B00201D
:101B820001FF01000A000000718B002001FF01002B
:101B92000A000000D88800200000F40101000000C3
:101BA200D68800200000A00F01000000D488002089
:101BB2000000A00F01000000D28800200000A00F4A
:101BC20001000000D08800200000A00F01000000EA
:101BD200A78F002000C80100A68F0020006401002A
:101BE200A58F002000640100A48F00200064010082
:101BF200A38F002000640100A28F0020FF080100D3
:101C0200A18F002001640100999101085D910108F2
:101C120000000000C8D10508AA8F0020013201008F
:101C2200A98F00200100000038D20508A88F0020EB
:101C32000400000040D20508A08F002000640100CB
:101C42009E8F00201400E803010000009C8F0020FA
:101C5200E80330750A0000009B8F002000C80100D5
:101C62009A8F002000C80100998F002000C801004F
:101C7200988F002000320100AC8F0020004B010041
:101C8200AB8F00200400000054D20508978F00207B
:101C9200006401000A000000BA8F00200000D00793
:101CA20001000000B58F002000C80100B48F0020A1
:101CB20000C80100B38F002000C80100B88F0020C7
:101CC2000000D00701000000B28F002000C8010010
:101CD200B18F002000C80100B08F002000C80100B1
:101CE200B68F00200000D00701000000AF8F002057
:101CF20000C80100AE8F002000C80100AD8F002097
:101D020000C80100A18F0108898F010800000000AE
:101D120068D20508CB880020005A0100CA8800203A
:101D220000C80100C8880020E803D00701000000B5
:101D3200000000000000000059BC010804D305089F
:101D42004634425900000000DD8E0108918E0108E0
:101D52000000000058D30508518E0108098E0108C1
:101D620000000000F4D30508F5B00108C1CB01085A
:101D72000000000074D40508B488002001030100AB
:101D820029940108FD93010800000000CCD7050842
:101D9200A58D0108598D0108000000003CD80508F6
:101DA20081CD01085594010800000000D8D805082B
:101DB200B18F0108000000000000000058D905089A
:101DC2008D9001083590010800000000BCD905087B
:101DD20021910108E59001080000000064DA05087D
:101DE200710D0208D591010800000000F0DA050823
:101DF200918B002001060100F98F0108C58F0108AF
:101E020000000000ECDB0508A50C020825CC010847
:101E1200000000005CDC0508BD0D0208EDCC0108E5
:101E220000000000ACDD0508908B002001030100DA
:101E3200598F0108298F01080000000080DE050883
:101E4200190E02080000000000000000E4DE050890
:101E5200F18D0108A9CB01080000000064DF05082C
:101E6200000000000000000000000000C8DF0508BC
:101E72000992010865CD0108000000002CE0050868
:101E820000000000000000000000000044E205081D
:101E9200287F00209CFF2C0100000000C09200203F
:101EA200E0150C1700000000958F002002000000D2
:101EB2007CE205089488002088136F170100000057
:101EC2009688002088136F17000000001E4900202A
:101ED20000000000000000001C490020000000007B
:101EE200000000001A49002000000000000000006D
:101EF20018490020000000000000000016490020E0
:101F02000000000000000000144900200000000052
:101F1200000000008C06002000000000000000000D
:101F22001C880020030000006CE305088C88002058
:101F320088136F1701000000727F002088136F174B
:101F420000000000998C0108000000000000000061
:101F52007CE30508968F002001000000D0E305080D
:101F6200747F002001000000DCE305086A7F002086
:101F720002000000E4E30508000000000000000089
:101F820000000000F0E30508818C01080000000059
:101F9200000000008CE405080000000000000000C2
:101FA20000000000E0E4050800000000000000005E
:101FB2000000000050E5050898880020020000009B
:101FC20088E505086E7F0020E0150C170000000070
:101FD200E89A00203C9B002001D601FF010000008E
:101FE2000001010100000000FFFFFFFF0000803F31
:101FF20000000000000000000000000000000000DF
:1020020000000000000000000000000000000000CE
:10201200000000000000803F0000000000000000FF
:10202200000000000000803F0000000000000000EF
:10203200000000000000803F0000000000000000DF
:1020420000000000010000000000FA430000FA4313
:102052000000803FFFFFFFFFFF000000F5150408AE
:10206200000000000000000000000000000000006E
:1020720084B80020080000000000000074B80020AE
:102082000800000001000000A00F0000B80B0000D3
:102092000102FFFF01000000685E0C004DA0000875
:1020A2004DA20008399C0008000000008984000845
:1020B200D98D0008819B00084D8D000800000000AA
:1020C2000000000045840008118200080582000813
:1020D2000D9E0008299E0008F19D0008D59D00086C
:1020E200B99D000805A0000829A20008859B0008E8
:1020F200000000005D840008518D0008559B000817
:10210200A98C0008000000000000000051840008B3
:1021120002FFFF00948B060800000802050303007B
:10212200000000009C8B0608010008020504030061
:1021320000000000AC5E06080200FE010110030070
:1021420000000000484006080300140200030000DB
:1021520000000000A48B060804001F020200080011
:1021620000000000AC8B060805001F0202010800F7
:1021720000000000FFFFFFFF00000401000000005C
:102182000000000210000000070000007C33060877
:102192000000000000000000010203040607080915
:1021A20001000000D0180020000000000000000024
:1021B200000000000000000000000000000000001D
:1021C200000000000000000000000000000000000D
:1021D20000000000000000000000000000000000FD
:1021E20000000000000000000000000000000000ED
:1021F20000000000000000000000000000000000DD
:082202000000000000000000D4
:082800000000000000000000D0
:1080000070B4C3080D4CE25C00F00706B24004EB0C
:10801000D004D2B20020C6F108038B4228BF0B4621
:10802000C3F108052A419840C91A40EA02004FF0FE
:10803000000614F8012FEED170BC704770190020B3
:10804000084AD2E91C31994209D0D118013391F87C
:1080500078100170C3F30A031367012070470020F2
:10806000704700BF30190020064AD2F87838D2F89D
:108070007C28934294BF4FF400600020013B9B1A80
:108080001844704730190020012380F851307047A0
:1080900007B501A8FFF7D4FF0028FAD09DF8040027
:1080A00003B05DF804FB044BD3E91C03984288BF7E
:1080B00003F50063181A704730190020012070473B
:1080C000024BC3F88028C3F8841870473019002089
:1080D000024BC3F88828C3F88C1870473019002069
:1080E0007047704730B4124DD5E91C239A4286BFC1
:1080F00003F50064A21A9A1A0A44B2F5006F12D866
:10810000A1B101444A1E013810F8014FE91882421A
:1081100003F1010381F87840C3F30A03F4D16B67DC
:10812000002030BC7047022030BC70470846F8E79A
:1081300030190020212838B50C4605D022282ED031
:10814000202813D0002038BD0029FBD0072AF9D100
:108150001A4BD3F8900893F8941893F8952893F84D
:108160009638206021716271A371EBE70029E9D094
:10817000072AE7D1114DD5F884381BB10968D5F825
:1081800080089847206821796279A379C5F890081A
:1081900085F8941885F8952885F89638D2E700294F
:1081A000D0D0022ACED1054AD2F88C38002BC9D0C3
:1081B0000988D2F888089847C4E700BF3019002022
:1081C000024B0020C3F89808704700BF3019002008
:1081D000044B00200522C3F89828C3F88C08C3F884
:1081E0008408704730190020704700BF704700BFF7
:1081F000704700BF704700BF704700BF704700BFA7
:10820000704700BF042301480B807047880100209D
:1082100010B4074A074B92F89C08122403F1140289
:108220000C8001280CBF184610465DF8044B7047BF
:10823000301900208C01002000207047002070477A
:108240000023F0B452004F1C1E46B0F1204F4FEAFD
:10825000107404F130052ABF3734CD54CC54FE5489
:1082600002339A424FEA0010EFD1F0BC704700BFD2
:108270000B4A0C4B10681B681A22C0180A8001D1E7
:108280000948704710B5094B09491C680822FFF7D7
:10829000D7FF204607490422FFF7D2FF024810BD4E
:1082A000E8F7FF1FECF7FF1FB4010020EAF7FF1FFC
:1082B000B6010020C6010020042301480B8070474E
:1082C000D0010020122301480B807047D401002008
:1082D000A0B182680D4B12B107229A7070471978CD
:1082E000DA6003294FF004000CBF80214FF4807145
:1082F000C3E901111A611A7598707047034B41F276
:10830000E47101225A545A70704700BF0C5C00207F
:108310000378022B10D0006908B9012070470C4B7C
:108320001B78032B0EBF0B4B80B24FF6F7739842AE
:1083300094BF0020012070470549436841F6500270
:108340008A58B3EB422F2CBF01200020704700BF9A
:108350000C5C0020F7FFFF0F0378022B14D030B421
:10836000104A4368006941F6480402F5C2511559A4
:10837000096841F63C042B4012595B0A023801FBA4
:108380000030104430BC7047064B426841F634015F
:1083900041F630005958185800EB410000EB5220CC
:1083A000704700BF0C5C002000487047581900203F
:1083B000034B93F82400032894BF0020012070474A
:1083C0003019002010B5084CE26D13899907FCD5CF
:1083D00013891B06F9D40A203FF05CFC206EBDE82F
:1083E000104040F08BBD00BF30190020034B93F8C4
:1083F0002400003818BF0120704700BF301900204A
:1084000010B40C4A92F8A03802EBC3010133DBB27E
:10841000042B4FF0050408BF00234FF4045081F8EB
:10842000A44882F8A038C1F8A8085DF8044B4FF0C2
:10843000FF30704730190020202301480B8070471F
:10844000E8010020642301480B80704708020020E7
:10845000432301480B8070476C02002010B5084C84
:10846000D4F82801FF2809D00649D1F8C42801F61C
:10847000C801FFF75FFEFF23C4F82831002010BDBC
:108480008801002030190020E8E700BF08B5D0F8C7
:10849000E4355B6A9847002008BD00BF08B5D0F8F6
:1084A000E4351B6A9847002008BD00BFD0F8E435CA
:1084B00010B504461B689847D4F8E8359B68984780
:1084C000002010BD08B5D0F8E435DB6903B198474A
:1084D000002008BD08B5042290F81211D0F8E83544
:1084E00080F8131180F81221DB689847002008BD3E
:1084F00010B5D0F8E83504461B699847032384F883
:108500001231002010BD00BF08B5124BD86D828912
:1085100040F2E9330289013B12F0020F9BB212D004
:10852000FF23838140F2E9330289013B12F0010FFE
:108530009BB202D08089C0B208BD002BF4D142F0BA
:1085400009FCC0B208BD002BE4D142F003FCC0B26C
:10855000F8E700BF3019002070B505460E46092423
:10856000FFF7D2FFFF2803D1013CF9D1012070BDF4
:10857000FE2801D0022070BD064933462A46C86D48
:1085800000214EF0B5FAFFF7BFFFFFF7BDFF002057
:1085900070BD00BF3019002010B51C4C00232362B1
:1085A000FFF7B2FFE06D828940F2E9330289013BB7
:1085B00012F0020F9BB217D0FD23838140F2E93302
:1085C0000289013B12F0010F9BB212D08389FFF7A1
:1085D0009BFFFF2812D1FFF797FFFF280ED104233E
:1085E000022084F8243010BD002BDFD142F0B2FB12
:1085F000EDE7002BE4D142F0ADFBE8E7D4F8D0384A
:1086000063610923002084F8243010BD3019002054
:1086100070B582B040F040060C0E05460A0A080C00
:1086200095238DF801408DF804108DF800608DF8C9
:1086300002008DF803208DF805300824FFF764FF51
:10864000FF2802D0013CF9D11DBB1A4BD86D06257D
:1086500083896E464FF47A734FF6FF713EB316F876
:10866000012B0489013BA4079BB215D593B28381EA
:108670004FF47A730489E40703F1FF3211D5013D09
:108680008289EBD10924FFF73FFFFF2802D1013C8B
:10869000F9D1FF2002B070BD8B42E2D142F05AFB0B
:1086A000F0E793B28B42E5D142F054FBEAE7FF22B8
:1086B000D7E700BF301900202DE9F843194C94F892
:1086C0002460042E0546894690461F4608D0082E91
:1086D00002D00020BDE8F883FFF75EFF0228F8D142
:1086E000206E40F005FCA37E93B969021120FFF7CC
:1086F0008FFF98B9D4F8D038C4F800900522C4E9A7
:108700000387656084F8242063610120BDE8F88355
:1087100029461120FFF77CFF0028EBD0FFF752FE1F
:10872000D7E700BF301900202DE9F04FCE4DDFF81C
:108730006883DFF8709384460F4616460FCD444693
:108740002DED068B0FC40FCD0FC495E807008BB03D
:1087500099F8D638029684E80700CDE906C7042BBD
:1087600000F25C81DFE813F0BA015A0155010500FF
:10877000CA019FEDBE8ADFEDBE8ABE49C8F81C1053
:10878000BD49BE4BBE4AC8F818100299002918BF4F
:10879000134638EE887AF5EE006A86EE87AAC8F8A6
:1087A0002430B84FB84B03930026DFEDB87A9FED25
:1087B000B89A28EE278AF0EE679A079BB34200F03A
:1087C0002281039B13F8014B039306F1010B5FFA1F
:1087D0008BF2002C00F09581DFF8CCC2002303E07F
:1087E0000133152B00F08D8103EB43015D001CF874
:1087F0000100A042F4D14944049291F8F1180029F3
:1088000000F0878120463EF0F5FA03680593824622
:1088100018463EF0DBFA9AF805103EF02FFC90F86F
:1088200000E0BEF1000F40F06C8109EB0500250966
:10883000013D049A059B80F831290321042D80F81D
:10884000301904F00F0C00F23581874800EB450029
:10885000808D40FA0CF414F0010400F03D810124F5
:1088600004FA0CF3013B184004924FF055FB7E4B89
:10887000DFF838C2049A1D44032195F838307A4D48
:1088800018440CEBC0037B619971DA715CF830001D
:108890009AF8082000F13F4101F57E0105EB912196
:1088A00091F8401001F01F054909032904FA05F465
:1088B00000F00D81042900F00581022900F0FD80FF
:1088C0009B880893B3FA83F3C3F11F03C3F3CC016E
:1088D00000EB810103F007030C6A9B000F259D400C
:1088E00024EA05040C620C6A02FA03F323430B62C8
:1088F000022308A909930CF08DF8DAF80030029AE7
:10890000002A00F0A380B9F8D42800EE102AB8EEAF
:10891000C00AFCEEC07A17EE901A5E4A934200F04D
:108920008280A2F5806293427DD002F5804293421C
:1089300079D002F58062934275D002F5806293424D
:1089400071D0D9F8DC2B50084FF6FF73B0FBF1F271
:108950001A44120CB0FBF2F20298002866D0B2FB67
:10896000F1F199F8D60804288BB264D007EE902A6A
:10897000F8EE676A66EE887A29EE677A99F8D70882
:1089800006990091A6EEA87A019051463846C7EDA7
:10899000027A87ED037A2FF0BDFA002E61DD7B6845
:1089A000D8F83820934200F08380012E59D0D8F8AF
:1089B000502093427CD0022E53D0D8F868209342A6
:1089C00076D0032E4DD0D8F88020934270D0042E5C
:1089D00047D0D8F8982093426AD0052E41D0D8F8D5
:1089E000B020934264D0062E3BD0D8F8C820D31ACA
:1089F00018BF01235E460122082E3B747A7407F1EA
:108A000018077FF4DAAE24480BB0BDEC068BBDE846
:108A1000F08F9FED228AF0EE488AAEE69FED208A25
:108A2000F0EE488AA9E6D9F8DC0B8DE799F8D6086C
:108A3000042819469AD107EE901A07EE102AF8EE8C
:108A4000677AF8EE476A67EEA97A95E7B0EE4A0AC8
:108A5000049350F075F9FCEEC07A049B17EE901A5F
:108A60005BE70123C6E700BFB0BA0508ACC5A7376E
:108A7000ACC5A736294E0308B94704088D4803083A
:108A8000AD470408480000100B2200206F12833A03
:108A900000007A44000401401400001028293038F6
:108AA0006F12033930190020202200208C22002070
:108AB00000239FE7C7F814E021E717494D6C2C43CA
:108AC0004C64FDE614490D6B2C430C63F8E6124927
:108AD0000D6C2C430C64F3E67C6110E79FED0F8A6C
:108AE0000F4BC8F8183000230E4A06930123029357
:108AF000C8F81C200C4BF0EE488A4AE69FED0B8A22
:108B0000EEE70B4A084BC8F81C20C8F824300020B8
:108B10007AE70B68FFDE00BF003802406F12833A2D
:108B2000B9470408294E0308AD47040800000000B7
:108B3000854B0308F8B51A4C94F8E03B002BFBD1A9
:108B400059B301444E1E451ED4F87C28D4F8781839
:108B500015F8017F531CC3F30A038B422CBF4FF45B
:108B600000600020C91A224401440129C4F87C385D
:108B700082F8E47B0FD101203FF0AAF9D4F87838CD
:108B8000D4F87C188B4294BF4FF4006200225B1A29
:108B90001344012BEFD0B542D6D10020F8BD00BF61
:108BA0003019002010B5094CD4F898380846114601
:108BB0005BB1D4F89838052B07D1002AD4F8D03807
:108BC00003DDFFF7B7FFD4F8D03810BD301900200F
:108BD00010B590F85010002380F8503081B10B4C44
:108BE000D4F8982872B1D4F89828052A0CD13C30D2
:108BF000D4F8D038FFF79EFFD4F8D038012010BD4C
:108C00000120FCE71046FAE71846F8E73019002083
:108C1000002280F85120DBE790F85020531C0244DA
:108C2000DBB280F8503082F83C1090F851200AB145
:108C3000132B00D9CCE77047114B70B5D3F8DC4B40
:108C4000054600680E4664080BF0E8FDB4FBF6F13B
:108C5000B1F5803F03D3012CFAD96408F6E7224628
:108C6000284689B23DF0A2FF0649074BC1F8503BA8
:108C700028460022BDE8704001F535613DF016BF81
:108C800030190020282A002021E7010810B5802192
:108C900004460BF03FFA204600210BF03BFA204639
:108CA000BDE810400BF07ABB2549D1F8583B0F2B9B
:108CB00004D05A1CC1F8582B0020704770B5214CC5
:108CC00094F8E05B0023C1F8583BF5B9D4F8782854
:108CD000D4F87C38B2F5006F19D09A422CD01AD94A
:108CE000C2F50063402B18D9403B02F14005C1F8A2
:108CF0005C3B012384F8E03BC4F8785892B24023EF
:108D000011490A4481210BF039FA002070BDC4F8E2
:108D100078588BB12A469B1AE4E74FF0000502EB26
:108D20000306C1F85C5B0CBF02210121C4F878681E
:108D300092B284F8E01BE3E7002384F8E03BE4E729
:108D4000282A00203019002014250020ACE700BF9D
:108D500070B51E4C94F8E03B012B03D0022B0AD0D7
:108D6000002070BD01461A48D0F85C3B53B984F826
:108D7000E03B002070BD00231A4681210BF0FEF974
:108D80000023F4E7402BD4F8782810D9403B02F1B7
:108D90004005C0F85C3BC4F8785892B240230D4CB3
:108DA0000846224481210BF0E9F9002070BD4FF004
:108DB000000503EB0206C0F85C5B08BF0220C4F8A4
:108DC000786892B208BF84F8E00BE8E73019002019
:108DD000282A002014250020012905D008B50321E8
:108DE0000BF006FB002008BDB2E700BF10B5002362
:108DF00004220446194680F811211A460BF0BEF9E8
:108E000020460BF0CBFA002010BD00BF38B513464A
:108E100002250A46C0E94E3380F8115100210BF0BB
:108E2000ADF9002038BD00BF10B50C7814F0600417
:108E300013D0202C0AD14B78023B092B18D8DFE83D
:108E400003F01B21171717171717272E2249012286
:108E5000FFF7DCFF0024204610BD4B78062B24D002
:108E60000A2BF3D01D4B8A78C3F8682B204610BD1F
:108E7000FFF70CFF0224EEE719490122FFF7C6FFB6
:108E80000024E8E717490122FFF7C0FF0024E2E7CA
:108E90004B88124A1B0AC2F8643B0024DBE70F4BE5
:108EA0008A78C3F8602B0024D5E74B881B0A222B55
:108EB0000CD0212B04D021462246FFF7A7FFCAE79A
:108EC000CA880949092A28BF0922F6E7CA8807493A
:108ED000362A28BF3622F0E790350020282A0020C5
:108EE0008C35002088350020FE020020B4020020CE
:108EF000F0B5012190F8D17590F8D36590F8CFC501
:108F000090F8CE5590F8D03590F8D22580F8111110
:108F100090F8CC1585B005EB0C2503EB072302EB8D
:108F2000062201F01F06AFB292B290F8CD558DF82F
:108F300008109BB2012E0446ADF80A70ADF80C3053
:108F4000ADF80E20C0F840218DF8095017D0022E40
:108F50001FD036B101F080010BF0DCF8002005B025
:108F6000F0BD092D0FD8DFE815F0BF00AC000E00F2
:108F7000D5000E00EA0085000E007700540090F83E
:108F80001221032A2FD02046FFF780FE002005B0D3
:108F9000F0BD01F060012029DAB234D0012D00F0DB
:108FA0002081032D00F00681002DD7D190F81211F9
:108FB000022900F0DF800329E5D11B0600F14B8177
:108FC00002EB820200EBC20393F87633002B00F031
:108FD0004D81BF4B0122C3F87C2BBE4920460222A3
:108FE000FFF714FFBAE7DAB2012ACCD8D0F8E4359B
:108FF00002A99B689847BDF80E30002BAED12046E1
:10900000FFF7F4FEAAE7D0F8E43502A99B68984779
:10901000A4E7F9B2AE4D012985F86C1BB3D890F8DE
:109020001231022B00F02781032BACD1002900F074
:10903000868190F810110129E1D0D0F8E4355B6801
:10904000984795F86C1B84F810112046FFF72EFA0C
:109050002046FFF7CBFE81E7012A94D190F8123128
:10906000022B00F01781032B8DD100F58871FFF7DB
:10907000CDFE73E73D0A022DADF8062000F05081C9
:10908000032D00F00B81012D7FF47DAFD0F8EC357E
:1090900080781B680DF106019847BDF80620002A6C
:1090A0003FF45CAFBDF80E30002B3FF457AF9A424F
:1090B00028BF1A4601462046ADF80620FFF7A6FE57
:1090C0004CE790F81231023B012B3FF65CAF012FC9
:1090D0007FF444AFD0F8E43500229B68C0F8182133
:1090E00002A9204698478AE790F81231023B012BEB
:1090F0003FF649AF764BD0F818210021C3F8741B16
:1091000012B10222C3F8742B734920460222FFF7E2
:109110007DFE23E7012F00F09880022F7FF41EAF21
:1091200013F0FF0F7FF41AAF02691B0A023B52686B
:10913000032B00F21D81DFE803F0393531241A4397
:109140007FF421AF90F81231032B3FF41CAF036979
:1091500007F07F0580F81451196867F30A120A4373
:109160001A60FFF743FE002D00F0E580022384F82B
:109170001231F3E651063FF4F1AE11460AF0CAFF90
:10918000ECE6052363F30612514B012184F8161116
:109190002046C3F8782BFFF729FEDFE6042363F3AC
:1091A0000612F1E7032363F30612EDE7022363F3EC
:1091B0000612E9E790F81231022BDBD0032B7FF483
:1091C000E2AE27B9550602D011460AF0A3FFD4F843
:1091D000E43502A99B68204698472046FFF706FE23
:1091E000BCE690F812110229C4D003297FF4CBAE5B
:1091F000002F7FF4B3AE12F07F013FF400AF1806EA
:1092000000F1A78002EB820304EBC30304EB8100AF
:1092100083F8767383F8741383F87573282303FB3C
:109220000243416D03F55D73DA780B68023A6FF320
:109230005553012AD4F8E42598BF43F080530B60BE
:109240002046936802A99847D9E6D0F8E435C0F8DB
:1092500018719B6844E702F07F0202EB820200EB88
:10926000C20393F81E31002B7FF4B3AE184B0022DB
:10927000C3F87C2BB1E600293FF4C1AE01210323E2
:1092800080F8101180F81231FFF710F92046FFF72F
:10929000ADFD63E61149FFF7B9FD5FE6FDB2052DAF
:1092A0003FF671AEDFE805F0342C241C0B03D0F838
:1092B000EC3580789B690DF106019847EDE6D0F812
:1092C000EC3580785B690DF106019847E5E600BF53
:1092D000282A0020A43500209C3500209835002045
:1092E000D0F8EC3580781B690DF106019847D4E67B
:1092F000D0F8EC358078DB680DF106019847CCE6B4
:10930000D0F8EC3580789B680DF106019847C4E6EB
:10931000D0F8EC3580785B680DF106019847BCE623
:10932000D0F8E43580789B6A0DF1060198474570C6
:10933000C4F8F005B1E6012384F812310EE60222EA
:10934000D0F8E43580F8101180F812215B68984756
:1093500055E6282202FB014304EB810083F81E71CD
:1093600083F81C1183F81D51816903F58E735BE747
:10937000012363F3061207E770B5104DD5F8883B5B
:1093800004462BB195F88C2B95F8A03B134310D0D5
:10939000812120460AF0BEFE95F8A03B022B00D0AA
:1093A00070BD2046064ABDE870401F2301210AF027
:1093B00007BF01210AF0AEFEEAE700BF282A00201D
:1093C000A835002070B50C4C0C4BC4F8A43B04F637
:1093D000A432054684F8B01B00260D23812184F8B1
:1093E000B46B0AF0CBFE284604F538621F23BDE8B3
:1093F000704001210AF0E4BE282A00205553425350
:109400002DE9F041B04C94F88F3BC4F8B80B82B012
:1094100088465A2B00F2B580DFE813F0C900B3008C
:10942000B300D900B300B300B300B300B300B3007E
:10943000B300B300B300B300B300B300B300B30094
:109440000D01B300B300B300B300B300B300B30029
:1094500031017400B300B3007400B300B300B30073
:10946000B300BA01B3006201B300B3007C00B300E3
:109470000B02B300B300B300B3005B00B300B30052
:10948000B300B300B300B300B300B300B300B30044
:10949000B300B300B300B300B300B300B300B30034
:1094A000B300B300B300B300B300B300B300B30024
:1094B000B300B300B300B300B300B300B300B30014
:1094C000B300B300B300B300B300B300B300B30004
:1094D000E60194F8903B9B0700F16E82B4F8963B4E
:1094E000D4F8912BD4F8C81B5BBA9BB212BAD0182F
:1094F0008842C4F8D03BC4F8CC2B03D9FEF780FFD8
:10950000002851DB0020A4F8C00B0546284602B015
:10951000BDE8F08194F8B43B002B40F0FF8094F953
:109520008C3B002B2DDAD4F8BC3B08469B6898474F
:10953000002840F02182B4F8965BD4F8917BD4F8EF
:10954000C83B6DBAADB23FBA7A199A42C4F8D05B43
:10955000C4F8CC7B03D9FEF753FF002824DBD4F8F2
:10956000C43BD4F8886B03FB05F503FB07F202202C
:10957000B542C4F8CC2BC4F8D05B84F8B40B00F02F
:10958000D380524A92F8A038591CC9B202EBC303E7
:1095900005244FF40050042982F8A01883F8A44849
:1095A000C3F8A80800F0A6814FF0FF35AEE7D4F865
:1095B000883B002BE5D1D4F8BC3B08469B68984714
:1095C0000546002840F0D881A4F8C00B9EE7404B28
:1095D000002203F1120103F8012F8B42FBD13B491A
:1095E0003C4891F8A05894F8C23B702606709D4202
:1095F0004FF00C06C67110D001EBC301013391F896
:10960000A4588570B1F8A818DBB2042B49BA81813F
:1096100014BF84F8C23B84F8C22B94F8933B122207
:109620009342A4F8C02B98BFA4F8C03B002528465D
:1096300002B0BDE8F08194F8903BDA0700F1428176
:10964000D4F8BC3B94F8930BDA6901EBC10102EB4F
:1096500081010A79531D834228BF0346A4F8C03B09
:10966000002BE3D0013B1B489BB201331944034458
:1096700011F8012D03F8012D8342F9D1D6E7164EDA
:10968000164F35460823073EC5F10700A4F8C03B36
:10969000002202E092F850201D462B46B54203F806
:1096A000012900EB030217FA82F2F3D1D4F8BC3B94
:1096B0004046DB6898470028B8D0AB7863F07F035A
:1096C000AB70002522E700BF282A002030190020B7
:1096D0000B4C00200C4C0020134C0020B0BA0508A5
:1096E000D4F8BC3BC94A5B680846111D984705463B
:1096F000002840F04181D4F8C83BC54AD4F8C41BC7
:10970000013B180E1070180C09BAD37050701B0A68
:10971000082093705160A4F8C00BF7E6D4F8D06B22
:10972000D4F8CC2BD4F8C43BD4F8BC5BB2FBF3F236
:10973000B6F5805F28BF4FF480562D69B449B6FB5B
:10974000F3F340469BB24FF48057A4F8C07BA84780
:109750000028C0F2BC803346AD4AD4F8B80B812152
:109760000AF00CFDD4F8CC2BD4F8D00BD4F8AC3BD9
:109770003244851B9E1BC4F8CC2BC4F8D05BC4F8C4
:10978000AC6B002D7FF452AF032384F8B43BBDE6ED
:109790009F4E0027334606F10C0203F8017B9A42E4
:1097A000FBD1D4F8BC3B40465B686A4601A99847A8
:1097B0000546002840F0EB80019BBDF80020013BEE
:1097C000190E52BAF3713171190C1B0A717108200C
:1097D000B371022172810C23BDF80220F070317246
:1097E0007272A4F8C03B91E68A4E8B4F3046082334
:1097F000073EC0F10705A4F8C03B002202E092F842
:10980000582018460346864203F8012905EB030257
:1098100017FA82F2F3D1D4F8BC3B4046DB68984794
:1098200000283FF403AFF37863F07F03F370002563
:109830006CE694F8B43B002B62D194F98C3B002B7E
:10984000FFF69FAED4F8BC3B08469B6898470028BB
:1098500040F09280D4F8BC3B4046DB689847054610
:10986000002840F0BA80B4F8963BD4F8916BD4F855
:10987000C82B5BBA9FB236BAF3199342C4F8D07BB7
:10988000C4F8CC6B00F2A380D4F8C43BD4F8882B86
:1098900003FB06F603FB07F39342C4F8CC6BC4F852
:1098A000D03B7FF46EAEB3F5805F28BF4FF480539A
:1098B0000121D4F8B80B564A84F8B41B9BB20AF0C5
:1098C0007FFC23E607235549A4F8C03BCAE6544A67
:1098D00092F8A038591CC9B202EBC30304244FF418
:1098E0008850A14282F8A01883F8A448C3F8A808B9
:1098F0007FF45AAE002382F8A0384FF0FF3505E61A
:10990000D4F8D06BD4F8BC0BD4F8C43BD4F8CC2B2F
:109910004569B2FBF3F2B6F5805F28BF4FF480567D
:109920000846B6FBF3F33A499BB2A847002862DB2E
:10993000D4F8CC2BD4F8D05BD4F8AC3B3244AD1B7C
:109940009B1BC4F8CC2BC4F8D05BC4F8AC3B2DB93E
:10995000D4F8B80B2946FFF735FDD7E5B5F5805F9C
:1099600028BF4FF48055ABB2D4F8B80B284A012178
:109970000AF026FC0025C9E5294A92F8A038591CAE
:10998000C9B202EBC30302244FF4685003E6244A31
:1099900092F8A03802EBC3010133DBB202244FF48A
:1099A0006850042B81F8A448C1F8A80820D082F898
:1099B000A0384FF0FF35A9E5194A92F8A038591C94
:1099C000C9B202EBC30305244FF41050E3E5FEF7E0
:1099D00017FD0028BFF658AFE6E5114A92F8A03807
:1099E000591CC9B202EBC30302244FF41C50D2E548
:1099F00082F8A078D8E50A4A92F8A038591CC9B272
:109A000002EBC30304244FF440706AE7EC350020F6
:109A10000C4C0020134C0020B0BA0508F8BA050819
:109A20003019002010B5074B93F88D1B0446FFF743
:109A3000E7FC002800DB10BD20460121BDE81040F6
:109A4000C0E400BF282A002070B5344C94F8B45B01
:109A50002DB1012D01D1FFF7E5FF002070BDB0F859
:109A6000B433D4F8842BC4F8A82B1F2BD4F8882B3C
:109A7000C4F8AC2B064608D1294BD4F8802B9A4267
:109A800003D194F88D1B01291AD9264A92F8A038DF
:109A900002EBC3010133DBB2042B08BF0023052511
:109AA0004FF40050C1F8A80882F8A03830460223CD
:109AB00081F8A45884F8A03BFFF75EFC002070BD3D
:109AC00094F88E3B013B0F2BDFD8FFF799FC002861
:109AD0001CDB94F8B43B013B022BBED9B4F8C01B8D
:109AE000C1B1D4F8883BD4F8AC2B84F8B05B8B427E
:109AF00028BF0B46D11A0425C4F8AC1B0A4A84F8C7
:109B0000B45B304681210AF039FBA6E73046FFF707
:109B100033FCA2E73046FFF755FC9EE7282A0020D9
:109B200055534243301900200C4C002008B5084B17
:109B300093F8B43B022B07D0033B012B02D8002142
:109B4000FFF740FC002008BDFFF76CFF002008BDB8
:109B5000282A002010B501EB8101084A00EBC10161
:109B60000446B1F88C131046FEF7BCFA034A2046AF
:109B7000402301210AF024FB002010BDFC35002009
:109B8000E8E700BFF8B50B7813F060050C46064611
:109B900011D0202D16D1CD88D5B11B062AD52A4645
:109BA00020496078FEF7C6FAE2881E493046FFF782
:109BB0002DF900250AE04B780A2B16D00B2B0ED07E
:109BC000062B03D13046FFF761F802252846F8BD81
:109BD000022260781144FEF7ADFA2846F8BD8B7872
:109BE000E3B9114BC3F8145CF0E710490122FFF709
:109BF0000DF9EBE70E4B4A780E4FC3F828210323EB
:109C00000021C0E9E45580F8113107F6C8022B465F
:109C1000C7F8C4580D460AF0D3FAD7E7FFF736F86D
:109C2000D4E700BFF8210020282A00203C3600207D
:109C300088010020301900200B7803F00303012B6A
:109C400003D0022B05D0002070478B8823B9FFF783
:109C5000EBB88B88832BFAD094E700BF70B504462D
:109C600049B990F81131022B1BD094F81631012B11
:109C70000DD0002070BDD0F8E4355B69002BF8D022
:109C800090F81221032AF4D19847002070BD2A4A87
:109C90002369D2F8782B5A60002384F8163100200B
:109CA00070BDD0F83831D0F82451AB4217D9C27802
:109CB000012AD0F82821A3EB050308BF5219C0F8E8
:109CC000383108BFC0F828219BB200210AF056FAAB
:109CD00000231A46194620460AF072FAC5E7D0F862
:109CE0003C31B3FBF5F605FB163666B99D420AD842
:109CF000D0F84021934206D2334632460AF03EFA6B
:109D0000C4F84061E4E7D4F8E435DB681BB194F8AB
:109D10001221032A0CD00023052284F811211946B0
:109D20001A4620460AF04CFA20460AF037FB9CE718
:109D300020469847EFE700BF282A002010B50446C8
:109D400029B990F81131032B0DD0002010BDD0F8A7
:109D5000E4359B69002BF8D090F81221032AF4D146
:109D60009847002010BDD0F89013D0F87C3399426A
:109D700014D9C078D4F880230128A1EB030104BFD3
:109D8000D218C4F880238B4228BF0B46C4F8901326
:109D90009BB2204600210AF013FAD6E7D0F8E4354A
:109DA0001B691BB190F81221032A03D02046FFF74C
:109DB0001DF8CAE79847F9E710B5044C04480A466D
:109DC00021460AF081F9204610BD00BF4036002030
:109DD000AC33060810B5044C04480A4621460AF084
:109DE00073F9204610BD00BF40360020BC33060882
:109DF00010B5044C04480A4621460AF065F920468D
:109E000010BD00BF40360020C833060810B5044C12
:109E100004480A4621460AF057F9204610BD00BF03
:109E200040360020D433060810B5044C04480A46D6
:109E300021460AF049F9204610BD00BF40360020F7
:109E4000E033060810B5044C04480A4621460AF0DF
:109E50003BF9204610BD00BF40370020F433060810
:109E600010B5044C04480A4621460AF02DF9204654
:109E700010BD00BF403700200434060810B5044C64
:109E800004480A4621460AF01FF9204610BD00BFCB
:109E900040370020103406080A4608B5054920B9A5
:109EA00005480AF011F9034808BD04480AF00CF906
:109EB000004808BD40370020243406083C3406081A
:109EC000F8B543794B4C002B14BF0122002284F8D3
:109ED000502002D184F82430F8BD05464078431E56
:109EE0005BB25E1C77D0022B75DC434A02EB031297
:109EF000D2F8186EE665022284F858202A78002AE3
:109F000053D1ED78002D44D14FF48071E06D25667A
:109F10004CF0A8FC4FF47A703DF0DAFF206E3EF072
:109F2000EDFFE06D0A2683894FF6FF714FF47A73D7
:109F3000FF270289950718D587814FF47A73028924
:109F4000D20703F1FF3520D5013E8289F1D12B4B99
:109F50000289920711D5028912F080020DD1D4F83E
:109F6000D018227601236161B4E7013B9BB28B429A
:109F7000DFD140F0EFFEE06DE9E7013BE8D1227E62
:109F800084F82430531C2376F8BDABB28B42D6D173
:109F9000EFE728463EF0D8FC054608B11E23C380F3
:109FA000092128463DF046FAAEE703EB83030B4454
:109FB000014693F9032000203EF0BEFB064630B177
:109FC00040684BF0CBF9B36884F86C3028B90023B3
:109FD00084F8643095E700268CE7094A431E02EBBB
:109FE000431317210022A3664BF0CAF9012384F81A
:109FF000643086E730190020282A0020A18601005D
:10A000001003002010B502230446402281210AF0EB
:10A0100033F920460223402201210AF02DF9822142
:10A020002046032308220AF027F9064B02229A83CE
:10A03000FEF7CEF8044A2046402301210AF0C0F87A
:10A04000002010BD88010020FC35002038B5092211
:10A050000D460446032383210AF00EF929462046C3
:10A06000FFF7D0FF002038BD002310B51946044685
:10A0700040220AF001F980212046002340220AF004
:10A08000FBF8D4F8E835A078012284F812215B6847
:10A090009847002010BD00BFF8B50B7813F060059D
:10A0A0000C4606461DD0202D18D14A78FE2A45D0F0
:10A0B000FF2A3ED14A88002A57D1CD88002D54D19D
:10A0C0001B0652D4374B012103F5386283F8B45B89
:10A0D00083F8A01B1F230AF073F800E00025284630
:10A0E000F8BD4B780A2B4BD00B2B44D0012BF6D16B
:10A0F00091F904308988002B47DB0AF05FF9217958
:10A10000284F30460AF082F8022321794022304657
:10A110000AF0B2F897F8A03B022B3BD094F9042048
:10A12000002ADCDA012BDAD030460121FFF74AF9A8
:10A13000D5E70225FEF7AAFD2846F8BD4D88A5B94A
:10A14000CC88012C11D11A060FD5164FD7F8BC3B7D
:10A150009B699847C0B287F8480E30B1224607F68F
:10A1600048613046FEF752FEB9E730460225FEF759
:10A170008DFD2846F8BD0B4B4A8883F8492EAEE783
:10A1800009490122FEF742FEA9E701F07F010AF02A
:10A190002FF9B4E73046812109F0BCFF002387F88E
:10A1A000A03B9CE7282A00207138002010B58121AF
:10A1B00004460AF02BF8204601210AF027F8024B4A
:10A1C000002083F8B40B10BD282A002070B5044687
:10A1D000144EFFF7EBFF20460223402281210AF0B4
:10A1E0004BF840220121204602230AF045F8D6F818
:10A1F000BC3B00251B6886F8B45B284686F8A05B4C
:10A20000984720460AF0DAF8204601210AF0F0F8D3
:10A21000204606F538621F23012109F0D1FF2846A8
:10A2200070BD00BF282A002010B58121044609F026
:10A23000EDFF2046012109F0E9FF8221204609F0C7
:10A24000E5FFFDF7BDFF002010BD00BF38B50D468E
:10A250000446832109F0DAFF29462046FFF7E4FF90
:10A26000002038BD00F01F0240090123032803FA33
:10A2700002F304D004280CD0022805D07047074A06
:10A28000116C0B4313647047044A516C0B435364C5
:10A290007047024A116B0B4313637047003802404A
:10A2A00000487047EC220020002871D0F0B5838868
:10A2B000B3FA83F3202B0A4683B00446C3F11F018F
:10A2C00050D0344F344D07EB81036E18C3F84C2E39
:10A2D000002196F860603DF0ADF8A38821682F4812
:10A2E000B3FA83F3C3F11F0202F0FC0404F18044CB
:10A2F00004F59C3402F003024FEA820E4FF00F0C7B
:10A3000001F13F42A1680CFA0EFC21EA0C01A160A8
:10A3100002F57E02A168C2F387224FF0004C02FAD8
:10A320000EF22CFA03F30A43A260436102681C494F
:10A3300022EA03020260426822EA030242600268E3
:10A340001A430260826822EA03028260C26822EA3B
:10A350000302C2600A68374413430B6097F88C3ECF
:10A36000F02B01D803B0F0BD3544F02195F87030E2
:10A370008DF8043003224FF4807301A887F88C1EF7
:10A380008DF80520ADF806300AF050F803B0F0BDA6
:10A39000704700BF282A0020B0BA0508003C0140E1
:10A3A000083C014000285FD00368374A2DE9F0419E
:10A3B00003F13F4404F57E0402EB9422012492F859
:10A3C000402002F01F055209032A04FA05F456D072
:10A3D000042A4FD0022A48D08588B5FA85F0C0F10A
:10A3E0001F00C0F3CC0603EB860600F007008200D6
:10A3F0000F24306A944020EA04003062306A01FA87
:10A4000002F20243002132624FF0010E0A464FF081
:10A41000030C02270EFA02F838EA050002F10102E5
:10A420001CD118680CFA01F420EA040018601868BE
:10A4300007FA01F606431E609E6826EA04069E603F
:10A4400098689860586820EA080058605868586012
:10A45000D86820EA0400D860D868D860102A01F1D2
:10A460000201D7D1BDE8F0817047084A556C2C43F2
:10A470005464B1E7054A156B2C431463ACE7034AF7
:10A48000156C2C431464A7E7B0BA050800380240E5
:10A490002DE9F84FCB4C94F8931E0546C1F34001CB
:10A4A000D4F8980E3EF030FD94F8931ED4F8940E34
:10A4B000C94301F001013EF027FD002D00F0E780C7
:10A4C00005F1FF39C04EC14FC14D5FFA89F94FF018
:10A4D0001008D4F8983E33B11A689B8851690B4232
:10A4E00014BF53831383D4F8943E33B11A689B8806
:10A4F00051690B4214BF53831383B4F8A03E002B61
:10A5000040F0578194F8A21ED4F8A40E3EF0FCFC53
:10A51000FA204FF47A714FF0010C7B68C3F3080303
:10A52000002B40F01981EFF31183002B40F01481D0
:10A53000D6F8D028D5F808E0D6F8D0389A42F7D126
:10A54000D4F8C83E9E45F3D8D4F8C4AE01FB0AF354
:10A55000A3EB0E03B3FBFAF301FB02327B68C3F3F8
:10A560000803002B40F0B680EFF31183002B40F07E
:10A57000B180D6F8D038D5F808B0D6F8D0E8734511
:10A58000F7D1D4F8C8EEF345F3D8D4F8C4AE01FB44
:10A590000AFEAEEB0B0EBEFBFAFE01FB03E39B1AB9
:10A5A000B3F57A7FDAD30138B7D1D4F8983E33B116
:10A5B0001A689B8851690B4214BF53831383D4F8E4
:10A5C000943E33B11A689B8851690B4214BF538380
:10A5D0001383B4F8A03E002B40F0DF8094F8A21E55
:10A5E000D4F8A40E81F001013EF08EFCFA204FF465
:10A5F0007A714FF0010C7B68C3F30803002B40F025
:10A600008A80EFF31183002B40F08580D6F8D028A4
:10A61000D5F808E0D6F8D0389A42F7D1D4F8C83E39
:10A620009E45F3D8D4F8C4AE01FB0AF3A3EB0E03A6
:10A63000B3FBFAF301FB02327B68C3F3080343BBAD
:10A64000EFF311832BBBD6F8D038D5F808B0D6F885
:10A65000D0E87345F7D1D4F8C8EEF345F3D8D4F871
:10A66000C4AE01FB0AFEAEEB0B0EBEFBFAFE01FB15
:10A6700003E39B1AB3F57A7FDED30138BBD109F12E
:10A68000FF395FFA89F9B9F1FF0F7FF422AFBDE816
:10A69000F88FEFF3118A88F31288D5F808B02B6889
:10A6A000DB0344BFC4F8C0CED5F808B0D6F8D03824
:10A6B000D4F8C0EE5FFA8AFA8AF31188D4F8C4AEEF
:10A6C000734401FB0AFEAEEB0B0EBEFBFAFE01FB70
:10A6D00003E3CEE7EFF3118A88F31288D5F808B0C8
:10A6E0002B68DB0344BFC4F8C0CED5F808B0D6F859
:10A6F000D038D4F8C0EE5FFA8AFA8AF31188D4F819
:10A70000C4AE734401FB0AFEAEEB0B0EBEFBFAFEB9
:10A7100001FB03E343E7EFF3118E88F31288D5F8CA
:10A7200008A02B68DA0344BFC4F8C0CED5F808A04F
:10A73000D6F8D038D4F8C02E5FFA8EFE8EF311888A
:10A74000D4F8C4EE1A4401FB0EF3A3EB0A03B3FBE7
:10A75000FEF301FB02326FE7EFF3118E88F31288EC
:10A76000D5F808A02B68DA0344BFC4F8C0CED5F8EA
:10A7700008A0D6F8D038D4F8C02E5FFA8EFE8EF33B
:10A780001188D4F8C4EE1A4401FB0EF3A3EB0A03BC
:10A79000B3FBFEF301FB0232E0E6D4F8BC3E002B33
:10A7A0003FF424AFD4F8A82E0023136084F8B93EF8
:10A7B0001CE7D4F8BC3E002B3FF4AAAE3DF04CFCA5
:10A7C000A6E600BF282A00203019002000ED00E096
:10A7D00010E000E02DE9F04FCA4CCB4E94F8931EE8
:10A7E000D4F8980EDFF82883C84D83B0C1F3400138
:10A7F0003EF08AFB94F8931ED4F8940EC94301F0FE
:10A8000001013EF081FB052301934FF01009D4F8BC
:10A81000983E33B11A689B8851690B4214BF538329
:10A820001383D4F8943E33B11A689B8851690B4264
:10A8300014BF53831383B4F8A03E002B40F059811A
:10A8400094F8A21ED4F8A40E3EF05EFB32204FF422
:10A850007A710127D8F80430C3F30803002B40F0C5
:10A860001B81EFF31183002B40F01681D6F8D0281E
:10A87000D5F808E0D6F8D0389A42F7D1D4F8C83ED7
:10A880009E45F3D8D4F8C4AE01FB0AF3A3EB0E0344
:10A89000B3FBFAF301FB0232D8F80430C3F3080328
:10A8A000002B40F0B780EFF31183002B40F0B28013
:10A8B000D6F8D038D5F808B0D6F8D0E87345F7D137
:10A8C000D4F8C8EEF345F3D8D4F8C4AE01FB0AFEC1
:10A8D000AEEB0B0EBEFBFAFE01FB03E39B1AB3F5D6
:10A8E0007A7FD9D30138B5D1D4F8983E33B11A68FC
:10A8F0009B8851690B4214BF53831383D4F8943E51
:10A9000033B11A689B8851690B4214BF5383138378
:10A91000B4F8A03E002B40F0E08094F8A21ED4F8DA
:10A92000A40E81F001013EF0EFFA32204FF47A716B
:10A930000127D8F80430C3F30803002B40F08B80C4
:10A94000EFF31183002B40F08680D6F8D028D5F89D
:10A9500008E0D6F8D0389A42F7D1D4F8C83E9E45E0
:10A96000F3D8D4F8C4AE01FB0AF3A3EB0E03B3FB98
:10A97000FAF301FB0232D8F80430C3F3080343BBF7
:10A98000EFF311832BBBD6F8D038D5F808B0D6F842
:10A99000D0E87345F7D1D4F8C8EEF345F3D8D4F82E
:10A9A000C4AE01FB0AFEAEEB0B0EBEFBFAFE01FBD2
:10A9B00003E39B1AB3F57A7FDDD30138B9D1019B4C
:10A9C0005F1E17F0FF0301937FF421AF03B0BDE8D2
:10A9D000F08FEFF3118A89F31288D5F808B02B684D
:10A9E000DB0344BFC4F8C07ED5F808B0D6F8D03831
:10A9F000D4F8C0EE5FFA8AFA8AF31188D4F8C4AEAC
:10AA0000734401FB0AFEAEEB0B0EBEFBFAFE01FB2C
:10AA100003E3CEE7EFF3118A89F31288D5F808B083
:10AA20002B68DB0344BFC4F8C07ED5F808B0D6F865
:10AA3000D038D4F8C0EE5FFA8AFA8AF31188D4F8D5
:10AA4000C4AE734401FB0AFEAEEB0B0EBEFBFAFE76
:10AA500001FB03E342E7EFF3118E89F31288D5F887
:10AA600008A02B68DA0344BFC4F8C07ED5F808A05C
:10AA7000D6F8D038D4F8C02E5FFA8EFE8EF3118847
:10AA8000D4F8C4EE1A4401FB0EF3A3EB0A03B3FBA4
:10AA9000FEF301FB02326EE7EFF3118E89F31288A9
:10AAA000D5F808A02B68DA0344BFC4F8C07ED5F8F7
:10AAB00008A0D6F8D038D4F8C02E5FFA8EFE8EF3F8
:10AAC0001188D4F8C4EE1A4401FB0EF3A3EB0A0379
:10AAD000B3FBFEF301FB0232DEE6D4F8BC3E002BF2
:10AAE0003FF423AFD4F8A82E0023136084F8B93EB6
:10AAF0001BE7D4F8BC3E002B3FF4A8AE3DF0ACFA07
:10AB0000A4E600BF282A00203019002010E000E051
:10AB100000ED00E0B0B10C49D1F8CC3E102B03D1D0
:10AB2000052100203CF06EBF03EB43020A4482F88B
:10AB3000D00E202082F8D10E0120034482F8D20EDC
:10AB4000C1F8CC3E704700BF282A0020C078E1E75A
:10AB50002DE9F04FDFF884A32DED028B9AF8141F36
:10AB6000002297B0CAF8042FCAF8082FCAF80C2F91
:10AB7000CAF8102FCAF8002F19B19AF8152F8AF8C1
:10AB8000002F9AF8162F1AB19AF8172F8AF80F2F5C
:10AB90009AF81A2F1AB19AF81B2F8AF80A2F9AF8E6
:10ABA000182F1AB19AF8192F8AF8052F9AF81C3F16
:10ABB00005935A1ED3B257B204937B1C00F0AA80AF
:10ABC000BC4ABD4E52F83780029602EBC702002302
:10ABD0001279019308EE102A1D46344699462678CC
:10ABE0003946304640F0A2FB83463046BBF1000FA9
:10ABF0001ED03DF0A9FEEA1D1321D2B220B14FF0C4
:10AC0000000E827180F807E03CF014FC207840F0E0
:10AC1000BFFB4FF0070309F1010223714FF001035D
:10AC200084F802906070CDF804B05FFA82F9E370A6
:10AC30000135042D04F10504D1D118EE100A029E4D
:10AC4000CDF80C90FFF70EFB9C499D4A48680240E6
:10AC500042F440324A600FB9019B5BB9994C4820DD
:10AC6000FFF700FB204602214CF094FAA26842F064
:10AC70000102A2609148934A4168BAF81E4F41F41C
:10AC800000014160516821F480515160916B21F4C1
:10AC9000401141F480119163D16841F46001D160A9
:10ACA000956B85F44011C1F3015101EB81011F2027
:10ACB00000FA01FC25EA0C0C112505FA01F141EA24
:10ACC0000C019163D16841F4E011D160956BC5F33B
:10ACD0000151C1F10401C9B201EB810188404FF07B
:10ACE000100C25EA00000CFA01F108439063E4B16E
:10ACF000BAF8201FCAF8284FA1B1BAF8222FCAF813
:10AD00002C1F62B1019B7048521A90FBF2F2CAF8F4
:10AD1000302F6BB917B0BDEC028BBDE8F08F6B4ADA
:10AD20001288EFE76A4A1188E7E76A4A1488DFE782
:10AD3000404603994CF02EFA5F4B012003F11409B1
:10AD40000723F278441CE4B252B375783279A5F146
:10AD50000A0101EB410105EB450C092D03FA01FE47
:10AD600003FA0CFB02FA01F140F28E80D8F80C20B5
:10AD700022EA0E0E41EA0E01C8F80C10421E02EB48
:10AD800082021F21062801FA02FC05FA02F261D8AC
:10AD9000D8F8341021EA0C010A432046C8F83420C0
:10ADA0000536B145CDD1D8F80820049942F4007297
:10ADB000C8F80820D8F8082042F48072C8F80820A3
:10ADC000D8F80820574442F00102C8F8082097F943
:10ADD000242F02203DF0B0FC044600289AD04068A1
:10ADE0004AF0BCFA059A06214AF0CAFA606809F0EE
:10ADF000C5FB07A809F084FB039EA368364A0793A6
:10AE0000012E8CBF4FF48060002000230D9008F1CC
:10AE10004C054FF40060089509920A934FF4807234
:10AE20000C930E904FF4003360680B9607A94FF413
:10AE30000055CDE90F52119309F074FB6268136855
:10AE400043F001031360D8F8083043F08043C8F89A
:10AE500008305FE7C11FA0F10D0201EB81014FF047
:10AE60001F0E02EB82020C280EFA01FC0EFA02F011
:10AE700005FA01F113D8D8F8302022EA0C02114368
:10AE80002046C8F830108BE7D8F8101002FA0CF200
:10AE900021EA0B0B42EA0B02C8F810206EE7D8F843
:10AEA0002C1005FA02F221EA00010A432046C8F8F4
:10AEB0002C2075E728BB0508283900200023014015
:10AEC000E030FCFF00200140803801002E7AFF1F97
:10AED0002C7AFF1F2A7AFF1F5C390020282A0020C5
:10AEE000F8B5274E00EBC00406EB8404D4F8405FAD
:10AEF000002D38D094F851CF0CF0FF07BCF1000FB3
:10AF000031D149004FF0010CC9B284F8521F84F8C6
:10AF1000532F84F855CF84F8567F84F854CF84F8A3
:10AF200051CF84F8507FAA88C4F8583FC4F85C3FDA
:10AF3000940502D501273846F8BD2B88D9050CD4D5
:10AF40004FF4805301E0013B10D02A889205FAD4D7
:10AF50002B889BB243F480732B80AB889BB243F465
:10AF60004073AB80E6E700273846F8BDB6F8A83F47
:10AF700001339BB2A6F8A83F4BF0F0FDDBE700BF22
:10AF8000282A002070B5474E96F8AA4F04EB4403D8
:10AF900006EBC303650093F8AC3F032B70D8DFE8E2
:10AFA00003F05B2A1F02254406EBC505D5F8B00F58
:10AFB000002872D13C4B13F8EC3C9C4260D0013429
:10AFC00004F00302934286F8AA2F59D002EB420400
:10AFD00006EBC4040223C4F8B00F84F8AC3F70BD84
:10AFE0002B1906EBC303D3F8B02F72B1013AC3F8A3
:10AFF000B02F002070BD2B1906EBC303D3F8B02F80
:10B00000002AF3D1022283F8AC2F254406EBC505B4
:10B0100095F8B83F013BDBB285F8B83F93BB234AB4
:10B02000214BD2F8881313F8EC6CD5F8B40F621CDE
:10B0300002F003024B1E0324B242034485F8AC4FD6
:10B04000B3FBF1F0C5F8B00F1AD0994218D8013807
:10B05000C5F8B00F012070BD40F072F880B1134BFD
:10B060002C44D3F8882306EBC404012102F51C53B9
:10B0700084F8AC1F0F33B3FBF2F3C4F8B03F70BDDC
:10B08000012070BD094BD3F88823012002F2E73379
:10B09000B3FBF2F3C5F8B03F70BD0138C5F8B00F8F
:10B0A000002070BD282A0020203B002088010020BD
:10B0B00070B5244D15F8E84C022C134682B00A46B0
:10B0C00007D00146A5F1E80002B0BDE870403FF0AE
:10B0D0003FBF55F8E01C11B10C688988618355F8B1
:10B0E000E41C8E8940F2E9340E89013C16F0020F0F
:10B0F000A4B223D084B28C8140F2E9340889013CA7
:10B1000010F0010FA4B20DD08889084600214BF041
:10B11000EFFC55F8E03C13B11A689B8813830120BB
:10B1200002B070BD002CE9D10846CDE900233FF004
:10B1300011FEDDE9002355F8E41CE6E7002CD3D12D
:10B14000F2E700BF203B002030B40578022D13D079
:10B15000012D02D0002030BC7047044690F9040055
:10B16000074B421C03F8A85CF4D00328F2DC0A4623
:10B17000A83B617930BCB3E630BC01223FF096BEFB
:10B18000203B00202DE9F04F2DED108B034697B0AA
:10B1900004331593DFEDCACA149002238A46139232
:10B1A0008B461293149C4FEADB0604EB461202EB2B
:10B1B00006103101A6EB86034FEAC60806EB4605EA
:10B1C000CDE9000100EBC303043108F1040011963E
:10B1D000204421442C01C6EBC60C0394EC00119DC5
:10B1E00004944FEACC0405946C0106EB860E02949D
:10B1F000159D009C03EB46174FEACE0E02EBC606E8
:10B200004FEACB094FF0000C51ED01AAD3ED001A23
:10B2100092ED007A94ED005A96ED004AD7ED007A4F
:10B2200015ED012A50ED016A32EE07BA76EE840A76
:10B230007AEE855A31EEA70A3BEE256A70EE804A17
:10B2400076EEC46A36EE244A36EE646A05ED014AAB
:10B2500082ED006AD0ED00BAD6ED012AD3ED019A55
:10B2600095ED00AA92ED016A97ED013A91ED00CAC1
:10B27000D4ED014A7BEEE23A36EEE19A32EE472A0D
:10B2800073EEE98A3AEE464A39EE279A78EE838AD7
:10B29000B0EE428AA9EE6C8ADC44E24573EEC33A12
:10B2A000B0EE441AA8EEEC1A76EEE77A33EEA97AFD
:10B2B0007CEE643A77EEA17A3AEE066A7AEEC51A27
:10B2C0003CEE24AA74EECC4A39EE833A35EE6A5A43
:10B2D000F0EE639AF0EE48AAE7EE2C9AA8EEAC4A9C
:10B2E000E7EE2C4AE7EE6CAAF0EE418AB0EE427A25
:10B2F000B0EE612A7BEE656A7BEEA22A76EE4A5AB0
:10B30000A9EE2C7AA7EEAC2AA7EEAC5AE7EEEC8AAF
:10B3100032EE83BA76EEC3BA35EEE09A75EEC07AB5
:10B3200036EE0A6A76EEE26A36EE0BAA76EE836AAB
:10B3300077EEA07A34EE423A77EE290A36EE4B6A7F
:10B340007BEEA22A39EE000A73EEAA3A78EE244A7E
:10B3500037EE697A31EE055A71EEA85A32EE044A98
:10B3600085ED00AA82ED016A4D4441ED012A4A446F
:10B37000C4ED006A81ED000AC4ED017A494440ED54
:10B38000010A4C4487ED007AC6ED003AC3ED004A4D
:10B3900080ED003A87ED014A484486ED015A4F445A
:10B3A000C3ED015A4E444B443FF62EAF119B072B81
:10B3B00040F2C781029D149E019B03980499059A4F
:10B3C000083575190C330E95354608F108080EF14D
:10B3D0000804EB1808300831083246442C192818A4
:10B3E0006918AA18079305F10C030D960C940B909D
:10B3F0000A91099208934FF001084FF0000E129B3A
:10B400009E44139B03EBCE0303EBCE02109302EB9F
:10B41000CE0303EBCE01029101EBCE0101EBCE0591
:10B4200005EBCE06D6ED007A0F93AEEB8E030191BD
:10B4300006EB031303EBCE07D3ED01AACDED067A9D
:10B44000019BD5ED007A97ED01BACDED057AD3EDEC
:10B45000007A029BCDED047AD3ED007A0F9BCDEDFF
:10B46000037A07EBCE0CD3ED007ADCED01BACDED1B
:10B47000027A0CEBCE01D2ED007A109A009101EB2A
:10B48000CE00014691ED01DACDED017A0099D2EDC1
:10B49000007A91ED01CA00EBCE0000EBCE0494EDF2
:10B4A00001EAD0ED01DACDED007ADDE90776DDE9DC
:10B4B0000954DDE90B01DDE90D23C44602E000BFBC
:10B4C000F304353F94ED009A90ED00FA91ED006A97
:10B4D000D5ED007AD3ED006A57ED014A92ED005A9E
:10B4E00056ED013A96ED00AA35EE060A73EEA65A1D
:10B4F00039EE278A34EE8F7A70EE082A75EE87EAE5
:10B5000035EE465A3EEEA26A73EEE63A06ED016A61
:10B51000D1ED019AD2ED01FAD4ED016AD3ED011A11
:10B5200095ED013AD0ED018A97ED004A3FEEE96AC8
:10B5300035EE491A76EE660A31EE271A3AEE612A9E
:10B5400075EE677A70EE830A3FEEA95A74EECF9AD1
:10B5500077EE897A7AEE211AB0EE42AA74EE68FA92
:10B56000A0EEECAADC44E24535EEC77AB0EE639A71
:10B5700074EE285A38EEC44AF0EE698AA1EE6C9A4D
:10B58000E7EEAC8A36EE436A7FEE644A36EE266A10
:10B59000A0EEAC2AF0EE4A0AE7EEEC0AE7EEAC4A7F
:10B5A000F0EE687AF0EE498A36EE833AE6EE6C8A7F
:10B5B000E1EE2C3AB0EE6F1AA6EE2C1A71EEE56AA7
:10B5C000A6EE2C4A71EEA55A75EE031A7EEEE22A1B
:10B5D00037EE43FA75EEE1EAB0EE686A76EEC08ABD
:10B5E00039EE044A7FEE86FA76EEC86A33EE816A57
:10B5F00038EE888A73EEC13A37EE457A2CEE2E1A71
:10B600003FEE055A22EECC9A9DED03FA70EE266AC3
:10B6100033EE077AAFEE221AAFEE2E9A7AEE244A74
:10B620009DED01FA79EEA09A25EE4BAA72EE670A1B
:10B6300037EE822A6BEE087AAFEE08AAEFEE057AB3
:10B640002DEEA63A9DED05FA67EE6D8AAFEE073A4C
:10B65000EFEE268A66EE6A2A9DED00FA2AEEA00A2F
:10B66000EFEE202A6EEE02EADDED060A23EECE5A58
:10B67000E0EEA3EA2BEEA98ADDED023AAFEE060A70
:10B68000A3EE848A24EE6B7A6DEE246A9DED044A63
:10B690002FEECD6AA0EE825AA3EEA97AE4EE2F6ACD
:10B6A000A4EE246A75EEA15AC6ED005A83ED001A85
:10B6B00083ED019A4E4447ED017A87ED00AA4B4491
:10B6C00080ED003AC0ED018A4F4482ED000A484403
:10B6D000C2ED012AC5ED00EA85ED015A4A44C1EDEB
:10B6E000006A81ED016A4D4484ED008A84ED017A9F
:10B6F00049444C443FF6E6AE0E9B08330E930D9B37
:10B7000008330D930C9B08330C930B9B08330B935E
:10B710000A9B08330A93099B08330993089B083353
:10B720000893079B08330793119B08F101084345D1
:10B730007FF465AE129BDDF844B0DB009BB2129340
:10B7400030E517B0BDEC108BBDE8F08F036870B525
:10B750005E6A26B133460522BDE8704018470446AC
:10B760000D464E1D00E023689B6820469847002840
:10B77000F9D0236815F8011B1B6820469847B5428D
:10B78000F1D170BD2DE9F047164D0746002015F99F
:10B790009F9CA5F1980684B007EB010805F502759A
:10B7A00004464FF0B60A3368ABB193F83830142B27
:10B7B00011D019F1020F01D04B450CD1002269467E
:10B7C0003046CDE90244CDE90078ADF808A08DF807
:10B7D0000E402DF083FAE036B542E4D104B0BDE866
:10B7E000F08700BF203B0020F0B40D6800240CE07F
:10B7F000BCF1050F18D8A0F137030A2B14D104EBC4
:10B80000840415F8010B03EB4404A0F13003DEB20D
:10B81000092EA0F16107A0F1410CF0D9052FE7D85E
:10B82000A0F157030A2BEAD00D601460F0BC7047FA
:10B830002DE9F743124E0124A02318255FFA84F85E
:10B84000FF2B14DCD6F80802E9B2C1F11C028272A7
:10B850005F1C026880F80B80DBB20093C1F11B0112
:10B86000D2F8189000234246C9B2C8473B46013D72
:10B87000E6D10134052CE0D103B0BDE8F08300BF70
:10B88000203B002070B4447941BB03684FF4005260
:10B890004FF40076202502213CBB1A8C22F00102D5
:10B8A0001204120C1A841A8B188C22F0F30280B244
:10B8B000120420F00A00120C014342F0010241F090
