:020000040800F2
:10000000F0FF001089AB05085DCF0008A17304085C
:1000100029AC050829AC050829AC0508000000003A
:1000200000000000000000000000000059CF0008A0
:1000300055CF00080000000051CF00086983040874
:1000400029AC050829AC050829AC050829AC050828
:1000500029AC050829AC050829AC050829AC050818
:1000600029AC050829AC050829AC05080993050841
:10007000F9920508E9920508D9920508C592050884
:10008000B19205089D92050829AC050829AC050820
:1000900029AC050829AC050829AC050829AC0508D8
:1000A000BD63040845640408AD6304086D64040876
:1000B000356404082564040815640408A99A050831
:1000C000B19A05089D9A0508A59A050829AC050866
:1000D00029AC050865870408AD860408F585040881
:1000E00029AC050829AC05081D0901089D63040811
:1000F000CD6304088D630408F5630408899205083C
:1001000029AC050829AC05080564040829AC0508D4
:100110003D8504088584040805AB0308F1AA03089B
:1001200075920508619205084D92050839920508F7
:100130002592050829AC050829AC050829AC050855
:1001400029AC050829AC050829AC05089DF500086F
:1001500011920508FD910508E9910508CD83040871
:10016000919A0508999A050829AC050829AC050853
:1001700029AC050829AC050829AC050829AC0508F7
:0801800029AC050829AC0508B3
:0801880038A70500010000008A
:100190000502010004000000DC5D00204C5E002030
:1001A0000000000040090008030101000A000000EF
:1001B000F0360020505E002000000000ED8C0008AA
:1001C0001302010004000000AC2200205C5E00204D
:1001D00000000000440900080D100100700000003C
:1001E000304C0020605E002000000000B5EC0308E9
:1001F0000400080080000000704B0020D05E00204A
:1002000000000000000000000902010001000000E1
:10021000005D0020505F0020000000004809000839
:10022000FD01010024000000144B0020545F002059
:1002300000000000BF780408FB010100010000007D
:10024000D04A0020785F0020000000004D10050813
:10025000FC010100090000009C4900207C5F002097
:10026000000000005D100508F70101000600000015
:1002700090490020885F0020000000004A09000823
:10028000F9010100040000008C490020905F00206B
:1002900000000000697904080A80010028000000BD
:1002A00064490020945F00200000000075140208DB
:1002B000160215003F000000D4340020BC5F00206F
:1002C00000000000950F0508340001001000000038
:1002D00090480020FC5F002000000000314602082A
:1002E0001102010008000000684800200C60002096
:1002F0000000000050090008121201000400000074
:100300006048002014600020000000005809000828
:1003100018200100320000002C4800201860002046
:1003200000000000E5100508061001001C00000098
:10033000B42800204C60002000000000791005085F
:1003400012200100110000004C47002068600020CE
:10035000000000005C090008000201000B00000022
:10036000884400207C60002000000000E1060508B1
:10037000FA01010003000000104400208860002002
:1003800000000000C506050802020100030000008D
:10039000C82C00208C60002000000000000000003D
:1003A0000C02010004000000B42C0020906000202A
:1003B00000000000E9060508110001000C00000023
:1003C00086380020946000200000000009690408BD
:1003D000FE010100140000003C540020A060002039
:1003E00000000000910605081B020100100000003B
:1003F0007C7C0020F88D00200000000069070508C3
:100400001B1001000C00000028760020088E002040
:10041000000000008147010821020100F0000000F7
:1004200090740020148E0020000000003D2A010876
:100430002312010010000000A4790020048F002086
:100440000000000070090008371001002E000000B5
:10045000EC7B0020148F00200000000080090008C1
:100460000E02010002000000A0790020448F00204D
:1004700000000000AE090008161001000600000090
:1004800098790020488F002000000000B009000883
:100490002F10010022000000D48D0020508F00207A
:1004A00000000000B60900081E000100090000005D
:1004B000D4780020748F002000000000D8090008C4
:1004C000051001000600000088790020808F0020C0
:1004D00000000000E2090008F5810100680000004A
:1004E00020740020888F002000000000313D0108AA
:1004F000232001001000000014790020F08F00205C
:1005000000000000C5140208FD070100760000008D
:100510005E7300200090002000000000ED10010834
:10052000261001000E000000889000207890002026
:1005300000000000510F01080B3001001A000000FC
:1005400044730020C890002000000000E809000863
:100550001F300100240000003C780020E4900020BF
:1005600000000000040A00081C0202001C00000039
:100570002C9C0020E89C002000000000A90D05082C
:100580002820010018000000489C0020049D002045
:1005900000000000253502080F02010001000000E4
:1005A000D4A000201C9D002000000000280A0008A4
:1005B0001400010004000000249C0020209D002065
:1005C000000000002A0A0008012001000C000000C1
:1005D00040950020249D0020000000002E0A000805
:1005E0000EF003009E01000058920020309D002074
:1005F00000000000A528020813000100040000000C
:1006000030990020D09E0020000000003C0A000825
:10061000010101000400000098910020D49E0020F8
:1006200000000000000000000001010004000000C4
:1006300090910020D89E002000000000400A000891
:1006400002010100030000008C910020DC9E0020CC
:100650000000000039720308220201001C010000A2
:1006600018970020E09E00200000000005100508FB
:100670000C200600CC0000001C940020FC9F0020F1
:1006800000000000FD710308010201000B000000E2
:10069000A4910020C8A0002000000000D106050899
:1006A0001A0001000E00000068AD0020B0AE00206E
:1006B00000000000440A0008203201000A00000087
:1006C0005CAD0020C0AE00200000000081280208C0
:1006D000150010007000000068AB0020CCAE0020B8
:1006E00000000000000000002A0008006000000078
:1006F00078AA00203CAF0020000000005928020822
:100700002C00040010000000ACAF00209CAF0020C3
:1007100000000000312602082B0012002400000017
:10072000E0AF0020BCAF002000000000052602085A
:10073000292014007800000058A8002004B00020F0
:100740000000000000000000F62101000C00000085
:1007500010A700207CB0002000000000540A000810
:100760000300010001000000CCB1002038B50020DA
:100770000000000000000000031201003D00000026
:10078000F4B400203CB5002000000000600A00081E
:1007900025201E002C0100005CB200207CB500204A
:1007A0000000000000000000101001000200000026
:1007B000F8B10020A8B60020000000009E0A000842
:1007C000F821010006000000B4B10020ACB6002002
:1007D00000000000A00A0008190001000500000048
:1007E00070B10020B4B6002000000000A60A000886
:1007F000020001000C0000000CBF00201CBF002004
:10080000000000000000000029020100400000007C
:100810006CB9002028BF002000000000AC0A0008CE
:100820000A020100140000009CBE002088BF0020C6
:10083000000000008D7903081A0201003C0000004E
:10084000F8C4002044C6002000000000591105082B
:1008500038100100010000007CC2002080C600208A
:1008600000000000EC0A0008280204000400000058
:1008700018C7002020C700200000000065070508F9
:10088000270204000400000014C7002024C7002031
:1008900000000000590705081F02080010000000B2
:1008A00004C7002028C700200000000049060508F2
:1008B0000702010002000000A8D10020C0D10020E2
:1008C00000000000EE0A00081D0202000600000001
:1008D00078D10020C4D100200000000000000000FA
:1008E000060203000C00000090D10020CCDA0020AA
:1008F00000000000750E0508081203000F0000003C
:1009000080D10020D8DA002000000000010705088F
:10091000270001000400000078C80020E8DA002069
:1009200000000000F00A00081002010001000000B1
:10093000000E0120FC0D012000000000F40A000858
:10094000000000000000010018000001000000008D
:100950000000000001010101FFFFFFFF0000000196
:100960000000054147583400000800020000000064
:100970000000000000000000000000000000000077
:1009800020003200C800D007960014003200280072
:100990004C0440060005500014000F0008006400DD
:1009A0000100010005000A000000F40196000000AB
:1009B000C409000019000000000000000000000051
:1009C0000000000000000000000000000000000027
:1009D0000000000000000000000501000000000011
:1009E0000000200001010000AE014A015E012C015F
:1009F00064010300000001000A019A01001E0A00C0
:100A000000020000000000000001000000050000DE
:100A100001020300000000000000000000000000D0
:100A20000000000000800700000003000023E8032E
:100A30006400040A000114001E000000480044384D
:100A4000900100007E05EA05B4053200E803D007F6
:100A50000000000000000000010000000202000091
:100A60000000000000000000000000000000000086
:100A70000000000000000000000000000000000076
:100A80000000000000000000000000000000000066
:100A90000000000000000000000000000100000550
:100AA0000101F40114000000280100000000000012
:100AB0000000000000000000000000000000000036
:100AC0000000000000000000000000000000000026
:100AD0000000000000000000000000000000000016
:100AE0000000000000000000000000000000023CC8
:050AF0002003000000DE
:100AF5000403090412010002EF0201408304563287
:100B0500000201020301000012010002020200407E
:100B1500830440570002010203010000090220007E
:100B2500010104C03209040000020806500507054A
:100B3500810240000007050102400000090264002F
:100B4500030100C03209040000010300000009216F
:100B5500110100012236000705830309000A080B6D
:100B6500010202020100090401000102020100055F
:100B750024001001052401000204240202052406B4
:100B85000102070582030800FF09040200020A00AA
:100B95000000070501024000000705810240000032
:100BA50009024300020100C03209040000010202EB
:100BB500010005240010010524010001042402029E
:100BC5000524060001070582030800FF090401004A
:100BD500020A000000070501024000000705810226
:100BE50040000000FF00000000FF000000000000C2
:100BF5000000AA550701000001000800AA550501DB
:100C05000000080004EB0508FF1FFF1F7D00000022
:100C1500010000000000803F05010905A101A100B8
:100C25000501093009310932093309350934093615
:100C350009371581257F7508950881020509190170
:100C4500290815002501950875018102C0C000001D
:100C550009022200010100E032090400000103013C
:100C6500020009211101000122360007058303094D
:100C7500000A00005D8200085982000855820008BC
:100C85004982000845820008518200084D8200080B
:100C95000000040100000000000000021000000038
:100CA5000700000000000000010203040102030424
:100CB5000607080945D9000819E1000891DC000874
:100CC50059830008A5850008698300088583000805
:100CD50031830008218300080000000000000000A7
:100CE5002D202D2D202D2D2D2D202D2D2D2D0000B0
:100CF500000000000000000000000000000000AA45
:100D0500550B010000AA5505010000AA550902006E
:100D15000000AA5503009F0001000000C01200005A
:100D250001000000000001007EFF0000FFFFFFFF43
:100D3500FF000000FFFFFFFFC09000200000000043
:100D4500989000200000000034780608B077060867
:100D550000000000C1720308A08601000400000025
:100D6500000000000000000000000000000000007E
:100D7500000000000000000000000000000000006E
:100D85000000000000000000347806083C780608E2
:100D950000000000C1EA0308E803000004000000A9
:100DA500000000000000000000000000000000003E
:100DB500000000000000000000000000000000002E
:100DC5000000000000000000447806080000000054
:100DD50000000000BD7303087D000000FF00000057
:100DE50000000000000000000000000000000000FE
:100DF50000000000000000000000000000000000EE
:100E05000000000000000000B0F40608000000002B
:100E150000000000F57E03087D000000FF000000D3
:100E250000000000000000000000000000000000BD
:100E350000000000000000000000000000000000AD
:100E45000000000000000000A48806080000000063
:100E5500000000003DF302087D000000FF000000D7
:100E6500000000000000000000000000000000007D
:100E7500000000000000000000000000000000006D
:100E850000000000000000004C780608000000008B
:100E95000000000025420408E803000003000000EC
:100EA500000000000000000000000000000000003D
:100EB500000000000000000000000000000000002D
:100EC5000000000000000000507806080000000047
:100ED50000000000FDD502081027000003000000F7
:100EE50000000000000000000000000000000000FD
:100EF50000000000000000000000000000000000ED
:100F05000000000000000000C4F00608000000001A
:100F1500192202088D4C04085F76000005000000C8
:100F250000000000000000000000000000000000BC
:100F350000000000000000000000000000000000AC
:100F4500000000000000000054F406080000000046
:100F5500000000004974040810270000010000008B
:100F6500000000000000000000000000000000007C
:100F7500000000000000000000000000000000006C
:100F850000000000000000005C780608000000007A
:100F950000000000C5EA0308E803000005000000A2
:100FA500000000000000000000000000000000003C
:100FB500000000000000000000000000000000002C
:100FC500000000000000000068780608000000002E
:100FD50000000000E17B0308204E00000300000034
:100FE50000000000000000000000000000000000FC
:100FF50000000000000000000000000000000000EC
:1010050000000000000000007878060800000000DD
:1010150000000000C9790308204E0000030000000D
:1010250000000000000000000000000000000000BB
:1010350000000000000000000000000000000000AB
:10104500000000000000000088780608000000008D
:101055000000000095480408400D0300030000004F
:10106500000000000000000000000000000000007B
:10107500000000000000000000000000000000006B
:10108500000000000000000098780608000000003D
:1010950000000000154004081027000001000000B2
:1010A500000000000000000000000000000000003B
:1010B500000000000000000000000000000000002B
:1010C5000000000000000000DC77060800000000BA
:1010D500000000005953010810270000030000001C
:1010E50000000000000000000000000000000000FB
:1010F50000000000000000000000000000000000EB
:101105000000000000000000A078060800000000B4
:1011150000000000154D0208A08601000100000036
:1011250000000000000000000000000000000000BA
:1011350000000000000000000000000000000000AA
:101145000000000000000000A8780608000000006C
:10115500000000004523040850C300000100000002
:10116500000000000000000000000000000000007A
:10117500000000000000000000000000000000006A
:101185000000000000000000B07806080000000024
:101195000000000001210408A086010000000000F5
:1011A500000000000000000000000000000000003A
:1011B500000000000000000000000000000000002A
:1011C5000000000000000000BC78060800000000D8
:1011D50000000000D91C0408A861000001000000FF
:1011E50000000000000000000000000000000000FA
:1011F50000000000000000000000000000000000EA
:101205000000000000000000C8780608000000008B
:1012150000000000FDE30108A086010001000000B8
:1012250000000000000000000000000000000000B9
:1012350000000000000000000000000000000000A9
:101245000000000000000000D4780608000000003F
:101255000000000039ED0308A00F000001000000A8
:101265000000000000000000000000000000000079
:101275000000000000000000000000000000000069
:101285000000000000000000E078060800000000F3
:1012950000000000F18C010810270000010000008B
:1012A5000000000000000000000000000000000039
:1012B5000000000000000000000000000000000029
:1012C5000000000000000000EC78060800000000A7
:1012D50000000000D5E90308A00F00000100000090
:1012E50000000000000000000000000000000000F9
:1012F50000000000000000000000000000000000E9
:101305000000000000000000F8780608000000005A
:1013150000000000318401081A41000001000000AE
:1013250000000000000000000000000000000000B8
:1013350000000000000000000000000000000000A8
:101345000000000000000000FC7806080000000016
:1013550000000000258D0008102700000100000096
:101365000000000000000000000000000000000078
:101375000000000000000000000000000000000068
:101385000000000000000000C4770608000000000F
:101395000000000069ED010850C3000001000000D5
:1013A5000000000000000000000000000000000038
:1013B5000000000000000000000000000000000028
:1013C5000000000000000000087906080000000089
:1013D5000000000065990008400D030000000000B2
:1013E50000000000000000000000000000000000F8
:1013F50000000000000000000000000000000000E8
:101405000000000000000000107906080000000040
:10141500000000007DEA0308400D03000000000005
:1014250000000000000000000000000000000000B7
:1014350000000000000000000000000000000000A7
:1014450000000000000000001879060800000000F8
:10145500000000009198010850C30000030000003F
:101465000000000000000000000000000000000077
:101475000000000000000000000000000000000067
:1014850000000000000000002479060800000000AC
:101495000000000039AF030840420F0000000000C3
:1014A5000000000000000000000000000000000037
:1014B5000000000000000000000000000000000027
:1014C5000000000000000000307906080000000060
:1014D5000000000011ED030850C3000000000000EB
:1014E50000000000000000000000000000000000F7
:1014F50000000000000000000000000000000000E7
:10150500000000000000000001007F00FF01000056
:10151500E001010065A501080000000000000000D1
:10152500B4F70508080000000000000000000000F6
:10153500000000003C10060800000000000000004C
:1015450000000000F4100608000000000000000084
:1015550000000000A01006080000000000000000C8
:10156500B1BA0108299600200101000015D701082C
:101575000000000000000000C81106083DDA01085F
:101585000000000000000000801106082D202D2D10
:10159500202D2D2D2D202D2D2D00000000000000CB
:1015A500000000000000000000000000FFFFFFFF3A
:1015B5004DC801080000000000000000CC0F06081F
:1015C50001000000FA000000010000000100000019
:1015D5000001010100000000389500200000F40121
:1015E50001000000369500200000F4010100000014
:1015F500349500200000F401010000003295002020
:101605000000F40101000000309500200000F40105
:10161500010000002E9500200000F40101000000EB
:101625002C9500200000F4010100000051AD0108D7
:1016350015AD0108000000004CFC05081C950020B4
:10164500053201002A9500206400F4010100000024
:10165500289500206400C409010000001A950020A7
:10166500E803D0070100000018950020E803D00723
:101675000100000016950020E803D00701000000D6
:10168500149500201E00B80B0100000022950020D3
:1016950005000F00010000002495002003000A004A
:1016A50001000000129500201E00F4010100000059
:1016B5002695002002000000D8FC050810950020A2
:1016C50014006400010000001E9500203200E803AC
:1016D500010000000E9500200000C8000100000078
:1016E5001994002000C80100189400200050010042
:1016F50017940020005A01001594002002000000F4
:10170500E4FC0508EC7F0608F47F0608C64C0020BB
:101715000100C40900000000C44C00200100C409F8
:1017250000000000C24C00200100C40900000000B8
:10173500C04C00200100C40900000000BC4C002082
:101745000100C40900000000BE4C00200100C409CE
:1017550000000000BA4C00200100C4090000000090
:10176500B84C00200100C40900000000C39100200E
:1017750000C80100C291002000C80100C0910020EE
:101785000000FFFF0A000000BE9100200100C80014
:1017950001000000BC9100203200307532000000CD
:1017A500BA91002005820500B891002005002C01A2
:1017B50005000000B7910020055A0500B4910020EE
:1017C50000FF0100B6910020020000009C0D0020E2
:1017D500B291002003000000E4F10508B391002058
:1017E50000FF0100B5910020020000009C0D0020C3
:1017F500B191002003000000E4F10508A5AC010843
:1018050035AC010800000000F0FC050850950020EB
:10181500EE02CA08010000004E95002000C8010034
:10182500640000004D95002000C801006400000020
:101835004C95002002000000FCFD05089E9100204B
:101845000000803E050000009C91002080C1803E84
:1018550005000000969100200083007D0500000032
:101865009491002080C1803E050000008F910020EA
:1018750000FF0100889100206400F40101000000D0
:10188500869100200400000008FE050885910020CF
:10189500020000001CFE0508499200200D00000012
:1018A50028FE0508469200200064010044920020AD
:1018B500320010270A000000429200200D000000AF
:1018C50028FE0508419200200D00000028FE0508AD
:1018D500409200200200000060FE050800000000A4
:1018E50000000000000000006CFE05085695002071
:1018F5003E000000A4FE0508549500200100FF7F6E
:10190500010000005395002002000000A0FF05081B
:101915004B92002003000000B0FF05084A9200200A
:1019250003000000B0FF050806940020000A01002E
:10193500049400200000E803010000000294002048
:101945000000E80301000000009400200000E80307
:1019550001000000FE9300200000E80301000000E4
:10196500F69300200000E80301000000FC9300202E
:101975000000E80301000000FA9300200000E803DE
:1019850001000000F89300200014010014940020C9
:1019950002000000C0FF0508129400200000F401B9
:1019A50001000000109400200000F4010100000077
:1019B5000E9400200000F401010000000C940020AA
:1019C5000000F401010000000A9400200000A00FAF
:1019D50001000000089400200000A00F0100000095
:1019E500FB94002019640100FA9400200200000015
:1019F500CCFF0508F8940020E803D0070A00000092
:101A0500F6940020006401000A000000EB94002019
:101A150000640100EA94002000640100F2940020B3
:101A2500006401000A000000F19400200064010038
:101A35000A000000F0940020006401000A00000084
:101A4500F594002000FF01000A000000F494002036
:101A550000FF01000A000000F394002000FF0100D0
:101A65000A000000EF94002001FF01000A000000B9
:101A7500EE94002001FF01000A000000ED94002013
:101A850001FF01000A000000549200200000F4014B
:101A950001000000529200200000A00F010000008C
:101AA500509200200000A00F010000004E9200207F
:101AB5000000A00F010000004C9200200000A00FC4
:101AC500010000007196002000C8010070960020FA
:101AD500006401006F960020006401006E960020EE
:101AE500006401006D960020006401006C960020E2
:101AF500FF0801006B960020016401009DAB010801
:101B050061AB010800000000D8FF050874960020AD
:101B1500013201007396002001000000480006080C
:101B25007296002004000000500006086A96002006
:101B350000640100689600201400E803010000001D
:101B450066960020E80330750A00000065960020BF
:101B550000C801006496002000C8010063960020BB
:101B650000C8010062960020003201007696002030
:101B7500004B010075960020040000006400060873
:101B850061960020006401000A0000008496002090
:101B95000000D007010000007F96002000C801006A
:101BA5007E96002000C801007D96002000C8010037
:101BB500829600200000D007010000007C960020DE
:101BC50000C801007B96002000C801007A9600201D
:101BD50000C80100809600200000D0070100000029
:101BE5007996002000C801007896002000C8010001
:101BF5007796002000C8010055A901083DA90108F4
:101C050000000000780006083D920020005A0100FF
:101C15003C92002000C801003A920020E803D0075A
:101C2500010000000000000000000000F1BA0108FA
:101C3500140106084147335846340000B09100208E
:101C450000030100AF9100200003010079A80108FD
:101C55002DA801080000000068010608EDA701088D
:101C6500A5A701080000000004020608C5A8010890
:101C750031C801080000000084020608A091002078
:101C8500010301002DAE010801AE010800000000AE
:101C9500DC05060829A70108DDA6010800000000EB
:101CA5004C06060865A901082DE30108000000009F
:101CB500E806060839CC010859AE01080000000005
:101CC50090070608B5A90108000000000000000003
:101CD5001C08060891AA010839AA0108000000009D
:101CE5008008060825AB0108E9AA010800000000E4
:101CF50028090608D5120208D9AB01080000000022
:101D0500B40906080D95002001060100FDA901088A
:101D1500C9A9010800000000B00A06080912020856
:101D2500CDC9010800000000200B06081D1302089C
:101D350095CA010800000000700C06080C950020EB
:101D4500010301000DA90108DDA80108000000003C
:101D5500440D06087513020800000000000000008D
:101D6500A80D060875A7010819C80108000000009C
:101D7500280E06080000000000000000000000001A
:101D8500B40E06080DAC01080DCB010800000000DB
:101D9500240F0608000000000000000000000000FD
:101DA5003C110608885D00209CFF2C010000000006
:101DB500C8980020E0150C1700000000BD95002014
:101DC50002000000741106088091002088136F1727
:101DD500010000008291002088136F1700000000A9
:101DE500E23600200000000000000000E036002080
:101DF5000000000000000000DE36002000000000AA
:101E050000000000DC36002000000000000000009B
:101E1500DA3600200000000000000000D83600205F
:101E25000000000000000000B403002000000000D6
:101E3500000000000991002003000000641206085C
:101E45007891002088136F1701000000D25D0020F3
:101E550088136F17000000001DA601080000000090
:101E65000000000074120608BE9500200100000065
:101E7500C8120608D45D002001000000D41206082F
:101E8500CA5D002002000000DC1206080000000008
:101E95000000000000000000E812060805A6010881
:101EA5000000000000000000841306080000000088
:101EB5000000000000000000D81306080000000024
:101EC500000000000000000048140608849100206E
:101ED5000200000080140608CE5D0020E0150C17F6
:101EE500000000005CA20020B0A2002001D601FF86
:101EF500010000000000803F00000000000000001D
:101F050000000000000000000000000000000000CC
:101F15000000000000000000000000000000803FFD
:101F25000000000000000000000000000000FA436F
:101F35000000FA430000803F0000803F00000000E1
:101F450000000000000000000000803F00000000CD
:101F5500000000000000000001000000FFFFFFFF7F
:101F6500FFFFFFFFFF0000005948040800000000C4
:101F750000000000000000000000000078BF002005
:101F8500080000000000000068BF002008000000F5
:101F950001000000A00F0000B80B00000102FFFFC8
:101FA50001000000685E0C00FFFFFFFF020000005B
:101FB500C5890008B584000871DC00080000000030
:101FC5001D83000811D900087989000879D800080F
:101FD5000000000000000000D98200086D820008A2
:101FE5006182000801D000081DD00008E5CF000877
:101FF500C9CF0008ADCF00087D890008918400088D
:10200500BDDB000800000000F18200087DD8000853
:102015004D890008CDD70008000000000000000031
:10202500E5820008FFFF00000060024010600240EA
:102035000000000000000000000B00000000000090
:10204500000000000000000000600240286002401F
:102055000100000000000000060C00000000000068
:1020650000000000000000000060024040600240E7
:102075000200000000000000100D0000000000003C
:1020850000000000000000000060024058600240AF
:102095000300000000000000160E00000000000014
:1020A5000000000000000000006002407060024077
:1020B5000400000000000000200F000000000000E8
:1020C500000000000000000000600240886002403F
:1020D50005000000000000002610000000000000C0
:1020E500000000000000000000600240A060024007
:1020F5000600000000000000301100000000000094
:10210500000000000000000000600240B8600240CE
:102115000700000000000000362F0000000000004E
:10212500000000000000000000640240106402404E
:102135000000000000000000003800000000000062
:102145000000000000000000006402402864024016
:10215500010000000000000006390000000000003A
:1021650000000000000000000064024040640240DE
:102175000200000000000000103A0000000000000E
:1021850000000000000000000064024058640240A6
:102195000300000000000000163B000000000000E6
:1021A500000000000000000000640240706402406E
:1021B5000400000000000000203C000000000000BA
:1021C5000000000000000000006402408864024036
:1021D500050000000000000026440000000000008B
:1021E500000000000000000000640240A0640240FE
:1021F500060000000000000030450000000000005F
:10220500000000000000000000640240B8640240C5
:102215000700000000000000364600000000000036
:102225000000000000000000B8F0060800000802E9
:102235000503030000000000C0F0060801000802C5
:102245000504030000000000909D06080200FE0141
:102255000110030000000000548306080300140267
:102265000003000000000000C8F0060804001F027B
:102275000200080000000000D0F0060805001F025B
:102285000201080000000000FFFFFFFF1A03000025
:102295000000000000000000000000000000000039
:1022A5000000000000000000040309041201000200
:1022B50000000040830420570002010203010000D2
:1022C500E5110508B1070508AD070508A9070508C3
:1022D50031120508A5070508A10705082C6706089A
:1022E500518A000871840008DDD90008000000004B
:1022F50000000000C9D60008F1D600080000000063
:102305000000000000000000CD8200084908050813
:102315003D080508511705086D170508F507050857
:1023250035170508191705080000000040000000D2
:1023350003000000000400001F0000001C00000056
:102345001F0000001E0000001F0000001E0000000E
:102355001F0000001F0000001E0000001F000000FD
:102365001E0000001F0000000068214CFF01000056
:10237500F4010000FF000000CC7006080100000019
:102385001C1A0020000000000000000000000000F2
:102395000000000000000000000000000000000038
:1023A5000000000000000000000000000000000028
:1023B5000000000000000000000000000000000018
:1023C5000000000000000000000000000000000008
:1023D50000000000000000000000000000000000F8
:0423E50000000000F4
:082800000000000000000000D0
:108000002DE9F04700230F6801264FF0030C02E032
:108010000133102B41D006FA03F232EA0704F7D1FC
:10802000D0F800E05C000CFA04F52EEA050EC0F86A
:1080300000E091F80490D0F800A009FA04FE09F1DC
:10804000FF394EEA0A0EB9F1010FA846C0F800E068
:108050006FEA050515D8D0F808E005EA0E05856039
:108060004D79D0F808E0A54045EA0E0585604568E1
:1080700025EA020242608A7945689A4092B22A4310
:108080004260C26822EA0802C260CA79C568A2409A
:1080900001332A43102BC260BDD1BDE8F08700BF79
:1080A000074AD2E9003199421FBFD1180133097A3A
:1080B00001701DBFC3F30A03012013600020704745
:1080C000801A0020064AD2F80838D2F80C289342C9
:1080D00094BF4FF400600020013B9B1A1844704786
:1080E000801A0020012380F85130704707B501A89D
:1080F000FFF7D6FF0028FAD09DF8040003B05DF822
:1081000004FB044BD3E90003984288BF03F50063E6
:10811000181A7047801A002001207047024BC3F8DC
:108120001028C3F814187047801A0020024BC3F8B7
:108130001828C3F81C187047801A00207047704731
:1081400030B4124DD5E900239A4286BF03F500648E
:10815000A21A9A1A0A44B2F5006F11D899B10144D3
:108160004A1E013810F8014FE918824203F1010359
:108170000C72C3F30A03F5D16B60002030BC70476A
:10818000022030BC70470846F8E700BF801A002084
:10819000212838B50C4605D022282ED0202813D00F
:1081A000002038BD0029FBD0072AF9D11A4BD3F89B
:1081B000200893F8241893F8252893F8263820608F
:1081C00021716271A371EBE70029E9D0072AE7D199
:1081D000114DD5F814381BB10968D5F81008984727
:1081E000206821796279A379C5F8200885F82418D8
:1081F00085F8252885F82638D2E70029D0D0022A2C
:10820000CED1054AD2F81C38002BC9D00988D2F843
:1082100018089847C4E700BF801A0020024B0020CE
:10822000C3F82808704700BF801A0020044B0020C4
:108230000522C3F82828C3F81C08C3F8140870479F
:10824000801A0020704700BF704700BF704700BF12
:10825000704700BF704700BF704700BF704700BF46
:10826000042301480B8070478801002010B4074A9E
:10827000074B92F82C08122403F114020C800128F9
:108280000CBF184610465DF8044B7047801A00205A
:108290008C01002010B40C4A92F8303802EBC30174
:1082A0000133DBB2042B4FF0050408BF00234FF469
:1082B000045081F8344882F83038C1F838085DF845
:1082C000044B4FF0FF307047801A002020230148F4
:1082D0000B807047B4010020642301480B80704775
:1082E000D4010020432301480B807047380200204E
:1082F00010B5084CD4F8F400FF2809D00649D1F88D
:10830000542801F65801FFF743FFFF23C4F8F43067
:10831000002010BD88010020801A0020E8E700BF7F
:1083200008B5D0F8E4355B6A9847002008BD00BF67
:1083300008B5D0F8E4351B6A9847002008BD00BF97
:10834000D0F8E43510B504461B689847D4F8E835F2
:108350009B689847002010BD08B5D0F8E435DB696C
:1083600003B19847002008BD08B5042290F8121107
:10837000D0F8E83580F8131180F81221DB689847AF
:10838000002008BD10B5D0F8E83504461B699847B1
:10839000032384F81231002010BD00BF0B0617D450
:1083A00001EB810300EBC30310B400EB8100012457
:1083B000002283F8764383F8741383F87523426DA3
:1083C0005DF8044B136843F40013002013607047FA
:1083D00001F07F0101EB810300EBC303012200EBFD
:1083E000810083F81C1183F81E2183F81D21826906
:1083F0001368002B01DA43F0804343F40013136049
:10840000002070470B0630B41CD401EB810200EB56
:10841000C202002300EB810582F8741382F87533E1
:1084200001241A4604FA01F16D6D61F31F420169DE
:108430006FF3CF332B60CB6923EA0203002030BCFB
:10844000CB61704701F07F0101EB810400EBC404B4
:10845000012200EB8105002384F81C1184F81D2102
:1084600002FA01F11A46AD6961F30F02DFE700BFBE
:1084700010B581210446FFF7C5FF20460121FFF713
:10848000C1FF024B002083F8600810BD801A002055
:1084900010B581210446FFF7B5FF20460121FFF703
:1084A000B1FF82212046FFF7ADFFFFF7B7FE0020A6
:1084B00010BD00BF38B50D4604468321FFF7A2FF6B
:1084C00029462046FFF7E4FF002038BDF0B41646E9
:1084D0000A063AD401EB810500EBC50528240022E9
:1084E00004FB0104022B85F87413C5F87C6385F83E
:1084F000773385F8752304F55D7448D0154600EB95
:108500008107012202FA01F17F6D61F31F45D7F85F
:1085100000C01CF4004F11D1E488204946F080527D
:1085200042F4004242EA834204F00F041C4B42EA48
:10853000845211400CEA0303194339600269D3697C
:108540002B430020F0BCD361704701F07F0101EBA9
:10855000810500EBC5052824012204FB0104022B40
:1085600085F81C11C5F8246185F81F31A5F8221182
:1085700085F81D2104F58E740CD0002500EB8107D1
:10858000012202FA01F1BF6961F30F05BFE7227111
:108590001546B4E700252571F0E700BFFF87CC132F
:1085A000007833EC002310B5194604464022FFF74B
:1085B0008DFF8021204600234022FFF787FFD4F85B
:1085C000E835A078012284F812215B6898470020E2
:1085D00010BD00BF82B00023016801930B690193B5
:1085E0000E4B03E00A690192013B13D0019A002A65
:1085F000F8DA019A094B42F001020192019A0A61EC
:108600000A69019203E00A690192013B02D0019AD2
:10861000D207F8D4002002B0704700BF400D03001D
:10862000436D064A1A61C278012A06D100F2CC5085
:1086300058614FF0802219681A607047180008606E
:1086400010B580210446FFF7A9FE20460021FFF760
:10865000A5FE2046BDE81040E2E700BF70B44B78AD
:10866000012B26D00B784A6900EB83035C6D2568EB
:108670002369D2B18A684A6102F07F0223F40023A1
:1086800023F07F0342F4002213432361C378012BBC
:1086900004BF0B696361C5F3076363F07B0363F396
:1086A0001F652560002070BC70478A6802F07F0259
:1086B000E4E782694C691568136944B38E68B44273
:1086C0008CBF06F07F0404F07F0423F4002323F022
:1086D0007F0344F4002443EA040388BF4E6113611E
:1086E000C378012B1DD0C5F3076464F07B0464F3E9
:1086F0001F651560002BD5D14B69002BD2D00269C4
:108700000878516B012383400B435363CAE723F47A
:10871000002323F07F0343F400231361C378012B6C
:10872000E1D10B780C6900EB8300C5F30763816925
:1087300063F07B0363F31F654C610020156070BC20
:10874000704700BF2DE9F0434B78012B30D00B78F8
:108750004C6900EB83035E6D356837691CB38B6829
:108760001C44013CB4FBF3F4C4F3090203FB02F321
:10877000C3F312034B61144643EAC44363F31C077B
:108780003761C378012B04BF0B697361CB78012B70
:1087900044D0C5F3076363F07B0363F31F65356063
:1087A0000020BDE8F0838A680124C2F31203E3E7E6
:1087B00091F800804E6900EB880EDEF818C0DCF8F6
:1087C0000050DCF8107076B3D1F80890384A06EB08
:1087D0000904013CB4FBF9F402EAC444C6F31202F2
:1087E0002243CC7807F060473A43012C174649D022
:1087F000CCF81020C278012A55D00269516B03FAD7
:1088000008F30B435363C5F3076363F07B0363F320
:108810001F65CCF800500020BDE8F0834B7973B39E
:1088200045F00055B5E707F0604747F40027CC78DE
:10883000CCF81070C378012B2FD0012CE3D1026942
:108840009268D20554BF45F0005545F08055C5F3F8
:10885000076262F07B0262F31F65CCF80050002BC8
:108860009ED1B0B203308010DEF8D04098D0CA68F4
:1088700052F8041B216001339842F9D190E745F08A
:10888000805586E764F35E77CCF81070C378012BCF
:10889000D5D10A69CCF81420D1E70A69CCF81420A4
:1088A000012CB0D1CBE70B69CCF81430ABE700BF9B
:1088B0000000F81F38B501EB810400EBC4040D463D
:1088C000002184F87453C4F88C1384F87513C4F829
:1088D0008833C4F88023C3782821012B01FB0501CC
:1088E00008BFEDB201F55D7108BFC4F884231DB95E
:1088F000FFF7B4FE002038BDFFF724FF002038BD8D
:1089000070B5104BD3F86C2893F8845804461AB10C
:1089100093F870382B430DD081212046FFF73EFDA0
:10892000022D00D070BD2046074ABDE870401F23CD
:108930000121BFE70121FFF731FD20468121BDE87C
:1089400070402BE5801A0020E422002010B501EBD6
:108950008101084A00EBC1010446B1F88C131046AE
:10896000FFF7EEFB034A204640230121FFF7A2FF59
:10897000002010BD08230020E8E700BF10B5022347
:10898000044640228121FFF7A1FD20460223402218
:108990000121FFF79BFD8221204603230822FFF7D8
:1089A00095FD064B02229A83FFF740FC044A2046BD
:1089B00040230121FFF77EFF002010BD8801002029
:1089C0000823002038B509220D46044603238321DD
:1089D000FFF77CFD29462046FFF7D0FF002038BD79
:1089E00082B000230193019A094B42F010020192D8
:1089F000C168019A0A610A69019203E00A69019259
:108A0000013B02D0019AD206F8D4002002B0704790
:108A1000400D030082B000230193019A0B4B42F0FA
:108A200020020192019A61F38A120192C168019AAF
:108A30000A610A69019203E00A690192013B02D0CE
:108A4000019A9206F8D4002002B07047400D03004E
:108A500070B50446144EFFF70BFD2046022340225A
:108A60008121FFF733FD4022012120460223FFF739
:108A70002DFDD6F8C83800251B6886F860582846B2
:108A800086F8845898472046FFF7AAFF2046012120
:108A9000FFF7C0FF204606F664021F230121FFF7FF
:108AA00009FF284670BD00BF801A00200E4BDA680F
:108AB000D20310D4DA68D1060FD4DA68D20510D404
:108AC000DA6812F0E00F0AD1DB6813F0020F14BF6E
:108AD00008200920704701207047062070470720B2
:108AE00070470220704700BF003C0240024A536AB0
:108AF00023EA0000506270470038024000207047AF
:108B0000704730B1034B93F9CC080028D4BF002044
:108B100001207047801A002008B5FFF7F2FF60B10E
:108B2000064A92F8CD3892F8CE285B0003F0020393
:108B3000002A18BF43F001030B6008BD801A002013
:108B400008B5FFF7DEFF18B1024BD3F8D0380B8021
:108B500008BD00BF801A002070B5FFF7D2FF90B1AA
:108B6000094AB2F8D45875B1D2F8D8680023B34294
:108B70001C4608DA02EB44040133B4F8DC48AC428A
:108B8000DBB2F4D30B7070BD801A002008B5FFF77C
:108B9000B8FF10B100230B70137008BD042070479C
:108BA00028B1034B93F9F800003818BF0120704733
:108BB0008801002008B5FFF7F3FF50B1054B93F98A
:108BC000F820012AC3BF93F8FB30C3F340030B60C6
:108BD000002008BD8801002008B5FFF7E1FF18B1AB
:108BE000024B93F8FA300B7008BD00BF88010020DB
:108BF00070B5FFF7D5FF38B10E4C94F8FB30DB07AA
:108C000003D500230B70137070BD0B4D94F9F93030
:108C100095F8EC6893FBF6F301330B7094F9F94087
:108C200095F8EC1894FBF1F301FB13430133137037
:108C3000EAE700BF88010020801A00200320704767
:108C400070B50B4A92F8F03806255E1CB6FBF5F4B9
:108C500005FB146492F8F158AC421FBF02EBC3034A
:108C600082F8F048C3F8F408C3F8F81870BD00BFE4
:108C7000801A0020002230B504461046914200DCE4
:108C800030BDA35C0825584010F0800F4FEA400328
:108C900018BF83F0D503013DD8B2F5D10132EDE71D
:108CA00010B5E9B10F4BD3F82409814218DCBAB1F1
:108CB000D3F8EC389A4213DC0B4C013A013903FB30
:108CC000012184F8061104F581700521FFF7D2FF18
:108CD000062184F8070104F58170BDE81040AFE774
:108CE00010BD00BF801A00208801002000230380EF
:108CF00083708380C3800372704700BF074A0849AE
:108D000092F8283909780133DBB2994282F8283980
:108D100004BF002382F82839704700BF801A002062
:108D200014000010F8B5794CD4F82C3983B1784B85
:108D30005B6893F82E305BB1764B94F83029A3FB37
:108D40000013012A4FEA931330D0022A08D002B14F
:108D5000F8BD714B9842FBD9012384F83039F8BD36
:108D6000D4F8342964329A423ED894F8283904EB76
:108D7000031393F8B42DFF2A06D06849013201206D
:108D800083F8B42D81F80801FFF7B8FF94F8A83DE7
:108D90000122092B84F83029DAD1B4F8523E134469
:108DA0009BB2A4F8523EA4F8AE3DF8BD94F8281941
:108DB000C4F834398C2303FB014394F8A80D83F8DD
:108DC0004A29002604F63C150A220223092884F8C1
:108DD0004669C4F8385984F8472984F83039B7D13E
:108DE0000131A4F8AC1DF8BD94F8462994F8473930
:108DF0009A42ADD104F63B1004F64415002310F856
:108E0000012F082153405A0013F0800F08BF5B0068
:108E100082F0070214BFD3B2DBB20139F3D185422D
:108E2000EDD194F845299A4239D194F82869B4F8DB
:108E30003F5994F84379B4F8410994F8443994F8C7
:108E40003DC904EB06126DBA40BA43EA0723ADB23E
:108E500094F83E7982F8B41DC2F8B85D81B22F4D06
:108E600094F93C09C2F8BC1D47EA0C271BB201214A
:108E7000032EA2F8B67DA2F8C03D82F8B50D85F8A4
:108E8000081109D894F8A82D0C2A2AD00D2A03D14C
:108E900004EB4606A6F8AC0DFFF730FF5CE794F84C
:108EA000283904EB031393F8B42DFF2A06D01B498D
:108EB0000132012083F8B42D81F80801FFF71EFF6D
:108EC00094F8A83D0122092B84F830297FF440AFA3
:108ED000B4F8503E13449BB2A4F8503EA4F8B03D01
:108EE000F8BD94F84E1E0E4A03EB830303EB830395
:108EF00049089B0004EB460693FBF1F382FB031247
:108F0000DB17C3EBA203A6F8AC3DC5E7801A00202F
:108F100014000010D34D62103F4B4C00880100201C
:108F2000676666660B4B93F8461993F8472991429A
:108F30000ED010B493F84629D3F83849511CD2B258
:108F4000C0B2C9B283F84619A0545DF8044B70470B
:108F5000704700BF801A0020134B10B400220F246A
:108F600083F8561E090A83F8550E83F8571EC3F876
:108F7000582EC3F85C2EC3F8602E83F8544E03F6C7
:108F80005460012110F8014F013122440E29D2B260
:108F9000F8D183F8622E0549D3F8640E5DF8044BCE
:108FA00010223FF037BE00BF801A0020D4280020D6
:108FB000054B002183F8681EC3F86C1ED3F8643E8D
:108FC00003B1C9E7704700BF801A00202DE9F843BC
:108FD0006F4D704C05F6746300214FF4F07285F804
:108FE000701E07462021184655F031FB4FF4F072F1
:108FF00000F5F070202155F02AFB94F83D0110B1E6
:1090000094F83E211AB900263046BDE8F8833FF0B7
:1090100091FE8046C4F8480140F000FB0646002857
:10902000F1D0B8F1000F02D02323A8F806300921AF
:10903000404640F02DF9D4F84801DFF8608140F057
:10904000FFFA94F83E01013840B240F0B7FD022328
:10905000102184F84031C4F8440150F05DF9B8F8AB
:109060000A114D4840F09CFCD4F8480140F0E2FA67
:10907000FF218C204BF0C8FF8146D4F8480140F016
:10908000DFFAD4F84401042150F046F9B9F11B0F7E
:1090900005D0D4F84801202140F0FAF8B3E7D4F81D
:1090A0004831012285F8702E0BB12322DA80B8F8FE
:1090B0000A11394840F074FCD4F8480140F0BAFA7B
:1090C00040210A204BF0A0FFFF218A204BF09CFF9B
:1090D000C0F38013D4F8480184F84C3140F0B0FA62
:1090E000D4F84401042150F017F994F83C31012BD5
:1090F00044D0022B3AD0EBB395F8A83D182B09D1F8
:1091000094F84C21B8F80A31A5F8AC7DA5F8AE2D3D
:10911000A5F8B03DB8F80A111F4840F041FCB8F876
:109120000A111D4840F03CFCD4F8480140F082FA96
:10913000022100204BF068FFD4F8480140F080FA8B
:109140000421D4F8440150F0E7F894F8512194F840
:10915000523194F8501184F84D11C2F12002C3F13C
:10916000100384F8532184F854314DE70823A8F8FC
:109170000A31C1E71023A8F80A31BDE7002FF5D066
:1091800094F84C31002B14BF08231023EFE700BFE5
:10919000801A0020782B0020B82C002088010020A5
:1091A000F8B51A4D95F85531002BFBD161B3014448
:1091B000174F4E1E441ED7F80C28D7F8081814F87D
:1091C00001CF531CC3F30A038B422CBF4FF4006042
:1091D0000020C91A2A4401440129C7F80C3882F832
:1091E00058C10FD101203EF02BF8D7F80838D7F836
:1091F0000C188B4294BF4FF4006200225B1A134498
:10920000012BEFD0B442D6D10020F8BD782B00203E
:10921000801A00200A4B0846D3F8281810B569B107
:10922000D3F82838052B09D1064C002AD4F8583930
:1092300004DD1146FFF7B4FFD4F8583910BD00BF64
:10924000801A0020782B002010B590F850100023D1
:1092500080F8503089B10C4CD4F828287AB1D4F871
:109260002828052A0DD1094C3C30D4F85839FFF78D
:1092700097FFD4F85839012010BD0120FCE71046B3
:10928000FAE71846F8E700BF801A0020782B002084
:10929000002280F85120D7E790F85020531C024458
:1092A000DBB280F8503082F83C1090F851200AB1BF
:1092B000132B00D9C8E770472DE9F04FC84DC94CB2
:1092C00084460F4616460FCD2DED068B0FC40FCDED
:1092D0000FC495E80700C44B8DB093F8363E039653
:1092E00084E80700CDE908C7042B00F26F81DFE8AE
:1092F00013F0C0016D0168010500D0019FEDBB8A2C
:10930000DFEDBB8ADFF81C93BA49C9F82410BA49CB
:10931000BA4BBB4AC9F820100399002918BF13465D
:1093200038EE887AF5EE006A86EE87AADFF8F8B2A2
:10933000C9F82C30B34FB44B04930BF65C180026DD
:10934000DFEDB27A9FEDB29A28EE278AF0EE679AA7
:10935000099BB34200F02F81049B13F8014B049347
:10936000731C0593DAB2002C00F09881002303E00F
:109370000133152B00F0928103EB43015D0018F8D7
:109380000100A042F4D15944069291F85D190029D8
:1093900000F08C8120463DF073FA03680793824603
:1093A00018463DF059FA9AF805103DF0BFFA90F8CA
:1093B00000E0BEF1000F40F071810BEB05002509C4
:1093C0000321013D069A079B80F89D298D4280F874
:1093D0009C1904F00F0C00F23881814800EB450025
:1093E000808D40FA0CF414F0010400F04081012457
:1093F00004FA0CF3013B1840069251F04DFA784BF9
:10940000844A1D44032195F83430184402EBC0030C
:109410001546069A9971DA7155F83000704D7B61E6
:1094200000F13F4101F57E0105EB91219AF80820FA
:1094300091F8381001F01F054909032904FA05F4D1
:1094400000F01081042900F00881022900F0008159
:109450009B880A93B3FA83F3C3F11F03C3F3CC01D0
:1094600000EB810103F007030C6A9B000F259D4070
:1094700024EA05040C620C6A02FA03F323430B622C
:1094800002230AA90B93FEF7BBFDDAF80030039A1A
:10949000002A00F0CB80544AB2F8342E00EE102A95
:1094A000B8EEC00AFCEEC07A17EE901A5A4A934200
:1094B00000F09180A2F58062934200F08C8002F56A
:1094C0008042934200F0878002F58062934200F070
:1094D000828002F5806293427DD0DBF8382B500801
:1094E0004FF6FF73B0FBF1F21A44120CB0FBF2F22C
:1094F0000398002872D0B2FBF1F18BB23A4890F891
:10950000360E04280BBF07EE901A07EE902AF8EEED
:10951000677AF8EE676A05BF07EE102A67EEA97A48
:1095200066EE887AF8EE476A29EE677A2E49A6EE4B
:10953000A87A91F8370E0899009101905146384663
:10954000C7ED027A87ED037A30F0C4FF002E78DD94
:109550007B68D9F84020934275D0012E71D0D9F89C
:10956000582093426FD0022E6BD0D9F870209342CE
:1095700069D0032E65D0D9F88820934263D0042E99
:109580005FD0D9F8A02093425DD0052E59D0D9F8EC
:10959000B820934257D0062E53D0D9F8D020D31AF2
:1095A00018BF0123059E3B740122082E7A7407F12F
:1095B00018077FF4CDAE0B480DB0BDEC068BBDE8AF
:1095C000F08F9FED168AF0EE488A9BE69FED148A95
:1095D000F0EE488A96E6DBF8380B81E719468DE70E
:1095E000F0E605081C000010801A0020ACC5A73763
:1095F000ACC5A736F972030855790408D96D03087C
:109600004979040850000010BB2800206F12833AEB
:1096100000007A44403500200004014028293038F9
:109620006F12033914000010782B0020B0EE4A0AA4
:10963000069352F0A5F9FCEEC07A069B17EE901A3D
:1096400034E70123AEE70023ACE7C7F814E01EE7D8
:1096500017494D6C2C434C64FAE615490D6B2C43AD
:109660000C63F5E612490D6C2C430C64F0E67C614A
:109670000DE7DFF858909FED0F8A0F4B0F4AC9E9AD
:1096800008320023089301230393F0EE488A0C4B21
:1096900046E6DFF838909FED0B8AEEE70A4A084B62
:1096A000C9F82420C9F82C30002085E70B68FFDEBC
:1096B000003802406F12833A55790408F9720308A2
:1096C0004979040800000000D1700308140000105C
:1096D000F8B50546262025F099FD134C0146F0B952
:1096E000D4F83C0B90F838301E3B012B01D93FF0E9
:1096F000C5FA0E4F0026AE4209DBB4F8603B0133D9
:10970000A4F8603BD4F85839C4F8703BF8BD17F89A
:10971000011BD4F83C0B3FF0B1FA0136EBE7002314
:1097200084F86E3BEEE700BF782B0020B8360020AF
:1097300038B5154C94F8F13894F8F0289A421CD0BA
:1097400004EBC303114AD3F8F418D3F8F808002344
:10975000984213DC8B780E4A5B0882F86E3BC2F8A5
:10976000740BFFF7B5FF94F8F13806210133B3FB12
:10977000F1F201FB123384F8F13838BDCD5C02F808
:10978000015B0133E4E700BF801A0020B8360020F7
:10979000782B00202DE9F84F1B4C05461E2094F82D
:1097A00078AB94F879BB94F87A6BB4F87C9BB4F8F6
:1097B0007E8B94F8807B25F029FD30B1B8F1000F45
:1097C0001EBFC14601264FF0000A94F8823BDA071B
:1097D0000AD494F8872B3AB9012F12D0022F03D163
:1097E00013F0020F08BF012685F800A085F801B02C
:1097F000AE70A5F80490A5F806802F722846BDE843
:10980000F88F3E46F0E700BF782B002013B50446E2
:10981000FFF7C6F908B300230DF106022046ADF8A4
:10982000063013F093FEC0B10D4C9DF8062094F95C
:10983000F81084F81021032908BF62F07F024FF06E
:109840000501084808BF84F81021FFF713FA062124
:1098500084F811010348FFF7F3F902B010BD00BF0F
:1098600088010020940200202DE9F84F2DED028B95
:10987000FFF796F9002844D0254B93F9F80001280A
:109880003FDD93F81241DFF890809FED228A0FF2BE
:10989000780BDBE900AB15468E1E02EB44094D4503
:1098A00004D1BDEC028B2046BDE8F88F38F8027B6E
:1098B00026F8027F07EE907AF8EEE77A67EE887A6C
:1098C00017EE900A50F0F8FB52465B4650F04CFC05
:1098D00041EC100B54F0ECFB51EC100B50F06CFF12
:1098E0000E2F80B20AD919303223B0FBF3F080B2C8
:1098F00000EB800000EB8000400080B225F8020BF6
:10990000CDE70024CDE700BF1655B5BBB16B0240D3
:1099100088010020CDCCCC3D2437002038B50D4641
:10992000FFF73EF9044638B10C4890F8FB30DB07EE
:1099300004D5B0F8FC002880204638BD084A90F9CC
:10994000F93092F8EC2893FBF2F102FB113201326C
:10995000013100F58A7013F00DFEECE7880100205C
:10996000801A00202DE9F04FA94D95F8BC3B8BB033
:109970008146002B40F0B580D5F8C06B002E00F07A
:10998000B080A44AD2F8184104F0F021B1F1E02FE0
:109990006ED1C2F81831D5F8C42B944268D0049324
:1099A0000593ADF81830B5F87C3B95F878EBADF839
:1099B000143095F879CB95F8803B95F87AAB8DF813
:1099C00018300DF110088DF810E08DF811C08DF8E9
:1099D00012A098E8070007AB03C38F4F1A80C4F3A7
:1099E00042533B44C4F3034293F83E10C5F8C44BC2
:1099F0008E4502F1010201D1944508D030468DF820
:109A00001C108DF81D2013F0B5FDADF82000304678
:109A100013F0E6FF032804F0070B34D0042836D0F7
:109A200000239A4501A9304618BF8DF81E3013F067
:109A30001BFE48B1019BC4F3001103F001038B42EC
:109A400002D0304613F0BEFE0A2207A9404654F069
:109A5000D6FD68B19DF81E30BDF81C2085F87A3B14
:109A6000BDF82030A5F8782BA5F87C3B49F09AF991
:109A700095F8C8AB04AF95F8C83B032B7BD8DFE85B
:109A800003F00A3376A35F4497F84330C9E75F4495
:109A900097F84B30C5E73946304613F0EBFD0446E6
:109AA00058B107A8FFF776FE9DF81E109DF81030FC
:109AB0008B4260D0304613F0FBFE95F8C83B013373
:109AC00003F0030385F8C83B0CB99A45D3D195F848
:109AD000823BDB0700D524B1336849461B6830461A
:109AE00098470BB0BDE8F08F01A8FFF753FE95F83B
:109AF000828B9DF8044008F00108ECB1B8F1000F2A
:109B000039D13A460DF10301304613F0B6FD044653
:109B100088B307A8FFF73EFE9DF81C109DF80330A0
:109B20009DF81D208B4203D19DF81030934222D026
:109B3000304613F0C7FEC0E7B8F1000FBDD139467B
:109B4000304613F094FD0446A8B107A8FFF722FEA3
:109B5000BDF82010BDF810308B420CD085F8C98BB1
:109B600085F8CA8B336830469B699847A5E795F816
:109B7000823BD80701D500249FE707A9304613F0A0
:109B800073FD04460028F6D01E2025F03FFB95F813
:109B9000CB3B83428046EED085F8CB0B60B1B5F865
:109BA0007E3B002BE7D1079BD907E4D40121304647
:109BB00013F008FE444680E7079BDA07DBD5014631
:109BC000304613F0FFFD78E73846FFF7E3FD97E8EE
:109BD000070007AB03C31A809DF810309BB10DF14D
:109BE0001D0207A9304613F048FD0DF11E01304655
:109BF00013F040FD0A2207A9384654F000FD041E68
:109C000018BF012459E708A9304613F030FDECE7EE
:109C1000782B002088010020F0E6050800F01F02E4
:109C200040090123032803FA02F304D004280CD0CE
:109C3000022805D07047074A116C0B431364704724
:109C4000044A516C0B4353647047024A116B0B4337
:109C5000136370470038024000487047A035002069
:109C600000285FD00368374A2DE9F04103F13F44F3
:109C700004F57E0402EB9422012492F8382002F0CD
:109C80001F055209032A04FA05F456D0042A4FD0BE
:109C9000022A48D08588B5FA85F0C0F11F00C0F3CC
:109CA000CC0603EB860600F0070082000F24306A22
:109CB000944020EA04003062306A01FA02F2024362
:109CC000002132624FF0010E0A464FF0030C0227CA
:109CD0000EFA02F838EA050002F101021CD11868F8
:109CE0000CFA01F420EA04001860186807FA01F67B
:109CF00006431E609E6826EA04069E609868986087
:109D0000586820EA0800586058685860D86820EA07
:109D10000400D860D868D860102A01F10201D7D1B8
:109D2000BDE8F0817047084A556C2C435464B1E794
:109D3000054A156B2C431463ACE7034A156C2C439E
:109D40001464A7E7F0E60508003802402DE9F04763
:109D5000C94C94F8CC1B0546C1F34001D4F8D40B90
:109D60003FF074FC94F8CC1BD4F8D00BC94301F03D
:109D700001013FF06BFC002D00F0E58005F1FF389C
:109D8000BE4EBF4D5FFA88F81027D4F8D43B33B1EC
:109D90001A689B8851690B4214BF53831383D4F80C
:109DA000D03B33B11A689B8851690B4214BF53836F
:109DB0001383B4F8DC3B002B40F0558194F8DE1B94
:109DC000D4F8E00B3FF042FC4FF0FA0C4FF47A70FD
:109DD0004FF0010E7368C3F30803002B40F01781A6
:109DE000EFF31183002B40F01281D4F85829A968B1
:109DF000D4F858399A42F8D1D4F8043C9942F4D8AE
:109E0000D4F8009C00FB09F35B1AB3FBF9F300FBE9
:109E100002327368C3F30803002B40F0B780EFF3FE
:109E20001183002B40F0B280D4F85839D5F808A03F
:109E3000D4F858198B42F7D1D4F8041C8A45F3D8CA
:109E4000D4F8009C00FB09F1A1EB0A01B1FBF9F188
:109E500000FB03139B1AB3F57A7FDAD3BCF1010C34
:109E6000B8D1D4F8D43B33B11A689B8851690B42FE
:109E700014BF53831383D4F8D03B33B11A689B8843
:109E800051690B4214BF53831383B4F8DC3B002B9E
:109E900040F0DD8094F8DE1BD4F8E00B81F0010186
:109EA0003FF0D4FB4FF0FA0C4FF47A704FF0010EF4
:109EB0007368C3F30803002B40F08980EFF311832C
:109EC000002B40F08480D4F85829A968D4F8583978
:109ED0009A42F8D1D4F8043C9942F4D8D4F8009CC2
:109EE00000FB09F35B1AB3FBF9F300FB0232736862
:109EF000C3F308034BBBEFF3118333BBD4F85839DA
:109F0000D5F808A0D4F858198B42F7D1D4F8041C1E
:109F10008A45F3D8D4F8009C00FB09F1A1EB0A01B3
:109F2000B1FBF9F100FB03139B1AB3F57A7FDED383
:109F3000BCF1010CBCD108F1FF385FFA88F8B8F128
:109F4000FF0F7FF422AFBDE8F087EFF3118987F3AD
:109F50001288D5F808A02B68DB0344BFC4F8FCEBDB
:109F6000D5F808A0D4F85839D4F8FC1B5FFA89F961
:109F700089F31188D4F8009C0B4400FB09F1A1EB94
:109F80000A01B1FBF9F100FB0313CDE7EFF31189EF
:109F900087F31288D5F808A02B68D90344BFC4F80A
:109FA000FCEBD5F808A0D4F85839D4F8FC1B5FFABC
:109FB00089F989F31188D4F8009C0B4400FB09F15E
:109FC000A1EB0A01B1FBF9F100FB031342E7EFF348
:109FD000118187F31288D5F808902B68DA0344BF03
:109FE000C4F8FCEBD5F80890D4F85839D4F8FC2B19
:109FF000C9B281F31188D4F8001C1A4400FB01F3A4
:10A00000A3EB0903B3FBF1F300FB02326FE7EFF3BD
:10A01000118187F31288D5F808902B68DB0344BFC1
:10A02000C4F8FCEBD5F80890D4F85839D4F8FC2BD8
:10A03000C9B281F31188D4F8001C1A4400FB01F363
:10A04000A3EB0903B3FBF1F300FB0232E1E6D4F822
:10A05000F83B002B3FF426AFD4F8E42B0023136029
:10A0600084F8F53B1EE7D4F8F83B002B3FF4ACAE88
:10A070003EF09AF9A8E600BF782B002000ED00E042
:10A0800010E000E02DE9F84FC44CC54F94F8CC1B0C
:10A09000D4F8D40BC34DC1F340013FF0D7FA94F884
:10A0A000CC1BD4F8D00BC94301F001013FF0CEFA2C
:10A0B0004FF0050B4FF01008D4F8D43B33B11A68B9
:10A0C0009B8851690B4214BF53831383D4F8D03B50
:10A0D00033B11A689B8851690B4214BF53831383B1
:10A0E000B4F8DC3B002B40F0518194F8DE1BD4F82F
:10A0F000E00B3FF0ABFA4FF0320C4FF47A700126D0
:10A100007B68C3F30803002B40F01481EFF3118345
:10A11000002B40F00F81D4F85829A968D4F8583999
:10A120009A42F8D1D4F8043C9942F4D8D4F8009C6F
:10A1300000FB09F35B1AB3FBF9F300FB02327B6807
:10A14000C3F30803002B40F0B480EFF31183002B1E
:10A1500040F0AF80D4F85839D5F808A0D4F8581991
:10A160008B42F7D1D4F8041C8A45F3D8D4F8009C6C
:10A1700000FB09F1A1EB0A01B1FBF9F100FB0313AC
:10A180009B1AB3F57A7FDAD3BCF1010CB8D1D4F8BD
:10A19000D43B33B11A689B8851690B4214BF538377
:10A1A0001383D4F8D03B33B11A689B8851690B42B2
:10A1B00014BF53831383B4F8DC3B002B40F0DA80E8
:10A1C00094F8DE1BD4F8E00B81F001013FF03EFA79
:10A1D0004FF0320C4FF47A7001267B68C3F308030A
:10A1E000002B40F08780EFF31183002B40F082803A
:10A1F000D4F85829A968D4F858399A42F8D1D4F833
:10A20000043C9942F4D8D4F8009C00FB09F35B1A93
:10A21000B3FBF9F300FB02327B68C3F308033BBBDB
:10A22000EFF3118323BBD4F85839D5F808A0D4F83C
:10A2300058198B42F7D1D4F8041C8A45F3D8D4F8C6
:10A24000009C00FB09F1A1EB0A01B1FBF9F100FB55
:10A2500003139B1AB3F57A7FDED3BCF1010CBCD19A
:10A260000BF1FF3616F0FF0B7FF426AFBDE8F88F39
:10A27000EFF3118988F31288D5F808A02B68DB0367
:10A2800044BFC4F8FC6BD5F808A0D4F85839D4F80A
:10A29000FC1B5FFA89F989F31188D4F8009C0B4400
:10A2A00000FB09F1A1EB0A01B1FBF9F100FB03137B
:10A2B000CFE7EFF3118988F31288D5F808A02B684F
:10A2C000D90344BFC4F8FC6BD5F808A0D4F85839BA
:10A2D000D4F8FC1B5FFA89F989F31188D4F8009C43
:10A2E0000B4400FB09F1A1EB0A01B1FBF9F100FB02
:10A2F000031345E7EFF3118188F31288D5F808902E
:10A300002B68DA0344BFC4F8FC6BD5F80890D4F886
:10A310005839D4F8FC2BC9B281F31188D4F8001C49
:10A320001A4400FB01F3A3EB0903B3FBF1F300FBB9
:10A33000023271E7EFF3118188F31288D5F80890A3
:10A340002B68DB0344BFC4F8FC6BD5F80890D4F845
:10A350005839D4F8FC2BC9B281F31188D4F8001C09
:10A360001A4400FB01F3A3EB0903B3FBF1F300FB79
:10A370000232E4E6D4F8F83B002B3FF429AFD4F8DE
:10A38000E42B0023136084F8F53B21E7D4F8F83B75
:10A39000002B3FF4B0AE3EF007F8ACE6782B00207F
:10A3A00000ED00E010E000E010B4B8B10D4CD4F8BE
:10A3B000083C102B05D15DF8044B052100203CF032
:10A3C000F7BD03EB4302224482F80D1C01210B442C
:10A3D00082F80C0C82F80E1CC4F8083C5DF8044BA3
:10A3E000704700BF782B0020F8B5274E00EBC00463
:10A3F00006EB8404D4F8405C002D38D094F851CC9E
:10A400000CF0FF07BCF1000F31D149004FF0010CF7
:10A41000C9B284F8521C84F8532C84F855CC84F8C3
:10A42000567C84F854CC84F851CC84F8507CAA88AB
:10A43000C4F8583CC4F85C3C940502D50127384662
:10A44000F8BD2B88D9050CD44FF4805301E0013BB3
:10A4500010D02A889205FAD42B889BB243F48073DB
:10A460002B80AB889BB243F44073AB80E6E70027B8
:10A470003846F8BDB6F8A83C01339BB2A6F8A83C14
:10A480004EF0D4FFDBE700BF782B002070B5464EBE
:10A4900096F8AA4C04EB440306EBC303650093F85B
:10A4A000AC3C032B6ED8DFE803F059291E0225448B
:10A4B00006EBC505D5F8B00C002870D196F80C3D18
:10A4C0009C425FD0013404F00302934286F8AA2C28
:10A4D00058D002EB420406EBC4040223C4F8B00CCB
:10A4E00084F8AC3C70BD2B1906EBC303D3F8B02C39
:10A4F00072B1013AC3F8B02C002070BD2B1906EBE5
:10A50000C303D3F8B02C002AF3D1022283F8AC2C79
:10A51000254406EBC50595F8B83C013BDBB285F850
:10A52000B83C8BBB214B96F80C6DD3F81C11D5F8B9
:10A53000B40C621C02F003024B1E0324B24203441B
:10A5400085F8AC4CB3FBF1F0C5F8B00C1AD09942C9
:10A5500018D80138C5F8B00C012070BD3FF096FC4A
:10A5600080B1124B2C44D3F81C2106EBC40401210A
:10A5700002F51C5384F8AC1C0F33B3FBF2F3C4F8A0
:10A58000B03C70BD012070BD084BD3F81C210120E8
:10A5900002F2E733B3FBF2F3C5F8B03C70BD01380B
:10A5A000C5F8B00C002070BD782B00208801002079
:10A5B000064B93F80D2D002AFBD141F67002044999
:10A5C0009B5801F10C001B68184700BF782B002036
:10A5D000883800202DE9F04F2DED108B034697B001
:10A5E00004331593DFEDCACA149002238A461392EE
:10A5F0008B461293149C4FEADB0604EB461202EBE7
:10A6000006103101A6EB86034FEAC60806EB4605A5
:10A61000CDE9000100EBC303043108F104001196F9
:10A62000204421442C01C6EBC60C0394EC00119D80
:10A6300004944FEACC0405946C0106EB860E029458
:10A64000159D009C03EB46174FEACE0E02EBC606A3
:10A650004FEACB094FF0000C51ED01AAD3ED001ADF
:10A6600092ED007A94ED005A96ED004AD7ED007A0B
:10A6700015ED012A50ED016A32EE07BA76EE840A32
:10A680007AEE855A31EEA70A3BEE256A70EE804AD3
:10A6900076EEC46A36EE244A36EE646A05ED014A67
:10A6A00082ED006AD0ED00BAD6ED012AD3ED019A11
:10A6B00095ED00AA92ED016A97ED013A91ED00CA7D
:10A6C000D4ED014A7BEEE23A36EEE19A32EE472AC9
:10A6D00073EEE98A3AEE464A39EE279A78EE838A93
:10A6E000B0EE428AA9EE6C8ADC44E24573EEC33ACE
:10A6F000B0EE441AA8EEEC1A76EEE77A33EEA97AB9
:10A700007CEE643A77EEA17A3AEE066A7AEEC51AE2
:10A710003CEE24AA74EECC4A39EE833A35EE6A5AFE
:10A72000F0EE639AF0EE48AAE7EE2C9AA8EEAC4A57
:10A73000E7EE2C4AE7EE6CAAF0EE418AB0EE427AE0
:10A74000B0EE612A7BEE656A7BEEA22A76EE4A5A6B
:10A75000A9EE2C7AA7EEAC2AA7EEAC5AE7EEEC8A6B
:10A7600032EE83BA76EEC3BA35EEE09A75EEC07A71
:10A7700036EE0A6A76EEE26A36EE0BAA76EE836A67
:10A7800077EEA07A34EE423A77EE290A36EE4B6A3B
:10A790007BEEA22A39EE000A73EEAA3A78EE244A3A
:10A7A00037EE697A31EE055A71EEA85A32EE044A54
:10A7B00085ED00AA82ED016A4D4441ED012A4A442B
:10A7C000C4ED006A81ED000AC4ED017A494440ED10
:10A7D000010A4C4487ED007AC6ED003AC3ED004A09
:10A7E00080ED003A87ED014A484486ED015A4F4416
:10A7F000C3ED015A4E444B443FF62EAF119B072B3D
:10A8000040F2C781029D149E019B03980499059A0A
:10A81000083575190C330E95354608F108080EF108
:10A820000804EB1808300831083246442C1928185F
:10A830006918AA18079305F10C030D960C940B9058
:10A840000A91099208934FF001084FF0000E129BF5
:10A850009E44139B03EBCE0303EBCE02109302EB5B
:10A86000CE0303EBCE01029101EBCE0101EBCE054D
:10A8700005EBCE06D6ED007A0F93AEEB8E03019179
:10A8800006EB031303EBCE07D3ED01AACDED067A59
:10A89000019BD5ED007A97ED01BACDED057AD3EDA8
:10A8A000007A029BCDED047AD3ED007A0F9BCDEDBB
:10A8B000037A07EBCE0CD3ED007ADCED01BACDEDD7
:10A8C000027A0CEBCE01D2ED007A109A009101EBE6
:10A8D000CE00014691ED01DACDED017A0099D2ED7D
:10A8E000007A91ED01CA00EBCE0000EBCE0494EDAE
:10A8F00001EAD0ED01DACDED007ADDE90776DDE998
:10A900000954DDE90B01DDE90D23C44602E000BF77
:10A91000F304353F94ED009A90ED00FA91ED006A52
:10A92000D5ED007AD3ED006A57ED014A92ED005A59
:10A9300056ED013A96ED00AA35EE060A73EEA65AD8
:10A9400039EE278A34EE8F7A70EE082A75EE87EAA0
:10A9500035EE465A3EEEA26A73EEE63A06ED016A1D
:10A96000D1ED019AD2ED01FAD4ED016AD3ED011ACD
:10A9700095ED013AD0ED018A97ED004A3FEEE96A84
:10A9800035EE491A76EE660A31EE271A3AEE612A5A
:10A9900075EE677A70EE830A3FEEA95A74EECF9A8D
:10A9A00077EE897A7AEE211AB0EE42AA74EE68FA4E
:10A9B000A0EEECAADC44E24535EEC77AB0EE639A2D
:10A9C00074EE285A38EEC44AF0EE698AA1EE6C9A09
:10A9D000E7EEAC8A36EE436A7FEE644A36EE266ACC
:10A9E000A0EEAC2AF0EE4A0AE7EEEC0AE7EEAC4A3B
:10A9F000F0EE687AF0EE498A36EE833AE6EE6C8A3B
:10AA0000E1EE2C3AB0EE6F1AA6EE2C1A71EEE56A62
:10AA1000A6EE2C4A71EEA55A75EE031A7EEEE22AD6
:10AA200037EE43FA75EEE1EAB0EE686A76EEC08A78
:10AA300039EE044A7FEE86FA76EEC86A33EE816A12
:10AA400038EE888A73EEC13A37EE457A2CEE2E1A2C
:10AA50003FEE055A22EECC9A9DED03FA70EE266A7F
:10AA600033EE077AAFEE221AAFEE2E9A7AEE244A30
:10AA70009DED01FA79EEA09A25EE4BAA72EE670AD7
:10AA800037EE822A6BEE087AAFEE08AAEFEE057A6F
:10AA90002DEEA63A9DED05FA67EE6D8AAFEE073A08
:10AAA000EFEE268A66EE6A2A9DED00FA2AEEA00AEB
:10AAB000EFEE202A6EEE02EADDED060A23EECE5A14
:10AAC000E0EEA3EA2BEEA98ADDED023AAFEE060A2C
:10AAD000A3EE848A24EE6B7A6DEE246A9DED044A1F
:10AAE0002FEECD6AA0EE825AA3EEA97AE4EE2F6A89
:10AAF000A4EE246A75EEA15AC6ED005A83ED001A41
:10AB000083ED019A4E4447ED017A87ED00AA4B444C
:10AB100080ED003AC0ED018A4F4482ED000A4844BE
:10AB2000C2ED012AC5ED00EA85ED015A4A44C1EDA6
:10AB3000006A81ED016A4D4484ED008A84ED017A5A
:10AB400049444C443FF6E6AE0E9B08330E930D9BF2
:10AB500008330D930C9B08330C930B9B08330B931A
:10AB60000A9B08330A93099B08330993089B08330F
:10AB70000893079B08330793119B08F1010843458D
:10AB80007FF465AE129BDDF844B0DB009BB21293FC
:10AB900030E517B0BDEC108BBDE8F08F08480023FE
:10ABA00002461178022902F1060204D00133062B75
:10ABB000F7D10020704703EB430300EB43007047DD
:10ABC000EC430020F0B5A04C85B0242204F27C7048
:10ABD000002153F03CFD94F8A167002E3CD135468E
:10ABE000D4F8B4376BB39B6A5BB3984898478368D3
:10ABF0003BB30388DFF87CC2013B9BB260466646EC
:10AC000000213778032F06F106061DD001310629F1
:10AC1000F7D100220178022900F1060000F0A68099
:10AC20000132062AF6D1D4F8DC17052909D0481CD0
:10AC300002FB01C2C4F8DC070220002193801070DF
:10AC40005180284605B0F0BD062303FB0141B1F851
:10AC50007E37013B9BB2DCE794F8A00704F5F5636F
:10AC6000C4F8A43708B90025BAE73EF063F80746F0
:10AC7000C4F8B0073EF0D2FC05460028F3D0013EF0
:10AC8000022370B284F8A8373EF098FF0028EAD07B
:10AC9000C4F8AC070FB12023FB80092138463EF0F1
:10ACA000F7FAD4F8A43798683EF0CAFCD4F8A43771
:10ACB000102158684EF030FB654BD4F8A427C4F837
:10ACC000D42793E803000123009032208DF804106C
:10ACD00084F8D83700263CF0B3FA052302AA694667
:10ACE000D4F8A4078DF80A608DF809603EF090FE54
:10ACF0009DF80A209DF809009DF80B10554B120293
:10AD000042EA00420A439A4200F0958032DCA3F501
:10AD1000F1139A425FD043DD4F4B9A4253D0023336
:10AD20009A4263D14FF400724FF48073A4F8B827AD
:10AD3000A4F8C437B4F8C427B4F8B837120202FB39
:10AD400003F300204FF48071B3F1807FC4F8BC2777
:10AD5000C4F8C03784F8C607A4F8BA175AD83F4BCE
:10AD6000C4F8B437012284F8CD2739E7062101FB66
:10AD700002C261E73A4B9A4235DC053B9A4235DD27
:10AD8000384B1344032B4ED801A252F823F000BFD6
:10AD9000D7AD0008C7AD0008B9AD000825AD000863
:10ADA000A3F52203013B9A423DD02FDD2E4B9A4260
:10ADB00009D001339A4219D14FF48073A4F8B837FF
:10ADC000A4F8C437B6E780224FF48073A4F8B827FC
:10ADD000A4F8C437AEE740224FF48073A4F8B82734
:10ADE000A4F8C437A6E7214B9A42E5D0002594F891
:10ADF000A007A4F8B857A4F8C457C4F8BC57C4F8BF
:10AE0000C0573DF097FF3EF0ABFDE9E6184B9A4284
:10AE1000D2D0EBE70123D4F8D40784F8CC37B7219C
:10AE200049F026FB9BE720224FF48073A4F8B82753
:10AE3000A4F8C4377EE74FF480621023A4F8B82743
:10AE4000A4F8C43776E700BF703C002024440020FB
:10AE500044E705081640E0001720C2004CE705084B
:10AE60001940EF00EABF10FF17BA20001870EF007A
:10AE700018600100EC43002099B10A6B824216D998
:10AE8000154BD3F80C28914221D34C3991421ED353
:10AE90000B6B9842F9D38B6B9842F6D80B46184649
:10AEA00070470D4BD3F80C180A6B904212D30B6805
:10AEB0000BB9F4E70A6B90420B4602D38A6B9042BF
:10AEC000EDD951F84C3F002BF4D1184670470023C0
:10AED000184670470A46D8E7703C00202DE9F04735
:10AEE000CC0143D10346224A43F8082B4FF0FF32EE
:10AEF0004260022418467E26DFF87880D8F8109841
:10AF00002644013E051D49466FF070474FF0010A87
:10AF100008E0A3421CD0631C45F8043C321B1C46CD
:10AF20000435CAB10B6BA34202D88B6BA34204D287
:10AF30002046FFF7A1FF014690B10A794B6B002A2A
:10AF4000E7D1A34204D0E6D245F8042C631CE5E720
:10AF500045F8047C631CE1E7C8F81018BDE8F087E9
:10AF600045F804AC321B631C4946D8E78026C3E78A
:10AF7000F8FFFF0F703C0020F0B40D6800240CE0D7
:10AF8000BCF1050F18D8A0F137030A2B14D104EB3C
:10AF9000840415F8010B03EB4404A0F13003DEB286
:10AFA000092EA0F16107A0F1410CF0D9052FE7D8D7
:10AFB000A0F157030A2BEAD00D601460F0BC704773
:10AFC000036870B55E6A26B133460522BDE870405D
:10AFD000184704460D464E1D00E023689B68204636
:10AFE00098470028F9D0236815F8011B1B682046F4
:10AFF0009847B542F1D170BD2DE9F047164D07468F
:10B00000002095F91D9805F6240684B007EB010889
:10B0100005F6C42504464FF0B60A3368ABB193F881
:10B020003830142B11D019F1020F01D04B450CD13F
:10B03000002269463046CDE90244CDE90078ADF8FA
:10B0400008A08DF80E4030F029F9E036B542E4D181
:10B0500004B0BDE8F08700BF703C00202DE9F74345
:10B06000124E0124A02318255FFA84F8FF2B14DC6C
:10B07000D6F8C40AE9B2C1F11C0282725F1C0268F0
:10B0800080F80B80DBB20093C1F11B01D2F818905D
:10B0900000234246C9B2C8473B46013DE6D10134D0
:10B0A000052CE0D103B0BDE8F08300BF703C002068
:10B0B00010B50A4C94F8E10A003818BF0120FDF7DA
:10B0C00085FF50B1064904F6C8203EF0DBFB04F6CC
:10B0D000C82010F013F804F6C82010BD703C002002
:10B0E00078E7050870B4447941BB03684FF4005217
:10B0F0004FF40076202502213CBB1A8C22F001027D
:10B100001204120C1A841A8B188C22F0F30280B2EB
:10B11000120420F00A00120C014342F0010241F037
:10B1200001011A8319841A8B22F00C021204120CEA
:10B130001A831A8B92B270BC1A837047002203687C
:10B14000164615461146002CD7D0042C21D0082CC9
:10B1500038D0198C21F480510904090C19849C8B76
:10B160001D8C45F6FF7040F6FF4128402140024308
:10B1700042F4805241F4807199831A849A8B22F4AC
:10B1800040621204120C9A839A8B92B270BC9A831A
:10B1900070471A8C22F010021204120C1A84188BB9
:10B1A000198C89B240F6FF4221F0A00102400D4304
:10B1B00042F4807245F010051A831D841A8B22F424
:10B1C0004062B3E71A8C22F480721204120C1A84C3
:10B1D000998B1A8C21F0F30192B2090422F42062B7
:10B1E000090C324342F4807241F0010199831A84C0
:10B1F0009A8B22F00C02C4E70B88F0B433BB028CAC
:10B200004C880E898B88C98822F001021204120C26
:10B210000284058B028CADB225F0F30592B22B436C
:10B2200022F00A0243EA061322439BB242F00102D3
:10B2300003830284038B23F00C031B041B0C038386
:10B24000038B9BB21943F0BC01837047042B048C21
:10B250002CD0082B4E888A880D89C98851D024F4B7
:10B2600080542404240C0484838B078C2C0344EA2C
:10B27000022440F6FF421A4045F6FF733B4043EA82
:10B28000063322439BB292B243F4805382830384F9
:10B29000828B22F440621204120C8283838B9BB255
:10B2A00043EA01239BB2F0BC8383704724F010046F
:10B2B0002404240C4D880F898A88C9880484068B4D
:10B2C000038C12029BB242EA073423F0A00340F63B
:10B2D000FF42324043EA051322439BB292B243F04D
:10B2E000100302830384028B22F440621204120CC6
:10B2F0000283038B9BB243EA01239BB2F0BC03831E
:10B30000704724F480742404240C0484848B038CFC
:10B31000A4B29BB224F0F30423F42063224343EA53
:10B32000062342EA05129BB243F4807392B28283F1
:10B330000384838B23F00C031B041B0C8383838BFC
:10B340009BB21943F0BC8183704700BF094B93F84F
:10B35000363E042B08D9053B032B08D801231A4697
:10B3600000B103701046704700230122F8E7002364
:10B370001A46F5E7801A00202DE9F0479AB0DDE97A
:10B38000226ADDF8909004460D461746984602E082
:10B3900020683DF067FC20683DF06CFC0028F7D188
:10B3A0000146642201A853F052F9264B8DF804504F
:10B3B000CDF85CA00293002D40D0AB1E012B3FD9ED
:10B3C000042D14BF002203221F4B0396D3F85839D3
:10B3D0008DF805201E440123CDE9059404968DF8CF
:10B3E0005B3037B14246394607A853F0CFF88DF8A5
:10B3F0005A80164E96F8329B00231893B9F1000F2D
:10B4000019D196F8310B642202FB006001A900F605
:10B41000343053F0BBF8012386F8319B86F8323B79
:10B42000236843B143463A46294620461AB0BDE850
:10B43000F0470EF00BBA1AB0BDE8F0870522C3E75B
:10B440000222C1E760470020782B0020703C0020DA
:10B450009FED737A07EE901A20EE070AF8EE677AEE
:10B4600027EE800AFDEEC07A17EE903A2033402B8B
:10B4700000F2C780DFED6B7AB4EEE70AF1EE10FA66
:10B48000F0EE407A0CDD9FED686ADFED686AB0EEA1
:10B49000677AB4EEE67AF1EE10FA77EEC67AF6DC69
:10B4A0009FED637AF4EEC77AF1EE10FA0CD59FEDBA
:10B4B0005E6ADFED606AB0EE677AB4EEE67AF1EECE
:10B4C00010FA77EE867AF6D49FED5B7AF4EEC77ABF
:10B4D000F1EE10FA00F38D809FED587AF4EEC77A02
:10B4E000F1EE10FA44BF9FED527A77EE677A27EEBD
:10B4F000A76ADFED535A9FED537ADFED536AA6EE4C
:10B50000257A67EE865AE6EE076AB6EE007AE5EE31
:10B51000A67A27EE877ADFED486A70EE267ABDEECE
:10B52000E76A16EE103A2033402B67D8B4EEE60AED
:10B53000F1EE10FA0CDDDFED3C5A9FED3C6AF0EEC7
:10B54000676AF4EEC66AF1EE10FA77EEE57AF6DC99
:10B55000DFED376AF4EEE67AF1EE10FA0CD5DFEDA6
:10B56000325A9FED346AF0EE676AF4EEC66AF1EE85
:10B5700010FA77EEA57AF6D4DFED2F6AF4EEE67ACC
:10B58000F1EE10FA40DDDFED276A76EEE77A67EE3E
:10B59000A75A9FED2B5A9FED2B6ADFED2B6AA5EE84
:10B5A000856A27EEA55AE5EE866AB8EE006AE5EEF2
:10B5B000267A67EE867AC7EE206A002383614361AC
:10B5C0000362C361B7EE006A76EE865A76EE666A6B
:10B5D00086EE257A67EE277A66EE876AC0ED017AF5
:10B5E000C0ED037A80ED007A80ED027AC0ED046A46
:10B5F00070479FED0C7A77EE677A78E7DFED137A84
:10B60000D9E79FED127A86E7DFED0C6AF4EEE67A71
:10B61000F1EE10FA44BFDFED066A76EEE77AB6E7A0
:10B6200027D4D236DB0F4940DB0FC940E4CB1641AB
:10B63000DB0F49C0E4CB16C1DB0FC93FDB0FC9BF2D
:10B6400092E741B99730083C15A82ABE00000000D7
:10B650000C480D4BD0F8B41B10B40C4CC0F8A43BF4
:10B660008A1E2231B0F8CE3B1B01A4FB03C3DB08CA
:10B67000A3F5B06322F8023F9142F3D15DF8044B89
:10B68000704700BF703C0020711F0208CDCCCCCCAD
:10B6900070B5084C251D2E4614F8010B30F068F8E3
:10B6A00028B1037805F8013BB442F5D170BDFF2302
:10B6B000F8E700BF604800202DE9F0471D4F012644
:10B6C00007F10805B2464FF03C094FF0000817F8A3
:10B6D000010B3DF02FFB044690B180F80690C67137
