:020000040800F2
:10000000F0FF0010B1940508F5E000080D91040818
:100010005195050851950508519505080000000007
:10002000000000000000000000000000F1E00008F7
:10003000EDE0000800000000E9E000085583040836
:1000400051950508519505085195050851950508E4
:100050005195050851950508B5A10408E1A20408C9
:10006000A5A2040869A204082DA20408DD7D0508E4
:10007000CD7D0508BD7D0508AD7D0508997D050888
:10008000857D0508717D0508519505085195050880
:10009000519505085195050851950508F1A10408E9
:1000A000696C0408F16C0408596C0408196D0408A3
:1000B000E16C0408D16C0408C16C04085195050872
:1000C0005195050851950508519505085195050864
:1000D0005195050831850408519505087584040873
:1000E00079A104085195050811F80008496C040825
:1000F000796C0408396C0408A16C04085D7D05085E
:100100005195050851950508B16C040851950508ED
:100110005195050851950508BD880308A98803086D
:10012000497D0508357D0508217D05080D7D0508FB
:10013000F97C050851950508519505085195050864
:1001400051950508519505085195050889DA00086B
:10015000E57C0508D17C0508BD7C0508B983040849
:1001600051950508519505085195050851950508C3
:1001700051950508519505085195050851950508B3
:08018000519505085195050891
:08018800609005000100000079
:100190000E02010002000000D0490020304A002079
:1001A00000000000B0080008130201000400000075
:1001B000CC210020344A002000000000B2080008D2
:1001C0000D1001004C000000BC480020384A0020FF
:1001D00000000000BD1004080400080080000000BA
:1001E000FC470020844A00200000000000000000BE
:1001F0000902010001000000A4470020044B002078
:1002000000000000B6080008FD0101002400000005
:1002100068470020084B0020000000003F4704080A
:10022000FB01010001000000244700202C4B0020AE
:100230000000000015DC0408FC01010009000000BA
:10024000F0450020304B00200000000025DC0408B1
:10025000F701010006000000E44500203C4B0020AF
:1002600000000000B8080008F901010004000000C7
:10027000E0450020444B002000000000E94704084E
:100280000A80010028000000B8450020484B0020EB
:1002900000000000E9F00108160215003F00000010
:1002A00008260020704B002000000000A5DB040899
:1002B0003400010010000000E4440020B04B002096
:1002C00000000000617F0208110201000800000028
:1002D000BC440020C04B002000000000BE08000805
:1002E0001212010004000000B4440020C84B00209A
:1002F00000000000C60800081820010032000000BD
:1003000080440020CC4B00200000000065D604088B
:10031000061001001C000000EC250020004C00200D
:100320000000000041DC0408122001001100000060
:10033000A04300201C4C002000000000CA08000858
:10034000000201000B000000DC400020304C0020C7
:100350000000000031D50408FF1101000600000074
:10036000C04000203C4C00200000000005D50408DF
:10037000081203000F000000CC400020444C002075
:100380000000000051D50408020201000300000033
:10039000E4250020544C0020000000000000000074
:1003A0000C0201000400000094250020584C00209D
:1003B0000000000039D50408FE010100140000000F
:1003C0003C3A00205C4C002000000000D5D404081A
:1003D000F581010068000000247C0020A483002037
:1003E00000000000B381010823200100100000007C
:1003F000707F00200C84002000000000FDF1010847
:10040000FD070100760000002C8300201C840020E2
:1004100000000000E16801080B3001001A00000034
:10042000587D0020C484002000000000DC08000883
:100430001F30010024000000207D0020E084002007
:1004400000000000F8080008050201000400000098
:10045000387F002004850020000000001C090008EF
:10046000030101000A0000009E7C00200885002096
:100470000000000001050108010101000400000066
:1004800098960020C09D00200000000000000000A1
:10049000000101000400000090960020C49D00208F
:1004A0000000000020090008020101000300000014
:1004B0008C960020C89D002000000000414B0308DE
:1004C000220201001C010000649B0020CC9D002042
:1004D000000000006DD80408010201000B000000BC
:1004E000A4960020E89E00200000000021D504080A
:1004F0001B02010010000000009A0020F49E002062
:1005000000000000B9D504081B1001000C00000019
:100510009C860020049F0020000000004D820108FE
:1005200021020100F00000001C850020109F002027
:1005300000000000198101082312010010000000D2
:10054000209A002000A000200000000024090008DC
:10055000371001002E0000007099002010A000202C
:100560000000000034090008161001000600000019
:100570000C97002040A00020000000006209000845
:100580002F100100220000009C9D002048A00020A8
:1005900000000000680900081E00010009000000BA
:1005A000C89600206CA00020000000008A09000806
:1005B0000510010006000000E496002078A000204D
:1005C00000000000940900082C0004001000000046
:1005D000B4AF0020A4AF002000000000B90302085F
:1005E0002B00120024000000E8AF0020C4AF002060
:1005F000000000008D03020829201400780000008C
:1006000014AE00200CB0002000000000000000002C
:10061000F62101000C000000B8AC002084B00020DE
:10062000000000009C0900081C0202001C000000E1
:1006300040AD0020D4B0002000000000ADD7040879
:10064000140001000400000078AC0020F0B000208D
:1006500000000000A8090008012001000C000000B3
:1006600084A30020F4B0002000000000AC090008C2
:100670000C200600CC00000064A2002000B1002085
:1006800000000000054B03080EF003009E0100006F
:10069000A0A00020CCB1002000000000B57A020824
:1006A000130001000400000014A800206CB3002017
:1006B00000000000B8090008031201003D0000001E
:1006C000A0BC0020E0BC002000000000BC09000825
:1006D00025201E002C01000004BA002020BD0020AF
:1006E00000000000000000001010010002000000E7
:1006F000ECB900204CBE002000000000FA09000800
:10070000F821010006000000CCB9002050BE0020F6
:1007100000000000FC0900081900010005000000AD
:10072000A8B8002058BE002000000000020A0008FF
:100730001A0001000E00000030B8002060BE00204A
:1007400000000000080A0008203201000A00000032
:10075000FCB6002070BE002000000000917A020864
:10076000150010007000000094B400207CBE002032
:1007700000000000000000002A00080060000000E7
:10078000E8B80020ECBE002000000000697A0208F2
:100790002902010040000000F4C10020C4C700206D
:1007A00000000000160A00080A0201001400000000
:1007B00030C7002024C80020000000004552030874
:1007C00003000100010000008CC7002038C8002091
:1007D00000000000000000003810010001000000CF
:1007E00048C80020D0CB002000000000560A0008B6
:1007F000020001000C00000040CB0020D4CB002000
:1008000000000000000000002802040004000000B6
:1008100068CC00200CCE002000000000B5D50408F4
:10082000270204000400000064CC002010CE002049
:1008300000000000A9D504081F02080010000000F5
:1008400054CC002014CE002000000000B1D40408D5
:100850001A0201003C00000014CC002024CE00202D
:1008600000000000F5D604081D020200060000008A
:10087000F4CF002000D000200000000000000000A5
:10088000270001000400000090CF002088D4002041
:1008900000000000580A00081002010001000000DA
:1008A000D4EC0020D0EC0020000000005C0A00081E
:1008B00000000000013513001800010000000000D6
:1008C000000001010101FFFFFFFF00000001000027
:1008D000054B49573200000800020000AE014A01F2
:1008E0005E012C0164010200000001000A019A016E
:1008F000001E0A00000200000000000000010000CD
:1009000000050000010203000000000000000000DC
:100910000000000000000000008007000000000050
:10092000BC0100000000000000000000000000000A
:100930000000000020003200C800D007960014001C
:10094000320028004C0440060005500014000F003F
:10095000080064000100000005000A000000F40126
:100960009600C4090000190000000000000000000B
:100970000000000000000000000000000000000077
:100980000000000000000000000000050100000061
:100990000000000020000301000000000000000033
:1009A000010000000202000003000023E8036400CD
:1009B000040A000114001E0008004430000000007A
:1009C0000000000000000000000000000000000027
:1009D0000000000000000000000000000000000017
:1009E0000000000000000000000000000000000007
:1009F0000000000000000000010000050101F401FA
:100A000014000000280100007E05EA05B40532004C
:100A1000E803D00700000000000000000000000014
:100A200000000000000000000000000000000000C6
:100A300000000000000000000000000000000000B6
:100A400000000000000000000000000000000000A6
:0D0A50000000000000000000200300000076
:100A5D000403090412010002EF020140830456321F
:100A6D000002010203010000120100020202004017
:100A7D008304405700020102030108000060024098
:100A8D00106002400000000000000000000B00009C
:100A9D0000000000000000000000000000600240A7
:100AAD00286002400100000000000000060C00005C
:100ABD000000000000000000000000000060024087
:100ACD00406002400200000000000000100D000018
:100ADD000000000000000000000000000060024067
:100AED00586002400300000000000000160E0000D8
:100AFD000000000000000000000000000060024047
:100B0D00706002400400000000000000200F000093
:100B1D000000000000000000000000000060024026
:100B2D008860024005000000000000002610000053
:100B3D000000000000000000000000000060024006
:100B4D00A06002400600000000000000301100000F
:100B5D0000000000000000000000000000600240E6
:100B6D00B86002400700000000000000362F0000B2
:100B7D0000000000000000000000000000640240C2
:100B8D00106402400000000000000000003800006A
:100B9D0000000000000000000000000000640240A2
:100BAD00286402400100000000000000063900002A
:100BBD000000000000000000000000000064024082
:100BCD00406402400200000000000000103A0000E6
:100BDD000000000000000000000000000064024062
:100BED00586402400300000000000000163B0000A6
:100BFD000000000000000000000000000064024042
:100C0D00706402400400000000000000203C000061
:100C1D000000000000000000000000000064024021
:100C2D00886402400500000000000000264400001A
:100C3D000000000000000000000000000064024001
:100C4D00A0640240060000000000000030450000D6
:100C5D0000000000000000000000000000640240E1
:100C6D00B864024007000000000000003646000096
:100C7D000000000000000000000000007D000000EA
:100C8D0001820008FD810008F9810008ED8100084E
:100C9D00E9810008F5810008F18100084D9F0008E9
:100CAD00AD8B0008998D0008E58E0008618F000856
:100CBD00FD9000082D83000819830008118300089A
:100CCD00010000000000803F692801086D2D01081A
:100CDD00E528010879FE00085D00010889FE00087D
:100CED00A5FE000851FE000841FE000800000000AE
:100CFD000000000009022000010104C032090400B7
:100D0D000002080650050705810240000007050195
:100D1D000240000009026400030100C03209040012
:100D2D000001030000000921110100012236000716
:100D3D0005830309000A080B0102020201000904E0
:100D4D00010001020201000524001001052401002B
:100D5D00020424020205240601020705820308008D
:100D6D00FF09040200020A0000000705010240000D
:100D7D00000705810240000009024300020100C086
:100D8D0032090400000102020100052400100105D2
:100D9D002401000104240202052406000107058236
:100DAD00030800FF09040100020A00000007050105
:100DBD00024000000705810240000000FF00000016
:100DCD0000FF0000000000000000AA550701000010
:100DDD0001AA5505010000007EFF0800A0CC050802
:100DED00FF1FFF1F05010905A101A1000501093024
:100DFD0009310932093309350934093609371581A5
:100E0D00257F750895088102050919012908150026
:100E1D002501950875018102C0C00000090222005C
:100E2D00010100E032090400000103010200092163
:100E3D00110100012236000705830309000A000095
:100E4D000000000001020304010203040607080963
:100E5D002D202D2D202D2D2D2D202D2D2D2D000036
:100E6D00000000000000000000000000000000AACB
:100E7D00550B010000AA5505010000AA55090200F5
:100E8D000000AA5503009F0001000000C0120000E1
:100E9D00BC840020000000009484002000000000AD
:100EAD0038390608B438060800000000C94B03089D
:100EBD00A0860100040000000000000000000000FA
:100ECD000000000000000000000000000000000015
:100EDD000000000000000000000000000000000005
:100EED00383906084039060800000000CD530408C3
:100EFD00E8030000040000000000000000000000F6
:100F0D0000000000000000000000000000000000D4
:100F1D0000000000000000000000000000000000C4
:100F2D00483906080000000000000000494D030884
:100F3D007D000000FF000000000000000000000028
:100F4D000000000000000000000000000000000094
:100F5D000000000000000000000000000000000084
:100F6D00AC9106080000000000000000F95D0308C8
:100F7D007D000000FF0000000000000000000000E8
:100F8D000000000000000000000000000000000054
:100F9D000000000000000000000000000000000044
:100FAD00A84B06080000000000000000DD920308B9
:100FBD007D000000FF0000000000000000000000A8
:100FCD000000000000000000000000000000000014
:100FDD000000000000000000000000000000000004
:100FED00503906080000000000000000554A0408B2
:100FFD00E8030000030000000000000000000000F6
:10100D0000000000000000000000000000000000D3
:10101D0000000000000000000000000000000000C3
:10102D00543906080000000000000000E1E4020849
:10103D001027000003000000000000000000000069
:10104D000000000000000000000000000000000093
:10105D000000000000000000000000000000000083
:10106D00B48D0608000000009DFF01087191040871
:10107D005F76000005000000000000000000000089
:10108D000000000000000000000000000000000053
:10109D000000000000000000000000000000000043
:1010AD0050910608000000000000000039C9040836
:1010BD0010270000010000000000000000000000EB
:1010CD000000000000000000000000000000000013
:1010DD000000000000000000000000000000000003
:1010ED00603906080000000000000000A545040856
:1010FD00E8030000050000000000000000000000F3
:10110D0000000000000000000000000000000000D2
:10111D0000000000000000000000000000000000C2
:10112D006C39060800000000000000009954030807
:10113D00204E000003000000000000000000000031
:10114D000000000000000000000000000000000092
:10115D000000000000000000000000000000000082
:10116D007C390608000000000000000081520308D1
:10117D00204E0000030000000000000000000000F1
:10118D000000000000000000000000000000000052
:10119D000000000000000000000000000000000042
:1011AD008C390608000000000000000051500408B2
:1011BD00400D0300030000000000000000000000CF
:1011CD000000000000000000000000000000000012
:1011DD000000000000000000000000000000000002
:1011ED009C3906080000000000000000F5130408FB
:1011FD0010270000010000000000000000000000AA
:10120D0000000000000000000000000000000000D1
:10121D0000000000000000000000000000000000C1
:10122D00E03806080000000000000000818E010873
:10123D001027000003000000000000000000000067
:10124D000000000000000000000000000000000091
:10125D000000000000000000000000000000000081
:10126D00A4390608000000000000000001C90308B1
:10127D00A861000001000000000000000000000057
:10128D000000000000000000000000000000000051
:10129D000000000000000000000000000000000041
:1012AD00B0390608000000000000000059CA03080C
:1012BD00A00F000001000000000000000000000071
:1012CD000000000000000000000000000000000011
:1012DD000000000000000000000000000000000001
:1012ED00BC390608000000000000000025E30108DD
:1012FD0010270000010000000000000000000000A9
:10130D0000000000000000000000000000000000D0
:10131D0000000000000000000000000000000000C0
:10132D00C83906080000000000000000A9BC010833
:10133D001A41000001000000000000000000000044
:10134D000000000000000000000000000000000090
:10135D000000000000000000000000000000000080
:10136D00CC39060800000000000000003905010816
:10137D001027000001000000000000000000000028
:10138D000000000000000000000000000000000050
:10139D000000000000000000000000000000000040
:1013AD00C83806080000000000000000492D0208A2
:1013BD0050C300000100000000000000000000000C
:1013CD000000000000000000000000000000000010
:1013DD000000000000000000000000000000000000
:1013ED00D83906080000000000000000710D01084A
:1013FD00400D030000000000000000000000000090
:10140D0000000000000000000000000000000000CF
:10141D0000000000000000000000000000000000BF
:10142D00E03906080000000000000000BDC80308F8
:10143D00400D03000000000000000000000000004F
:10144D00000000000000000000000000000000008F
:10145D00000000000000000000000000000000007F
:10146D00E83906080000000000000000B1CC0108BA
:10147D0050C3000003000000000000000000000049
:10148D00000000000000000000000000000000004F
:10149D00000000000000000000000000000000003F
:1014AD00F43906080000000000000000F18C03086C
:1014BD0040420F000000000000000000000000008E
:1014CD00000000000000000000000000000000000F
:1014DD0000000000000000000000000000000000FF
:1014ED00003A0608000000000000000031CA0308A1
:1014FD0050C30000000000000000000000000000CC
:10150D0000000000000000000000000000000000CE
:10151D0000000000000000000000000000000000BE
:10152D000100000000000100E00101010575010846
:10153D000000000000000000C4CE0508FFFFFFFF03
:10154D0008017F00FF0101FFFFFFFFFFD5D8010854
:10155D000000000000000000A8D30508FDDB010815
:10156D00000000000000000060D305082D202D2D87
:10157D00202D2D2D2D202D2D2D00000000000000E3
:10158D00000000000000000000000000000000004E
:10159D0000000000000000001CD30508E47E0020C0
:1015AD009CFF2C0100000000149D0020E0150C177D
:1015BD00000000001A9A00200200000054D3050814
:1015CD008096002088136F1701000000829600207E
:1015DD0088136F17000000004E4900200000000026
:1015ED00000000004C490020000000000000000039
:1015FD004A4900200000000000000000484900207A
:10160D00000000000000000046490020000000001E
:10161D000000000044490020000000000000000010
:10162D00C405002000000000000000000896002006
:10163D000300000044D405087896002088136F1726
:10164D00010000002E7F002088136F17000000009E
:10165D00C1750108000000000000000054D4050809
:10166D001B9A002001000000A8D40508307F00203F
:10167D0001000000B4D40508267F00200200000000
:10168D00BCD40508000000000000000000000000B0
:10169D00C8D40508A975010800000000000000006D
:1016AD0064D50508000000000000000000000000E7
:1016BD00B8D5050800000000000000000000000083
:1016CD0028D60508849600200200000060D6050883
:1016DD002A7F0020E0150C17000000002CA500202B
:1016ED0080A50020010000000000000000000000A7
:1016FD00E1050208C0A80020000000000000000065
:10170D000000000038EC050800000000000000009B
:10171D0000000000F0EC05080000000000000000D3
:10172D00000000009CEC0508D601FF00FFFFFFFF45
:10173D00C10B02080000000000000000C8EB050806
:10174D0001000000FA00000001000000010000008F
:10175D0001000000000101010000000080A3002035
:10176D000000F401010000007EA300200000F40140
:10177D00010000007CA300200000F4010100000026
:10178D007AA300200000F4010100000078A30020DE
:10179D000000F4010100000076A300200000F40118
:1017AD000100000074A300200000F40101000000FE
:1017BD0055EF010819EF01080000000098D8050841
:1017CD0064A300200532010072A300206400F4011F
:1017DD000100000070A300206400C4090100000096
:1017ED0062A30020E803D0070100000060A30020E1
:1017FD00E803D007010000005EA30020E803D00736
:10180D00010000005CA300201E00B80B01000000C9
:10181D006AA3002005000F00010000006CA300204A
:10182D0003000A00010000005AA300201E00F4016D
:10183D00010000006EA300200200000024D905085D
:10184D0058A30020140064000100000066A30020CE
:10185D003200E8030100000056A300200000C8007C
:10186D000100000061A2002000C8010060A200205C
:10187D00005001005FA20020005A01005DA200206F
:10188D000200000030D90508F8420608004306089A
:10189D002E7E00200100C409000000002C7E0020D7
:1018AD000100C409000000002A7E00200100C409C7
:1018BD0000000000287E00200100C4090000000087
:1018CD00247E00200100C40900000000267E0020B7
:1018DD000100C40900000000227E00200100C4099F
:1018ED0000000000207E00200100C409000000005F
:1018FD00C396002000C80100C296002000C8010058
:10190D00C09600200000FFFF0A000000BE960020D8
:10191D000100C80001000000BC96002032003075A7
:10192D0032000000BA96002005820500B89600200E
:10193D0005002C0105000000B7960020055A050092
:10194D00B496002000FF0100B696002002000000B2
:10195D00C00F0020B296002003000000F0D0050853
:10196D00B396002000FF0100B59600200200000094
:10197D00C00F0020B196002003000000F0D0050834
:10198D00A9EE010839EE0108000000003CD9050858
:10199D0094A30020EE02CA080100000092A30020CB
:1019AD0000C801006400000091A3002000C80100E0
:1019BD006400000090A300200200000048DA050832
:1019CD009E9600200000803E050000009C960020A1
:1019DD0080C1803E05000000969600200083007DAA
:1019ED00050000009496002080C1803E0500000097
:1019FD008F96002000FF0100889600206400F401FE
:101A0D0001000000869600200400000054DA05084D
:101A1D00859600200200000068DA05088FA00020DE
:101A2D000D00000074DA05088CA000200064010090
:101A3D008AA00020320010270A00000088A0002094
:101A4D000D00000074DA050887A000200D000000CD
:101A5D0074DA050886A0002002000000ACDA050843
:101A6D009AA300203E000000B8DA050898A30020D4
:101A7D000100FF7F0100000097A30020020000007D
:101A8D00B4DB050891A0002003000000C4DB0508AD
:101A9D0090A0002003000000C4DB05084EA200202A
:101AAD00000A01004CA200200000E8030100000024
:101ABD004AA200200000E8030100000048A2002017
:101ACD000000E8030100000046A200200000E8032A
:101ADD00010000003EA200200000E803010000000C
:101AED0044A200200000E8030100000042A20020F3
:101AFD000000E8030100000040A2002000140100D6
:101B0D005CA2002002000000D4DB05085AA20020D0
:101B1D000000F4010100000058A200200000F401B3
:101B2D000100000056A200200000F4010100000099
:101B3D0054A200200000F4010100000052A2002078
:101B4D000000A00F0100000050A200200000A00F17
:101B5D000100000043A300201964010042A30020EE
:101B6D0002000000E0DB050840A30020E803D007D9
:101B7D000A0000003EA30020006401000A000000DE
:101B8D0033A300200064010032A300200064010093
:101B9D003AA30020006401000A00000039A30020D0
:101BAD00006401000A00000038A300200064010059
:101BBD000A0000003DA3002000FF01000A00000004
:101BCD003CA3002000FF01000A0000003BA3002001
:101BDD0000FF01000A00000037A3002001FF0100F3
:101BED000A00000036A3002001FF01000A000000DA
:101BFD0035A3002001FF01000A0000009AA000207B
:101C0D000000F4010100000098A000200000A00FCA
:101C1D000100000096A000200000A00F01000000B0
:101C2D0094A000200000A00F0100000092A0002051
:101C3D000000A00F0100000029A8002000C801002D
:101C4D0028A800200064010027A8002000640100DE
:101C5D0026A800200064010025A8002000640100D2
:101C6D0024A80020FF08010023A800200164010022
:101C7D00A1ED010865ED010800000000ECDB050891
:101C8D002CA80020013201002BA80020010000002B
:101C9D005CDC05082AA800200400000064DC0508AF
:101CAD0022A800200064010020A800201400E803F1
:101CBD00010000001EA80020E80330750A00000096
:101CCD001CA8002000C801001BA8002000C80100AE
:101CDD001AA8002000C8010019A800200032010038
:101CED002EA80020004B01002DA8002004000000AC
:101CFD0078DC050818A80020006401000A00000027
:101D0D003CA800200000D0070100000037A80020EB
:101D1D0000C8010036A8002000C8010035A8002029
:101D2D0000C801003AA800200000D0070100000003
:101D3D0034A8002000C8010033A8002000C801000D
:101D4D0032A8002000C8010038A800200000D007EC
:101D5D000100000031A8002000C8010030A80020BB
:101D6D0000C801002FA8002000C801008DEB01085C
:101D7D0075EB0108000000008CDC050883A0002035
:101D8D00005A010082A0002000C8010080A00020A0
:101D9D00E803D00701000000000000000000000073
:101DAD002106020828DD05084B49574946345632AD
:101DBD0000000000B096002000030100AF96002047
:101DCD00000301001D780108D17701080000000013
:101DDD0070DD0508917701084977010800000000C2
:101DED000CDE05080DEB0108A1C50108000000007F
:101DFD008CDE0508A09600200103010015F00108F6
:101E0D00E9EF010800000000E4E10508CD760108C6
:101E1D00817601080000000054E205089DEB0108E1
:101E2D00CD06020800000000F0E20508D508020802
:101E3D0041F001080000000098E30508DDEB010802
:101E4D00000000000000000018E4050895EC0108F2
:101E5D003DEC0108000000007CE4050829ED0108B7
:101E6D00EDEC01080000000024E5050801740208EE
:101E7D00DDED010800000000B0E5050855A30020C8
:101E8D000106010015EC0108EDEB01080000000052
:101E9D00ACE60508397302087D0702080000000052
:101EAD001CE70508497402084108020800000000FB
:101EBD006CE8050854A30020010301004DEB010857
:101ECD0025EB01080000000040E90508A174020897
:101EDD000000000000000000A4E9050819770108C2
:101EED0059BB01080000000024EA050800000000AD
:101EFD000000000000000000B0EA050811EE010826
:101F0D00B90802080000000020EB0508FFFFFFFFE5
:101F1D000000803F000000000000000000000000F5
:101F2D0000000000000000000000000000000000A4
:101F3D0000000000000000000000803F00000000D5
:101F4D0000000000000000000000803F00000000C5
:101F5D0000000000000000000000803F00000000B5
:101F6D000000000000000000010000000000FA4326
:101F7D000000FA430000803FFFFFFFFFFF0000005D
:101F8D00051604080000000000000000000000001D
:101F9D000000000014C80020080000000000000030
:101FAD0004C800200800000001000000A00F000080
:101FBD00B80B00000102FFFF01000000C12701085E
:101FCD006DFF000859270108000000003DFE0008C4
:101FDD0041300108A9260108F52201080000000082
:101FED0000000000FDFD00081182000805820008B8
:101FFD00618E00087D8E0008458E0008298E000830
:10200D000D8E00087927010849FF0008AD2601084B
:10201D000000000015FE0008F92201087D260108C8
:10202D0055220108000000000000000009FE000814
:10203D00FF000000FFFFFFFFFF000000A88D060856
:10204D00000008020503030000000000B08D060823
:10205D000100080205040300000000005C60060892
:10206D000200FE01011003000000000050460608AA
:10207D00030014020003000000000000B88D0608E4
:10208D0004001F020200080000000000C08D0608B9
:10209D0005001F0202010800000000001A030000E5
:1020AD000000000000000000000000000000000023
:1020BD0000000000000000000403090412010002EA
:1020CD0000000040830420570002010203010000BC
:1020DD005DDD040809D904084DDD0408D1D50408D7
:1020ED00FDDC0408A9DC0408CDD504087418002013
:1020FD00DD2F010829FF0008BD2E0108000000009A
:10210D0000000000552601086525010800000000AB
:10211D000000000000000000F1FD000859D6040881
:10212D004DD60408C1DD0408DDDD040805D604081C
:10213D00A5DD040889DD0408C43306080080020209
:10214D001F00000053544D202020202050726F643A
:10215D00757420202020202020202020302E30318A
:10216D00FF010000F4010000FF0000000000040169
:10217D000000000000000002100000000700000039
:10218D00000000000000000001020304060708091A
:10219D0001000000D0180020000000000000000029
:1021AD000000000000000000000000000000000022
:1021BD000000000000000000000000000000000012
:1021CD000000000000000000000000000000000002
:1021DD0000000000000000000000000000000000F2
:1021ED0000000000000000000000000000000000E2
:0821FD000000000000000000DA
:082800000000000000000000D0
:1080000070B4C3080D4CE25C00F00706B24004EB0C
:10801000D004D2B20020C6F108038B4228BF0B4621
:10802000C3F108052A419840C91A40EA02004FF0FE
:10803000000614F8012FEED170BC704770190020B3
:10804000084AD2E91C31994209D0D118013391F87C
:1080500078100170C3F30A031367012070470020F2
:10806000704700BF30190020064AD2F87838D2F89D
:108070007C28934294BF4FF400600020013B9B1A80
:108080001844704730190020012380F851307047A0
:1080900007B501A8FFF7D4FF0028FAD09DF8040027
:1080A00003B05DF804FB044BD3E91C03984288BF7E
:1080B00003F50063181A704730190020012070473B
:1080C000024BC3F88028C3F8841870473019002089
:1080D000024BC3F88828C3F88C1870473019002069
:1080E0007047704730B4124DD5E91C239A4286BFC1
:1080F00003F50064A21A9A1A0A44B2F5006F12D866
:10810000A1B101444A1E013810F8014FE91882421A
:1081100003F1010381F87840C3F30A03F4D16B67DC
:10812000002030BC7047022030BC70470846F8E79A
:1081300030190020212838B50C4605D022282ED031
:10814000202813D0002038BD0029FBD0072AF9D100
:108150001A4BD3F8900893F8941893F8952893F84D
:108160009638206021716271A371EBE70029E9D094
:10817000072AE7D1114DD5F884381BB10968D5F825
:1081800080089847206821796279A379C5F890081A
:1081900085F8941885F8952885F89638D2E700294F
:1081A000D0D0022ACED1054AD2F88C38002BC9D0C3
:1081B0000988D2F888089847C4E700BF3019002022
:1081C000024B0020C3F89808704700BF3019002008
:1081D000044B00200522C3F89828C3F88C08C3F884
:1081E0008408704730190020704700BF704700BFF7
:1081F000704700BF704700BF704700BF704700BFA7
:10820000704700BF042301480B807047880100209D
:1082100010B4074A074B92F89C08122403F1140289
:108220000C8001280CBF184610465DF8044B7047BF
:10823000301900208C010020A0B182680D4B12B1D2
:1082400007229A7070471978DA6003294FF004000A
:108250000CBF80214FF48071C3E901111A611A75B6
:1082600098707047034B41F2E47101225A545A70DE
:10827000704700BF705C00200378022B10D00069AB
:1082800008B9012070470C4B1B78032B0EBF0B4B1A
:1082900080B24FF6F773984294BF002001207047D8
:1082A0000549436841F650028A58B3EB422F2CBF70
:1082B00001200020704700BF705C0020F7FFFF0F17
:1082C0000378022B14D030B4104A4368006941F699
:1082D000480402F5C2511559096841F63C042B4087
:1082E00012595B0A023801FB0030104430BC704761
:1082F000064B426841F6340141F63000595818588F
:1083000000EB410000EB5220704700BF705C002082
:108310000048704758190020034B93F824000328A5
:1083200094BF00200120704730190020034B93F8C0
:108330002400003818BF0120704700BF301900200A
:1083400010B5084CE26D13899907FCD513891B06FB
:10835000F9D40A203FF03CFE206EBDE8104040F00A
:10836000ADBE00BF30190020F8B56C4C00234FF4AF
:10837000F0722021054604F6A40084F8A03853F0DA
:10838000BEFE04F684204FF4F072202153F0B7FEB5
:1083900094F8650C10B194F8662C0AB90020F8BD69
:1083A00040F0B2FBC4F8700C28B182790AB1412ABE
:1083B000F4D12322C28009213FF0DAF9D4F8700CFD
:1083C00040F07CFE94F8663C013B5BB25A1C00F026
:1083D0009380022B00F3908004EB0313D3F8740C0A
:1083E0004F4EC4F86C0C0223102184F8683C4CF00A
:1083F0009FFB718D4B4842F0C1F9D4F8700C40F0EE
:1084000057FEFF218C204CF0F3FB0746D4F8700C8C
:1084100040F054FED4F86C0C04214CF089FB1B2F67
:1084200005D0D4F8700C20213FF0A2F9B6E7D4F8BB
:10843000703C012284F8A0280BB12322DA80718DD0
:10844000384842F09BF9D4F8700C40F031FE4021DE
:108450000A204CF0CDFBFF218A204CF0C9FBC0F371
:108460008013D4F8700C84F8A43C40F027FED4F8B4
:108470006C0C04214CF05CFB94F8643C012B40D064
:10848000022B3BD0002B45D094F8A53C182B08D1EB
:1084900094F8A42C738DA4F8A85CA4F8AA2CA4F8D2
:1084A000AC3C718D1F4842F069F9718D1D4842F056
:1084B00065F9D4F8700C40F0FBFD022100204CF06F
:1084C00097FBD4F8700C40F0F9FDD4F86C0C042143
:1084D0004CF02EFB94F8B52C94F8B63C94F8B41CF0
:1084E00084F8B01CC2F12002C3F1100384F8B72C49
:1084F00084F8B83C0120F8BD002071E7082373859B
:10850000C2E7002DFAD094F8A43C002B14BF082336
:108510001023F4E710237385B6E700BF301900205D
:1085200088010020982500202DE9F04FCE4DDFF87E
:108530006883DFF8709384460F4616460FCD444695
:108540002DED068B0FC40FCD0FC495E807008BB03F
:1085500099F8BE3C029684E80700CDE906C7042BD3
:1085600000F25C81DFE813F0BA015A015501050001
:10857000CA019FEDBE8ADFEDBE8ABE49C8F81C1055
:10858000BD49BE4BBE4AC8F818100299002918BF51
:10859000134638EE887AF5EE006A86EE87AAC8F8A8
:1085A0002430B84FB84B03930026DFEDB87A9FED27
:1085B000B89A28EE278AF0EE679A079BB34200F03C
:1085C0002281039B13F8014B039306F1010B5FFA21
:1085D0008BF2002C00F09581DFF8CCC2002303E081
:1085E0000133152B00F08D8103EB43015D001CF876
:1085F0000100A042F4D14944049291F8D91C002909
:1086000000F0878120463EF091FD03680593824685
:1086100018463EF077FD9AF805103EF0CDFE90F832
:1086200000E0BEF1000F40F06C8109EB0500250968
:108630000321013D049A059B80F8192D8D4280F895
:10864000181D04F00F0C00F23581874800EB45003F
:10865000808D40FA0CF414F0010400F03D810124F7
:1086600004FA0CF3013B1840049250F0A9FD7E4B34
:10867000DFF838C2049A1D44032195F834307A4D4E
:1086800018440CEBC0037B619971DA715CF830001F
:108690009AF8082000F13F4101F57E0105EB912198
:1086A00091F8381001F01F054909032904FA05F46F
:1086B00000F00D81042900F00581022900F0FD8001
:1086C0009B880893B3FA83F3C3F11F03C3F3CC0170
:1086D00000EB810103F007030C6A9B000F259D400E
:1086E00024EA05040C620C6A02FA03F323430B62CA
:1086F000022308A909930AF0EBFFDAF80030029A86
:10870000002A00F0A380B9F8BC2C00EE102AB8EEC5
:10871000C00AFCEEC07A17EE901A5E4A934200F04F
:108720008280A2F5806293427DD002F5804293421E
:1087300079D002F58062934275D002F5806293424F
:1087400071D0D9F8CC2E50084FF6FF73B0FBF1F280
:108750001A44120CB0FBF2F20298002866D0B2FB69
:10876000F1F199F8BE0C04288BB264D007EE902A80
:10877000F8EE676A66EE887A29EE677A99F8BF0C98
:1087800006990091A6EEA87A019051463846C7EDA9
:10879000027A87ED037A2FF079FD002E61DD7B6888
:1087A000D8F83820934200F08380012E59D0D8F8B1
:1087B000502093427CD0022E53D0D8F868209342A8
:1087C00076D0032E4DD0D8F88020934270D0042E5E
:1087D00047D0D8F8982093426AD0052E41D0D8F8D7
:1087E000B020934264D0062E3BD0D8F8C820D31ACC
:1087F00018BF01235E460122082E3B747A7407F1EC
:1088000018077FF4DAAE24480BB0BDEC068BBDE848
:10881000F08F9FED228AF0EE488AAEE69FED208A27
:10882000F0EE488AA9E6D9F8CC0E8DE799F8BE0C8F
:10883000042819469AD107EE901A07EE102AF8EE8E
:10884000677AF8EE476A67EEA97A95E7B0EE4A0ACA
:10885000049351F029FBFCEEC07A049B17EE901AAA
:108860005BE70123C6E700BFA0C10508ACC5A73779
:10887000ACC5A7361D4D0308D5470408E1460308DB
:10888000C947040848000010F32500206F12833AFE
:1088900000007A44000401401400001028293038F8
:1088A0006F1203393019002008260020742600209A
:1088B00000239FE7C7F814E021E717494D6C2C43CC
:1088C0004C64FDE614490D6B2C430C63F8E6124929
:1088D0000D6C2C430C64F3E67C6110E79FED0F8A6E
:1088E0000F4BC8F8183000230E4A06930123029359
:1088F000C8F81C200C4BF0EE488A4AE69FED0B8A24
:10890000EEE70B4A084BC8F81C20C8F824300020BA
:108910007AE70B68FFDE00BF003802406F12833A2F
:10892000D54704081D4D0308C9470408000000008E
:10893000D9490308F8B51A4C94F8D03E002BFBD166
:1089400059B301444E1E451ED4F87C28D4F878183B
:1089500015F8017F531CC3F30A038B422CBF4FF45D
:1089600000600020C91A22440144012982F8D47E03
:10897000C4F87C380FD101203FF048FCD4F8783897
:10898000D4F87C188B4294BF4FF4006200225B1A2B
:108990001344012BEFD0B542D6D10020F8BD00BF63
:1089A000301900200A4B0846D3F8981810B569B161
:1089B000D3F89838052B09D1064C002AD4F8DC35B9
:1089C00004DD1146FFF7B6FFD4F8DC3510BD00BF5B
:1089D00030190020282A002010B590F850100023EC
:1089E00080F8503089B10C4CD4F898287AB1D4F87A
:1089F0009828052A0DD1094C3C30D4F8DC35FFF716
:108A000099FFD4F8DC35012010BD0120FCE71046A9
:108A1000FAE71846F8E700BF30190020282A00209E
:108A2000002280F85120D7E790F85020531C0244D0
:108A3000DBB280F8503082F83C1090F851200AB137
:108A4000132B00D9C8E77047114B70B5D3F8CC4E43
:108A5000054600680E4664080AF03EFDB4FBF6F1D8
:108A6000B1F5803F03D3012CFAD96408F6E722461A
:108A7000284689B23EF0D8F90649074BC1F8443E72
:108A800028460022BDE8704001F644613EF04CB932
:108A900030190020282A00207DDE010808B5124B7D
:108AA000D86D828940F2E9330289013B12F0020F4E
:108AB0009BB212D0FF23838140F2E9330289013B4C
:108AC00012F0010F9BB202D08089C0B208BD002B0A
:108AD000F4D141F08BFEC0B208BD002BE4D141F0CF
:108AE00085FEC0B2F8E700BF3019002070B505461A
:108AF0000E460924FFF7D2FFFF2803D1013CF9D12C
:108B0000012070BDFE2801D0022070BD0649334609
:108B10002A46C86D00214FF069F9FFF7BFFFFFF744
:108B2000BDFF002070BD00BF3019002010B51D4CE6
:108B300000232362FFF7B2FFE06D828940F2E93340
:108B40000289013B12F0020F9BB217D0FD238381F3
:108B500040F2E9330289013B12F0010F9BB212D0BF
:108B60008389FFF79BFFFF2812D1FFF797FFFF28AC
:108B70000ED10423022084F8243010BD002BDFD155
:108B800041F034FEEDE7002BE4D141F02FFEE8E7A1
:108B9000054BD3F8DC3563610923002084F82430C9
:108BA00010BD00BF30190020282A0020F8B54379F5
:108BB0004B4C002B14BF0122002284F8502002D11C
:108BC00084F82430F8BD4278531E5BB25E1C054623
:108BD00077D0022B75DC04EB0310D0F8746CE665DB
:108BE000022084F858002878002854D1ED78002D10
:108BF00045D14FF48071E06D25664BF099FF4FF43D
:108C00007A703FF003FB206E40F058FAE06D0A26C0
:108C100083894FF6FF714FF47A73FF270289950716
:108C200019D587814FF47A730289D20703F1FF3592
:108C300021D5013E8289F1D12A4B0289920712D5B2
:108C4000028912F080020ED1274B2276D3F8DC3550
:108C500063610123B4E7013B9BB28B42DED141F05B
:108C6000C5FDE06DE8E7013BE7D1227E84F82430C2
:108C7000531C2376F8BDABB28B42D5D1EFE7284623
:108C80003FF042FF054608B11E23C3800921284654
:108C90003EF06EFDADE703EB83030B44002011466D
:108CA00093F903203FF028FE064630B140684DF0AE
:108CB00055FEB36884F86C3028B9002384F864301A
:108CC00094E700268BE7094A431E02EB4313172162
:108CD0000022A3664DF054FE012384F8643085E73A
:108CE00030190020A1860100282A0020B4010020AC
:108CF00070B582B040F040060C0E05460A0A080C1A
:108D000095238DF801408DF804108DF800608DF8E2
:108D100002008DF803208DF805300824FFF7BEFE11
:108D2000FF2802D0013CF9D11DBB1A4BD86D062596
:108D300083896E464FF47A734FF6FF713EB316F88F
:108D4000012B0489013BA4079BB215D593B2838103
:108D50004FF47A730489E40703F1FF3211D5013D22
:108D60008289EBD10924FFF799FEFF2802D1013C4B
:108D7000F9D1FF2002B070BD8B42E2D141F036FD47
:108D8000F0E793B28B42E5D141F030FDEAE7FF22F4
:108D9000D7E700BF301900202DE9F843194C94F8AB
:108DA0002460042E0546894690461F4608D0082EAA
:108DB00002D00020BDE8F883FFF7B8FE0228F8D102
:108DC000206E40F075F9A37E9BB969021120FFF770
:108DD0008FFFA0B90C4BC4F80090D3F8DC25656078
:108DE0000523C4E90387626184F824300120BDE8CB
:108DF000F88329461120FFF77BFF0028EAD0FFF710
:108E00009FFAD6E730190020282A002010B5044C1C
:108E100004480A46214609F0A1F9204610BD00BFCA
:108E2000743800205836060810B5044C04480A4629
:108E3000214609F093F9204610BD00BF7438002088
:108E40006836060810B5044C04480A46214609F065
:108E500085F9204610BD00BF74380020743606081E
:108E600010B5044C04480A46214609F077F920461B
:108E700010BD00BF743800208036060810B5044CC1
:108E800004480A46214609F069F9204610BD00BF92
:108E9000743800208C36060810B509F033F90F4CF1
:108EA00048B194F82430032B11D8237E0133DBB270
:108EB000072B237603D9002384F8243010BD084AF9
:108EC0000123D2F8DC25626184F8243010BDE06D06
:108ED0004FF480714BF02CFEE7E700BF3019002003
:108EE000282A002070B51D4C94F82430042B064627
:108EF0000D4608D0082B20D1E36983422BD0FFF721
:108F000015FE022819D1206E40F0D2F8002137203A
:108F1000FFF7EEFE29461720FFF7EAFEA8B9A37E69
:108F20006BB971021920FFF7E3FE70B90823C4E999
:108F3000076584F82430022070BD012070BD3146E1
:108F40001920FFF7D5FE0028F0D0FFF7F9F9FFF759
:108F5000A3FF032070BD022070BD00BF30190020A8
:108F60002DE9F043644D91B006460F469046994670
:108F700095F82430042B0DD0082B07D1EB69B342B0
:108F800000F0B680FFF7D2FD0228F1D0012011B029
:108F9000BDE8F083286E40F08BF8AB7E002B40F0EC
:108FA000968071021820FFF7A3FE002840F09A80F7
:108FB00095F82440FFF772FD082C0CBFFC22FE221E
:108FC000E86D818940F2E9330189013B11F0020F1C
:108FD0009BB249D093B2838140F2E9340389013CCA
:108FE00013F0010FA4B26FD0838995F86430002B81
:108FF00042D001A80AF098F8EB6DAA6E95F86C10B3
:10900000506803970C334022029300234906CDE9B0
:10901000083304920B934FF4806206930A934FF443
:1090200000730792019105930AF0BCF8AB6E01A999
:1090300058680AF08BF8AB6EEA6D59680B6843F01C
:1090400001030B6093889BB243F0020393800122DB
:1090500006230020C5E903892F606E602A7285F817
:10906000243011B0BDE8F083002BADD141F0BEFB40
:1090700095F86430002BBCD1E86DBE4683894FF46F
:1090800080724FF47A744FF6FF71BEF1000F19D061
:109090001EF8013BB0F808C0013C1CF0020FA4B25E
:1090A00017D09BB283814FF47A74B0F808C01CF0DB
:1090B000010F04F1FF3311D0013A8389C7D0BEF10B
:1090C000000FE5D1FF23E5E7002C87D1CEE731463D
:1090D00068E78C42DED141F089FBB8E79CB28C4254
:1090E000E3D1F8E7FFF72CF9FFF7D6FE03204EE7B0
:1090F000FFF7D4FCFC2263E7301900202DE9F04F84
:109100009E4C94F8506087B0002E00F0C08194F817
:1091100024209B4FDFF86C92DFF86C824FF6FF75CE
:10912000531E082B00F29380DFE813F0A600CC005A
:109130005D019100800009000B019100F60094F898
:109140006430002B40F02582E06D236894F808E03D
:10915000828903EB0E2C4FF480714FF47A73BCF1CB
:10916000000F00F0A2811CF801AB0289013B9207BD
:109170009BB240F1D6811FFA8AF383814FF47A7350
:109180000289D20703F1FF3A40F1D3810139828984
:10919000E5D10EF1010E5FFA8EFEBEF1020F84F8EA
:1091A00008E051D1E06D838940F2E9330289013B47
:1091B00012F0020F9BB200F0B0810023838140F2D5
:1091C000E9330289013B12F0010F9BB200F09E814E
:1091D0008389838940F2E9330289013B12F0020F4F
:1091E0009BB200F08F810023838140F2E933028932
:1091F000013B12F0010F9BB200F07E818389FFF7E3
:109200004DFC00F01F00052800F08382FFF744FEAC
:10921000D4F80CA0BAF1000F00F0B5810022236948
:1092200061680120D04794F8242079E720684FF442
:109230000071FFF75BFC012800F08D81022800F02F
:109240009181002800F0D68194F82420531EDBB2CF
:10925000022B00F226814A4B6169D3F8DC355B1A98
:10926000C82B00F21A81A2F10806B6FA86F6760932
:10927000304607B0BDE8F08F206E3FF019FF0021A7
:109280000846FFF735FD8246FFF75AF8BAF1010F9D
:10929000DAD10023206E63763FF00AFF40F2AB1173
:1092A0000820FFF725FD052800F07081012800F057
:1092B000FF80FFF745F8627E002A00F02782022334
:1092C00084F82430206E3FF0F3FE637E022B0CBF47
:1092D0004FF0804A4FF0000A00213720FFF708FDC9
:1092E00051462920FFF704FD8246FFF729F8BAF11D
:1092F000000FA9D1637E022B00F0908184F81AA0A0
:10930000206E3FF0D5FE00210920FFF7F1FC002878
:109310003CD0FFF715F897E74FF0080AFFF7BEFBC0
:10932000FF2800F00A82BAF1010AF7D16369D7F881
:10933000DC25FA33934287D2FFF7AEFD94F8242060
:10934000EEE6FFF7ABFBFF284FF0080A06D0BAF1B4
:10935000010AEBD0FFF7A2FBFF28F8D1236A002215
:10936000012B227640F2EF81E26908210132013BB4
:10937000C4E9072384F824100A4674E73019002052
:10938000282A00200F64024000600240BF481021DC
:10939000FFF7ACFB83460028BBD101217F20FEF7FD
:1093A0002FFE01288246B4D158460221FEF728FE3E
:1093B000002800F08D810128ABD116213A20FEF75C
:1093C0001FFE01308002A062FEF7BAFF206E3FF060
:1093D0006FFE00210A20FFF78BFC002840F04E8131
:1093E000032384F82430102102A8FFF77FFB002814
:1093F0007FF42AAF9DF815309DF816109DF81020C7
:109400009DF809009DF80AC01B01DBB243EA111365
:1094100003F5FA636387DDF8113001F00F0184F87A
:109420003C101BBA110902F00F024CEA002084F82C
:10943000381084F839209DF808109DF80B206363DC
:10944000039B2363A08584F82E1084F82F20FEF759
:1094500077FFA37E73B9206E3FF02AFE4FF40071B0
:109460001020FFF745FC8246FEF76AFFBAF1000FB5
:109470007FF462AFE06D04214BF05AFB002204231D
:109480003046226284F8243007B0BDE8F08F3046C1
:1094900084F8246007B0BDE8F08FFFF7FDFC94F876
:1094A0002420042A7FF4DFAEE2E64FF0FF0A5CE6F8
:1094B000E06D4FF0040E838902A94FF47A734FF0E8
:1094C000FF0C028992073AD5A0F80CC04FF47A73CA
:1094D0000289D20703F1FF3A38D5828992B209B1E5
:1094E00001F8012BBEF1010EEBD19DF80B30AB2B37
:1094F00004BF02236376DCE6002B7FF478AE41F0F4
:1095000075F97CE6002B7FF467AEF8E7002B7FF45B
:1095100058AE41F06BF9E06D5BE6002B7FF446AE90
:10952000F7E7AB427FF421AE41F060F994F808E030
:109530002FE61FFA8AF3AB427FF422AEF4E7013B39
:109540009BB2AB42BDD141F051F9CEE71FFA8AF38D
:10955000AB42BDD1F7E76369D7F8DC2564339342AA
:10956000BFF472AEFEF7ECFEFFF796FCD4F80CA049
:10957000BAF1000F07D00022104623696168D04776
:1095800094F82420CCE594F82420C9E584F819A0A7
:109590008FE6A16E3E4BD1F804C0C969CC4598BF97
:1095A0004346880040F188805868DFF8E8E00840CA
:1095B00010EA0E0F3FF457AE01EA0E01D960DCF855
:1095C0000030E06D23F00103CCF800300389D907A7
:1095D00003D583890389DA07FBD403899B07FCD56C
:1095E00003891906F9D4838823F002031B041B0C9A
:1095F0008380D8E50190FEF7A3FEE5680198207608
:10960000042384F82430002D3FF432AED4E9002145
:109610002369A84794F82420531E18E6206E3FF0D3
:1096200047FD51463A20FFF763FBE16D82468B8987
:109630004FF0040E4FF47A7302A84FF0FF0C0A8922
:10964000920729D5A1F80CC04FF47A730A89D20782
:1096500003F1FF3B2BD58A8992B208B100F8012BA8
:10966000BEF1010EEBD1BAF1000F07D1FEF768FE93
:10967000029B1BBAC3F38073A37641E6FEF760FE3C
:10968000FFF70AFC94F824204AE500BF7019002077
:10969000006402407D0F7D0F013B9BB2AB42CED1F7
:1096A000084641F0A3F8BAF1000FE7D1DEE71FFA50
:1096B0008BF3AB42CAD1F3E71868DFF8B0E008409B
:1096C00010EA0E0F3FF4CFAD01EA0E01996076E784
:1096D00004212C20FEF794FC032183464E20FEF744
:1096E0008FFC0C21034636200193FEF789FC019B79
:1096F000421C02339A400AFA0BFAA2FB0A01420A00
:1097000042EAC152A262FEF71BFE5FE684F8242003
:10971000A9E5154BE568D3F8DC356361072284F8C9
:109720002420002D3FF49FADD4E9002123690120BE
:10973000A84794F82420531E89E5FEF701FE042370
:1097400084F8243094E508D0042384F82430FEF70C
:10975000F7FD94F82420531E79E5FFF7E7F9022876
:109760007FF472ADD5E500BF282A00207D0F7D0F64
:1097700000F01F0240090123032803FA02F304D07A
:1097800004280CD0022805D07047074A116C0B43FF
:1097900013647047044A516C0B4353647047024A88
:1097A000116B0B4313637047003802400048704749
:1097B000D4260020002871D0F0B58388B3FA83F353
:1097C000202B0A4683B00446C3F11F0150D0344F0A
:1097D000344D07EB81036E18C3F84C2F002196F827
:1097E00040603DF0C5FFA38821682F48B3FA83F39A
:1097F000C3F11F0202F0FC0404F1804404F59C3420
:1098000002F003024FEA820E4FF00F0C01F13F42CB
:10981000A1680CFA0EFC21EA0C01A16002F57E029F
:10982000A168C2F387224FF0004C02FA0EF22CFA24
:1098300003F30A43A260436102681C4922EA03025F
:109840000260426822EA0302426002681A43026030
:10985000826822EA03028260C26822EA0302C260CE
:109860000A68374413430B6097F88C3FF02B01D8FC
:1098700003B0F0BD3544F02195F850308DF8043038
:1098800003224FF4807301A887F88C1F8DF8052000
:10989000ADF8063009F0DEFB03B0F0BD704700BF45
:1098A000282A0020A0C10508003C0140083C0140D6
:1098B0002DE9F047C94C94F8931F0546C1F34001C8
:1098C000D4F8980F3FF000FC94F8931FD4F8940F4D
:1098D000C94301F001013FF0F7FB002D00F0E580E6
:1098E00005F1FF38BE4EBF4D5FFA88F81027D4F857
:1098F000983F33B11A689B8851690B4214BF538358
:109900001383D4F8943F33B11A689B8851690B4292
:1099100014BF53831383B4F8A03F002B40F055814C
:1099200094F8A21FD4F8A40F3FF0CEFB4FF0FA0C2E
:109930004FF47A704FF0010E7368C3F30803002BE5
:1099400040F01781EFF31183002B40F01281D4F81F
:10995000DC25A968D4F8DC359A42F8D1D4F8C83FA0
:109960009942F4D8D4F8C49F00FB09F35B1AB3FB07
:10997000F9F300FB02327368C3F30803002B40F0D5
:10998000B780EFF31183002B40F0B280D4F8DC35C0
:10999000D5F808A0D4F8DC158B42F7D1D4F8C81F4D
:1099A0008A45F3D8D4F8C49F00FB09F1A1EB0A0162
:1099B000B1FBF9F100FB03139B1AB3F57A7FDAD3FD
:1099C000BCF1010CB8D1D4F8983F33B11A689B8828
:1099D00051690B4214BF53831383D4F8943F33B1BE
:1099E0001A689B8851690B4214BF53831383B4F8E0
:1099F000A03F002B40F0DD8094F8A21FD4F8A40F04
:109A000081F001013FF060FB4FF0FA0C4FF47A70E7
:109A10004FF0010E7368C3F30803002B40F08980F8
:109A2000EFF31183002B40F08480D4F8DC25A96883
:109A3000D4F8DC359A42F8D1D4F8C83F9942F4D82A
:109A4000D4F8C49F00FB09F35B1AB3FBF9F300FBE6
:109A500002327368C3F308034BBBEFF3118333BBCC
:109A6000D4F8DC35D5F808A0D4F8DC158B42F7D152
:109A7000D4F8C81F8A45F3D8D4F8C49F00FB09F175
:109A8000A1EB0A01B1FBF9F100FB03139B1AB3F53B
:109A90007A7FDED3BCF1010CBCD108F1FF385FFA4C
:109AA00088F8B8F1FF0F7FF422AFBDE8F087EFF33D
:109AB000118987F31288D5F808A02B68DB0344BF0F
:109AC000C4F8C0EFD5F808A0D4F8DC35D4F8C01F2E
:109AD0005FFA89F989F31188D4F8C49F0B4400FB1D
:109AE00009F1A1EB0A01B1FBF9F100FB0313CDE78A
:109AF000EFF3118987F31288D5F808A02B68D903F2
:109B000044BFC4F8C0EFD5F808A0D4F8DC35D4F8C9
:109B1000C01F5FFA89F989F31188D4F8C49F0B44F8
:109B200000FB09F1A1EB0A01B1FBF9F100FB031302
:109B300042E7EFF3118187F31288D5F808902B687C
:109B4000DA0344BFC4F8C0EFD5F80890D4F8DC3588
:109B5000D4F8C02FC9B281F31188D4F8C41F1A44B5
:109B600000FB01F3A3EB0903B3FBF1F300FB0232AB
:109B70006FE7EFF3118187F31288D5F808902B680F
:109B8000DB0344BFC4F8C0EFD5F80890D4F8DC3547
:109B9000D4F8C02FC9B281F31188D4F8C41F1A4475
:109BA00000FB01F3A3EB0903B3FBF1F300FB02326B
:109BB000E1E6D4F8BC3F002B3FF426AFD4F8A82F41
:109BC0000023136084F8B93F1EE7D4F8BC3F002B94
:109BD0003FF4ACAE3EF0DEFBA8E600BF282A002032
:109BE00000ED00E010E000E02DE9F84FC44CC54F57
:109BF00094F8931FD4F8980FC34DC1F340013FF080
:109C000063FA94F8931FD4F8940FC94301F001014B
:109C10003FF05AFA4FF0050B4FF01008D4F8983F78
:109C200033B11A689B8851690B4214BF5383138365
:109C3000D4F8943F33B11A689B8851690B4214BF22
:109C400053831383B4F8A03F002B40F0518194F864
:109C5000A21FD4F8A40F3FF037FA4FF0320C4FF4A4
:109C60007A7001267B68C3F30803002B40F014814F
:109C7000EFF31183002B40F00F81D4F8DC25A968A5
:109C8000D4F8DC359A42F8D1D4F8C83F9942F4D8D8
:109C9000D4F8C49F00FB09F35B1AB3FBF9F300FB94
:109CA00002327B68C3F30803002B40F0B480EFF36B
:109CB0001183002B40F0AF80D4F8DC35D5F808A034
:109CC000D4F8DC158B42F7D1D4F8C81F8A45F3D8F5
:109CD000D4F8C49F00FB09F1A1EB0A01B1FBF9F133
:109CE00000FB03139B1AB3F57A7FDAD3BCF1010CA6
:109CF000B8D1D4F8983F33B11A689B8851690B42A8
:109D000014BF53831383D4F8943F33B11A689B88EC
:109D100051690B4214BF53831383B4F8A03F002B47
:109D200040F0DA8094F8A21FD4F8A40F81F001016A
:109D30003FF0CAF94FF0320C4FF47A7001267B687D
:109D4000C3F30803002B40F08780EFF31183002B4F
:109D500040F08280D4F8DC25A968D4F8DC359A423A
:109D6000F8D1D4F8C83F9942F4D8D4F8C49F00FB86
:109D700009F35B1AB3FBF9F300FB02327B68C3F310
:109D800008033BBBEFF3118323BBD4F8DC35D5F8D4
:109D900008A0D4F8DC158B42F7D1D4F8C81F8A4547
:109DA000F3D8D4F8C49F00FB09F1A1EB0A01B1FB81
:109DB000F9F100FB03139B1AB3F57A7FDED3BCF1F4
:109DC000010CBCD10BF1FF3616F0FF0B7FF426AF70
:109DD000BDE8F88FEFF3118988F31288D5F808A051
:109DE0002B68DB0344BFC4F8C06FD5F808A0D4F8D3
:109DF000DC35D4F8C01F5FFA89F989F31188D4F8EB
:109E0000C49F0B4400FB09F1A1EB0A01B1FBF9F17E
:109E100000FB0313CFE7EFF3118988F31288D5F81D
:109E200008A02B68D90344BFC4F8C06FD5F808A0B8
:109E3000D4F8DC35D4F8C01F5FFA89F989F31188AA
:109E4000D4F8C49F0B4400FB09F1A1EB0A01B1FB5C
:109E5000F9F100FB031345E7EFF3118188F3128852
:109E6000D5F808902B68DA0344BFC4F8C06FD5F862
:109E70000890D4F8DC35D4F8C02FC9B281F311882A
:109E8000D4F8C41F1A4400FB01F3A3EB0903B3FB8E
:109E9000F1F300FB023271E7EFF3118188F31288CE
:109EA000D5F808902B68DB0344BFC4F8C06FD5F821
:109EB0000890D4F8DC35D4F8C02FC9B281F31188EA
:109EC000D4F8C41F1A4400FB01F3A3EB0903B3FB4E
:109ED000F1F300FB0232E4E6D4F8BC3F002B3FF480
:109EE00029AFD4F8A82F0023136084F8B93F21E7E5
:109EF000D4F8BC3F002B3FF4B0AE3EF04BFAACE6DA
:109F0000282A002000ED00E010E000E010B4B8B115
:109F10000D4CD4F8CC3F102B05D15DF8044B052136
:109F200000203DF00DBF03EB4302224482F8D11F15
:109F300001210B4482F8D00F82F8D21FC4F8CC3F25
:109F40005DF8044B704700BF282A0020C07820210C
:109F5000DCE700BF2DE9F04FDFF87CA32DED028B8D
:109F60001AF8E41C00224AE93D224AE93B2297B054
:109F70004AF8F82C19B11AF8E32C0AF8F82C1AF858
:109F8000E22C1AB11AF8E12C0AF8E92C1AF8DE2CA6
:109F90001AB11AF8DD2C0AF8EE2C1AF8E02C1AB1D6
:109FA0001AF8DF2C0AF8F32C1AF8DC3C05935A1E39
:109FB000D3B257B204937B1C00F0AA80BC4ABD4EBA
:109FC00052F83780029602EBC70200231279019300
:109FD00008EE102A1D463446994626783946304602
:109FE00040F0D2FF83463046BBF1000F1ED03EF05A
:109FF0008BFDEA1D1321D2B220B14FF0000E827109
:10A0000080F807E03DF0B4FB207840F0EFFF4FF020
:10A01000070309F1010223714FF0010384F8029054
:10A020006070CDF804B05FFA82F9E3700135042D59
:10A0300004F10504D1D118EE100A029ECDF80C905F
:10A04000FFF796FB9C499D4A4868024042F4403223
:10A050004A600FB9019B5BB9994C4820FFF788FB18
:10A06000204602214EF002FAA26842F00102A260EC
:10A070009148934A41683AF8DA4C41F40001416052
:10A08000516821F480515160916B21F4401141F4E9
:10A0900080119163D16841F46001D160956B85F4C2
:10A0A0004011C1F3015101EB81011F2000FA01FCB5
:10A0B00025EA0C0C112505FA01F141EA0C01916326
:10A0C000D16841F4E011D160956BC5F30151C1F144
:10A0D0000401C9B201EB810188404FF0100C25EA60
:10A0E00000000CFA01F108439063E4B13AF8D81C7F
:10A0F0004AF8D04CA1B13AF8D62C4AF8CC1C62B13F
:10A10000019B7048521A90FBF2F24AF8C82C6BB9C6
:10A1100017B0BDEC028BBDE8F08F6B4A1288EFE7F9
:10A120006A4A1188E7E76A4A1488DFE740460399DC
:10A130004EF09CF95F4B012003F114090723F278DC
:10A14000441CE4B252B375783279A5F10A0101EBEF
:10A15000410105EB450C092D03FA01FE03FA0CFB46
:10A1600002FA01F140F28E80D8F80C2022EA0E0E9D
:10A1700041EA0E01C8F80C10421E02EB82021F21B8
:10A18000062801FA02FC05FA02F261D8D8F8341068
:10A1900021EA0C010A432046C8F834200536B145AF
:10A1A000CDD1D8F80820049942F40072C8F80820EC
:10A1B000D8F8082042F48072C8F80820D8F808209F
:10A1C000574442F00102C8F8082017F9D42C0220A5
:10A1D0003EF092FB044600289AD040684CF0BEFB4B
:10A1E000059A06214CF0CCFB606808F0DBFF07A85D
:10A1F00008F09AFF039EA368364A0793012E8CBF8E
:10A200004FF48060002000230D9008F14C054FF4BE
:10A210000060089509920A934FF480720C930E9097
:10A220004FF4003360680B9607A94FF40055CDE951
:10A230000F52119308F08AFF6268136843F001031C
:10A240001360D8F8083043F08043C8F808305FE75F
:10A25000C11FA0F10D0201EB81014FF01F0E02EBB7
:10A2600082020C280EFA01FC0EFA02F005FA01F146
:10A2700013D8D8F8302022EA0C0211432046C8F83F
:10A2800030108BE7D8F8101002FA0CF221EA0B0B11
:10A2900042EA0B02C8F810206EE7D8F82C1005FA35
:10A2A00002F221EA00010A432046C8F82C2075E793
:10A2B000F8C10508283A002000230140E030FCFFE7
:10A2C00000200140803801002E7AFF1F2C7AFF1FEA
:10A2D0002A7AFF1F5C3A0020203B002000285FD034
:10A2E0000368374A2DE9F04103F13F4404F57E0449
:10A2F00002EB9422012492F8382002F01F05520943
:10A30000032A04FA05F456D0042A4FD0022A48D072
:10A310008588B5FA85F0C0F11F00C0F3CC0603EBC9
:10A32000860600F0070082000F24306A944020EA7D
:10A3300004003062306A01FA02F202430021326204
:10A340004FF0010E0A464FF0030C02270EFA02F8F6
:10A3500038EA050002F101021CD118680CFA01F478
:10A3600020EA04001860186807FA01F606431E6028
:10A370009E6826EA04069E6098689860586820EAFD
:10A380000800586058685860D86820EA0400D8600F
:10A39000D868D860102A01F10201D7D1BDE8F08158
:10A3A0007047084A556C2C435464B1E7054A156B55
:10A3B0002C431463ACE7034A156C2C431464A7E7E1
:10A3C000A0C105080038024070B5464E16F8BC4CD6
:10A3D00004EB440306EBC303650013F8B83C032BFE
:10A3E0006ED8DFE803F059291E02254406EBC505A7
:10A3F00055F8B40C002870D116F8583C9C425FD038
:10A40000013404F00302934206F8BC2C58D002EB4E
:10A41000420406EBC404022344F8B40C04F8B83C2C
:10A4200070BD2B1906EBC30353F8B42C72B1013A7B
:10A4300043F8B42C002070BD2B1906EBC30353F86E
:10A44000B42C002AF3D1022203F8B82C254406EBE1
:10A45000C50515F8AC3C013BDBB205F8AC3C8BBB49
:10A46000214B16F8586CD3F82C1255F8B00C621C1E
:10A4700002F003024B1E0324B242034405F8B84C19
:10A48000B3FBF1F045F8B40C1AD0994218D8013852
:10A4900045F8B40C012070BD40F0AAFA80B1124B0F
:10A4A0002C44D3F82C2206EBC404012102F51C53E2
:10A4B00004F8B81C0F33B3FBF2F344F8B43C70BD9E
:10A4C000012070BD084BD3F82C22012002F2E733A3
:10A4D000B3FBF2F345F8B43C70BD013845F8B40C59
:10A4E000002070BD203B0020880100202DE9F04FA6
:10A4F0002DED108B034697B004331593DFEDCACAD8
:10A50000149002238A4613928B461293149C4FEAAE
:10A51000DB0604EB461202EB06103101A6EB8603C4
:10A520004FEAC60806EB4605CDE9000100EBC30380
:10A53000043108F104001196204421442C01C6EB9B
:10A54000C60C0394EC00119D04944FEACC040594CE
:10A550006C0106EB860E0294159D009C03EB4617DA
:10A560004FEACE0E02EBC6064FEACB094FF0000CC5
:10A5700051ED01AAD3ED001A92ED007A94ED005A44
:10A5800096ED004AD7ED007A15ED012A50ED016AEB
:10A5900032EE07BA76EE840A7AEE855A31EEA70AD1
:10A5A0003BEE256A70EE804A76EEC46A36EE244AA7
:10A5B00036EE646A05ED014A82ED006AD0ED00BA1C
:10A5C000D6ED012AD3ED019A95ED00AA92ED016A2C
:10A5D00097ED013A91ED00CAD4ED014A7BEEE23AE3
:10A5E00036EEE19A32EE472A73EEE98A3AEE464AAF
:10A5F00039EE279A78EE838AB0EE428AA9EE6C8A09
:10A60000DC44E24573EEC33AB0EE441AA8EEEC1A0D
:10A6100076EEE77A33EEA97A7CEE643A77EEA17AA9
:10A620003AEE066A7AEEC51A3CEE24AA74EECC4ADB
:10A6300039EE833A35EE6A5AF0EE639AF0EE48AAA4
:10A64000E7EE2C9AA8EEAC4AE7EE2C4AE7EE6CAAAD
:10A65000F0EE418AB0EE427AB0EE612A7BEE656A96
:10A660007BEEA22A76EE4A5AA9EE2C7AA7EEAC2A05
:10A67000A7EEAC5AE7EEEC8A32EE83BA76EEC3BAB6
:10A6800035EEE09A75EEC07A36EE0A6A76EEE26A48
:10A6900036EE0BAA76EE836A77EEA07A34EE423A73
:10A6A00077EE290A36EE4B6A7BEEA22A39EE000AD3
:10A6B00073EEAA3A78EE244A37EE697A31EE055AFB
:10A6C00071EEA85A32EE044A85ED00AA82ED016AC5
:10A6D0004D4441ED012A4A44C4ED006A81ED000A6F
:10A6E000C4ED017A494440ED010A4C4487ED007AFB
:10A6F000C6ED003AC3ED004A80ED003A87ED014A0D
:10A70000484486ED015A4F44C3ED015A4E444B4430
:10A710003FF62EAF119B072B40F2C781029D149E7E
:10A72000019B03980499059A083575190C330E9509
:10A73000354608F108080EF10804EB180830083116
:10A74000083246442C1928186918AA18079305F1ED
:10A750000C030D960C940B900A91099208934FF0FC
:10A7600001084FF0000E129B9E44139B03EBCE0397
:10A7700003EBCE02109302EBCE0303EBCE0102916A
:10A7800001EBCE0101EBCE0505EBCE06D6ED007A4E
:10A790000F93AEEB8E03019106EB031303EBCE0791
:10A7A000D3ED01AACDED067A019BD5ED007A97EDA8
:10A7B00001BACDED057AD3ED007A029BCDED047A96
:10A7C000D3ED007A0F9BCDED037A07EBCE0CD3EDE2
:10A7D000007ADCED01BACDED027A0CEBCE01D2EDC0
:10A7E000007A109A009101EBCE00014691ED01DA5A
:10A7F000CDED017A0099D2ED007A91ED01CA00EB1E
:10A80000CE0000EBCE0494ED01EAD0ED01DACDEDFF
:10A81000007ADDE90776DDE90954DDE90B01DDE9C0
:10A820000D23C44602E000BFF304353F94ED009AC7
:10A8300090ED00FA91ED006AD5ED007AD3ED006A53
:10A8400057ED014A92ED005A56ED013A96ED00AAF5
:10A8500035EE060A73EEA65A39EE278A34EE8F7A61
:10A8600070EE082A75EE87EA35EE465A3EEEA26A89
:10A8700073EEE63A06ED016AD1ED019AD2ED01FAE6
:10A88000D4ED016AD3ED011A95ED013AD0ED018ABC
:10A8900097ED004A3FEEE96A35EE491A76EE660A10
:10A8A00031EE271A3AEE612A75EE677A70EE830A66
:10A8B0003FEEA95A74EECF9A77EE897A7AEE211A92
:10A8C000B0EE42AA74EE68FAA0EEECAADC44E245CF
:10A8D00035EEC77AB0EE639A74EE285A38EEC44A61
:10A8E000F0EE698AA1EE6C9AE7EEAC8A36EE436A26
:10A8F0007FEE644A36EE266AA0EEAC2AF0EE4A0AF3
:10A90000E7EEEC0AE7EEAC4AF0EE687AF0EE498A40
:10A9100036EE833AE6EE6C8AE1EE2C3AB0EE6F1A30
:10A92000A6EE2C1A71EEE56AA6EE2C4A71EEA55A37
:10A9300075EE031A7EEEE22A37EE43FA75EEE1EA8F
:10A94000B0EE686A76EEC08A39EE044A7FEE86FA87
:10A9500076EEC86A33EE816A38EE888A73EEC13AC1
:10A9600037EE457A2CEE2E1A3FEE055A22EECC9A9F
:10A970009DED03FA70EE266A33EE077AAFEE221AE7
:10A98000AFEE2E9A7AEE244A9DED01FA79EEA09A66
:10A9900025EE4BAA72EE670A37EE822A6BEE087A32
:10A9A000AFEE08AAEFEE057A2DEEA63A9DED05FA78
:10A9B00067EE6D8AAFEE073AEFEE268A66EE6A2AF8
:10A9C0009DED00FA2AEEA00AEFEE202A6EEE02EAD2
:10A9D000DDED060A23EECE5AE0EEA3EA2BEEA98ABD
:10A9E000DDED023AAFEE060AA3EE848A24EE6B7A1E
:10A9F0006DEE246A9DED044A2FEECD6AA0EE825AD8
:10AA0000A3EEA97AE4EE2F6AA4EE246A75EEA15AA9
:10AA1000C6ED005A83ED001A83ED019A4E4447EDCE
:10AA2000017A87ED00AA4B4480ED003AC0ED018A1F
:10AA30004F4482ED000A4844C2ED012AC5ED00EA08
:10AA400085ED015A4A44C1ED006A81ED016A4D4429
:10AA500084ED008A84ED017A49444C443FF6E6AE29
:10AA60000E9B08330E930D9B08330D930C9B0833FC
:10AA70000C930B9B08330B930A9B08330A93099B97
:10AA800008330993089B08330893079B08330793FF
:10AA9000119B08F1010843457FF465AE129BDDF878
:10AAA00044B0DB009BB2129330E517B0BDEC108BC5
:10AAB000BDE8F08F2DE9F041BE4BBF4EBF4DC04CFD
:10AAC0000822C3F88820336B82B043F0010333635C
:10AAD00007464FF4C052284640F202338846694682
:10AAE000CDE9002308F0F4FD6B6AC4F8908523F4E7
:10AAF00070436B626B6AC4F8987543F420436B62D1
:10AB00006B6AB048C4F8940523F470236B626B6AD7
:10AB1000AD4944F8541C43F420236B62736CAB4F73
:10AB200044F8507C43F480437364736BA848A9498C
:10AB300044F8440C43F080037363A74AA74FA84D21
:10AB400044F83C1C02234FF0A04604F84C3C44F867
:10AB5000486C012306F5146601F510715361DFF8A6
:10AB6000B0C2A04A276044F8385CA7F5D07705F555
:10AB7000107544F8346CA160A6F5A066A1F5C86113
:10AB800004F8493CC4F804C044F8307CE56044F85B
:10AB9000402CA5F5C465A667E16306F5B07684F898
:10ABA000BE301946904B656402F5B072A7F5787710
:10ABB000A03526658D4EA264E76402F52A6207F58A
:10ABC000D4576365A56503F569534FF05025002000
:10ABD000ACF5C06CE267C4F8807002F5A04207F5DE
:10ABE000A047C4F88460C4F8883006F5A046A3F5F1
:10ABF0004853C4F88C50A4F15405C4E92576C4F830
:10AC00009020C4F8B830C4F840C002462B4684F8FF
:10AC1000C000402683F81C21A3F822210132042A17
:10AC2000C3E9496083F81D1183F81F01C3F830019F
:10AC300003F12803EED1002211462B46402083F871
:10AC40007423A3F87A230132042AC3E9DF0183F8CD
:10AC5000751383F87713C3F8881303F12803EED133
:10AC60004FF0A04362489A6822F001029A60DA68C5
:10AC700042F04002DA6007F0B1FD14F84B3C0022CC
:10AC8000212161F317420BB142F4801214F8511CD8
:10AC900054F8483C01299A6300F0DF80DA68D4F860
:10ACA000B86054F8440CC2F3076121F0600141F030
:10ACB000400161F31F620021DA603160026861F3D4
:10ACC000CC22026014F8492C012A00F0B380102134
:10ACD000484808F0D5F8474808F0B8F854F8440C4C
:10ACE00014F8533C00224FF0FF3102614261816150
:10ACF000C26153B305F114073F4E114607EB8307BA
:10AD00004FEA830C4FF0FF0E56F8042F1368002B08
:10AD1000ACBF00234FF09043B74213601161C2F8FB
:10AD200008E0F1D105F15003344963440027FF26C0
:10AD300051F8042F1568002DACBF00254FF0904549
:10AD40009942156017619660F2D1036914F8511C9D
:10AD500043F48073012903615CD054F8482C2848DF
:10AD60000023936100294FF0FF336FF08041516160
:10AD70005360516114BF00231023906143F470139A
:10AD80009069D4F8941543F4605343F008030343E7
:10AD900093619368096843F0010393608847194BF6
:10ADA000194ADA606846194B009308F053F902B06B
:10ADB000BDE8F08100E100E0003802400000024000
:10ADC000203B0020B803002008040100400040019F
:10ADD0000008005000090050003C0140000B0050EA
:10ADE0002009005000040050C00500500030005001
:10ADF000D83A0020CC3A0020E03A00201C3B00204A
:10AE00000008008000ED00E00005FA0543020001A3
:10AE1000200B005054F8482C144B03636FF0804112
:10AE2000134D00234FF0FF30936151615060516129
:10AE30009561A3E701680F4A0F4E41F003010160DD
:10AE4000802159629E62C3F80421E022C3F80821E0
:10AE5000C0F24002C3F80C2139E79A6822F03E01A3
:10AE600041F02A0161F307029A6017E703018100AC
:10AE700000080080A00040008000200010B5184CA1
:10AE800094F8A20588B9174B83F85100586594F8D7
:10AE9000A535012B1FD0D4F8A83503B312495B6840
:10AEA000BDE81040A1F10C0018473DF02DFE94F8CC
:10AEB000A4250C49003A18BF012281F851204865A9
:10AEC0000028E4D01F22C28020213CF051FC94F8DD
:10AED000A535012BDFD1054BC4F8A835DEE710BD41
:10AEE000203B002030190020CC400020D40300205B
:10AEF000036870B55E6A26B133460522BDE870402E
:10AF0000184704460D464E1D00E023689B68204606
:10AF100098470028F9D0236815F8011B1B682046C4
:10AF20009847B542F1D170BD2DE9F047164D07465F
:10AF3000002095F9C19505F5B96684B007EB0108C5
:10AF400005F6680504464FF0B60A3368ABB193F8CE
:10AF50003830142B11D019F1020F01D04B450CD110
:10AF6000002269463046CDE90244CDE90078ADF8CB
:10AF700008A08DF80E402EF06DF8E036B542E4D111
:10AF800004B0BDE8F08700BF203B0020F0B40D689E
:10AF900000240CE0BCF1050F18D8A0F137030A2BF0
:10AFA00014D104EB840415F8010B03EB4404A0F165
:10AFB0003003DEB2092EA0F16107A0F1410CF0D9F7
:10AFC000052FE7D8A0F157030A2BEAD00D601460D3
:10AFD000F0BC70472DE9F743124E0124A023182539
:10AFE0005FFA84F8FF2B14DCD6F86808E9B2C1F1E7
:10AFF0001C0282725F1C026880F80B80DBB2009337
:10B00000C1F11B01D2F8189000234246C9B2C847CB
:10B010003B46013DE6D10134052CE0D103B0BDE84B
:10B02000F08300BF203B002010B50A4C94F885083F
:10B03000003818BF0120FDF797F950B1064904F612
:10B040006C003FF02FFB04F66C000FF03DFE04F6A1
:10B050006C0010BD203B002010C2050870B444797C
:10B0600041BB03684FF400524FF4007620250221C3
:10B070003CBB1A8C22F001021204120C1A841A8BA7
:10B08000188C22F0F30280B2120420F00A00120C95
:10B09000014342F0010241F001011A8319841A8B25
:10B0A00022F00C021204120C1A831A8B92B270BC9A
:10B0B0001A83704700220368164615461146002C75
:10B0C000D7D0042C21D0082C38D0198C21F48051F1
:10B0D0000904090C19849C8B1D8C45F6FF7040F601
:10B0E000FF4128402140024342F4805241F48071E4
:10B0F00099831A849A8B22F440621204120C9A8368
:10B100009A8B92B270BC9A8370471A8C22F010020C
:10B110001204120C1A84188B198C89B240F6FF4263
:10B1200021F0A00102400D4342F4807245F0100569
:10B130001A831D841A8B22F44062B3E71A8C22F41E
:10B1400080721204120C1A84998B1A8C21F0F3016C
:10B1500092B2090422F42062090C324342F4807254
:10B1600041F0010199831A849A8B22F00C02C4E702
:10B1700010B50446006808F0AFF90C4BD3F8CC2E9C
:10B18000204652084FF6FF713BF04EFE204600214C
:10B19000FFF764FF0649074BC1F8483E20460022EE
:10B1A000BDE8104001F648613BF0BEBD30190020FB
:10B1B000282A002061AE0108094B93F8BE3C042BFD
:10B1C00008D9053B032B08D801231A4600B10370A8
:10B1D0001046704700230122F8E700231A46F5E7DE
:10B1E000301900202DE9F0479AB0DDE9226ADDF838
:10B1F000909004460D461746984602E020683DF0C0
:10B200001BFC20683DF020FC0028F7D10146642299
:10B2100001A850F074FF264B8DF80450CDF85CA0C7
:10B220000293002D40D0AB1E012B3FD9042D14BF3B
:10B23000002203221F4B0396D3F8DC358DF805203E
:10B240001E440123CDE9059404968DF85B3037B197
:10B250004246394607A850F0F1FE8DF85A80164E46
:10B2600096F8D69800231893B9F1000F19D196F8E3
:10B27000D508642202FB006001A900F6D80050F056
:10B28000DDFE012386F8D59886F8D638236843B1C9
:10B2900043463A46294620461AB0BDE8F04711F029
:10B2A000E5BC1AB0BDE8F0870522C3E70222C1E77A
:10B2B000B4430020282A0020203B00209FED737A11
:10B2C00007EE901A20EE070AF8EE677A27EE800A5A
:10B2D000FDEEC07A17EE903A2033402B00F2C78083
:10B2E000DFED6B7AB4EEE70AF1EE10FAF0EE407A99
:10B2F0000CDD9FED686ADFED686AB0EE677AB4EE48
:10B30000E67AF1EE10FA77EEC67AF6DC9FED637A14
:10B31000F4EEC77AF1EE10FA0CD59FED5E6ADFED20
:10B32000606AB0EE677AB4EEE67AF1EE10FA77EE84
:10B33000867AF6D49FED5B7AF4EEC77AF1EE10FAD6
:10B3400000F38D809FED587AF4EEC77AF1EE10FA93
:10B3500044BF9FED527A77EE677A27EEA76ADFED5A
:10B36000535A9FED537ADFED536AA6EE257A67EEC6
:10B37000865AE6EE076AB6EE007AE5EEA67A27EE82
:10B38000877ADFED486A70EE267ABDEEE76A16EE40
:10B39000103A2033402B67D8B4EEE60AF1EE10FAEB
:10B3A0000CDDDFED3C5A9FED3C6AF0EE676AF4EE8F
:10B3B000C66AF1EE10FA77EEE57AF6DCDFED376A71
:10B3C000F4EEE67AF1EE10FA0CD5DFED325A9FED8D
:10B3D000346AF0EE676AF4EEC66AF1EE10FA77EEC0
:10B3E000A57AF6D4DFED2F6AF4EEE67AF1EE10FAE4
:10B3F00040DDDFED276A76EEE77A67EEA75A9FED2C
:10B400002B5A9FED2B6ADFED2B6AA5EE856A27EE9E
:10B41000A55AE5EE866AB8EE006AE5EE267A67EE92
:10B42000867AC7EE206A0023836143610362C361A9
:10B43000B7EE006A76EE865A76EE666A86EE257A72
:10B4400067EE277A66EE876AC0ED017AC0ED037A6F
:10B4500080ED007A80ED027AC0ED046A70479FEDBE
:10B460000C7A77EE677A78E7DFED137AD9E79FED0C
:10B47000127A86E7DFED0C6AF4EEE67AF1EE10FA66
:10B4800044BFDFED066A76EEE77AB6E727D4D23618
:10B49000DB0F4940DB0FC940E4CB1641DB0F49C04D
:10B4A000E4CB16C1DB0FC93FDB0FC9BF92E741B93F
:10B4B0009730083C15A82ABE000000000C480D4B30
:10B4C000D0F8581910B40C4CC0F848398A1E2231F3
:10B4D000B0F872391B01A4FB03C3DB08A3F5B0630A
:10B4E00022F8023F9142F3D15DF8044B704700BF50
:10B4F000203B0020F1FC0108CDCCCCCC70B5084C31
:10B50000251D2E4614F8010B31F0A0F928B103785F
:10B5100005F8013BB442F5D170BDFF23F8E700BF49
:10B52000B44400202DE9F0471D4F012607F108051E
:10B53000B2464FF03C094FF0000817F8010B3DF000
:10B54000E3FA044690B180F80690C671FB7803F0E8
:10B550007F02012A18D013F0800F20460DD185F804
:10B5600004803DF0A5FD85F805802C600136052E90
:10B5700005F10805E1D1BDE8F08785F804A03DF0AC
:10B580009DFD85F805A0F0E71B0605D401212046A6
:10B590003CF0EEF8FB78DEE73DF090FDF6E700BF0B
:10B5A000BC4400202DE9F04FDFF8E091DFF8E0A186
:10B5B00083B009F10C05012419F8018BB8F1000FD3
:10B5C00000F0BF804FEA1817013F032F08F00F0269
:10B5D00000F2BA800AEB4703988D40FA02F616F0A3
:10B5E000010600F0C38001239340013B18405744FB
:10B5F0004DF0E6FD97F834305E4E184406EBC00679
:10B6000004236E61F471B371002303E00133152B41
:10B6100000F09780584903EB43025F00895C414585
:10B62000F4D1564B1A4492F8D91C002900F0A0809E
:10B6300040463BF07BFD804600683BF063FD98F898
:10B6400005103BF0B9FE0378002B7AD14B4B3B44FD
:10B65000042283F8194D83F8182D002E58D0336832
:10B6600098F8080003F13F4202F57E020AEB9222AD
:10B67000012792F8382002F01F015209032A07FA25
:10B6800001F169D0042A62D0022A6AD0B6F804C057
:10B69000BCFA8CF2C2F11F02C2F3CC0103EB8101B0
:10B6A00002F007020E6A92000F27974026EA07066B
:10B6B0000E620E6A90403043002208624FF0010B88
:10B6C00011460BFA01FE3EEA0C001CD11868032655
:10B6D000964020EA060018601F6802209040384318
:10B6E00018609F6827EA06079F6098689860586806
:10B6F00020EA0E00586058685860D86820EA0600B2
:10B70000D860D868D8600131102902F10202D8D17E
:10B710001B4B1C4AB3F8C419B3F8C639009100207A
:10B7200001340190B2FBF3F328469BB24146E4B2E8
:10B730002CF0ACFD0123092C6B7405F118057FF486
:10B740003BAF03B0BDE8F08F00266E615CE70E4FA3
:10B750003A6B0A433A6399E70B4A176C3943116411
:10B7600094E7094A576C394351648FE76E614BE7A0
:10B770000B68FFDE74260020082600203019002008
:10B78000203B002040420F0000380240E8440020E7
:10B79000A0C105082DE9F0418C4B82B093F8942AA2
:10B7A0000190002A40F00C8193F8B82AB3F8BA1A35
:10B7B000DFED876AB3F8BC8A864D07EE102A07EEE4
:10B7C000901AB8EEC76AB7EE007AB3F8B61AA5F8C1
:10B7D0000081F0EE475A4FEA4804E6EE665A8C4282
:10B7E000B8BF0C46A6EE267AA6B20121F8EEE77A9B
:10B7F000A5F8046167EEA67AC5ED3D5A85ED3E7A5F
:10B80000C5ED3F7A83F8941A002A00F0D680DDED6A
:10B81000017A9FED710AF8EE677AA4B280EE270AEA
:10B820004EF088FB6400B0FBF4F4012CB8BF012497
:10B83000E4B2B0FBF4F39BB2074685F8084100EE92
:10B84000103ABBEEED0A85ED430A4EF073FB634BF5
:10B85000DFED636AB8FBF0F0A3FB0737FF0807EEE4
:10B86000907AF8EEE77A022886EEA77AB8BF02202F
:10B870005C4985F8100100239FED5B1A9FED5B6A20
:10B88000DFED5B1ADFED5B5A9FED5B2ADFED5B2A94
:10B890009FED5B3ADFED5B3A9FED5B4A85ED457AC4
:10B8A00007EE903AB8EEE77AF0EE467AE7EE017AE4
:10B8B000FDEEE76A16EE902A2032402A7AD8B4EEDE
