:020000040800F2
:10000000F0FF001009BB05080DE50008C19C0408BD
:10001000A9BB0508A9BB0508A9BB0508000000008D
:1000200000000000000000000000000009E50008DA
:1000300005E500080000000001E50008B58D040892
:10004000A9BB0508A9BB0508A9BB0508A9BB0508EC
:10005000A9BB0508A9BB05089DAD0408C9AE0408E5
:100060008DAE040851AE040815AE040891A305082E
:1000700081A3050871A3050861A305084DA3050820
:1000800039A3050825A30508A9BB0508A9BB0508D0
:10009000A9BB0508A9BB0508A9BB0508D9AD04087B
:1000A000AD760408357704089D7604085D7704086A
:1000B000257704081577040805770408A9BB050807
:1000C000A9BB0508A9BB0508A9BB0508A9BB05086C
:1000D000A9BB05084D900408A9BB0508918F040829
:1000E00061AD0408A9BB050825FC00088D7604084D
:1000F000BD7604087D760408E576040811A305089A
:10010000A9BB0508A9BB0508F5760408A9BB050825
:10011000D58E0408A9BB0508098E0308F58D0308D0
:10012000FDA20508E9A20508D5A20508C1A2050897
:10013000ADA20508A9BB0508A9BB0508A9BB050810
:10014000A9BB0508A9BB0508A9BB05088DDE0008E9
:1001500099A2050885A2050871A20508198E040850
:10016000A9BB0508A9BB0508A9BB0508A9BB0508CB
:10017000A9BB0508A9BB0508A9BB0508A9BB0508BB
:08018000A9BB0508A9BB050895
:08018800B8B6050001000000FB
:100190000E02010002000000B8580020185900208B
:1001A00000000000E0080008130201000400000045
:1001B0006C2200201C59002000000000E20800080A
:1001C0000D1001004C000000A45700202059002011
:1001D0000000000041CF0308040008008000000078
:1001E000E45600206C5900200000000000000000D0
:1001F00009020100010000008C560020EC5900208B
:1002000000000000E6080008FB01010001000000FA
:1002100030560020F05900200000000025DF0408BF
:10022000FC01010009000000FC540020F4590020EA
:100230000000000035DF0408F7010100060000009F
:10024000F0540020005A002000000000E8080008D8
:10025000F901010004000000EC540020085A0020BD
:1002600000000000615504080A8001002800000019
:10027000C45400200C5A002000000000C9F40108FA
:10028000160215003F000000AC2E0020345A00205A
:1002900000000000B5DE040834000100100000007A
:1002A000F0530020745A0020000000005587020817
:1002B0001102010008000000C8530020845A0020E9
:1002C00000000000EE080008121201000400000007
:1002D000C05300208C5A002000000000F6080008DF
:1002E00018200100320000008C530020905A00209A
:1002F0000000000091D90408061001001C00000055
:10030000902E0020C45A00200000000051DF040895
:10031000FD010100210000009C520020E05A002055
:1003200000000000B7540408122001001100000072
:100330001C500020045B002000000000FA080008A8
:10034000000201000B000000584D0020185B002047
:1003500000000000E9D80408FF11010006000000B9
:10036000044D0020245B002000000000B1D80408E8
:10037000081203000F000000104D00202C5B00202D
:100380000000000009D90408FA0101000300000080
:10039000D04600203C5B002000000000CDD80408BF
:1003A000020201000300000084260020405B0020C0
:1003B00000000000000000000C020100040000002A
:1003C00034260020445B002000000000F1D804081F
:1003D000110001000C000000463B0020485B00209B
:1003E0000000000099CF0308FE0101001400000086
:1003F000B83A0020545B00200000000081D80408B7
:10040000F5810100680000001C8B00209C920020F8
:1004100000000000C7850108232001001000000033
:10042000688E00200493002000000000DDF5010824
:10043000FD070100760000002492002014930020A4
:1004400000000000F96C01080B3001001A000000E8
:10045000508C0020BC930020000000000C09000814
:100460001F30010024000000188C0020D8930020C9
:100470000000000028090008050201000400000037
:10048000308E0020FC930020000000004C09000882
:10049000030101000A000000968B00200094002058
:1004A000000000001909010801010100040000001A
:1004B00090A50020B8AC0020000000000000000063
:1004C000000101000400000088A50020BCAC002051
:1004D00000000000500900080201010003000000B4
:1004E00084A50020C0AC00200000000035530308A4
:1004F000220201001C0100005CAA0020C4AC002004
:100500000000000095DB0408010201000B00000060
:100510009CA50020E0AD002000000000D9D8040810
:100520001B02010010000000F8A80020ECAD002024
:100530000000000071D904081B1001000C0000002D
:1005400094950020FCAD00200000000061860108A9
:1005500021020100F00000001494002008AE0020E9
:10056000000000002D85010823120100100000008A
:1005700018A90020F8AE002000000000540900086F
:10058000371001002E00000068A8002008AF0020EE
:1005900000000000640900081610010006000000B9
:1005A00004A6002038AF00200000000092090008D7
:1005B0002F1001002200000094AC002040AF00206A
:1005C00000000000980900081E000100090000005A
:1005D000C0A5002064AF002000000000BA09000898
:1005E0000510010006000000DCA5002070AF00200F
:1005F00000000000C40900082C00040010000000E6
:100600003CBF00202CBF002000000000990702081A
:100610002B0012002400000070BF00204CBF0020FF
:10062000000000006D070208292014007800000077
:100630009CBD002094BF00200000000000000000CE
:10064000F62101000C00000040BC00200CC000207E
:1006500000000000CC0900081C0202001C00000081
:10066000C8BC00205CC0002000000000D5DA0408EF
:10067000140001000400000000BC002078C000202D
:1006800000000000D8090008012001000C00000053
:100690007CB200207CC0002000000000DC090008C3
:1006A0000C200600CC0000005CB1002088C00020B7
:1006B00000000000F95203080EF003009E01000044
:1006C00098AF002054C1002000000000A982020859
:1006D00013000100040000000CB70020F4C2002049
:1006E00000000000E8090008031201003D000000BE
:1006F00028CC002068CC002000000000EC09000895
:1007000025201E002C0100008CC90020A8CC002050
:1007100000000000000000001010010002000000B6
:1007200074C90020D4CD0020000000002A0A00086F
:10073000F82101000600000054C90020D8CD002097
:10074000000000002C0A000819000100050000004C
:1007500030C80020E0CD002000000000320A000870
:100760001A0001000E000000B8C70020E8CD0020EC
:1007700000000000380A0008203201000A000000D2
:1007800084C60020F8CD0020000000008582020809
:1007900015001000700000001CC4002004CE0020D2
:1007A00000000000000000002A00080060000000B7
:1007B00070C8002074CE0020000000005D82020896
:1007C00029020100400000007CD1002074D20020EA
:1007D00000000000460A00080A02010014000000A0
:1007E000DCD10020D4D20020000000009D57030877
:1007F000030001000100000038D20020E8D20020F0
:100800000000000000000000020001000C000000D9
:10081000F8D5002088D6002000000000000000006D
:10082000280204000400000030D70020DCD800209B
:10083000000000006DD90408270204000400000035
:100840002CD70020E0D800200000000061D9040867
:100850001F020800100000001CD70020E4D8002070
:100860000000000059D804081A0201003C000000F2
:10087000DCD60020F4D80020000000001DDA0408B7
:100880003810010001000000A0D6002030D900205F
:1008900000000000860A0008270001000400000094
:1008A00058D90020B8D9002000000000880A0008AC
:1008B0001002010001000000D0F70020CCF700205A
:1008C000000000008C0A00081D0202000600000063
:1008D000C4F70020D4F70020000000000000000052
:1008E000000000000135290024010000D80E1E0080
:1008F000000001010101FFFFFFFF000000010000F7
:1009000005434C523400000800020000AE014A01C9
:100910005E012C0164010100000001000A019A013E
:10092000001E0A000002000000000000000100009C
:1009300000050000010203000000000000000000AC
:100940000000000000000000008007000000000020
:10095000FA0000000000000000000000000000009D
:100960000000000020003200C800D00796001400EC
:10097000320028004C0440060005500014000F000F
:10098000080064000100000005000A000000F401F6
:100990009600C409000019000000000000000000DB
:1009A0000000000000000000000000000000000047
:1009B0000000000000000000000000050100000031
:1009C0000000000020000201000000000000000004
:1009D000010000000202000003000023E80364009D
:1009E000040A000114001E0008004430000000004A
:1009F00000000000000000000000000000000000F7
:100A000000000000000000000000000000000000E6
:100A100000000000000000000000000000000000D6
:100A20000000000000000000010000050101F401C9
:100A300014000000280100007E05EA05B40532001C
:100A4000E803D007000000000000000000000000E4
:100A50000000000000000000000000000000000096
:100A60000000000000000000000000000000000086
:100A70000000000000000000000000000000000076
:0D0A80000000000000000000200300000046
:100A8D000403090412010002EF02014083045632EF
:100A9D0000020102030100001201000202020040E7
:100AAD008304405700020102030108000060024068
:100ABD00106002400000000000000000000B00006C
:100ACD000000000000000000000000000060024077
:100ADD00286002400100000000000000060C00002C
:100AED000000000000000000000000000060024057
:100AFD00406002400200000000000000100D0000E8
:100B0D000000000000000000000000000060024036
:100B1D00586002400300000000000000160E0000A7
:100B2D000000000000000000000000000060024016
:100B3D00706002400400000000000000200F000063
:100B4D0000000000000000000000000000600240F6
:100B5D008860024005000000000000002610000023
:100B6D0000000000000000000000000000600240D6
:100B7D00A0600240060000000000000030110000DF
:100B8D0000000000000000000000000000600240B6
:100B9D00B86002400700000000000000362F000082
:100BAD000000000000000000000000000064024092
:100BBD00106402400000000000000000003800003A
:100BCD000000000000000000000000000064024072
:100BDD0028640240010000000000000006390000FA
:100BED000000000000000000000000000064024052
:100BFD00406402400200000000000000103A0000B6
:100C0D000000000000000000000000000064024031
:100C1D00586402400300000000000000163B000075
:100C2D000000000000000000000000000064024011
:100C3D00706402400400000000000000203C000031
:100C4D0000000000000000000000000000640240F1
:100C5D0088640240050000000000000026440000EA
:100C6D0000000000000000000000000000640240D1
:100C7D00A0640240060000000000000030450000A6
:100C8D0000000000000000000000000000640240B1
:100C9D00B864024007000000000000003646000066
:100CAD000000000000000000000000007D000000BA
:100CBD0001820008FD810008F9810008ED8100081E
:100CCD00E9810008F5810008F1810008559F0008B1
:100CDD00B58B0008A18D0008ED8E0008698F000806
:100CED00059100082D830008198300081183000861
:100CFD00010000000000803F812C010885310108B2
:100D0D00FD2C01089102010875040108A1020108DA
:100D1D00BD02010869020108590201080000000026
:100D2D000000000009022000010104C03209040086
:100D3D000002080650050705810240000007050165
:100D4D000240000009026400030100C032090400E2
:100D5D0000010300000009211101000122360007E6
:100D6D0005830309000A080B0102020201000904B0
:100D7D0001000102020100052400100105240100FB
:100D8D00020424020205240601020705820308005D
:100D9D00FF09040200020A000000070501024000DD
:100DAD00000705810240000009024300020100C056
:100DBD0032090400000102020100052400100105A2
:100DCD002401000104240202052406000107058206
:100DDD00030800FF09040100020A000000070501D5
:100DED00024000000705810240000000FF000000E6
:100DFD0000FF0000000000000000AA5507010000E0
:100E0D0001AA5505010000007EFF080084F60508C3
:100E1D00FF1FFF1F05010905A101A10005010930F3
:100E2D000931093209330935093409360937158174
:100E3D00257F7508950881020509190129081500F6
:100E4D002501950875018102C0C00000090222002C
:100E5D00010100E032090400000103010200092133
:100E6D00110100012236000705830309000A000065
:100E7D000000000001020304010203040607080933
:100E8D002D202D2D202D2D2D2D202D2D2D2D000006
:100E9D00000000000000000000000000000000AA9B
:100EAD00550B010000AA5505010000AA55090200C5
:100EBD000000AA5503009F0001000000C0120000B1
:100ECD00B4930020000000008C930020000000006F
:100EDD0064730608E072060800000000BD530308A5
:100EED00A0860100040000000000000000000000CA
:100EFD0000000000000000000000000000000000E5
:100F0D0000000000000000000000000000000000D4
:100F1D00647306086C730608000000003161040854
:100F2D00E8030000040000000000000000000000C5
:100F3D0000000000000000000000000000000000A4
:100F4D000000000000000000000000000000000094
:100F5D007473060800000000000000003D550308F2
:100F6D007D000000FF0000000000000000000000F8
:100F7D000000000000000000000000000000000064
:100F8D000000000000000000000000000000000054
:100F9D0018CC060800000000000000005163030893
:100FAD007D000000FF0000000000000000000000B8
:100FBD000000000000000000000000000000000024
:100FCD000000000000000000000000000000000014
:100FDD0004860608000000000000000025980308A4
:100FED007D000000FF000000000000000000000078
:100FFD0000000000000000000000000000000000E4
:10100D0000000000000000000000000000000000D3
:10101D007C7306080000000000000000B9570408AA
:10102D00E8030000030000000000000000000000C5
:10103D0000000000000000000000000000000000A3
:10104D000000000000000000000000000000000093
:10105D00807306080000000000000000D5EC0208B7
:10106D001027000003000000000000000000000039
:10107D000000000000000000000000000000000063
:10108D000000000000000000000000000000000053
:10109D002CC80608000000007D030208759D040899
:1010AD005F76000005000000000000000000000059
:1010BD000000000000000000000000000000000023
:1010CD000000000000000000000000000000000013
:1010DD00BCCB06080000000000000000FDC10408A4
:1010ED0010270000010000000000000000000000BB
:1010FD0000000000000000000000000000000000E3
:10110D0000000000000000000000000000000000D2
:10111D008C73060800000000000000005D510408FB
:10112D00E8030000050000000000000000000000C2
:10113D0000000000000000000000000000000000A2
:10114D000000000000000000000000000000000092
:10115D00987306080000000000000000F159030814
:10116D00204E000003000000000000000000000001
:10117D000000000000000000000000000000000062
:10118D000000000000000000000000000000000052
:10119D00A87306080000000000000000D9570308DE
:1011AD00204E0000030000000000000000000000C1
:1011BD000000000000000000000000000000000022
:1011CD000000000000000000000000000000000012
:1011DD00B87306080000000000000000B55D0408AB
:1011ED00400D03000300000000000000000000009F
:1011FD0000000000000000000000000000000000E2
:10120D0000000000000000000000000000000000D1
:10121D00C87306080000000000000000A9190408AA
:10122D001027000001000000000000000000000079
:10123D0000000000000000000000000000000000A1
:10124D000000000000000000000000000000000091
:10125D000C730608000000000000000095920108C4
:10126D001027000003000000000000000000000037
:10127D000000000000000000000000000000000061
:10128D000000000000000000000000000000000051
:10129D00D073060800000000000000004150040853
:1012AD00A861000001000000000000000000000027
:1012BD000000000000000000000000000000000021
:1012CD000000000000000000000000000000000011
:1012DD00DC7306080000000000000000E5CF0308E5
:1012ED00A00F000001000000000000000000000041
:1012FD0000000000000000000000000000000000E1
:10130D0000000000000000000000000000000000D0
:10131D00E8730608000000000000000005E7010862
:10132D001027000001000000000000000000000078
:10133D0000000000000000000000000000000000A0
:10134D000000000000000000000000000000000090
:10135D00F473060800000000000000005DCE0308D5
:10136D00A00F0000010000000000000000000000C0
:10137D000000000000000000000000000000000060
:10138D000000000000000000000000000000000050
:10139D00007406080000000000000000E5C0010810
:1013AD001A410000010000000000000000000000D4
:1013BD000000000000000000000000000000000020
:1013CD000000000000000000000000000000000010
:1013DD000474060800000000000000005109010817
:1013ED0010270000010000000000000000000000B8
:1013FD0000000000000000000000000000000000E0
:10140D0000000000000000000000000000000000CF
:10141D00F472060800000000000000006D320208A2
:10142D0050C300000100000000000000000000009B
:10143D00000000000000000000000000000000009F
:10144D00000000000000000000000000000000008F
:10145D00107406080000000000000000891101084A
:10146D00400D03000000000000000000000000001F
:10147D00000000000000000000000000000000005F
:10148D00000000000000000000000000000000004F
:10149D00187406080000000000000000FDCE0308CF
:1014AD00400D0300000000000000000000000000DF
:1014BD00000000000000000000000000000000001F
:1014CD00000000000000000000000000000000000F
:1014DD00207406080000000000000000E9D001089B
:1014ED0050C30000030000000000000000000000D9
:1014FD0000000000000000000000000000000000DF
:10150D0000000000000000000000000000000000CE
:10151D002C74060800000000000000003D92030836
:10152D0040420F000000000000000000000000001D
:10153D00000000000000000000000000000000009E
:10154D00000000000000000000000000000000008E
:10155D00387406080000000000000000BDCF03082D
:10156D0050C300000000000000000000000000005B
:10157D00000000000000000000000000000000005E
:10158D00000000000000000000000000000000004E
:10159D000100000000000100E00101011D790108BA
:1015AD000000000000000000A8F80508FFFFFFFF85
:1015BD0008017F00FF0101FFFFFFFFFF0DDD0108A7
:1015CD0000000000000000008CFD050835E001085A
:1015DD00000000000000000044FD05082D202D2D09
:1015ED00202D2D2D2D202D2D2D0000000000000073
:1015FD0000000000000000000000000000000000DE
:10160D00000000000000000000FD0508DC8D00203A
:10161D009CFF2C01000000000CAC0020E0150C1705
:10162D000000000012A900200200000038FD05088E
:10163D0078A5002088136F17010000007AA50020FF
:10164D0088136F17000000003658002000000000BE
:10165D0000000000345800200000000000000000D1
:10166D00325800200000000000000000305800201B
:10167D0000000000000000002E58002000000000B7
:10168D00000000002C5800200000000000000000A9
:10169D00C4050020000000000000000000A500208F
:1016AD000300000028FE050870A5002088136F17A1
:1016BD0001000000268E002088136F170000000027
:1016CD00D9790108000000000000000038FE05086F
:1016DD0013A90020010000008CFE0508288E0020B3
:1016ED000100000098FE05081E8E0020020000007B
:1016FD00A0FE050800000000000000000000000032
:10170D00ACFE0508C17901080000000000000000D2
:10171D0048FF050800000000000000000000000068
:10172D009CFF050800000000000000000000000004
:10173D000C0006087CA500200200000044000608ED
:10174D00228E0020E0150C170000000024B40020AC
:10175D0078B400200100000000000000000000002F
:10176D00C1090208A0B70020000000000000000021
:10177D0000000000601606080000000000000000D8
:10178D00000000001817060800000000000000000F
:10179D0000000000C4160608D601FF00FFFFFFFF82
:1017AD00A90E02080000000000000000F015060858
:1017BD0001000000FA00000001000000010000001F
:1017CD0001000000000101010000000078B20020BE
:1017DD000000F4010100000076B200200000F401C9
:1017ED000100000074B200200000F40101000000AF
:1017FD0072B200200000F4010100000070B2002060
:10180D000000F401010000006EB200200000F401A0
:10181D00010000006CB200200000F4010100000086
:10182D0035F30108F9F20108000000007C020608FA
:10183D005CB20020053201006AB200206400F401A0
:10184D000100000068B200206400C409010000001E
:10185D005AB20020E803D0070100000058B2002062
:10186D00E803D0070100000056B20020E803D007BE
:10187D000100000054B200201E00B80B0100000052
:10188D0062B2002005000F000100000064B20020CC
:10189D0003000A000100000052B200201E00F401F6
:1018AD000100000066B200200200000008030608D7
:1018BD0050B2002014006400010000005EB2002050
:1018CD003200E803010000004EB200200000C80005
:1018DD000100000059B1002000C8010058B10020DE
:1018ED000050010057B10020005A010055B10020F1
:1018FD000200000014030608447D06084C7D06080E
:10190D00268D00200100C40900000000248D002058
:10191D000100C40900000000228D00200100C4094F
:10192D0000000000208D00200100C409000000000F
:10193D001C8D00200100C409000000001E8D002038
:10194D000100C409000000001A8D00200100C40927
:10195D0000000000188D00200100C40900000000E7
:10196D00BBA5002000C80100BAA5002000C80100D9
:10197D00B8A500200000FFFF0A000000B6A500205A
:10198D000100C80001000000B4A500203200307530
:10199D0032000000B2A5002005820500B0A5002090
:1019AD0005002C0105000000AFA50020055A05001B
:1019BD00ACA5002000FF0100AEA500200200000034
:1019CD0000100020AAA5002003000000D4FA05088D
:1019DD00ABA5002000FF0100ADA500200200000016
:1019ED0000100020A9A5002003000000D4FA05086E
:1019FD0089F2010819F20108000000002003060811
:101A0D008CB20020EE02CA08010000008AB200204C
:101A1D0000C801006400000089B2002000C8010068
:101A2D006400000088B20020020000002C040608AB
:101A3D0096A500200000803E0500000094A5002022
:101A4D0080C1803E050000008EA500200083007D32
:101A5D00050000008CA5002080C1803E050000001F
:101A6D0087A5002000FF010080A500206400F4017F
:101A7D00010000007EA500200400000038040608C7
:101A8D007DA50020020000004C04060887AF002051
:101A9D000D0000005804060884AF0020006401000A
:101AAD0082AF0020320010270A00000080AF002016
:101ABD000D000000580406087FAF00200D00000047
:101ACD00580406087EAF00200200000090040608AE
:101ADD000000000000000000000000009C0406084B
:101AED0092B200203E000000D404060890B20020FF
:101AFD000100FF7F010000008FB2002002000000F6
:101B0D00D005060889AF002003000000E005060897
:101B1D0088AF002003000000E005060846B1002054
:101B2D00000A010044B100200000E803010000009C
:101B3D0042B100200000E8030100000040B1002088
:101B4D000000E803010000003EB100200000E803A2
:101B5D000100000036B100200000E8030100000084
:101B6D003CB100200000E803010000003AB1002064
:101B7D000000E8030100000038B10020001401004E
:101B8D0054B1002002000000F005060852B10020FB
:101B9D000000F4010100000050B100200000F4012C
:101BAD00010000004EB100200000F4010100000012
:101BBD004CB100200000F401010000004AB10020EA
:101BCD000000A00F0100000048B100200000A00F90
:101BDD00010000003BB20020196401003AB2002060
:101BED0002000000FC05060838B20020E803D0070B
:101BFD000A00000036B20020006401000A00000057
:101C0D002BB20020006401002AB200200064010004
:101C1D0032B20020006401000A00000031B2002041
:101C2D00006401000A00000030B2002000640100D1
:101C3D000A00000035B2002000FF01000A0000007C
:101C4D0034B2002000FF01000A00000033B2002072
:101C5D0000FF01000A0000002FB2002001FF01006B
:101C6D000A0000002EB2002001FF01000A00000052
:101C7D002DB2002001FF01000A00000092AF0020EC
:101C8D000000F4010100000090AF00200000A00F43
:101C9D00010000008EAF00200000A00F0100000029
:101CAD008CAF00200000A00F010000008AAF0020C3
:101CBD000000A00F0100000021B7002000C80100A6
:101CCD0020B70020006401001FB700200064010050
:101CDD001EB70020006401001DB700200064010044
:101CED001CB70020FF0801001BB700200164010094
:101CFD0081F1010845F10108000000000806060801
:101D0D0024B700200132010023B70020010000009C
:101D1D007806060822B70020040000008006060899
:101D2D001AB700200064010018B700201400E80362
:101D3D000100000016B70020E80330750A0000000E
:101D4D0014B7002000C8010013B7002000C801001F
:101D5D0012B7002000C8010011B7002000320100A9
:101D6D0026B70020004B010025B70020040000001D
:101D7D009406060810B70020006401000A00000058
:101D8D0034B700200000D007010000002FB700205D
:101D9D0000C801002EB7002000C801002DB700209B
:101DAD0000C8010032B700200000D007010000007C
:101DBD002CB7002000C801002BB7002000C801007F
:101DCD002AB7002000C8010030B700200000D0075E
:101DDD000100000029B7002000C8010028B700202D
:101DED0000C8010027B7002000C801006DEF0108F1
:101DFD0055EF010800000000A80606087BAF002083
:101E0D00005A01007AAF002000C8010078AF002011
:101E1D00E803D007010000000000000000000000F2
:101E2D00010A020844070608434C524143494E47F4
:101E3D0046340000A8A5002000030100A7A500203E
:101E4D0000030100357C0108E97B0108000000005A
:101E5D008C070608A97B0108617B010800000000C2
:101E6D0028080608EDEE0108D9C901080000000098
:101E7D00A808060898A5002001030100F5F3010844
:101E8D00C9F3010800000000000C0608E57A0108FE
:101E9D00997A010800000000700C06087DEF01081A
:101EAD00AD0A0208000000000C0D06085D110208C5
:101EBD0021F4010800000000B40D0608BDEF010873
:101ECD000000000000000000400E060875F001083B
:101EDD001DF0010800000000A40E060809F101081C
:101EED00CDF00108000000004C0F0608F57B02083C
:101EFD00BDF1010800000000D80F06084DB200200A
:101F0D0001060100F5EF0108CDEF0108000000000A
:101F1D00D41006082D7B02085D0B0208000000009E
:101F2D00441106083D7C0208210C02080000000047
:101F3D00941206084CB20020010301002DEF010898
:101F4D0005EF01080000000068130608957C0208E3
:101F5D000000000000000000CC130608317B0108D2
:101F6D0095BF0108000000004C1406080000000099
:101F7D000000000000000000D8140608F1F101086F
:101F8D00990C02080000000048150608FFFFFFFF2E
:101F9D000000803F00000000000000000000000075
:101FAD000000000000000000000000000000000024
:101FBD0000000000000000000000803F0000000055
:101FCD0000000000000000000000803F0000000045
:101FDD0000000000000000000000803F0000000035
:101FED000000000000000000010000000000FA43A6
:101FFD000000FA430000803FFFFFFFFFFF000000DD
:10200D00B91B0408000000000000000000000000E3
:10201D0000000000C4D200200800000000000000F5
:10202D00B4D200200800000001000000A00F000045
:10203D00B80B00000102FFFF01000000D92B0108C1
:10204D0085030108712B01080000000055020108ED
:10205D0059340108C12A01080D27010800000000AC
:10206D000000000015020108118200080582000819
:10207D00698E0008858E00084D8E0008318E00088F
:10208D00158E0008912B010861030108C52A01086E
:10209D00000000002D02010811270108952A0108F2
:1020AD006D2601080000000000000000210201085B
:1020BD00FFFF000020C8060800000802050303000A
:1020CD000000000028C806080100080205040300EE
:1020DD0000000000C49A06080200FE010110030072
:1020ED0000000000AC80060803001402000300008D
:1020FD000000000030C8060804001F02020008009E
:10210D000000000038C8060805001F020201080083
:10211D0000000000FFFFFFFF1A0300000000000099
:10212D0000000000000000000000000000000000A2
:10213D000000000004030904120100020000004029
:10214D00830420570002010203010000954C05088D
:10215D00C14C0508854C0508493F0508354C050857
:10216D00E14B0508393F050844190020D144050805
:10217D00513F05084D3F0508453F0508F94605083F
:10218D00413F05083D3F0508B4660608F5330108D3
:10219D0041030108D53201080000000000000000D5
:1021AD006D2A01087D2901080000000000000000D3
:1021BD000000000009020108E93F0508DD3F0508A0
:1021CD00114D05082D4D0508953F0508F54C0508E1
:1021DD00D94C0508000004010000000000000002B9
:1021ED0010000000070000001F0000001C00000090
:1021FD001F0000001E0000001F0000001E00000058
:10220D001F0000001F0000001E0000001F00000046
:10221D001E0000001F0000000068214CFF0100009F
:10222D00F4010000FF0000005470060800000000DB
:10223D0000000000010203040607080900800202E5
:10224D001F00000053544D202020202050726F6439
:10225D00757420202020202020202020302E303189
:10226D0001000000701900200000000000000000B7
:10227D000000000000000000000000000000000051
:10228D000000000000000000000000000000000041
:10229D000000000000000000000000000000000031
:1022AD000000000000000000000000000000000021
:1022BD000000000000000000000000000000000011
:0822CD00000000000000000009
:082800000000000000000000D0
:1080000070B4C3080D4CE25C00F00706B24004EB0C
:10801000D004D2B20020C6F108038B4228BF0B4621
:10802000C3F108052A419840C91A40EA02004FF0FE
:10803000000614F8012FEED170BC7047101A002012
:10804000084AD2E91C31994209D0D118013391F87C
:1080500078100170C3F30A031367012070470020F2
:10806000704700BFD0190020064AD2F87838D2F8FD
:108070007C28934294BF4FF400600020013B9B1A80
:1080800018447047D0190020012380F85130704700
:1080900007B501A8FFF7D4FF0028FAD09DF8040027
:1080A00003B05DF804FB044BD3E91C03984288BF7E
:1080B00003F50063181A7047D0190020012070479B
:1080C000024BC3F88028C3F884187047D0190020E9
:1080D000024BC3F88828C3F88C187047D0190020C9
:1080E0007047704730B4124DD5E91C239A4286BFC1
:1080F00003F50064A21A9A1A0A44B2F5006F12D866
:10810000A1B101444A1E013810F8014FE91882421A
:1081100003F1010381F87840C3F30A03F4D16B67DC
:10812000002030BC7047022030BC70470846F8E79A
:10813000D0190020212838B50C4605D022282ED091
:10814000202813D0002038BD0029FBD0072AF9D100
:108150001A4BD3F8900893F8941893F8952893F84D
:108160009638206021716271A371EBE70029E9D094
:10817000072AE7D1114DD5F884381BB10968D5F825
:1081800080089847206821796279A379C5F890081A
:1081900085F8941885F8952885F89638D2E700294F
:1081A000D0D0022ACED1054AD2F88C38002BC9D0C3
:1081B0000988D2F888089847C4E700BFD019002082
:1081C000024B0020C3F89808704700BFD019002068
:1081D000044B00200522C3F89828C3F88C08C3F884
:1081E00084087047D0190020704700BF704700BF57
:1081F000704700BF704700BF704700BF704700BFA7
:10820000704700BF042301480B807047880100209D
:1082100010B4074A074B92F89C08122403F1140289
:108220000C8001280CBF184610465DF8044B7047BF
:10823000D01900208C010020A0B182680D4B12B132
:1082400007229A7070471978DA6003294FF004000A
:108250000CBF80214FF48071C3E901111A611A75B6
:1082600098707047034B41F2E47101225A545A70DE
:10827000704700BF686B00200378022B10D00069A4
:1082800008B9012070470C4B1B78032B0EBF0B4B1A
:1082900080B24FF6F773984294BF002001207047D8
:1082A0000549436841F650028A58B3EB422F2CBF70
:1082B00001200020704700BF686B0020F7FFFF0F10
:1082C0000378022B14D030B4104A4368006941F699
:1082D000480402F5C2511559096841F63C042B4087
:1082E00012595B0A023801FB0030104430BC704761
:1082F000064B426841F6340141F63000595818588F
:1083000000EB410000EB5220704700BF686B00207B
:1083100000487047F8190020034B93F82400032805
:1083200094BF002001207047D0190020034B93F820
:108330002400003818BF0120704700BFD01900206A
:1083400010B5084CE26D13899907FCD513891B06FB
:10835000F9D40A2040F06CFB206EBDE8104041F0DB
:1083600087BC00BFD01900202DE9F0416E4C0023DE
:108370004FF4F0722021064604F6A40084F8A038D9
:1083800056F075FB04F684204FF4F072202156F06D
:108390006EFB94F8650C10B194F8662C1AB90025A0
:1083A0002846BDE8F08141F07DF90746C4F8700C1D
:1083B00041F04CFC05460028F1D00FB12323FB808F
:1083C000384609213FF004FFD4F8700C41F050FC0E
:1083D00094F8663C013B5BB25A1C00F09380022B80
:1083E00000F3908004EB0313D3F8740C4F4FC4F8E0
:1083F0006C0C0223102184F8683C4EF055FF798DF7
:108400004B4843F0E7FBD4F8700C41F02BFCFF2104
:108410008C204EF0EFFF8046D4F8700C41F028FC21
:10842000D4F86C0C04214EF03FFFB8F11B0F05D0BF
:10843000D4F8700C20213FF0CBFEB0E7D4F8703CAC
:10844000012284F8A0280BB12322DA80798D3848E4
:1084500043F0C0FBD4F8700C41F004FC40210A202A
:108460004EF0C8FFFF218A204EF0C4FFC0F38013F6
:10847000D4F8700C84F8A43C41F0FAFBD4F86C0CEE
:1084800004214EF011FF94F8643C012B3FD0022BE5
:108490003AD0002B44D094F8A53C182B08D194F87E
:1084A000A42C7B8DA4F8A86CA4F8AA2CA4F8AC3C4E
:1084B000798D1F4843F08EFB798D1D4843F08AFB70
:1084C000D4F8700C41F0CEFB022100204EF092FF58
:1084D000D4F8700C41F0CCFB0421D4F86C0C4EF0B5
:1084E000E3FE94F8B52C94F8B63C94F8B41C84F8E8
:1084F000B01CC2F12002C3F1100384F8B72C84F839
:10850000B83C4DE7002071E708237B85C3E7002EC8
:10851000FAD094F8A43C002B14BF08231023F4E7EE
:1085200010237B85B7E700BFD01900208801002009
:1085300038260020F8B51A4C94F8B93C002BFBD132
:1085400059B301444E1E451ED4F87C28D4F878183F
:1085500015F8017F531CC3F30A038B422CBF4FF461
:1085600000600020C91A22440144012982F8BC7C21
:10857000C4F87C380FD1012040F078FBD4F878386B
:10858000D4F87C188B4294BF4FF4006200225B1A2F
:108590001344012BEFD0B542D6D10020F8BD00BF67
:1085A000D01900200A4B0846D3F8981810B569B1C5
:1085B000D3F89838052B09D1064C002AD4F8C433D7
:1085C00004DD1146FFF7B6FFD4F8C43310BD00BF79
:1085D000D0190020C82A002010B590F850100023B0
:1085E00080F8503089B10C4CD4F898287AB1D4F87E
:1085F0009828052A0DD1094C3C30D4F8C433FFF734
:1086000099FFD4F8C433012010BD0120FCE71046C7
:10861000FAE71846F8E700BFD0190020C82A002062
:10862000002280F85120D7E790F85020531C0244D4
:10863000DBB280F8503082F83C1090F851200AB13B
:10864000132B00D9C8E770472DE9F04FCE4DDFF866
:108650006883DFF8709384460F4616460FCD444674
:108660002DED068B0FC40FCD0FC495E807008BB01E
:1086700099F8CA33029684E80700CDE906C7042BAF
:1086800000F25C81DFE813F0BA015A0155010500E0
:10869000CA019FEDBE8ADFEDBE8ABE49C8F81C1034
:1086A000BD49BE4BBE4AC8F818100299002918BF30
:1086B000134638EE887AF5EE006A86EE87AAC8F887
:1086C0002430B84FB84B03930026DFEDB87A9FED06
:1086D000B89A28EE278AF0EE679A079BB34200F01B
:1086E0002281039B13F8014B039306F1010B5FFA00
:1086F0008BF2002C00F09581DFF8CCC2002303E060
:108700000133152B00F08D8103EB43015D001CF854
:108710000100A042F4D14944049291F8E5130029E4
:1087200000F0878120463FF023FA036805938246D4
:1087300018463FF009FA9AF805103FF05DFB90F8F3
:1087400000E0BEF1000F40F06C8109EB0500250947
:108750000321013D049A059B80F825248D4280F871
:10876000241404F00F0C00F23581874800EB45001B
:10877000808D40FA0CF414F0010400F03D810124D6
:1087800004FA0CF3013B1840049253F045F87E4B79
:10879000DFF838C2049A1D44032195F834307A4D2D
:1087A00018440CEBC0037B619971DA715CF83000FE
:1087B0009AF8082000F13F4101F57E0105EB912177
:1087C00091F8381001F01F054909032904FA05F44E
:1087D00000F00D81042900F00581022900F0FD80E0
:1087E0009B880893B3FA83F3C3F11F03C3F3CC014F
:1087F00000EB810103F007030C6A9B000F259D40ED
:1088000024EA05040C620C6A02FA03F323430B62A8
:10881000022308A909930BF067F9DAF80030029AED
:10882000002A00F0A380B9F8C82300EE102AB8EEA1
:10883000C00AFCEEC07A17EE901A5E4A934200F02E
:108840008280A2F5806293427DD002F580429342FD
:1088500079D002F58062934275D002F5806293422E
:1088600071D0D9F8B82550084FF6FF73B0FBF1F27C
:108870001A44120CB0FBF2F20298002866D0B2FB48
:10888000F1F199F8CA0304288BB264D007EE902A5C
:10889000F8EE676A66EE887A29EE677A99F8CB0374
:1088A00006990091A6EEA87A019051463846C7ED88
:1088B000027A87ED037A2FF091FF002E61DD7B684D
:1088C000D8F83820934200F08380012E59D0D8F890
:1088D000502093427CD0022E53D0D8F86820934287
:1088E00076D0032E4DD0D8F88020934270D0042E3D
:1088F00047D0D8F8982093426AD0052E41D0D8F8B6
:10890000B020934264D0062E3BD0D8F8C820D31AAA
:1089100018BF01235E460122082E3B747A7407F1CA
:1089200018077FF4DAAE24480BB0BDEC068BBDE827
:10893000F08F9FED228AF0EE488AAEE69FED208A06
:10894000F0EE488AA9E6D9F8B8058DE799F8CA0388
:10895000042819469AD107EE901A07EE102AF8EE6D
:10896000677AF8EE476A67EEA97A95E7B0EE4A0AA9
:10897000049353F051FFFCEEC07A049B17EE901A5B
:108980005BE70123C6E700BF10EB0508ACC5A737BE
:10899000ACC5A736115503084D550408D54E03083C
:1089A0004155040848000010972E00206F12833AAA
:1089B00000007A44000401401400001028293038D7
:1089C0006F120339C82A0020AC2E0020182F002077
:1089D00000239FE7C7F814E021E717494D6C2C43AB
:1089E0004C64FDE614490D6B2C430C63F8E6124908
:1089F0000D6C2C430C64F3E67C6110E79FED0F8A4D
:108A00000F4BC8F8183000230E4A06930123029337
:108A1000C8F81C200C4BF0EE488A4AE69FED0B8A02
:108A2000EEE70B4A084BC8F81C20C8F82430002099
:108A30007AE70B68FFDE00BF003802406F12833A0E
:108A40004D55040811550308415504080000000065
:108A5000CD510308F8B5104ED6F8B8450546006864
:108A60000F4664080AF044FFB4FBF7F1B1F5803F0C
:108A700003D3012CFAD96408F6E72246284689B2C6
:108A80003EF0F4FE054BC6F8203E28460449BDE8FA
:108A9000F84000223EF06ABEC82A0020B5E2010874
:108AA000E838002008B5124BD86D828940F2E933CE
:108AB0000289013B12F0020F9BB212D0FF23838187
:108AC00040F2E9330289013B12F0010F9BB202D060
:108AD0008089C0B208BD002BF4D143F0C5F8C0B204
:108AE00008BD002BE4D143F0BFF8C0B2F8E700BFE7
:108AF000D019002070B505460E460924FFF7D2FFB5
:108B0000FF2803D1013CF9D1012070BDFE2801D01E
:108B1000022070BD064933462A46C86D002151F037
:108B20003FFCFFF7BFFFFFF7BDFF002070BD00BF98
:108B3000D019002010B51D4C00232362FFF7B2FFAF
:108B4000E06D828940F2E9330289013B12F0020FA5
:108B50009BB217D0FD23838140F2E9330289013BA8
:108B600012F0010F9BB212D08389FFF79BFFFF2801
:108B700012D1FFF797FFFF280ED10423022084F8BB
:108B8000243010BD002BDFD143F06EF8EDE7002B51
:108B9000E4D143F069F8E8E7054BD3F8C4336361E7
:108BA0000923002084F8243010BD00BFD019002014
:108BB000C82A0020F8B543794B4C002B14BF012282
:108BC000002284F8502002D184F82430F8BD427885
:108BD000531E5BB25E1C054677D0022B75DC04EB9E
:108BE0000310D0F8746CE665022084F858002878E9
:108BF000002854D1ED78002D45D14FF48071E06DFF
:108C000025664EF051FB4FF47A7040F02FF8206E3D
:108C100041F02EF8E06D0A2683894FF6FF714FF47C
:108C20007A73FF270289950719D587814FF47A73E4
:108C30000289D20703F1FF3521D5013E8289F1D1A6
:108C40002A4B0289920712D5028912F080020ED1B6
:108C5000274B2276D3F8C43363610123B4E7013B89
:108C60009BB28B42DED142F0FFFFE06DE8E7013BB3
:108C7000E7D1227E84F82430531C2376F8BDABB2B2
:108C80008B42D5D1EFE7284640F00CFD054608B1F0
:108C90001E23C380092128463FF09AFAADE703EB73
:108CA00083030B440020114693F9032040F0B4FBEA
:108CB000064630B1406850F03DF9B36884F86C3036
:108CC00028B9002384F8643094E700268BE7094A2A
:108CD000431E02EB431317210022A36650F03CF918
:108CE000012384F8643085E7D0190020A1860100B3
:108CF000C82A0020B401002070B582B040F04006C0
:108D00000C0E05460A0A080C95238DF801408DF8D3
:108D100004108DF800608DF802008DF803208DF8A6
:108D200005300824FFF7BEFEFF2802D0013CF9D130
:108D30001DBB1A4BD86D062583896E464FF47A7396
:108D40004FF6FF713EB316F8012B0489013BA407CF
:108D50009BB215D593B283814FF47A730489E407EB
:108D600003F1FF3211D5013D8289EBD10924FFF7D0
:108D700099FEFF2802D1013CF9D1FF2002B070BD5D
:108D80008B42E2D142F070FFF0E793B28B42E5D123
:108D900042F06AFFEAE7FF22D7E700BFD0190020C0
:108DA0002DE9F843194C94F82460042E05468946B1
:108DB00090461F4608D0082E02D00020BDE8F88358
:108DC000FFF7B8FE0228F8D1206E40F04BFFA37EDB
:108DD0009BB969021120FFF78FFFA0B90C4BC4F8B3
:108DE0000090D3F8C42365600523C4E9038762615A
:108DF00084F824300120BDE8F88329461120FFF7CC
:108E00007BFF0028EAD0FFF79BFAD6E7D0190020B5
:108E1000C82A002010B5044C04480A46214609F02F
:108E2000A9FB204610BD00BFF03800208470060862
:108E300010B5044C04480A46214609F09BFB204625
:108E400010BD00BFF03800209470060810B5044C27
:108E500004480A46214609F08DFB204610BD00BF9C
:108E6000F0380020A070060810B5044C04480A46EB
:108E7000214609F07FFB204610BD00BFF0380020DE
:108E8000AC70060810B5044C04480A46214609F0A7
:108E900071FB204610BD00BFF0380020B8700608F6
:108EA00010B509F03BFB0F4C48B194F82430032B6C
:108EB00011D8237E0133DBB2072B237603D900239D
:108EC00084F8243010BD084A0123D2F8C42362611B
:108ED00084F8243010BDE06D4FF480714EF0E4F959
:108EE000E7E700BFD0190020C82A002070B51D4C4C
:108EF00094F82430042B06460D4608D0082B20D1C8
:108F0000E36983422BD0FFF715FE022819D1206EAA
:108F100040F0A8FE00213720FFF7EEFE294617207B
:108F2000FFF7EAFEA8B9A37E6BB971021920FFF71B
:108F3000E3FE70B90823C4E9076584F824300220F1
:108F400070BD012070BD31461920FFF7D5FE002805
:108F5000F0D0FFF7F5F9FFF7A3FF032070BD022063
:108F600070BD00BFD01900202DE9F043644D91B0D1
:108F700006460F469046994695F82430042B0DD0AE
:108F8000082B07D1EB69B34200F0B680FFF7D2FDA2
:108F90000228F1D0012011B0BDE8F083286E40F026
:108FA00061FEAB7E002B40F0968071021820FFF727
:108FB000A3FE002840F09A8095F82440FFF772FD48
:108FC000082C0CBFFC22FE22E86D818940F2E933B7
:108FD0000189013B11F0020F9BB249D093B283810A
:108FE00040F2E9340389013C13F0010FA4B26FD0C1
:108FF000838995F86430002B42D001A80AF0A0FACA
:10900000EB6DAA6E95F86C10506803970C334022F4
:10901000029300234906CDE9083304920B934FF4E1
:10902000806206930A934FF40073079201910593AF
:109030000AF0C4FAAB6E01A958680AF093FAAB6E55
:10904000EA6D59680B6843F001030B6093889BB28B
:1090500043F002039380012206230020C5E903891F
:109060002F606E602A7285F8243011B0BDE8F0835D
:10907000002BADD142F0F8FD95F86430002BBCD147
:10908000E86DBE4683894FF480724FF47A744FF6D0
:10909000FF71BEF1000F19D01EF8013BB0F808C0F7
:1090A000013C1CF0020FA4B217D09BB283814FF495
:1090B0007A74B0F808C01CF0010F04F1FF3311D02E
:1090C000013A8389C7D0BEF1000FE5D1FF23E5E760
:1090D000002C87D1CEE7314668E78C42DED142F0E2
:1090E000C3FDB8E79CB28C42E3D1F8E7FFF728F95B
:1090F000FFF7D6FE03204EE7FFF7D4FCFC2263E720
:10910000D01900202DE9F04F9E4C94F8506087B0A4
:10911000002E00F0C08194F824209B4FDFF86C9261
:10912000DFF86C824FF6FF75531E082B00F2938018
:10913000DFE813F0A600CC005D019100800009007B
:109140000B019100F60094F86430002B40F025826A
:10915000E06D236894F808E0828903EB0E2C4FF44D
:1091600080714FF47A73BCF1000F00F0A2811CF8FB
:1091700001AB0289013B92079BB240F1D6811FFAF5
:109180008AF383814FF47A730289D20703F1FF3A9D
:1091900040F1D38101398289E5D10EF1010E5FFAE8
:1091A0008EFEBEF1020F84F808E051D1E06D838994
:1091B00040F2E9330289013B12F0020F9BB200F04A
:1091C000B0810023838140F2E9330289013B12F030
:1091D000010F9BB200F09E818389838940F2E933BD
:1091E0000289013B12F0020F9BB200F08F81002335
:1091F000838140F2E9330289013B12F0010F9BB2F7
:1092000000F07E818389FFF74DFC00F01F000528E8
:1092100000F08382FFF744FED4F80CA0BAF1000FEF
:1092200000F0B5810022236961680120D04794F8DD
:10923000242079E720684FF40071FFF75BFC0128D8
:1092400000F08D81022800F09181002800F0D68185
:1092500094F82420531EDBB2022B00F226814A4BE5
:109260006169D3F8C4335B1AC82B00F21A81A2F1EA
:109270000806B6FA86F67609304607B0BDE8F08FE4
:10928000206E40F0EFFC00210846FFF735FD8246D6
:10929000FFF756F8BAF1010FDAD10023206E63769A
:1092A00040F0E0FC40F2AB110820FFF725FD052857
:1092B00000F07081012800F0FF80FFF741F8627E26
:1092C000002A00F02782022384F82430206E40F028
:1092D000C9FC637E022B0CBF4FF0804A4FF0000A9E
:1092E00000213720FFF708FD51462920FFF704FD34
:1092F0008246FFF725F8BAF1000FA9D1637E022B51
:1093000000F0908184F81AA0206E40F0ABFC0021A0
:109310000920FFF7F1FC00283CD0FFF711F897E790
:109320004FF0080AFFF7BEFBFF2800F00A82BAF1EF
:10933000010AF7D16369D7F8C423FA33934287D27D
:10934000FFF7AEFD94F82420EEE6FFF7ABFBFF2815
:109350004FF0080A06D0BAF1010AEBD0FFF7A2FBE2
:10936000FF28F8D1236A0022012B227640F2EF81F8
:10937000E26908210132013BC4E9072384F8241083
:109380000A4674E7D0190020C82A00200F64024062
:1093900000600240BF481021FFF7ACFB8346002865
:1093A000BBD101217F20FEF72BFE01288246B4D1DC
:1093B00058460221FEF724FE002800F08D81012886
:1093C000ABD116213A20FEF71BFE01308002A062CD
:1093D000FEF7B6FF206E40F045FC00210A20FFF7A3
:1093E0008BFC002840F04E81032384F824301021A8
:1093F00002A8FFF77FFB00287FF42AAF9DF8153005
:109400009DF816109DF810209DF809009DF80AC0DF
:109410001B01DBB243EA111303F5FA636387DDF83E
:10942000113001F00F0184F83C101BBA110902F051
:109430000F024CEA002084F8381084F839209DF897
:1094400008109DF80B206363039B2363A08584F8B9
:109450002E1084F82F20FEF773FFA37E73B9206EC1
:1094600040F000FC4FF400711020FFF745FC8246ED
:10947000FEF766FFBAF1000F7FF462AFE06D0421E2
:109480004DF012FF002204233046226284F824307B
:1094900007B0BDE8F08F304684F8246007B0BDE81F
:1094A000F08FFFF7FDFC94F82420042A7FF4DFAE50
:1094B000E2E64FF0FF0A5CE6E06D4FF0040E8389B0
:1094C00002A94FF47A734FF0FF0C028992073AD544
:1094D000A0F80CC04FF47A730289D20703F1FF3A67
:1094E00038D5828992B209B101F8012BBEF1010E83
:1094F000EBD19DF80B30AB2B04BF02236376DCE687
:10950000002B7FF478AE42F0AFFB7CE6002B7FF4BB
:1095100067AEF8E7002B7FF458AE42F0A5FBE06D94
:109520005BE6002B7FF446AEF7E7AB427FF421AE5B
:1095300042F09AFB94F808E02FE61FFA8AF3AB4258
:109540007FF422AEF4E7013B9BB2AB42BDD142F0C7
:109550008BFBCEE71FFA8AF3AB42BDD1F7E7636915
:10956000D7F8C42364339342BFF472AEFEF7E8FE2B
:10957000FFF796FCD4F80CA0BAF1000F07D0002238
:10958000104623696168D04794F82420CCE594F80C
:109590002420C9E584F819A08FE6A16E3E4BD1F8CE
:1095A00004C0C969CC4598BF4346880040F1888013
:1095B0005868DFF8E8E0084010EA0E0F3FF457AEB5
:1095C00001EA0E01D960DCF80030E06D23F0010300
:1095D000CCF800300389D90703D583890389DA07DA
:1095E000FBD403899B07FCD503891906F9D483882A
:1095F00023F002031B041B0C8380D8E50190FEF7C7
:109600009FFEE56801982076042384F82430002D1D
:109610003FF432AED4E900212369A84794F824200E
:10962000531E18E6206E40F01DFB51463A20FFF70E
:1096300063FBE16D82468B894FF0040E4FF47A7321
:1096400002A84FF0FF0C0A89920729D5A1F80CC097
:109650004FF47A730A89D20703F1FF3B2BD58A892D
:1096600092B208B100F8012BBEF1010EEBD1BAF1B4
:10967000000F07D1FEF764FE029B1BBAC3F3807391
:10968000A37641E6FEF75CFEFFF70AFC94F824207F
:109690004AE500BF101A0020006402407D0F7D0FD4
:1096A000013B9BB2AB42CED1084642F0DDFABAF1A3
:1096B000000FE7D1DEE71FFA8BF3AB42CAD1F3E725
:1096C0001868DFF8B0E0084010EA0E0F3FF4CFADA5
:1096D00001EA0E01996076E704212C20FEF790FC48
:1096E000032183464E20FEF78BFC0C2103463620D7
:1096F0000193FEF785FC019B421C02339A400AFA53
:109700000BFAA2FB0A01420A42EAC152A262FEF728
:1097100017FE5FE684F82420A9E5154BE568D3F829
:10972000C4336361072284F82420002D3FF49FADE9
:10973000D4E9002123690120A84794F82420531E6E
:1097400089E5FEF7FDFD042384F8243094E508D074
:10975000042384F82430FEF7F3FD94F82420531EEC
:1097600079E5FFF7E7F902287FF472ADD5E500BF90
:10977000C82A00207D0F7D0F00F01F024009012341
:10978000032803FA02F304D004280CD0022805D0E1
:109790007047074A116C0B4313647047044A516CBD
:1097A0000B4353647047024A116B0B4313637047BA
:1097B0000038024000487047782F0020002871D000
:1097C000F0B58388B3FA83F3202B0A4683B00446AE
:1097D000C3F11F0150D0344F344D07EB81036E1895
:1097E000C3F8282F002196F840603EF0F1FCA388D2
:1097F00021682F48B3FA83F3C3F11F0202F0FC047F
:1098000004F1804404F59C3402F003024FEA820E16
:109810004FF00F0C01F13F42A1680CFA0EFC21EA57
:109820000C01A16002F57E02A168C2F387224FF00D
:10983000004C02FA0EF22CFA03F30A43A2604361D1
:1098400002681C4922EA03020260426822EA03021B
:10985000426002681A430260826822EA0302826060
:10986000C26822EA0302C2600A68374413430B60ED
:1098700097F8683FF02B01D803B0F0BD3544F021D4
:1098800095F850308DF8043003224FF4807301A80E
:1098900087F8681F8DF80520ADF8063009F0E6FD61
:1098A00003B0F0BD704700BFC82A002010EB0508C8
:1098B000003C0140083C01402DE9F047C94C94F8B8
:1098C0006F1F0546C1F34001D4F8740F40F0D6F97C
:1098D00094F86F1FD4F8700FC94301F0010140F0F4
:1098E000CDF9002D00F0E58005F1FF38BE4EBF4DEB
:1098F0005FFA88F81027D4F8743F33B11A689B8850
:1099000051690B4214BF53831383D4F8703F33B1B2
:109910001A689B8851690B4214BF53831383B4F8B0
:109920007C3F002B40F0558194F87E1FD4F8800FC7
:1099300040F0A4F94FF0FA0C4FF47A704FF0010E9A
:109940007368C3F30803002B40F01781EFF3118312
:10995000002B40F01281D4F8C423A968D4F8C43392
:109960009A42F8D1D4F8A43F9942F4D8D4F8A09FF1
:1099700000FB09F35B1AB3FBF9F300FB02327368D7
:10998000C3F30803002B40F0B780EFF31183002BE3
:1099900040F0B280D4F8C433D5F808A0D4F8C4138A
:1099A0008B42F7D1D4F8A41F8A45F3D8D4F8A09FEE
:1099B00000FB09F1A1EB0A01B1FBF9F100FB031374
:1099C0009B1AB3F57A7FDAD3BCF1010CB8D1D4F885
:1099D000743F33B11A689B8851690B4214BF53839B
:1099E0001383D4F8703F33B11A689B8851690B42D6
:1099F00014BF53831383B4F87C3F002B40F0DD8009
:109A000094F87E1FD4F8800F81F0010140F036F900
:109A10004FF0FA0C4FF47A704FF0010E7368C3F3F5
:109A20000803002B40F08980EFF31183002B40F0F6
:109A30008480D4F8C423A968D4F8C4339A42F8D1F6
:109A4000D4F8A43F9942F4D8D4F8A09F00FB09F3BE
:109A50005B1AB3FBF9F300FB02327368C3F308032C
:109A60004BBBEFF3118333BBD4F8C433D5F808A054
:109A7000D4F8C4138B42F7D1D4F8A41F8A45F3D885
:109A8000D4F8A09F00FB09F1A1EB0A01B1FBF9F1A9
:109A900000FB03139B1AB3F57A7FDED3BCF1010CF4
:109AA000BCD108F1FF385FFA88F8B8F1FF0F7FF4F6
:109AB00022AFBDE8F087EFF3118987F31288D5F85C
:109AC00008A02B68DB0344BFC4F89CEFD5F808A0BE
:109AD000D4F8C433D4F89C1F5FFA89F989F311884C
:109AE000D4F8A09F0B4400FB09F1A1EB0A01B1FBE4
:109AF000F9F100FB0313CDE7EFF3118987F3128827
:109B0000D5F808A02B68D90344BFC4F89CEFD5F85A
:109B100008A0D4F8C433D4F89C1F5FFA89F989F3FC
:109B20001188D4F8A09F0B4400FB09F1A1EB0A01B6
:109B3000B1FBF9F100FB031342E7EFF3118187F367
:109B40001288D5F808902B68DA0344BFC4F89CEF5C
:109B5000D5F80890D4F8C433D4F89C2FC9B281F357
:109B60001188D4F8A01F1A4400FB01F3A3EB0903EA
:109B7000B3FBF1F300FB02326FE7EFF3118187F3E0
:109B80001288D5F808902B68DB0344BFC4F89CEF1B
:109B9000D5F80890D4F8C433D4F89C2FC9B281F317
:109BA0001188D4F8A01F1A4400FB01F3A3EB0903AA
:109BB000B3FBF1F300FB0232E1E6D4F8983F002B4F
:109BC0003FF426AFD4F8842F0023136084F8953F28
:109BD0001EE7D4F8983F002B3FF4ACAE3FF00AF9F3
:109BE000A8E600BFC82A002000ED00E010E000E079
:109BF0002DE9F84FC44CC54F94F86F1FD4F8740F7B
:109C0000C34DC1F3400140F039F894F86F1FD4F808
:109C1000700FC94301F0010140F030F84FF0050B1F
:109C20004FF01008D4F8743F33B11A689B8851691B
:109C30000B4214BF53831383D4F8703F33B11A68B7
:109C40009B8851690B4214BF53831383B4F87C3F44
:109C5000002B40F0518194F87E1FD4F8800F40F023
:109C60000DF84FF0320C4FF47A7001267B68C3F385
:109C70000803002B40F01481EFF31183002B40F018
:109C80000F81D4F8C423A968D4F8C4339A42F8D118
:109C9000D4F8A43F9942F4D8D4F8A09F00FB09F36C
:109CA0005B1AB3FBF9F300FB02327B68C3F30803D2
:109CB000002B40F0B480EFF31183002B40F0AF8015
:109CC000D4F8C433D5F808A0D4F8C4138B42F7D124
:109CD000D4F8A41F8A45F3D8D4F8A09F00FB09F15B
:109CE000A1EB0A01B1FBF9F100FB03139B1AB3F5D9
:109CF0007A7FDAD3BCF1010CB8D1D4F8743F33B118
:109D00001A689B8851690B4214BF53831383D4F89C
:109D1000703F33B11A689B8851690B4214BF53835B
:109D20001383B4F87C3F002B40F0DA8094F87E1F58
:109D3000D4F8800F81F001013FF0A0FF4FF0320C0A
:109D40004FF47A7001267B68C3F30803002B40F0C0
:109D50008780EFF31183002B40F08280D4F8C42376
:109D6000A968D4F8C4339A42F8D1D4F8A43F9942F0
:109D7000F4D8D4F8A09F00FB09F35B1AB3FBF9F306
:109D800000FB02327B68C3F308033BBBEFF3118394
:109D900023BBD4F8C433D5F808A0D4F8C4138B423D
:109DA000F7D1D4F8A41F8A45F3D8D4F8A09F00FBBC
:109DB00009F1A1EB0A01B1FBF9F100FB03139B1AB6
:109DC000B3F57A7FDED3BCF1010CBCD10BF1FF36C9
:109DD00016F0FF0B7FF426AFBDE8F88FEFF3118983
:109DE00088F31288D5F808A02B68DB0344BFC4F8B9
:109DF0009C6FD5F808A0D4F8C433D4F89C1F5FFA40
:109E000089F989F31188D4F8A09F0B4400FB09F16C
:109E1000A1EB0A01B1FBF9F100FB0313CFE7EFF36C
:109E2000118988F31288D5F808A02B68D90344BF9C
:109E3000C4F89C6FD5F808A0D4F8C433D4F89C1F9C
:109E40005FFA89F989F31188D4F8A09F0B4400FBCD
:109E500009F1A1EB0A01B1FBF9F100FB031345E79E
:109E6000EFF3118188F31288D5F808902B68DA0394
:109E700044BFC4F89C6FD5F80890D4F8C433D4F824
:109E80009C2FC9B281F31188D4F8A01F1A4400FB9B
:109E900001F3A3EB0903B3FBF1F300FB023271E71B
:109EA000EFF3118188F31288D5F808902B68DB0353
:109EB00044BFC4F89C6FD5F80890D4F8C433D4F8E4
:109EC0009C2FC9B281F31188D4F8A01F1A4400FB5B
:109ED00001F3A3EB0903B3FBF1F300FB0232E4E669
:109EE000D4F8983F002B3FF429AFD4F8842F0023F7
:109EF000136084F8953F21E7D4F8983F002B3FF496
:109F0000B0AE3EF077FFACE6C82A002000ED00E0DE
:109F100010E000E010B4B8B10D4CD4F8A83F102BFD
:109F200005D15DF8044B052100203EF039BC03EB60
:109F30004302224482F8AD1F01210B4482F8AC0F8A
:109F400082F8AE1FC4F8A83F5DF8044B704700BF0D
:109F5000C82A0020C0782021DCE700BF2DE9F04F9F
:109F6000784C2DED028B94F8F02F002395B0C4F8B7
:109F7000E03FC4F8E43FC4F8E83FC4F8EC3FC4F85D
:109F8000DC3F1AB194F8F13F84F8DC3F94F8F23FDB
:109F90001BB194F8F33F84F8EB3F94F8F63F1BB104
:109FA00094F8F73F84F8E63F94F8F43F1BB194F837
:109FB000F53F84F8E13F94F8F83F0393013B5FB22B
:109FC000DBB202937B1C00F0AE805F4B5F4E53F818
:109FD0003780019603EBC70300221B79009208EE3D
:109FE000103A1546B146924699F800603946304617
:109FF00042F088F883463046BBF1000F22D03FF094
:10A0000051FBEA1D1321D2B220B14FF0000E827134
:10A0100080F807E03EF0DCF899F8000042F0A4F880
:10A020004FF007030AF1010289F804304FF00103F1
:10A0300089F802A089F80100CDF800B05FFA82FA31
:10A0400089F803300135042D09F10509CCD118EE4A
:10A05000100A019EFFF790FB3D4A3E4B51680B40B2
:10A0600043F4403353600FB9009B5BB93A4D48202D
:10A07000FFF782FB2846022150F036FDAB6843F023
:10A080000103AB603249344B4A68B4F8FA0F42F42A
:10A0900000024A605A6822F480525A609A6B22F495
:10A0A000401242F480129A63DA6842F46002DA6085
:10A0B0009D6B85F44012C2F3015202EB82021F2114
:10A0C00001FA02FC25EA0C054FF0110C0CFA02F221
:10A0D0002A439A63DA6842F4E012DA609D6BC5F3B2
:10A0E0000152C2F10402D2B202EB820291404FF05F
:10A0F000100C25EA01050CFA02F22A439A63E8B132
:10A100001649B4F8FC2F41F8F40CA2B1B4F8FE3FA4
:10A1100041F8F02C63B112489B1A90FBF3F341F81D
:10A12000EC3C009B23BB15B0BDEC028BBDE8F08F6F
:10A130000C4B1B88EFE70C4B1A88E7E70B4B188892
:10A14000DEE700BFC82A002068EB0508A43A00201B
:10A1500000230140E030FCFF00200140C03B002014
:10A16000803801002E7AFF1F2C7AFF1F2A7AFF1FEA
:10A170005146404650F0B8FC604B012103F11409F0
:10A18000F378481CC0B263B375783379A5F10A023D
:10A1900002EB42024FF0070B05EB450C092D0BFAC1
:10A1A00002FE03FA02F20BFA0CFB40F29180D8F89F
:10A1B0000C3023EA0E0E42EA0E02C8F80C204B1EA9
:10A1C00003EB83031F22062902FA03FC05FA03F3BB
:10A1D00064D8D8F8342022EA0C0213430146C8F8A8
:10A1E00034300536B145CBD1D8F80830029943F464
:10A1F0000073C8F80830D8F8083043F48073C8F802
:10A200000830D8F808303C4404F5805443F001038A
:10A21000C8F8083094F9002002203FF0FDF8044609
:10A22000002880D040684EF085FE039A06214EF04B
:10A2300093FE606809F0C2F905A809F081F9BAF146
:10A24000010FA3682E4A05938CBF4FF48060002055
:10A2500000230B9008F14C054FF40060069507921F
:10A2600008934FF480720A930C904FF400336068A7
:10A27000CDF824A005A94FF40055CDE90D520F9358
:10A2800009F070F96268136843F001031360D8F8AD
:10A29000083043F08043C8F8083044E7CA1FA1F1F2
:10A2A0000D0302EB82024FF01F0E03EB83030C2918
:10A2B0000EFA02FC0EFA03F105FA02F213D8D8F8EE
:10A2C000303023EA0C031A430146C8F8302088E7EF
:10A2D000D8F8102003FA0CF322EA0B0B43EA0B0325
:10A2E000C8F810306BE7D8F82C2005FA03F322EAFF
:10A2F000010213430146C8F82C3072E7A43A00204B
:10A30000D83A002000285FD00368374A2DE9F04191
:10A3100003F13F4404F57E0402EB9422012492F8F9
:10A32000382002F01F055209032A04FA05F456D01A
:10A33000042A4FD0022A48D08588B5FA85F0C0F1AA
:10A340001F00C0F3CC0603EB860600F00700820076
:10A350000F24306A944020EA04003062306A01FA27
:10A3600002F20243002132624FF0010E0A464FF022
:10A37000030C02270EFA02F838EA050002F1010286
:10A380001CD118680CFA01F420EA0400186018685F
:10A3900007FA01F606431E609E6826EA04069E60E0
:10A3A00098689860586820EA0800586058685860B3
:10A3B000D86820EA0400D860D868D860102A01F173
:10A3C0000201D7D1BDE8F0817047084A556C2C4393
:10A3D0005464B1E7054A156B2C431463ACE7034A98
:10A3E000156C2C431464A7E710EB050800380240F5
:10A3F00070B5464E16F8E04C04EB440306EBC3037D
:10A40000650013F8DC3C032B6ED8DFE803F0592914
:10A410001E02254406EBC50555F8D80C002870D15E
:10A4200016F87C3C9C425FD0013404F00302934256
:10A4300006F8E02C58D002EB420406EBC4040223D9
:10A4400044F8D80C04F8DC3C70BD2B1906EBC303B0
:10A4500053F8D82C72B1013A43F8D82C002070BDC3
:10A460002B1906EBC30353F8D82C002AF3D1022290
:10A4700003F8DC2C254406EBC50515F8D03C013B60
:10A48000DBB205F8D03C8BBB214B16F87C6CD3F8C3
:10A490002C1255F8D40C621C02F003024B1E03244C
:10A4A000B242034405F8DC4CB3FBF1F045F8D80C9C
:10A4B0001AD0994218D8013845F8D80C012070BD3F
:10A4C00041F02AFD80B1124B2C44D3F82C2206EB2C
:10A4D000C404012102F51C5304F8DC1C0F33B3FB48
:10A4E000F2F344F8D83C70BD012070BD084BD3F89E
:10A4F0002C22012002F2E733B3FBF2F345F8D83CFB
:10A5000070BD013845F8D80C002070BDC03B00205C
:10A5100088010020054B13F87B2C002AFBD1D3F8CF
:10A52000E83A03491B6801F10C001847C03B0020C2
:10A53000483B00202DE9F04F2DED108B034697B0DE
:10A5400004331593DFEDCACA149002238A4613928E
:10A550008B461293149C4FEADB0604EB461202EB87
:10A5600006103101A6EB86034FEAC60806EB460546
:10A57000CDE9000100EBC303043108F1040011969A
:10A58000204421442C01C6EBC60C0394EC00119D21
:10A5900004944FEACC0405946C0106EB860E0294F9
:10A5A000159D009C03EB46174FEACE0E02EBC60644
:10A5B0004FEACB094FF0000C51ED01AAD3ED001A80
:10A5C00092ED007A94ED005A96ED004AD7ED007AAC
:10A5D00015ED012A50ED016A32EE07BA76EE840AD3
:10A5E0007AEE855A31EEA70A3BEE256A70EE804A74
:10A5F00076EEC46A36EE244A36EE646A05ED014A08
:10A6000082ED006AD0ED00BAD6ED012AD3ED019AB1
:10A6100095ED00AA92ED016A97ED013A91ED00CA1D
:10A62000D4ED014A7BEEE23A36EEE19A32EE472A69
:10A6300073EEE98A3AEE464A39EE279A78EE838A33
:10A64000B0EE428AA9EE6C8ADC44E24573EEC33A6E
:10A65000B0EE441AA8EEEC1A76EEE77A33EEA97A59
:10A660007CEE643A77EEA17A3AEE066A7AEEC51A83
:10A670003CEE24AA74EECC4A39EE833A35EE6A5A9F
:10A68000F0EE639AF0EE48AAE7EE2C9AA8EEAC4AF8
:10A69000E7EE2C4AE7EE6CAAF0EE418AB0EE427A81
:10A6A000B0EE612A7BEE656A7BEEA22A76EE4A5A0C
:10A6B000A9EE2C7AA7EEAC2AA7EEAC5AE7EEEC8A0C
:10A6C00032EE83BA76EEC3BA35EEE09A75EEC07A12
:10A6D00036EE0A6A76EEE26A36EE0BAA76EE836A08
:10A6E00077EEA07A34EE423A77EE290A36EE4B6ADC
:10A6F0007BEEA22A39EE000A73EEAA3A78EE244ADB
:10A7000037EE697A31EE055A71EEA85A32EE044AF4
:10A7100085ED00AA82ED016A4D4441ED012A4A44CB
:10A72000C4ED006A81ED000AC4ED017A494440EDB0
:10A73000010A4C4487ED007AC6ED003AC3ED004AA9
:10A7400080ED003A87ED014A484486ED015A4F44B6
:10A75000C3ED015A4E444B443FF62EAF119B072BDD
:10A7600040F2C781029D149E019B03980499059AAB
:10A77000083575190C330E95354608F108080EF1A9
:10A780000804EB1808300831083246442C19281800
:10A790006918AA18079305F10C030D960C940B90F9
:10A7A0000A91099208934FF001084FF0000E129B96
:10A7B0009E44139B03EBCE0303EBCE02109302EBFC
:10A7C000CE0303EBCE01029101EBCE0101EBCE05EE
:10A7D00005EBCE06D6ED007A0F93AEEB8E0301911A
:10A7E00006EB031303EBCE07D3ED01AACDED067AFA
:10A7F000019BD5ED007A97ED01BACDED057AD3ED49
:10A80000007A029BCDED047AD3ED007A0F9BCDED5B
:10A81000037A07EBCE0CD3ED007ADCED01BACDED77
:10A82000027A0CEBCE01D2ED007A109A009101EB86
:10A83000CE00014691ED01DACDED017A0099D2ED1D
:10A84000007A91ED01CA00EBCE0000EBCE0494ED4E
:10A8500001EAD0ED01DACDED007ADDE90776DDE938
:10A860000954DDE90B01DDE90D23C44602E000BF18
:10A87000F304353F94ED009A90ED00FA91ED006AF3
:10A88000D5ED007AD3ED006A57ED014A92ED005AFA
:10A8900056ED013A96ED00AA35EE060A73EEA65A79
:10A8A00039EE278A34EE8F7A70EE082A75EE87EA41
:10A8B00035EE465A3EEEA26A73EEE63A06ED016ABE
:10A8C000D1ED019AD2ED01FAD4ED016AD3ED011A6E
:10A8D00095ED013AD0ED018A97ED004A3FEEE96A25
:10A8E00035EE491A76EE660A31EE271A3AEE612AFB
:10A8F00075EE677A70EE830A3FEEA95A74EECF9A2E
:10A9000077EE897A7AEE211AB0EE42AA74EE68FAEE
:10A91000A0EEECAADC44E24535EEC77AB0EE639ACD
:10A9200074EE285A38EEC44AF0EE698AA1EE6C9AA9
:10A93000E7EEAC8A36EE436A7FEE644A36EE266A6C
:10A94000A0EEAC2AF0EE4A0AE7EEEC0AE7EEAC4ADB
:10A95000F0EE687AF0EE498A36EE833AE6EE6C8ADB
:10A96000E1EE2C3AB0EE6F1AA6EE2C1A71EEE56A03
:10A97000A6EE2C4A71EEA55A75EE031A7EEEE22A77
:10A9800037EE43FA75EEE1EAB0EE686A76EEC08A19
:10A9900039EE044A7FEE86FA76EEC86A33EE816AB3
:10A9A00038EE888A73EEC13A37EE457A2CEE2E1ACD
:10A9B0003FEE055A22EECC9A9DED03FA70EE266A20
:10A9C00033EE077AAFEE221AAFEE2E9A7AEE244AD1
:10A9D0009DED01FA79EEA09A25EE4BAA72EE670A78
:10A9E00037EE822A6BEE087AAFEE08AAEFEE057A10
:10A9F0002DEEA63A9DED05FA67EE6D8AAFEE073AA9
:10AA0000EFEE268A66EE6A2A9DED00FA2AEEA00A8B
:10AA1000EFEE202A6EEE02EADDED060A23EECE5AB4
:10AA2000E0EEA3EA2BEEA98ADDED023AAFEE060ACC
:10AA3000A3EE848A24EE6B7A6DEE246A9DED044ABF
:10AA40002FEECD6AA0EE825AA3EEA97AE4EE2F6A29
:10AA5000A4EE246A75EEA15AC6ED005A83ED001AE1
:10AA600083ED019A4E4447ED017A87ED00AA4B44ED
:10AA700080ED003AC0ED018A4F4482ED000A48445F
:10AA8000C2ED012AC5ED00EA85ED015A4A44C1ED47
:10AA9000006A81ED016A4D4484ED008A84ED017AFB
:10AAA00049444C443FF6E6AE0E9B08330E930D9B93
:10AAB00008330D930C9B08330C930B9B08330B93BB
:10AAC0000A9B08330A93099B08330993089B0833B0
:10AAD0000893079B08330793119B08F1010843452E
:10AAE0007FF465AE129BDDF844B0DB009BB212939D
:10AAF00030E517B0BDEC108BBDE8F08F084800239F
:10AB000002461178022902F1060204D00133062B15
:10AB1000F7D10020704703EB430300EB430070477D
:10AB2000AC460020F0B5A14C85B0242204F6EC2000
:10AB3000002153F09CFF94F8116B002E3CD1354658
:10AB4000D4F8243B6BB39B6A5BB3994898478368FE
:10AB50003BB30388DFF884C2013B9BB26046664684
:10AB600000213778032F06F106061DD00131062992
:10AB7000F7D100220178022900F1060000F0AB8035
:10AB80000132062AF6D1D4F84C1B052909D0481CFD
:10AB900002FB01C2C4F84C0B02200021938010700C
:10ABA0005180284605B0F0BD062303FB0141B1F8F2
:10ABB000EE3A013B9BB2DCE794F8100B04F6183335
:10ABC000C4F8143B08B90025BAE73EF06BFD074610
:10ABD000C4F8200B3FF03AF805460028F3D0013EB8
:10ABE000022376B29E4284F8183BECDC714B03EBF7
:10ABF0000616D6F8743C002BE5D0C4F81C3B0FB108
:10AC00002023FB80092138463DF0E2FAD4F8143BBA
:10AC100098683FF02DF8D4F8143B102158684CF098
:10AC200043FB654BD4F8142BC4F8442B93E8030082
:10AC30000123009032208DF8041084F8483B002650
:10AC40003EF014F8052302AA6946D4F8140B8DF8D7
:10AC50000A608DF8096040F0F5FF9DF80A209DF824
:10AC600009009DF80B10554B120242EA00420A43BC
:10AC70009A4200F0928032DCA3F5F1139A425ED042
:10AC800042DD4F4B9A4252D002339A4262D14FF486
:10AC900000724FF48073A4F8282BA4F8343BB4F866
:10ACA000342BB4F8283B120202FB03F300204FF4CC
:10ACB0008071B3F1807FC4F82C2BC4F8303B84F84A
:10ACC000360BA4F82A1B57D83E4BC4F8243B01226C
:10ACD00084F83D2B34E7062101FB02C25CE73A4BC6
:10ACE0009A4234DC053B9A4234DD384B1344032B43
:10ACF0004BD801A252F823F03FAD00082FAD000859
:10AD000021AD00088FAC0008A3F52203013B9A4255
:10AD10003BD02DDD2E4B9A4209D001339A4219D1F6
:10AD20004FF48073A4F8283BA4F8343BB7E78022A3
:10AD30004FF48073A4F8282BA4F8343BAFE74022EB
:10AD40004FF48073A4F8282BA4F8343BA7E7214BD9
:10AD50009A42E5D0002594F8100BA4F8285BA4F8DB
:10AD6000345BC4F82C5BC4F8305B40F011FFE7E6BD
:10AD7000194B9A42D4D0EDE70123D4F8440B84F860
:10AD80003C3BB7214BF056FD9EE720224FF48073E9
:10AD9000A4F8282BA4F8343B81E74FF480621023F9
:10ADA000A4F8282BA4F8343B79E700BFC03B00206F
:10ADB000E4460020D019002080EB05081640E00092
:10ADC0001720C20088EB05081940EF00EABF10FF0A
:10ADD00017BA20001870EF0018600100AC46002080
:10ADE0002DE9F041C94BCA4ECA4DCB4C0822C3F8DD
:10ADF0008820336B82B043F00103336307464FF47E
:10AE0000C052284640F2023388466946CDE9002305
:10AE100008F06AFE6B6AC14ADFF848C323F4704346
:10AE20006B626B6A43F420436B626B6A23F470239A
:10AE30006B626B6A43F420236B62736CB84D43F40E
:10AE4000804341F234117364736B44F8018041F222
:10AE50003C1143F08003675041F2381EB1497363DF
:10AE60000227C4F8541BB04EB04BB14944F80E5001
:10AE700084F8587B4FF0A045AE4FC4F85C5BC4F833
:10AE8000606BC4F8683BC4F8A41B05F5326506F591
:10AE9000A07603F51073A1F5D071C4F86C7BC4F8EB
:10AEA000A85BC4F8706BC4F8AC3BC4F8741B0123F6
:10AEB00007F51077A5F5E465A6F5A066A1F58C6108
:10AEC000C4F850CBC4F8B07BC4F8645BC4F81C6C05
:10AED00084F85B3B05F5A075536106F5B076C4F8C0
:10AEE000E01B84F8623C1946934B944AC4F8E85B33
:10AEF000A7F5BC67A035C4F8F46B914EC4F8F07B9D
:10AF0000C4F8F83B07F5D45703F56953C4F8FC5B64
:10AF10004FF050250020DFF850E2DFF850C2C4F8AF
:10AF2000202CC4F8247C02F5A04207F5A047C4F801
:10AF3000286CC4F82C3C06F5A046A3F54853C4F889
:10AF4000305C04F53565C4F8342CC4F83C6CC4F8A6
:10AF50005C3CC4F8E4EBC4F8ECCB0246C4F8387CA3
:10AF60002B4684F8640C402683F81C21A3F8222188
:10AF70000132042AC3E9496083F81D1183F81F01D7
:10AF8000C3F8300103F12803EED1002211462B460D
:10AF9000402083F87423A3F87A230132042AC3E9FA
:10AFA000DF0183F8751383F87713C3F8881303F16F
:10AFB0002803EED14FF0A04362489A6822F00102C4
:10AFC0009A60DA6842F04002DA6007F013FE94F803
:10AFD000593B0022212161F317420BB142F4801248
:10AFE00094F8531BD4F85C3B01299A6300F0E3808A
:10AFF000DA68D4F85C6CD4F8600BC2F3076121F016
:10B00000600141F0400161F31F620021DA603160AC
:10B01000026861F3CC22026094F85B2B012A00F0F5
:10B02000B7801021484808F037F9474808F01AF966
:10B03000D4F8600B94F8513B00224FF0FF310261CD
:10B0400042618161C26153B305F114073F4E11465D
:10B0500007EB83074FEA830C4FF0FF0E56F8042FDF
:10B060001368002BACBF00234FF09043B74213602E
:10B070001161C2F808E0F1D105F15003344963448D
:10B080000027FF2651F8042F1568002DACBF0025BE
:10B090004FF090459942156017619660F2D10369AF
:10B0A00094F8531B43F480730129036160D0D4F8F2
:10B0B0005C2B28480023936100294FF0FF336FF089
:10B0C000804151615360516114BF0023102390618E
:10B0D00043F47013916943F4605343F008030B4346
:10B0E000936141F238119368615843F00103936012
:10B0F0000B689847184B194ADA606846184B00935A
:10B1000008F0B4F902B0BDE8F08100BF00E100E052
:10B110000038024000000240C03B0020003C0140DB
:10B12000B803002040004001000800500009005012
:10B13000000B005020090050C005005000100050C6
:10B14000003000501C4700201047002024470020FA
:10B15000604700200008008000ED00E00005FA05CF
:10B160004302000108040100200500506005005062
:10B17000D4F85C2B144B03636FF08041134D002314
:10B180004FF0FF30936151615060516195619FE7CD
:10B1900001680F4A0F4E41F003010160802159629E
:10B1A0009E62C3F80421E022C3F80821C0F24002E5
:10B1B000C3F80C2135E79A6822F03E0141F02A01DC
:10B1C00061F307029A6013E7030181000008008021
:10B1D000A00040008000200010B5174C94F84E00ED
:10B1E00080B9164B83F85100586594F85130012B03
:10B1F0001ED0636DFBB112495B68BDE81040A1F140
:10B200000C0018473EF04EFA94F850200B49003AD3
:10B2100018BF012281F8512048650028E5D01F227F
:10B22000C28020213CF0D4FF94F85130012BE0D1B2
:10B23000044B6365DFE710BDB84C0020D019002037
:10B24000104D0020D403002099B10A6B824216D918
:10B25000154BD3F89420914221D34C3991421ED3FF
:10B260000B6B9842F9D38B6B9842F6D80B46184675
:10B2700070470D4BD3F894100A6B904212D30B68B1
:10B280000BB9F4E70A6B90420B4602D38A6B9042EB
:10B29000EDD951F84C3F002BF4D1184670470023EC
:10B2A000184670470A46D8E7B84C00202DE9F04709
:10B2B000CC0143D10346224A43F8082B4FF0FF321A
:10B2C0004260022418467E26DFF87880D8F89890ED
:10B2D0002644013E051D49466FF070474FF0010AB4
:10B2E00008E0A3421CD0631C45F8043C321B1C46FA
:10B2F0000435CAB10B6BA34202D88B6BA34204D2B4
:10B300002046FFF7A1FF014690B10A794B6B002A56
:10B31000E7D1A34204D0E6D245F8042C631CE5E74C
:10B3200045F8047C631CE1E7C8F89810BDE8F08795
:10B3300045F804AC321B631C4946D8E78026C3E7B6
:10B34000F8FFFF0FB84C0020F0B40D6800240CE0AB
:10B35000BCF1050F18D8A0F137030A2B14D104EB68
:10B36000840415F8010B03EB4404A0F13003DEB2B2
:10B37000092EA0F16107A0F1410CF0D9052FE7D803
:10B38000A0F157030A2BEAD00D601460F0BC70479F
:10B39000036870B55E6A26B133460522BDE8704089
:10B3A000184704460D464E1D00E023689B68204662
:10B3B00098470028F9D0236815F8011B1B68204620
:10B3C0009847B542F1D170BD2DE9F047164D0746BB
:10B3D000002095F9A59005F1AC0684B007EB0108B3
:10B3E00005F5537504464FF0B60A3368ABB193F8D0
:10B3F0003830142B11D019F1020F01D04B450CD16C
:10B40000002269463046CDE90244CDE90078ADF826
:10B4100008A08DF80E402EF0C1F8E036B542E4D118
:10B4200004B0BDE8F08700BFB84C00202DE9F74319
:10B43000124E0124A02318255FFA84F8FF2B14DC98
:10B44000D6F84C03E9B2C1F11C0282725F1C02689B
:10B4500080F80B80DBB20093C1F11B01D2F8189089
:10B4600000234246C9B2C8473B46013DE6D10134FC
:10B47000052CE0D103B0BDE8F08300BFB84C00203C
:10B4800010B50A4C94F86903003818BF0120FCF786
:10B490006BFF50B1064904F5547040F009FB04F508
:10B4A00054700FF01BFE04F5547010BDB84C002012
:10B4B000B4EB050870B4447941BB03684FF4005203
:10B4C0004FF40076202502213CBB1A8C22F00102A9
:10B4D0001204120C1A841A8B188C22F0F30280B218
:10B4E000120420F00A00120C014342F0010241F064
:10B4F00001011A8319841A8B22F00C021204120C17
:10B500001A831A8B92B270BC1A83704700220368A8
:10B51000164615461146002CD7D0042C21D0082CF5
:10B5200038D0198C21F480510904090C19849C8BA2
:10B530001D8C45F6FF7040F6FF4128402140024334
:10B5400042F4805241F4807199831A849A8B22F4D8
:10B5500040621204120C9A839A8B92B270BC9A8346
:10B5600070471A8C22F010021204120C1A84188BE5
:10B57000198C89B240F6FF4221F0A00102400D4330
:10B5800042F4807245F010051A831D841A8B22F450
:10B590004062B3E71A8C22F480721204120C1A84EF
:10B5A000998B1A8C21F0F30192B2090422F42062E3
:10B5B000090C324342F4807241F0010199831A84EC
:10B5C0009A8B22F00C02C4E738B50E4D0446006891
:10B5D00008F08EF9D5F8B825204652084FF6FF71CD
:10B5E0003CF044F920460021FFF764FF064BC5F804
:10B5F000243E05F6246120460022BDE838403CF098
:10B60000B5B800BFC82A002075B201082DE9F04F77
:10B610007D4C94F8EE8594F8F9A587B016460B2278
:10B62000054689464046114602959DF840701D46E4
:10B630003CF032FCC245834640F0A6800390404671
:10B640003EF030F817F008030246019300F09080B6
:10B65000BBF1000F00F088809BF80710890700F10C
:10B660008380C4E9EE0BC4F8B40310B140F60B318B
:10B67000C18005F0020ADFF8A881029B634A84F8C2
:10B680007C5308F580710025C4E9E3815846C4F86D
:10B69000A43331464FF48073C4E9E133C4F878230E
:10B6A000C4E9E555C4E9E755C4F8806384F87D73BF
:10B6B000C4F8A893C4F8D05584F8D455A4F8C85554
:10B6C0002CF0F6FED4F8BC0307F00101FFF7F2FE00
:10B6D0004F4A504BD4F8BC03C4F8DC55C4F8E025FD
:10B6E000C4F8D835BAF1000F25D0D4F8C07317B319
:10B6F0003A6803689A421ED001233146384684F8DE
:10B70000D5352CF0D5FED4F8C00308F505722946CE
:10B710003CF02CF8D4F8BC032A4608F507713CF03D
:10B7200025F8019B93B93C482CF0DEFE3A480121F4
:10B730002CF012FF0AE0394A002302F1080184F8D4
:10B74000D5353CF013F8019B002BECD032482CF09F
:10B75000D7FE314807B0BDE8F08FCDE90403039B65
:10B7600013B1D9798B0716D5002007B0BDE8F08F4B
:10B7700015F00103F1D105F002018A46BAF1000F7C
:10B7800022D1D4F8BCB376E70B220C2150463CF012
:10B7900083FB039053E750463DF084FF039AC4F8BF
:10B7A000BC2315F0020ADDE90423C4F8B40305F054
:10B7B000020123D0904219D0C0B140F60C3CA0F851
:10B7C00006C0BAF1000FDCD0B8F1000FCCD0C4F83D
:10B7D000B82383B9BBF1000FC6D0C4F8BCB312B113
:10B7E00040F60B33D3805FFA81FACAE7B8F1000F55
