:020000040800F2
:10000000F0FF0010055B05088DD600083D5504087B
:10001000A55B0508A55B0508A55B050800000000B9
:1000200000000000000000000000000089D6000869
:1000300085D600080000000081D600085917040882
:10004000A55B0508A55B0508A55B0508A55B05087C
:10005000A55B0508A55B0508E565040811670408AC
:10006000D5660408996604085D660408C943050856
:10007000B9430508A94305089943050885430508C0
:10008000714305085D430508A55B0508A55B0508E8
:10009000A55B0508A55B0508A55B050821660408A6
:1000A0006D000408F10004085D000408190104084B
:1000B000E1000408D1000408C1000408A55B05089C
:1000C000A55B0508A55B0508A55B0508A55B0508FC
:1000D000A55B0508F1190408A55B05083519040896
:1000E000A9650408A55B0508A50801084D000408DA
:1000F0007D0004083D000408A100040849430508E8
:10010000A55B0508A55B0508B1000408A55B05080B
:1001100079180408A55B0508E18D0308CD8D030857
:1001200035430508214305080D430508F942050834
:10013000E5420508A55B0508A55B0508A55B050864
:10014000A55B0508A55B0508A55B050881F500080A
:10015000D1420508BD420508A9420508BD1704089B
:10016000A55B0508A55B0508A55B0508A55B05085B
:10017000A55B0508A55B0508A55B0508A55B05084B
:08018000A55B0508A55B05085D
:08018800B4560500010000005F
:100190000502010004000000804C0020004D0020FA
:1001A0000000000080080008030101000A000000B0
:1001B000283A0020044D002000000000FD8C0008BB
:1001C00013020100040000003C210020104D00201B
:1001D0000000000084080008122001001100000047
:1001E000EC4C0020144D002000000000880800089E
:1001F0000D10010040000000D4430020284D0020D5
:1002000000000000F9AF03080400080080000000AF
:1002100014430020684D0020000000000000000092
:100220000902010001000000BC420020E84D00204E
:10023000000000009A080008FD0101001E000000F7
:1002400084420020EC4D0020000000002FEC030849
:10025000FB01010001000000404200200C4E002084
:100260000000000095FD0408FC01010009000000E9
:100270000C410020104E002000000000A5FD0408E5
:10028000F701010006000000004100201C4E002084
:10029000000000009C080008F901010004000000B3
:1002A000FC400020244E002000000000D5EC030894
:1002B0000A80010028000000D4400020284E0020C1
:1002C00000000000B9AB0108160215003F00000055
:1002D000F8370020504E002000000000DDFC04082C
:1002E000340001001000000000400020904E00206B
:1002F0000000000005400208110201000800000093
:10030000D83F0020A04E002000000000A2080008F6
:100310001212010004000000D03F0020A84E00206F
:1003200000000000AA0800081820010032000000A8
:100330009C3F0020AC4E00200000000029FE040875
:10034000061001001C00000044270020E04E0020A1
:1003500000000000C1FD0408000201000B000000C5
:10036000203C0020FC4E00200000000009F704089B
:10037000FA01010003000000A83B0020084F002004
:1003800000000000FDF60408FE010100140000005A
:10039000D44B00200C4F002000000000D9F60408C8
:1003A0001B02010010000000CC6A0020387C0020F5
:1003B000000000004DF704081B1001000C000000B5
:1003C0007C640020487C002000000000A545010856
:1003D00021020100F0000000B8620020547C0020DF
:1003E0000000000061280108231201001000000035
:1003F000F4670020447D002000000000B0080008E1
:10040000371001002E0000003C6A0020547D0020BF
:1004100000000000C00800080E02010002000000F9
:10042000F0670020847D002000000000EE08000836
:100430001610010006000000E8670020887D0020FB
:1004400000000000F00800082F100100220000004A
:10045000147C0020907D002000000000F6080008B9
:100460001E0001000900000024670020B47D002068
:100470000000000018090008051001000600000037
:10048000D8670020C07D002000000000220900087D
:10049000F58101006800000048620020C87D00204E
:1004A00000000000513B0108232001001000000063
:1004B00064670020307E002000000000CDAC010801
:1004C000FD0701007600000086610020407E0020CC
:1004D00000000000091001080B3001001A000000A4
:1004E0006C610020E87E0020000000002809000860
:1004F0001F3001002400000090660020047F0020CF
:100500000000000044090008F62101000C00000072
:10051000008C0020E48C0020000000006809000826
:100520001C0202001C000000888C0020348D00207A
:100530000000000029FF040814000100040000006E
:10054000D08B0020508D00200000000074090008AE
:10055000012001000C0000004C830020548D00207D
:1005600000000000780900080C200600CC00000004
:100570002C820020608D0020000000009D7F030879
:100580000EF003009E010000688000202C8E0020E9
:1005900000000000B528020813000100040000005C
:1005A00014890020CC8F002000000000840900087E
:1005B0000101010004000000B87F0020D08F00205E
:1005C0000000000000000000000101000400000025
:1005D000B07F0020D48F00200000000088090008B0
:1005E0000201010003000000AC7F0020D88F002032
:1005F00000000000D97F0308220201001C01000056
:10060000FC860020DC8F0020000000004DFD040867
:1006100019000100050000001C9C0020789C0020AF
:10062000000000008C0900081A0001000E00000004
:10063000F0990020809C0020000000009209000832
:10064000203201000A000000E4990020909C002064
:100650000000000091280208150010007000000042
:100660007C9700209C9C00200000000000000000FF
:100670002A00080060000000109A00200C9D002055
:1006800000000000692802082C000400100000008F
:100690007C9D00206C9D0020000000004126020887
:1006A0002B00120024000000B09D00208C9D002033
:1006B0000000000015260208292014007800000020
:1006C00068950020D49D002000000000000000007C
:1006D000030001000100000010A4002044A4002039
:1006E0000000000000000000031201003D000000B7
:1006F000C4A3002048A4002000000000A0090008B6
:1007000025201E002C01000028A1002088A4002024
:1007100000000000000000001010010002000000B6
:10072000BCA00020B4A5002000000000DE090008E5
:10073000F82101000600000004A10020B8A5002057
:1007400000000000E0090008020001000C000000A9
:10075000F8A600208CA70020000000000000000088
:10076000290201004000000054A6002098A70020A4
:1007700000000000E60900080A0201001400000061
:10078000C8A50020F8A7002000000000058103088C
:1007900028020400040000004CAB0020F0AC002054
:1007A0000000000049F704082702040004000000CC
:1007B00048AB0020F4AC0020000000003DF7040826
:1007C0001F020800100000008CA80020F8AC0020D8
:1007D00000000000B1F604081A0201003C0000000D
:1007E0004CA8002008AD0020000000009DFE040879
:1007F000381001000100000018A8002044AD0020BE
:1008000000000000260A0008270001000400000084
:1008100070AD0020D0AD002000000000280A0008C4
:100820001002010001000000B0C70020ACC700208A
:10083000000000002C0A0008020201000300000072
:10084000A8C70020B4C7002000000000000000007E
:100850001D0202000600000090C70020B8C700205B
:100860000000000000000000081203000F0000005C
:1008700098C70020C0CD00200000000011F7040838
:100880000000000000000100000000010000055011
:10089000494B340000080002000013001E01000054
:1008A00000000000000001010101FFFFFFFF000048
:1008B0000000000000000000000000000000000038
:1008C00020003200C800D007960014003200280033
:1008D0004C0440060005500014000F00080064009E
:1008E0000100000005000A000000F401960000006D
:1008F000C409000019000000000000000000000012
:1009000000000000000000000000000000000000E7
:1009100000000000000000000005010000000000D1
:100920000000200003010000AE014A015E012C011D
:1009300064010200000001000A019A01001E0A0081
:10094000000200000000000000010000000500009F
:100950000102030000000000000000000000000091
:1009600000000000008007000000000001000000FF
:100970000202000003000023E8036400040A0001EF
:1009800014001E0008004030900100000000280103
:1009900000007E05EA05B4053200E803D007000038
:1009A0000000000000000000000000000000000047
:1009B0000000000000000000000000000000000037
:1009C0000000000000000000000000000000000027
:1009D0000000000000000000000000000100000511
:1009E0000101F401140000000000000000000000FC
:1009F00000000000000000000000000000000000F7
:100A000000000000000000000000000000000000E6
:100A100000000000000000000000000000000000D6
:0D0A200000000000000000002003000000A6
:100A2D000403090412010002EF020140830456324F
:100A3D000002010203010000120100020202004047
:100A4D008304405700020102030100000902200047
:100A5D00010104C032090400000208065005070513
:100A6D0081024000000705010240000009026400F8
:100A7D00030100C032090400000103000000092138
:100A8D00110100012236000705830309000A080B36
:100A9D000102020201000904010001020201000528
:100AAD00240010010524010002042402020524067D
:100ABD000102070582030800FF09040200020A0073
:100ACD0000000705010240000007058102400000FB
:100ADD0009024300020100C03209040000010202B4
:100AED000100052400100105240100010424020267
:100AFD000524060001070582030800FF0904010013
:100B0D00020A0000000705010240000007058102EE
:100B1D0040000000FF00000000FF0000000000008A
:100B2D000000AA550701000001AA550501000008A3
:100B3D00548B0508FF1FFF1F00000401000000007B
:100B4D000000000210000000070000007D00000002
:100B5D00010000000000803F05010905A101A10071
:100B6D0005010930093109320933093509340936CE
:100B7D0009371581257F7508950881020509190129
:100B8D00290815002501950875018102C0C00000D6
:100B9D0009022200010100E03209040000010301F5
:100BAD000200092111010001223600070583030906
:100BBD00000A00005D820008598200085582000875
:100BCD004982000845820008518200084D820008C4
:100BDD0000000000010203040102030406070809D6
:100BED00A1E0000879E80008F1E300085983000846
:100BFD00A5850008698300088583000831830008F6
:100C0D002183000800000000000000002D202D2D84
:100C1D00202D2D2D2D202D2D2D2D0000000000001F
:100C2D000000000000000000000000AA550B0100AC
:100C3D0000AA5505010000AA550902000000AA5599
:100C4D0003009F0001000000C01200000100000021
:100C5D00000001007EFF0000FFFFFFFFFF0000000E
:100C6D00FFFFFFFFE07E002000000000B87E0020A7
:100C7D0000000000B80F0608340F06080000000041
:100C8D0061800308A0860100040000000000000040
:100C9D000000000000000000000000000000000047
:100CAD000000000000000000000000000000000037
:100CBD0000000000B80F0608C00F06080000000075
:100CCD0091EA0308E80300000400000000000000A2
:100CDD000000000000000000000000000000000007
:100CED0000000000000000000000000000000000F7
:100CFD0000000000C80F0608000000000000000002
:100D0D00B9E702087D000000FF00000000000000B0
:100D1D0000000000000000000000000000000000C6
:100D2D0000000000000000000000000000000000B6
:100D3D000000000050410608000000000000000007
:100D4D0069F602087D000000FF00000000000000B1
:100D5D000000000000000000000000000000000086
:100D6D000000000000000000000000000000000076
:100D7D0000000000B41E0608000000000000000086
:100D8D00E53D03087D000000FF00000000000000AD
:100D9D000000000000000000000000000000000046
:100DAD000000000000000000000000000000000036
:100DBD0000000000D00F0608000000000000000039
:100DCD0039EF0308E80300000300000000000000F5
:100DDD000000000000000000000000000000000006
:100DED0000000000000000000000000000000000F6
:100DFD0000000000D40F06080000000000000000F5
:100E0D00B1AC020810270000030000000000000034
:100E1D0000000000000000000000000000000000C5
:100E2D0000000000000000000000000000000000B5
:100E3D0000000000583D06080000000021220208B5
:100E4D00A15504085F7600000500000000000000B9
:100E5D000000000000000000000000000000000085
:100E6D000000000000000000000000000000000075
:100E7D0000000000F4400608000000000000000023
:100E8D00B9790408102700000100000000000000DF
:100E9D000000000000000000000000000000000045
:100EAD000000000000000000000000000000000035
:100EBD0000000000E00F0608000000000000000028
:100ECD0095EA0308E803000005000000000000009B
:100EDD000000000000000000000000000000000005
:100EED0000000000000000000000000000000000F5
:100EFD0000000000EC0F06080000000000000000DC
:100F0D0045830308204E0000030000000000000090
:100F1D0000000000000000000000000000000000C4
:100F2D0000000000000000000000000000000000B4
:100F3D0000000000FC0F060800000000000000008B
:100F4D0041810308204E0000030000000000000056
:100F5D000000000000000000000000000000000084
:100F6D000000000000000000000000000000000074
:100F7D00000000000C10060800000000000000003A
:100F8D0035F50308400D03000300000000000000CC
:100F9D000000000000000000000000000000000044
:100FAD000000000000000000000000000000000034
:100FBD00000000001C1006080000000000000000EA
:100FCD00D1B303081027000001000000000000004D
:100FDD000000000000000000000000000000000004
:100FED0000000000000000000000000000000000F4
:100FFD0000000000600F0608000000000000000067
:10100D0065510108102700000300000000000000DA
:10101D0000000000000000000000000000000000C3
:10102D0000000000000000000000000000000000B3
:10103D000000000024100608000000000000000061
:10104D006DE90308A8610000010000000000000028
:10105D000000000000000000000000000000000083
:10106D000000000000000000000000000000000073
:10107D000000000030100608000000000000000015
:10108D001D1F0408A00F000001000000000000005B
:10109D000000000000000000000000000000000043
:1010AD000000000000000000000000000000000033
:1010BD00000000003C1006080000000000000000C9
:1010CD00118B010810270000010000000000000036
:1010DD000000000000000000000000000000000003
:1010ED0000000000000000000000000000000000F3
:1010FD00000000004810060800000000000000007D
:10110D005D8201081A41000001000000000000008E
:10111D0000000000000000000000000000000000C2
:10112D0000000000000000000000000000000000B2
:10113D00000000004C100608000000000000000038
:10114D00358D000810270000010000000000000090
:10115D000000000000000000000000000000000082
:10116D000000000000000000000000000000000072
:10117D0000000000480F06080000000000000000FD
:10118D0085ED010850C300000100000000000000C3
:10119D000000000000000000000000000000000042
:1011AD000000000000000000000000000000000032
:1011BD0000000000581006080000000000000000AC
:1011CD0055990008400D03000000000000000000CC
:1011DD000000000000000000000000000000000002
:1011ED0000000000000000000000000000000000F2
:1011FD000000000060100608000000000000000064
:10120D009D800308400D0300000000000000000059
:10121D0000000000000000000000000000000000C1
:10122D0000000000000000000000000000000000B1
:10123D00000000006810060800000000000000001B
:10124D008D96010850C3000003000000000000004F
:10125D000000000000000000000000000000000081
:10126D000000000000000000000000000000000071
:10127D0000000000741006080000000000000000CF
:10128D00F591030840420F0000000000000000002F
:10129D000000000000000000000000000000000041
:1012AD000000000000000000000000000000000031
:1012BD000000000080100608000000000000000083
:1012CD00B587030850C300000000000000000000B7
:1012DD000000000000000000000000000000000001
:1012ED0000000000000000000000000000000000F1
:1012FD000000000001007F00FF0100000100000060
:10130D0069A201080000000000000000FC9705081C
:10131D000000000000000000C9BF0108AC850020DE
:10132D000000000000000000000000009CAE050859
:10133D0000000000000000000000000054AF050890
:10134D0000000000000000000000000000AF0508D4
:10135D0001010000D1D801080000000000000000CC
:10136D0028B00508F9DB01080000000000000000AE
:10137D00E0AF05082D202D2D202D2D2D2D202D2DCF
:10138D002D00000000000000000000000000000023
:10139D0000000000FFFFFFFFF5C601080000000080
:1013AD00000000002CAE050801000000FA0000004E
:1013BD00010000000100000001000000000101011A
:1013CD0000FF0000488300200000F4010100000030
:1013DD00468300200000F40101000000448300203A
:1013ED000000F40101000000428300200000F40120
:1013FD0001000000408300200000F4010100000006
:10140D003E8300200000F401010000003C83002019
:10141D000000F401010000003DAA010801AA010825
:10142D0000000000E09A05082C8300200532010021
:10143D003A8300206400F40101000000388300208D
:10144D006400C409010000002A830020E803D007CE
:10145D000100000028830020E803D00701000000F0
:10146D0026830020E803D00701000000248300201C
:10147D001E00B80B010000003283002005000F0094
:10148D00010000003483002003000A000100000069
:10149D00228300201E00F40101000000368300208D
:1014AD00020000006C9B05082083002014006400DE
:1014BD00010000002E8300203200E803010000002F
:1014CD001E8300200000C8000100000029820020BA
:1014DD0000C8010028820020005001002782002052
:1014ED00005A01002582002002000000789B0508AB
:1014FD00D8150608E01506083A6400200100C40955
:10150D0000000000386400200100C4090000000044
:10151D00366400200100C40900000000346400207E
:10152D000100C40900000000306400200100C4095E
:10153D0000000000326400200100C409000000001A
:10154D002E6400200100C409000000002C6400205E
:10155D000100C40900000000D37F002000C8010075
:10156D00D27F002000C80100D07F00200000FFFFC7
:10157D000A000000CE7F00200100C800010000001D
:10158D00CC7F00203200307532000000CA7F002071
:10159D0005820500C87F002005002C010500000014
:1015AD00C77F0020055A0500C47F002000FF010001
:1015BD00C67F002002000000580C0020C27F0020D2
:1015CD000300000030920508C37F002000FF0100DA
:1015DD00C57F002002000000580C0020C17F0020B4
:1015ED00030000003092050891A9010821A9010806
:1015FD0000000000849B05085C830020EE02CA08F1
:10160D00010000005A83002000C8010064000000A2
:10161D005983002000C80100640000005883002099
:10162D0002000000909C0508BE7F00200000803E57
:10163D0005000000BC7F002080C1803E0500000039
:10164D00B67F00200083007D05000000B47F0020E0
:10165D0080C1803E05000000AF7F002000FF01002B
:10166D00A87F00206400F40101000000A67F002087
:10167D00040000009C9C0508A57F002002000000CE
:10168D00B09C0508598000200D000000BC9C050889
:10169D005680002000640100548000203200102785
:1016AD000A000000528000200D000000BC9C0508BF
:1016BD00518000200D000000BC9C050850800020CA
:1016CD0002000000F49C050800000000000000006E
:1016DD0000000000009D0508628300203E00000010
:1016ED00389D0508608300200100FF7F0100000088
:1016FD005F83002002000000349E05085B800020FF
:10170D0003000000449E05085A80002003000000DD
:10171D00449E050816820020000A01001482002054
:10172D000000E80301000000128200200000E80321
:10173D0001000000108200200000E80301000000FD
:10174D000E8200200000E803010000000682002048
:10175D000000E803010000000C8200200000E803F7
:10176D00010000000A8200200000E80301000000D3
:10177D0008820020001401002482002002000000D5
:10178D00549E0508228200200000F4010100000093
:10179D00208200200000F401010000001E820020C4
:1017AD000000F401010000001C8200200000F40183
:1017BD00010000001A8200200000A00F01000000AF
:1017CD00188200200000A00F010000000B830020F4
:1017DD00196401000A83002002000000609E0508C4
:1017ED0008830020E803D0070A00000006830020CC
:1017FD00006401000A000000FB820020006401006B
:10180D00FA820020006401000283002000640100C0
:10181D000A00000001830020006401000A0000009E
:10182D0000830020006401000A00000005830020F1
:10183D0000FF01000A0000000483002000FF0100EA
:10184D000A0000000383002000FF01000A000000D1
:10185D00FF82002001FF01000A000000FE8200202F
:10186D0001FF01000A000000FD82002001FF0100C0
:10187D000A000000648000200000F4010100000057
:10188D00628000200000A00F010000006080002099
:10189D000000A00F010000005E8000200000A00FDE
:1018AD00010000005C8000200000A00F010000007E
:1018BD002B85002000C801002A850020006401004E
:1018CD0029850020006401002885002000640100A6
:1018DD00278500200064010026850020FF080100F7
:1018ED00258500200164010089A801084DA8010883
:1018FD00000000006C9E05082E85002001320100BD
:10190D002D85002001000000DC9E05082C8500209F
:10191D0004000000E49E05082485002000640100F9
:10192D00228500201400E80301000000208500201E
:10193D00E80330750A0000001E85002000C8010074
:10194D001D85002000C801001C85002000C8010075
:10195D001B8500200032010030850020004B010066
:10196D002F85002004000000F89E05081A85002030
:10197D00006401000A0000003E8500200000D00731
:10198D00010000003985002000C8010038850020C5
:10199D0000C801003785002000C801003C850020EB
:1019AD000000D007010000003685002000C80100AE
:1019BD003585002000C801003485002000C80100D5
:1019CD003A8500200000D00701000000338500207B
:1019DD0000C801003285002000C8010031850020BB
:1019ED0000C8010041A6010829A601080000000059
:1019FD000C9F05084D800020005A01004C800020EE
:101A0D0000C801004A800020E803D0070100000053
:101A1D00000000000000000009C00108A89F050893
:101A2D0046465F50494B4F463400000065A50108FE
:101A3D0019A5010800000000F09F0508D9A40108B0
:101A4D0091A40108000000008CA00508B1A50108B3
:101A5D003DC30108000000000CA10508C07F002057
:101A6D0001030100FDAA0108D1AA01080000000030
:101A7D0064A405082DA40108E1A3010800000000DD
:101A8D00D4A4050851A6010841E501080000000095
:101A9D0070A5050819C9010829AB0108000000004F
:101AAD0018A60508A1A6010800000000000000000E
:101ABD00A4A605087DA7010825A7010800000000C0
:101ACD0008A7050811A80108D5A701080000000006
:101ADD00B0A70508391B0208C5A8010800000000C1
:101AED003CA805081D83002001060100E9A6010898
:101AFD00B5A601080000000038A905086D1A0208F6
:101B0D00A1C3010800000000A8A90508811B020857
:101B1D0069C4010800000000F8AA05081C83002014
:101B2D0001030100F9A50108C9A501080000000085
:101B3D00CCAB0508D91B0208000000000000000016
:101B4D0030AC050879A4010825C301080000000088
:101B5D00B0AC05080000000000000000000000000F
:101B6D0014AD0508F9A80108E1C401080000000042
:101B7D0084AD05080000000000000000000000001A
:101B8D009CAF05082C4C00209CFF2C010000000090
:101B9D00AC880020E0150C1700000000188500200F
:101BAD0002000000D4AF0508A07F002088136F1736
:101BBD0001000000A27F002088136F1700000000B5
:101BCD001A3A00200000000000000000183A002022
:101BDD000000000000000000163A00200000000088
:101BED0000000000143A002000000000000000007A
:101BFD00123A00200000000000000000103A002002
:101C0D000000000000000000B003002000000000F4
:101C1D0000000000287F002003000000C4B005086C
:101C2D00987F002088136F1701000000764C00206C
:101C3D0088136F170000000021A3010800000000A9
:101C4D0000000000D4B00508198500200100000037
:101C5D0028B10508784C00200100000034B10508BA
:101C6D006E4C0020020000003CB105080000000091
:101C7D00000000000000000048B1050809A301089C
:101C8D000000000000000000E4B1050800000000A5
:101C9D00000000000000000038B205080000000040
:101CAD000000000000000000A8B20508A47F00207D
:101CBD0002000000E0B20508724C0020E0150C1780
:101CCD0000000000009100205491002001D6010079
:101CDD000000803F00000000000000000000000038
:101CED0000000000000000000000000000000000E7
:101CFD0000000000000000000000803F0000000018
:101D0D0000000000000000000000803F0000000007
:101D1D0000000000000000000000803F00000000F7
:101D2D000000000000000000010000000000FA4368
:101D3D000000FA430000803FE1B5030800000000F9
:101D4D000000000000000000FFFFFFFFFF0000008B
:101D5D00FFFFFFFF00000000E8A7002008000000C3
:101D6D0000000000D8A7002008000000C589000869
:101D7D00B5840008D1E30008000000001D830008B1
:101D8D006DE0000879890008E1DF0008000000001F
:101D9D0000000000D98200086D82000861820008F1
:101DAD0031D700084DD7000815D70008F9D600081F
:101DBD00DDD600087D890008918400081DE3000828
:101DCD0000000000F1820008E5DF00084D890008E1
:101DDD003DDF00080000000000000000E582000863
:101DED000060024010600240000000000000000092
:101DFD00000B0000000000000000000000000000CB
:101E0D000060024028600240010000000000000058
:101E1D00060C0000000000000000000000000000A3
:101E2D00006002404060024002000000000000001F
:101E3D00100D000000000000000000000000000078
:101E4D0000600240586002400300000000000000E6
:101E5D00160E000000000000000000000000000051
:101E6D0000600240706002400400000000000000AD
:101E7D00200F000000000000000000000000000026
:101E8D000060024088600240050000000000000074
:101E9D0026100000000000000000000000000000FF
:101EAD0000600240A060024006000000000000003B
:101EBD0030110000000000000000000000000000D4
:101ECD0000600240B8600240070000000000000002
:101EDD00362F000000000000000000000000000090
:101EED000064024010640240000000000000000089
:101EFD00003800000000000000000000000000009D
:101F0D00006402402864024001000000000000004F
:101F1D000639000000000000000000000000000075
:101F2D000064024040640240020000000000000016
:101F3D00103A00000000000000000000000000004A
:101F4D0000640240586402400300000000000000DD
:101F5D00163B000000000000000000000000000023
:101F6D0000640240706402400400000000000000A4
:101F7D00203C0000000000000000000000000000F8
:101F8D00006402408864024005000000000000006B
:101F9D0026440000000000000000000000000000CA
:101FAD0000640240A0640240060000000000000032
:101FBD00304500000000000000000000000000009F
:101FCD0000640240B86402400700000000000000F9
:101FDD003646000000000000000000000000000078
:101FED0001000000A00F0000B80B00000102FFFF70
:101FFD00010000004C3D0608000008020503030027
:10200D0000000000543D060801000802050403000D
:10201D00000000003C3306080200FE010110030021
:10202D00000000005C190608030014020003000004
:10203D00000000005C3D060804001F0202000800BD
:10204D0000000000643D060805001F0202010800A3
:10205D0000000000FFFF0000FFFFFFFF1A0300005C
:10206D000000000000000000000000000000000063
:10207D00000000000000000004030904120100022A
:10208D0000000040830420570002010203010000FC
:10209D00B5FF040895F7040891F704088DF70408B7
:1020AD00DD01050889F7040885F70408F400060822
:1020BD00518A00087184000839E100080000000011
:1020CD000000000031DE000859DE000800000000AD
:1020DD000000000000000000CD8200082DF804086B
:1020ED0021F80408FD06050819070508D9F70408A5
:1020FD00E1060508C50605081F0000001C000000CC
:10210D001F0000001E0000001F0000001E00000048
:10211D001F0000001F0000001E0000001F00000037
:10212D001E0000001F0000000068214C940A0608E4
:10213D00000000000000000001020304060708096A
:10214D0001000000B0180020000000000000000099
:10215D000000000000000000000000000000000072
:10216D000000000000000000000000000000000062
:10217D000000000000000000000000000000000052
:10218D000000000000000000000000000000000042
:10219D000000000000000000000000000000000032
:0821AD0000000000000000002A
:082800000000000000000000D0
:108000002DE9F04700230F6801264FF0030C02E032
:108010000133102B41D006FA03F232EA0704F7D1FC
:10802000D0F800E05C000CFA04F52EEA050EC0F86A
:1080300000E091F80490D0F800A009FA04FE09F1DC
:10804000FF394EEA0A0EB9F1010FA846C0F800E068
:108050006FEA050515D8D0F808E005EA0E05856039
:108060004D79D0F808E0A54045EA0E0585604568E1
:1080700025EA020242608A7945689A4092B22A4310
:108080004260C26822EA0802C260CA79C568A2409A
:1080900001332A43102BC260BDD1BDE8F08700BF79
:1080A000074AD2E9003199421FBFD1180133097A3A
:1080B00001701DBFC3F30A03012013600020704745
:1080C00010190020064AD2F80838D2F80C2893423A
:1080D00094BF4FF400600020013B9B1A1844704786
:1080E00010190020012380F85130704707B501A80E
:1080F000FFF7D6FF0028FAD09DF8040003B05DF822
:1081000004FB044BD3E90003984288BF03F50063E6
:10811000181A70471019002001207047024BC3F84D
:108120001028C3F81418704710190020024BC3F828
:108130001828C3F81C1870471019002070477047A2
:1081400030B4124DD5E900239A4286BF03F500648E
:10815000A21A9A1A0A44B2F5006F11D899B10144D3
:108160004A1E013810F8014FE918824203F1010359
:108170000C72C3F30A03F5D16B60002030BC70476A
:10818000022030BC70470846F8E700BF10190020F5
:10819000212838B50C4605D022282ED0202813D00F
:1081A000002038BD0029FBD0072AF9D11A4BD3F89B
:1081B000200893F8241893F8252893F8263820608F
:1081C00021716271A371EBE70029E9D0072AE7D199
:1081D000114DD5F814381BB10968D5F81008984727
:1081E000206821796279A379C5F8200885F82418D8
:1081F00085F8252885F82638D2E70029D0D0022A2C
:10820000CED1054AD2F81C38002BC9D00988D2F843
:1082100018089847C4E700BF10190020024B00203F
:10822000C3F82808704700BF10190020044B002035
:108230000522C3F82828C3F81C08C3F8140870479F
:1082400010190020704700BF704700BF704700BF83
:10825000704700BF704700BF704700BF704700BF46
:10826000042301480B8070478801002010B4074A9E
:10827000074B92F82C08122403F114020C800128F9
:108280000CBF184610465DF8044B704710190020CB
:108290008C01002010B40C4A92F8303802EBC30174
:1082A0000133DBB2042B4FF0050408BF00234FF469
:1082B000045081F8344882F83038C1F838085DF845
:1082C000044B4FF0FF307047101900202023014865
:1082D0000B807047B4010020642301480B80704775
:1082E000D4010020432301480B807047380200204E
:1082F00010B5084CD4F8F400FF2809D00649D1F88D
:10830000542801F65801FFF743FFFF23C4F8F43067
:10831000002010BD8801002010190020E8E700BFF0
:1083200008B5D0F8E4355B6A9847002008BD00BF67
:1083300008B5D0F8E4351B6A9847002008BD00BF97
:10834000D0F8E43510B504461B689847D4F8E835F2
:108350009B689847002010BD08B5D0F8E435DB696C
:1083600003B19847002008BD08B5042290F8121107
:10837000D0F8E83580F8131180F81221DB689847AF
:10838000002008BD10B5D0F8E83504461B699847B1
:10839000032384F81231002010BD00BF0B0617D450
:1083A00001EB810300EBC30310B400EB8100012457
:1083B000002283F8764383F8741383F87523426DA3
:1083C0005DF8044B136843F40013002013607047FA
:1083D00001F07F0101EB810300EBC303012200EBFD
:1083E000810083F81C1183F81E2183F81D21826906
:1083F0001368002B01DA43F0804343F40013136049
:10840000002070470B0630B41CD401EB810200EB56
:10841000C202002300EB810582F8741382F87533E1
:1084200001241A4604FA01F16D6D61F31F420169DE
:108430006FF3CF332B60CB6923EA0203002030BCFB
:10844000CB61704701F07F0101EB810400EBC404B4
:10845000012200EB8105002384F81C1184F81D2102
:1084600002FA01F11A46AD6961F30F02DFE700BFBE
:1084700010B581210446FFF7C5FF20460121FFF713
:10848000C1FF024B002083F8600810BD10190020C6
:1084900010B581210446FFF7B5FF20460121FFF703
:1084A000B1FF82212046FFF7ADFFFFF7B7FE0020A6
:1084B00010BD00BF38B50D4604468321FFF7A2FF6B
:1084C00029462046FFF7E4FF002038BDF0B41646E9
:1084D0000A063AD401EB810500EBC50528240022E9
:1084E00004FB0104022B85F87413C5F87C6385F83E
:1084F000773385F8752304F55D7448D0154600EB95
:108500008107012202FA01F17F6D61F31F45D7F85F
:1085100000C01CF4004F11D1E488204946F080527D
:1085200042F4004242EA834204F00F041C4B42EA48
:10853000845211400CEA0303194339600269D3697C
:108540002B430020F0BCD361704701F07F0101EBA9
:10855000810500EBC5052824012204FB0104022B40
:1085600085F81C11C5F8246185F81F31A5F8221182
:1085700085F81D2104F58E740CD0002500EB8107D1
:10858000012202FA01F1BF6961F30F05BFE7227111
:108590001546B4E700252571F0E700BFFF87CC132F
:1085A000007833EC002310B5194604464022FFF74B
:1085B0008DFF8021204600234022FFF787FFD4F85B
:1085C000E835A078012284F812215B6898470020E2
:1085D00010BD00BF82B00023016801930B690193B5
:1085E0000E4B03E00A690192013B13D0019A002A65
:1085F000F8DA019A094B42F001020192019A0A61EC
:108600000A69019203E00A690192013B02D0019AD2
:10861000D207F8D4002002B0704700BF400D03001D
:10862000436D064A1A61C278012A06D100F2CC5085
:1086300058614FF0802219681A607047180008606E
:1086400010B580210446FFF7A9FE20460021FFF760
:10865000A5FE2046BDE81040E2E700BF70B44B78AD
:10866000012B26D00B784A6900EB83035C6D2568EB
:108670002369D2B18A684A6102F07F0223F40023A1
:1086800023F07F0342F4002213432361C378012BBC
:1086900004BF0B696361C5F3076363F07B0363F396
:1086A0001F652560002070BC70478A6802F07F0259
:1086B000E4E782694C691568136944B38E68B44273
:1086C0008CBF06F07F0404F07F0423F4002323F022
:1086D0007F0344F4002443EA040388BF4E6113611E
:1086E000C378012B1DD0C5F3076464F07B0464F3E9
:1086F0001F651560002BD5D14B69002BD2D00269C4
:108700000878516B012383400B435363CAE723F47A
:10871000002323F07F0343F400231361C378012B6C
:10872000E1D10B780C6900EB8300C5F30763816925
:1087300063F07B0363F31F654C610020156070BC20
:10874000704700BF2DE9F0434B78012B30D00B78F8
:108750004C6900EB83035E6D356837691CB38B6829
:108760001C44013CB4FBF3F4C4F3090203FB02F321
:10877000C3F312034B61144643EAC44363F31C077B
:108780003761C378012B04BF0B697361CB78012B70
:1087900044D0C5F3076363F07B0363F31F65356063
:1087A0000020BDE8F0838A680124C2F31203E3E7E6
:1087B00091F800804E6900EB880EDEF818C0DCF8F6
:1087C0000050DCF8107076B3D1F80890384A06EB08
:1087D0000904013CB4FBF9F402EAC444C6F31202F2
:1087E0002243CC7807F060473A43012C174649D022
:1087F000CCF81020C278012A55D00269516B03FAD7
:1088000008F30B435363C5F3076363F07B0363F320
:108810001F65CCF800500020BDE8F0834B7973B39E
:1088200045F00055B5E707F0604747F40027CC78DE
:10883000CCF81070C378012B2FD0012CE3D1026942
:108840009268D20554BF45F0005545F08055C5F3F8
:10885000076262F07B0262F31F65CCF80050002BC8
:108860009ED1B0B203308010DEF8D04098D0CA68F4
:1088700052F8041B216001339842F9D190E745F08A
:10888000805586E764F35E77CCF81070C378012BCF
:10889000D5D10A69CCF81420D1E70A69CCF81420A4
:1088A000012CB0D1CBE70B69CCF81430ABE700BF9B
:1088B0000000F81F38B501EB810400EBC4040D463D
:1088C000002184F87453C4F88C1384F87513C4F829
:1088D0008833C4F88023C3782821012B01FB0501CC
:1088E00008BFEDB201F55D7108BFC4F884231DB95E
:1088F000FFF7B4FE002038BDFFF724FF002038BD8D
:1089000070B5104BD3F86C2893F8845804461AB10C
:1089100093F870382B430DD081212046FFF73EFDA0
:10892000022D00D070BD2046074ABDE870401F23CD
:108930000121BFE70121FFF731FD20468121BDE87C
:1089400070402BE5101900207421002010B501EBB8
:108950008101084A00EBC1010446B1F88C131046AE
:10896000FFF7EEFB034A204640230121FFF7A2FF59
:10897000002010BD98210020E8E700BF10B50223B9
:10898000044640228121FFF7A1FD20460223402218
:108990000121FFF79BFD8221204603230822FFF7D8
:1089A00095FD064B02229A83FFF740FC044A2046BD
:1089B00040230121FFF77EFF002010BD8801002029
:1089C0009821002038B509220D460446032383214F
:1089D000FFF77CFD29462046FFF7D0FF002038BD79
:1089E00082B000230193019A094B42F010020192D8
:1089F000C168019A0A610A69019203E00A69019259
:108A0000013B02D0019AD206F8D4002002B0704790
:108A1000400D030082B000230193019A0B4B42F0FA
:108A200020020192019A61F38A120192C168019AAF
:108A30000A610A69019203E00A690192013B02D0CE
:108A4000019A9206F8D4002002B07047400D03004E
:108A500070B50446144EFFF70BFD2046022340225A
:108A60008121FFF733FD4022012120460223FFF739
:108A70002DFDD6F8C83800251B6886F860582846B2
:108A800086F8845898472046FFF7AAFF2046012120
:108A9000FFF7C0FF204606F664021F230121FFF7FF
:108AA00009FF284670BD00BF101900200E4BDA6880
:108AB000D20310D4DA68D1060FD4DA68D20510D404
:108AC000DA6812F0E00F0AD1DB6813F0020F14BF6E
:108AD00008200920704701207047062070470720B2
:108AE00070470220704700BF003C0240024A536AB0
:108AF00023EA00005062704700380240024A136ABD
:108B000023EA0000106270470038024000207047DE
:108B1000704730B1034B93F9CC080028D4BF002034
:108B2000012070471019002008B5FFF7F2FF60B16F
:108B3000064A92F8CD3892F8CE285B0003F0020383
:108B4000002A18BF43F001030B6008BD1019002074
:108B500008B5FFF7DEFF18B1024BD3F8D0380B8011
:108B600008BD00BF1019002070B5FFF7D2FF90B10B
:108B7000094AB2F8D45875B1D2F8D8680023B34284
:108B80001C4608DA02EB44040133B4F8DC48AC427A
:108B9000DBB2F4D30B7070BD1019002008B5FFF7DD
:108BA000B8FF10B100230B70137008BD042070478C
:108BB00028B1034B93F9F800003818BF0120704723
:108BC0008801002008B5FFF7F3FF50B1054B93F97A
:108BD000F820012AC3BF93F8FB30C3F340030B60B6
:108BE000002008BD8801002008B5FFF7E1FF18B19B
:108BF000024B93F8FA300B7008BD00BF88010020CB
:108C000070B5FFF7D5FF38B10E4C94F8FB30DB0799
:108C100003D500230B70137070BD0B4D94F9F93020
:108C200095F8EC6893FBF6F301330B7094F9F94077
:108C300095F8EC1894FBF1F301FB13430133137027
:108C4000EAE700BF880100201019002003207047C8
:108C500070B50B4A92F8F03806255E1CB6FBF5F4A9
:108C600005FB146492F8F158AC421FBF02EBC3033A
:108C700082F8F048C3F8F408C3F8F81870BD00BFD4
:108C800010190020002230B504461046914200DC45
:108C900030BDA35C0825584010F0800F4FEA400318
:108CA00018BF83F0D503013DD8B2F5D10132EDE70D
:108CB00010B5E9B10F4BD3F82409814218DCBAB1E1
:108CC000D3F8EC389A4213DC0B4C013A013903FB20
:108CD000012184F8061104F581700521FFF7D2FF08
:108CE000062184F8070104F58170BDE81040AFE764
:108CF00010BD00BF10190020880100200023038050
:108D000083708380C3800372704700BF074A08499D
:108D100092F8283909780133DBB2994282F8283970
:108D200004BF002382F82839704700BF10190020C3
:108D300014000010F8B5794CD4F82C3983B1784B75
:108D40005B6893F82E305BB1764B94F83029A3FB27
:108D50000013012A4FEA931330D0022A08D002B13F
:108D6000F8BD714B9842FBD9012384F83039F8BD26
:108D7000D4F8342964329A423ED894F8283904EB66
:108D8000031393F8B42DFF2A06D06849013201205D
:108D900083F8B42D81F80801FFF7B8FF94F8A83DD7
:108DA0000122092B84F83029DAD1B4F8523E134459
:108DB0009BB2A4F8523EA4F8AE3DF8BD94F8281931
:108DC000C4F834398C2303FB014394F8A80D83F8CD
:108DD0004A29002604F63C150A220223092884F8B1
:108DE0004669C4F8385984F8472984F83039B7D12E
:108DF0000131A4F8AC1DF8BD94F8462994F8473920
:108E00009A42ADD104F63B1004F64415002310F845
:108E1000012F082153405A0013F0800F08BF5B0058
:108E200082F0070214BFD3B2DBB20139F3D185421D
:108E3000EDD194F845299A4239D194F82869B4F8CB
:108E40003F5994F84379B4F8410994F8443994F8B7
:108E50003DC904EB06126DBA40BA43EA0723ADB22E
:108E600094F83E7982F8B41DC2F8B85D81B22F4DF6
:108E700094F93C09C2F8BC1D47EA0C271BB201213A
:108E8000032EA2F8B67DA2F8C03D82F8B50D85F894
:108E9000081109D894F8A82D0C2A2AD00D2A03D13C
:108EA00004EB4606A6F8AC0DFFF730FF5CE794F83C
:108EB000283904EB031393F8B42DFF2A06D01B497D
:108EC0000132012083F8B42D81F80801FFF71EFF5D
:108ED00094F8A83D0122092B84F830297FF440AF93
:108EE000B4F8503E13449BB2A4F8503EA4F8B03DF1
:108EF000F8BD94F84E1E0E4A03EB830303EB830385
:108F000049089B0004EB460693FBF1F382FB031236
:108F1000DB17C3EBA203A6F8AC3DC5E71019002090
:108F200014000010D34D62103F4B4C00880100200C
:108F3000676666660B4B93F8461993F8472991428A
:108F40000ED010B493F84629D3F83849511CD2B248
:108F5000C0B2C9B283F84619A0545DF8044B7047FB
:108F6000704700BF10190020484B98422ED0B0F136
:108F7000804F32D0464B984236D0464B98421ED056
:108F8000454B984237D0454B98423BD0444B984292
:108F90003FD0444B98424BD0434B984240D0434B38
:108FA00098424CD0424B984251D0424B984256D0B6
:108FB000414B98425AD0414B98425ED07047404A4C
:108FC000136A43F004031362042097E53C4A536A92
:108FD00043F001035362012088E5394A136A43F0E4
:108FE00001031362012089E5354A136A43F0020345
:108FF0001362022082E5324A136A43F008031362C7
:1090000008207BE52E4A136A43F0100313621020F8
:1090100074E52B4A136A43F02003136220206DE5A8
:10902000274A536A43F4803353624FF480305DE53E
:10903000234A536A43F002035362022056E5204A52
:10904000536A43F4003353624FF400304EE51C4A38
:10905000536A43F4802353624FF4802046E5184A54
:10906000136A43F040031362402047E5144A136A31
:1090700043F080031362802040E5114A136A43F4F1
:10908000807313624FF4807038E500BF0000014028
:109090000004004000080040000C004000100040A8
:1090A0000014004000040140004001400044014021
:1090B0000048014000180040001C00400020004013
:1090C00000380240134B10B400220F2483F8561EC0
:1090D000090A83F8550E83F8571EC3F8582EC3F8B3
:1090E0005C2EC3F8602E83F8544E03F654600121C1
:1090F00010F8014F013122440E29D2B2F8D183F881
:10910000622E0549D3F8640E5DF8044B102238F046
:10911000CDBE00BF1019002064270020054B0021A0
:1091200083F8681EC3F86C1ED3F8643E03B1C9E728
:10913000704700BF10190020F8B51A4C94F8703E23
:10914000002BFBD159B301444E1E451ED4F80C2808
:10915000D4F8081815F8017F531CC3F30A038B4297
:109160002CBF4FF400600020C91A22440144012999
:10917000C4F80C3882F8747E0FD1012038F048FA18
:10918000D4F80838D4F80C188B4294BF4FF400621E
:1091900000225B1A1344012BEFD0B542D6D1002038
:1091A000F8BD00BF101900200A4B0846D3F8281854
:1091B00010B569B1D3F82838052B09D1064C002A1F
:1091C000D4F87C3504DD1146FFF7B6FFD4F87C35C2
:1091D00010BD00BF10190020082A002010B590F81B
:1091E0005010002380F8503089B10C4CD4F8282856
:1091F0007AB1D4F82828052A0DD1094C3C30D4F88E
:109200007C35FFF799FFD4F87C35012010BD012093
:10921000FCE71046FAE71846F8E700BF10190020EF
:10922000082A0020002280F85120D7E790F850202B
:10923000531C0244DBB280F8503082F83C1090F8A6
:1092400051200AB1132B00D9C8E7704770B5104EF2
:10925000D6F88045054600686408FFF785FEB4FB34
:10926000F1F3B3F5803F03D3012CFAD96408F6E794
:10927000224699B2284636F0D7FF064BC6F8E83D9D
:1092800028460549BDE87040002236F04DBF00BFBA
:10929000082A002079DE0108F03700202DE9F04F80
:1092A000C84DC94C84460F4616460FCD2DED068B92
:1092B0000FC40FCD0FC495E80700C44B8DB093F8D1
:1092C000363E039684E80700CDE908C7042B00F278
:1092D0006F81DFE813F0C0016D0168010500D00166
:1092E0009FEDBB8ADFEDBB8ADFF81C93BA49C9F852
:1092F0002410BA49BA4BBB4AC9F820100399002977
:1093000018BF134638EE887AF5EE006A86EE87AA13
:10931000DFF8F8B2C9F82C30B34FB44B04930BF517
:109320005F680026DFEDB27A9FEDB29A28EE278AB9
:10933000F0EE679A099BB34200F02F81049B13F86B
:10934000014B0493731C0593DAB2002C00F0988152
:10935000002303E00133152B00F0928103EB43015E
:109360005D0018F80100A042F4D15944069291F82A
:10937000F11D002900F08C81204637F0D7F80368F2
:1093800007938246184637F0BDF89AF8051037F073
:1093900015FA90F800E0BEF1000F40F071810BEB80
:1093A000050025090321013D069A079B80F8312E0F
:1093B0008D4280F8301E04F00F0C00F23881814895
:1093C00000EB4500808D40FA0CF414F0010400F02D
:1093D0004081012404FA0CF3013B184006924CF042
:1093E00019FA784B844A1D44032195F83430184407
:1093F00002EBC0031546069A9971DA7155F83000F0
:10940000704D7B6100F13F4101F57E0105EB91213B
:109410009AF8082091F8381001F01F05490903292E
:1094200004FA05F400F01081042900F008810229F3
:1094300000F000819B880A93B3FA83F3C3F11F0302
:10944000C3F3CC0100EB810103F007030C6A9B001E
:109450000F259D4024EA05040C620C6A02FA03F30E
:1094600023430B6202230AA90B93FEF7C9FDDAF826
:109470000030039A002A00F0CB80544AB2F8342E10
:1094800000EE102AB8EEC00AFCEEC07A17EE901A71
:109490005A4A934200F09180A2F58062934200F014
:1094A0008C8002F58042934200F0878002F5806252
:1094B000934200F0828002F5806293427DD0DBF817
:1094C000802550084FF6FF73B0FBF1F21A44120CDE
:1094D000B0FBF2F20398002872D0B2FBF1F18BB22C
:1094E0003A4890F8360E04280BBF07EE901A07EEA4
:1094F000902AF8EE677AF8EE676A05BF07EE102A41
:1095000067EEA97A66EE887AF8EE476A29EE677AFE
:109510002E49A6EEA87A91F8370E0899009101908D
:1095200051463846C7ED027A87ED037A2FF056F997
:10953000002E78DD7B68D9F84020934275D0012E4B
:1095400071D0D9F8582093426FD0022E6BD0D9F841
:109550007020934269D0032E65D0D9F888209342B9
:1095600063D0042E5FD0D9F8A02093425DD0052EA1
:1095700059D0D9F8B820934257D0062E53D0D9F8F5
:10958000D020D31A18BF0123059E3B740122082E58
:109590007A7407F118077FF4CDAE0B480DB0BDEC1F
:1095A000068BBDE8F08F9FED168AF0EE488A9BE6A9
:1095B0009FED148AF0EE488A96E6DBF8800581E795
:1095C00019468DE7908705081C000010101900202F
:1095D000ACC5A737ACC5A73601D90208C5EC03084E
:1095E000BDD40208B9EC0308500000104B2700203E
:1095F0006F12833A00007A4464380020000401406E
:10960000282930386F12033914000010082A00206E
:10961000B0EE4A0A06934CF03FFFFCEEC07A069B80
:1096200017EE901A34E70123AEE70023ACE7C7F842
:1096300014E01EE717494D6C2C434C64FAE61549BB
:109640000D6B2C430C63F5E612490D6C2C430C6436
:10965000F0E67C610DE7DFF858909FED0F8A0F4B25
:109660000F4AC9E908320023089301230393F0EE5F
:10967000488A0C4B46E6DFF838909FED0B8AEEE700
:109680000A4A084BC9F82420C9F82C30002085E785
:109690000B68FFDE003802406F12833AC5EC030806
:1096A00001D90208B9EC030800000000B5D7020890
:1096B00014000010F8B50546262020F0FBF9144CE4
:1096C000014600BBD4F8E40F90F838301E3B012B64
:1096D00001D938F01FFC0F4F0026AE420BDB0E4ABB
:1096E00032F8F03C013322F8F03C0B4BD4F87C25E7
:1096F00043F8E02CF8BD17F8011BD4F8E40F38F05C
:1097000009FC0136E9E7044B002203F8E22CECE700
:10971000082A0020F0390020003B002038B5154C05
:1097200094F8F13894F8F0289A421CD004EBC30363
:10973000114AD3F8F418D3F8F8080023984213DC40
:109740008B780E4A5B0802F8E23C42F8DC0CFFF72B
:10975000B1FF94F8F13806210133B3FBF1F201FBBC
:10976000123384F8F13838BDCD5C02F8015B013367
:10977000E4E700BF10190020F0390020003B002072
:109780002DE9F84F1B4C05461E2014F8D8AC14F8F0
:10979000D7BC14F8D66C34F8D49C34F8D28C14F8B6
:1097A000D07C20F087F930B1B8F1000F1EBFC14660
:1097B00001264FF0000A14F8CE3CDA070AD414F858
:1097C000C92C3AB9012F12D0022F03D113F0020F86
:1097D00008BF012685F800A085F801B0AE70A5F895
:1097E0000490A5F806802F722846BDE8F88F3E4603
:1097F000F0E700BF003B002013B50446FFF7D8F99F
:1098000008B300230DF106022046ADF8063013F030
:109810007BFFC0B10D4C9DF8062094F9F81084F838
:109820000D21032908BF62F07F024FF005010848AF
:1098300008BF84F80D21FFF725FA062184F80E01F0
:109840000348FFF705FA02B010BD00BF88010020F1
:10985000910200202DE9F84F2DED028BFFF7A8F9BA
:10986000002844D0264B93F9F80001283FDD93F8F7
:109870000F41DFF894809FED238A0FF27C0BDBE928
:1098800000AB15468E1E02EB44094D4504D1BDECDC
:10989000028B2046BDE8F88F38F8027B26F8027F5D
:1098A00007EE907AF8EEE77A67EE887A17EE900A7C
:1098B0004BF0C0FB52465B464BF014FC41EC100BE6
:1098C0004EF046FC51EC100B4BF034FF0E2F80B2E3
:1098D0000AD919303223B0FBF3F080B200EB8000DC
:1098E00000EB8000400080B225F8020BCDE7002499
:1098F000CDE700BFAFF300801655B5BBB16B02409A
:1099000088010020CDCCCC3D5C3A002038B50D4616
:10991000FFF74EF9044638B10C4890F8FB30DB07EE
:1099200004D5B0F8FC002880204638BD084A90F9DC
:10993000F93092F8EC2893FBF2F102FB113201327C
:10994000013100F5887013F0F3FEECE78801002088
:10995000101900202DE9F04FA94D15F8943C8BB05B
:109960008146002B40F0B58055F8906C002E00F039
:10997000B080A44AD2F8144104F0F021B1F1E02FF4
:109980006ED1C2F8143155F88C2C944268D00493EF
:109990000593ADF8183035F8D43C15F8D8ECADF88F
:1099A000143015F8D7CC15F8D03C15F8D6AC8DF896
:1099B00018300DF110088DF810E08DF811C08DF8F9
:1099C00012A098E8070007AB03C38F4F1A80C4F3B7
:1099D00042533B44C4F3034293F83E1045F88C4C89
:1099E0008E4502F1010201D1944508D030468DF830
:1099F0001C108DF81D2013F09BFEADF820003046A2
:109A000014F0CCF8032804F0070B34D0042836D027
:109A100000239A4501A9304618BF8DF81E3013F077
:109A200001FF48B1019BC4F3001103F001038B4215
:109A300002D0304613F0A4FF0A2207A940464EF098
:109A40002EFE68B19DF81E30BDF81C2005F8D63CEE
:109A5000BDF8203025F8D82C25F8D43C40F04AFB3E
:109A600015F888AC04AF15F8883C032B7BD8DFE8E9
:109A700003F00A3376A35F4497F84330C9E75F44A5
:109A800097F84B30C5E73946304613F0D1FE04460F
:109A900058B107A8FFF774FE9DF81E109DF810300E
:109AA0008B4260D0304613F0E1FF15F8883C01335B
:109AB00003F0030305F8883C0CB99A45D3D115F897
:109AC000CE3CDB0700D524B1336849461B683046DD
:109AD00098470BB0BDE8F08F01A8FFF751FE15F8CD
:109AE000CE8C9DF8044008F00108ECB1B8F1000FED
:109AF00039D13A460DF10301304613F09CFE04467D
:109B000088B307A8FFF73CFE9DF81C109DF80330B2
:109B10009DF81D208B4203D19DF81030934222D036
:109B2000304613F0ADFFC0E7B8F1000FBDD13946A4
:109B3000304613F07AFE0446A8B107A8FFF720FECE
:109B4000BDF82010BDF810308B420CD005F8878C82
:109B500005F8868C336830469B699847A5E715F869
:109B6000CE3CD80701D500249FE707A9304613F063
:109B700059FE04460028F6D01E201FF09BFF15F862
:109B8000853C83428046EED005F8850C60B135F8FF
:109B9000D23C002BE7D1079BD907E4D40121304602
:109BA00013F0EEFE444680E7079BDA07DBD501465B
:109BB000304613F0E5FE78E73846FFF7E1FD97E819
:109BC000070007AB03C31A809DF810309BB10DF15D
:109BD0001D0207A9304613F02EFE0DF11E0130467E
:109BE00013F026FE0A2207A938464EF058FD041E3F
:109BF00018BF012459E708A9304613F016FEECE718
:109C0000003B0020880100209087050800F01F021B
:109C100040090123032803FA02F304D004280CD0DE
:109C2000022805D07047074A116C0B431364704734
:109C3000044A516C0B4353647047024A116B0B4347
:109C4000136370470038024000487047C438002052
:109C50002DE9F84FCB4C14F8841C0546C1F34001A4
:109C600054F87C0C3BF048FC14F8841C54F8800C2D
:109C7000C94301F001013BF03FFC002D00F0E780FB
:109C800005F1FF39C04EC14FC14D5FFA89F94FF060
:109C9000100854F87C3C33B11A689B8851690B4218
:109CA00014BF5383138354F8803C33B11A689B88E4
:109CB00051690B4214BF5383138334F8743C002B57
:109CC00040F0578114F8721C54F8700C3BF014FCEF
:109CD000FA204FF47A714FF0010C7B68C3F308034C
:109CE000002B40F01981EFF31183002B40F0148119
:109CF000D6F87C25D5F808E0D6F87C359A42F7D11D
:109D000054F84C3C9E45F3D854F850AC01FB0AF390
:109D1000A3EB0E03B3FBFAF301FB02327B68C3F340
:109D20000803002B40F0B680EFF31183002B40F0C6
:109D3000B180D6F87C35D5F808B0D6F87CE5734507
:109D4000F7D154F84CECF345F3D854F850AC01FB80
:109D50000AFEAEEB0B0EBEFBFAFE01FB03E39B1A01
:109D6000B3F57A7FDAD30138B7D154F87C3C33B1FC
:109D70001A689B8851690B4214BF5383138354F8AC
:109D8000803C33B11A689B8851690B4214BF5383DE
:109D9000138334F8743C002B40F0DF8014F8721CFD
:109DA00054F8700C81F001013BF0A6FBFA204FF44F
:109DB0007A714FF0010C7B68C3F30803002B40F06D
:109DC0008A80EFF31183002B40F08580D6F87C2544
:109DD000D5F808E0D6F87C359A42F7D154F84C3CD7
:109DE0009E45F3D854F850AC01FB0AF3A3EB0E03E5
:109DF000B3FBFAF301FB02327B68C3F3080343BBF6
:109E0000EFF311832BBBD6F87C35D5F808B0D6F824
:109E10007CE57345F7D154F84CECF345F3D854F88E
:109E200050AC01FB0AFEAEEB0B0EBEFBFAFE01FBD3
:109E300003E39B1AB3F57A7FDED30138BBD109F176
:109E4000FF395FFA89F9B9F1FF0F7FF422AFBDE85E
:109E5000F88FEFF3118A88F31288D5F808B02B68D1
:109E6000DB0344BF44F854CCD5F808B0D6F87C35B1
:109E700054F854EC5FFA8AFA8AF3118854F850AC1B
:109E8000734401FB0AFEAEEB0B0EBEFBFAFE01FBB8
:109E900003E3CEE7EFF3118A88F31288D5F808B010
:109EA0002B68DB0344BF44F854CCD5F808B0D6F88F
:109EB0007C3554F854EC5FFA8AFA8AF3118854F826
:109EC00050AC734401FB0AFEAEEB0B0EBEFBFAFE78
:109ED00001FB03E343E7EFF3118E88F31288D5F813
:109EE00008A02B68DA0344BF44F854CCD5F808A086
:109EF000D6F87C3554F8542C5FFA8EFE8EF3118818
:109F000054F850EC1A4401FB0EF3A3EB0A03B3FB25
:109F1000FEF301FB02326FE7EFF3118E88F3128834
:109F2000D5F808A02B68DA0344BF44F854CCD5F820
:109F300008A0D6F87C3554F8542C5FFA8EFE8EF3C8
:109F4000118854F850EC1A4401FB0EF3A3EB0A03FA
:109F5000B3FBFEF301FB0232E0E654F8583C002B61
:109F60003FF424AF54F86C2C0023136004F85B3CDE
:109F70001CE754F8583C002B3FF4AAAE37F00CFC19
:109F8000A6E600BF003B0020082A002000ED00E00C
:109F900010E000E02DE9F04FCA4CCB4E14F8841CC1
:109FA00054F87C0CDFF82883C84D83B0C1F340011E
:109FB0003BF0A2FA14F8841C54F8800CC94301F059
:109FC00001013BF099FA052301934FF0100954F871
:109FD0007C3C33B11A689B8851690B4214BF538390
:109FE000138354F8803C33B11A689B8851690B4243
:109FF00014BF5383138334F8743C002B40F0598111
:10A0000014F8721C54F8700C3BF076FA32204FF4BE
:10A010007A710127D8F80430C3F30803002B40F00D
:10A020001B81EFF31183002B40F01681D6F87C25BD
:10A03000D5F808E0D6F87C359A42F7D154F84C3C74
:10A040009E45F3D854F850AC01FB0AF3A3EB0E0382
:10A05000B3FBFAF301FB0232D8F80430C3F3080370
:10A06000002B40F0B780EFF31183002B40F0B2805B
:10A07000D6F87C35D5F808B0D6F87CE57345F7D12D
:10A0800054F84CECF345F3D854F850AC01FB0AFEFD
:10A09000AEEB0B0EBEFBFAFE01FB03E39B1AB3F51E
:10A0A0007A7FD9D30138B5D154F87C3C33B11A68E2
:10A0B0009B8851690B4214BF5383138354F8803C2F
:10A0C00033B11A689B8851690B4214BF53831383C1
:10A0D00034F8743C002B40F0E08014F8721C54F803
:10A0E000700C81F001013BF007FA32204FF47A71D5
:10A0F0000127D8F80430C3F30803002B40F08B800D
:10A10000EFF31183002B40F08680D6F87C25D5F83C
:10A1100008E0D6F87C359A42F7D154F84C3C9E457D
:10A12000F3D854F850AC01FB0AF3A3EB0E03B3FBD6
:10A13000FAF301FB0232D8F80430C3F3080343BB3F
:10A14000EFF311832BBBD6F87C35D5F808B0D6F8E1
:10A150007CE57345F7D154F84CECF345F3D854F84B
:10A1600050AC01FB0AFEAEEB0B0EBEFBFAFE01FB90
:10A1700003E39B1AB3F57A7FDDD30138B9D1019B94
:10A180005F1E17F0FF0301937FF421AF03B0BDE81A
:10A19000F08FEFF3118A89F31288D5F808B02B6895
:10A1A000DB0344BF44F8547CD5F808B0D6F87C35BE
:10A1B00054F854EC5FFA8AFA8AF3118854F850ACD8
:10A1C000734401FB0AFEAEEB0B0EBEFBFAFE01FB75
:10A1D00003E3CEE7EFF3118A89F31288D5F808B0CC
:10A1E0002B68DB0344BF44F8547CD5F808B0D6F89C
:10A1F0007C3554F854EC5FFA8AFA8AF3118854F8E3
:10A2000050AC734401FB0AFEAEEB0B0EBEFBFAFE34
:10A2100001FB03E342E7EFF3118E89F31288D5F8CF
:10A2200008A02B68DA0344BF44F8547CD5F808A092
:10A23000D6F87C3554F8542C5FFA8EFE8EF31188D4
:10A2400054F850EC1A4401FB0EF3A3EB0A03B3FBE2
:10A25000FEF301FB02326EE7EFF3118E89F31288F1
:10A26000D5F808A02B68DA0344BF44F8547CD5F82D
:10A2700008A0D6F87C3554F8542C5FFA8EFE8EF385
:10A28000118854F850EC1A4401FB0EF3A3EB0A03B7
:10A29000B3FBFEF301FB0232DEE654F8583C002B20
:10A2A0003FF423AF54F86C2C0023136004F85B3C9C
:10A2B0001BE754F8583C002B3FF4A8AE37F06CFA7B
:10A2C000A4E600BF003B0020082A002010E000E0C8
:10A2D00000ED00E0B0B10C4951F8483C102B03D11F
:10A2E0000521002036F02EBF03EB43020A4402F89A
:10A2F000440C202002F8430C0120034402F8420CD5
:10A3000041F8483C704700BF003B002000285FD068
:10A310000368374A2DE9F04103F13F4404F57E0418
:10A3200002EB9422012492F8382002F01F05520912
:10A33000032A04FA05F456D0042A4FD0022A48D042
:10A340008588B5FA85F0C0F11F00C0F3CC0603EB99
:10A35000860600F0070082000F24306A944020EA4D
:10A3600004003062306A01FA02F2024300213262D4
:10A370004FF0010E0A464FF0030C02270EFA02F8C6
:10A3800038EA050002F101021CD118680CFA01F448
:10A3900020EA04001860186807FA01F606431E60F8
:10A3A0009E6826EA04069E6098689860586820EACD
:10A3B0000800586058685860D86820EA0400D860DF
:10A3C000D868D860102A01F10201D7D1BDE8F08128
:10A3D0007047084A556C2C435464B1E7054A156B25
:10A3E0002C431463ACE7034A156C2C431464A7E7B1
:10A3F0009087050800380240F8B5764D05EB00134C
:10A4000053F8142C002A00F0968013F80C6C0022EC
:10A4100003F8082C044607013046FFF7F7FB06F067
:10A420001F0276090123032E03FA02F300F09B803A
:10A43000042E00F08980022E00F08180EB19013497
:10A4400013F8100C3AF078FDE4B2064610B112236E
:10A45000C4718371EB1913F80F0C3AF06DFD10B154
:10A460001323C4718371EB1913F80E0C3AF064FDD9
:10A4700010B11423C4718371EC190A2114F80D2C46
:10A4800030463AF045FE14F80F0C3AF055FD14F83A
:10A490000D2C0A213AF03CFE14F80E0C3AF04CFD5B
:10A4A0000A2114F80D2C3AF033FE54F8141C4A4BD0
:10A4B00099425DD0494B99424BD0494B994261D06A
:10A4C000484B994268D0484B99426FD0474B9942CC
:10A4D00076D03D4415F8083C73BB01240220444A61
:10A4E0000D88B2F81A61B2F81831B2F82271A2F8E8
:10A4F00020413343B2F81C61A2F81E013343B2F885
:10A5000024613B43B2F8267133433B43B2F82861E0
:10A5100005F44152134303439BB223430B808B8BBF
:10A5200023F400631B041B0C8B830E820B889BB2ED
:10A5300043F040030B80F8BD00242046CFE72D4AAE
:10A54000516A0B43536279E72A4A11690B4313613D
:10A5500074E7284A136A43F4804313624FF480403F
:10A56000FEF7CCFAB5E7234A116A0B43136265E79D
:10A57000204A536A43F4805353624FF48050FEF7ED
:10A58000B5FAA6E71B4A136A43F4004313624FF47B
:10A590000040FEF7B3FA9CE7164A536A43F40053AF
:10A5A00053624FF40050FEF7A1FA92E7114A536A42
:10A5B00043F4801353624FF48010FEF797FA88E754
:10A5C0000C4A536A43F4001353624FF40010FEF731
:10A5D0008DFA7EE7003B002000300140003800404B
:10A5E000003C004000340140005001400054014054
:10A5F000880100200038024070B5404E347F04EBE3
:10A60000440306EBC303650093F82030032B64D8A2
:10A61000DFE803F050241B02254406EBC505686AF9
:10A62000002866D196F880309C4256D0013404F060
:10A6300003029342327750D002EB420406EBC4048B
:10A640000223606284F8203070BD2B1906EBC3032F
:10A650005A6A62B1013A5A62002070BD2B1906EBAA
:10A66000C3035A6A002AF5D1022283F82020254428
:10A6700006EBC50595F82C30013BDBB285F82C3094
:10A680006BBB1F4B96F88060D3F82C11A86A621C34
:10A6900002F003024B1E0324B242034485F820401B
:10A6A000B3FBF1F0686218D0994216D8013868629D
:10A6B000012070BD3CF0B8FB78B1114B2C44D3F8AD
:10A6C0002C2106EBC404012102F51C5384F8201050
:10A6D0000F33B3FBF2F3636270BD012070BD084B12
:10A6E000D3F82C21012002F2E733B3FBF2F36B62C3
:10A6F00070BD01386862002070BD00BF003B0020C3
:10A70000880100202DE9F04F2DED108B034697B006
:10A7100004331593DFEDCACA149002238A461392BC
:10A720008B461293149C4FEADB0604EB461202EBB5
:10A7300006103101A6EB86034FEAC60806EB460574
:10A74000CDE9000100EBC303043108F104001196C8
:10A75000204421442C01C6EBC60C0394EC00119D4F
:10A7600004944FEACC0405946C0106EB860E029427
:10A77000159D009C03EB46174FEACE0E02EBC60672
:10A780004FEACB094FF0000C51ED01AAD3ED001AAE
:10A7900092ED007A94ED005A96ED004AD7ED007ADA
:10A7A00015ED012A50ED016A32EE07BA76EE840A01
:10A7B0007AEE855A31EEA70A3BEE256A70EE804AA2
:10A7C00076EEC46A36EE244A36EE646A05ED014A36
:10A7D00082ED006AD0ED00BAD6ED012AD3ED019AE0
:10A7E00095ED00AA92ED016A97ED013A91ED00CA4C
:10A7F000D4ED014A7BEEE23A36EEE19A32EE472A98
:10A8000073EEE98A3AEE464A39EE279A78EE838A61
:10A81000B0EE428AA9EE6C8ADC44E24573EEC33A9C
:10A82000B0EE441AA8EEEC1A76EEE77A33EEA97A87
:10A830007CEE643A77EEA17A3AEE066A7AEEC51AB1
:10A840003CEE24AA74EECC4A39EE833A35EE6A5ACD
:10A85000F0EE639AF0EE48AAE7EE2C9AA8EEAC4A26
:10A86000E7EE2C4AE7EE6CAAF0EE418AB0EE427AAF
:10A87000B0EE612A7BEE656A7BEEA22A76EE4A5A3A
:10A88000A9EE2C7AA7EEAC2AA7EEAC5AE7EEEC8A3A
:10A8900032EE83BA76EEC3BA35EEE09A75EEC07A40
:10A8A00036EE0A6A76EEE26A36EE0BAA76EE836A36
:10A8B00077EEA07A34EE423A77EE290A36EE4B6A0A
:10A8C0007BEEA22A39EE000A73EEAA3A78EE244A09
:10A8D00037EE697A31EE055A71EEA85A32EE044A23
:10A8E00085ED00AA82ED016A4D4441ED012A4A44FA
:10A8F000C4ED006A81ED000AC4ED017A494440EDDF
:10A90000010A4C4487ED007AC6ED003AC3ED004AD7
:10A9100080ED003A87ED014A484486ED015A4F44E4
:10A92000C3ED015A4E444B443FF62EAF119B072B0B
:10A9300040F2C781029D149E019B03980499059AD9
:10A94000083575190C330E95354608F108080EF1D7
:10A950000804EB1808300831083246442C1928182E
:10A960006918AA18079305F10C030D960C940B9027
:10A970000A91099208934FF001084FF0000E129BC4
:10A980009E44139B03EBCE0303EBCE02109302EB2A
:10A99000CE0303EBCE01029101EBCE0101EBCE051C
:10A9A00005EBCE06D6ED007A0F93AEEB8E03019148
:10A9B00006EB031303EBCE07D3ED01AACDED067A28
:10A9C000019BD5ED007A97ED01BACDED057AD3ED77
:10A9D000007A029BCDED047AD3ED007A0F9BCDED8A
:10A9E000037A07EBCE0CD3ED007ADCED01BACDEDA6
:10A9F000027A0CEBCE01D2ED007A109A009101EBB5
:10AA0000CE00014691ED01DACDED017A0099D2ED4B
:10AA1000007A91ED01CA00EBCE0000EBCE0494ED7C
:10AA200001EAD0ED01DACDED007ADDE90776DDE966
:10AA30000954DDE90B01DDE90D23C44602E000BF46
:10AA4000F304353F94ED009A90ED00FA91ED006A21
:10AA5000D5ED007AD3ED006A57ED014A92ED005A28
:10AA600056ED013A96ED00AA35EE060A73EEA65AA7
:10AA700039EE278A34EE8F7A70EE082A75EE87EA6F
:10AA800035EE465A3EEEA26A73EEE63A06ED016AEC
:10AA9000D1ED019AD2ED01FAD4ED016AD3ED011A9C
:10AAA00095ED013AD0ED018A97ED004A3FEEE96A53
:10AAB00035EE491A76EE660A31EE271A3AEE612A29
:10AAC00075EE677A70EE830A3FEEA95A74EECF9A5C
:10AAD00077EE897A7AEE211AB0EE42AA74EE68FA1D
:10AAE000A0EEECAADC44E24535EEC77AB0EE639AFC
:10AAF00074EE285A38EEC44AF0EE698AA1EE6C9AD8
:10AB0000E7EEAC8A36EE436A7FEE644A36EE266A9A
:10AB1000A0EEAC2AF0EE4A0AE7EEEC0AE7EEAC4A09
:10AB2000F0EE687AF0EE498A36EE833AE6EE6C8A09
:10AB3000E1EE2C3AB0EE6F1AA6EE2C1A71EEE56A31
:10AB4000A6EE2C4A71EEA55A75EE031A7EEEE22AA5
:10AB500037EE43FA75EEE1EAB0EE686A76EEC08A47
:10AB600039EE044A7FEE86FA76EEC86A33EE816AE1
:10AB700038EE888A73EEC13A37EE457A2CEE2E1AFB
:10AB80003FEE055A22EECC9A9DED03FA70EE266A4E
:10AB900033EE077AAFEE221AAFEE2E9A7AEE244AFF
:10ABA0009DED01FA79EEA09A25EE4BAA72EE670AA6
:10ABB00037EE822A6BEE087AAFEE08AAEFEE057A3E
:10ABC0002DEEA63A9DED05FA67EE6D8AAFEE073AD7
:10ABD000EFEE268A66EE6A2A9DED00FA2AEEA00ABA
:10ABE000EFEE202A6EEE02EADDED060A23EECE5AE3
:10ABF000E0EEA3EA2BEEA98ADDED023AAFEE060AFB
:10AC0000A3EE848A24EE6B7A6DEE246A9DED044AED
:10AC10002FEECD6AA0EE825AA3EEA97AE4EE2F6A57
:10AC2000A4EE246A75EEA15AC6ED005A83ED001A0F
:10AC300083ED019A4E4447ED017A87ED00AA4B441B
:10AC400080ED003AC0ED018A4F4482ED000A48448D
:10AC5000C2ED012AC5ED00EA85ED015A4A44C1ED75
:10AC6000006A81ED016A4D4484ED008A84ED017A29
:10AC700049444C443FF6E6AE0E9B08330E930D9BC1
:10AC800008330D930C9B08330C930B9B08330B93E9
:10AC90000A9B08330A93099B08330993089B0833DE
:10ACA0000893079B08330793119B08F1010843455C
:10ACB0007FF465AE129BDDF844B0DB009BB21293CB
:10ACC00030E517B0BDEC108BBDE8F08F08480023CD
:10ACD00002461178022902F1060204D00133062B44
:10ACE000F7D10020704703EB430300EB43007047AC
:10ACF000843B0020F0B59E4C85B0242204F18400F2
:10AD000000214DF0F4FC94F8A960002E3BD1D4F85A
:10AD1000BC306BB39B6A5BB39648984783683BB380
:10AD20000388DFF878C2013B9BB26046654600218C
:10AD30002F78032F05F106051DD001310629F7D123
:10AD400000220178022900F1060000F0A7800132FC
:10AD5000062AF6D1D4F8E410052909D0481C02FBD4
:10AD600001C2C4F8E40002200021938010705180D9
:10AD7000304605B0F0BD062303FB0141B1F8863033
:10AD8000013B9BB2DCE794F8A80004F1B003C4F8DF
:10AD9000AC3008B90026BAE73AF0CEF8C4F8B800EB
:10ADA00018B183790BB1412BF4D1751E02236DB21A
:10ADB0009D4284F8B030EDDC04EB051555F8143CE9
:10ADC000002BE7D0C4F8B43008B12023C380092198
:10ADD00035F0D0FED4F8AC3098683AF087FBD4F860
:10ADE000AC301021586849F0F7FA634BD4F8AC2026
:10ADF000C4F8DC2093E803000123009032208DF892
:10AE0000041084F8E030002536F002FC052302AA85
:10AE10006946D4F8AC008DF80A508DF809503BF023
:10AE2000EDFE9DF80A209DF809009DF80B10534B8C
:10AE3000120242EA00420A439A4200F0908031DC5A
:10AE4000A3F5F1139A425ED042DD4D4B9A4252D0A7
:10AE500002339A4262D14FF400724FF48073A4F827
:10AE6000C020A4F8CC30B4F8CC20B4F8C030120222
:10AE700002FB03F300204FF48071B3F1807FC4E93B
:10AE8000312384F8CE00A4F8C21057D801253D4BD9
:10AE900084F8D5502E46C4F8BC3038E7062101FBB3
:10AEA00002C260E7384B9A4235DC053B9A4235DDF9
:10AEB000364B1344032B4AD801A252F823F000BFAB
:10AEC00007AF0008F7AE0008E9AE000857AE00086B
:10AED000A3F52203013B9A4239D02BDD2C4B9A4239
:10AEE00009D001339A4219D14FF48073A4F8C030CD
:10AEF000A4F8CC30B7E780224FF48073A4F8C020C8
:10AF0000A4F8CC30AFE740224FF48073A4F8C020FF
:10AF1000A4F8CC30A7E71F4B9A42E5D0002694F85E
:10AF2000A800A4F8C060C4E93166A4F8CC603BF086
:10AF300043FEECE6184B9A42D6D0EFE70123D4F853
:10AF4000DC0084F8D430B72147F02EFA9EE72022A7
:10AF50004FF48073A4F8C020A4F8CC3083E74FF4FA
:10AF600080621023A4F8C020A4F8CC307BE700BF97
:10AF7000003B0020BC3B0020E48705081640E000B1
:10AF80001720C200EC8705081940EF00EABF10FF48
:10AF900017BA20001870EF0018600100843B0020F1
:10AFA00099B10A6B824216D9154BD3F814219142FC
:10AFB00021D34C3991421ED30B6B9842F9D38B6B42
:10AFC0009842F6D80B46184670470D4BD3F814112B
:10AFD0000A6B904212D30B680BB9F4E70A6B9042EC
:10AFE0000B4602D38A6B9042EDD951F84C3F002BAF
:10AFF000F4D1184670470023184670470A46D8E730
:10B00000003B00202DE9F047CC0143D10346224A02
:10B0100043F8082B4FF0FF324260022418467E2688
:10B02000DFF87880D8F818912644013E051D49467E
:10B030006FF070474FF0010A08E0A3421CD0631C78
:10B0400045F8043C321B1C460435CAB10B6BA342C5
:10B0500002D88B6BA34204D22046FFF7A1FF014622
:10B0600090B10A794B6B002AE7D1A34204D0E6D213
:10B0700045F8042C631CE5E745F8047C631CE1E714
:10B08000C8F81811BDE8F08745F804AC321B631C02
:10B090004946D8E78026C3E7F8FFFF0F003B0020B2
:10B0A000F0B40D6800240CE0BCF1050F18D8A0F135
:10B0B00037030A2B14D104EB840415F8010B03EBBE
:10B0C0004404A0F13003DEB2092EA0F16107A0F123
:10B0D000410CF0D9052FE7D8A0F157030A2BEAD08D
:10B0E0000D601460F0BC7047036870B55E6A26B1ED
:10B0F00033460522BDE87040184704460D464E1DF4
:10B1000000E023689B68204698470028F9D0236810
:10B1100015F8011B1B6820469847B542F1D170BD58
:10B120002DE9F047164D0746002095F9259105F5C4
:10B13000967684B007EB010805F5737504464FF069
:10B14000B60A3368ABB193F83830142B11D019F12B
:10B15000020F01D04B450CD1002269463046CDE9A3
:10B160000244CDE90078ADF808A08DF80E402EF02D
:10B170008BF9E036B542E4D104B0BDE8F08700BFFA
:10B18000003B00202DE9F743124E0124A02318258F
:10B190005FFA84F8FF2B14DCD6F8CC03E9B2C1F1D6
:10B1A0001C0282725F1C026880F80B80DBB2009385
:10B1B000C1F11B01D2F8189000234246C9B2C8471A
:10B1C0003B46013DE6D10134052CE0D103B0BDE89A
:10B1D000F08300BF003B0020094B93F8363E042B60
:10B1E00008D9053B032B08D801231A4600B1037088
:10B1F0001046704700230122F8E700231A46F5E7BE
:10B20000101900202DE9F0479AB0DDE9226ADDF837
:10B21000909004460D461746984602E0206836F0A6
:10B220006DFE206836F072FE0028F7D101466422D8
:10B2300001A84DF05CFA264B8DF80450CDF85CA0C7
:10B240000293002D40D0AB1E012B3FD9042D14BF1B
:10B25000002203221F4B0396D3F87C358DF805207E
:10B260001E440123CDE9059404968DF85B3037B177
:10B270004246394607A84DF0D9F98DF85A80164E46
:10B2800096F8129400231893B9F1000F19D196F88B
:10B290001104642202FB006001A900F214404DF089
:10B2A000C5F9012386F8119486F81234236843B156
:10B2B00043463A46294620461AB0BDE8F0470EF00C
:10B2C000C3B91AB0BDE8F0870522C3E70222C1E77F
:10B2D000D03E0020082A0020003B00209FED737A1A
:10B2E00007EE901A20EE070AF8EE677A27EE800A3A
:10B2F000FDEEC07A17EE903A2033402B00F2C78063
:10B30000DFED6B7AB4EEE70AF1EE10FAF0EE407A78
:10B310000CDD9FED686ADFED686AB0EE677AB4EE27
:10B32000E67AF1EE10FA77EEC67AF6DC9FED637AF4
:10B33000F4EEC77AF1EE10FA0CD59FED5E6ADFED00
:10B34000606AB0EE677AB4EEE67AF1EE10FA77EE64
:10B35000867AF6D49FED5B7AF4EEC77AF1EE10FAB6
:10B3600000F38D809FED587AF4EEC77AF1EE10FA73
:10B3700044BF9FED527A77EE677A27EEA76ADFED3A
:10B38000535A9FED537ADFED536AA6EE257A67EEA6
:10B39000865AE6EE076AB6EE007AE5EEA67A27EE62
:10B3A000877ADFED486A70EE267ABDEEE76A16EE20
:10B3B000103A2033402B67D8B4EEE60AF1EE10FACB
:10B3C0000CDDDFED3C5A9FED3C6AF0EE676AF4EE6F
:10B3D000C66AF1EE10FA77EEE57AF6DCDFED376A51
:10B3E000F4EEE67AF1EE10FA0CD5DFED325A9FED6D
:10B3F000346AF0EE676AF4EEC66AF1EE10FA77EEA0
:10B40000A57AF6D4DFED2F6AF4EEE67AF1EE10FAC3
:10B4100040DDDFED276A76EEE77A67EEA75A9FED0B
:10B420002B5A9FED2B6ADFED2B6AA5EE856A27EE7E
:10B43000A55AE5EE866AB8EE006AE5EE267A67EE72
:10B44000867AC7EE206A0023836143610362C36189
:10B45000B7EE006A76EE865A76EE666A86EE257A52
:10B4600067EE277A66EE876AC0ED017AC0ED037A4F
:10B4700080ED007A80ED027AC0ED046A70479FED9E
:10B480000C7A77EE677A78E7DFED137AD9E79FEDEC
:10B49000127A86E7DFED0C6AF4EEE67AF1EE10FA46
:10B4A00044BFDFED066A76EEE77AB6E727D4D236F8
:10B4B000DB0F4940DB0FC940E4CB1641DB0F49C02D
:10B4C000E4CB16C1DB0FC93FDB0FC9BF92E741B91F
:10B4D0009730083C15A82ABE000000000C480D4B10
:10B4E000D0F8941410B40C4CC0F884348A1E223165
:10B4F000B0F8AE341B01A4FB03C3DB08A3F5B063B3
:10B5000022F8023F9142F3D15DF8044B704700BF2F
:10B51000003B0020791F0208CDCCCCCC70B5084C84
:10B52000251D2E4614F8010B2EF07AF928B1037868
:10B5300005F8013BB442F5D170BDFF23F8E700BF29
:10B54000D03F00202DE9F0471D4F012607F10805E7
:10B55000B2464FF03C094FF0000817F8010B39F0E4
:10B56000EBFC044690B180F80690C671FB7803F0BE
:10B570007F02012A18D013F0800F20460DD185F8E4
:10B58000048039F0ADFF85F805802C600136052E6A
:10B5900005F10805E1D1BDE8F08785F804A039F090
:10B5A000A5FF85F805A0F0E71B0605D4012120467C
:10B5B00035F0E0FAFB78DEE739F098FFF6E700BFF8
:10B5C000D83F00202DE9F04FDFF8E091DFF8E0A14F
:10B5D00083B009F10C05012419F8018BB8F1000FB3
:10B5E00000F0BF804FEA1817013F032F08F00F0249
:10B5F00000F2BA800AEB4703988D40FA02F616F083
:10B60000010600F0C38001239340013B18405744DA
:10B610004AF000F997F834305E4E184406EBC00645
:10B6200004236E61F471B371002303E00133152B21
:10B6300000F09780584903EB43025F00895C414565
:10B64000F4D1564B1A4492F8F11D002900F0A08065
:10B65000404634F06BFF8046006834F053FF98F8A2
:10B66000051035F0ABF80378002B7AD14B4B3B44F7
:10B67000042283F8314E83F8302E002E58D03368E0
:10B6800098F8080003F13F4202F57E020AEB92228D
:10B69000012792F8382002F01F015209032A07FA05
:10B6A00001F169D0042A62D0022A6AD0B6F804C037
:10B6B000BCFA8CF2C2F11F02C2F3CC0103EB810190
:10B6C00002F007020E6A92000F27974026EA07064B
:10B6D0000E620E6A90403043002208624FF0010B68
:10B6E00011460BFA01FE3EEA0C001CD11868032635
:10B6F000964020EA060018601F68022090403843F8
:10B7000018609F6827EA06079F60986898605868E5
:10B7100020EA0E00586058685860D86820EA060091
:10B72000D860D868D8600131102902F10202D8D15E
:10B730001B4B1C4AB3F80015B3F8023500910020EA
:10B7400001340190B2FBF3F328469BB24146E4B2C8
:10B750002DF044F80123092C6B7405F118057FF4D2
:10B760003BAF03B0BDE8F08F00266E615CE70E4F83
:10B770003A6B0A433A6399E70B4A176C39431164F1
:10B7800094E7094A576C394351648FE76E614BE780
:10B790000B68FFDE64380020F8370020082A0020FC
:10B7A000003B002040420F000038024004400020CF
:10B7B000908705082DE9F0418C4B82B093F8D02595
:10B7C0000190002A40F00C8193F8F425B3F8F615A7
:10B7D000DFED876AB3F8F885864D07EE102A07EE8D
:10B7E000901AB8EEC76AB7EE007AB3F8F215A5F86A
:10B7F0000881F0EE475A4FEA4804E6EE665A8C425A
:10B80000B8BF0C46A6EE267AA6B20121F8EEE77A7A
:10B81000A5F80C6167EEA67AC5ED3F5A85ED407A32
:10B82000C5ED417A83F8D015002A00F0D680DDED11
:10B83000017A9FED710AF8EE677AA4B280EE270ACA
:10B840004AF070FE6400B0FBF4F4012CB8BF012490
:10B85000E4B2B0FBF4F39BB2074685F8104100EE6A
:10B86000103ABBEEED0A85ED450A4AF05BFE634BEC
:10B87000DFED636AB8FBF0F0A3FB0737FF0807EEC4
:10B88000907AF8EEE77A022886EEA77AB8BF02200F
:10B890005C4985F8180100239FED5B1A9FED5B6AF8
:10B8A000DFED5B1ADFED5B5A9FED5B2ADFED5B2A74
:10B8B0009FED5B3ADFED5B3A9FED5B4A85ED477AA2
:10B8C00007EE903AB8EEE77AF0EE467AE7EE017AC4
:10B8D000FDEEE76A16EE902A2032402A7AD8B4EEBE
:10B8E000E17AF1EE10FA0CDDDFED506A9FED507A4F
:10B8F000B0EE675AB4EEC75AF1EE10FA77EEE67A78
:10B90000F6DCF4EEE57AF1EE10FA0CD5DFED476ADD
