:020000040800F2
:1000000000000120A1760508217705084D5304085A
:10001000B153040821770508217705080000000086
:10002000000000000000000000000000217705082B
:10003000217705080000000021770508690C0408F5
:10004000217705082177050821770508217705081C
:10005000217705082177050821770508217705080C
:10006000217705082177050821770508115B050828
:10007000015B0508F15A0508E15A0508CD5A050843
:10008000B95A0508A55A05082177050821770508FA
:1000900021770508217705082177050821770508CC
:1000A000C12E0508492F0508B12E0508712F050836
:1000B000392F0508292F0508192F05089D5D05080A
:1000C000C55D050821770508217705082177050812
:1000D0002177050841180408F9150408B11304082C
:1000E000217705082177050821770508A12E050845
:1000F000D12E050821770508F92E0508915A050823
:100100002177050821770508092F050821770508BB
:1001100069110408210F040821770508BDF80008BB
:100120007D5A0508695A0508555A0508415A0508B7
:100130002D5A05080000000000000000000000002B
:10014000000000000000000000000000BD0D0108DC
:10015000195A0508055A0508F1590508D90C04086B
:1001600021770508217705082177050821770508FB
:100170002177050821770508000000000000000035
:1001800021770508217705082177050821770508DB
:100190002177050821770508000000002177050870
:1001A00000000000000000000000000021770508AA
:1001B00021770508217705080000000000000000F5
:1001C000000000000000000000000000000000002F
:1001D000000000000000000000000000217705087A
:0801E000F871050001000000A8
:1001E8002320010010000000CC3D0120484D0120D3
:1001F80000000000DD3F02080D100100640000004F
:100208005C3D0120584D0120000000004DA8030866
:1002180004000800800000009C3C0120BC4D012027
:100228000000000000000000FB01010001000000C8
:100238001C3C01203C4E01200000000025F204086F
:10024800FC01010009000000E83A0120404E0120AD
:100258000000000035F20408F70101000600000064
:10026800DC3A01204C4E0120000000002009000863
:10027800F901010004000000D83A0120544E012081
:10028800000000006DEE03080A800100280000004D
:10029800B03A0120584E012000000000C93E020873
:1002A800160215003F000000F0280120804E0120B2
:1002B800000000006DF10408340001001000000087
:1002C800DC390120C04E0120000000009D730208A7
:1002D8001102010008000000B4390120D04E0120AD
:1002E80000000000260900081212010004000000A6
:1002F800AC390120D84E0120000000002E0900086A
:10030800182001003200000078390120DC4E01205D
:1003180000000000C1F20408061001001C000000E3
:10032800D4280120104F01200000000055F20408D5
:10033800FD01010021000000603C01202C4F01203C
:1003480000000000BFED03081220010011000000AA
:100358007C380120504F01200000000032090008BD
:10036800000201000B000000B8350120644F012095
:1003780000000000C5EC040813020100040000009E
:10038800D0280120704F0120000000004409000817
:10039800FA0101000300000038350120744F0120E4
:1003A80000000000A9EC040802020100030000009C
:1003B800A8340120784F0120000000000000000050
:1003C8000C02010004000000843401207C4F01204D
:1003D80000000000CDEC0408FE010100140000003C
:1003E800EC2B0120804F01200000000081EC040864
:1003F8002312010010000000AC550120305A0120E2
:100408000000000048090008371001002E00000015
:10041800D8590120405A012000000000580900085E
:100428000E02010002000000A8550120705A0120A8
:1004380000000000860900081610010006000000F0
:10044800A0550120745A0120000000008809000806
:100458002F100100220000000C5A01207C5A0120B4
:10046800000000008E0900081E00010009000000BD
:10047800DC530120A05A012000000000B009000848
:1004880005100100060000008C550120AC5A01201F
:1004980000000000BA090008F581010068000000AA
:1004A80034530120B45A012000000000BD45010862
:1004B800FD070100760000007A5201201C5B012034
:1004C80000000000BD2501080B3001001A000000E3
:1004D80060520120C45B012000000000C009000830
:1004E8001F3001002400000070540120E05B01204F
:1004F80000000000DC0900080502010004000000FB
:1005080040560120045C012000000000000A000899
:10051800030101000A000000F4530120085C0120D7
:10052800000000007D200108140001000400000004
:10053800F06E01201C6F012000000000040A000872
:10054800012001000C00000078640120206F0120C8
:1005580000000000080A00080EF003009E010000D9
:10056800946101202C6F0120000000004D54020806
:100578001300010004000000146C0120CC7001205D
:1005880000000000140A0008010101000400000036
:10059800D4600120D070012000000000000000009D
:1005A8000001010004000000CC600120D47001208B
:1005B80000000000180A0008020101000300000002
:1005C800C8600120D870012000000000857703086A
:1005D800220201001C0100007C690120DC7001205E
:1005E80000000000DDF104080C200600CC0000002B
:1005F80058630120F87101200000000045770308C6
:10060800010201000B000000E0600120C47201201B
:1006180000000000B5EC04081B02010010000000F7
:100628004C670120D07201200000000051ED040841
:100638001B1001000C000000985D0120E0720120F1
:100648000000000049B8010821020100F000000084
:100658001C5C0120EC7201200000000039B7010881
:100668001A0001000E000000C880012078810120D6
:10067800000000001C0A0008203201000A000000E7
:10068800B87F012088810120000000002954020859
:100698001500100070000000787E01209481012070
:1006A80000000000000000002A00080060000000B0
:1006B800887D012004820120000000000154020806
:1006C8002C000400100000007482012064820120C4
:1006D80000000000E15102082B0012002400000075
:1006E800A88201208482012000000000B551020880
:1006F8002920140078000000687B0120CC820120AA
:100708000000000000000000F62101000C000000BD
:100718001C7A012044830120000000002C0A0008F4
:100728001C0202001C000000A47A0120948301200E
:1007380000000000D9F304080300010001000000D4
:1007480030850120548801200000000000000000CE
:10075800031201003D000000108801205888012084
:1007680000000000380A000825201E002C010000A7
:100778007885012098880120000000000000000012
:1007880010100100020000007C840120C4890120AF
:1007980000000000760A0008F821010006000000A9
:1007A80020850120C889012000000000780A00087F
:1007B800190001000500000018840120D0890120DB
:1007C800000000007E0A0008020001000C00000082
:1007D8009C8D0120448E01200000000000000000D4
:1007E8002902010040000000C88C0120508E012021
:1007F80000000000840A00080A020100140000003A
:100808003C8C0120B08E012000000000A57A03086E
:100818002802040004000000009201209C9301209B
:10082800000000004DED0408270204000400000049
:10083800FC910120A09301200000000041ED040874
:100848001F02080010000000408F0120A49301201F
:100858000000000039EC04081A0201003C00000006
:10086800048F0120B49301200000000035F3040830
:100878003810010001000000D08E0120F093012003
:1008880000000000C40A000827000100040000005E
:10089800789401207C94012000000000C60A00081A
:1008A80010020100010000006C9F0120689F0120D8
:1008B80000000000CA0A0008070201000200000048
:1008C800509F0120749F012000000000CC0A0008FE
:1008D8001D020200060000000C9F0120789F0120E5
:1008E80000000000000000000602040010000000E4
:1008F800289F0120809F012000000000C1F3040808
:100908000812040014000000149F0120909F012089
:0809180000000000E5EC0408FA
:100920002001000000000000000001010101FFFFA4
:10093000FFFF0000000100000541424637000000B3
:1009400000020000000001000000000000000000A4
:10095000000000000000000020003200C800D007A6
:1009600096001400320028004C0440060005500098
:1009700014000F00080064000100000005000A00D8
:100980000000F40196000000C409000019000000F6
:100990000000000000000000000000000000000057
:1009A0000000000000000000000000000000000047
:1009B000000501000000000000002000010100000F
:1009C000AE014A015E012C0164010100000001003A
:1009D0000A019A01001E0A00000200000000000047
:1009E00000010000000500000102030000000000FB
:1009F0000000000000000000000000000080070070
:100A00000000000003000023E8036400040A000162
:100A100014001E0048044430B30000007E05EA05BF
:100A2000B4053200E803D007000000000000000019
:100A300001000000020200000000000000000000B1
:100A400000000000000000000000000000000000A6
:100A50000000000000000000000000000000000096
:100A60000000000000000000000000000000000086
:100A700000000000010000050101F4011400000065
:100A8000280100000000000000000000000000003D
:100A90000000000000000000000000000000000056
:100AA0000000000000000000000000000000000046
:100AB0000000000000000000000000000000000036
:0E0AC000000000000000200300000000013CC8
:100ACE0000C20100000008000A06000200000040FB
:100ADE000100000009026400030100C03209040095
:100AEE000001030000000921110100012236000758
:100AFE0005830308000A080B010202020100090423
:100B0E00010001020201000524001001052401006C
:100B1E0002042402020524060102070582030800CE
:100B2E00FF09040200020A0000000705010240004E
:100B3E0000070581024000006196000861950008DB
:100B4E004107010800000000418C00089D030108C8
:100B5E006D8C000800000000000000000000000086
:100B6E00218C0008318C0008118C0008018C0008C3
:100B7E001A0300000000000000000000000000004A
:100B8E000000000000000000000000000403090443
:100B9E000A060002000000400100000009072000C4
:100BAE00010104C0320904000002080650050705C1
:100BBE0081024000000705010240000009022000EA
:100BCE00010104C0320904000002080650050705A1
:100BDE0081024000000705010240000009022000CA
:100BEE00010104C032090400000208065005070581
:100BFE008102000200070501020002000A0600023F
:100C0E00000000400100000009022200010100E086
:100C1E003209040000010301020009211101000143
:100C2E002236000705830308000A0000090222008D
:100C3E00010100E032090400000103010200092154
:100C4E00110100012236000705830308000700008A
:100C5E0009022200010100E0320904000001030133
:100C6E000200092111010001223600070583030845
:100C7E00000A00000A060002000000400100000009
:100C8E0009074300020104C03209040000010202F8
:100C9E0001000524001001052401000104240202B4
:100CAE00052406000107058203080010090401004F
:100CBE00020A00000007050102400000070581023C
:100CCE004000000009024300020100C03209040086
:100CDE00000102020100052400100105240100019B
:100CEE0004240202052406000107058203080010F1
:100CFE0009040100020A00000007050102000200BB
:100D0E00070581020002000009024300020100C033
:100D1E003209040000010202010005240010010541
:100D2E0024010001042402020524060001070582A5
:100D3E000308001009040100020A00000007050163
:100D4E00024000000705810240000000120100026F
:100D5E000000004083042A57000201020301000034
:100D6E0012010002020000408304405700020102FB
:100D7E000301000012010002EF020140830456320B
:100D8E000002010203010000000000000401000047
:100D9E00000700000000000000000000000200003C
:100DAE00100000000000000000000000070000001E
:100DBE00100000007D000000010000000000803FD8
:100DCE0005010905A101A10005010930093109320A
:100DDE00093309350934093609371581257F750818
:100DEE0095088102050919012908150025019508A4
:100DFE0075018102C0C000000921110100012236D7
:100E0E000000000000FF0000000000000000AA55D6
:100E1E00070100000101AA55050100007EFF000038
:100E2E00FFFFFFFF0800000000B80508FF1FFF1FAF
:100E3E002D202D2D202D2D2D2D202D2D2D2D000055
:100E4E00000000000000000000000000000000AAEA
:100E5E00550B010000AA5505010000AA5509020014
:100E6E000000AA5503009F0001000000C012000000
:100E7E00BC5B012000000000945B0120000000001C
:100E8E00003C06087C3B060800000000F9770308CA
:100E9E00A086010004000000000000000000000019
:100EAE000000000000000000000000000000000034
:100EBE000000000000000000000000000000000024
:100ECE00003C0608083C060800000000C9EC0308B8
:100EDE00E803000004000000000000000000000015
:100EEE0000000000000000000000000000000000F4
:100EFE0000000000000000000000000000000000E4
:100F0E00103C06080000000000000000AD0F0000BD
:100F1E007D000000FF000000000000000000000047
:100F2E0000000000000000000000000000000000B3
:100F3E0000000000000000000000000000000000A3
:100F4E0084B406080000000000000000F105000057
:100F5E007D000000FF000000000000000000000007
:100F6E000000000000000000000000000000000073
:100F7E000000000000000000000000000000000063
:100F8E001C470608000000000000000029110000A8
:100F9E007D000000FF0000000000000000000000C7
:100FAE000000000000000000000000000000000033
:100FBE000000000000000000000000000000000023
:100FCE00183C0608000000000000000019F003089D
:100FDE00E803000003000000000000000000000015
:100FEE0000000000000000000000000000000000F3
:100FFE0000000000000000000000000000000000E3
:10100E001C3C06080000000000000000A1F80208C9
:10101E001027000003000000000000000000000088
:10102E0000000000000000000000000000000000B2
:10103E0000000000000000000000000000000000A2
:10104E008CB0060800000000B14D020801540408DF
:10105E005F760000050000000000000000000000A8
:10106E000000000000000000000000000000000072
:10107E000000000000000000000000000000000062
:10108E0028B406080000000000000000B167040844
:10109E00102700000100000000000000000000000A
:1010AE000000000000000000000000000000000032
:1010BE000000000000000000000000000000000022
:1010CE00283C06080000000000000000CDEC0308DC
:1010DE00E803000005000000000000000000000012
:1010EE0000000000000000000000000000000000F2
:1010FE0000000000000000000000000000000000E2
:10110E00343C06080000000000000000F97C0308D3
:10111E00204E000003000000000000000000000050
:10112E0000000000000000000000000000000000B1
:10113E0000000000000000000000000000000000A1
:10114E00443C06080000000000000000E17A03089D
:10115E00204E000003000000000000000000000010
:10116E000000000000000000000000000000000071
:10117E000000000000000000000000000000000061
:10118E00543C060800000000000000003DF5030876
:10119E00400D0300030000000000000000000000EE
:1011AE000000000000000000000000000000000031
:1011BE000000000000000000000000000000000021
:1011CE00643C060800000000000000001DB6030885
:1011DE0010270000010000000000000000000000C9
:1011EE0000000000000000000000000000000000F1
:1011FE0000000000000000000000000000000000E1
:10120E00A83B0608000000000000000079C4010899
:10121E001027000003000000000000000000000086
:10122E0000000000000000000000000000000000B0
:10123E0000000000000000000000000000000000A0
:10124E006C3C06080000000000000000C1EB030823
:10125E00A861000001000000000000000000000076
:10126E000000000000000000000000000000000070
:10127E000000000000000000000000000000000060
:10128E00783C060800000000000000003519020836
:10129E00A086010001000000000000000000000018
:1012AE000000000000000000000000000000000030
:1012BE000000000000000000000000000000000020
:1012CE00843C06080000000000000000DD1E04083B
:1012DE00A00F000001000000000000000000000050
:1012EE0000000000000000000000000000000000F0
:1012FE0000000000000000000000000000000000E0
:10130E00903C060800000000000000006D1302086B
:10131E001027000001000000000000000000000087
:10132E0000000000000000000000000000000000AF
:10133E00000000000000000000000000000000009F
:10134E009C3C06080000000000000000CD9A010839
:10135E001A41000001000000000000000000000023
:10136E00000000000000000000000000000000006F
:10137E00000000000000000000000000000000005F
:10138E00A03C06080000000000000000B520010887
:10139E001027000001000000000000000000000007
:1013AE00000000000000000000000000000000002F
:1013BE00000000000000000000000000000000001F
:1013CE00903B0608000000000000000039230208D0
:1013DE0050C30000010000000000000000000000EB
:1013EE0000000000000000000000000000000000EF
:1013FE0000000000000000000000000000000000DF
:10140E00AC3C06080000000000000000FD2F0108A3
:10141E00400D03000000000000000000000000006E
:10142E0000000000000000000000000000000000AE
:10143E00000000000000000000000000000000009E
:10144E00B43C060800000000000000008978030884
:10145E00400D03000000000000000000000000002E
:10146E00000000000000000000000000000000006E
:10147E00000000000000000000000000000000005E
:10148E00BC3C0608000000000000000095FF0108AB
:10149E0050C3000003000000000000000000000028
:1014AE00000000000000000000000000000000002E
:1014BE00000000000000000000000000000000001E
:1014CE00C83C06080000000000000000158C030850
:1014DE0040420F000000000000000000000000006D
:1014EE0000000000000000000000000000000000EE
:1014FE0000000000000000000000000000000000DE
:10150E00D43C06080000000000000000098003081B
:10151E0050C30000000000000000000000000000AA
:10152E0000000000000000000000000000000000AD
:10153E00000000000000000000000000000000009D
:10154E0001007F0000000100E0010100B5AD0108BF
:10155E00000000000000000014BA05080801FF009A
:10156E000000000000000000000000001CD4050870
:10157E00000000000000000000000000D4D40508A8
:10158E0000000000000000000000000080D40508EC
:10159E000000000000000000D1DF01086D6801208E
:1015AE000101FF00FFFFFFFF850D02080000000094
:1015BE0000000000A8D50508AD10020800000000CC
:1015CE000000000060D505082D202D2D202D2D2D7D
:1015DE002D202D2D2D000000000000000000000029
:1015EE000000000000000000FFFFFFFF39F30108BC
:1015FE000000000000000000ACD305080100000050
:10160E00FA000000010000000100000074640120D7
:10161E000000F40101000000726401200000F401DA
:10162E0001000000706401200000F40101000000C0
:10163E006E6401200000F401010000006C640120C2
:10164E000000F401010000006A6401200000F401B2
:10165E0001000000686401200000F4010100000098
:10166E00BDB5010881B501080000000038C00508AD
:10167E005864012005320100666401206400F40103
:10168E0001000000646401206400C4090100000030
:10169E0056640120E803D0070100000054640120C5
:1016AE00E803D0070100000052640120E803D007D0
:1016BE0001000000506401201E00B80B0100000064
:1016CE005E64012005000F0001000000606401202F
:1016DE0003000A00010000004E6401201E00F40108
:1016EE00010000006264012002000000C4C0050871
:1016FE004C64012014006400010000005A640120B3
:10170E003200E803010000004A6401200000C80016
:10171E00010000005563012000C801005463012040
:10172E000050010053630120005A01005163012053
:10173E0002000000D0C00508503E0608583E0608BC
:10174E00223E01200100C40900000000203E0120BD
:10175E000100C409000000001E3E01200100C40962
:10176E00000000001C3E01200100C4090000000022
:10177E00183E01200100C409000000001A3E01209D
:10178E000100C40900000000163E01200100C4093A
:10179E0000000000143E01200100C40900000000FA
:1017AE00FF60012000C80100FE60012000C801009A
:1017BE00FC6001200000FFFF0A000000FA6001201B
:1017CE000100C80001000000F860012032003075F1
:1017DE0032000000F660012005820500F460012051
:1017EE0005002C0105000000F3600120055A0500DC
:1017FE00F060012000FF0100F260012002000000F5
:10180E00780C0120EE60012003000000B0B4050842
:10181E00EF60012000FF0100F160012002000000D6
:10182E00780C0120ED60012003000000B0B4050823
:10183E0011B50108A1B4010800000000DCC00508C4
:10184E0088640120EE02CA080100000086640120AF
:10185E0000C80100640000008564012000C801007A
:10186E00640000008464012002000000E8C1050845
:10187E00DA6001200000803E05000000D8600120E3
:10188E0080C1803E05000000D26001200083007DF3
:10189E0005000000D060012080C1803E05000000E0
:1018AE00CB60012000FF0100C46001206400F40140
:1018BE0001000000C260012004000000F4C1050810
:1018CE00C16001200200000008C2050885610120E8
:1018DE000D00000014C205088261012000640100A1
:1018EE0080610120320010270A0000007E61012075
:1018FE000D00000014C205087D6101200D000000DE
:10190E0014C205087C610120020000004CC20508CB
:10191E0000000000000000000000000058C2050892
:10192E008E6401203E00000090C205088C640120E8
:10193E000100FF7F010000008B6401200200000007
:10194E008CC3050887610120030000009CC30508B5
:10195E0086610120030000009CC30508426301203C
:10196E00000A0100406301200000E80301000000AE
:10197E003E6301200000E803010000003C630120EB
:10198E000000E803010000003A6301200000E803B4
:10199E0001000000326301200000E8030100000096
:1019AE00386301200000E8030100000036630120C7
:1019BE000000E80301000000346301200014010060
:1019CE005063012002000000ACC305084E630120E5
:1019DE000000F401010000004C6301200000F4013E
:1019EE00010000004A6301200000F4010100000024
:1019FE00486301200000F40101000000466301204D
:101A0E000000A00F01000000446301200000A00FA1
:101A1E0001000000376401201964010036640120C2
:101A2E0002000000B8C3050834640120E803D007A3
:101A3E000A00000032640120006401000A00000068
:101A4E002764012000640100266401200064010067
:101A5E002E640120006401000A0000002D640120A4
:101A6E00006401000A0000002C64012000640100E3
:101A7E000A0000003164012000FF01000A0000008E
:101A8E003064012000FF01000A0000002F640120D5
:101A9E0000FF01000A0000002B64012001FF01007D
:101AAE000A0000002A64012001FF01000A00000064
:101ABE002964012001FF01000A000000906101204D
:101ACE000000F401010000008E6101200000A00F53
:101ADE00010000008C6101200000A00F0100000039
:101AEE008A6101200000A00F010000008861012022
:101AFE000000A00F01000000B568012000C8010021
:101B0E00B468012000640100B36801200064010084
:101B1E00B268012000640100B16801200064010078
:101B2E00B0680120FF080100AF68012001640100C8
:101B3E0009B40108CDB3010800000000C4C30508B4
:101B4E00B868012001320100B768012001000000D1
:101B5E0034C40508B6680120040000003CC4050822
:101B6E00AE68012000640100AC6801201400E80397
:101B7E0001000000AA680120E80330750A00000089
:101B8E00A968012000C80100A868012000C8010052
:101B9E00A768012000C80100A668012000320100DC
:101BAE00BA680120004B0100B96801200400000052
:101BBE0050C40508A5680120006401000A00000059
:101BCE00C86801200000D00701000000C368012092
:101BDE0000C80100C268012000C80100C1680120D0
:101BEE0000C80100C66801200000D00701000000F7
:101BFE00C068012000C80100BF68012000C80100B4
:101C0E00BE68012000C80100C46801200000D00792
:101C1E0001000000BD68012000C80100BC68012061
:101C2E0000C80100BB68012000C80100B5B1010861
:101C3E009DB101080000000064C40508796101200F
:101C4E00005A01007861012000C801007661012070
:101C5E00E803D007010000000000000000000000B3
:101C6E0011E0010800C50508414952424F5446375C
:101C7E0000000000EC60012000030100EB60012079
:101C8E0000030100D9B001088DB00108000000006A
:101C9E0048C505084DB0010805B001080000000058
:101CAE00E4C5050825B101081DF301080000000078
:101CBE0064C60508DC600120010301007DB6010841
:101CCE0051B6010800000000BCC9050889AF010823
:101CDE003DAF0108000000002CCA0508C5B101087F
:101CEE005918020800000000C8CA050825F70108A7
:101CFE00A9B601080000000070CB050821B201084A
:101D0E000000000000000000FCCB0508FDB2010839
:101D1E00A5B201080000000060CC050891B30108CF
:101D2E0055B301080000000008CD0508013D02086A
:101D3E0045B401080000000094CD05084964012057
:101D4E000106010069B2010835B201080000000069
:101D5E0090CE0508333C0208BDF4010800000000D7
:101D6E0000CF05084D3D020885F501080000000072
:101D7E0050D0050848640120010301006DB101082F
:101D8E003DB101080000000024D10508A93D02085C
:101D9E00000000000000000088D10508D5AF010842
:101DAE0005F301080000000008D20508000000003D
:101DBE00000000000000000094D2050879B401086C
:101DCE00FDF501080000000004D305080000000026
:101DDE0000000000000000001CD50508EC55012095
:101DEE009CFF2C01000000002C6B0120E0150C174D
:101DFE0000000000016801200200000054D5050813
:101E0E00BC60012088136F1701000000BE60012026
:101E1E0088136F1700000000663E012000000000CE
:101E2E0000000000643E01200000000000000000E1
:101E3E00623E01200000000000000000603E012014
:101E4E0000000000000000005E3E012000000000C7
:101E5E00000000005C3E01200000000000000000B9
:101E6E00AC030120000000000000000044600120CF
:101E7E000300000044D60508B460012088136F17D4
:101E8E00010000003656012088136F170000000075
:101E9E007DAE0108000000000000000054D60508C9
:101EAE000268012001000000A8D60508385601205E
:101EBE0001000000B4D605082E56012002000000D5
:101ECE00BCD6050800000000000000000000000065
:101EDE00C8D6050865AE010800000000000000002D
:101EEE0064D705080000000000000000000000009C
:101EFE00B8D7050800000000000000000000000038
:101F0E0028D80508C06001200200000060D805082E
:101F1E0032560120E0150C170000000064750120F8
:101F2E00B875012001D601FF01000000000101017A
:101F3E0000000000FFFFFFFF0000803F00000000D8
:101F4E000000000000000000000000000000000083
:101F5E000000000000000000000000000000000073
:101F6E000000803F000000000000000000000000A4
:101F7E000000803F00000000000000000000000094
:101F8E000000803F00000000000000000000000084
:101F9E00010000000000FA430000FA430000803FF9
:101FAE00FFFFFFFFFF00000000000000A08E0120D9
:101FBE000800000000000000908E012008000000C4
:101FCE008189000865890008218900080000000049
:101FDE001589000801890008ED880008000000003E
:101FEE00000000000000000000000000DD88000876
:101FFE0000000000CD880008718F0008698B000872
:10200E00318B0008458B0008E98A0008D58A000844
:10201E00C18A0008A5F60008C9880008458800088E
:10202E00D5930008B1AC03080000000000000000CA
:10203E00000000000060024010600240000000003E
:10204E0000000000000B0000000000000000000077
:10205E000000000000600240286002400100000005
:10206E0000000000060C0000000000000000000050
:10207E0000000000006002404060024002000000CC
:10208E0000000000100D0000000000000000000025
:10209E000000000000600240586002400300000093
:1020AE0000000000160E00000000000000000000FE
:1020BE00000000000060024070600240040000005A
:1020CE0000000000200F00000000000000000000D3
:1020DE000000000000600240886002400500000021
:1020EE0000000000261000000000000000000000AC
:1020FE000000000000600240A060024006000000E8
:10210E000000000030110000000000000000000080
:10211E000000000000600240B860024007000000AE
:10212E0000000000362F000000000000000000003C
:10213E000000000000640240106402400000000035
:10214E000000000000380000000000000000000049
:10215E0000000000006402402864024001000000FC
:10216E000000000006390000000000000000000022
:10217E0000000000006402404064024002000000C3
:10218E0000000000103A00000000000000000000F7
:10219E00000000000064024058640240030000008A
:1021AE0000000000163B00000000000000000000D0
:1021BE000000000000640240706402400400000051
:1021CE0000000000203C00000000000000000000A5
:1021DE000000000000640240886402400500000018
:1021EE000000000026440000000000000000000077
:1021FE000000000000640240A064024006000000DF
:10220E00000000003045000000000000000000004B
:10221E000000000000640240B864024007000000A5
:10222E000000000036460000000000000000000024
:10223E000000000001000000A00F0000B80B00001D
:10224E000102FFFF01000000FFFF000080B0060842
:10225E0000000802050304000000000088B0060814
:10226E000100080205040400000000002C5F0608AF
:10227E000200FE010110030000000000C441060828
:10228E0003001402000300000000000090B00608D6
:10229E0004001F02020008000000000098B00608AB
:1022AE0005001F020201080000000000FFFFFFFFF3
:1022BE00AD9500080D950008990401080000000076
:1022CE00000000006D020108A502010800000000D8
:1022DE000000000000000000A58B0008958B000890
:1022EE00858B0008758B00086DF4040899ED0408C1
:1022FE0095ED040891ED0408F9F704088DED040836
:10230E0089ED0408B02A0608FF010000F401000060
:10231E00FF0000001F0000001C0000001F00000056
:10232E001E0000001F0000001E0000001F00000025
:10233E001F0000001E0000001F0000001E00000015
:10234E001F0000000068214CB001000002000000D8
:10235E00090000005034060801000000A0180120FA
:10236E00000000000000000000000000000000005F
:10237E00000000000000000000000000000000004F
:10238E00000000000000000000000000000000003F
:10239E00000000000000000000000000000000002F
:1023AE00000000000000000000000000000000001F
:1023BE00000000000000000000000000000000000F
:1023CE0001000000010000000C23002000000000AE
:0423DE0020000000DB
:082800000000000000000000D0
:10800000026C03463AB11A6CD20608D50022012050
:1080100083F83C207047426480F83C20F3E71A6CF8
:1080200049494A4811401A6841F00201F0B4196404
:108030004168474D21F44031416041685C6821430B
:1080400041605168186921F48071D3F808C0DF6875
:10805000516054689E6A44EA0024AE4254605468F9
:1080600024F040745460506840EA0C0050609068FE
:1080700020F400609060916841EA0701916054D05B
:108080009068DC6A20F07060906091680E439660A2
:10809000906820F040509060916821439160906812
:1080A0009C6920F002009060916841EA440191606F
:1080B00093F82010002941D05468596A44F40064B0
:1080C000481E5460516821F460415160516841EA92
:1080D00040315160D06A0025DC6920F470005E698F
:1080E000611ED0622846D46A44EA0154D46294687E
:1080F00024F400749460946893F8301044EA4124A6
:108100009460946824F480649460916841EA8621C4
:1081100091605D641A6C22F0030242F001021A645D
:10812000002283F83C20F0BC7047916821F0706118
:108130009160916821F040519160B0E7516821F45D
:1081400000615160C6E700BFFDEEFFFF0023014064
:108150000100000F2DE9F04F022389468A462DEDDC
:10816000108B99B0DFEDCABA14930346169004330E
:10817000159217934FEADA06169DDDF85CC04FEAB8
:10818000CA0305EB46111396F0004FF0000B01EB0C
:10819000061437010390A6EB86020194049706EBC0
:1081A000460E04EBC202041D381D06EB86072C4464
:1081B000C6EBC60802972844029D02EB46174FEA19
:1081C000C808ED0001EBC60602954FEA0E150595AD
:1081D0004FEACE050695139D4FEA451E019D95ED8C
:1081E000007AD34492ED005AD7ED004AD945D1ED3B
:1081F000006A50ED013A35EE241AD6ED002A1CED46
:10820000016A73EE875A54ED017A33EEC73A36EEBF
:10821000264A77EEA21A36EE666A77EEE27A74EEB6
:10822000256A71EE812A77EE633A37EEC57A36EE2B
:10823000A22A77EEE47A76EEE26A0CED012A37EEB6
:10824000247A77EE857AD1ED018AC1ED006A74EE69
:10825000655A96ED015AB0EE460A94ED004AA7EE33
:108260002B6AD2ED010AE7EEAB3A74EE456AD7ED20
:10827000012AA7EE6B0A9CED007AD5ED014A34EE97
:10828000054A37EE689A90ED005A36EEE02A76EE0F
:10829000E26A30EEA28A32EE222A76EEA06AF0EE90
:1082A000492A75EE640A37EE287A75EE249AE2EED2
:1082B0006B2A74EEC54AF0EE608AB0EE40AAE6EE94
:1082C000AB4AE6EEAB8AA6EEEBAAF0EE496AB0EE58
:1082D000629A37EE695AE2EE2B6AB0EE432A74EEE8
:1082E00008AAA7EEEB9AA7EEAB2A77EE297A35EE2D
:1082F000617A75EEC89A35EE415A75EEC45A37EE7A
:10830000AABA77EEEA7A37EE011A8CED00BA36EEA9
:10831000287AC1ED017A39EE844A76EEC27A1944A0
:1083200075EE885A9C4435EE215A00ED014A70EEF4
:108330008A0A70EE244AC5ED005A36EE686A80ED6E
:10834000001A72EEA33A85ED015A33EE093A04EDB4
:10835000017A72EE266A87ED006A1D44C6ED000AB6
:108360001844C2ED004AC4ED007A1C44C7ED016A0E
:108370001F44C6ED013A1E4482ED013A1A443FF60D
:108380002EAF139A072A40F2C681039A0EF1080E07
:10839000169F08F108000832029E059D4FF0000864
:1083A00094463A46083608357244069C0499D346EA
:1083B000109207EB0C0208340C310F92BA190E928E
:1083C0007A190D923A190C923A180B927A1809926E
:1083D00007F10C020A9201220892149ADDF824C0D7
:1083E0009044159A0A9F02EBC8020B9EA8EB880ED8
:1083F0000C9D02EBC80192ED00BA0D9C01EBC80286
:10840000D1ED00AA0E9802EBC80192ED00AA01EB93
:10841000C802D1ED009A02EBC80192ED009A01EB7F
:10842000C802D1ED008A0F9902EB0E1E92ED008A70
:10843000109A0EEBC80ADEED017A1192CDED047AA6
:108440000AEBC802DAED017A02EBC80A1291CDED0F
:10845000057AD2ED017A0AEBC802DDF820E0CDED15
:10846000017ADAED017A02EBC80ACDED067AD2ED97
:10847000017A0AEBC802CDED027ADAED017ACDED90
:10848000077AD2ED017ADDE91121CDED037A01E021
:10849000F304353F17ED017ADE44D2ED007A94ED16
:1084A000005AF145D5ED006A37EE274AD0ED004A73
:1084B00077EE677A1CED016A96ED007A91ED001A6D
:1084C00076EE055A36EE872A97ED00DA71EE24EA49
:1084D00076EE453A74EE252A31EE641A35EE466A98
:1084E0003EEE825A74EE655A31EE664A72EE854A65
:1084F00031EE471AB0EE67CA47ED014A34EE077A0B
:10850000D1ED014A31EE261AD0ED016A72EEC52A8C
:1085100095ED014AA7EE6BCA74EEE60A96ED010AE4
:10852000E7EE2B7A92ED017A94ED015A74EEA64AA9
:108530003DEE473ADCED006A70EEC4CA70EEC00A48
:10854000B0EE43EA7CEE80CA74EE001A70EE840A44
:10855000ACEEEBEA36EEC54A3DEE077AB0EE63DAF2
:1085600036EE850AACEEAB3AF0EE4EDAA1EE2BDA3F
:10857000A1EE2B6AE1EE6BDA75EE666AB0EE441A94
:10858000F0EE4CCA37EE405AA0EEAB1AE0EEEBCA62
:10859000E0EEAB6A37EE007A74EEA10A35EEE1FA4E
:1085A00075EEE45A75EE6EFA37EE600A71EEA55A72
:1085B000DDED061A35EE425A7FEE244A3FEE822A5E
:1085C00022EEE1FA61EE80FADDED051A3EEE855A03
:1085D0003EEE066A73EEAD3A21EE82EA73EE4DDAB4
:1085E0003DEE033A24EEE1DADDED071A34EE2C4AD3
:1085F0007CEE266A61EE85CA25EEE1CADDED041A3D
:1086000077EE81EA77EEC17AE9EEA2FADDED032A90
:10861000A9EE80FA9DED030AAAEEA4EADDED014A77
:10862000AAEE82DA9DED012AE8EEA5CADDED025A36
:10863000A8EE85CA9DED025A21EEAD1A62EE832A9C
:108640006EEEE11A27EEC00A64EEA34A26EEC22AB5
:1086500065EE865A24EE455AABEE2E1AEBEE2D1A35
:10866000E8EE272AA8EE030AEAEE264AAAEE232A13
:10867000E9EE045AA9EE065A37EE207A87ED007A21
:108680001F44C2ED00FA82ED01FA1A440CED01EA32
:108690008CED00DA9C44C4ED00CA84ED01CA1C4490
:1086A00081ED001AC1ED011A1944C6ED002A86EDCC
:1086B000010A1E44C0ED005A80ED015A1844C5ED70
:1086C000004A85ED012A1D443FF6E4AE1099089A50
:1086D0000831013210910F99089208310F910E99CB
:1086E00008310E910D9908310D910C9908310C91BA
:1086F0000B9908310B910A9908310A9109990831AF
:108700000991139991427FF468AE149B8A46DB006D
:108710009BB214932EE519B0BDEC108BBDE8F08F21
:10872000124B30B41D686B6A28B943EA014300203C
:10873000AB6230BC7047AC6A013803EB14440BD019
:10874000002303F14002013305EB8202DBB25268E1
:10875000834204EB1244F4D3403044EA014405EB75
:1087600080004460002030BC704700BF0019012029
:10877000037870B42BB30246C0F10105531912F807
:10878000014FDBB2002CF9D101335B000E4C032208
:108790000B8084F8043484F80524017879B102232D
:1087A00000265A1CE518023354FA82F285F80414A4
:1087B000DBB282F8046410F8011F0029F1D170BC0B
:1087C00070470223E2E700BF0019012030B5EFF344
:1087D0001181802383F312880A4AD2F80435D2F833
:1087E0000845D2F80405D2F80855CAB282F31188B8
:1087F000013BA84294BF4FF4006000201B1B1844AB
:1088000030BD00BF00190120012380F851307047AE
:10881000014BD3F80C057047001901200120704767
:10882000024BC3F81025C3F8141570470019012036
:10883000024BC3F81825C3F81C1570470019012016
:1088400070477047212870B505D0222829D02028EC
:1088500010D0002070BD0029FBD0072AF9D1184B99
:1088600018791C685A799B79087100200C604A714C
:108870008B7170BD0029ECD0072AEAD11148104B4A
:108880000C680E794D79D0F8142589791C601E7119
:108890005D719971002ADCD02146D0F8100590470F
:1088A000D7E70029D5D0022AD3D1064AD2F81C3501
:1088B000002BCED00988D2F818059847C9E700BF29
:1088C00000000120001901200020704703460A2201
:1088D00001481A80704700BF080001200346642247
:1088E00001481A80704700BF14000120012901D0FF
:1088F00000207047014BD3F890301847000001204A
:10890000012900D05EE1024BD3F88C30184700BF3C
:1089100000000120014BD3F88830184700000120E7
:1089200010B40B780A46044603F00303012B05D06C
:10893000022B0BD000205DF8044B70478B8843B9A5
:10894000204611465DF8044B07F074BE8B88832BDC
:10895000F6D0034B5DF8044BD3F88030184700BFC6
:108960000000012038B5054B04460D46DB6F9847E3
:108970002946204600F0E2FD002038BD000001201D
:1089800038B5054B04460D469B6F9847294620464F
:1089900000F050FE002038BD0000012011F0800FD3
:1089A00001F00F01F0B4D0F8A8424FF01C0042D102
:1089B000C1EBC10500FB0140002604EB850500F575
:1089C000FE7085F8FD61457801708360C27005B165
:1089D000C180022A01D10023037194F8BC33012B1A
:1089E0001AD00122236884F8BC234178057891428B
:1089F0002CD003F5006605F00F0103F530638A40C3
:108A0000F16903EB451341EA0242F2611A6812046C
:108A100005D5002384F8BC330020F0BC7047826881
:108A20001D68C2F30A02C07818492A4342EA80420C
:108A300011431960EDE7C1EBC105012600FB0140C0
:108A400004EB85053C3085F83D60BCE705F00F067A
:108A5000D3F81CC803F5106203F50067B14002EBC0
:108A6000451241EA0C01F96113681904D1D48368F5
:108A70001668C3F30A03C0780449334343EA8043CA
:108A800043EA855319431160C3E700BF008000101B
:108A9000F0B4002452004E1C2746030FB0F1204FC3
:108AA0004FEA001003F1300503F1370334BF0D55D1
:108AB0000B5537550234A242EFD1F0BC704700BFCE
:108AC000024808B5FFF754FE014808BD8034060887
:108AD000041D0120024808B5FFF74AFE014808BD01
:108AE00090340608041D01200B481A220B4B006825
:108AF0001B680A80C01801D109487047094B082239
:108B0000094910B51C68FFF7C3FF04220749204636
:108B1000FFF7BEFF024810BD107AF01F187AF01F51
:108B2000B0000120147AF01FB2000120C200012021
:108B3000024808B5FFF71CFE014808BD9C34060832
:108B4000041D012008B520B90448FFF711FE0448B0
:108B500008BD0448FFF70CFE014808BDA83406080C
:108B6000041D0120CC340608042301480B80704703
:108B7000CC00012003460A2201481A80704700BF3A
:108B8000D00001200346202201481A80704700BF10
:108B9000DC0001200346202201481A80704700BFF4
:108BA000FC0001200346202201481A80704700BFC4
:108BB0001C01012003460A2201481A80704700BFA9
:108BC0003C0101200023D0F8982218461373704707
:108BD0000346222201481A80704700BF4801012045
:108BE0000346222201481A80704700BF6C01012011
:108BF0000346222201481A80704700BF90010120DD
:108C000003460A2201481A80704700BFB4010120C0
:108C10000346432201481A80704700BFC00101206B
:108C20000346432201481A80704700BF0402012016
:108C30000346432201481A80704700BF48020120C2
:108C4000D0F8943283B110B5D0F8904294F8000275
:108C5000FF2807D09B68214694F801229847FF23FC
:108C600084F80032002010BD0020704701F00F0191
:108C7000D0F8A822C1EBC10102EB810238B5D0F8CF
:108C80009032D0F89452D2F8144203F50371EA6896
:108C9000D3F80402C3F80C429047002038BD00BF4F
:108CA00008B5D0F88C325B689847002008BD00BF3B
:108CB00008B5D0F88C321BB11B68984700B908BDC5
:108CC000022008BD836B0121002283F83D101A7732
:108CD000704700BF0122836B83F83D20704700BFBF
:108CE00090F8BC33012B29D0012380F8BC330B064C
:108CF0000ED402681021124B116101E0013B02D039
:108D00001169C906FAD4002380F8BC3318467047AD
:108D100001F00F010A4B890110B441F020010468F1
:108D2000216101E0013B02D022699206FAD40023BE
:108D300080F8BC3318465DF8044B7047022070473A
:108D4000400D030011F0800F4FF01C0301F00F01E4
:108D500070B432D103FB0103C1EBC102002400EB6C
:108D6000820203F5FE7382F8FD41197090F8BC236E
:108D7000012A31D00121026880F8BC135C781D788B
:108D800002F500638C422AD005F00F04DE6B02F579
:108D90003062A1401C4C02EB451226EA0146DE631C
:108DA000DD6925EA0141D96113681C401460002384
:108DB00080F8BC33184670BC704703FB0103C1EB5D
:108DC000C102012400EB82023C3382F83D4019705D
:108DD00090F8BC23012ACDD1022070BC704705F069
:108DE0000F01DE6B02F510628C40084902EB451260
:108DF00026EA0406DE63DD6925EA0404DC61136803
:108E000019401160D3E700BF0078F3EF007833EC2E
:108E10002DE9F843884600294FD04718461E284CB4
:108E2000802507F1FF39EFF3118185F31288D4F81B
:108E30000425C9B2D4F80805D4F80435D4F808C517
:108E400081F31188634594BF4FF400630023121A25
:108E50001344012B1AD1012037F062FEEFF3118188
:108E600085F31288D4F80425C9B2D4F80805D4F8DB
:108E70000435D4F8087581F31188BB4294BF4FF4D0
:108E800000630023121A1344012BE4D0EFF3118284
:108E900085F31288D4F80835D2B216F8011F23449E
:108EA00083F82015D4F808350133C3F30A03C4F856
:108EB000083582F311884E45B5D14046BDE8F883A8
:108EC00000190120F8B5002390F8505080F8503078
:108ED000CDB10F4E96F8942F032A16D1D6F8CC7F39
:108EE00000F13C0429462046FFF792FFD6F8CC3F1C
:108EF0002D1A0444DB1B322B01D8002DF2D1B5FA18
:108F000085F04009F8BD0120FCE71846FAE700BFEC
:108F100000190120002280F85120D3E790F850205A
:108F2000531C0244DBB280F8503082F83C1090F8B9
:108F300051200AB1132B00D9C4E77047F8B50B4E86
:108F40000D46144696F8943F032B0ED1D6F8CC7FED
:108F5000002C0ADD21462846FFF75AFFD6F8CC3F01
:108F6000241A0544DB1B322BF2D9F8BD001901206D
:108F700010B503200C464BF001FC03280AD0074B28
:108F800093F8D03F012B4FF012030CBF0448054863
:108F9000238010BD12230448238010BD0019012036
:108FA000B4020120A00201208C0201202DE9F04F23
:108FB000DFF81883B94D44462DED068B89B0CDE915
:108FC000060105920FCD0FC40FCD0FC4B44B95E829
:108FD000070093F8D63F84E80700042B00F20C81C9
:108FE000DFE813F036010A010501050044019FED99
:108FF000AD8A9FEDAD9AAD4AAD4B0598AD490028BD
:1090000018BF1346AC4AC8E9062139EE087ADFEDED
:10901000AB7AF5EE006AAA4A28EE278AA94FB0EE8D
:1090200067AA02F1150BC6EE879A0026DFEDA68A25
:109030000292C8F82430079BB34200F0D280029A13
:10904000731C12F8014B0393DBB20292002C00F068
:109050001B81002203E00132152A00F0158102EB8A
:10906000420155001BF80100A042F4D104938C4B3F
:10907000194491F8F11F002900F00E81204637F0C5
:10908000A9F8824600684AF01DF99AF8051037F0F1
:10909000DFF80178002940F0F78020090322DFF88B
:1090A000409204F00F0C441E049B4D44944205F87A
:1090B000C73C05F8C82C00F2C580784901EB440193
:1090C000888D40FA0CF111F0010100F0BB80012104
:1090D0000493A9F19C0501FA0CF1013908404EF006
:1090E00067F96E4B032202211C44049B94F8344020
:1090F000204405EBC00078618271C3719AF80820A2
:109100003BF0D0FE059B002B7BD0654B6449B3F848
:10911000D43F91F8D61F07EE903AD9F8643104296C
:10912000F8EEE77AFCEEE77A17EE900AB3FBF0F27E
:1091300002F57F4202F1FF024FEA1242B3FBF2F264
:10914000B2FBF0F083B272D007EE902AF8EE676AB5
:1091500066EE887A28EEE77A5149C7ED027A91F8EF
:10916000D70FA9EE267A069901903846009151460C
:1091700087ED037A2FF098F9002E65DD7B68D8F82B
:109180003820934262D0012E5ED0D8F8502093420E
:109190005CD0022E58D0D8F86820934256D0032EC7
:1091A00052D0D8F88020934250D0042E4CD0D8F81A
:1091B000982093424AD0052E46D0D8F8B02093424A
:1091C00044D0062E40D0D8F8C820D31A18BF0123A7
:1091D000039E01223B741837082E07F8072C7FF4F2
:1091E0002AAF3A4809B0BDEC068BBDE8F08F9FED81
:1091F000388AB0EE489AFEE69FED368AB0EE489A7D
:10920000F9E6FAFE697AFCEEE77AD9F864114FF6CE
:10921000FF7317EE902A1846B1FBF2F21A44120CB3
:10922000B1FBF2F21E4991F8D61F04298CD107EE4A
:10923000900A07EE102AF8EE677AF8EE476A67EEB2
:109240008A7A87E779615DE70123C1E70023BFE7F9
:109250000023184A01219FED198A0693164BB0EEA0
:10926000489A0591C8E90632104BCEE60023114A10
:1092700001219FED198A06930F4BB0EE489A059194
:10928000C8E90632094BC0E6144A0020074BC8F86B
:109290001C20C8F82430A5E70B68FFDE70A805087D
:1092A00000190120ACC5A737ACC5A7364DEE0308A1
:1092B0002D730308797A030859EE03086F12833A75
:1092C000DB2801204800002000007A441400002020
:1092D000282930386F12033900000000197603087E
:1092E000F829012070B5D0F8A852C1EBC1000C4696
:1092F000002605EB80001C21C0F80822C0F81032BF
:1093000080F8FC41C0F8146280F8FD612B6901FB14
:109310000451012B01F5FE7108BFC0F80C22DAB22E
:1093200028681CB90BF07AFF002070BD0CF002F821
:10933000002070BD0E48D0F8B03F10B5A3B190F832
:10934000304D00F55260D3F8042234B1002440239C
:109350000121FFF7C7FF204610BD4FF40073012124
:10936000FFF7C0FF204610BD0224204610BD00BFFD
:109370000019012010B50C4CD4F80C3563B10B4921
:10938000013BD1F86821C4F80C3512F8014BC1F843
:109390006821047013B10123184610BDFFF7CAFFFE
:1093A0000123184610BD00BF00190120F829012033
:1093B00013B5074CD4F8683103B9FEE701A8FFF7ED
:1093C000D9FF0028F6D09DF8040002B010BD00BF00
:1093D000F829012010B50B68064C074AC4F80C3573
:1093E000C2F868010BB1002010BDFFF7A3FF0020F9
:1093F00010BD00BF00190120F829012038B5D0F8B0
:10940000A84201F00F03626893422BD80A062BD4BE
:109410001C25C1EBC102002005FB014104EB8202C7
:1094200001F5FE7182F8FD0101220B708A7094F83B
:10943000BC03904216D084F8BC234A782068012AE5
:1094400009781DD000F5306202EB41121568002D3D
:1094500000DBF1B9116841F4001111601BB3002366
:1094600084F8BC33002038BD1C21C3EBC3020120AB
:1094700001FB034104EB82023C3182F83D00D3E75B
:1094800000F5106202EB411215680029E2D0002DB0
:10949000E0DB116821F080411160116841F4001196
:1094A0001160002BDBD104F57172217C0BF08AFE78
:1094B000D5E700BF10B504468021FFF79FFF0021CC
:1094C0002046BDE8104099E770B5D0F8A052044698
:1094D00095F8183213B9D5F814323BB981212046DA
:1094E000FFF78CFF6B7A022B07D070BD6B7A002BD5
:1094F000F4D10121FFF782FFF0E705F50372204662
:109500001F230121BDE87040ECE600BF38B50446DA
:1095100000250121D0F8A802FFF714FC8121D4F81E
:10952000A802C4F85851FFF70DFCD4F8A002E56278
:1095300051F036F82846C4F8A05238BD38B5044674
:109540008321D0F8A8020025FFF7FCFBD4F898028D
:10955000656518B151F024F8C4F89852002038BD60
:1095600038B5044600258121D0F8A802FFF7EAFBB0
:109570000121D4F8A802E562FFF7E4FBD4F8A802C1
:109580008221C4F85851FFF7DDFBD4F890322564EE
:109590004BB1D4F894325B689847D4F8900250F0FD
:1095A000FFFFC4F89052002038BD00BF70B5037CA7
:1095B000044601259BBB4FF4007302222946FFF7A6
:1095C000EDF94FF40073C4F858510222812120466E
:1095D000FFF7E4F9E5624FF41B7050F0D9FF054640
:1095E000C4F8A00220B30026D4F8A4320681304685
:1095F000A5F85C621B6898470121D4F8A802FFF720
:109600006FFB8121D4F8A802FFF76AFB05F503720E
:1096100020461F230121FFF765FE304670BD402321
:1096200002222946FFF7BAF94023C4F85851CCE783
:10963000022070BD10B50823032283210446FFF7E2
:10964000ADF901231020636550F0A2FFC4F8980221
:1096500018B103460020187310BD022010BD00BFD2
:109660002DE9F041037C04460125BBBB4FF4007398
:1096700002228121FFF792F929464FF4007302225A
:109680002046E562FFF78AF9C4F858514FF0010807
:109690000823032282212046FFF780F94FF4077048
:1096A000C4F8408050F074FF0546C4F8900258B3E7
:1096B000D4F8943200271B689847267CC5F81472AA
:1096C0004146D5F804222046C5F81872AEB14023B1
:1096D0003E46FFF707FE3046BDE8F08140230222F8
:1096E0008121FFF75BF92946402302222046E562EB
:1096F000FFF754F9C4F85851C8E74FF40073FFF767
:10970000F1FD3046BDE8F0814646E4E7154BDB68E5
:10971000C3F3022310B4C3F107041A1D042C28BF9D
:109720000424062A4FF0FF328CBF033B0023A240E3
:10973000002821EA020101FA03F108DB09010A4BC2
:10974000C9B2034483F800135DF8044B704700F07E
:109750000F000901054BC9B2034419765DF8044BAB
:10976000704700BF00ED00E000E100E0FCEC00E02D
:1097700038B50F4B0F4AD3F86431A2FB03239B0982
:10978000013BB3F1807F10D20B4A0024F0200B493B
:109790000725536081F82300214694604FF0FF3085
:1097A0001560FFF7B3FF204638BD012038BD00BF6C
:1097B000F8290120D34D621010E000E000ED00E038
:1097C0004309012200F01F0084B0013B02FA00F0BF
:1097D000032B0BD8DFE803F015021E0C124B5A6C5A
:1097E00002435A645A6C10400090009B04B07047CA
:1097F0000D4B1A6B02431A631A6B10400390039BC4
:10980000F4E7094B5A6B02435A635A6B10400290BB
:10981000029BEBE7044B1A6C02431A641A6C10406B
:109820000190019BE2E700BF0038024018B100221E
:1098300001213BF037BB704718B1002220213BF0DB
:1098400031BB704700487047BC29012030B41F4D20
:10985000046805E0D5F86C21521AB2F5805F27D86C
:10986000A36913F02003F5D010222023E261E36105
:10987000A3699A0701D50023A362A369DB0712D568
:1098800063680022124D20212B406360436C80F8F6
:10989000402043F00403436480F8411080F84220E4
:1098A000012030BC7047A36943F00103A361E7E7DF
:1098B000426C202180F840300A43426480F8411015
:1098C00080F84230012030BC704700BFF8290120E9
:1098D00000E800FE70B5134E04460D460BE09B6990
:1098E000DB0602D5FFF7B2FFD0B9D6F86C315B1BAF
:1098F000B3F5805F07D82368294620469A69920706
:10990000EDD5002070BD636C2021002201200B43A7
:1099100084F84020636484F8411084F8422070BDCC
:10992000012070BDF829012070B5134E04460D4684
:109930000BE09B69DB0602D5FFF788FFD0B9D6F8AC
:109940006C315B1BB3F5805F07D82368294620463E
:109950009A699206EDD5002070BD636C202100222B
:1099600001200B4384F84020636484F8411084F89C
:10997000422070BD012070BDF82901202DE9F84F6B
:10998000CB4C054694F87011D4F87801C1F340012E
:109990003BF0BAFC94F87011D4F87401C94301F09B
:1099A00001013BF0B1FC002D00F0E78005F1FF392B
:1099B000C04E4FF01008C04F5FFA89F9BF4DD4F880
:1099C000783133B11A689B8851690B4218BF1B0468
:1099D0009361D4F8743133B11A689B8851690B4292
:1099E00018BF1B049361B4F88031002B40F05781FD
:1099F00094F88211D4F884013BF086FCFA204FF4ED
:109A00007A714FF0010C7B68C3F30803002B40F020
:109A10001981EFF31183002B40F01481D6F8CC2F7D
:109A2000D5F808E0D6F8CC3F9A42F7D1D4F8A8315F
:109A30009E45F3D8D4F8A4A101FB0AF3A3EB0E03CF
:109A4000B3FBFAF301FB02327B68C3F30803002B7C
:109A500040F0B680EFF31183002B40F0B180D6F8D0
:109A6000CC3FD5F808B0D6F8CCEF7345F7D1D4F891
:109A7000A8E1F345F3D8D4F8A4A101FB0AFEAEEBAC
:109A80000B0EBEFBFAFE01FB03E39B1AB3F57A7FD4
:109A9000DAD30138B7D1D4F8783133B11A689B885A
:109AA00051690B4218BF1B049361D4F8743133B170
:109AB0001A689B8851690B4218BF1B049361B4F864
:109AC0008031002B40F0DF8094F88211D4F88401BB
:109AD00081F001013BF018FCFA204FF47A714FF04D
:109AE000010C7B68C3F30803002B40F08A80EFF37E
:109AF0001183002B40F08580D6F8CC2FD5F808E0F4
:109B0000D6F8CC3F9A42F7D1D4F8A8319E45F3D885
:109B1000D4F8A4A101FB0AF3A3EB0E03B3FBFAF301
:109B200001FB02327B68C3F3080343BBEFF31183ED
:109B30002BBBD6F8CC3FD5F808B0D6F8CCEF7345A0
:109B4000F7D1D4F8A8E1F345F3D8D4F8A4A101FBE8
:109B50000AFEAEEB0B0EBEFBFAFE01FB03E39B1A03
:109B6000B3F57A7FDED30138BBD109F1FF395FFA53
:109B700089F9B9F1FF0F7FF422AFBDE8F88FEFF359
:109B8000118A88F31288D5F808B02B68DB0303D557
:109B9000C4F8A0C1D5F808B0D6F8CC3F5FFA8AFA6D
:109BA000D4F8A0E18AF31188D4F8A4A1734401FB8E
:109BB0000AFEAEEB0B0EBEFBFAFE01FB03E3CEE7A3
:109BC000EFF3118A88F31288D5F808B02B68DB030D
:109BD00003D5C4F8A0C1D5F808B0D6F8CC3F5FFAD9
:109BE0008AFAD4F8A0E18AF31188D4F8A4A17344C6
:109BF00001FB0AFEAEEB0B0EBEFBFAFE01FB03E31C
:109C000043E7EFF3118E88F31288D5F808A02B688C
:109C1000DA0303D5C4F8A0C1D5F808A0D6F8CC3F24
:109C20005FFA8EFED4F8A0218EF31188D4F8A4E157
:109C30001A4401FB0EF3A3EB0A03B3FBFEF301FB93
:109C400002326FE7EFF3118E88F31288D5F808A07F
:109C50002B68DA0303D5C4F8A0C1D5F808A0D6F85C
:109C6000CC3F5FFA8EFED4F8A0218EF31188D4F891
:109C7000A4E11A4401FB0EF3A3EB0A03B3FBFEF3CA
:109C800001FB0232E0E6D4F89C31002B3FF424AF14
:109C90000023D4F88821136084F899311CE7D4F8A4
:109CA0009C31002B3FF4AAAE37F004F8A6E600BFC3
:109CB000F82901200019012000ED00E010E000E08B
:109CC0002DE9F04FCA4C83B00523CA4E94F87011A9
:109CD0004FF01009D4F87801C1F3400101933BF033
:109CE00013FB94F87011D4F87401C943DFF80C83A6
:109CF000C14D01F001013BF007FBD4F8783133B1DD
:109D00001A689B8851690B4218BF1B049361D4F8F1
:109D1000743133B11A689B8851690B4218BF1B0418
:109D20009361B4F88031002B40F0598194F882118E
:109D3000D4F884013BF0E8FA32204FF47A7101271D
:109D4000D8F80430C3F30803002B40F01B81EFF375
:109D50001183002B40F01681D6F8CC2FD5F808E0FF
:109D6000D6F8CC3F9A42F7D1D4F8A8319E45F3D823
:109D7000D4F8A4A101FB0AF3A3EB0E03B3FBFAF39F
:109D800001FB0232D8F80430C3F30803002B40F083
:109D9000B780EFF31183002B40F0B280D6F8CC3FB0
:109DA000D5F808B0D6F8CCEF7345F7D1D4F8A8E1D0
:109DB000F345F3D8D4F8A4A101FB0AFEAEEB0B0ED9
:109DC000BEFBFAFE01FB03E39B1AB3F57A7FD9D3FE
:109DD0000138B5D1D4F8783133B11A689B8851690C
:109DE0000B4218BF1B049361D4F8743133B11A6865
:109DF0009B8851690B4218BF1B049361B4F88031F2
:109E0000002B40F0E08094F88211D4F8840181F0B6
:109E100001013BF079FA32204FF47A710127D8F82A
:109E20000430C3F30803002B40F08B80EFF3118361
:109E3000002B40F08680D6F8CC2FD5F808E0D6F875
:109E4000CC3F9A42F7D1D4F8A8319E45F3D8D4F844
:109E5000A4A101FB0AF3A3EB0E03B3FBFAF301FB8E
:109E60000232D8F80430C3F3080343BBEFF3118385
:109E70002BBBD6F8CC3FD5F808B0D6F8CCEF73455D
:109E8000F7D1D4F8A8E1F345F3D8D4F8A4A101FBA5
:109E90000AFEAEEB0B0EBEFBFAFE01FB03E39B1AC0
:109EA000B3F57A7FDDD30138B9D1019B5F1E17F07E
:109EB000FF0301937FF421AF03B0BDE8F08FEFF310
:109EC000118A89F31288D5F808B02B68DB0303D513
:109ED000C4F8A071D5F808B0D6F8CC3F5FFA8AFA7A
:109EE000D4F8A0E18AF31188D4F8A4A1734401FB4B
:109EF0000AFEAEEB0B0EBEFBFAFE01FB03E3CEE760
:109F0000EFF3118A89F31288D5F808B02B68DB03C8
:109F100003D5C4F8A071D5F808B0D6F8CC3F5FFAE5
:109F20008AFAD4F8A0E18AF31188D4F8A4A1734482
:109F300001FB0AFEAEEB0B0EBEFBFAFE01FB03E3D8
:109F400042E7EFF3118E89F31288D5F808A02B6849
:109F5000DA0303D5C4F8A071D5F808A0D6F8CC3F31
:109F60005FFA8EFED4F8A0218EF31188D4F8A4E114
:109F70001A4401FB0EF3A3EB0A03B3FBFEF301FB50
:109F800002326EE7EFF3118E89F31288D5F808A03C
:109F90002B68DA0303D5C4F8A071D5F808A0D6F869
:109FA000CC3F5FFA8EFED4F8A0218EF31188D4F84E
:109FB000A4E11A4401FB0EF3A3EB0A03B3FBFEF387
:109FC00001FB0232DEE6D4F89C31002B3FF423AFD4
:109FD0000023D4F88821136084F899311BE7D4F862
:109FE0009C31002B3FF4A8AE36F064FEA4E600BF1F
:109FF000F82901200019012010E000E000ED00E048
:10A0000010B4B8B10D4CD4F8AC31102B05D10521EA
:10A0100000205DF8044B36F01FBB03EB43022244E3
:10A0200082F8B111012182F8B0010B4482F8B2111B
:10A03000C4F8AC315DF8044B704700BFF82901202B
:10A040002DE9F04FCB4C002387B004F5F07894F85D
:10A05000F421C4F8E031C8E90133C8E903331AB187
:10A0600094F8F53184F8E03194F8F6311BB194F8A6
:10A07000F73184F8EF3194F8FA311BB194F8FB31E1
:10A0800084F8EA3194F8F8311BB194F8F93184F886
:10A09000E53194F8FC31013B4FFA83FADBB2BAF1B7
:10A0A000FF3F029300F00B81B022B349B34D002370
:10A0B00002FB0A112E4605F1280038311F469B4647
:10A0C000019350F02BFA03953578514628463CF021
:10A0D000B3FA8146002840F0F58001370536042F99
:10A0E000F2D194F80C02039DFFF76AFB4FF4403263
:10A0F000A34E00230121C4F814223046D4F80822CC
:10A10000C4F82CB2C4F82812C4F8201284F8401203
:10A11000C4F81832C4F81C3284F83032C4F834322F
:10A12000C4F82432C4F81022C4E98E33FDF768FF66
:10A13000BAF1000F40F0E580019B83F0010919F0AE
:10A14000FF0F40F0DE80A6F108004BF0D1FE0123A6
:10A1500008F11408EA78002A40F02A810535A8455C
:10A16000F8D104EB0A030299022093F9042237F094
:10A1700047FE0546002800F0A2800027406849F00D
:10A1800065FE06213A46DFF8148249F06FFEBBF106
:10A19000010F4FF400638CBF4FF480613946D5E95D
:10A1A0000102C4F868124FF400554FF48071C4F8EE
:10A1B0005C22C4F86C324FF400320323C4F8580216
:10A1C0004046C4F87C72C4F88032C4F87822C4E9EE
:10A1D0009877C4E9A177C4E99C510CF0F3F994F89D
:10A1E0004C32C4F84882012B0597C4F8906266D0BF
:10A1F0000123D4F8105284F84C32AB68DE0713D434
:10A20000D4F864315F49AA68B3FBF1F342F001026C
:10A2100003EB4303AA600593059B2BB1059B013B10
:10A220000593059B002BF9D1AB68D80747D5D4F827
:10A230005022554B134043F48073C4F850326B687E
:10A24000590507D5D4F8503223F4405343F48053D2
:10A25000C4F85032D4F8503213F4805340F03A81AD
:10A26000C4F854324948002349496FF02202C4F827
:10A270009802484884F84C325B46C4F8941205F1C1
:10A280004C01C4F8A4022A606E68434A46F0806616
:10A2900042486E60AE6846F48076AE600CF006F917
:10A2A0003F4B5A68D20640F02281D4F810329A68A7
:10A2B00012F0405F03D19A6842F080429A6007B082
:10A2C000BDE8F08F28463AF0C3FEFB1D03210022B3
:10A2D000DBB2CDF8049008B18371C2713AF09EFEF2
:10A2E00030783CF0DBF90BF1010386F802B05FFA3D
:10A2F00083FB4FF00703707033714FF00103F3706D
:10A30000EBE6B02200212748482750F079F9B02227
:10A310000021244850F074F9234B384684F8BC726D
:10A32000C4F8B832FFF74CFA4FF440300023012153
:10A33000D4F8B822C4F8C4021C48C4F8D812C4F82F
:10A34000D01284F8F012C4F8C832C4F8CC32C4F881
:10A35000DC3284F8E032C4F8E432C4F8D432C4F811
:10A36000C022C4E9BA33FDF74BFE0E484BF0C0FDE6
:10A37000EDE600BFF829012070A80508D82B0120C0
:10A38000082C012040420F00FEF8FFFF4D1E01087F
:10A39000511E01083D1E010808010020502C01201B
:10A3A00000230140B02C012000200140B82C0120E6
:10A3B00094F84C0200215A1C2F7901280491D2B242
:10A3C00069783DD04FF00100092984F84C024ED93C
:10A3D0004FF0030E6FF01D00D4F810C24FF00709C4
:10A3E0001EFB0100DCF80CE009FA00F907FA00F0A6
:10A3F0002EEA0907CCF80C70DCF80C703843CCF866
:10A400000C00062B4FF005001CD86FF0040710FB62
:10A410000373D4F810721F2000FA03FC786B01FA62
:10A4200003F320EA0C007863786B03437B63D4F872
:10A4300010323E48834230D04FF0000384F84C3253
:10A4400013468BE60C2B32D86FF0220710FB0373F8
:10A45000D4F810021F2707FA03FC076B01FA03F375
:10A4600027EA0C070763076B3B430363DFE7D4F876
:10A47000100201EB41094FF0070ED0F810C007FAA7
:10A4800009F70EFA09FE2CEA0E0CC0F810C0D0F83D
:10A4900010C047EA0C070761B3E7122921D0112940
:10A4A000CAD123494B6843F400034B60C4E76FF003
:10A4B000400710FB0373D4F810021F2707FA03FCB0
:10A4C000C76A01FA03F327EA0C07C762C76A3B436E
:10A4D000C362ACE7D4F8543223F00603C4F8543214
:10A4E000C0E613494B6843F480034B60A4E7D4F8FB
:10A4F00010220E498A420DD05B68DB063FF5DFAEC5
:10A500000C4B9A427FF4DBAE9A6812F0405F7FF406
:10A51000D6AED0E6936813F0405F03D1936843F062
:10A5200080439360024B5B68C9E600BF0020014096
:10A5300000230140002201400A4610B102213AF0F6
:10A54000B1BC7047034690F83C00012800F03E8102
:10A550000220F0B4012483F83D0083F83C40142A23
:10A5600045D8DFE812F04D004400440044007B0071
:10A57000440044004400DA00440044004400AA00BF
:10A580004400440044000601440044004400150017
:10A590001A688E68156A0F6825F48015AB4C156231
:10A5A000106A556820F40010D2F854C040EA0650F2
:10A5B000A74E0CEA0404B24244EA072400F00881E2
:10A5C00006F58066B24200F003814E68556054651E
:10A5D000D6651062506D0C6940F400605065506D96
:10A5E00020F480605065516D41EA042151650022DC
:10A5F0000121104683F83D1083F83C20F0BC7047E1
:10A600001A68D1F808C0156A0F6825F00105914C49
:10A610001562106A5668956920F002002C408C4D36
:10A6200040EA0C00AA4244EA070400F0DD8005F588
:10A630008065AA4200F0D8804D68566094615563E9
:10A64000106290690C6940F008009061906920F0F8
:10A6500004009061916921439161C8E71A68D1F8BB
:10A6600008C0156A0F6825F010057B4C1562106A4A
:10A670005668956920F020002C40754D40EA0C107A
:10A68000AA4244EA072400F0C38005F58065AA4287
:10A6900000F0BE804D6856609461956310629069C9
:10A6A0000C6940F400609061906920F480609061D2
:10A6B000916941EA0421916199E71A688E68156AE7
:10A6C0000F6825F48055644C1562106A556820F4B3
:10A6D0000050D2F81CC040EA06305D4E0CEA04047B
:10A6E000B24244EA072400F08D8006F58066B2424B
:10A6F00000F088804E685560D46116641062D0699D
:10A700000C6940F40060D061D06920F48060D061B1
:10A71000D16941EA0421D16169E71A68D1F808C01A
:10A72000156A0F6825F480754A4C1562106A5668E0
:10A73000D56920F400702C40454D40EA0C20AA4217
:10A7400044EA070473D005F58065AA426FD04D68CE
:10A750005660D461D5631062D0690C6940F008007E
:10A76000D061D06920F00400D061D1692143D1616A
:10A770003DE71A688E68156A0F6825F48035374CF6
:10A780001562106A556820F40030D2F854C040EACF
:10A7900006402F4E0CEA0404B24244EA07041DD0DE
:10A7A00006F58066B24219D04E68556054659665CC
:10A7B0001062506D0C6940F008005065506D20F03B
:10A7C00004005065516D2143516510E70220704728
:10A7D00025F480254E6945EA8625F6E625F4803580
:10A7E0004E6945EA0625DFE726F4407C20F00800A4
:10A7F0008E69CF684D693843354320F0040045EA3F
:10A800000C0619E725F480454E6945EA861571E77F
:10A8100026F4406C20F080008E69CF684D6940EAD4
:10A820000710354320F040004CEA850632E726F455
:10A83000405C20F400608E69CF684D6940EA0720D3
:10A84000354320F480604CEA051680E7FF8FFFFE59
:10A85000000001408CFFFEFFFF8CFFFE8FFFFEFF1C
:10A86000F0B5D823884E83B003FB0063D3F8682388
:10A87000002A00F0C38093F872130022044683F884
:10A8800076230846FEF79CFF01F01F0249090123C9
:10A890000139934003290AD8DFE811F0E9000400E8
:10A8A000EF00E30079494A6A22EA03034B62D823A6
:10A8B000651C03FB0463EDB293F86C033AF0C8FB2C
:10A8C000074610B11223C5718371D82303FB0463BB
:10A8D00093F86D033AF0BCFB10B11323C57183717B
:10A8E000D82303FB046393F86E033AF0B1FB10B175
:10A8F0001423C5718371D8252E21384605FB0465C4
:10A9000095F86F233AF092FC95F86D033AF0A0FBAE
:10A9100095F870232E213AF089FC95F86E033AF0F1
:10A9200097FB95F871230E213AF080FCD5F8683337
:10A9300057491A688B4222F040021A6060D0554A8B
:10A94000934200F0848002F58062934265D14F4AC1
:10A95000116A41F400411162116A21F4004111624F
:10A96000D82000FB046494F87623002A52D10124F5
:10A9700002255A68484942F48052C1E9B5545A60E8
:10A980001A68520632D4D1F8DCC2D1F8E472D1F898
:10A99000E8620197D1F8E072B6F5005FDFF808E1F0
:10A9A000D1E9B22042EA0002186842EA0C0200EA49
:10A9B0000E0ED1F8D00242EA0702019F40EA1C4085
:10A9C00042EA0702354F42EA060242EA0E0242EA32
:10A9D000040242EA05021A605A6807EA020740EADE
:10A9E0000700586002D1B1F8EC221A61DA6922F44A
:10A9F0000062DA611A6842F040021A6003B0F0BDEA
:10AA0000224A516A41F480515162516A21F48051C5
:10AA10005162A5E700242546ABE7214A934209D1BC
:10AA20001A4A516A41F400515162516A21F40051AD
:10AA3000516295E71B4A934292D1144A516A41F4FC
:10AA400080115162516A21F48011516288E70F4AE6
:10AA5000116A41F480411162116A21F4804111624E
:10AA60007EE70A490A6922EA03030B611FE70749E7
:10AA70004A6922EA03034B6119E704490A6A22EA98
:10AA800003030B6213E700BFF829012000380240DE
:10AA9000003001400038004000000120FBF0FFFFC3
:10AAA00000340140005001404000FFFF03680B4AA2
:10AAB00023F04003904203600DD0094B98420AD026
:10AAC0001022036823F0380313430360036843F044
:10AAD0004003036070470822F3E700BF00380040DE
:10AAE000003C00402DE9F041714C00234FF4F0721E
:10AAF0002021064604F2CC6084F8C8364FF080FD71
:10AB000004F6AC004FF4F07220214FF079FD94F878
:10AB10008D0A10B194F88E2A1AB900252846BDE88E
:10AB2000F0813AF095FA0746C4F89C0A3AF0D2FB55
:10AB300005460028F1D00FB12323FB8038460D21B4
:10AB40003AF06CFAD4F89C0A3AF0D8FB94F88E3AB2
:10AB5000013B5BB25A1C00F09B80032B00F39880F2
:10AB6000D82202FB0343D3F868030223514F20216C
:10AB7000C4F8940A84F8903A46F05AFCB7F8F012F8
:10AB80004D483BF0B7FAD4F89C0A3AF0B1FBFF21EC
:10AB90008C2046F0C7FC8046D4F89C0A3AF0AEFB05
:10ABA000D4F8940AFFF782FFB8F11B0F05D0D4F850
:10ABB0009C0A0025FEF740FEB0E70122D4F89C3A3B
:10ABC00084F8C8260BB12322DA80B7F8F0123A488D
:10ABD0003BF090FAD4F89C0A3AF08AFB40210A2014
:10ABE00046F0A0FCFF218A2046F09CFC0346D4F8E6
:10ABF0009C0AC3F3801384F8A03A3AF07FFBD4F8A0
:10AC0000940AFFF753FF94F88C3A012B46D0022B9D
:10AC10003AD0002B3ED094F8A13A182B09D194F8E1
:10AC2000A02AB7F8F032A4F8A46AA4F8A62AA4F8D7
:10AC3000A83AB7F8F01220483BF05CFAB7F8F012E7
:10AC40001D483BF057FAD4F89C0A3AF051FB022118
:10AC5000002046F067FCD4F89C0A3AF04FFBD4F889
:10AC6000940AFFF723FF94F8B12A94F8B23AC2F19C
:10AC7000200294F8B01AC3F1100384F8B32A84F8C0
:10AC8000B43A84F8AC1A49E71023A7F8F032C2E7C7
:10AC900000206AE72023A7F8F032BCE7002EF3D0AB
:10ACA00094F8A03A002B14BF10232023EDE700BF37
:10ACB000F82901200000012088340120F8B5474E12
:10ACC00096F8B54A04EB4403650006EBC30393F81A
:10ACD000B83A032B77D8DFE803F0492A1F0225444E
:10ACE00006EBC505D5F8BC3A002B6ED196F8182BAB
:10ACF000944268D0013404F003018A4286F8B51A00
:10AD000061D001EB41040222184606EBC404C4F8EA
:10AD1000BC3A84F8B82AF8BD2B1906EBC303D3F864
:10AD2000BC2A72B1013A0020C3F8BC2AF8BD2B1925
:10AD300006EBC303D3F8BC2A002AF3D1022283F81E
:10AD4000B82A254406EBC50595F8C43A013BDBB2A9
:10AD500085F8C43AF3B1224B0120D3F8F42202F271
:10AD6000E733B3FBF2F3C5F8BC3AF8BD3BF05AFB4E
:10AD700048B31B4A42F20F732C440121D2F8F4224B
:10AD800006EBC404134484F8B81AB3FBF2F3C4F816
:10AD9000BC3AF8BD124B601C0327D5F8C01AD3F893
:10ADA000F422384096F8184B531E85F8B87A001BE9
:10ADB0000B4418BF01209A42B3FBF2F188BF002078
:10ADC000C5F8BC1A30B90120F8BD013B0020C5F818
:10ADD000BC3AF8BD0139C5F8BC1AF8BDF829012004
:10ADE000000001200848002302461178063202299B
:10ADF00004D00133062BF8D10020704703EB430346
:10AE000000EB4300704700BF14350120F0B5A04CA3
:10AE100085B02422002104F61C304FF0F1FB94F899
:10AE2000416B002E3AD13546D4F8583B5BB39B6A50
:10AE30004BB39848984783682BB303880021DFF809
:10AE40007CC2013B604666469BB237780636032FCC
:10AE50001CD001310629F8D10022017806300229E0
:10AE600000F0AB800132062AF7D1D4F8801B052907
:10AE700009D002FB01C20131C4F8801B022000216D
:10AE8000938010705180284605B0F0BD062303FB67
:10AE90000141B1F81E3B013B9BB2DDE704F64833AC
:10AEA00094F8400BC4F8443B08B90025BCE73AF0DD
:10AEB000CFF80746C4F8540B3AF00CFA05460028C0
:10AEC000F3D0013E022376B284F8483B032EECDC3B
:10AED000D82303FB0646D6F86833002BE5D0C4F828
:10AEE0004C3B0FB12023FB800D2138463AF096F8F9
:10AEF000D4F8443B0126D8683AF000FAD4F8443B31
:10AF00002021586846F094FA634BD4F8442B84F817
:10AF10007C6B0026C4F8782B93E803000090322065
:10AF20008DF8041035F0FCFD052302AA6946D4F81B
:10AF3000440B8DF80A608DF809603BF00DFA9DF81E
:10AF40000A209DF8090012029DF80B10534B42EAAB
:10AF500000420A439A4200F0938032DCA3F5F113D9
:10AF60009A425ED042DD4E4B9A4252D002339A4210
:10AF700062D14FF400724FF48073A4F85C2BA4F8F4
:10AF8000683BB4F8682B0020B4F85C3B4FF4807148
:10AF9000120284F86A0BA4F85E1B02FB03F3C4F8E8
:10AFA000602BB3F1807FC4F8643B58D801223D4B3D
:10AFB00084F8712BC4F8583B36E7062101FB02C226
:10AFC0005CE7394B9A4234DC053B9A4234DD374B1F
:10AFD0001344032B4CD801A252F823F023B00008ED
:10AFE00013B0000805B0000873AF0008A3F52203F2
:10AFF000013B9A423CD02EDD2D4B9A4209D00133C1
:10B000009A4219D14FF48073A4F85C3BA4F8683BD2
:10B01000B7E780224FF48073A4F85C2BA4F8683B58
:10B02000AFE740224FF48073A4F85C2BA4F8683B90
:10B03000A7E7204B9A42E5D0002394F8400B1D4629
:10B04000A4F85C3BA4F8683BC4F8603BC4F8643BDC
:10B050003BF02EF8E8E6184B9A42D3D0ECE70123F8
:10B06000B721D4F8780B84F8703B46F09DF99DE742
:10B0700020224FF48073A4F85C2BA4F8683B80E78F
:10B080004FF480621023A4F85C2BA4F8683B78E7A7
:10B09000F829012050350120B8AA05081640E00023
:10B0A0001720C200C0AA05081940EF00EABF10FF30
:10B0B00017BA20001870EF00186001001435012045
:10B0C0002DE9F04F002383B0DFF8089288460D6821
:10B0D000DFF804E203E00133102B00F0B580012219
:10B0E0009A4032EA050102EA050CF4D1D8F804408E
:10B0F00024F0100ABAF1020F40F0A980DE0803F034
:10B10000070B4FF00F0AD8F8101000EB86064FEA35
:10B110008B0B376A0AFA0BFA01FA0BFB590027EA84
:10B120000A074FF0030A4BEA07070AFA01FB04EA91
:10B130000A0A37626FEA0B0706680AFA01FA26EA7A
:10B140000B064AEA06060660C4F30016D0F808A00B
:10B1500006FA03FBD8F80C600AEA070A06FA01F1BE
:10B1600041EA0A018160416821EA02024BEA0206D3
:10B170004660C268E60007EA0207C760ABD5D9F8A7
:10B18000446023F0030703F003020F2146F48046D6
:10B1900007F180479200C9F8446007F59C37D9F859
:10B1A000446001FA02FA06F480460196424E019983
:10B1B000B042B96821EA0A011AD006F58066B042A9
:10B1C0005CD03E4EB0425ED03D4EB04260D03D4E6F
:10B1D000B04262D03C4EB04264D03C4EB04266D0E9
:10B1E0003B4EB0420CBF0726082606FA02F2114376
:10B1F000B9606FEA0C06DEF80020E10303F10103F9
:10B2000054BF32404CEA0202CEF80020A203DEF81E
:10B21000041054BF31404CEA0101E702CEF804109B
:10B22000DEF8081054BF31404CEA0101CEF8081096
:10B23000A102DEF80C2054BF32404CEA0202102B6F
:10B24000CEF80C207FF44BAF03B0BDE8F08F59006F
:10B250000327D0F800B00AF1FF3A04EA07068F404E
:10B26000BAF1010F2BEA070B06FA01F66FEA07079E
:10B2700046EA0B0606603FF67CAF65E7012606FA54
:10B2800002F21143B4E7022606FA02F21143AFE7D5
:10B29000032606FA02F21143AAE7042606FA02F28E
:10B2A0001143A5E7052606FA02F21143A0E7062698
:10B2B00006FA02F211439BE7000002400008024038
:10B2C000000C02400010024000140240001802402E
:10B2D000001C024000380240003C01402DE9F04FC4
:10B2E0000421B94C002740264FF0A04204F55265D6
:10B2F0006160022194F8BD038BB0C4F8C84F666149
:10B30000C4F80054226027632761E7626762A16185
:10B31000E160C4E90777002800F05C81032116464C
:10B3200084F8BD13936823F001039360F3683046FB
:10B3300043F04003F36009F02BFFB36B012F054688
:10B3400043F48033B36316D0FDB194F8D05F022389
:10B35000012D84F8BD3300F0FA802368802101209C
:10B3600059625A6A42F480029A62FDF7D9F90020C4
:10B370000BB0BDE8F08FB36843F00603B360B36869
:10B3800043F02003B360002DDFD123683220DA6858
:10B3900022F0C042DA60DA6842F08042DA600AF0F5
:10B3A00025FD606848B32A4601272946C2EBC2033F
:10B3B000561C04EB830383F83C20A3F84220F2B22E
:10B3C00083F83D70824283F83F101965C3E911117B
:10B3D000ECD300221146C2EBC203561C04EB8303DC
:10B3E00083F8FC21F2B283F8FD11824283F8FF1149
:10B3F000C3F81012C3E98111EDD300222368D4F8F9
:10B400000CC01646D4F81080D4F82CE0D4E90671AC
:10B41000019102F14001013203EB81010F2A4E60DC
:10B42000F7D19A6BBEF1000F40F03E8122F400127A
:10B430009A631A6842F040021A601A6842F0800269
:10B440001A600022012F03F50066C3F8002ED3F81E
:10B450000028C3F80028D3F8002800F01C81032F2F
:10B4600000F0198142F00302C3F800284FF4846110
:10B47000564A196102E0013A00F02D8119698F06E0
:10B48000F9D41021514A196102E0013A00F02181FA
:10B490001969C906F9D4002131617161F161E0B126
:10B4A00003F510624FF0904A4FF0006B0F464FF6D5
:10B4B0007F399C4607E0176001311761C2F8089098
:10B4C0002032814260D01368002BF4DA11B1C2F847
:10B4D00000A0F1E7C2F800B0EEE73269B8F1010F61
:10B4E00022F48072326100F0E88000216FF0804227
:10B4F00099615A61B8F1000F03D19A6942F01002C4
:10B500009A619969324A0A439A61019A1AB19A6911
:10B5100042F008029A61BEF1010F00F0C980002DCF
:10B520007FF413AF0121626A84F838508A4284F8AC
:10B53000BD1300F0D2807368032043F002037360F0
:10B540000AF054FC94F8D05F012D7FF406AF03207D
:10B5500049F014F903283FF400AF236880222846FD
:10B5600040215A625A6A42F400129A62FDF7D8F8F2
:10B5700020210220FDF7D4F840210320FDF7D0F868
:10B5800000200BB0BDE8F08F002163460CF530625F
:10B590004FF0904A4FF0006B0F464FF67F398446CC
:10B5A00007E0176001311761C2F808902032614549
:10B5B00093D010680028F4DA11B1C2F800A0F1E7C6
:10B5C000C2F800B0EEE700BF00190120400D0300F3
:10B5D00000383C8000F0FF064B4B03204FF4C05571
:10B5E00084F8BC631A6B42F001021A630A221B6BD7
:10B5F000069105A903F00103089044480493049BB5
:10B60000079605950992FFF75BFDE36A012B71D060
:10B610003D4B062143205A6B42F080025A635A6B1D
:10B6200002F080020292029A5A6C42F480425A64FA
:10B630005B6C03F480430393039BFEF767F80323DB
:10B64000266833490820A269886084F8BD33012A3E
:10B65000B368276923F00103B3607FF467AEB26B70
:10B660002C4B22F48032616BB2630129F26803EA49
:10B670000203F360F36823F44013F36003D1F3682B
:10B6800043F48013F360304609F082FD012F054634
:10B690007FF45AAE6FE6BCF1000F3FF4E5AE42F026
:10B6A0000102C3F80028E1E642F400129A63C8E6FA
:10B6B0009969194A0A439A6131E718490020184AE2
:10B6C00031636FF08041376B3A433263986159615F
:10B6D00017E70125DFE60125D3E684F8F4539969DD
