:020000040800F2
:10000000F0FF01201D4D0508ADCB00081552040876
:10001000A14D0508A14D0508A14D050800000000EF
:10002000000000000000000000000000A9CB000854
:10003000A5CB000800000000A1CB0008251604088D
:10004000A14D0508A14D0508A14D0508A14D0508C4
:10005000A14D0508A14D0508B5620408E163040837
:10006000A5630408696304082D630408493B050877
:10007000393B0508293B0508193B0508053B0508E0
:10008000F13A0508DD3A0508A14D05080000000019
:10009000000000000000000000000000F162040801
:1000A000F1FF0308A14D0508E1FF03083D00040826
:1000B000310004082100040811000408193C050857
:1000C000213C0508093C0508113C0508A14D05081F
:1000D000A14D050845170408891604080000000012
:1000E00079620408A14D0508850E01080000000092
:1000F000000000000000000000000000C93A0508F0
:1001000000000000A14D050801000408A14D0508EC
:1001100000000000000000000000000000000000DF
:10012000B53A0508A13A05088D3A0508793A050857
:10013000653A050800000000000000000000000013
:10014000000000000000000000000000B9EC000802
:10015000513A05083D3A0508293A0508A14D050818
:10016000F93B0508013C0508000000000000000004
:10017000000000000000000000000000000000007F
:1001800000000000A14D0508000000000000000074
:08019000A14D0508A14D050871
:08019800BC4805000100000055
:1001A0000B3001001A00000078330020145A0020A0
:1001B00000000000A80800081F3001002400000013
:1001C00040330020305A002000000000C40800081E
:1001D00005020100040000005C570020545A002072
:1001E00000000000E8080008030101000A00000008
:1001F000C4320020585A002000000000B58C0008CE
:1002000013020100040000009C210020645A002019
:1002100000000000EC08000812200100110000009E
:10022000D0590020685A002000000000F0080008A3
:100230000D10010064000000204400207C5A0020C2
:1002400000000000A58403080400080080000000EE
:1002500078430020E05A0020000000000000000069
:10026000090201000100000080560020605B0020B0
:100270000000000002090008F9010100040000006C
:1002800060430020645B00200000000079EC03085C
:10029000FD010100240000003C430020685B0020B9
:1002A00000000000D3EB0308FB0101000100000087
:1002B000B04700208C5B00200000000031FC0408E7
:1002C000FC010100090000007C460020905B00203A
:1002D0000000000041FC0408F701010006000000D6
:1002E0007C4100209C5B0020000000000409000805
:1002F0000A800100280000006C390020A45B002067
:100300000000000075AB0108160215003F00000058
:10031000A0280020CC5B00200000000079FB04082E
:100320003400010010000000983800200C5C002010
:1003300000000000213D0208110201000800000039
:10034000703800201C5C0020000000000A09000832
:10035000121201000400000068380020245C002014
:1003600000000000120900081820010032000000FF
:1003700034380020285C002000000000C5FC040880
:10038000061001001C000000582700205C5C0020C3
:10039000000000005DFC0408000201000B000000EA
:1003A000B8340020785C00200000000015F4040838
:1003B000FE01010014000000BC4D0020845C002000
:1003C00000000000EDF304081B0201001000000013
:1003D000F4670020E87700200000000059F40408CA
:1003E0001B1001000C000000C85F0020F8770020FF
:1003F000000000005D48010821020100F00000003B
:10040000485E00200478002000000000A12A0108B6
:1004100023120100100000001C650020F478002069
:100420000000000018090008371001002E0000002D
:1004300064670020047900200000000028090008FB
:100440000E0201000200000018650020347900202F
:100450000000000056090008161001000600000008
:1004600010650020387900200000000058090008BD
:100470002F10010022000000C477002040790020E6
:10048000000000005E0900081E00010009000000D5
:10049000006400206479002000000000800900084A
:1004A0000510010006000000F063002070790020B4
:1004B000000000008A090008F581010068000000C2
:1004C000D85D00207879002000000000C9380108BC
:1004D0002320010010000000BC640020E07900200F
:1004E0000000000089AC0108FD0701007600000053
:1004F0001E5D0020F0790020000000006115010859
:10050000F62101000C00000004870020E88700208D
:1005100000000000900900081C0202001C000000FE
:100520008C8700203888002000000000E1FD0408CE
:100530001400010004000000D4860020548800202C
:10054000000000009C090008012001000C000000D0
:10055000907E00205888002000000000A0090008BC
:100560000EF003009E010000AC7B00206488002098
:1005700000000000D1250208130001000400000063
:1005800090840020048A002000000000AC090008CC
:100590000101010004000000FC7A0020088A00200C
:1005A0000000000000000000000101000400000045
:1005B000F47A00200C8A002000000000B009000836
:1005C0000201010003000000F07A0020108A0020E0
:1005D00000000000697F0308220201001C010000E6
:1005E00078820020148A002000000000E9FB040843
:1005F0000C200600CC000000707D0020308B002015
:10060000000000002D7F0308190001000500000014
:10061000349B0020989B002000000000B4090008D3
:100620001A0001000E000000B0980020A09B0020DE
:1006300000000000BA090008203201000A00000092
:10064000A4980020B09B002000000000AD25020807
:10065000150010007000000080920020BC9B00205C
:1006600000000000000000002A00080060000000F8
:10067000149900202C9C0020000000008525020811
:100680002C000400100000009C9C00208C9C00208A
:10069000000000005D2302082B001200240000006F
:1006A000D09C0020AC9C00200000000031230208F8
:1006B00029201400780000006C900020F49C002099
:1006C0000000000000000000030001000100000025
:1006D000B4B50020C4B800200000000000000000F5
:1006E000031201003D00000068B50020C8B80020DA
:1006F00000000000C809000825201E002C01000091
:10070000CCB2002008B9002000000000000000006A
:1007100010100100020000004CB2002034BA00208A
:1007200000000000060A0008F82101000600000091
:10073000A8B2002038BA002000000000080A000813
:10074000020001000C00000030C30020C4C30020E0
:10075000000000000000000029020100400000002D
:1007600084BD0020D0C30020000000000E0A000855
:100770000A0201001400000084BC002030C40020E4
:1007800000000000B98003082802040004000000F3
:10079000A8CB00204CCD00200000000055F4040838
:1007A0002702040004000000A4CB002050CD00204C
:1007B0000000000049F404081F02080010000000B7
:1007C000E8C8002054CD00200000000099F3040880
:1007D0001A0201003C0000008CC4002064CD0020FF
:1007E0000000000035FD0408381001000100000081
:1007F00050C40020A0CD0020000000004E0A0008D8
:100800002700010004000000CCCD00202CCE0020E9
:1008100000000000500A0008100201000100000062
:10082000A8E50020A4E5002000000000540A00080C
:1008300007020100020000008CE50020ACE500206A
:1008400000000000560A0008020201000300000038
:100850007CE50020B0E50020000000000000000062
:100860001D0202000600000058E50020B4E500204B
:100870000000000000000000060203000C00000061
:1008800070E500203CED002000000000C1FD0408E0
:10089000081203000F00000060E5002048ED002072
:0808A000000000001DF4040833
:1008A800AE014A015E012C01640002000000010053
:1008B8000A019A01001E0A00000200000000000060
:1008C8000001000000050000010203000000000014
:1008D8000000000000000000000000000080070089
:1008E80000000000000001000000000100000553A6
:1008F8004B463400000C00020000280032010000C2
:1009080000000000000001010101FFFFFFFF0000DF
:1009180000000000000000000000000000000000CF
:1009280020003200C800D0079600140032002800CA
:100938004C0440060005500014000F000800640035
:100948000100000005000A000000F4019600000004
:10095800C4090000190000000000000000000000A9
:10096800000000000000000000000000000000007F
:100978000000000000000000000501000000000069
:10098800000020000301000000000000010000003A
:100998000202000003000023E8036400040A0001C7
:1009A80014001E00002040309001000000002801C3
:1009B80000007E05EA05B4053200E803D007000010
:1009C800000000000000000000000000000000001F
:1009D800000000000000000000000000000000000F
:1009E80000000000000000000000000000000000FF
:1009F80000000000000000000000000001000005E9
:100A08000101F401140000000000000000000000D3
:100A180000000000000000000000000000000000CE
:100A280000000000000000000000000000000000BE
:100A380000000000000000000000000000000000AE
:100A48000000000000000000200300000000013C3E
:100A58000403090412010002EF0201408304563224
:100A6800000201020301000012010002020200401C
:100A780083044057000201020301000009026400D8
:100A8800030100C03209040000010300000009212D
:100A9800110100012236000705830309000A080B2B
:100AA800010202020100090401000102020100051D
:100AB8002400100105240100020424020205240672
:100AC8000102070582030800FF09040200020A0068
:100AD80000000705010240000007058102400000F0
:100AE80009024300020100C03209040000010202A9
:100AF800010005240010010524010001042402025C
:100B08000524060001070582030800FF0904010007
:100B1800020A0000000705010240000007058102E3
:100B280040000000FF00000000FF0000000000007F
:100B38000000AA550701000001AA55050100000898
:100B4800947E0508FF1FFF1F7D00000001000000C4
:100B58000000803F05010905A101A1000501093038
:100B6800093109320933093509340936093715813C
:100B7800257F7508950881020509190129081500BE
:100B88002501950875018102C0C0000009022200F4
:100B9800010100E0320904000001030102000921FB
:100BA800110100012236000705830309000A01002C
:100BB800B9820008B5820008B1820008A582000841
:100BC800A1820008AD820008A98200082D830008D0
:100BD80021830008F98200080D830008E5820008D7
:100BE800D1820008BD820008000004010000000056
:100BF80000000002100000000700000000000000D4
:100C08000102030401020304060708096DCD000868
:100C180029D40008A1CF0008D5830008B5890008A9
:100C2800E583000801840008AD8300089D8300085F
:100C380000000000000000002D202D2D202D2D2D5E
:100C48002D202D2D2D2D000000000000000000009B
:100C580000000000000000AA550B010000AA55057D
:100C6800010000AA550902000000AA5503009F00D0
:100C780001000000C01200000C5A00200000000013
:100C8800E4590020000000000100000000000100FD
:100C98007EFF0000FFFFFFFFFF000000FFFFFFFFD8
:100CA800E4F7050860F7050800000000F17F030875
:100CB800A086010004000000000000000000000001
:100CC800000000000000000000000000000000001C
:100CD800000000000000000000000000000000000C
:100CE800E4F70508ECF705080000000035EA0308FA
:100CF800E8030000040000000000000000000000FD
:100D080000000000000000000000000000000000DB
:100D180000000000000000000000000000000000CB
:100D2800F4F705080000000000000000ADDF02082D
:100D38007D000000FF00000000000000000000002F
:100D4800000000000000000000000000000000009B
:100D5800000000000000000000000000000000008B
:100D6800502A06080000000000000000F5F0020804
:100D78007D000000FF0000000000000000000000EF
:100D8800000000000000000000000000000000005B
:100D9800000000000000000000000000000000004B
:100DA8002408060800000000000000009D38030821
:100DB8007D000000FF0000000000000000000000AF
:100DC800000000000000000000000000000000001B
:100DD800000000000000000000000000000000000B
:100DE800FCF705080000000000000000DDEE030825
:100DF800E8030000030000000000000000000000FD
:100E080000000000000000000000000000000000DA
:100E180000000000000000000000000000000000CA
:100E280000F80508000000000000000095AA02086C
:100E38001027000003000000000000000000000070
:100E4800000000000000000000000000000000009A
:100E5800000000000000000000000000000000008A
:100E680058260608000000003D1F020879520408B1
:100E78005F76000005000000000000000000000090
:100E8800000000000000000000000000000000005A
:100E9800000000000000000000000000000000004A
:100EA800F429060800000000000000002D76040860
:100EB80010270000010000000000000000000000F2
:100EC800000000000000000000000000000000001A
:100ED800000000000000000000000000000000000A
:100EE8000CF80508000000000000000039EA0308BB
:100EF800E8030000050000000000000000000000FA
:100F080000000000000000000000000000000000D9
:100F180000000000000000000000000000000000C9
:100F280018F8050800000000000000000D83030801
:100F3800204E000003000000000000000000000038
:100F48000000000000000000000000000000000099
:100F58000000000000000000000000000000000089
:100F680028F805080000000000000000F5800308CC
:100F7800204E0000030000000000000000000000F8
:100F88000000000000000000000000000000000059
:100F98000000000000000000000000000000000049
:100FA80038F805080000000000000000D9F4030824
:100FB800400D0300030000000000000000000000D6
:100FC8000000000000000000000000000000000019
:100FD8000000000000000000000000000000000009
:100FE80048F805080000000000000000D9B7030811
:100FF80010270000010000000000000000000000B1
:1010080000000000000000000000000000000000D8
:1010180000000000000000000000000000000000C8
:101028008CF7050800000000000000004554010886
:10103800102700000300000000000000000000006E
:101048000000000000000000000000000000000098
:101058000000000000000000000000000000000088
:1010680050F80508000000000000000011E903081E
:10107800A86100000100000000000000000000005E
:101088000000000000000000000000000000000058
:101098000000000000000000000000000000000048
:1010A8005CF80508000000000000000049E30108A2
:1010B800A086010001000000000000000000000000
:1010C8000000000000000000000000000000000018
:1010D8000000000000000000000000000000000008
:1010E80068F805080000000000000000711C0408F2
:1010F800A00F000001000000000000000000000038
:1011080000000000000000000000000000000000D7
:1011180000000000000000000000000000000000C7
:1011280074F805080000000000000000F58D0108B3
:10113800102700000100000000000000000000006F
:101148000000000000000000000000000000000097
:101158000000000000000000000000000000000087
:1011680080F805080000000000000000F184010874
:101178001A4100000100000000000000000000000B
:101188000000000000000000000000000000000057
:101198000000000000000000000000000000000047
:1011A80084F805080000000000000000E98C000831
:1011B80010270000010000000000000000000000EF
:1011C8000000000000000000000000000000000017
:1011D8000000000000000000000000000000000007
:1011E80074F705080000000000000000B5EC0108D5
:1011F80050C30000010000000000000000000000D3
:1012080000000000000000000000000000000000D6
:1012180000000000000000000000000000000000C6
:1012280090F805080000000000000000ED97000895
:10123800400D030000000000000000000000000056
:101248000000000000000000000000000000000096
:101258000000000000000000000000000000000086
:1012680098F8050800000000000000003580030819
:10127800400D030000000000000000000000000016
:101288000000000000000000000000000000000056
:101298000000000000000000000000000000000046
:1012A800A0F805080000000000000000A59901084A
:1012B80050C3000003000000000000000000000010
:1012C8000000000000000000000000000000000016
:1012D8000000000000000000000000000000000006
:1012E800ACF805080000000000000000499603085B
:1012F80040420F0000000000000000000000000055
:1013080000000000000000000000000000000000D5
:1013180000000000000000000000000000000000C5
:10132800B8F805080000000000000000D187030895
:1013380050C3000000000000000000000000000092
:101348000000000000000000000000000000000095
:101358000000000000000000000000000000000085
:1013680001007F00FF0100000100000029A2010820
:101378000000000000000000C08B0508000000000D
:101388000000000029B501081C81002000000000B1
:101398000000000000000000F8A40508000000009C
:1013A8000000000000000000B0A5050800000000D3
:1013B80000000000000000005CA505080101000015
:1013C80051CD0108000000000000000084A60508B7
:1013D80079D0010800000000000000003CA60508C4
:1013E8002D202D2D202D2D2D2D202D2D2D000000D3
:1013F80000000000000000000000000000000000E5
:10140800FFFFFFFF4DBD01080000000000000000C5
:1014180088A4050801000000FA000000010000008F
:1014280001000000010100000001010100FF0000AF
:101438008C7E00200000F401010000008A7E00205C
:101448000000F40101000000887E00200000F40183
:1014580001000000867E00200000F4010100000069
:10146800847E00200000F40101000000827E00203C
:101478000000F40101000000807E00200000F4015B
:1014880001000000FDA90108C1A901080000000031
:1014980080910508707E0020053201007E7E0020C4
:1014A8006400F401010000007C7E00206400C4098F
:1014B800010000006E7E0020E803D0070100000054
:1014C8006C7E0020E803D007010000006A7E00203F
:1014D800E803D00701000000687E00201E00B80B5A
:1014E80001000000767E002005000F0001000000CA
:1014F800787E002003000A0001000000667E0020BC
:101508001E00F401010000007A7E002002000000A5
:101518000C920508647E002014006400010000009D
:10152800727E00203200E80301000000627E002085
:101538000000C800010000006D7D002000C8010007
:101548006C7D0020005001006B7D0020005A0100D6
:10155800697D002002000000189205085CFF05085C
:1015680064FF0508F24500200100C40900000000DE
:10157800F04500200100C40900000000EE450020ED
:101588000100C40900000000EC4500200100C40966
:1015980000000000E84500200100C4090000000028
:1015A800EA4500200100C40900000000E6450020CB
:1015B8000100C40900000000E44500200100C4093E
:1015C80000000000177B002000C80100167B0020E7
:1015D80000C80100147B00200000FFFF0A00000083
:1015E800127B00200100C80001000000107B0020D1
:1015F80032003075320000000E7B002005820500A5
:101608000C7B002005002C01050000000B7B00204E
:10161800055A0500087B002000FF01000A7B002016
:1016280002000000A40C0020067B0020030000003C
:10163800E0850508077B002000FF0100097B0020EA
:1016480002000000A40C0020057B0020030000001D
:10165800E085050851A90108E1A80108000000007B
:1016680024920508A07E0020EE02CA0801000000AE
:101678009E7E002000C80100640000009D7E0020BE
:1016880000C80100640000009C7E002002000000E9
:1016980030930508027B00200000803E0500000012
:1016A800007B002080C1803E05000000FA7A0020FF
:1016B8000083007D05000000F87A002080C1803E8C
:1016C80005000000F37A002000FF0100EC7A0020FA
:1016D8006400F40101000000EA7A00200400000020
:1016E8003C930508E97A00200200000050930508A1
:1016F8009D7B00200D0000005C9305089A7B00206C
:1017080000640100987B0020320010270A000000C6
:10171800967B00200D0000005C930508957B002057
:101728000D0000005C930508947B00200200000077
:1017380094930508A67E00203E000000A0930508AB
:10174800A47E00200100FF7F01000000A37E00208E
:10175800020000009C9405089F7B00200300000005
:10176800AC9405089E7B002003000000AC9405089B
:101778005A7D0020000A0100587D00200000E8037F
:1017880001000000567D00200000E8030100000071
:10179800547D00200000E80301000000527D002075
:1017A8000000E803010000004A7D00200000E80373
:1017B80001000000507D00200000E8030100000047
:1017C8004E7D00200000E803010000004C7D002051
:1017D80000140100687D002002000000BC94050888
:1017E800667D00200000F40101000000647D0020F7
:1017F8000000F40101000000627D00200000F401F7
:1018080001000000607D00200000F40101000000DC
:101818005E7D00200000A00F010000005C7D00201C
:101828000000A00F010000004F7E00201964010095
:101838004E7E002002000000C89405084C7E00205F
:10184800E803D0070A0000004A7E00200064010077
:101858000A0000003F7E0020006401003E7E002058
:1018680000640100467E0020006401000A000000B8
:10187800457E0020006401000A000000447E00202C
:10188800006401000A000000497E002000FF0100FA
:101898000A000000487E002000FF01000A00000046
:1018A800477E002000FF01000A000000437E002060
:1018B80001FF01000A000000427E002001FF010034
:1018C8000A000000417E002001FF01000A0000001C
:1018D800A87B00200000F40101000000A67B002086
:1018E8000000A00F01000000A47B00200000A00F52
:1018F80001000000A27B00200000A00F01000000F2
:10190800A07B00200000A00F010000009D800020A7
:1019180000C801009C800020006401009B8000201A
:10192800006401009A800020006401009980002072
:101938000064010098800020FF08010097800020C3
:101948000164010049A801080DA801080000000071
:10195800D4940508A0800020013201009F80002057
:1019680001000000449505089E8000200400000046
:101978004C950508968000200064010094800020A2
:101988001400E8030100000092800020E80330758D
:101998000A0000009080002000C801008F8000200D
:1019A80000C801008E80002000C801008D80002042
:1019B80000320100A2800020004B0100A18000201D
:1019C80004000000609505088C8000200064010078
:1019D8000A000000B08000200000D00701000000CD
:1019E800AB80002000C80100AA80002000C80100C8
:1019F800A980002000C80100AE8000200000D007A8
:101A080001000000A880002000C80100A780002075
:101A180000C80100A680002000C80100AC8000209A
:101A28000000D00701000000A580002000C80100C8
:101A3800A480002000C80100A380002000C8010085
:101A480001A60108E9A50108000000007495050831
:101A5800917B0020005A0100907B002000C8010003
:101A68008E7B0020E803D007010000000000000082
:101A78000000000069B50108109605085350454B51
:101A88005452554D463430300000000025A5010859
:101A9800D9A40108000000005896050899A4010877
:101AA80051A4010800000000F496050871A501087A
:101AB80095B901080000000074970508047B002010
:101AC80001030100BDAA010891AA01080000000055
:101AD800CC9A0508EDA30108A1A3010800000000A5
:101AE8003C9B050811A60108C1D9010800000000A7
:101AF800D89B050815B60108E9AA010800000000EE
:101B0800809C050861A60108000000000000000094
:101B1800009D05083DA70108E5A601080000000092
:101B2800649D0508D1A7010895A7010800000000D9
:101B38000C9E05085118020885A80108000000003D
:101B4800989E0508617E002001060100A9A60108EB
:101B580075A6010800000000949F05088517020873
:101B6800F9B901080000000004A005089918020846
:101B7800C1BA01080000000054A10508607E0020D9
:101B880001030100B9A5010889A5010800000000AA
:101B980028A20508F1180208000000000000000053
:101BA8008CA2050839A401087DB9010800000000CD
:101BB8000CA3050800000000000000000000000061
:101BC80070A30508B9A8010839BB01080000000086
:101BD800E0A305080000000000000000000000006D
:101BE800F8A50508085700209CFF2C0100000000FC
:101BF80028840020E0150C17000000008A800020CF
:101C08000200000030A60508E47A002088136F1748
:101C180001000000E67A002088136F17000000001A
:101C2800B63200200000000000000000B43200209E
:101C38000000000000000000B23200200000000098
:101C480000000000B032002000000000000000008A
:101C5800AE3200200000000000000000AC3200207E
:101C68000000000000000000BC030020000000008D
:101C7800000000006C7A00200300000020A705087F
:101C8800DC7A002088136F170100000052570020EB
:101C980088136F1700000000E1A20108000000008F
:101CA8000000000030A705088B800020010000001C
:101CB80084A70508545700200100000090A70508D4
:101CC8004A5700200200000098A7050800000000FD
:101CD8000000000000000000A4A70508C9A2010830
:101CE800000000000000000040A8050800000000F7
:101CF800000000000000000094A805080000000093
:101D0800000000000000000004A90508E87A00208F
:101D1800020000003CA905084E570020E0150C17EA
:101D280000000000048C0020588C002001D601001F
:101D38006C9D00200000803F0000000000000000B3
:101D4800000000000000000000000000000000008B
:101D58000000000000000000000000000000803FBC
:101D68000000000000000000000000000000803FAC
:101D78000000000000000000000000000000803F9C
:101D8800000000000000000000000000010000004A
:101D98000000FA430000FA430000803FE9B9030855
:101DA800000000000000000000000000FFFFFFFF2F
:101DB800FF000000FFFFFFFF0000000020C400201C
:101DC800080000000000000010C400200800000007
:101DD80020000000818900086188000881CF000880
:101DE800000000009983000839CD0008D987000851
:101DF800A1CC000800000000000000005583000886
:101E0800F188000821880008CDCE000800000000F5
:101E18006D830008A5CC0008AD870008F5CB000845
:101E2800000000000000000061830008006002401C
:101E3800106002400000000000000000000B0000DD
:101E480000000000000000000000000000600240E8
:101E5800286002400100000000000000060C00009D
:101E680000000000000000000000000000600240C8
:101E7800406002400200000000000000100D000059
:101E880000000000000000000000000000600240A8
:101E9800586002400300000000000000160E000019
:101EA8000000000000000000000000000060024088
:101EB800706002400400000000000000200F0000D5
:101EC8000000000000000000000000000060024068
:101ED8008860024005000000000000002610000095
:101EE8000000000000000000000000000060024048
:101EF800A060024006000000000000003011000051
:101F08000000000000000000000000000060024027
:101F1800B86002400700000000000000362F0000F3
:101F28000000000000000000000000000064024003
:101F380010640240000000000000000000380000AB
:101F480000000000000000000000000000640240E3
:101F5800286402400100000000000000063900006B
:101F680000000000000000000000000000640240C3
:101F7800406402400200000000000000103A000027
:101F880000000000000000000000000000640240A3
:101F9800586402400300000000000000163B0000E7
:101FA8000000000000000000000000000064024083
:101FB800706402400400000000000000203C0000A3
:101FC8000000000000000000000000000064024063
:101FD800886402400500000000000000264400005C
:101FE8000000000000000000000000000064024043
:101FF800A064024006000000000000003045000018
:102008000000000000000000000000000064024022
:10201800B8640240070000000000000036460000D7
:1020280000000000000000000000000001000000A7
:10203800A00F0000B80B00000102FFFF0100000024
:102048004C260608000008020503030000000000F3
:1020580054260608010008020504030000000000D9
:10206800B41C06080200FE01011003000000000075
:10207800CC02060803001402000300000000000060
:102088005C26060804001F02020008000000000089
:102098006426060805001F0202010800000000006F
:1020A800FFFF0000FFFFFFFFB8F205080000000077
:1020B80000000000010203040607080901000000EF
:1020C8000C180020000000000000000000000000C4
:1020D80000000000000000000000000000000000F8
:1020E80000000000000000000000000000000000E8
:1020F80000000000000000000000000000000000D8
:1021080000000000000000000000000000000000C7
:1021180000000000000000000000000000000000B7
:0421280000000000B3
:082800000000000000000000D0
:108000002DE9F04700230F6801264FF0030C02E032
:108010000133102B41D006FA03F232EA0704F7D1FC
:10802000D0F800E05C000CFA04F52EEA050EC0F86A
:1080300000E091F80490D0F800A009FA04FE09F1DC
:10804000FF394EEA0A0EB9F1010FA846C0F800E068
:108050006FEA050515D8D0F808E005EA0E05856039
:108060004D79D0F808E0A54045EA0E0585604568E1
:1080700025EA020242608A7945689A4092B22A4310
:108080004260C26822EA0802C260CA79C568A2409A
:1080900001332A43102BC260BDD1BDE8F08700BF79
:1080A000037830B403B30246C0F10105531912F846
:1080B000014FDBB2002CF9D101335B00DAB20C4C7A
:1080C0000B80032322706370017859B102230025CD
:1080D0005A1CD2B2E154A55410F8011F0233DBB28E
:1080E0000029F5D130BC704702221346E7E700BFF4
:1080F00070180020084AD2E9403199420AD0D118BC
:10810000013391F808110170C3F30A03C2F800317A
:10811000012070470020704770180020064AD2F8EE
:108120000839D2F80C29934294BF4FF40060002024
:10813000013B9B1A1844704770180020012380F8F7
:108140005130704707B501A8FFF7D4FF0028FAD0D7
:108150009DF8040003B05DF804FB044BD3E9400331
:10816000984288BF03F50063181A70477018002002
:1081700001207047024BC3F81029C3F81419704747
:1081800070180020024BC3F81829C3F81C19704757
:10819000701800207047704730B4134DD5E9402364
:1081A0009A4286BF03F50064A21A9A1A0A44B2F5ED
:1081B000006F13D8A9B101444A1E013810F8014FCD
:1081C000E918824203F1010381F80841C3F30A036D
:1081D000F4D1C5F80431002030BC7047022030BC17
:1081E00070470846F8E700BF70180020212838B50E
:1081F0000C4605D022282ED0202813D0002038BDD0
:108200000029FBD0072AF9D11A4BD3F8200993F89B
:10821000241993F8252993F8263920602171627179
:10822000A371EBE70029E9D0072AE7D1114DD5F872
:1082300014391BB10968D5F81009984720682179CD
:108240006279A379C5F8200985F8241985F82529CC
:1082500085F82639D2E70029D0D0022ACED1054AA6
:10826000D2F81C39002BC9D00988D2F818099847D0
:10827000C4E700BF70180020024B0020C3F8280993
:10828000704700BF70180020044B00200522C3F87F
:108290002829C3F81C09C3F8140970477018002076
:1082A000704700BF704700BF704700BF704700BFF6
:1082B000704700BF704700BF704700BF08B5024855
:1082C000FFF7EEFE014808BDE8F20508701800202F
:1082D00008B50248FFF7E4FE014808BDF8F20508BA
:1082E0007018002008B50248FFF7DAFE014808BD03
:1082F00004F305087018002008B50248FFF7D0FE07
:10830000014808BD10F305087018002008B50248A0
:10831000FFF7C6FE014808BD1CF3050870180020D1
:10832000042301480B8070479801002010B4074ACD
:10833000074B92F82C09122403F114020C80012837
:108340000CBF184610465DF8044B704770180020AB
:108350009C010020642301480B807047C401002069
:10836000432301480B8070472802002010B5084CB9
:10837000D4F8D400FF2809D00649D1F8302901F6F5
:108380003411FFF733FFFF23C4F8D430002010BDB1
:108390009801002070180020E8E700BF08B5D0F869
:1083A000E4355B6A9847002008BD00BF08B5D0F8E7
:1083B000E4351B6A9847002008BD00BFD0F8E435BB
:1083C00010B504461B689847D4F8E8359B68984771
:1083D000002010BD08B5D0F8E435DB6903B198473B
:1083E000002008BD08B5042290F81211D0F8E83535
:1083F00080F8131180F81221DB689847002008BD2F
:1084000010B5D0F8E83504461B699847032384F873
:108410001231002010BD00BF0B0617D401EB810301
:1084200000EBC30310B400EB81000124002283F8A9
:10843000764383F8741383F87523426D5DF8044B1B
:10844000136843F4001300201360704701F07F01AC
:1084500001EB810300EBC303012200EB810083F8F1
:108460001C1183F81E2183F81D2182691368002BDB
:1084700001DA43F0804343F4001313600020704797
:1084800082B00023016801930B6901930E4B03E056
:108490000A690192013B13D0019A002AF8DA019A85
:1084A000094B42F001020192019A0A610A690192A4
:1084B00003E00A690192013B02D0019AD207F8D485
:1084C000002002B0704700BF400D0300436D064A14
:1084D0001A61C278012A06D100F2CC5058614FF0DF
:1084E000802219681A6070471800086010B5802152
:1084F0000446FFF791FF20460021FFF78DFF20463D
:10850000BDE81040E2E700BF70B44B78012B26D0E5
:108510000B784A6900EB83035C6D25682369D2B14F
:108520008A684A6102F07F0223F4002323F07F036C
:1085300042F4002213432361C378012B04BF0B696B
:108540006361C5F3076363F07B0363F31F65256015
:10855000002070BC70478A6802F07F02E4E78269FD
:108560004C691568136944B38E68B4428CBF06F039
:108570007F0404F07F0423F4002323F07F0344F4FA
:10858000002443EA040388BF4E611361C378012BC2
:108590001DD0C5F3076464F07B0464F31F651560A8
:1085A000002BD5D14B69002BD2D002690878516BD2
:1085B000012383400B435363CAE723F4002323F0D2
:1085C0007F0343F400231361C378012BE1D10B78BF
:1085D0000C6900EB8300C5F30763816963F07B03DB
:1085E00063F31F654C610020156070BC704700BFCD
:1085F0002DE9F0434B78012B30D00B784C6900EB20
:1086000083035E6D356837691CB38B681C44013C7D
:10861000B4FBF3F4C4F3090203FB02F3C3F3120344
:108620004B61144643EAC44363F31C073761C378C4
:10863000012B04BF0B697361CB78012B44D0C5F3C8
:10864000076363F07B0363F31F6535600020BDE8BB
:10865000F0838A680124C2F31203E3E791F80080F3
:108660004E6900EB880EDEF818C0DCF80050DCF82C
:10867000107076B3D1F80890384A06EB0904013C33
:10868000B4FBF9F402EAC444C6F312022243CC78E4
:1086900007F060473A43012C174649D0CCF8102028
:1086A000C278012A55D00269516B03FA08F30B43D3
:1086B0005363C5F3076363F07B0363F31F65CCF873
:1086C00000500020BDE8F0834B7973B345F00055AE
:1086D000B5E707F0604747F40027CC78CCF8107076
:1086E000C378012B2FD0012CE3D102699268D20507
:1086F00054BF45F0005545F08055C5F3076262F060
:108700007B0262F31F65CCF80050002B9ED1B0B203
:1087100003308010DEF8D04098D0CA6852F8041BAD
:10872000216001339842F9D190E745F0805586E702
:1087300064F35E77CCF81070C378012BD5D10A6949
:10874000CCF81420D1E70A69CCF81420012CB0D160
:10875000CBE70B69CCF81430ABE700BF0000F81F83
:1087600038B501EB810400EBC4040D46002184F808
:108770007453C4F88C1384F87513C4F88833C4F8A0
:108780008023C3782821012B01FB050108BFEDB22E
:1087900001F55D7108BFC4F884231DB9FFF7B4FE6D
:1087A000002038BDFFF724FF002038BD10B501EBD5
:1087B0008101084A00EBC1010446B1F88C13104650
:1087C000FFF7EAFC034A204640230121FFF7C8FFD8
:1087D000002010BDAC210020E8E700BF30B44C7889
:1087E0000022012C154612D0097800EB81040123E8
:1087F0008B40646D63F31F4501696FF3CF322260D4
:10880000CB6923EA0503002030BCCB6170470B78AD
:1088100000EB83019C4064F30F058C69ECE700BF1B
:1088200040F2011310B500F5A2710446A0F84431DE
:10883000FFF7D4FF0123A4F89C3304F567712046A9
:10884000FFF7CCFF4FF48173A4F86C3104F5B671D7
:108850002046FFF7C3FFFFF70FFD002010BD00BF4C
:1088600038B540F2031304460D46A0F8943100F5E4
:10887000CA71FFF7B3FF29462046FFF7D1FF00205A
:1088800038BD00BFF0B44B780A78012B4FF00004DC
:1088900000EB820524D0012393406D6D63F31F44E8
:1088A0002E68330415D48A6891F803C0CF880F4925
:1088B000C2F30A0242F0805343F400430CF0030277
:1088C00043EA824307F00F0243EA825331400B43ED
:1088D0002B600369DA691443DC610020F0BC704747
:1088E0009340AD6963F30F04DAE700BF007833EC1F
:1088F0002DE9F04140F20113044602254FF04008F3
:1089000001270026A0F84431C0F84C8180F8475177
:10891000A0F84A7180F8486100F5A271FFF7B2FF34
:1089200004F56771A4F89C73C4F8A48384F89F537A
:1089300084F8A0632046FFF7A5FF082203234FF425
:108940008171C4F87421A4F86C1184F86F3104F5B6
:10895000B671A4F872512046FFF794FF064B9D8331
:10896000FFF792FC054A434620463946FFF7F8FEDA
:108970003046BDE8F08100BF98010020AC21002006
:1089800070B50323092240F2031604460D46C0F8D1
:108990009C2180F89731A0F89A31A0F8946100F5F5
:1089A000CA71FFF76FFF29462046FFF7A1FF00209D
:1089B00070BD00BF70B5002540260446A0F8745372
:1089C00080F87753C0F87C6300F55D71FFF75AFFBC
:1089D0004FF48073A4F81C3104F58E71C4F824613F
:1089E00084F81F51A4F822512046FFF74BFFD4F81A
:1089F000E835A078012284F812215B689847284660
:108A000070BD00BF82B000230193019A094B42F070
:108A100010020192C168019A0A610A69019203E099
:108A20000A690192013B02D0019AD206F8D40020D3
:108A300002B07047400D030082B000230193019AF9
:108A40000B4B42F020020192019A61F38A120192CB
:108A5000C168019A0A610A69019203E00A690192F8
:108A6000013B02D0019A9206F8D4002002B0704770
:108A7000400D03000E4BDA68D20310D4DA68D10639
:108A80000FD4DA68D20510D4DA6812F0E00F0AD1F8
:108A9000DB6813F0020F14BF082009207047012083
:108AA000704706207047072070470220704700BFBC
:108AB000003C0240024A536A23EA000050627047B9
:108AC0000038024000207047704730B1034B93F9E3
:108AD0007C090028D4BF00200120704770180020B6
:108AE00008B5FFF7F2FF60B1064A92F87D3992F8B7
:108AF0007E295B0003F00203002A18BF43F0010344
:108B00000B6008BD7018002008B5FFF7DEFF18B134
:108B1000024BD3F880390B8008BD00BF70180020CD
:108B200070B5FFF7D2FF90B1094AB2F8845975B118
:108B3000D2F888690023B3421C4608DA02EB4404E9
:108B40000133B4F88C49AC42DBB2F4D30B7070BD86
:108B50007018002008B5FFF7B8FF10B100230B70A4
:108B6000137008BD0420704728B1034B93F9D80057
:108B7000003818BF012070479801002008B5FFF7A2
:108B8000F3FF50B1054B93F9D820012AC3BF93F8E6
:108B9000DB30C3F340030B60002008BD98010020C8
:108BA00008B5FFF7E1FF18B1024B93F8DA300B700C
:108BB00008BD00BF9801002070B5FFF7D5FF38B1A0
:108BC0000E4C94F8DB30DB0703D500230B701370D9
:108BD00070BD0B4D94F9D93095F89C6993FBF6F371
:108BE00001330B7094F9D94095F89C1994FBF1F37B
:108BF00001FB134301331370EAE700BF9801002023
:108C0000701800200320704770B50B4A92F8A03905
:108C100006255E1CB6FBF5F405FB146492F8A15919
:108C2000AC4207D002EBC30382F8A049C3F8A40901
:108C3000C3F8A81970BD00BF70180020002230B51D
:108C400004461046914200DC30BDA35C0825584024
:108C500010F0800F4FEA400318BF83F0D503013DA9
:108C6000D8B2F5D10132EDE710B5E9B10F4BD3F829
:108C7000D409814218DCBAB1D3F89C399A4213DC8A
:108C80000B4C013A013903FB012184F8E61004F191
:108C9000E2000521FFF7D2FF062184F8E70004F186
:108CA000E200BDE81040AFE710BD00BF7018002023
:108CB000980100200023038083708380C3800372A7
:108CC000704700BF074A92F8D83992F8D919013392
:108CD000DBB2994282F8D83904BF002382F8D83930
:108CE000704700BF70180020F8B5794CD4F8DC3913
:108CF00083B1D4F8E03993F82E305BB1754B94F81A
:108D0000E429A3FB0013012A4FEA931330D0022A6F
:108D100008D002B1F8BD704B9842FBD9012384F80A
:108D2000E439F8BDD4F8E82964329A423ED894F880
:108D3000D83904EB031393F8682EFF2A06D067494D
:108D40000132012083F8682E81F8E800FFF7BAFFAE
:108D500094F85C3E0122092B84F8E429DAD1B4F8B6
:108D6000063F13449BB2A4F8063FA4F8623EF8BD48
:108D700094F8D819C4F8E8398C2303FB014394F81C
:108D80005C0E83F8FE29002604F51F650A220223E3
:108D9000092884F8FA69C4F8EC5984F8FB2984F8A6
:108DA000E439B7D10131A4F8601EF8BD94F8FA296E
:108DB00094F8FB399A42ADD104F6EF1004F6F81599
:108DC000002310F8012F082153405A0013F0800FA0
:108DD00008BF5B0082F0070214BFD3B2DBB20139D7
:108DE000F3D18542EDD194F8F9299A4239D194F81A
:108DF000D869B4F8F35994F8F779B4F8F50994F808
:108E0000F83994F8F1C904EB06126DBA40BA43EA96
:108E10000723ADB294F8F27982F8681EC2F86C5E4E
:108E200081B22E4D94F9F009C2F8701E47EA0C2762
:108E30001BB20121032EA2F86A7EA2F8743E82F8CA
:108E4000690E85F8E81009D894F85C2E0C2A2AD00F
:108E50000D2A03D104EB4606A6F8600EFFF732FF99
:108E60005CE794F8D83904EB031393F8682EFF2AD3
:108E700006D01A490132012083F8682E81F8E800F3
:108E8000FFF720FF94F85C3E0122092B84F8E429C7
:108E90007FF440AFB4F8043F13449BB2A4F8043FFE
:108EA000A4F8643EF8BD94F8021F0D4A03EB830357
:108EB00003EB830349089B0004EB460693FBF1F3A5
:108EC00082FB0312DB17C3EBA203A6F8603EC5E7E3
:108ED00070180020D34D62103F4B4C0098010020C9
:108EE000676666660B4B93F8FA1993F8FB29914273
:108EF0000ED010B493F8FA29D3F8EC49511CD2B231
:108F0000C0B2C9B283F8FA19A0545DF8044B704797
:108F1000704700BF70180020FD2870B522D0F028DF
:108F200004D0EF2822D00224204670BD114D03202A
:108F3000052641282E444FF0000405F1010580F07C
:108F400080030DD0042B0BD9FFF7E6FF2044B54278
:108F5000C4B2E9D015F8010B412880F08003F1D1AB
:108F60000420F3E7044D0B200426E2E7034D0C2018
:108F70000626DEE78C7A0508887A0508947A0508C3
:108F80000C4AD2F81C3F30B41C68D2F8145F5D6004
:108F900019810025611C19609D812070D2F81C3F49
:108FA000D2F8141F1A685A604FF6F67230BC196076
:108FB0009A81704770180020134B10B400220F24C0
:108FC00083F8221F090A83F8210F83F8231FC3F8AF
:108FD000242FC3F8282FC3F82C2F83F8204F03F534
:108FE0007260012110F8014F013122440E29D2B2E2
:108FF000F8D183F82E2F0549D3F8300F5DF8044BD4
:10900000102238F0FDBD00BF70180020902700200E
:10901000054B002183F8341FC3F8381FD3F8303FC5
:1090200003B1C9E7704700BF701800202DE9F04F69
:10903000C94DDFF8649384460F4616460FCD09F6F6
:109040003C742DED068B0FC40FCD0FC495E80700BF
:109050008DB099F8EA3E039684E80700CDE908C789
:10906000042B00F26181DFE813F0C0015F015A01B7
:109070000500D0019FEDB98ADFEDB98AB949C9F879
:10908000581FB949B94BBA4AC9F8541F0399002966
:1090900018BF134638EE887AF5EE006A86EE87AA86
:1090A000B44FDFF8F8B2C9F8603FA7F18103049329
:1090B000ABF1C8080026DFEDB07A9FEDB09A28EE3C
:1090C000278AF0EE679A099BB34200F02281049B45
:1090D00013F8014B0493731C0593DAB2002C00F0D3
:1090E0009781002303E00133152B00F0918103EBFE
:1090F00043015D0018F80100A042F4D159440692E2
:1091000011F8C71C002900F08B81204637F078F950
:10911000036807938246184637F05EF99AF80510FF
:1091200037F0B2FA90F800E0BEF1000F40F0708125
:109130000BEB050025090321013D069A079B00F86A
:10914000872C8D4200F8881C04F00F0C00F2398146
:109150008B4800EB4500B0F8400040FA0CF414F0E6
:10916000010400F04081012404FA0CF3013B184093
:1091700006924BF05BFC824BDFF824C2069A1D443A
:10918000032195F848307E4D18440CEBC0037B61F9
:109190009971DA715CF830009AF8082000F13F41CB
:1091A00001F57E0105EB912191F84C1001F01F05AE
:1091B0004909032904FA05F400F01081042900F09C
:1091C0000881022900F000819B880A93B3FA83F397
:1091D000C3F11F03C3F3CC0100EB810103F00703CC
:1091E0000C6A9B000F259D4024EA05040C620C6A62
:1091F00002FA03F323430B6202230AA90B93FEF73F
:10920000FFFEDAF80030039A002A00F0CB80B9F8AC
:10921000E82E00EE102AB8EEC00AFCEEC07A17EE77
:10922000901A584A934200F08480A2F580629342DB
:109230007FD002F5804293427BD002F58062934258
:1092400077D002F58062934273D0DBF81421500886
:109250004FF6FF73B0FBF1F21A44120CB0FBF2F2BE
:109260000398002868D0B2FBF1F199F8EA0E0428BF
:109270008BB266D007EE902AF8EE676A66EE887ABF
:1092800029EE677A99F8EB0E08990091A6EEA87A74
:10929000019051463846C7ED027A87ED037A2FF0E8
:1092A000B1FC002E40F389807B68D9F8742F93427B
:1092B00000F08580012E00F08080D9F88C2F934239
:1092C0007DD0022E79D0D9F8A42F934277D0032EE7
:1092D00073D0D9F8BC2F934271D0042E6DD0D9F839
:1092E000D42F93426BD0052E67D0D9F8EC2F934240
:1092F00065D0062E61D0244A1268D31A18BF012304
:10930000059E3B740122082E7A7407F118077FF43A
:10931000DAAE1E480DB0BDEC068BBDE8F08F9FEDB8
:109320001C8AF0EE488AA9E69FED1A8AF0EE488A78
:10933000A4E6DBF814018BE799F8EA0E0428194635
:1093400098D107EE901A07EE102AF8EE677AF8EE39
:10935000476A67EEA97A93E79C7A0508ACC5A737F8
:10936000ACC5A7368D80030869EC0308097B0308A8
:109370005DEC0308E02700206F12833A00007A4476
:10938000887A05080004014074280020AC270020DA
:10939000282930386F1203397018002068290020FE
:1093A0000C290020B0EE4A0A06934CF0F1F9FCEECD
:1093B000C07A069B17EE901A33E70123A0E700233B
:1093C0009EE7C7F814E01EE716494D6C2C434C6429
:1093D000FAE614490D6B2C430C63F5E611490D6C4C
:1093E0002C430C64F0E67C610DE79FED0F8A0F4B78
:1093F000C9F8543F00230E4A089301230393C9F888
:10940000582F0C4BF0EE488A44E69FED0B8AEEE7AE
:109410000A4A084BC9F8582FC9F8603F002079E77D
:109420000B68FFDE003802406F12833A69EC0308D4
:109430008D8003085DEC030800000000017E030836
:10944000F8B51A4D95F81831002BFBD161B30144E2
:10945000174F4E1E441ED7F80C29D7F8081914F8D8
:1094600001CF531CC3F30A038B422CBF4FF400609F
:109470000020C91A2A4401440129C7F80C3982F88E
:109480001CC10FD1012038F029F8D7F80839D7F8D6
:109490000C198B4294BF4FF4006200225B1A1344F4
:1094A000012BEFD0B442D6D10020F8BD68290020AE
:1094B000701800200A4B0846D3F8281910B569B176
:1094C000D3F82839052B09D1064C002AD4F81C39C9
:1094D00004DD1146FFF7B4FFD4F81C3910BD00BFFE
:1094E000701800206829002010B590F85010002353
:1094F00080F8503089B10C4CD4F828297AB1D4F8CE
:109500002829052A0DD1094C3C30D4F81C39FFF725
:1095100097FFD4F81C39012010BD0120FCE710464C
:10952000FAE71846F8E700BF701800206829002005
:10953000002280F85120D7E790F85020531C0244B5
:10954000DBB280F8503082F83C1090F851200AB11C
:10955000132B00D9C8E77047F8B50546262020F040
:109560009FF9134C0146F0B9D4F8200990F838302F
:109570001E3B012B01D938F077FB0E4F0026AE427F
:1095800009DBB4F844390133A4F84439D4F81C3960
:10959000C4F85439F8BD17F8011BD4F8200938F085
:1095A00063FB0136EBE7002384F85239EEE700BF96
:1095B000682900208C32002038B5154C94F8A13968
:1095C00094F8A0299A421CD004EBC303114AD3F8A3
:1095D000A419D3F8A8090023984213DC8B780E4A0B
:1095E0005B0882F85239C2F85809FFF7B5FF94F8C2
:1095F000A13906210133B3FBF1F201FB123384F8E8
:10960000A13938BDCD5C02F8015B0133E4E700BF4E
:10961000701800208C320020682900202DE9F84FB6
:109620001B4C05461E2094F85CA994F85DB994F88B
:109630005E69B4F86099B4F8628994F8647920F0AE
:109640002FF930B1B8F1000F03D0C14601264FF019
:10965000000A94F86639DA070AD494F86B293AB903
:10966000012F12D0022F03D113F0020F08BF0126E1
:1096700085F800A085F801B0AE70A5F80490A5F8B3
:1096800006802F722846BDE8F88F3E46F0E700BFFF
:109690006829002013B50446FFF766FA08B30023D3
:1096A0000DF106022046ADF8063013F06DFAC0B198
:1096B0000D4C9DF8062094F9D81084F8ED2003296C
:1096C00008BF62F07F024FF00501084808BF84F828
:1096D000ED20FFF7B3FA062184F8EE000348FFF708
:1096E00093FA02B010BD00BF980100208102002053
:1096F0002DE9F84F2DED028BFFF736FA002844D004
:10970000254B93F9D80001283FDD93F8EF40DFF8AF
:1097100090809FED228A0FF2780BDBE900AB1546B3
:109720008E1E02EB44094D4504D1BDEC028B204650
:10973000BDE8F88F38F8027B26F8027F07EE907AB2
:10974000F8EEE77A67EE887A17EE900A4AF07EFD27
:1097500052465B464AF0D2FD41EC100B4DF074FED0
:1097600051EC100B4BF0F2F80E2F80B20AD91930E1
:109770003223B0FBF3F080B200EB800000EB8000FE
:10978000400080B225F8020BCDE70024CDE700BFF2
:109790001655B5BBB16B024098010020CDCCCC3D35
:1097A000F832002038B50D46FFF7DEF9044638B12F
:1097B0000C4890F8DB30DB0704D5B0F8DC002880DB
:1097C000204638BD084A90F9D93092F89C2993FB7D
:1097D000F2F102FB113201320131F03013F0E8F9FD
:1097E000EDE700BF98010020701800202DE9F04F30
:1097F000A94D95F8A0398BB08146002B40F0B5807B
:10980000D5F8A469002E00F0B080A44AD2F8F44044
:1098100004F0F021B1F1E02F6ED1C2F8F430D5F8A8
:10982000A829944268D004930593ADF81830B5F890
:10983000603995F85CE9ADF8143095F85DC995F894
:10984000643995F85EA98DF818300DF110088DF87F
:1098500010E08DF811C08DF812A098E8070007AB52
:1098600003C38F4F1A80C4F342533B44C4F30342F3
:1098700093F85210C5F8A8498E4502F1010201D1B2
:10988000944508D030468DF81C108DF81D2013F03B
:109890008FF9ADF82000304613F0C0FB032804F028
:1098A000070B34D0042836D000239A4501A930464E
:1098B00018BF8DF81E3013F0F5F948B1019BC4F3C1
:1098C000001103F001038B4202D0304613F098FAE6
:1098D0000A2207A940464EF05EF868B19DF81E3096
:1098E000BDF81C2085F85E39BDF82030A5F85C294C
:1098F000A5F8603940F096FA95F8ACA904AF95F850
:10990000AC39032B7BD8DFE803F00A3376A35F443E
:1099100097F85730C9E75F4497F85F30C5E7394695
:10992000304613F0C5F9044658B107A8FFF776FE94
:109930009DF81E109DF810308B4260D0304613F019
:10994000D5FA95F8AC39013303F0030385F8AC3947
:109950000CB99A45D3D195F86639DB0700D524B107
:10996000336849461B68304698470BB0BDE8F08F16
:1099700001A8FFF753FE95F866899DF8044008F0AA
:109980000108ECB1B8F1000F39D13A460DF10301ED
:10999000304613F090F9044688B307A8FFF73EFE5F
:1099A0009DF81C109DF803309DF81D208B4203D1BB
:1099B0009DF81030934222D0304613F0A1FAC0E750
:1099C000B8F1000FBDD13946304613F06EF90446A8
:1099D000A8B107A8FFF722FEBDF82010BDF810308F
:1099E0008B420CD085F8AD8985F8AE893368304656
:1099F0009B699847A5E795F86639D80701D50024F3
:109A00009FE707A9304613F04DF904460028F6D029
:109A10001E201FF045FF95F8AF3983428046EED0F7
:109A200085F8AF0960B1B5F86239002BE7D1079B23
:109A3000D907E4D40121304613F0E2F9444680E727
:109A4000079BDA07DBD50146304613F0D9F978E7F2
:109A50003846FFF7E3FD97E8070007AB03C31A801A
:109A60009DF810309BB10DF11D0207A9304613F08F
:109A700022F90DF11E01304613F01AF90A2207A946
:109A800038464DF088FF041E18BF012459E708A985
:109A9000304613F00AF9ECE768290020980100200D
:109AA000887A05082DE9F041FD2984B0044669D083
:109AB000F02949D0EF2900F0BF804AB1034686184B
:109AC00003AD002003F8010B9E4205F8010BF9D10C
:109AD000BB4B0B2003F1090501E013F8010F814294
:109AE00055D0AB42F9D14B1E152B21D8DFE813F02E
:109AF000C500D000DA00E500EF00F5001600070110
:109B00000301200020002601260126011301130174
:109B100013010301200020001E01AD00A94D95F89E
:109B20006639DE0700F17181B5F81C3AADF80C30EA
:109B30003AB1224403AB13F8011B04F8011BA24203
:109B4000F9D104B0BDE8F0819F4F03214FF0050823
:109B5000B844002501370CE0FFF7DEF9064660192E
:109B60003246FFF79FFF70194745C5B2E9D017F895
:109B7000011B412981F08003084601D0042BEBD85A
:109B80000426ECE7914F0B214FF00408E0E78D4BE2
:109B9000D3F8A80A80060CD4002AD2D0224403AB02
:109BA00013F8011B04F8011B9442F9D104B0BDE87D
:109BB000F08193F8B00910F0020F93F8C80940D073
:109BC000052834BF02250325142917D97C39C8B2CA
:109BD0000628E1D80629DFD801A050F821F000BFFF
:109BE000B79D0008B79D00089F9D0008999B00083D
:109BF000979D00088F9D0008879D00080929CBD9F3
:109C00000A390A29C8D801A656F821F0739D000820
:109C1000E99D0008999B0008999B0008999B000802
:109C2000999B0008999B0008999B0008999B000844
:109C3000699D0008B79D0008654F0C214FF006088C
:109C400086E70B29A8D10125CFE05E4BB3F83C1A7B
:109C5000CD055ABFCB4303F00103032311F0440F9A
:109C600018BF042311F0020F18BF072311F4806FEF
:109C700018BF0923ADF80C305AE7524BB3F8FE3940
:109C800003EB83035B0003F5C873ADF80C304FE7BB
:109C9000504BD3ED037AFDEEE77A17EE903AADF82C
:109CA0000C3045E7474B93F8E309B3F8D019002887
:109CB00040F0A680ADF80C103AE74249B1F8D0392F
:109CC00091F8FC19B3FBF1F3ADF80C3030E73D4BE4
:109CD000D3F82C3AADF80C302AE73A4BB3F81C1AFB
:109CE000002900F0878001922FF0DAFA019A80B201
:109CF000ADF80C001CE7334BB3F8A63A16E7314B2E
:109D00003549B3F9A43A81FB0301DB17C3EBA10387
:109D1000ADF80C300CE72B4B03EB4101B1F8823A64
:109D200003EB83035B00ADF80C3001E7254B93F8A0
:109D3000663903F00103ADF80C30F9E6274BDFED8F
:109D4000286AD3ED007A0C39C9B203EB810393ED95
:109D5000147A67EEA67A67EE877AFDEEE77A17EE59
:109D6000903AADF80C30E3E6B3F8C239ADF80C30F8
:109D700012E7B3F8C43903EB830303EB83039B00BF
:109D8000ADF80C3008E7D3F8BC39039304E7D3F8F7
:109D9000B839039300E7D3F8B4390393FCE6B3F87A
:109DA000C239104903EBC3039B00A1FB03135B09FA
:109DB000ADF80C30F0E6B3F8CC39ADF80C30EBE68A
:109DC000F07A0508682900208C7A0508887A050849
:109DD000947A05086833002067666666A833002019
:109DE00000007A441F85EB51EDB28DF80C508DF8D0
:109DF0000D00D1E6D3F8340A80F3100080B277E783
:109E000093F8FC39B1FBF3F154E7019222F06EFCB8
:109E100005F52063D3ED037A019AFCEEE77A17EE9D
:109E2000903A9BB200287FF481AED5F8381A11F031
:109E3000100F18BF002379E600F01F02400901232C
:109E4000032803FA02F304D004280CD0022805D01A
:109E50007047074A116C0B4313647047044A516CF6
:109E60000B4353647047024A116B0B4313637047F3
:109E700000380240004870476C29002000285FD05D
:109E80000368374A2DE9F04103F13F4404F57E04AD
:109E900002EB9422012492F84C2002F01F05520993
:109EA000032A04FA05F456D0042A4FD0022A48D0D7
:109EB0008588B5FA85F0C0F11F00C0F3CC0603EB2E
:109EC000860600F0070082000F24306A944020EAE2
:109ED00004003062306A01FA02F202430021326269
:109EE0004FF0010E0A464FF0030C02270EFA02F85B
:109EF00038EA050002F101021CD118680CFA01F4DD
:109F000020EA04001860186807FA01F606431E608C
:109F10009E6826EA04069E6098689860586820EA61
:109F20000800586058685860D86820EA0400D86073
:109F3000D868D860102A01F10201D7D1BDE8F081BC
:109F40007047084A556C2C435464B1E7054A156BB9
:109F50002C431463ACE7034A156C2C431464A7E745
:109F6000887A0508003802402DE9F047C94C94F87A
:109F7000AC1A0546C1F34001D4F8B40A3BF028F905
:109F800094F8AC1AD4F8B00AC94301F001013BF0CF
:109F90001FF9002D00F0E58005F1FF38BE4EBF4DE2
:109FA0005FFA88F81027D4F8B43A33B11A689B885E
:109FB00051690B4214BF53831383D4F8B03A33B1C1
:109FC0001A689B8851690B4214BF53831383B4F8FA
:109FD000BC3A002B40F0558194F8BE1AD4F8C00A60
:109FE0003BF0F6F84FF0FA0C4FF47A704FF0010E98
:109FF0007368C3F30803002B40F01781EFF311835C
:10A00000002B40F01281D4F81C29A968D4F81C391F
:10A010009A42F8D1D4F8E43A9942F4D8D4F8E09AC4
:10A0200000FB09F35B1AB3FBF9F300FB0232736820
:10A03000C3F30803002B40F0B780EFF31183002B2C
:10A0400040F0B280D4F81C39D5F808A0D4F81C1917
:10A050008B42F7D1D4F8E41A8A45F3D8D4F8E09AC1
:10A0600000FB09F1A1EB0A01B1FBF9F100FB0313BD
:10A070009B1AB3F57A7FDAD3BCF1010CB8D1D4F8CE
:10A08000B43A33B11A689B8851690B4214BF5383A9
:10A090001383D4F8B03A33B11A689B8851690B42E4
:10A0A00014BF53831383B4F8BC3A002B40F0DD8017
:10A0B00094F8BE1AD4F8C00A81F001013BF088F888
:10A0C0004FF0FA0C4FF47A704FF0010E7368C3F33F
:10A0D0000803002B40F08980EFF31183002B40F040
:10A0E0008480D4F81C29A968D4F81C399A42F8D184
:10A0F000D4F8E43A9942F4D8D4F8E09A00FB09F392
:10A100005B1AB3FBF9F300FB02327368C3F3080375
:10A110004BBBEFF3118333BBD4F81C39D5F808A03F
:10A12000D4F81C198B42F7D1D4F8E41A8A45F3D835
:10A13000D4F8E09A00FB09F1A1EB0A01B1FBF9F1B7
:10A1400000FB03139B1AB3F57A7FDED3BCF1010C3D
:10A15000BCD108F1FF385FFA88F8B8F1FF0F7FF43F
:10A1600022AFBDE8F087EFF3118987F31288D5F8A5
:10A1700008A02B68DB0344BFC4F8DCEAD5F808A0CC
:10A18000D4F81C39D4F8DC1A5FFA89F989F31188FC
:10A19000D4F8E09A0B4400FB09F1A1EB0A01B1FBF2
:10A1A000F9F100FB0313CDE7EFF3118987F3128870
:10A1B000D5F808A02B68D90344BFC4F8DCEAD5F869
:10A1C00008A0D4F81C39D4F8DC1A5FFA89F989F3AD
:10A1D0001188D4F8E09A0B4400FB09F1A1EB0A01C5
:10A1E000B1FBF9F100FB031342E7EFF3118187F3B1
:10A1F0001288D5F808902B68DA0344BFC4F8DCEA6B
:10A20000D5F80890D4F81C39D4F8DC2AC9B281F307
:10A210001188D4F8E01A1A4400FB01F3A3EB0903F8
:10A22000B3FBF1F300FB02326FE7EFF3118187F329
:10A230001288D5F808902B68DB0344BFC4F8DCEA29
:10A24000D5F80890D4F81C39D4F8DC2AC9B281F3C7
:10A250001188D4F8E01A1A4400FB01F3A3EB0903B8
:10A26000B3FBF1F300FB0232E1E6D4F8D83A002B5D
:10A270003FF426AFD4F8C42A0023136084F8D53AFB
:10A280001EE7D4F8D83A002B3FF4ACAE37F0EAF929
:10A29000A8E600BF6829002000ED00E010E000E023
:10A2A0002DE9F84FC44CC54F94F8AC1AD4F8B40A51
:10A2B000C34DC1F340013AF08BFF94F8AC1AD4F8C7
:10A2C000B00AC94301F001013AF082FF4FF0050BDB
:10A2D0004FF01008D4F8B43A33B11A689B8851692A
:10A2E0000B4214BF53831383D4F8B03A33B11A68C6
:10A2F0009B8851690B4214BF53831383B4F8BC3A53
:10A30000002B40F0518194F8BE1AD4F8C00A3AF0FC
:10A310005FFF4FF0320C4FF47A7001267B68C3F375
:10A320000803002B40F01481EFF31183002B40F061
:10A330000F81D4F81C29A968D4F81C399A42F8D1A5
:10A34000D4F8E43A9942F4D8D4F8E09A00FB09F33F
:10A350005B1AB3FBF9F300FB02327B68C3F308031B
:10A36000002B40F0B480EFF31183002B40F0AF805E
:10A37000D4F81C39D5F808A0D4F81C198B42F7D1B1
:10A38000D4F8E41A8A45F3D8D4F8E09A00FB09F12E
:10A39000A1EB0A01B1FBF9F100FB03139B1AB3F522
:10A3A0007A7FDAD3BCF1010CB8D1D4F8B43A33B126
:10A3B0001A689B8851690B4214BF53831383D4F8E6
:10A3C000B03A33B11A689B8851690B4214BF53836A
:10A3D0001383B4F8BC3A002B40F0DA8094F8BE1A2C
:10A3E000D4F8C00A81F001013AF0F2FE4FF0320CCD
:10A3F0004FF47A7001267B68C3F30803002B40F00A
:10A400008780EFF31183002B40F08280D4F81C2961
:10A41000A968D4F81C399A42F8D1D4F8E43A9942A0
:10A42000F4D8D4F8E09A00FB09F35B1AB3FBF9F314
:10A4300000FB02327B68C3F308033BBBEFF31183DD
:10A4400023BBD4F81C39D5F808A0D4F81C198B42CA
:10A45000F7D1D4F8E41A8A45F3D8D4F8E09A00FB8F
:10A4600009F1A1EB0A01B1FBF9F100FB03139B1AFF
:10A47000B3F57A7FDED3BCF1010CBCD10BF1FF3612
:10A4800016F0FF0B7FF426AFBDE8F88FEFF31189CC
:10A4900088F31288D5F808A02B68DB0344BFC4F802
:10A4A000DC6AD5F808A0D4F81C39D4F8DC1A5FFAB5
:10A4B00089F989F31188D4F8E09A0B4400FB09F17B
:10A4C000A1EB0A01B1FBF9F100FB0313CFE7EFF3B6
:10A4D000118988F31288D5F808A02B68D90344BFE6
:10A4E000C4F8DC6AD5F808A0D4F81C39D4F8DC1A12
:10A4F0005FFA89F989F31188D4F8E09A0B4400FBDC
:10A5000009F1A1EB0A01B1FBF9F100FB031345E7E7
:10A51000EFF3118188F31288D5F808902B68DA03DD
:10A5200044BFC4F8DC6AD5F80890D4F81C39D4F8D4
:10A53000DC2AC9B281F31188D4F8E01A1A4400FB6E
:10A5400001F3A3EB0903B3FBF1F300FB023271E764
:10A55000EFF3118188F31288D5F808902B68DB039C
:10A5600044BFC4F8DC6AD5F80890D4F81C39D4F894
:10A57000DC2AC9B281F31188D4F8E01A1A4400FB2E
:10A5800001F3A3EB0903B3FBF1F300FB0232E4E6B2
:10A59000D4F8D83A002B3FF429AFD4F8C42A0023CA
:10A5A000136084F8D53A21E7D4F8D83A002B3FF469
:10A5B000B0AE37F057F8ACE66829002000ED00E0B7
:10A5C00010E000E070B5464E96F8E84A04EB44030C
:10A5D00006EBC303650093F8EC3A032B6ED8DFE873
:10A5E00003F059291E02254406EBC505D5F8F00AEB
:10A5F000002870D196F84C3B9C425FD0013404F0A7
:10A600000302934286F8E82A58D002EB420406EB94
:10A61000C4040223C4F8F00A84F8EC3A70BD2B1984
:10A6200006EBC303D3F8F02A72B1013AC3F8F02A5B
:10A63000002070BD2B1906EBC303D3F8F02A002AC3
:10A64000F3D1022283F8EC2A254406EBC50595F8E0
:10A65000F83A013BDBB285F8F83A8BBB214B96F810
:10A660004C6BD3F8F810D5F8F40A621C02F0030220
:10A670004B1E0324B242034485F8EC4AB3FBF1F0CD
:10A68000C5F8F00A1AD0994218D80138C5F8F00A6E
:10A69000012070BD3CF004FA80B1124B2C44D3F879
:10A6A000F82006EBC404012102F51C5384F8EC1ACF
:10A6B0000F33B3FBF2F3C4F8F03A70BD012070BD64
:10A6C000084BD3F8F820012002F2E733B3FBF2F392
:10A6D000C5F8F03A70BD0138C5F8F00A002070BD29
:10A6E000682900209801002038B58368044613B11A
:10A6F0001A689B8853836068828940F2E933028933
:10A70000013B12F0020F9BB236D0F523838140F259
:10A71000E9330289013B12F0010F9BB226D08389F5
:10A72000838940F2E9330289013B12F0020F9BB2A8
:10A7300017D0FF23838140F2E9330289013B12F0F5
:10A74000010F9BB208D08589EDB2A36813B11A68D6
:10A750009B881383284638BD002BEED13CF090F83F
:10A76000F3E7002BDFD13CF08BF8EEE7002BD0D1E4
:10A770003CF086F86068D3E7002BC0D13CF080F84D
:10A780006068CDE72DE9F04F2DED108B034697B0B3
:10A7900004331593DFEDCACA149002238A4613923C
:10A7A0008B461293149C4FEADB0604EB461202EB35
:10A7B00006103101A6EB86034FEAC60806EB4605F4
:10A7C000CDE9000100EBC303043108F10400119648
:10A7D000204421442C01C6EBC60C0394EC00119DCF
:10A7E00004944FEACC0405946C0106EB860E0294A7
:10A7F000159D009C03EB46174FEACE0E02EBC606F2
:10A800004FEACB094FF0000C51ED01AAD3ED001A2D
:10A8100092ED007A94ED005A96ED004AD7ED007A59
:10A8200015ED012A50ED016A32EE07BA76EE840A80
:10A830007AEE855A31EEA70A3BEE256A70EE804A21
:10A8400076EEC46A36EE244A36EE646A05ED014AB5
:10A8500082ED006AD0ED00BAD6ED012AD3ED019A5F
:10A8600095ED00AA92ED016A97ED013A91ED00CACB
:10A87000D4ED014A7BEEE23A36EEE19A32EE472A17
:10A8800073EEE98A3AEE464A39EE279A78EE838AE1
:10A89000B0EE428AA9EE6C8ADC44E24573EEC33A1C
:10A8A000B0EE441AA8EEEC1A76EEE77A33EEA97A07
:10A8B0007CEE643A77EEA17A3AEE066A7AEEC51A31
:10A8C0003CEE24AA74EECC4A39EE833A35EE6A5A4D
:10A8D000F0EE639AF0EE48AAE7EE2C9AA8EEAC4AA6
:10A8E000E7EE2C4AE7EE6CAAF0EE418AB0EE427A2F
:10A8F000B0EE612A7BEE656A7BEEA22A76EE4A5ABA
:10A90000A9EE2C7AA7EEAC2AA7EEAC5AE7EEEC8AB9
:10A9100032EE83BA76EEC3BA35EEE09A75EEC07ABF
:10A9200036EE0A6A76EEE26A36EE0BAA76EE836AB5
:10A9300077EEA07A34EE423A77EE290A36EE4B6A89
:10A940007BEEA22A39EE000A73EEAA3A78EE244A88
:10A9500037EE697A31EE055A71EEA85A32EE044AA2
:10A9600085ED00AA82ED016A4D4441ED012A4A4479
:10A97000C4ED006A81ED000AC4ED017A494440ED5E
:10A98000010A4C4487ED007AC6ED003AC3ED004A57
:10A9900080ED003A87ED014A484486ED015A4F4464
:10A9A000C3ED015A4E444B443FF62EAF119B072B8B
:10A9B00040F2C781029D149E019B03980499059A59
:10A9C000083575190C330E95354608F108080EF157
:10A9D0000804EB1808300831083246442C192818AE
:10A9E0006918AA18079305F10C030D960C940B90A7
:10A9F0000A91099208934FF001084FF0000E129B44
:10AA00009E44139B03EBCE0303EBCE02109302EBA9
:10AA1000CE0303EBCE01029101EBCE0101EBCE059B
:10AA200005EBCE06D6ED007A0F93AEEB8E030191C7
:10AA300006EB031303EBCE07D3ED01AACDED067AA7
:10AA4000019BD5ED007A97ED01BACDED057AD3EDF6
:10AA5000007A029BCDED047AD3ED007A0F9BCDED09
:10AA6000037A07EBCE0CD3ED007ADCED01BACDED25
:10AA7000027A0CEBCE01D2ED007A109A009101EB34
:10AA8000CE00014691ED01DACDED017A0099D2EDCB
:10AA9000007A91ED01CA00EBCE0000EBCE0494EDFC
:10AAA00001EAD0ED01DACDED007ADDE90776DDE9E6
:10AAB0000954DDE90B01DDE90D23C44602E000BFC6
:10AAC000F304353F94ED009A90ED00FA91ED006AA1
:10AAD000D5ED007AD3ED006A57ED014A92ED005AA8
:10AAE00056ED013A96ED00AA35EE060A73EEA65A27
:10AAF00039EE278A34EE8F7A70EE082A75EE87EAEF
:10AB000035EE465A3EEEA26A73EEE63A06ED016A6B
:10AB1000D1ED019AD2ED01FAD4ED016AD3ED011A1B
:10AB200095ED013AD0ED018A97ED004A3FEEE96AD2
:10AB300035EE491A76EE660A31EE271A3AEE612AA8
:10AB400075EE677A70EE830A3FEEA95A74EECF9ADB
:10AB500077EE897A7AEE211AB0EE42AA74EE68FA9C
:10AB6000A0EEECAADC44E24535EEC77AB0EE639A7B
:10AB700074EE285A38EEC44AF0EE698AA1EE6C9A57
:10AB8000E7EEAC8A36EE436A7FEE644A36EE266A1A
:10AB9000A0EEAC2AF0EE4A0AE7EEEC0AE7EEAC4A89
:10ABA000F0EE687AF0EE498A36EE833AE6EE6C8A89
:10ABB000E1EE2C3AB0EE6F1AA6EE2C1A71EEE56AB1
:10ABC000A6EE2C4A71EEA55A75EE031A7EEEE22A25
:10ABD00037EE43FA75EEE1EAB0EE686A76EEC08AC7
:10ABE00039EE044A7FEE86FA76EEC86A33EE816A61
:10ABF00038EE888A73EEC13A37EE457A2CEE2E1A7B
:10AC00003FEE055A22EECC9A9DED03FA70EE266ACD
:10AC100033EE077AAFEE221AAFEE2E9A7AEE244A7E
:10AC20009DED01FA79EEA09A25EE4BAA72EE670A25
:10AC300037EE822A6BEE087AAFEE08AAEFEE057ABD
:10AC40002DEEA63A9DED05FA67EE6D8AAFEE073A56
:10AC5000EFEE268A66EE6A2A9DED00FA2AEEA00A39
:10AC6000EFEE202A6EEE02EADDED060A23EECE5A62
:10AC7000E0EEA3EA2BEEA98ADDED023AAFEE060A7A
:10AC8000A3EE848A24EE6B7A6DEE246A9DED044A6D
:10AC90002FEECD6AA0EE825AA3EEA97AE4EE2F6AD7
:10ACA000A4EE246A75EEA15AC6ED005A83ED001A8F
:10ACB00083ED019A4E4447ED017A87ED00AA4B449B
:10ACC00080ED003AC0ED018A4F4482ED000A48440D
:10ACD000C2ED012AC5ED00EA85ED015A4A44C1EDF5
:10ACE000006A81ED016A4D4484ED008A84ED017AA9
:10ACF00049444C443FF6E6AE0E9B08330E930D9B41
:10AD000008330D930C9B08330C930B9B08330B9368
:10AD10000A9B08330A93099B08330993089B08335D
:10AD20000893079B08330793119B08F101084345DB
:10AD30007FF465AE129BDDF844B0DB009BB212934A
:10AD400030E517B0BDEC108BBDE8F08F036870B52F
:10AD50005E6A26B133460522BDE8704018470446B6
:10AD60000D464E1D00E023689B682046984700284A
:10AD7000F9D0236815F8011B1B6820469847B54297
:10AD8000F1D170BD2DE9F047164D0746002095F929
:10AD9000559B05F65C3684B007EB010805F6FC55BB
:10ADA00004464FF0B60A3368ABB193F83830142B31
:10ADB00011D019F1020F01D04B450CD10022694688
:10ADC0003046CDE90244CDE90078ADF808A08DF811
:10ADD0000E402EF08BFDE036B542E4D104B0BDE864
:10ADE000F08700BF68290020F0B40D6800240CE053
:10ADF000BCF1050F18D8A0F137030A2B14D104EBCE
:10AE0000840415F8010B03EB4404A0F13003DEB217
:10AE1000092EA0F16107A0F1410CF0D9052FE7D868
:10AE2000A0F157030A2BEAD00D601460F0BC704704
:10AE30002DE9F743124E0124A02318255FFA84F868
:10AE4000FF2B14DCD6F8FC0DE9B2C1F11C028272B2
:10AE50005F1C026880F80B80DBB20093C1F11B011C
:10AE6000D2F8189000234246C9B2C8473B46013D7C
:10AE7000E6D10134052CE0D103B0BDE8F08300BF7A
:10AE800068290020214A038890429BB212D002F523
:10AE9000806290420ED0B0F1804F0BD0A2F580328C
:10AEA000904207D002F58062904203D002F58062A2
:10AEB000904203D14A8823F070031343144A90420E
:10AEC00018D002F58062904214D030B423F440735D
:10AED0000C894D6802F56C429BB2234390420C886A
:10AEE0000380C56204850DD18B7A0386012330BCB3
:10AEF0008382704703800B884A68C26203850123FE
:10AF000083827047034B9842EED0EFE70000014088
:10AF1000001000400004014070B4447941BB036854
:10AF20004FF400524FF40076202502213CBB1A8CCE
:10AF300022F001021204120C1A841A8B188C22F0CF
:10AF4000F30280B2120420F00A00120C014342F016
:10AF5000010241F001011A8319841A8B22F00C02BC
:10AF60001204120C1A831A8B92B270BC1A837047A7
:10AF700000220368164615461146002CD7D0042C33
:10AF800021D0082C38D0198C21F480510904090CE7
:10AF900019849C8B1D8C45F6FF7040F6FF412840BC
:10AFA0002140024342F4805241F4807199831A8413
:10AFB0009A8B22F440621204120C9A839A8B92B2FA
:10AFC00070BC9A8370471A8C22F010021204120C83
:10AFD0001A84188B198C89B240F6FF4221F0A00127
:10AFE00002400D4342F4807245F010051A831D841F
:10AFF0001A8B22F44062B3E71A8C22F48072120496
:10B00000120C1A84998B1A8C21F0F30192B2090464
:10B0100022F42062090C324342F4807241F00101B3
:10B0200099831A849A8B22F00C02C4E70B88F0B43F
:10B0300033BB028C4C880E898B88C98822F00102B0
:10B040001204120C0284058B028CADB225F0F305BC
:10B0500092B22B4322F00A0243EA061322439BB228
:10B0600042F0010203830284038B23F00C031B04D0
:10B070001B0C0383038B9BB21943F0BC0183704705
:10B08000042B048C2CD0082B4E888A880D89C98803
:10B0900051D024F480542404240C0484838B078C22
:10B0A0002C0344EA022440F6FF421A4045F6FF739F
:10B0B0003B4043EA063322439BB292B243F48053AF
:10B0C00082830384828B22F440621204120C8283F6
:10B0D000838B9BB243EA01239BB2F0BC838370470E
:10B0E00024F010042404240C4D880F898A88C98810
:10B0F0000484068B038C12029BB242EA073423F0CD
:10B10000A00340F6FF42324043EA051322439BB2BC
:10B1100092B243F0100302830384028B22F4406254
:10B120001204120C0283038B9BB243EA01239BB2ED
:10B13000F0BC0383704724F480742404240C04843A
:10B14000848B038CA4B29BB224F0F30423F4206319
:10B15000224343EA062342EA05129BB243F480737A
:10B1600092B282830384838B23F00C031B041B0C99
:10B170008383838B9BB21943F0BC8183704700BFEC
:10B18000094B93F8EA3E042B08D9053B032B08D85A
:10B1900001231A4600B103701046704700230122B4
:10B1A000F8E700231A46F5E7701800202DE9F0476C
:10B1B0009AB0DDE9226ADDF8909004460D46174604
:10B1C000984602E0206836F043FD206836F048FDDE
:10B1D0000028F7D10146642201A84CF004FC254B5D
:10B1E0008DF80450CDF85CA00293002D3ED0AB1E2C
:10B1F000012B3DD9042D14BF00230323DFF878A0D1
:10B200008DF80530DAF81C3903961E440123CDE988
:10B21000059404968DF85B3037B14246394607A84D
:10B220004CF080FB8DF85A809AF8426E00231893F8
:10B23000CEB99AF8410E642202FB00A001A900F6E3
:10B2400044604CF06FFB01238AF8416E8AF8423E5D
:10B25000236843B143463A46294620461AB0BDE822
:10B26000F0470EF07DBB1AB0BDE8F0870523C5E7B7
:10B270000223C3E768370020682900209FED737A16
:10B2800007EE901A20EE070AF8EE677A27EE800A9A
:10B29000FDEEC07A17EE903A2033402B00F2C780C3
:10B2A000DFED6B7AB4EEE70AF1EE10FAF0EE407AD9
:10B2B0000CDD9FED686ADFED686AB0EE677AB4EE88
:10B2C000E67AF1EE10FA77EEC67AF6DC9FED637A55
:10B2D000F4EEC77AF1EE10FA0CD59FED5E6ADFED61
:10B2E000606AB0EE677AB4EEE67AF1EE10FA77EEC5
:10B2F000867AF6D49FED5B7AF4EEC77AF1EE10FA17
:10B3000000F38D809FED587AF4EEC77AF1EE10FAD3
:10B3100044BF9FED527A77EE677A27EEA76ADFED9A
:10B32000535A9FED537ADFED536AA6EE257A67EE06
:10B33000865AE6EE076AB6EE007AE5EEA67A27EEC2
:10B34000877ADFED486A70EE267ABDEEE76A16EE80
:10B35000103A2033402B67D8B4EEE60AF1EE10FA2B
:10B360000CDDDFED3C5A9FED3C6AF0EE676AF4EECF
:10B37000C66AF1EE10FA77EEE57AF6DCDFED376AB1
:10B38000F4EEE67AF1EE10FA0CD5DFED325A9FEDCD
:10B39000346AF0EE676AF4EEC66AF1EE10FA77EE00
:10B3A000A57AF6D4DFED2F6AF4EEE67AF1EE10FA24
:10B3B00040DDDFED276A76EEE77A67EEA75A9FED6C
:10B3C0002B5A9FED2B6ADFED2B6AA5EE856A27EEDF
:10B3D000A55AE5EE866AB8EE006AE5EE267A67EED3
:10B3E000867AC7EE206A0023836143610362C361EA
:10B3F000B7EE006A76EE865A76EE666A86EE257AB3
:10B4000067EE277A66EE876AC0ED017AC0ED037AAF
:10B4100080ED007A80ED027AC0ED046A70479FEDFE
:10B420000C7A77EE677A78E7DFED137AD9E79FED4C
:10B43000127A86E7DFED0C6AF4EEE67AF1EE10FAA6
:10B4400044BFDFED066A76EEE77AB6E727D4D23658
:10B45000DB0F4940DB0FC940E4CB1641DB0F49C08D
:10B46000E4CB16C1DB0FC93FDB0FC9BF92E741B97F
:10B470009730083C15A82ABE000000000C480D4B70
:10B48000D0F8C41E10B40C4CC0F8B43E8A1E223151
:10B49000B0F8DE3E1B01A4FB03C3DB08A3F5B063D9
:10B4A00022F8023F9142F3D15DF8044B704700BF90
:10B4B00068290020951C0208CDCCCCCC70B5084C76
:10B4C000251D2E4614F8010B2EF0DCFB28B1037865
:10B4D00005F8013BB442F5D170BDFF23F8E700BF8A
:10B4E000683800202DE9F0471D4F012607F10805B7
:10B4F000B2464FF03C094FF0000817F8010B39F045
:10B5000087FB044690B180F80690C671FB7803F083
:10B510007F02012A18D013F0800F20460DD185F844
:10B52000048039F049FE85F805802C600136052E2F
:10B5300005F10805E1D1BDE8F08785F804A039F0F0
:10B5400041FE85F805A0F0E71B0605D40121204641
:10B5500035F076FAFB78DEE739F034FEF6E700BF27
:10B56000703800202DE9F04FDFF8F091DFF8F0B1EE
:10B5700085B0A9F6FC7309F10C05A9F6347A03939A
:10B58000012419F8017B002F00F0C1804FEA171841
:10B5900008F1FF38B8F1030F07F00F0200F2BA808C
:10B5A0000BEB4803B3F8400040FA02F616F0010630
:10B5B00000F0CB8001239340013B1840D84449F070
:10B5C00035FA98F84830634E184406EBC006042359
:10B5D0006E61F471B371002303E00133152B00F0A9
:10B5E0009680039903EB43024FEA4308895CB94212
:10B5F000F3D1524412F8C71C002900F0A880384645
:10B6000034F0FEFE0746006834F0E6FE797935F046
:10B610003BF80378002B7AD1D044042308F8874CF8
:10B6200008F8883C002E5AD03368387A03F13F423C
:10B6300002F57E020BEB9222012192F84C2002F0DF
:10B640001F0C5209032A01FA0CF16ED0042A64D0AF
:10B65000022A72D0B6F804E0BEFA8EF2C2F11F02DE
:10B66000C2F3CC0103EB810102F007020E6A9200E3
:10B670004FF00F0C0CFA02FC26EA0C060E620E6A62
:10B6800090403043002208621146012000FA01FC7C
:10B690003CEA0E001ED118680326964020EA0600F8
:10B6A0001860D3F800800220904040EA080018603B
:10B6B000986820EA0600986098689860586820EAC0
:10B6C0000C00586058685860D86820EA0600D860B6
:10B6D000D868D8600131102902F10202D5D1BAF838
:10B6E000301FBAF8323F1C4A00910020013401900B
:10B6F000B2FBF3F328469BB23946E4B22DF082FA4E
:10B700000123092C6B7405F118057FF43AAF05B0DD
:10B71000BDE8F08F00266E615DE7DFF848C0DCF819
:10B7200030200A43CCF8302094E7DFF838C0DCF84A
:10B7300040201143CCF840108CE7DFF828C0DCF83B
:10B7400044201143CCF8441084E76E6143E70B6852
:10B75000FFDE00BF0C29002040420F009C38002073
:10B76000887A0508003802402DE9F0418C4C82B0FF
:10B7700014F8F83C0190002B40F00C8114F8D43CF4
:10B7800034F8D22CDFED876A34F8D08C24F8C08CE2
:10B7900007EE103A07EE902AB8EEC76AB7EE007AC5
:10B7A00034F8D62CF0EE475A4FEA4805E6EE665AD2
:10B7B0009542B8BF1546A6EE267AAEB20122F8EE43
:10B7C000E77A24F8BE6C67EEA67A44ED335A04EDAE
:10B7D000327A44ED317A04F8F82C002B00F0D68050
:10B7E000DDED017A9FED700AF8EE677AADB280EE7A
:10B7F000270A4AF013F86D00B0FBF5F5012DB8BF2C
:10B800000125EDB2B0FBF5F39BB2074604F8BC5C32
:10B8100000EE103ABBEEED0A04ED2E0A49F0FEFFF1
:10B82000624BDFED636AB8FBF0F0A3FB0737FF085C
:10B8300007EE907AF8EEE77A022886EEA77AB8BF8C
:10B8400002205C4904F8B40C00239FED5B1A9FEDC5
:10B850005B6ADFED5B1ADFED5B5A9FED5B2ADFED84
:10B860005B2A9FED5B3ADFED5B3A9FED5B4A04EDAF
:10B870002C7A07EE903AB8EEE77AF0EE467AE7EEE9
:10B88000017AFDEEE76A16EE902A2032402A7AD835
:10B89000B4EEE17AF1EE10FA0CDDDFED506A9FEDC7
:10B8A000507AB0EE675AB4EEC75AF1EE10FA77EE5E
:10B8B000E67AF6DCF4EEE57AF1EE10FA0CD5DFED7F
:10B8C000476A9FED487AB0EE675AB4EEC75AF1EE78
:10B8D00010FA77EEA67AF6D4F4EEC67AF1EE10FA04
:10B8E00049DD74EE677A67EEA76AF0EE624AE6EE2B
:10B8F000824AF0EE430AE6EEA40AB7EE007A27EE9B
:10B90000E65A77EE677AB6EE007AE5EE207A67EED1
:10B91000877A0133202BE1EC017AAAD107EE905A05
:10B92000F8EEE77AF7EE006A86EEA77A2E4B2F4AFA
:10B93000C4F8F03503F12801A833C4F8EC15102041
:10B94000C4F8FC352021142384F84D54A4F8E805EC
:10B95000A4F8F81507EE906AF8EE677AA4F8F435C3
:10B9600082ED007AC2EDAC7AC2EDAD7AC2EDAE7A6C
:10B9700002B0BDE8F081F4EEE37AF1EE10FA48BFD0
:10B9800075EEE77AAFE7F6EE007AC2E7184A82F87A
:10B99000FC3025E714F8BC5C34F8BE6CBEE700BF91
