:020000040800F2
:10000000F0FF012005450508A1DD0008E5430408CF
:100010007D4505087D4505087D4505080000000073
:100020000000000000000000000000009DDD00084E
:1000300099DD00080000000095DD0008F5070408C0
:100040007D4505087D4505087D4505087D45050874
:100050007D4505087D45050885540408B15504080B
:100060007555040839550408FD540408A9340508D9
:10007000993405088934050879340508653405087C
:10008000513405083D3405087D4505080000000091
:10009000000000000000000000000000C15404083F
:1000A000C9F0030815F10308B9F0030839F1030892
:1000B00009F10308F9F00308E9F003087D45050894
:1000C0007D4505087D4505087D4505087D450508F4
:1000D0007D450508150904085908040800000000BA
:1000E000495404087D450508990F010800000000E7
:1000F0000000000000000000000000002934050896
:10010000000000007D450508D9F003087D4505087D
:1001100000000000000000000000000000000000DF
:100120001534050801340508ED330508D9330508F1
:10013000C5330508000000000000000000000000BA
:10014000000000000000000000000000C9ED0008F1
:10015000B13305089D330508893305087D45050839
:100160007D4505087D4505080000000000000000F1
:10017000000000000000000000000000000000007F
:10018000000000007D4505080000000000000000A0
:080190007D4505087D450508C9
:08019800A44005000100000075
:1001A0000B3001001A000000EC3F0020EC5D002045
:1001B00000000000A80800081F3001002400000013
:1001C000B43F0020085E002000000000C4080008C2
:1001D0000502010004000000485B00202C5E0020A6
:1001E00000000000E8080008030101000A00000008
:1001F000383F0020305E002000000000C58C000861
:1002000013020100040000007C2100203C5E00205D
:1002100000000000EC0800080D1001004000000084
:10022000BC580020405E002000000000D1A403085C
:10023000040008008000000014580020805E0020A8
:1002400000000000000000000902010001000000A1
:10025000BC570020005F002000000000F0080008EC
:10026000F901010004000000A4570020045F0020F1
:100270000000000081DD0308FD01010024000000F2
:1002800080570020085F002000000000DBDC03082E
:10029000FB01010001000000C45500202C5F00207C
:1002A0000000000021EB0408FC010100090000002F
:1002B00090540020305F00200000000031EB040863
:1002C000F701010006000000845400203C5F00207C
:1002D00000000000F20800080A8001002800000069
:1002E000744C0020445F00200000000081AD010834
:1002F000160215003F000000003500206C5F002052
:100300000000000069EA0408340001001000000049
:10031000A04B0020AC5F00200000000089360208DE
:100320001102010008000000784B0020BC5F002093
:1003300000000000F808000812120100040000008C
:10034000704B0020C45F002000000000000900087E
:1003500018200100320000003C4B0020C85F002044
:1003600000000000B9EB0408061001001C000000AA
:1003700038270020FC5F0020000000004DEB04083F
:1003800012200100110000006844002018600020C5
:100390000000000004090008000201000B0000003A
:1003A000A44100202C60002000000000F1E50408BA
:1003B0000202010003000000942B0020386000209E
:1003C00000000000000000000C020100040000001A
:1003D000502B00203C60002000000000F9E50408DC
:1003E000FE010100140000009C5A00204060002023
:1003F00000000000B1E50408010201000B0000004C
:10040000F86B0020CC7B002000000000E1E5040830
:100410001B02010010000000E46B0020D87B0020CC
:10042000000000004DE604081B1001000C00000055
:10043000B0630020E87B002000000000094A0108AA
:1004400021020100F000000008620020F47B00207F
:1004500000000000492C01082312010010000000D8
:100460000C690020E47C002000000000180900084E
:10047000371001002E000000546B0020F47C002097
:1004800000000000280900080E0201000200000020
:1004900008690020247D00200000000056090008A3
:1004A000161001000600000000690020287D0020D1
:1004B00000000000580900082F1001002200000071
:1004C000A87B0020307D0020000000005E090008AD
:1004D0001E00010009000000F0670020547D00208C
:1004E000000000008009000805100100060000005F
:1004F000E0670020607D0020000000008A090008FD
:10050000F58101006800000098610020687D0020EE
:1005100000000000753A01082320010010000000CF
:10052000AC680020D07D00200000000095AE0108DE
:10053000FD07010076000000DE600020E07D002065
:100540000000000079160108F62101000C000000EF
:10055000908C0020408E00200000000090090008D0
:100560001C0202001C000000188D0020908E00204C
:1005700000000000B9EC04081400010004000000B1
:10058000508C0020AC8E0020000000009C09000868
:10059000012001000C00000084820020B08E0020A9
:1005A00000000000A00900080C200600CC0000009C
:1005B00064810020BC8E002000000000617A0308E6
:1005C0000EF003009E010000A07F0020888F002015
:1005D00000000000A52B0208130001000400000029
:1005E000208A00202891002000000000AC090008AB
:1005F0000101010004000000EC7E00202C9100208D
:1006000000000000000000000001010004000000E4
:10061000E47E00203091002000000000B0090008B6
:100620000201010003000000E07E00203491002060
:10063000000000009D7A0308220201001C01000056
:10064000088800203891002000000000D9EA040842
:100650001900010005000000FC9E0020D49F00202E
:1006600000000000B40900081A0001000E0000009C
:10067000789C0020DC9F002000000000BA090008E0
:10068000203201000A0000006C9C0020EC9F00203A
:1006900000000000812B020815001000700000000F
:1006A00048960020F89F0020000000000000000095
:1006B0002A00080060000000DC9C002068A00020E8
:1006C00000000000592B02082C000400100000005C
:1006D000D8A00020C8A0002000000000492802087F
:1006E0002B001200240000000CA10020E8A0002034
:1006F000000000001D2802082920140078000000D6
:100700003494002030A10020000000000000000010
:10071000030001000100000010BB0020FCC200200B
:100720000000000000000000031201003D00000076
:10073000C4BA002000C3002000000000C80900085F
:1007400025201E002C01000028B8002040C30020F6
:100750000000000000000000101001000200000076
:10076000A8B700206CC4002000000000060A0008A2
:10077000F82101000600000004B8002070C4002029
:1007800000000000080A0008020001000C00000040
:100790002CC60020C0C600200000000000000000A1
:1007A000290201004000000084C50020CCC60020C2
:1007B000000000000E0A00080A02010014000000F8
:1007C00088C400202CC7002000000000997B03088B
:1007D0002802040004000000A4CE002048D000201D
:1007E0000000000049E6040827020400040000009D
:1007F000A0CE00204CD00020000000003DE6040800
:100800001F02080010000000E4CB002050D00020A0
:100810000000000091E504081A0201003C000000FD
:1008200088C7002060D00020000000002DEC0408E4
:1008300038100100010000004CC700209CD00020AF
:10084000000000004E0A000827000100040000001C
:10085000C8D0002028D1002000000000500A000865
:100860001002010001000000B0EA0020ACEA002004
:1008700000000000540A00081D02020006000000EB
:1008800094EA0020B4EA002000000000000000000C
:10089000081203000F0000009CEA0020BCED0020BD
:0808A0000000000011E604084D
:1008A800AE014A015E012C01640101000000010053
:1008B8000A019A01001E0A00000200000000000060
:1008C8000001000000050000010203000000000014
:1008D8000000000000000000000000000080070089
:1008E80000000000000001002900220100000000B3
:1008F8000000000001010101FFFFFFFF00000001EF
:100908000001054D423431000008000200000000DB
:1009180000000000000000000000000000000000CF
:1009280020003200C800D0079600140032002800CA
:100938004C0440060005500014000F000800640035
:100948000100000005000A000000F4019600000004
:10095800C4090000190000000000000000000000A9
:10096800000000000000000000000000000000007F
:100978000000000000000000000501000000000069
:10098800000020000301000000000000010000003A
:100998000202000003000023E8036400040A0001C7
:1009A80014001E0048044430900100000000280193
:1009B80000007E05EA05B4053200E803D007000010
:1009C800000000000000000000000000000000001F
:1009D800000000000000000000000000000000000F
:1009E80000000000000000000000000000000000FF
:1009F80000000000000000000000000001000005E9
:100A08000201F401140000000000000000000000D2
:100A180000000000000000000000000000000000CE
:100A280000000000000000000000000000000000BE
:100A380000000000000000000000000000000000AE
:0D0A4800000000000000000020030000007E
:100A55000403090412010002EF0201408304563227
:100A6500000201020301000012010002020200401F
:100A750083044057000201020301000009026400DB
:100A8500030100C032090400000103000000092130
:100A9500110100012236000705830309000A080B2E
:100AA5000102020201000904010001020201000520
:100AB5002400100105240100020424020205240675
:100AC5000102070582030800FF09040200020A006B
:100AD50000000705010240000007058102400000F3
:100AE50009024300020100C03209040000010202AC
:100AF500010005240010010524010001042402025F
:100B05000524060001070582030800FF090401000A
:100B1500020A0000000705010240000007058102E6
:100B250040000000FF00000000FF00000000000082
:100B35000000AA550701000001000800AA5505019B
:100B4500000008006C750508FF1FFF1F0000040169
:100B55000000000000000002100000000700000077
:100B65007D000000B9820008B5820008B182000846
:100B7500A5820008A1820008AD820008A9820008AC
:100B85002D83000821830008F98200080D830008E1
:100B9500E5820008D1820008BD820008010100003D
:100BA5000000803F05010905A101A10005010930EB
:100BB50009310932093309350934093609371581EF
:100BC500257F750895088102050919012908150071
:100BD5002501950875018102C0C0000009022200A7
:100BE500010100E0320904000001030102000921AE
:100BF500110100012236000705830309000A0000E0
:100C050000000000010203040102030406070809AD
:100C150061DF00081DE6000895E10008D58300089E
:100C2500B5890008E583000801840008AD83000844
:100C35009D83000800000000000000002D202D2DE0
:100C4500202D2D2D2D202D2D2D2D000000000000F7
:100C55000000000000000000000000AA550B010084
:100C650000AA5505010000AA550902000000AA5571
:100C750003009F0001000000C0120000E45D002099
:100C850000000000BC5D0020000000000100000025
:100C950000000100E0017EFFFFFFFFFFFF000000F5
:100CA500FFFFFFFF0800000078E70508F4E60508E8
:100CB50000000000257B0308A08601000400000059
:100CC500000000000000000000000000000000001F
:100CD500000000000000000000000000000000000F
:100CE500000000000000000078E7050880E705081F
:100CF500000000003DDB0308E803000004000000DD
:100D050000000000000000000000000000000000DE
:100D150000000000000000000000000000000000CE
:100D2500000000000000000088E705080000000042
:100D350000000000C1D902087D000000FF0000008E
:100D4500000000000000000000000000000000009E
:100D5500000000000000000000000000000000008E
:100D650000000000000000007818060800000000E0
:100D750000000000BDEB02087D000000FF00000040
:100D8500000000000000000000000000000000005E
:100D9500000000000000000000000000000000004E
:100DA500000000000000000034F605080000000007
:100DB500000000002D3303087D000000FF00000047
:100DC500000000000000000000000000000000001E
:100DD500000000000000000000000000000000000E
:100DE500000000000000000090E70508000000007A
:100DF50000000000E5DF0308E80300000300000031
:100E050000000000000000000000000000000000DD
:100E150000000000000000000000000000000000CD
:100E2500000000000000000094E705080000000035
:100E350000000000FDA202081027000003000000CA
:100E4500000000000000000000000000000000009D
:100E5500000000000000000000000000000000008D
:100E650000000000000000008014060800000000DB
:100E750035BC0108494404085F7600000500000000
:100E8500000000000000000000000000000000005D
:100E9500000000000000000000000000000000004D
:100EA50000000000000000001C18060800000000FB
:100EB500000000003568040810270000010000004C
:100EC500000000000000000000000000000000001D
:100ED500000000000000000000000000000000000D
:100EE5000000000000000000A0E705080000000069
:100EF5000000000041DB0308E803000005000000D6
:100F050000000000000000000000000000000000DC
:100F150000000000000000000000000000000000CC
:100F25000000000000000000ACE70508000000001C
:100F350000000000D97D0308204E000003000000DA
:100F4500000000000000000000000000000000009C
:100F5500000000000000000000000000000000008C
:100F65000000000000000000BCE7050800000000CC
:100F750000000000D57B0308204E000003000000A0
:100F8500000000000000000000000000000000005C
:100F9500000000000000000000000000000000004C
:100FA5000000000000000000CCE70508000000007C
:100FB50000000000E1E50308400D03000300000008
:100FC500000000000000000000000000000000001C
:100FD500000000000000000000000000000000000C
:100FE5000000000000000000DCE70508000000002C
:100FF50000000000D5A8030810270000010000002C
:1010050000000000000000000000000000000000DB
:1010150000000000000000000000000000000000CB
:10102500000000000000000020E7050800000000A7
:1010350000000000D555010810270000030000003E
:10104500000000000000000000000000000000009B
:10105500000000000000000000000000000000008B
:101065000000000000000000E4E7050800000000A3
:101075000000000019DA0308A86100000100000063
:10108500000000000000000000000000000000005B
:10109500000000000000000000000000000000004B
:1010A5000000000000000000F0E705080000000057
:1010B50000000000410E0408A00F00000100000020
:1010C500000000000000000000000000000000001B
:1010D500000000000000000000000000000000000B
:1010E5000000000000000000FCE70508000000000B
:1010F5000000000009900108102700000100000011
:1011050000000000000000000000000000000000DA
:1011150000000000000000000000000000000000CA
:10112500000000000000000008E8050800000000BD
:1011350000000000098701081A41000001000000B5
:10114500000000000000000000000000000000009A
:10115500000000000000000000000000000000008A
:1011650000000000000000000CE805080000000079
:1011750000000000F98C00081027000001000000A5
:10118500000000000000000000000000000000005A
:10119500000000000000000000000000000000004A
:1011A500000000000000000008E70508000000003E
:1011B50000000000E9F3010850C300000100000031
:1011C500000000000000000000000000000000001A
:1011D500000000000000000000000000000000000A
:1011E500000000000000000018E8050800000000ED
:1011F500000000006D9B0008400D0300000000008A
:1012050000000000000000000000000000000000D9
:1012150000000000000000000000000000000000C9
:10122500000000000000000020E8050800000000A4
:1012350000000000617B0308400D03000000000072
:101245000000000000000000000000000000000099
:101255000000000000000000000000000000000089
:10126500000000000000000028E80508000000005C
:1012750000000000999B010850C300000300000016
:101285000000000000000000000000000000000059
:101295000000000000000000000000000000000049
:1012A500000000000000000034E805080000000010
:1012B500000000001587030840420F0000000000F1
:1012C5000000000000000000000000000000000019
:1012D5000000000000000000000000000000000009
:1012E500000000000000000040E8050800000000C4
:1012F500000000005182030850C3000000000000F8
:1013050000000000000000000000000000000000D8
:1013150000000000000000000000000000000000C8
:10132500000000000000000001007F00FF01000038
:10133500010000001DA401080000000000000000DD
:101345009C8205082C840020808400200100000078
:10135500000000000000000000000000B49805082F
:101365000000000000000000000000006C99050866
:1013750000000000000000000000000018990508AA
:10138500000000000000000005BF01089186002054
:10139500D601FF0101000000D1DF010800000000B7
:1013A50000000000409A0508F9E20108000000006D
:1013B50000000000F89905082D202D2D202D2D2D3C
:1013C5002D202D2D2D000000000000000000000044
:1013D5000000000000000000FFFFFFFFEDC4010852
:1013E500000000000000000044980508010000000E
:1013F500FA000000010000000100000001010000EA
:101405000001010100000000808200200000F401BD
:10141500010000007E8200200000F40101000000B0
:101425007C8200200000F401010000007A82002087
:101435000000F40101000000788200200000F401A2
:1014450001000000768200200000F4010100000088
:10145500748200200000F4010100000009AC0108BD
:10146500CDAB01080000000014850508648200204A
:1014750005320100728200206400F40101000000C1
:10148500708200206400C40901000000628200200F
:10149500E803D0070100000060820020E803D007C0
:1014A500010000005E820020E803D0070100000073
:1014B5005C8200201E00B80B010000006A8200203B
:1014C50005000F00010000006C82002003000A00E7
:1014D500010000005A8200201E00F40101000000F6
:1014E5006E82002002000000A085050858820020B9
:1014F5001400640001000000668200203200E80349
:1015050001000000568200200000C8000100000014
:101515006181002000C801006081002000500100A9
:101525005F810020005A01005D810020020000005B
:10153500AC8505087CED050884ED05088A63002067
:101545000100C40900000000886300200100C409EF
:1015550000000000866300200100C40900000000AF
:10156500846300200100C40900000000806300209E
:101575000100C40900000000826300200100C409C5
:10158500000000007E6300200100C4090000000087
:101595007C6300200100C409000000000B7F0020CF
:1015A50000C801000A7F002000C80100087F002054
:1015B5000000FFFF0A000000067F00200100C800B0
:1015C50001000000047F0020320030753200000069
:1015D500027F002005820500007F002005002C0108
:1015E50005000000FE7E0020055A0500FB7E002058
:1015F50000FF0100FD7E0020020000007C0C0020A1
:10160500F97E002003000000BC7C0508FA7E00205E
:1016150000FF0100FC7E0020020000007C0C002081
:10162500F87E002003000000BC7C05085DAB0108C6
:10163500EDAA010800000000B88505089482002085
:10164500EE02CA08010000009282002000C80100D5
:10165500640000009182002000C8010064000000C1
:101665009082002002000000C4860508F27E00205A
:101675000000803E05000000F07E002080C1803E15
:1016850005000000EA7E00200083007D05000000C3
:10169500E87E002080C1803E05000000E37E00203A
:1016A50000FF0100DC7E00206400F4010100000061
:1016B500DA7E002004000000D0860508D97E0020CF
:1016C50002000000E4860508917F00200D0000005F
:1016D500F08605088E7F0020006401008C7F0020C5
:1016E500320010270A0000008A7F00200D0000004C
:1016F500F0860508897F00200D000000F0860508AA
:10170500887F002002000000288705089A820020B3
:101715003E00000034870508988200200100FF7F05
:1017250001000000978200200200000030880508B3
:10173500937F00200300000040880508927F002069
:1017450003000000408805084E810020000A0100C2
:101755004C8100200000E803010000004A810020C0
:101765000000E80301000000488100200000E803B4
:1017750001000000468100200000E8030100000090
:101785003E8100200000E8030100000044810020A4
:101795000000E80301000000428100200000E8038A
:1017A5000100000040810020001401005C81002040
:1017B50002000000508805085A8100200000F4014D
:1017C50001000000588100200000F4010100000024
:1017D500568100200000F401010000005481002022
:1017E5000000F40101000000528100200000A00F5C
:1017F50001000000508100200000A00F0100000042
:10180500438200201964010042820020020000008A
:101815005C88050840820020E803D0070A00000024
:101825003E820020006401000A000000338200208F
:101835000064010032820020006401003A82002029
:10184500006401000A0000003982002000640100E4
:101855000A00000038820020006401000A00000030
:101865003D82002000FF01000A0000003C820020AC
:1018750000FF01000A0000003B82002000FF01007C
:101885000A0000003782002001FF01000A00000065
:101895003682002001FF01000A0000003582002089
:1018A50001FF01000A0000009C7F00200000F401F8
:1018B500010000009A7F00200000A00F0100000039
:1018C500987F00200000A00F01000000967F0020F7
:1018D5000000A00F01000000947F00200000A00F71
:1018E50001000000D986002000C80100D88600202C
:1018F50000640100D786002000640100D686002020
:1019050000640100D586002000640100D486002013
:10191500FF080100D38600200164010055AA0108D3
:1019250019AA01080000000068880508DC86002067
:1019350001320100DB86002001000000D88805087F
:10194500DA86002004000000E0880508D286002021
:1019550000640100D08600201400E80301000000A7
:10196500CE860020E80330750A000000CD860020F1
:1019750000C80100CC86002000C80100CB860020ED
:1019850000C80100CA86002000320100DE86002062
:10199500004B0100DD86002004000000F4880508E6
:1019A500C9860020006401000A000000EC860020C2
:1019B5000000D00701000000E786002000C80100F4
:1019C500E686002000C80100E586002000C8010069
:1019D500EA8600200000D00701000000E486002010
:1019E50000C80100E386002000C80100E28600204F
:1019F50000C80100E88600200000D00701000000B3
:101A0500E186002000C80100E086002000C8010032
:101A1500DF86002000C801000DA80108F5A7010810
:101A25000000000008890508857F0020005A010094
:101A3500847F002000C80100827F0020E803D007D2
:101A450001000000000000000000000045BF010883
:101A5500A48905084D414D4241463431310000000D
:101A6500F77E002000030100F67E00200003010040
:101A750031A70108E5A6010800000000EC8905086A
:101A8500A5A601085DA6010800000000888A0508D2
:101A95007DA70108D1C4010800000000088B0508D6
:101AA500F47E002001030100C9AC01089DAC0108CA
:101AB50000000000608E0508E1A5010895A5010854
:101AC50000000000D08E05081DA80108A5EB01083F
:101AD500000000006C8F0508F1BF0108F5AC010896
:101AE50000000000149005086DA801080000000022
:101AF500000000009490050849A90108F1A8010813
:101B050000000000F8900508DDA90108A1A9010859
:101B150000000000A09105084121020891AA0108D2
:101B2500000000002C9205085582002001060100E6
:101B3500B5A8010881A80108000000002893050840
:101B4500752002086DC6010800000000989305087D
:101B55008921020835C7010800000000E89405083E
:101B65005482002001030100C5A7010895A70108BB
:101B750000000000BC950508E121020800000000F6
:101B850000000000209605082DA60108B9C401082B
:101B950000000000A09605080000000000000000FD
:101BA500000000002C970508C5AA0108ADC701086B
:101BB500000000009C9705080000000000000000E0
:101BC50000000000B4990508F45A00209CFF2C0180
:101BD50000000000B8890020E0150C170000000087
:101BE5002486002002000000EC990508D47E002020
:101BF50088136F1701000000D67E002088136F1729
:101C0500000000002A3F0020000000000000000046
:101C1500283F00200000000000000000263F0020B3
:101C25000000000000000000243F0020000000002C
:101C350000000000223F002000000000000000001E
:101C4500203F00200000000000000000C00300202D
:101C550000000000000000005C7E00200300000082
:101C6500DC9A0508CC7E002088136F170100000060
:101C75003E5B002088136F1700000000D5A4010803
:101C85000000000000000000EC9A050825860020F1
:101C950001000000409B0508405B0020010000009A
:101CA5004C9B0508365B002002000000549B05088C
:101CB500000000000000000000000000609B050817
:101CC500BDA401080000000000000000FC9B050801
:101CD500000000000000000000000000509C050806
:101CE500000000000000000000000000C09C050886
:101CF500D87E002002000000F89C05083A5B002011
:101D0500E0150C1700000000A8A100200000803F8E
:101D150000000000000000000000000000000000BE
:101D250000000000000000000000000000000000AE
:101D3500000000000000803F0000000000000000DF
:101D4500000000000000803F0000000000000000CF
:101D5500000000000000803F0000000000000000BF
:101D650000000000010000000000FA430000FA43F3
:101D75000000803FE5AA0308000000000000000005
:101D850000000000FFFFFFFFFF000000FFFFFFFF57
:101D9500000000001CC70020080000000000000033
:101DA5000CC7002008000000200000008189000801
:101DB5006188000875E100080000000099830008AB
:101DC5002DDF0008D987000895DE00080000000017
:101DD5000000000055830008F188000821880008EC
:101DE500C1E00008000000006D83000899DE0008CE
:101DF500AD870008E9DD00080000000000000000D4
:101E0500618300080060024010600240000000008D
:101E150000000000000B00000000000000000000B2
:101E25000000000000600240286002400100000040
:101E350000000000060C000000000000000000008B
:101E45000000000000600240406002400200000007
:101E550000000000100D0000000000000000000060
:101E650000000000006002405860024003000000CE
:101E750000000000160E0000000000000000000039
:101E85000000000000600240706002400400000095
:101E950000000000200F000000000000000000000E
:101EA500000000000060024088600240050000005C
:101EB50000000000261000000000000000000000E7
:101EC5000000000000600240A06002400600000023
:101ED50000000000301100000000000000000000BC
:101EE5000000000000600240B860024007000000EA
:101EF50000000000362F0000000000000000000078
:101F05000000000000640240106402400000000070
:101F15000000000000380000000000000000000084
:101F25000000000000640240286402400100000037
:101F3500000000000639000000000000000000005D
:101F450000000000006402404064024002000000FE
:101F550000000000103A0000000000000000000032
:101F650000000000006402405864024003000000C5
:101F750000000000163B000000000000000000000B
:101F8500000000000064024070640240040000008C
:101F950000000000203C00000000000000000000E0
:101FA5000000000000640240886402400500000053
:101FB50000000000264400000000000000000000B2
:101FC5000000000000640240A0640240060000001A
:101FD5000000000030450000000000000000000087
:101FE5000000000000640240B864024007000000E1
:101FF5000000000036460000000000000000000060
:102005000000000001000000A00F0000B80B000058
:102015000102FFFF01000000741406080000080219
:1020250005030300000000007C14060801000802F7
:102035000504030000000000D40A06080200FE01A2
:102045000110030000000000DCF005080300140285
:1020550000030000000000008414060804001F02AD
:1020650002000800000000008C14060805001F028D
:102075000201080000000000FFFF0000FFFFFFFF56
:10208500FF010000F4010000FF00000050E2050818
:102095000000000000000000010203040607080913
:1020A50001000000F0170020000000000000000003
:1020B500000000000000000000000000000000001B
:1020C500000000000000000000000000000000000B
:1020D50000000000000000000000000000000000FB
:1020E50000000000000000000000000000000000EB
:1020F50000000000000000000000000000000000DB
:082105000000000000000000D2
:082800000000000000000000D0
:108000002DE9F04700230F6801264FF0030C02E032
:108010000133102B41D006FA03F232EA0704F7D1FC
:10802000D0F800E05C000CFA04F52EEA050EC0F86A
:1080300000E091F80490D0F800A009FA04FE09F1DC
:10804000FF394EEA0A0EB9F1010FA846C0F800E068
:108050006FEA050515D8D0F808E005EA0E05856039
:108060004D79D0F808E0A54045EA0E0585604568E1
:1080700025EA020242608A7945689A4092B22A4310
:108080004260C26822EA0802C260CA79C568A2409A
:1080900001332A43102BC260BDD1BDE8F08700BF79
:1080A000037830B403B30246C0F10105531912F846
:1080B000014FDBB2002CF9D101335B00DAB20C4C7A
:1080C0000B80032322706370017859B102230025CD
:1080D0005A1CD2B2E154A55410F8011F0233DBB28E
:1080E0000029F5D130BC704702221346E7E700BFF4
:1080F00050180020084AD2E9403199420AD0D118DC
:10810000013391F808110170C3F30A03C2F800317A
:10811000012070470020704750180020064AD2F80E
:108120000839D2F80C29934294BF4FF40060002024
:10813000013B9B1A1844704750180020012380F817
:108140005130704707B501A8FFF7D4FF0028FAD0D7
:108150009DF8040003B05DF804FB044BD3E9400331
:10816000984288BF03F50063181A70475018002022
:1081700001207047024BC3F81029C3F81419704747
:1081800050180020024BC3F81829C3F81C19704777
:10819000501800207047704730B4134DD5E9402384
:1081A0009A4286BF03F50064A21A9A1A0A44B2F5ED
:1081B000006F13D8A9B101444A1E013810F8014FCD
:1081C000E918824203F1010381F80841C3F30A036D
:1081D000F4D1C5F80431002030BC7047022030BC17
:1081E00070470846F8E700BF50180020212838B52E
:1081F0000C4605D022282ED0202813D0002038BDD0
:108200000029FBD0072AF9D11A4BD3F8200993F89B
:10821000241993F8252993F8263920602171627179
:10822000A371EBE70029E9D0072AE7D1114DD5F872
:1082300014391BB10968D5F81009984720682179CD
:108240006279A379C5F8200985F8241985F82529CC
:1082500085F82639D2E70029D0D0022ACED1054AA6
:10826000D2F81C39002BC9D00988D2F818099847D0
:10827000C4E700BF50180020024B0020C3F82809B3
:10828000704700BF50180020044B00200522C3F89F
:108290002829C3F81C09C3F8140970475018002096
:1082A000704700BF704700BF704700BF704700BFF6
:1082B000704700BF704700BF704700BF08B5024855
:1082C000FFF7EEFE014808BD80E2050850180020C7
:1082D00008B50248FFF7E4FE014808BD90E2050832
:1082E0005018002008B50248FFF7DAFE014808BD23
:1082F0009CE205085018002008B50248FFF7D0FEA0
:10830000014808BDA8E205085018002008B5024839
:10831000FFF7C6FE014808BDB4E20508501800206A
:10832000042301480B8070479801002010B4074ACD
:10833000074B92F82C09122403F114020C80012837
:108340000CBF184610465DF8044B704750180020CB
:108350009C010020642301480B807047C401002069
:10836000432301480B8070472802002010B5084CB9
:10837000D4F8D400FF2809D00649D1F8302901F6F5
:108380003411FFF733FFFF23C4F8D430002010BDB1
:108390009801002050180020E8E700BF08B5D0F889
:1083A000E4355B6A9847002008BD00BF08B5D0F8E7
:1083B000E4351B6A9847002008BD00BFD0F8E435BB
:1083C00010B504461B689847D4F8E8359B68984771
:1083D000002010BD08B5D0F8E435DB6903B198473B
:1083E000002008BD08B5042290F81211D0F8E83535
:1083F00080F8131180F81221DB689847002008BD2F
:1084000010B5D0F8E83504461B699847032384F873
:108410001231002010BD00BF0B0617D401EB810301
:1084200000EBC30310B400EB81000124002283F8A9
:10843000764383F8741383F87523426D5DF8044B1B
:10844000136843F4001300201360704701F07F01AC
:1084500001EB810300EBC303012200EB810083F8F1
:108460001C1183F81E2183F81D2182691368002BDB
:1084700001DA43F0804343F4001313600020704797
:1084800082B00023016801930B6901930E4B03E056
:108490000A690192013B13D0019A002AF8DA019A85
:1084A000094B42F001020192019A0A610A690192A4
:1084B00003E00A690192013B02D0019AD207F8D485
:1084C000002002B0704700BF400D0300436D064A14
:1084D0001A61C278012A06D100F2CC5058614FF0DF
:1084E000802219681A6070471800086010B5802152
:1084F0000446FFF791FF20460021FFF78DFF20463D
:10850000BDE81040E2E700BF70B44B78012B26D0E5
:108510000B784A6900EB83035C6D25682369D2B14F
:108520008A684A6102F07F0223F4002323F07F036C
:1085300042F4002213432361C378012B04BF0B696B
:108540006361C5F3076363F07B0363F31F65256015
:10855000002070BC70478A6802F07F02E4E78269FD
:108560004C691568136944B38E68B4428CBF06F039
:108570007F0404F07F0423F4002323F07F0344F4FA
:10858000002443EA040388BF4E611361C378012BC2
:108590001DD0C5F3076464F07B0464F31F651560A8
:1085A000002BD5D14B69002BD2D002690878516BD2
:1085B000012383400B435363CAE723F4002323F0D2
:1085C0007F0343F400231361C378012BE1D10B78BF
:1085D0000C6900EB8300C5F30763816963F07B03DB
:1085E00063F31F654C610020156070BC704700BFCD
:1085F0002DE9F0434B78012B30D00B784C6900EB20
:1086000083035E6D356837691CB38B681C44013C7D
:10861000B4FBF3F4C4F3090203FB02F3C3F3120344
:108620004B61144643EAC44363F31C073761C378C4
:10863000012B04BF0B697361CB78012B44D0C5F3C8
:10864000076363F07B0363F31F6535600020BDE8BB
:10865000F0838A680124C2F31203E3E791F80080F3
:108660004E6900EB880EDEF818C0DCF80050DCF82C
:10867000107076B3D1F80890384A06EB0904013C33
:10868000B4FBF9F402EAC444C6F312022243CC78E4
:1086900007F060473A43012C174649D0CCF8102028
:1086A000C278012A55D00269516B03FA08F30B43D3
:1086B0005363C5F3076363F07B0363F31F65CCF873
:1086C00000500020BDE8F0834B7973B345F00055AE
:1086D000B5E707F0604747F40027CC78CCF8107076
:1086E000C378012B2FD0012CE3D102699268D20507
:1086F00054BF45F0005545F08055C5F3076262F060
:108700007B0262F31F65CCF80050002B9ED1B0B203
:1087100003308010DEF8D04098D0CA6852F8041BAD
:10872000216001339842F9D190E745F0805586E702
:1087300064F35E77CCF81070C378012BD5D10A6949
:10874000CCF81420D1E70A69CCF81420012CB0D160
:10875000CBE70B69CCF81430ABE700BF0000F81F83
:1087600038B501EB810400EBC4040D46002184F808
:108770007453C4F88C1384F87513C4F88833C4F8A0
:108780008023C3782821012B01FB050108BFEDB22E
:1087900001F55D7108BFC4F884231DB9FFF7B4FE6D
:1087A000002038BDFFF724FF002038BD10B501EBD5
:1087B0008101084A00EBC1010446B1F88C13104650
:1087C000FFF7EAFC034A204640230121FFF7C8FFD8
:1087D000002010BD8C210020E8E700BF30B44C78A9
:1087E0000022012C154612D0097800EB81040123E8
:1087F0008B40646D63F31F4501696FF3CF322260D4
:10880000CB6923EA0503002030BCCB6170470B78AD
:1088100000EB83019C4064F30F058C69ECE700BF1B
:1088200040F2011310B500F5A2710446A0F84431DE
:10883000FFF7D4FF0123A4F89C3304F567712046A9
:10884000FFF7CCFF4FF48173A4F86C3104F5B671D7
:108850002046FFF7C3FFFFF70FFD002010BD00BF4C
:1088600038B540F2031304460D46A0F8943100F5E4
:10887000CA71FFF7B3FF29462046FFF7D1FF00205A
:1088800038BD00BFF0B44B780A78012B4FF00004DC
:1088900000EB820524D0012393406D6D63F31F44E8
:1088A0002E68330415D48A6891F803C0CF880F4925
:1088B000C2F30A0242F0805343F400430CF0030277
:1088C00043EA824307F00F0243EA825331400B43ED
:1088D0002B600369DA691443DC610020F0BC704747
:1088E0009340AD6963F30F04DAE700BF007833EC1F
:1088F0002DE9F04140F20113044602254FF04008F3
:1089000001270026A0F84431C0F84C8180F8475177
:10891000A0F84A7180F8486100F5A271FFF7B2FF34
:1089200004F56771A4F89C73C4F8A48384F89F537A
:1089300084F8A0632046FFF7A5FF082203234FF425
:108940008171C4F87421A4F86C1184F86F3104F5B6
:10895000B671A4F872512046FFF794FF064B9D8331
:10896000FFF792FC054A434620463946FFF7F8FEDA
:108970003046BDE8F08100BF980100208C21002026
:1089800070B50323092240F2031604460D46C0F8D1
:108990009C2180F89731A0F89A31A0F8946100F5F5
:1089A000CA71FFF76FFF29462046FFF7A1FF00209D
:1089B00070BD00BF70B5002540260446A0F8745372
:1089C00080F87753C0F87C6300F55D71FFF75AFFBC
:1089D0004FF48073A4F81C3104F58E71C4F824613F
:1089E00084F81F51A4F822512046FFF74BFFD4F81A
:1089F000E835A078012284F812215B689847284660
:108A000070BD00BF82B000230193019A094B42F070
:108A100010020192C168019A0A610A69019203E099
:108A20000A690192013B02D0019AD206F8D40020D3
:108A300002B07047400D030082B000230193019AF9
:108A40000B4B42F020020192019A61F38A120192CB
:108A5000C168019A0A610A69019203E00A690192F8
:108A6000013B02D0019A9206F8D4002002B0704770
:108A7000400D03000E4BDA68D20310D4DA68D10639
:108A80000FD4DA68D20510D4DA6812F0E00F0AD1F8
:108A9000DB6813F0020F14BF082009207047012083
:108AA000704706207047072070470220704700BFBC
:108AB000003C0240024A536A23EA000050627047B9
:108AC00000380240024A136A23EA0000106270472D
:108AD0000038024000207047704730B1034B93F9D3
:108AE0007C090028D4BF00200120704750180020C6
:108AF00008B5FFF7F2FF60B1064A92F87D3992F8A7
:108B00007E295B0003F00203002A18BF43F0010333
:108B10000B6008BD5018002008B5FFF7DEFF18B144
:108B2000024BD3F880390B8008BD00BF50180020DD
:108B300070B5FFF7D2FF90B1094AB2F8845975B108
:108B4000D2F888690023B3421C4608DA02EB4404D9
:108B50000133B4F88C49AC42DBB2F4D30B7070BD76
:108B60005018002008B5FFF7B8FF10B100230B70B4
:108B7000137008BD0420704728B1034B93F9D80047
:108B8000003818BF012070479801002008B5FFF792
:108B9000F3FF50B1054B93F9D820012AC3BF93F8D6
:108BA000DB30C3F340030B60002008BD98010020B8
:108BB00008B5FFF7E1FF18B1024B93F8DA300B70FC
:108BC00008BD00BF9801002070B5FFF7D5FF38B190
:108BD0000E4C94F8DB30DB0703D500230B701370C9
:108BE00070BD0B4D94F9D93095F89C6993FBF6F361
:108BF00001330B7094F9D94095F89C1994FBF1F36B
:108C000001FB134301331370EAE700BF9801002012
:108C1000501800200320704770B50B4A92F8A03915
:108C200006255E1CB6FBF5F405FB146492F8A15909
:108C3000AC4207D002EBC30382F8A049C3F8A409F1
:108C4000C3F8A81970BD00BF50180020002230B52D
:108C500004461046914200DC30BDA35C0825584014
:108C600010F0800F4FEA400318BF83F0D503013D99
:108C7000D8B2F5D10132EDE710B5E9B10F4BD3F819
:108C8000D409814218DCBAB1D3F89C399A4213DC7A
:108C90000B4C013A013903FB012184F8E61004F181
:108CA000E2000521FFF7D2FF062184F8E70004F176
:108CB000E200BDE81040AFE710BD00BF5018002033
:108CC000980100200023038083708380C380037297
:108CD000704700BF074A92F8D83992F8D919013382
:108CE000DBB2994282F8D83904BF002382F8D83920
:108CF000704700BF50180020F8B5794CD4F8DC3923
:108D000083B1D4F8E03993F82E305BB1754B94F809
:108D1000E429A3FB0013012A4FEA931330D0022A5F
:108D200008D002B1F8BD704B9842FBD9012384F8FA
:108D3000E439F8BDD4F8E82964329A423ED894F870
:108D4000D83904EB031393F8682EFF2A06D067493D
:108D50000132012083F8682E81F8E800FFF7BAFF9E
:108D600094F85C3E0122092B84F8E429DAD1B4F8A6
:108D7000063F13449BB2A4F8063FA4F8623EF8BD38
:108D800094F8D819C4F8E8398C2303FB014394F80C
:108D90005C0E83F8FE29002604F51F650A220223D3
:108DA000092884F8FA69C4F8EC5984F8FB2984F896
:108DB000E439B7D10131A4F8601EF8BD94F8FA295E
:108DC00094F8FB399A42ADD104F6EF1004F6F81589
:108DD000002310F8012F082153405A0013F0800F90
:108DE00008BF5B0082F0070214BFD3B2DBB20139C7
:108DF000F3D18542EDD194F8F9299A4239D194F80A
:108E0000D869B4F8F35994F8F779B4F8F50994F8F7
:108E1000F83994F8F1C904EB06126DBA40BA43EA86
:108E20000723ADB294F8F27982F8681EC2F86C5E3E
:108E300081B22E4D94F9F009C2F8701E47EA0C2752
:108E40001BB20121032EA2F86A7EA2F8743E82F8BA
:108E5000690E85F8E81009D894F85C2E0C2A2AD0FF
:108E60000D2A03D104EB4606A6F8600EFFF732FF89
:108E70005CE794F8D83904EB031393F8682EFF2AC3
:108E800006D01A490132012083F8682E81F8E800E3
:108E9000FFF720FF94F85C3E0122092B84F8E429B7
:108EA0007FF440AFB4F8043F13449BB2A4F8043FEE
:108EB000A4F8643EF8BD94F8021F0D4A03EB830347
:108EC00003EB830349089B0004EB460693FBF1F395
:108ED00082FB0312DB17C3EBA203A6F8603EC5E7D3
:108EE00050180020D34D62103F4B4C0098010020D9
:108EF000676666660B4B93F8FA1993F8FB29914263
:108F00000ED010B493F8FA29D3F8EC49511CD2B220
:108F1000C0B2C9B283F8FA19A0545DF8044B704787
:108F2000704700BF50180020FD2870B522D0F028EF
:108F300004D0EF2822D00224204670BD114D03201A
:108F4000052641282E444FF0000405F1010580F06C
:108F500080030DD0042B0BD9FFF7E6FF2044B54268
:108F6000C4B2E9D015F8010B412880F08003F1D19B
:108F70000420F3E7044D0B200426E2E7034D0C2008
:108F80000626DEE7AC710508A8710508B47105086E
:108F90000C4AD2F81C3F30B41C68D2F8145F5D60F4
:108FA00019810025611C19609D812070D2F81C3F39
:108FB000D2F8141F1A685A604FF6F67230BC196066
:108FC0009A81704750180020484B98422ED0B0F13B
:108FD000804F32D0464B984236D0464B98421ED0F6
:108FE000454B984237D0454B98423BD0444B984232
:108FF0003FD0444B98424BD0434B984240D0434BD8
:1090000098424CD0424B984251D0424B984256D055
:10901000414B98425AD0414B98425ED07047404AEB
:10902000136A43F00403136204204BE53C4A536A7D
:1090300043F00103536201203CE5394A136A43F0CF
:109040000103136201203DE5354A136A43F0020330
:109050001362022036E5324A136A43F008031362B2
:1090600008202FE52E4A136A43F0100313621020E4
:1090700028E52B4A136A43F020031362202021E5E0
:10908000274A536A43F4803353624FF4803011E52A
:10909000234A536A43F00203536202200AE5204A3E
:1090A000536A43F4003353624FF4003002E51C4A24
:1090B000536A43F4802353624FF48020FAE4184A41
:1090C000136A43F0400313624020FBE4144A136A1E
:1090D00043F0800313628020F4E4114A136A43F4DE
:1090E000807313624FF48070ECE400BF0000014015
:1090F0000004004000080040000C00400010004048
:1091000000140040000401400040014000440140C0
:109110000048014000180040001C004000200040B2
:1091200000380240134B10B400220F2483F8221F92
:10913000090A83F8210F83F8231FC3F8242FC3F8EB
:10914000282FC3F82C2F83F8204F03F572600121DC
:1091500010F8014F013122440E29D2B2F8D183F820
:109160002E2F0549D3F8300F5DF8044B102237F04D
:109170002FBE00BF5018002070270020054B002193
:1091800083F8341FC3F8381FD3F8303F03B1C9E761
:10919000704700BF501800202DE9F041704D714C10
:1091A00000234FF4F0722021064605F5746085F81F
:1091B0003C3F4DF0A8FF05F589504FF4F072202197
:1091C0004DF0A1FF94F8090210B194F80A2212B9E7
:1091D0000020BDE8F0813AF003FEC4F8140228B183
:1091E00082790AB1412AF3D12322C280092136F0C3
:1091F0000FFDD4F814023BF0CDF894F80A32013B8D
:109200005BB25A1C00F09980022B00F3968004EBAD
:109210000313D3F81802544FC4F81002022310218C
:1092200084F80C3247F05AFBB7F8EA104F483CF08C
:109230000FFCD4F814023BF0A7F8FF218C2047F074
:10924000ABFC8046D4F814023BF0A4F8D4F810022A
:10925000042147F043FBB8F11B0F05D0D4F81402EA
:10926000202136F0D5FCB3E7D4F81432012285F87A
:109270003C2F0BB12322DA80B7F8EA103B483CF0D0
:10928000E7FBD4F814023BF07FF840210A2047F0B6
:1092900083FCFF218A2047F07FFCC0F38013D4F8C1
:1092A000140284F848323BF075F8D4F81002042117
:1092B00047F014FB94F80832012B44D0022B3ED027
:1092C000002B49D095F85C3E182B09D194F8482220
:1092D000B7F8EA30A5F8606EA5F8622EA5F8643EEE
:1092E000B7F8EA1021483CF0B3FBB7F8EA101F4882
:1092F0003CF0AEFBD4F814023BF046F8022100200B
:1093000047F04AFCD4F814023BF044F8D4F81002B9
:10931000042147F0E3FA94F84D2294F84E3294F881
:109320004C1284F84912C2F12002C3F1100384F8F0
:109330004F2284F8503201204BE700206BE70823CE
:10934000A7F8EA30BEE7002EF9D094F84832002B97
:1093500014BF08231023F3E71023A7F8EA30B1E77E
:10936000501800204829002098010020542B00208C
:1093700070B5104ED6F85442054600686408FFF7F1
:1093800023FEB4FBF1F3B3F5803F03D3012CFAD9EC
:109390006408F6E7224699B2284635F0B5FF064B39
:1093A000C6F8BC3A28460549BDE87040002235F0B1
:1093B000CBBE00BF4829002079E501080434002015
:1093C0002DE9F04FCE4DCF4C84460F4616460FCDBB
:1093D0002DED068B0FC40FCD0FC495E80700CA4BC7
:1093E0008BB093F8EA3E059684E80700CDE906C7FE
:1093F000042B00F24B81DFE813F0B0014901440176
:109400000500C2019FEDC18ADFEDC18ADFF8348318
:10941000C049C8F8E01AC049C04BC14AC8F8DC1AB4
:109420000599002918BF134638EE887AF5EE006AD0
:10943000C6EE879ABB4EC8F8E83ABB4B039306F1D9
:10944000C0070025DFEDB97A9FEDB99A28EE278A8B
:10945000B0EE67AA079BAB4200F00D81039B13F8A7
:10946000014B039305F1010B5FFA8BF3002C00F025
:109470008B81002203E00132152A00F0858102EB86
:1094800042014FEA4209785CA042F4D1414404937E
:1094900091F8B91B002900F07F81204636F096F83C
:1094A0008246006836F036F89AF8051036F0D4F99E
:1094B00090F800C0BCF1000F40F0668108EB090194
:1094C0004FEA1419032209F1FF39049B81F8F93B93
:1094D000914581F8F82B04F00F0000F20381954CC0
:1094E00004EB4901B1F840C04CFA00F111F0010160
:1094F00000F03181012101FA00F0013800EA0C008E
:10950000A14404934AF086FE99F848C0DFF838E297
:10951000049B60440EEBC00C03228CF807308CF8DF
:1095200006205EF83000C6F814C000F13F4303F592
:109530007E0304EB9324012194F84C309AF8082020
:1095400003F01F045B09032B01FA04F100F0FE8015
:10955000042B00F0CF80022B00F0C780BCF8043051
:109560000893B3FA83F3C3F11F03C3F3CC0100EBF9
:10957000810103F007030C6A9B004FF00F0C0CFAFB
:1095800003FC24EA0C040C620C6A02FA03F3234382
:109590000B62022308A90993FEF732FD059B002BFD
:1095A00079D0594BD8F85412B3F8E83E07EE903A08
:1095B000F8EEE77AFCEEE77A17EE900AB1FBF0F2EC
:1095C00002F57F42FF32120CB1FBF2F24E49B2FBC0
:1095D000F0F091F8EA1E042983B274D007EE902AC5
:1095E000F8EE676A66EE887A29EE677A4649A8EE51
:1095F000A67A91F8EB0E06990091019051463046FB
:10960000C6ED027A86ED037A2EF05EF8002D65DD58
:109610007368D8F8FC2A934262D0012D5ED0D8F846
:10962000142B93425CD0022D58D0D8F82C2B9342A7
:1096300056D0032D52D0D8F8442B934250D0042D4D
:109640004CD0D8F85C2B93424AD0052D46D0D8F8A0
:10965000742B934244D0062D40D0D8F88C2BD31ACB
:1096600018BF01235D460122082D3374727406F180
:1096700018067FF4EFAE23480BB0BDEC068BBDE8B7
:10968000F08F9FED2D8AF0EE488ABFE69FED2B8A82
:10969000F0EE488ABAE6B0EE690A4BF009FCFCEE3F
:1096A000C07A4FF6FF7317EE902AD8F85412B1FB28
:1096B000F2F21A44120CB1FBF2F2134991F8EA1ECD
:1096C000042918468AD107EE900A07EE102AF8EE10
:1096D000677AF8EE476A67EE8A7A85E70123C1E781
:1096E0000023BFE7C6F814C058E7154B5C6C214354
:1096F000596433E7124B1C6B214319632EE700BFFB
:10970000BC7105080C34002050180020ACC5A737E8
:10971000ACC5A73695D9020871DD0308F9D6020851
:1097200065DD0308403400203F2700206F12833A94
:1097300000007A44A8710508282930386F120339CF
:1097400000380240482900206C350020134B1C6C67
:109750002143196402E7716120E7DFF85C809FED27
:10976000108A104A104BC8F8E02AC8F8DC3A0022E8
:109770000123CDE90532F0EE488A0C4B54E6DFF8C0
:1097800038809FED0B8AECE70A4A084BC8F8E02ABC
:10979000C8F8E83A00206FE70B68FFDE00380240A7
:1097A0006F12833A95D9020871DD030865DD03085D
:1097B0000000000049D8020848290020F8B51A4DD9
:1097C00095F8AC3D002BFBD161B30144174F4E1E01
:1097D000441ED7F80C29D7F8081914F801CF531CE8
:1097E000C3F30A038B422CBF4FF400600020C91A58
:1097F0002A4401440129C7F80C3982F8B0CD0FD1B1
:10980000012036F053FFD7F80839D7F80C198B42EE
:1098100094BF4FF4006200225B1A1344012BEFD077
:10982000B442D6D10020F8BD4829002050180020AD
:109830000A4B0846D3F8281910B569B1D3F828396E
:10984000052B09D1064C002AD4F8B83404DD1146A2
:10985000FFF7B4FFD4F8B83410BD00BF5018002093
:10986000403A002010B590F85010002380F8503096
:1098700089B10C4CD4F828297AB1D4F82829052AC2
:109880000DD1094C3C30D4F8B834FFF797FFD4F829
:10989000B834012010BD0120FCE71046FAE7184655
:1098A000F8E700BF50180020403A0020002280F85E
:1098B0005120D7E790F85020531C0244DBB280F8C7
:1098C000503082F83C1090F851200AB1132B00D987
:1098D000C8E77047F8B5054626201FF015FC134C65
:1098E0000146F0B9D4F8BC0490F838301E3B012B87
:1098F00001D937F0A1FA0E4F0026AE4209DBB4F8C9
:10990000E0340133A4F8E034D4F8B834C4F8F034C7
:10991000F8BD17F8011BD4F8BC0437F08DFA0136F6
:10992000EBE7002384F8EE34EEE700BF403A002076
:10993000003F002038B5154C94F8A13994F8A029BF
:109940009A421CD004EBC303114AD3F8A419D3F8EC
:10995000A8090023984213DC8B780E4A5B0882F832
:10996000EE34C2F8F404FFF7B5FF94F8A1390621EC
:109970000133B3FBF1F201FB123384F8A13938BD96
:10998000CD5C02F8015B0133E4E700BF5018002012
:10999000003F0020403A00202DE9F84F1B4C0546BF
:1099A0001E2094F8F8A494F8F9B494F8FA64B4F882
:1099B000FC94B4F8FE8494F800751FF0A5FB30B158
:1099C000B8F1000F03D0C14601264FF0000A94F809
:1099D0000235DA070AD494F807253AB9012F12D0D4
:1099E000022F03D113F0020F08BF012685F800A053
:1099F00085F801B0AE70A5F80490A5F806802F7226
:109A00002846BDE8F88F3E46F0E700BF403A002008
:109A100013B50446FFF7B0F808B300230DF10602B2
:109A20002046ADF8063014F0EFF9C0B10D4C9DF8AA
:109A3000062094F9D81084F8F020032908BF62F0BA
:109A40007F024FF00501084808BF84F8F020FFF7B7
:109A5000FDF8062184F8F1000348FFF7DDF802B0B5
:109A600010BD00BF98010020840200202DE9F84FAE
:109A70002DED028BFFF780F8002844D0264B93F998
:109A8000D80001283FDD93F8F240DFF894809FED85
:109A9000238A0FF27C0BDBE900AB15468E1E02EB2E
:109AA00044094D4504D1BDEC028B2046BDE8F88F3A
:109AB00038F8027B26F8027F07EE907AF8EEE77A14
:109AC00067EE887A17EE900A49F0B4FF52465B467B
:109AD0004AF008F841EC100B4DF046F851EC100B31
:109AE0004AF028FB0E2F80B20AD919303223B0FB7E
:109AF000F3F080B200EB800000EB8000400080B209
:109B000025F8020BCDE70024CDE700BFAFF30080BE
:109B10001655B5BBB16B024098010020CDCCCC3DB1
:109B20006C3F002038B50D46FFF726F8044638B1E3
:109B30000C4890F8DB30DB0704D5B0F8DC00288057
:109B4000204638BD084A90F9D93092F89C2993FBF9
:109B5000F2F102FB113201320131F43014F068F9F4
:109B6000EDE700BF98010020501800202DE9F04FCC
:109B7000A94D95F83C358BB08146002B40F0B5805F
:109B8000D5F84065002E00F0B080A44AD2F8F84025
:109B900004F0F021B1F1E02F6ED1C2F8F830D5F821
:109BA0004425944268D004930593ADF81830B5F875
:109BB000FC3495F8F8E4ADF8143095F8F9C495F84C
:109BC000003595F8FAA48DF818300DF110088DF8CD
:109BD00010E08DF811C08DF812A098E8070007ABCF
:109BE00003C38F4F1A80C4F342533B44C4F3034270
:109BF00093F85210C5F844458E4502F1010201D197
:109C0000944508D030468DF81C108DF81D2014F0B6
:109C10000FF9ADF82000304614F040FB032804F0A3
:109C2000070B34D0042836D000239A4501A93046CA
:109C300018BF8DF81E3014F075F948B1019BC4F3BC
:109C4000001103F001038B4202D0304614F018FAE1
:109C50000A2207A940464DF02EFA68B19DF81E3041
:109C6000BDF81C2085F8FA34BDF82030A5F8F8249A
:109C7000A5F8FC343FF0DEF995F848A504AF95F857
:109C80004835032B7BD8DFE803F00A3376A35F4423
:109C900097F85730C9E75F4497F85F30C5E7394612
:109CA000304614F045F9044658B107A8FFF774FE92
:109CB0009DF81E109DF810308B4260D0304614F095
:109CC00055FA95F84835013303F0030385F8483514
:109CD0000CB99A45D3D195F80235DB0700D524B1EC
:109CE000336849461B68304698470BB0BDE8F08F93
:109CF00001A8FFF751FE95F802859DF8044008F091
:109D00000108ECB1B8F1000F39D13A460DF1030169
:109D1000304614F010F9044688B307A8FFF73CFE5C
:109D20009DF81C109DF803309DF81D208B4203D137
:109D30009DF81030934222D0304614F021FAC0E74B
:109D4000B8F1000FBDD13946304614F0EEF80446A4
:109D5000A8B107A8FFF720FEBDF82010BDF810300D
:109D60008B420CD085F8498585F84A8533683046A2
:109D70009B699847A5E795F80235D80701D50024D7
:109D80009FE707A9304614F0CDF804460028F6D026
:109D90001E201FF0B9F995F84B3583428046EED06E
:109DA00085F84B0560B1B5F8FE34002BE7D1079B71
:109DB000D907E4D40121304614F062F9444680E723
:109DC000079BDA07DBD50146304614F059F978E7EE
:109DD0003846FFF7E1FD97E8070007AB03C31A8099
:109DE0009DF810309BB10DF11D0207A9304614F00B
:109DF000A2F80DF11E01304614F09AF80A2207A9C4
:109E000038464DF058F9041E18BF012459E708A937
:109E1000304614F08AF8ECE7403A00209801002020
:109E2000A87105082DE9F041FD2984B0044669D0E8
:109E3000F02949D0EF2900F0BF804AB103468618C7
:109E400003AD002003F8010B9E4205F8010BF9D188
:109E5000BB4B0B2003F1090501E013F8010F814210
:109E600055D0AB42F9D14B1E152B21D8DFE813F0AA
:109E7000C500D000DA00E500EF00F500160007018C
:109E800003012000200026012601260113011301F1
:109E900013010301200020001E01AD00A94D95F81B
:109EA0000235DE0700F17181B5F8B835ADF80C3038
:109EB0003AB1224403AB13F8011B04F8011BA24280
:109EC000F9D104B0BDE8F0819F4F03214FF00508A0
:109ED000B844002501370CE0FFF726F80646601964
:109EE0003246FFF79FFF70194745C5B2E9D017F812
:109EF000011B412981F08003084601D0042BEBD8D7
:109F00000426ECE7914F0B214FF00408E0E78D4B5E
:109F1000D3F8440680060CD4002AD2D0224403ABE6
:109F200013F8011B04F8011B9442F9D104B0BDE8F9
:109F3000F08193F84C0510F0020F93F8640540D0BF
:109F4000052834BF02250325142917D97C39C8B246
:109F50000628E1D80629DFD801A050F821F000BF7B
:109F600037A1000837A100081FA10008199F0008A9
:109F700017A100080FA1000807A100080929CBD9E3
:109F80000A390A29C8D801A656F821F0F3A000081A
:109F900069A10008199F0008199F0008199F00086F
:109FA000199F0008199F0008199F0008199F0008B1
:109FB000E9A0000837A10008654F0C214FF0060802
:109FC00086E70B29A8D10125CFE05E4BB3F8D81561
:109FD000CD055ABFCB4303F00103032311F0440F17
:109FE00018BF042311F0020F18BF072311F4806F6C
:109FF00018BF0923ADF80C305AE7524BB3F89A3525
:10A0000003EB83035B0003F5C873ADF80C304FE737
:10A01000504BD3ED037AFDEEE77A17EE903AADF8A8
:10A020000C3045E7474B93F87F05B3F86C150028D3
:10A0300040F0A680ADF80C103AE74249B1F86C3513
:10A0400091F89815B3FBF1F3ADF80C3030E73D4BC8
:10A05000D3F8C835ADF80C302AE73A4BB3F8B81549
:10A06000002900F0878001922EF08CF9019A80B2CD
:10A07000ADF80C001CE7334BB3F8423616E7314B12
:10A080003549B3F9403681FB0301DB17C3EBA1036C
:10A09000ADF80C300CE72B4B03EB4101B1F81E3649
:10A0A00003EB83035B00ADF80C3001E7254B93F81D
:10A0B000023503F00103ADF80C30F9E6274BDFED74
:10A0C000286AD3ED007A0C39C9B203EB810393ED12
:10A0D000147A67EEA67A67EE877AFDEEE77A17EED6
:10A0E000903AADF80C30E3E6B3F85E35ADF80C30DD
:10A0F00012E7B3F8603503EB830303EB83039B00A4
:10A10000ADF80C3008E7D3F85835039304E7D3F8DB
:10A110005435039300E7D3F850350393FCE6B3F8C6
:10A120005E35104903EBC3039B00A1FB03135B09DE
:10A13000ADF80C30F0E6B3F86835ADF80C30EBE66E
:10A1400010720508403A0020AC710508A871050896
:10A15000B4710508DC3F0020676666661C4000207D
:10A1600000007A441F85EB51EDB28DF80C508DF84C
:10A170000D00D1E6D3F8D00580F3100080B277E768
:10A1800093F89835B1FBF3F154E7019221F0E2FE28
:10A1900005F29C53D3ED037A019AFCEEE77A17EEB1
:10A1A000903A9BB200287FF481AED5F8D41511F017
:10A1B000100F18BF002379E600F01F0240090123A9
:10A1C000032803FA02F304D004280CD0022805D097
:10A1D0007047074A116C0B4313647047044A516C73
:10A1E0000B4353647047024A116B0B431363704770
:10A1F0000038024000487047CC3500200E4B30B488
:10A20000DB68427801780D4CDB43C3F30223C3F1D2
:10A210000403DBB202FA03F360181B0101F01F050F
:10A220000122490903F0F003AA4080F8003344F802
:10A23000212030BC704700BF00ED00E000E100E0ED
:10A24000002871D0F0B58388B3FA83F3202B0A4637
:10A2500083B00446C3F11F0150D0344F344D07EB97
:10A2600081036E18C3F84826002196F8746035F013
:10A27000CFFCA38821682F48B3FA83F3C3F11F02F0
:10A2800002F0FC0404F1804404F59C3402F0030263
:10A290004FEA820E4FF00F0C01F13F42A1680CFA19
:10A2A0000EFC21EA0C01A16002F57E02A168C2F356
:10A2B00087224FF0004C02FA0EF22CFA03F30A4305
:10A2C000A260436102681C4922EA030202604268FC
:10A2D00022EA0302426002681A430260826822EAAC
:10A2E00003028260C26822EA0302C2600A6837443D
:10A2F00013430B6097F88836F02B01D803B0F0BDFC
:10A300003544F02195F884308DF8043003224FF461
:10A31000807301A887F888168DF80520ADF80630FF
:10A32000FFF76CFF03B0F0BD704700BF403A00205C
:10A33000A8710508003C0140083C01402DE9F047A8
:10A34000C94C94F88F160546C1F34001D4F8940621
:10A350003AF026F894F88F16D4F89006C94301F025
:10A3600001013AF01DF8002D00F0E58005F1FF38FD
:10A37000BE4EBF4D5FFA88F81027D4F8943633B13B
:10A380001A689B8851690B4214BF53831383D4F816
:10A39000903633B11A689B8851690B4214BF5383BE
:10A3A0001383B4F89C36002B40F0558194F89E1628
:10A3B000D4F8A00639F0F4FF4FF0FA0C4FF47A709D
:10A3C0004FF0010E7368C3F30803002B40F01781B0
:10A3D000EFF31183002B40F01281D4F8B824A96860
:10A3E000D4F8B8349A42F8D1D4F8C4369942F4D8A3
:10A3F000D4F8C09600FB09F35B1AB3FBF9F300FB3A
:10A4000002327368C3F30803002B40F0B780EFF308
:10A410001183002B40F0B280D4F8B834D5F808A0EE
:10A42000D4F8B8148B42F7D1D4F8C4168A45F3D8BF
:10A43000D4F8C09600FB09F1A1EB0A01B1FBF9F1D8
:10A4400000FB03139B1AB3F57A7FDAD3BCF1010C3E
:10A45000B8D1D4F8943633B11A689B8851690B424D
:10A4600014BF53831383D4F8903633B11A689B8892
:10A4700051690B4214BF53831383B4F89C36002BED
:10A4800040F0DD8094F89E16D4F8A00681F001011A
:10A4900039F086FF4FF0FA0C4FF47A704FF0010E4E
:10A4A0007368C3F30803002B40F08980EFF3118336
:10A4B000002B40F08480D4F8B824A968D4F8B834CC
:10A4C0009A42F8D1D4F8C4369942F4D8D4F8C09658
:10A4D00000FB09F35B1AB3FBF9F300FB023273686C
:10A4E000C3F308034BBBEFF3118333BBD4F8B83489
:10A4F000D5F808A0D4F8B8148B42F7D1D4F8C41614
:10A500008A45F3D8D4F8C09600FB09F1A1EB0A0103
:10A51000B1FBF9F100FB03139B1AB3F57A7FDED38D
:10A52000BCF1010CBCD108F1FF385FFA88F8B8F132
:10A53000FF0F7FF422AFBDE8F087EFF3118987F3B7
:10A540001288D5F808A02B68DB0344BFC4F8BCE62A
:10A55000D5F808A0D4F8B834D4F8BC165FFA89F955
:10A5600089F31188D4F8C0960B4400FB09F1A1EBE4
:10A570000A01B1FBF9F100FB0313CDE7EFF31189F9
:10A5800087F31288D5F808A02B68D90344BFC4F814
:10A59000BCE6D5F808A0D4F8B834D4F8BC165FFAF5
:10A5A00089F989F31188D4F8C0960B4400FB09F1AE
:10A5B000A1EB0A01B1FBF9F100FB031342E7EFF352
:10A5C000118187F31288D5F808902B68DA0344BF0D
:10A5D000C4F8BCE6D5F80890D4F8B834D4F8BC2652
:10A5E000C9B281F31188D4F8C0161A4400FB01F3F4
:10A5F000A3EB0903B3FBF1F300FB02326FE7EFF3C8
:10A60000118187F31288D5F808902B68DB0344BFCB
:10A61000C4F8BCE6D5F80890D4F8B834D4F8BC2611
:10A62000C9B281F31188D4F8C0161A4400FB01F3B3
:10A63000A3EB0903B3FBF1F300FB0232E1E6D4F82C
:10A64000B836002B3FF426AFD4F8A42600231360BD
:10A6500084F8B5361EE7D4F8B836002B3FF4ACAE1C
:10A6600036F0E8F8A8E600BF403A002000ED00E030
:10A6700010E000E02DE9F84FC44CC54F94F88F1658
:10A68000D4F89406C34DC1F3400139F089FE94F823
:10A690008F16D4F89006C94301F0010139F080FE0D
:10A6A0004FF0050B4FF01008D4F8943633B11A6808
:10A6B0009B8851690B4214BF53831383D4F890369F
:10A6C00033B11A689B8851690B4214BF53831383BB
:10A6D000B4F89C36002B40F0518194F89E16D4F8C3
:10A6E000A00639F05DFE4FF0320C4FF47A7001266F
:10A6F0007B68C3F30803002B40F01481EFF3118350
:10A70000002B40F00F81D4F8B824A968D4F8B834ED
:10A710009A42F8D1D4F8C4369942F4D8D4F8C09605
:10A7200000FB09F35B1AB3FBF9F300FB02327B6811
:10A73000C3F30803002B40F0B480EFF31183002B28
:10A7400040F0AF80D4F8B834D5F808A0D4F8B814E5
:10A750008B42F7D1D4F8C4168A45F3D8D4F8C09602
:10A7600000FB09F1A1EB0A01B1FBF9F100FB0313B6
:10A770009B1AB3F57A7FDAD3BCF1010CB8D1D4F8C7
:10A78000943633B11A689B8851690B4214BF5383C6
:10A790001383D4F8903633B11A689B8851690B4201
:10A7A00014BF53831383B4F89C36002B40F0DA8037
:10A7B00094F89E16D4F8A00681F0010139F0F0FD5E
:10A7C0004FF0320C4FF47A7001267B68C3F3080314
:10A7D000002B40F08780EFF31183002B40F0828044
:10A7E000D4F8B824A968D4F8B8349A42F8D1D4F887
:10A7F000C4369942F4D8D4F8C09600FB09F35B1A2A
:10A80000B3FBF9F300FB02327B68C3F308033BBBE5
:10A81000EFF3118323BBD4F8B834D5F808A0D4F8EB
:10A82000B8148B42F7D1D4F8C4168A45F3D8D4F8BB
:10A83000C09600FB09F1A1EB0A01B1FBF9F100FBA5
:10A8400003139B1AB3F57A7FDED3BCF1010CBCD1A4
:10A850000BF1FF3616F0FF0B7FF426AFBDE8F88F43
:10A86000EFF3118988F31288D5F808A02B68DB0371
:10A8700044BFC4F8BC66D5F808A0D4F8B834D4F8FE
:10A88000BC165FFA89F989F31188D4F8C0960B4495
:10A8900000FB09F1A1EB0A01B1FBF9F100FB031385
:10A8A000CFE7EFF3118988F31288D5F808A02B6859
:10A8B000D90344BFC4F8BC66D5F808A0D4F8B834AE
:10A8C000D4F8BC165FFA89F989F31188D4F8C096D8
:10A8D0000B4400FB09F1A1EB0A01B1FBF9F100FB0C
:10A8E000031345E7EFF3118188F31288D5F8089038
:10A8F0002B68DA0344BFC4F8BC66D5F80890D4F8D6
:10A90000B834D4F8BC26C9B281F31188D4F8C01683
:10A910001A4400FB01F3A3EB0903B3FBF1F300FBC3
:10A92000023271E7EFF3118188F31288D5F80890AD
:10A930002B68DB0344BFC4F8BC66D5F80890D4F894
:10A94000B834D4F8BC26C9B281F31188D4F8C01643
:10A950001A4400FB01F3A3EB0903B3FBF1F300FB83
:10A960000232E4E6D4F8B836002B3FF429AFD4F82D
:10A97000A4260023136084F8B53621E7D4F8B8364E
:10A98000002B3FF4B0AE35F055FFACE6403A002066
:10A9900000ED00E010E000E010B4B8B10D4CD4F8C8
:10A9A000C836102B05D15DF8044B0521002035F089
:10A9B00017BC03EB4302224482F8CD1601210B445D
:10A9C00082F8CC0682F8CE16C4F8C8365DF8044B7F
:10A9D000704700BF403A002000285FD00368374A24
:10A9E0002DE9F04103F13F4404F57E0402EB94228B
:10A9F000012492F84C2002F01F055209032A04FAA0
:10AA000005F456D0042A4FD0022A48D08588B5FADA
:10AA100085F0C0F11F00C0F3CC0603EB860600F002
:10AA2000070082000F24306A944020EA040030625C
:10AA3000306A01FA02F20243002132624FF0010E45
:10AA40000A464FF0030C02270EFA02F838EA050016
:10AA500002F101021CD118680CFA01F420EA04008A
:10AA60001860186807FA01F606431E609E6826EA19
:10AA700004069E6098689860586820EA080058604C
:10AA800058685860D86820EA0400D860D868D86050
:10AA9000102A01F10201D7D1BDE8F0817047084AC0
:10AAA000556C2C435464B1E7054A156B2C43146371
:10AAB000ACE7034A156C2C431464A7E7A87105089A
:10AAC00000380240F8B5764D05EB0013D3F8182294
:10AAD000002A00F0968093F82062002283F8242256
:10AAE000044607013046FFF767FB06F01F027609B0
:10AAF0000123032E03FA02F300F09B80042E00F0E2
:10AB00008980022E00F08180EB19013493F81C0239
:10AB100039F066F9E4B2064610B11223C4718371AC
:10AB2000EB1993F81D0239F05BF910B11323C471CE
:10AB30008371EB1993F81E0239F052F910B1142306
:10AB4000C4718371EC190A2194F81F22304639F040
:10AB500033FA94F81D0239F043F994F81F220A21C0
:10AB600039F02AFA94F81E0239F03AF90A2194F8D9
:10AB70001F2239F021FAD4F818124A4B99425DD0BD
:10AB8000494B99424BD0494B994261D0484B99422D
:10AB900068D0484B99426FD0474B994276D03D449C
:10ABA00095F8243273BB01240220444A0D88B2F880
:10ABB000FE60B2F8FC30B2F80671A2F804413343EB
:10ABC000B2F80061A2F802013343B2F808613B43D6
:10ABD000B2F80A7133433B43B2F80C6105F44152B9
:10ABE000134303439BB223430B808B8B23F40063FB
:10ABF0001B041B0C8B830E820B889BB243F040031B
:10AC00000B80F8BD00242046CFE72D4A516A0B4344
:10AC1000536279E72A4A11690B43136174E7284AA2
:10AC2000136A43F4804313624FF48040FDF74AFFF8
:10AC3000B5E7234A116A0B43136265E7204A536A5A
:10AC400043F4805353624FF48050FDF733FFA6E77F
:10AC50001B4A136A43F4004313624FF40040FDF7AC
:10AC600031FF9CE7164A536A43F4005353624FF492
:10AC70000050FDF71FFF92E7114A536A43F4801317
:10AC800053624FF48010FDF715FF88E70C4A536AB2
:10AC900043F4001353624FF40010FDF70BFF7EE7FF
:10ACA000482900200030014000380040003C0040AE
:10ACB0000034014000500140005401409801002040
:10ACC0000038024070B5464E96F8FC4604EB44034B
:10ACD00006EBC303650093F80037032B6ED8DFE85B
:10ACE00003F059291E02254406EBC505D5F80407D3
:10ACF000002870D196F860379C425FD0013404F090
:10AD00000302934286F8FC2658D002EB420406EB7D
:10AD1000C4040223C4F8040784F8003770BD2B195B
:10AD200006EBC303D3F8042772B1013AC3F8042732
:10AD3000002070BD2B1906EBC303D3F80427002AAB
:10AD4000F3D1022283F80027254406EBC50595F8C8
:10AD50000C37013BDBB285F80C378BBB214B96F8E7
:10AD60006067D3F81011D5F80807621C02F00302DF
:10AD70004B1E0324B242034485F80047B3FBF1F0B5
:10AD8000C5F804071AD0994218D80138C5F8040745
:10AD9000012070BD3AF090FF80B1124B2C44D3F8E3
:10ADA000102106EBC404012102F51C5384F800179E
:10ADB0000F33B3FBF2F3C4F8043770BD012070BD4C
:10ADC000084BD3F81021012002F2E733B3FBF2F372
:10ADD000C5F8043770BD0138C5F80407002070BD00
:10ADE000403A0020980100202DE9F04F2DED108B06
:10ADF000034697B004331593DFEDCACA14900223BB
:10AE00008A4613928B461293149C4FEADB0604EB9E
:10AE1000461202EB06103101A6EB86034FEAC60884
:10AE200006EB4605CDE9000100EBC303043108F150
:10AE300004001196204421442C01C6EBC60C039457
:10AE4000EC00119D04944FEACC0405946C0106EBD0
:10AE5000860E0294159D009C03EB46174FEACE0E1A
:10AE600002EBC6064FEACB094FF0000C51ED01AAE8
:10AE7000D3ED001A92ED007A94ED005A96ED004A57
:10AE8000D7ED007A15ED012A50ED016A32EE07BACE
:10AE900076EE840A7AEE855A31EEA70A3BEE256AF1
:10AEA00070EE804A76EEC46A36EE244A36EE646A64
:10AEB00005ED014A82ED006AD0ED00BAD6ED012A17
:10AEC000D3ED019A95ED00AA92ED016A97ED013A52
:10AED00091ED00CAD4ED014A7BEEE23A36EEE19AFA
:10AEE00032EE472A73EEE98A3AEE464A39EE279A5D
:10AEF00078EE838AB0EE428AA9EE6C8ADC44E245A1
:10AF000073EEC33AB0EE441AA8EEEC1A76EEE77A86
:10AF100033EEA97A7CEE643A77EEA17A3AEE066ACD
:10AF20007AEEC51A3CEE24AA74EECC4A39EE833A86
:10AF300035EE6A5AF0EE639AF0EE48AAE7EE2C9AE4
:10AF4000A8EEAC4AE7EE2C4AE7EE6CAAF0EE418A96
:10AF5000B0EE427AB0EE612A7BEE656A7BEEA22A01
:10AF600076EE4A5AA9EE2C7AA7EEAC2AA7EEAC5A96
:10AF7000E7EEEC8A32EE83BA76EEC3BA35EEE09AAB
:10AF800075EEC07A36EE0A6A76EEE26A36EE0BAA03
:10AF900076EE836A77EEA07A34EE423A77EE290AAB
:10AFA00036EE4B6A7BEEA22A39EE000A73EEAA3A1D
:10AFB00078EE244A37EE697A31EE055A71EEA85AD6
:10AFC00032EE044A85ED00AA82ED016A4D4441ED5E
:10AFD000012A4A44C4ED006A81ED000AC4ED017AF9
:10AFE000494440ED010A4C4487ED007AC6ED003A31
:10AFF000C3ED004A80ED003A87ED014A484486EDF2
:10B00000015A4F44C3ED015A4E444B443FF62EAF14
:10B01000119B072B40F2C781029D149E019B039850
:10B020000499059A083575190C330E95354608F1C3
:10B0300008080EF10804EB180830083108324644BD
:10B040002C1928186918AA18079305F10C030D96F6
:10B050000C940B900A91099208934FF001084FF05D
:10B06000000E129B9E44139B03EBCE0303EBCE0218
:10B07000109302EBCE0303EBCE01029101EBCE0164
:10B0800001EBCE0505EBCE06D6ED007A0F93AEEBC5
:10B090008E03019106EB031303EBCE07D3ED01AA58
:10B0A000CDED067A019BD5ED007A97ED01BACDED95
:10B0B000057AD3ED007A029BCDED047AD3ED007AC8
:10B0C0000F9BCDED037A07EBCE0CD3ED007ADCEDD0
:10B0D00001BACDED027A0CEBCE01D2ED007A109AD6
:10B0E000009101EBCE00014691ED01DACDED017A40
:10B0F0000099D2ED007A91ED01CA00EBCE0000EB91
:10B10000CE0494ED01EAD0ED01DACDED007ADDE96F
:10B110000776DDE90954DDE90B01DDE90D23C446BD
:10B1200002E000BFF304353F94ED009A90ED00FA81
:10B1300091ED006AD5ED007AD3ED006A57ED014A32
:10B1400092ED005A56ED013A96ED00AA35EE060A48
:10B1500073EEA65A39EE278A34EE8F7A70EE082AFB
:10B1600075EE87EA35EE465A3EEEA26A73EEE63A8F
:10B1700006ED016AD1ED019AD2ED01FAD4ED016A32
:10B18000D3ED011A95ED013AD0ED018A97ED004A11
:10B190003FEEE96A35EE491A76EE660A31EE271A75
:10B1A0003AEE612A75EE677A70EE830A3FEEA95A8D
:10B1B00074EECF9A77EE897A7AEE211AB0EE42AA2F
:10B1C00074EE68FAA0EEECAADC44E24535EEC77AEC
:10B1D000B0EE639A74EE285A38EEC44AF0EE698AEB
:10B1E000A1EE6C9AE7EEAC8A36EE436A7FEE644AD3
:10B1F00036EE266AA0EEAC2AF0EE4A0AE7EEEC0A3A
:10B20000E7EEAC4AF0EE687AF0EE498A36EE833A21
:10B21000E6EE6C8AE1EE2C3AB0EE6F1AA6EE2C1A2E
:10B2200071EEE56AA6EE2C4A71EEA55A75EE031A88
:10B230007EEEE22A37EE43FA75EEE1EAB0EE686A96
:10B2400076EEC08A39EE044A7FEE86FA76EEC86A58
:10B2500033EE816A38EE888A73EEC13A37EE457A6A
:10B260002CEE2E1A3FEE055A22EECC9A9DED03FAF3
:10B2700070EE266A33EE077AAFEE221AAFEE2E9A00
:10B280007AEE244A9DED01FA79EEA09A25EE4BAABA
:10B2900072EE670A37EE822A6BEE087AAFEE08AAE2
:10B2A000EFEE057A2DEEA63A9DED05FA67EE6D8A72
:10B2B000AFEE073AEFEE268A66EE6A2A9DED00FAB7
:10B2C0002AEEA00AEFEE202A6EEE02EADDED060A73
:10B2D00023EECE5AE0EEA3EA2BEEA98ADDED023A88
:10B2E000AFEE060AA3EE848A24EE6B7A6DEE246A32
:10B2F0009DED044A2FEECD6AA0EE825AA3EEA97A04
:10B30000E4EE2F6AA4EE246A75EEA15AC6ED005A47
:10B3100083ED001A83ED019A4E4447ED017A87EDE3
:10B3200000AA4B4480ED003AC0ED018A4F4482ED03
:10B33000000A4844C2ED012AC5ED00EA85ED015A34
:10B340004A44C1ED006A81ED016A4D4484ED008AF2
:10B3500084ED017A49444C443FF6E6AE0E9B083337
:10B360000E930D9B08330D930C9B08330C930B9B92
:10B3700008330B930A9B08330A93099B08330993FC
:10B38000089B08330893079B08330793119B08F128
:10B39000010843457FF465AE129BDDF844B0DB0045
:10B3A0009BB2129330E517B0BDEC108BBDE8F08F67
:10B3B000036870B55E6A26B133460522BDE8704069
:10B3C000184704460D464E1D00E023689B68204642
:10B3D00098470028F9D0236815F8011B1B68204600
:10B3E0009847B542F1D170BD2DE9F047164D07469B
:10B3F000002095F9699705F5EE6684B007EB010822
:10B4000005F5216504464FF0B60A3368ABB193F8F1
:10B410003830142B11D019F1020F01D04B450CD14B
:10B42000002269463046CDE90244CDE90078ADF806
:10B4300008A08DF80E402DF0B9FAE036B542E4D1FF
:10B4400004B0BDE8F08700BF403A0020F0B40D68BA
:10B4500000240CE0BCF1050F18D8A0F137030A2B2B
:10B4600014D104EB840415F8010B03EB4404A0F1A0
:10B470003003DEB2092EA0F16107A0F1410CF0D932
:10B48000052FE7D8A0F157030A2BEAD00D6014600E
:10B49000F0BC70472DE9F743124E0124A023182574
:10B4A0005FFA84F8FF2B14DCD6F8100AE9B2C1F178
:10B4B0001C0282725F1C026880F80B80DBB2009372
:10B4C000C1F11B01D2F8189000234246C9B2C84707
:10B4D0003B46013DE6D10134052CE0D103B0BDE887
:10B4E000F08300BF403A002010B50A4C94F82D0AB2
:10B4F000003818BF0120FDF74FFE50B1064904F691
:10B5000014203AF039FA04F614200BF053FF04F635
:10B51000142010BD403A00203472050870B44479FC
:10B5200041BB03684FF400524FF4007620250221FE
:10B530003CBB1A8C22F001021204120C1A841A8BE2
:10B54000188C22F0F30280B2120420F00A00120CD0
:10B55000014342F0010241F001011A8319841A8B60
:10B5600022F00C021204120C1A831A8B92B270BCD5
:10B570001A83704700220368164615461146002CB0
:10B58000D7D0042C21D0082C38D0198C21F480512C
:10B590000904090C19849C8B1D8C45F6FF7040F63C
:10B5A000FF4128402140024342F4805241F480711F
:10B5B00099831A849A8B22F440621204120C9A83A3
:10B5C0009A8B92B270BC9A8370471A8C22F0100248
:10B5D0001204120C1A84188B198C89B240F6FF429F
:10B5E00021F0A00102400D4342F4807245F01005A5
:10B5F0001A831D841A8B22F44062B3E71A8C22F45A
:10B6000080721204120C1A84998B1A8C21F0F301A7
:10B6100092B2090422F42062090C324342F480728F
:10B6200041F0010199831A849A8B22F00C02C4E73D
:10B6300038B50E4D04460068FDF7C6FCD5F8542217
:10B64000204652084FF6FF7133F05EFE204600217F
:10B65000FFF764FF064BC5F8C03A05F52C6120469C
:10B660000022BDE8384033F06FBD00BF48290020FC
:10B6700031C101080B88F0B433BB028C4C880E89B1
:10B680008B88C98822F001021204120C0284058BF7
:10B69000028CADB225F0F30592B22B4322F00A02E0
:10B6A00043EA061322439BB242F001020383028461
:10B6B000038B23F00C031B041B0C0383038B9BB233
:10B6C0001943F0BC01837047042B048C2CD0082B49
:10B6D0004E888A880D89C98851D024F48054240466
:10B6E000240C0484838B078C2C0344EA022440F648
:10B6F000FF421A4045F6FF733B4043EA06332243BC
:10B700009BB292B243F4805382830384828B22F4EF
:10B7100040621204120C8283838B9BB243EA0123A2
:10B720009BB2F0BC8383704724F010042404240CE3
:10B730004D880F898A88C9880484068B038C12027D
:10B740009BB242EA073423F0A00340F6FF423240A6
:10B7500043EA051322439BB292B243F010030283E3
:10B760000384028B22F440621204120C0283038BC6
:10B770009BB243EA01239BB2F0BC0383704724F4DD
:10B7800080742404240C0484848B038CA4B29BB2A4
:10B7900024F0F30423F42063224343EA062342EA1D
:10B7A00005129BB243F4807392B282830384838B2D
:10B7B00023F00C031B041B0C8383838B9BB2194364
:10B7C000F0BC8183704700BFF0B5C84BC84EC94D6F
:10B7D000C94C0822C3F88820336B83B043F00103BF
:10B7E000336307464FF4C052284640F2023369469D
:10B7F000CDE90023FCF704FC6B6AC048C049C14A8C
:10B80000DFF844E323F470436B626B6A43F4204334
:10B810006B626B6A23F470236B626B6A43F42023C0
:10B820006B62736CC4F83C0A43F480437364736BBB
:10B83000B548C4F8400A04F5815041F2240543F0AC
:10B84000800341F2280C0760736301F11C0361510E
:10B8500044F80C30AD4EAE4BAE49C4F84C6A0227EA
:10B8600084F8447A4FF0A045AB4FC4F8485AC4F866
:10B87000543AC4F8901A05F5326506F5A07603F53A
:10B880001073A1F5D071C4F8587AC4F8945AC4F86A
:10B890005C6AC4F8983AC4F8601A012307F5107777
:10B8A000A5F5E465A6F5A066A1F58C61C4F89C7ABF
:10B8B000C4F8505AC4F8086B84F8473A05F5A075E7
:10B8C000536106F5B076C4F8CC1A84F84E3B19469D
:10B8D000924B934AC4F8D45AA7F5BC67A035C4F874
:10B8E000E06A904EC4F8DC7AC4F8E43A07F5D4571D
:10B8F00003F56953C4F8E85A4FF050250020DFF8EB
:10B900004CC2C4F80C2BC4F8107B02F5A04207F51A
:10B91000A047C4F8146BC4F8183B06F5A046A3F57D
:10B920004853C4F81C5B04F63C25C4F8202BC4F82B
:10B93000286BC4F8483BC4F8D0EAC4F8D8CA024619
:10B94000C4F8247B2B4684F8500B402683F81C2136
:10B95000A3F822210132042AC3E9496083F81D11AA
:10B9600083F81F01C3F8300103F12803EED1002250
:10B9700011462B46402083F87423A3F87A23013222
:10B98000042AC3E9DF0183F8751383F87713C3F83A
:10B99000881303F12803EED14FF0A04362489A6860
:10B9A00022F001029A60DA6842F04002DA60FCF7A5
:10B9B00067FD94F8453A0022212161F317420BB14B
