:020000040800F2
:10000000F0FF0010CD950508FDCD000851730408E0
:100010006D9605086D9605086D96050800000000B0
:10002000000000000000000000000000F9CD000802
:10003000F5CD000800000000F1CD0008558104084E
:100040006D9605086D9605086D9605086D96050870
:100050006D9605086D960508BD930408E99404089B
:10006000AD9404087194040835940408017A0508D5
:10007000F1790508E1790508D1790508BD79050808
:10008000A9790508957905086D9605086D96050806
:100090006D9605086D9605086D960508F993040898
:1000A000E114040869150408D11404089115040822
:1000B0005915040849150408391504086985050807
:1000C000718505085D850508658505086D96050837
:1000D0006D960508E18304086D96050829830408D8
:1000E000819304086D960508F9080108C1140408F5
:1000F000F1140408B11404081915040881790508DD
:100100006D9605086D960508291504086D96050875
:10011000718204086D96050839AB030825AB030806
:100120006D7905085979050845790508317905087B
:100130001D7905086D9605086D9605086D960508EC
:100140006D9605086D9605086D96050869F5000819
:1001500009790508F5780508E1780508B9810408EA
:1001600051850508598505086D9605086D960508A1
:100170006D9605086D9605086D9605086D9605083F
:080180006D9605086D96050857
:080188007C910500010000005C
:100190000502010004000000EC5900206C5A002008
:1001A00000000000F8080008030101000A00000038
:1001B000C4320020705A002000000000ED8C0008BE
:1001C0001302010004000000442200207C5A002099
:1001D00000000000FC0800081220010011000000CF
:1001E000585A0020805A0020000000000009000832
:1001F0000D100100580000003C480020945A0020D7
:1002000000000000D5EC0308040008008000000096
:100210007C470020EC5A0020000000000000000095
:100220000902010001000000105900206C5B002051
:100230000000000012090008FD0101002400000078
:1002400034470020705B0020000000008F78040815
:10025000FB01010001000000F0460020945B00203B
:1002600000000000D5190508FC010100090000008C
:10027000BC450020985B002000000000E51905083F
:10028000F701010006000000B0450020A45B00203B
:100290000000000014090008F9010100040000003A
:1002A000AC450020AC5B0020000000003979040858
:1002B0000A8001002800000084450020B05B002077
:1002C00000000000E1140208160215003F000000C3
:1002D00090300020D85B0020000000001D190508A8
:1002E0003400010010000000B0440020185C002021
:1002F000000000009D4602081102010008000000F5
:1003000088440020285C0020000000001A09000832
:10031000121201000400000080440020305C002024
:10032000000000002209000818200100320000002F
:100330004C440020345C002000000000691A0508CD
:10034000061001001C0000004C280020685C002002
:1003500000000000011A0508000201000B00000067
:10036000D0400020845C0020000000004D050508FE
:10037000FA0101000300000028400020905C0020EA
:100380000000000041050508110001000C000000FC
:100390005A340020945C0020000000002D1A04084C
:1003A000FE010100140000007C500020A05C002031
:1003B00000000000190505081B02010010000000E4
:1003C0003C780020B8890020000000009105050855
:1003D0001B1001000C000000EC710020C8890020F7
:1003E000000000006D47010821020100F00000003C
:1003F00054700020D489002000000000292A010840
:10040000231201001000000064750020C48A00203F
:100410000000000028090008371001002E0000002D
:10042000AC770020D48A00200000000038090008C2
:100430000E0201000200000060750020048B002005
:100440000000000066090008161001000600000008
:1004500058750020088B0020000000006809000883
:100460002F1001002200000094890020108B002032
:10047000000000006E0900081E00010009000000D5
:1004800094740020348B00200000000090090008C4
:10049000051001000600000048750020408B002078
:1004A000000000009A090008F581010068000000C2
:1004B000E46F0020488B0020000000001D3D010873
:1004C0002320010010000000D4740020B08B002015
:1004D0000000000031150208FD0701007600000051
:1004E000226F0020C08B002000000000D110010806
:1004F000261001000E000000488C0020388C0020DF
:1005000000000000350F01080B3001001A00000048
:10051000086F0020888C002000000000A00900085F
:100520001F3001002400000000740020A48C002073
:1005300000000000BC0900081C0202001C000000B2
:10054000949700209C9800200000000041170508A7
:100550002820010018000000B0970020B898002063
:1005600000000000913502081400010004000000A2
:100570008C970020D098002000000000E0090008BF
:10058000012001000C000000F0900020D498002011
:1005900000000000E40900080EF003009E010000C6
:1005A000088E0020E09800200000000011290208B9
:1005B0001300010004000000B0940020809A002085
:1005C00000000000F0090008010101000400000023
:1005D000588D0020849A00200000000000000000D8
:1005E0000001010004000000508D0020889A0020C6
:1005F00000000000F40900080201010003000000EF
:100600004C8D00208C9A0020000000006D720308C1
:10061000220201001C01000098920020909A002004
:10062000000000008D1905080C200600CC00000019
:10063000CC8F0020AC9B002000000000317203082A
:100640001A0001000E0000000CA9002054AA00208E
:1006500000000000F8090008203201000A00000034
:1006600000A9002064AA002000000000ED28020874
:1006700015001000700000000CA7002070AA0020D8
:1006800000000000000000002A00080060000000D8
:100690001CA60020E0AA002000000000C5280208D7
:1006A0002C0004001000000050AB002040AB0020E4
:1006B000000000009D2602082B001200240000000C
:1006C00084AB002060AB002000000000712602080F
:1006D0002920140078000000FCA30020A8AB002013
:1006E0000000000000000000F62101000C000000E6
:1006F000B4A2002020AC002000000000080A00087E
:10070000030001000100000070AD0020DCB00020FB
:100710000000000000000000031201003D00000086
:1007200098B00020E0B0002000000000140A00088B
:1007300025201E002C01000000AE002020B100206A
:100740000000000000000000101001000200000086
:100750009CAD00204CB2002000000000520A0008AE
:10076000F82101000600000058AD002050B2002022
:1007700000000000540A00081900010005000000F4
:1007800014AD002058B20020000000005A0A0008F2
:10079000020001000C000000B0BA0020C0BA002026
:1007A00000000000000000002902010040000000DD
:1007B00010B50020CCBA002000000000600A00083C
:1007C0000A0201001400000040BA00202CBB0020E7
:1007D00000000000C17903081A0201003C0000007B
:1007E000FCBC0020BCC1002000000000D91A050894
:1007F000381001000100000074BB0020F8C1002087
:1008000000000000A00A0008280204000400000004
:1008100090C2002098C20020000000008D0505084D
:1008200027020400040000008CC200209CC20020AB
:1008300000000000810505081F02080010000000EC
:100840007CC20020A0C2002000000000F1040508C6
:100850001002010001000000F0DC0020ECDC0020B0
:1008600000000000A20A00080702010002000000C8
:10087000D4DC0020F4DC002000000000A40A000802
:100880000202010003000000C4DC0020F8DC0020AC
:1008900000000000000000001D0202000600000031
:1008A000A0DC0020FCDC00200000000000000000B4
:1008B000060203000C000000B8DC002004E3002066
:1008C0000000000001180508081203000F000000D6
:1008D000A8DC002010E300200000000055050508FA
:1008E0002700010004000000C8C4002020E300200D
:0808F00000000000A60A000848
:1008F8000000000000000135000000010000055361
:100908004F554C000008000200002E002601000090
:1009180000003800000001010101FFFFFFFF000097
:1009280000000000000000000000000000000000BF
:1009380020003200C800D0079600140032002800BA
:100948004C0440060005500014000F000800640025
:100958000100010005000A000000F40196000000F3
:10096800C409000019000000000000000000000099
:10097800000000000000000000000000000000006F
:100988000000000000000000000501000000000059
:100998000000200003010000AE014A015E012C01A5
:1009A80064000200000001000A019A01001E0A000A
:1009B8000002000000000000000100000005000027
:1009C8000102030000000000000000000000000019
:1009D800000000000080070003000023E803640013
:1009E800040A000114001E000800403090010000B5
:1009F8007E05EA05B4053200E803D00700000000D0
:100A080000000000010000000202000000000000D9
:100A180000000000000000000000000000000000CE
:100A280000000000000000000000000000000000BE
:100A380000000000000000000000000000000000AE
:100A48000000000000000000010000050101F401A1
:100A58001400000028010000000000000000000051
:100A6800000000000000000000000000000000007E
:100A7800000000000000000000000000000000006E
:100A8800000000000000000000000000000000005E
:100A9800000000000000000000000000013C2003EE
:020AA80000004C
:100AAA000403090412010002EF02014083045632D2
:100ABA0000020102030100001201000202020040CA
:100ACA0083044057000201020301000009022000CA
:100ADA00010104C032090400000208065005070596
:100AEA00810240000007050102400000090264007B
:100AFA00030100C0320904000001030000000921BB
:100B0A00110100012236000705830309000A080BB8
:100B1A0001020202010009040100010202010005AA
:100B2A0024001001052401000204240202052406FF
:100B3A000102070582030800FF09040200020A00F5
:100B4A00000007050102400000070581024000007D
:100B5A0009024300020100C0320904000001020236
:100B6A0001000524001001052401000104240202E9
:100B7A000524060001070582030800FF0904010095
:100B8A00020A000000070501024000000705810271
:100B9A0040000000FF00000000FF0000000000000D
:100BAA000000AA550701000001AA55050100000826
:100BBA0010D50508FF1FFF1F7D000000010000007F
:100BCA000000803F05010905A101A10005010930C6
:100BDA0009310932093309350934093609371581CA
:100BEA00257F75089508810205091901290815004C
:100BFA002501950875018102C0C000000902220082
:100C0A00010100E032090400000103010200092188
:100C1A00110100012236000705830309000A0000BA
:100C2A005D8200085982000855820008498200083E
:100C3A0045820008518200084D8200080000040124
:100C4A000000000000000002100000000700000081
:100C5A000000000001020304010203040607080958
:100C6A0011D80008E9DF000861DB00085983000891
:100C7A00A585000869830008858300083183000878
:100C8A002183000800000000000000002D202D2D07
:100C9A00202D2D2D2D202D2D2D2D000000000000A2
:100CAA000000000000000000000000AA550B01002F
:100CBA0000AA5505010000AA550902000000AA551C
:100CCA0003009F0001000000C012000001000000A4
:100CDA00000001007EFF0000FFFFFFFFFF00000091
:100CEA00FFFFFFFF808C002000000000588C0020CE
:100CFA00000000008460060800600608000000008A
:100D0A00F5720308A086010004000000000000003C
:100D1A0000000000000000000000000000000000C9
:100D2A0000000000000000000000000000000000B9
:100D3A0000000000846006088C60060800000000BD
:100D4A00E1EA0308E80300000400000000000000D4
:100D5A000000000000000000000000000000000089
:100D6A000000000000000000000000000000000079
:100D7A000000000094600608000000000000000067
:100D8A00F17303087D000000FF000000000000006E
:100D9A000000000000000000000000000000000049
:100DAA000000000000000000000000000000000039
:100DBA000000000014DC060800000000000000002B
:100DCA00297F03087D000000FF00000000000000EA
:100DDA000000000000000000000000000000000009
:100DEA0000000000000000000000000000000000F9
:100DFA000000000004710608000000000000000066
:100E0A0071F302087D000000FF00000000000000EE
:100E1A0000000000000000000000000000000000C8
:100E2A0000000000000000000000000000000000B8
:100E3A00000000009C60060800000000000000009E
:100E4A009D2A0408E80300000300000000000000D7
:100E5A000000000000000000000000000000000088
:100E6A000000000000000000000000000000000078
:100E7A0000000000A060060800000000000000005A
:100E8A0031D602081027000003000000000000000D
:100E9A000000000000000000000000000000000048
:100EAA000000000000000000000000000000000038
:100EBA000000000028D80608000000008522020869
:100ECA006D6204085F760000050000000000000063
:100EDA000000000000000000000000000000000008
:100EEA0000000000000000000000000000000000F8
:100EFA0000000000B8DB0608000000000000000047
:100F0A00F973040810270000010000000000000027
:100F1A0000000000000000000000000000000000C7
:100F2A0000000000000000000000000000000000B7
:100F3A0000000000AC60060800000000000000008D
:100F4A00E5EA0308E80300000500000000000000CD
:100F5A000000000000000000000000000000000087
:100F6A000000000000000000000000000000000077
:100F7A0000000000B8600608000000000000000041
:100F8A00157C0308204E000003000000000000004A
:100F9A000000000000000000000000000000000047
:100FAA000000000000000000000000000000000037
:100FBA0000000000C86006080000000000000000F1
:100FCA00FD790308204E0000030000000000000025
:100FDA000000000000000000000000000000000007
:100FEA0000000000000000000000000000000000F7
:100FFA0000000000D86006080000000000000000A1
:10100A0019270408400D0300030000000000000037
:10101A0000000000000000000000000000000000C6
:10102A0000000000000000000000000000000000B6
:10103A0000000000E8600608000000000000000050
:10104A00A53004081027000001000000000000007D
:10105A000000000000000000000000000000000086
:10106A000000000000000000000000000000000076
:10107A00000000002C6006080000000000000000CC
:10108A00455301081027000003000000000000007B
:10109A000000000000000000000000000000000046
:1010AA000000000000000000000000000000000036
:1010BA0000000000F06006080000000000000000C8
:1010CA008D4D0208A086010001000000000000000A
:1010DA000000000000000000000000000000000006
:1010EA0000000000000000000000000000000000F6
:1010FA0000000000F8600608000000000000000080
:10110A0071F1030850C30000010000000000000054
:10111A0000000000000000000000000000000000C5
:10112A0000000000000000000000000000000000B5
:10113A000000000000610608000000000000000036
:10114A0059ED0308A861000001000000000000003A
:10115A000000000000000000000000000000000085
:10116A000000000000000000000000000000000075
:10117A00000000000C6106080000000000000000EA
:10118A00ADE10108A0860100010000000000000096
:10119A000000000000000000000000000000000045
:1011AA000000000000000000000000000000000035
:1011BA00000000001861060800000000000000009E
:1011CA0085320408A00F00000100000000000000A2
:1011DA000000000000000000000000000000000005
:1011EA0000000000000000000000000000000000F5
:1011FA000000000024610608000000000000000052
:10120A00DD8C01081027000001000000000000002A
:10121A0000000000000000000000000000000000C4
:10122A0000000000000000000000000000000000B4
:10123A000000000030610608000000000000000005
:10124A00F5E90308A00F00000100000000000000FB
:10125A000000000000000000000000000000000084
:10126A000000000000000000000000000000000074
:10127A00000000003C6106080000000000000000B9
:10128A001D8401081A41000001000000000000004E
:10129A000000000000000000000000000000000044
:1012AA000000000000000000000000000000000034
:1012BA000000000040610608000000000000000075
:1012CA00258D000810270000010000000000000022
:1012DA000000000000000000000000000000000004
:1012EA0000000000000000000000000000000000F4
:1012FA000000000014600608000000000000000062
:10130A0019EB010850C300000100000000000000B2
:10131A0000000000000000000000000000000000C3
:10132A0000000000000000000000000000000000B3
:10133A00000000004C6106080000000000000000E8
:10134A008D970008400D0300000000000000000017
:10135A000000000000000000000000000000000083
:10136A000000000000000000000000000000000073
:10137A0000000000546106080000000000000000A0
:10138A009DEA0308400D0300000000000000000071
:10139A000000000000000000000000000000000043
:1013AA000000000000000000000000000000000033
:1013BA00000000005C610608000000000000000058
:1013CA007D98010850C300000300000000000000DF
:1013DA000000000000000000000000000000000003
:1013EA0000000000000000000000000000000000F3
:1013FA00000000006861060800000000000000000C
:10140A006DAF030840420F0000000000000000001A
:10141A0000000000000000000000000000000000C2
:10142A0000000000000000000000000000000000B2
:10143A0000000000746106080000000000000000BF
:10144A0031ED030850C30000000000000000000056
:10145A000000000000000000000000000000000082
:10146A000000000000000000000000000000000072
:10147A000000000001007F00FF01000001000000E1
:10148A0091A401080000000000000000BCE105086A
:10149A00000000000000000001B9010800920020CD
:1014AA000000000000000000000000001CFA05080F
:1014BA00000000000000000000000000D4FA050847
:1014CA0000000000000000000000000080FA05088B
:1014DA0001010000C5D4010800000000000000005E
:1014EA00A8FB0508EDD70108000000000000000075
:1014FA0060FB05082D202D2D202D2D2D2D202D2D85
:10150A002D000000000000000000000000000000A4
:10151A0000000000FFFFFFFF3DC8010800000000B7
:10152A0000000000ACF9050801000000FA00000004
:10153A00010000000100000000010101000000009C
:10154A00E89000200000F40101000000E69000206D
:10155A000000F40101000000E49000200000F40102
:10156A0001000000E29000200000F40101000000E8
:10157A00E09000200000F40101000000DE9000204D
:10158A000000F40101000000DC9000200000F401DA
:10159A000100000065AC010829AC01080000000048
:1015AA0054E60508CC90002005320100DA900020AC
:1015BA006400F40101000000D89000206400C4090E
:1015CA0001000000CA900020E803D00701000000D3
:1015DA00C8900020E803D00701000000C690002050
:1015EA00E803D00701000000C49000201E00B80BD9
:1015FA0001000000D290002005000F000100000049
:10160A00D490002003000A0001000000C2900020CC
:10161A001E00F40101000000D69000200200000024
:10162A00E0E60508C09000201400640001000000F4
:10163A00CE9000203200E80301000000BE90002096
:10164A000000C80001000000C98F002000C8010086
:10165A00C88F002000500100C78F0020005A0100E7
:10166A00C58F002002000000ECE605083068060875
:10167A0038680608BA4800200100C40900000000C2
:10168A00B84800200100C40900000000B648002044
:10169A000100C40900000000B44800200100C40988
:1016AA0000000000B04800200100C409000000004A
:1016BA00B24800200100C40900000000AE48002022
:1016CA000100C40900000000AC4800200100C40960
:1016DA0000000000738D002000C80100728D0020F8
:1016EA0000C80100708D00200000FFFF0A00000002
:1016FA006E8D00200100C800010000006C8D0020E2
:10170A0032003075320000006A8D00200582050023
:10171A00688D002005002C0105000000678D00205F
:10172A00055A0500648D002000FF0100668D002027
:10173A0002000000540D0020628D0020030000000A
:10174A00ECDB0508638D002000FF0100658D002099
:10175A0002000000540D0020618D002003000000EB
:10176A00ECDB0508B9AB010849AB01080000000031
:10177A00F8E6050800910020EE02CA080100000000
:10178A00FE90002000C8010064000000FD900020C7
:10179A0000C8010064000000FC9000200200000064
:1017AA0004E805085E8D00200000803E0500000068
:1017BA005C8D002080C1803E05000000568D00200F
:1017CA000083007D05000000548D002080C1803E0A
:1017DA00050000004F8D002000FF0100488D002009
:1017EA006400F40101000000468D0020040000009E
:1017FA0010E80508458D00200200000024E80508CD
:10180A00F98D00200D00000030E80508F68D002053
:10181A0000640100F48D0020320010270A00000045
:10182A00F28D00200D00000030E80508F18D00203F
:10183A000D00000030E80508F08D002002000000CD
:10184A0068E8050800000000000000000000000031
:10185A0074E80508069100203E000000ACE805087F
:10186A00049100200100FF7F010000000391002085
:10187A0002000000A8E90508FB8D00200300000013
:10188A00B8E90508FA8D002003000000B8E9050848
:10189A00B68F0020000A0100B48F00200000E80380
:1018AA0001000000B28F00200000E80301000000E0
:1018BA00B08F00200000E80301000000AE8F002076
:1018CA000000E80301000000A68F00200000E803E2
:1018DA0001000000AC8F00200000E80301000000B6
:1018EA00AA8F00200000E80301000000A88F002052
:1018FA0000140100C48F002002000000C8E9050896
:10190A00C28F00200000F40101000000C08F0020F7
:10191A000000F40101000000BE8F00200000F40165
:10192A0001000000BC8F00200000F401010000004B
:10193A00BA8F00200000A00F01000000B88F00201D
:10194A000000A00F01000000AB9000201964010004
:10195A00AA90002002000000D4E90508A8900020FF
:10196A00E803D0070A000000A690002000640100E6
:10197A000A0000009B900020006401009A90002059
:10198A0000640100A2900020006401000A00000027
:10199A00A1900020006401000A000000A09000202D
:1019AA00006401000A000000A590002000FF010069
:1019BA000A000000A490002000FF01000A000000B5
:1019CA00A390002000FF01000A0000009F90002061
:1019DA0001FF01000A0000009E90002001FF0100A3
:1019EA000A0000009D90002001FF01000A0000008B
:1019FA00048E00200000F40101000000028E002085
:101A0A000000A00F01000000008E00200000A00FBF
:101A1A0001000000FE8D00200000A00F0100000060
:101A2A00FC8D00200000A00F010000007F91002023
:101A3A0000C801007E910020006401007D91002011
:101A4A00006401007C910020006401007B91002069
:101A5A00006401007A910020FF08010079910020BA
:101A6A0001640100B1AA010875AA0108000000007A
:101A7A00E0E90508829100200132010081910020ED
:101A8A000100000050EA05088091002004000000CF
:101A9A0058EA050878910020006401007691002038
:101AAA001400E8030100000074910020E803307577
:101ABA000A0000007391002000C801007291002002
:101ACA0000C801007191002000C801007091002037
:101ADA000032010084910020004B01008391002014
:101AEA00040000006CEA05086F9100200064010000
:101AFA000A000000929100200000D00701000000B7
:101B0A008D91002000C801008C91002000C80100BE
:101B1A008B91002000C80100909100200000D0079E
:101B2A00010000008A91002000C80100899100206C
:101B3A0000C801008891002000C801008E91002091
:101B4A000000D007010000008791002000C80100B2
:101B5A008691002000C801008591002000C801007C
:101B6A0069A8010851A801080000000080EA0508D8
:101B7A00ED8D0020005A0100EC8D002000C8010004
:101B8A00EA8D0020E803D0070100000000000000F1
:101B9A000000000041B901081CEB0508534F554CE1
:101BAA00463400008DA7010841A701080000000083
:101BBA0070EB050801A70108B9A60108000000009A
:101BCA000CEC0508D9A7010885C40108000000002B
:101BDA008CEC0508608D00200103010041AD01086D
:101BEA0015AD010800000000E4EF050855A601083C
:101BFA0009A601080000000054F0050879A80108A8
:101C0A00DDE0010800000000F0F0050861CA0108E3
:101C1A006DAD01080000000098F10508C9A8010887
:101C2A00000000000000000024F20508A5A9010830
:101C3A004DA901080000000088F2050839AA010828
:101C4A00FDA901080000000030F30508411302084D
:101C5A00EDAA010800000000BCF30508BD900020B1
:101C6A000106010011A90108DDA801080000000011
:101C7A00B8F4050875120208E9C40108000000005A
:101C8A0028F5050889130208B1C5010800000000FB
:101C9A0078F60508BC9000200103010021A801087C
:101CAA00F1A70108000000004CF70508E11302083B
:101CBA000000000000000000B0F70508A1A6010816
:101CCA006DC401080000000030F80508000000009B
:101CDA00000000000000000094F8050821AB01088C
:101CEA0029C601080000000004F9050800000000E8
:101CFA0000000000000000001CFB050898590020A5
:101D0A009CFF2C010000000048940020E0150C17ED
:101D1A00000000006D9100200200000054FB05083D
:101D2A00408D002088136F1701000000428D0020AB
:101D3A0088136F1700000000B63200200000000070
:101D4A0000000000B4320020000000000000000083
:101D5A00B23200200000000000000000B032002073
:101D6A000000000000000000AE3200200000000069
:101D7A0000000000AC32002000000000000000005B
:101D8A00B00300200000000000000000C88C002002
:101D9A000300000044FC0508388D002088136F17E3
:101DAA0001000000E259002088136F1700000000AC
:101DBA0049A50108000000000000000054FC0508C5
:101DCA006E91002001000000A8FC0508E4590020DB
:101DDA0001000000B4FC0508DA59002002000000E6
:101DEA00BCFC050800000000000000000000000024
:101DFA00C8FC050831A50108000000000000000029
:101E0A0064FD05080000000000000000000000005A
:101E1A00B8FD0508000000000000000000000000F6
:101E2A0028FE0508448D00200200000060FE050817
:101E3A00DE590020E0150C1700000000009E00206B
:101E4A00549E002001D601FF010000000000803FDF
:101E5A000000000000000000000000000000000078
:101E6A000000000000000000000000000000000068
:101E7A00000000000000803F000000000000000099
:101E8A00000000000000FA430000FA430000803F0F
:101E9A000000803F00000000000000000000000079
:101EAA000000803F00000000000000000000000069
:101EBA0001000000FFFFFFFFFFFFFFFFFF00000020
:101ECA007D26040800000000000000000000000059
:101EDA00000000001CBB00200800000000000000F9
:101EEA000CBB002008000000685E0C000200000025
:101EFA00C5890008B584000841DB0008000000001D
:101F0A001D830008DDD700087989000851D7000829
:101F1A000000000000000000D98200086D8200085D
:101F2A0061820008A1CE0008BDCE000885CE000857
:101F3A0069CE00084DCE00087D890008918400080A
:101F4A008DDA000800000000F182000855D7000869
:101F5A004D890008ADD6000800000000000000000E
:101F6A00E582000801000000A00F0000B80B000085
:101F7A000102FFFF01000000FFFF000000600240B5
:101F8A00106002400000000000000000000B00008A
:101F9A000000000000000000000000000060024095
:101FAA00286002400100000000000000060C00004A
:101FBA000000000000000000000000000060024075
:101FCA00406002400200000000000000100D000006
:101FDA000000000000000000000000000060024055
:101FEA00586002400300000000000000160E0000C6
:101FFA000000000000000000000000000060024035
:10200A00706002400400000000000000200F000081
:10201A000000000000000000000000000060024014
:10202A008860024005000000000000002610000041
:10203A0000000000000000000000000000600240F4
:10204A00A0600240060000000000000030110000FD
:10205A0000000000000000000000000000600240D4
:10206A00B86002400700000000000000362F0000A0
:10207A0000000000000000000000000000640240B0
:10208A001064024000000000000000000038000058
:10209A000000000000000000000000000064024090
:1020AA002864024001000000000000000639000018
:1020BA000000000000000000000000000064024070
:1020CA00406402400200000000000000103A0000D4
:1020DA000000000000000000000000000064024050
:1020EA00586402400300000000000000163B000094
:1020FA000000000000000000000000000064024030
:10210A00706402400400000000000000203C00004F
:10211A00000000000000000000000000006402400F
:10212A008864024005000000000000002644000008
:10213A0000000000000000000000000000640240EF
:10214A00A0640240060000000000000030450000C4
:10215A0000000000000000000000000000640240CF
:10216A00B864024007000000000000003646000084
:10217A000000000000000000000000001CD8060853
:10218A0000000802050303000000000024D8060826
:10219A00010008020504030000000000C4850608C7
:1021AA000200FE010110030000000000B46B0608E3
:1021BA000300140200030000000000002CD80608E7
:1021CA0004001F02020008000000000034D80608BC
:1021DA0005001F020201080000000000FFFFFFFFC8
:1021EA001A030000000000000000000000000000C8
:1021FA0000000000000000000000000004030904C1
:10220A00120100020000004083042057000201026C
:10221A0003010000651B0508D9050508D505050851
:10222A00D1050508BD220508CD050508C90505081B
:10223A00BC510608518A000871840008A9D8000810
:10224A000000000000000000A1D50008C9D5000860
:10225A00000000000000000000000000CD8200081D
:10226A007106050865060508DD270508F92705082A
:10227A001D060508C1270508A52705081F00000037
:10228A001C0000001F0000001E0000001F000000CC
:10229A001E0000001F0000001F0000001E000000BA
:1022AA001F0000001E0000001F0000000068214CF3
:1022BA005C5B060800000000000000000102030445
:1022CA000607080901000000B419002000000000F8
:1022DA0000000000000000000000000000000000F4
:1022EA0000000000000000000000000000000000E4
:1022FA0000000000000000000000000000000000D4
:10230A0000000000000000000000000000000000C3
:10231A0000000000000000000000000000000000B3
:0C232A00000000000000000000000000A7
:082800000000000000000000D0
:108000002DE9F04700230F6801264FF0030C02E032
:108010000133102B41D006FA03F232EA0704F7D1FC
:10802000D0F800E05C000CFA04F52EEA050EC0F86A
:1080300000E091F80490D0F800A009FA04FE09F1DC
:10804000FF394EEA0A0EB9F1010FA846C0F800E068
:108050006FEA050515D8D0F808E005EA0E05856039
:108060004D79D0F808E0A54045EA0E0585604568E1
:1080700025EA020242608A7945689A4092B22A4310
:108080004260C26822EA0802C260CA79C568A2409A
:1080900001332A43102BC260BDD1BDE8F08700BF79
:1080A000074AD2E9003199421FBFD1180133097A3A
:1080B00001701DBFC3F30A03012013600020704745
:1080C000181A0020064AD2F80838D2F80C28934231
:1080D00094BF4FF400600020013B9B1A1844704786
:1080E000181A0020012380F85130704707B501A805
:1080F000FFF7D6FF0028FAD09DF8040003B05DF822
:1081000004FB044BD3E90003984288BF03F50063E6
:10811000181A7047181A002001207047024BC3F844
:108120001028C3F814187047181A0020024BC3F81F
:108130001828C3F81C187047181A00207047704799
:1081400030B4124DD5E900239A4286BF03F500648E
:10815000A21A9A1A0A44B2F5006F11D899B10144D3
:108160004A1E013810F8014FE918824203F1010359
:108170000C72C3F30A03F5D16B60002030BC70476A
:10818000022030BC70470846F8E700BF181A0020EC
:10819000212838B50C4605D022282ED0202813D00F
:1081A000002038BD0029FBD0072AF9D11A4BD3F89B
:1081B000200893F8241893F8252893F8263820608F
:1081C00021716271A371EBE70029E9D0072AE7D199
:1081D000114DD5F814381BB10968D5F81008984727
:1081E000206821796279A379C5F8200885F82418D8
:1081F00085F8252885F82638D2E70029D0D0022A2C
:10820000CED1054AD2F81C38002BC9D00988D2F843
:1082100018089847C4E700BF181A0020024B002036
:10822000C3F82808704700BF181A0020044B00202C
:108230000522C3F82828C3F81C08C3F8140870479F
:10824000181A0020704700BF704700BF704700BF7A
:10825000704700BF704700BF704700BF704700BF46
:10826000042301480B8070478801002010B4074A9E
:10827000074B92F82C08122403F114020C800128F9
:108280000CBF184610465DF8044B7047181A0020C2
:108290008C01002010B40C4A92F8303802EBC30174
:1082A0000133DBB2042B4FF0050408BF00234FF469
:1082B000045081F8344882F83038C1F838085DF845
:1082C000044B4FF0FF307047181A0020202301485C
:1082D0000B807047B4010020642301480B80704775
:1082E000D4010020432301480B807047380200204E
:1082F00010B5084CD4F8F400FF2809D00649D1F88D
:10830000542801F65801FFF743FFFF23C4F8F43067
:10831000002010BD88010020181A0020E8E700BFE7
:1083200008B5D0F8E4355B6A9847002008BD00BF67
:1083300008B5D0F8E4351B6A9847002008BD00BF97
:10834000D0F8E43510B504461B689847D4F8E835F2
:108350009B689847002010BD08B5D0F8E435DB696C
:1083600003B19847002008BD08B5042290F8121107
:10837000D0F8E83580F8131180F81221DB689847AF
:10838000002008BD10B5D0F8E83504461B699847B1
:10839000032384F81231002010BD00BF0B0617D450
:1083A00001EB810300EBC30310B400EB8100012457
:1083B000002283F8764383F8741383F87523426DA3
:1083C0005DF8044B136843F40013002013607047FA
:1083D00001F07F0101EB810300EBC303012200EBFD
:1083E000810083F81C1183F81E2183F81D21826906
:1083F0001368002B01DA43F0804343F40013136049
:10840000002070470B0630B41CD401EB810200EB56
:10841000C202002300EB810582F8741382F87533E1
:1084200001241A4604FA01F16D6D61F31F420169DE
:108430006FF3CF332B60CB6923EA0203002030BCFB
:10844000CB61704701F07F0101EB810400EBC404B4
:10845000012200EB8105002384F81C1184F81D2102
:1084600002FA01F11A46AD6961F30F02DFE700BFBE
:1084700010B581210446FFF7C5FF20460121FFF713
:10848000C1FF024B002083F8600810BD181A0020BD
:1084900010B581210446FFF7B5FF20460121FFF703
:1084A000B1FF82212046FFF7ADFFFFF7B7FE0020A6
:1084B00010BD00BF38B50D4604468321FFF7A2FF6B
:1084C00029462046FFF7E4FF002038BDF0B41646E9
:1084D0000A063AD401EB810500EBC50528240022E9
:1084E00004FB0104022B85F87413C5F87C6385F83E
:1084F000773385F8752304F55D7448D0154600EB95
:108500008107012202FA01F17F6D61F31F45D7F85F
:1085100000C01CF4004F11D1E488204946F080527D
:1085200042F4004242EA834204F00F041C4B42EA48
:10853000845211400CEA0303194339600269D3697C
:108540002B430020F0BCD361704701F07F0101EBA9
:10855000810500EBC5052824012204FB0104022B40
:1085600085F81C11C5F8246185F81F31A5F8221182
:1085700085F81D2104F58E740CD0002500EB8107D1
:10858000012202FA01F1BF6961F30F05BFE7227111
:108590001546B4E700252571F0E700BFFF87CC132F
:1085A000007833EC002310B5194604464022FFF74B
:1085B0008DFF8021204600234022FFF787FFD4F85B
:1085C000E835A078012284F812215B6898470020E2
:1085D00010BD00BF82B00023016801930B690193B5
:1085E0000E4B03E00A690192013B13D0019A002A65
:1085F000F8DA019A094B42F001020192019A0A61EC
:108600000A69019203E00A690192013B02D0019AD2
:10861000D207F8D4002002B0704700BF400D03001D
:10862000436D064A1A61C278012A06D100F2CC5085
:1086300058614FF0802219681A607047180008606E
:1086400010B580210446FFF7A9FE20460021FFF760
:10865000A5FE2046BDE81040E2E700BF70B44B78AD
:10866000012B26D00B784A6900EB83035C6D2568EB
:108670002369D2B18A684A6102F07F0223F40023A1
:1086800023F07F0342F4002213432361C378012BBC
:1086900004BF0B696361C5F3076363F07B0363F396
:1086A0001F652560002070BC70478A6802F07F0259
:1086B000E4E782694C691568136944B38E68B44273
:1086C0008CBF06F07F0404F07F0423F4002323F022
:1086D0007F0344F4002443EA040388BF4E6113611E
:1086E000C378012B1DD0C5F3076464F07B0464F3E9
:1086F0001F651560002BD5D14B69002BD2D00269C4
:108700000878516B012383400B435363CAE723F47A
:10871000002323F07F0343F400231361C378012B6C
:10872000E1D10B780C6900EB8300C5F30763816925
:1087300063F07B0363F31F654C610020156070BC20
:10874000704700BF2DE9F0434B78012B30D00B78F8
:108750004C6900EB83035E6D356837691CB38B6829
:108760001C44013CB4FBF3F4C4F3090203FB02F321
:10877000C3F312034B61144643EAC44363F31C077B
:108780003761C378012B04BF0B697361CB78012B70
:1087900044D0C5F3076363F07B0363F31F65356063
:1087A0000020BDE8F0838A680124C2F31203E3E7E6
:1087B00091F800804E6900EB880EDEF818C0DCF8F6
:1087C0000050DCF8107076B3D1F80890384A06EB08
:1087D0000904013CB4FBF9F402EAC444C6F31202F2
:1087E0002243CC7807F060473A43012C174649D022
:1087F000CCF81020C278012A55D00269516B03FAD7
:1088000008F30B435363C5F3076363F07B0363F320
:108810001F65CCF800500020BDE8F0834B7973B39E
:1088200045F00055B5E707F0604747F40027CC78DE
:10883000CCF81070C378012B2FD0012CE3D1026942
:108840009268D20554BF45F0005545F08055C5F3F8
:10885000076262F07B0262F31F65CCF80050002BC8
:108860009ED1B0B203308010DEF8D04098D0CA68F4
:1088700052F8041B216001339842F9D190E745F08A
:10888000805586E764F35E77CCF81070C378012BCF
:10889000D5D10A69CCF81420D1E70A69CCF81420A4
:1088A000012CB0D1CBE70B69CCF81430ABE700BF9B
:1088B0000000F81F38B501EB810400EBC4040D463D
:1088C000002184F87453C4F88C1384F87513C4F829
:1088D0008833C4F88023C3782821012B01FB0501CC
:1088E00008BFEDB201F55D7108BFC4F884231DB95E
:1088F000FFF7B4FE002038BDFFF724FF002038BD8D
:1089000070B5104BD3F86C2893F8845804461AB10C
:1089100093F870382B430DD081212046FFF73EFDA0
:10892000022D00D070BD2046074ABDE870401F23CD
:108930000121BFE70121FFF731FD20468121BDE87C
:1089400070402BE5181A00207C22002010B501EBA6
:108950008101084A00EBC1010446B1F88C131046AE
:10896000FFF7EEFB034A204640230121FFF7A2FF59
:10897000002010BDA0220020E8E700BF10B50223B0
:10898000044640228121FFF7A1FD20460223402218
:108990000121FFF79BFD8221204603230822FFF7D8
:1089A00095FD064B02229A83FFF740FC044A2046BD
:1089B00040230121FFF77EFF002010BD8801002029
:1089C000A022002038B509220D4604460323832146
:1089D000FFF77CFD29462046FFF7D0FF002038BD79
:1089E00082B000230193019A094B42F010020192D8
:1089F000C168019A0A610A69019203E00A69019259
:108A0000013B02D0019AD206F8D4002002B0704790
:108A1000400D030082B000230193019A0B4B42F0FA
:108A200020020192019A61F38A120192C168019AAF
:108A30000A610A69019203E00A690192013B02D0CE
:108A4000019A9206F8D4002002B07047400D03004E
:108A500070B50446144EFFF70BFD2046022340225A
:108A60008121FFF733FD4022012120460223FFF739
:108A70002DFDD6F8C83800251B6886F860582846B2
:108A800086F8845898472046FFF7AAFF2046012120
:108A9000FFF7C0FF204606F664021F230121FFF7FF
:108AA00009FF284670BD00BF181A00200E4BDA6877
:108AB000D20310D4DA68D1060FD4DA68D20510D404
:108AC000DA6812F0E00F0AD1DB6813F0020F14BF6E
:108AD00008200920704701207047062070470720B2
:108AE00070470220704700BF003C0240024A536AB0
:108AF00023EA0000506270470038024000207047AF
:108B0000704730B1034B93F9CC080028D4BF002044
:108B100001207047181A002008B5FFF7F2FF60B176
:108B2000064A92F8CD3892F8CE285B0003F0020393
:108B3000002A18BF43F001030B6008BD181A00207B
:108B400008B5FFF7DEFF18B1024BD3F8D0380B8021
:108B500008BD00BF181A002070B5FFF7D2FF90B112
:108B6000094AB2F8D45875B1D2F8D8680023B34294
:108B70001C4608DA02EB44040133B4F8DC48AC428A
:108B8000DBB2F4D30B7070BD181A002008B5FFF7E4
:108B9000B8FF10B100230B70137008BD042070479C
:108BA00028B1034B93F9F800003818BF0120704733
:108BB0008801002008B5FFF7F3FF50B1054B93F98A
:108BC000F820012AC3BF93F8FB30C3F340030B60C6
:108BD000002008BD8801002008B5FFF7E1FF18B1AB
:108BE000024B93F8FA300B7008BD00BF88010020DB
:108BF00070B5FFF7D5FF38B10E4C94F8FB30DB07AA
:108C000003D500230B70137070BD0B4D94F9F93030
:108C100095F8EC6893FBF6F301330B7094F9F94087
:108C200095F8EC1894FBF1F301FB13430133137037
:108C3000EAE700BF88010020181A002003207047CF
:108C400070B50B4A92F8F03806255E1CB6FBF5F4B9
:108C500005FB146492F8F158AC421FBF02EBC3034A
:108C600082F8F048C3F8F408C3F8F81870BD00BFE4
:108C7000181A0020002230B504461046914200DC4C
:108C800030BDA35C0825584010F0800F4FEA400328
:108C900018BF83F0D503013DD8B2F5D10132EDE71D
:108CA00010B5E9B10F4BD3F82409814218DCBAB1F1
:108CB000D3F8EC389A4213DC0B4C013A013903FB30
:108CC000012184F8061104F581700521FFF7D2FF18
:108CD000062184F8070104F58170BDE81040AFE774
:108CE00010BD00BF181A0020880100200023038057
:108CF00083708380C3800372704700BF074A0849AE
:108D000092F8283909780133DBB2994282F8283980
:108D100004BF002382F82839704700BF181A0020CA
:108D200014000010F8B5794CD4F82C3983B1784B85
:108D30005B6893F82E305BB1764B94F83029A3FB37
:108D40000013012A4FEA931330D0022A08D002B14F
:108D5000F8BD714B9842FBD9012384F83039F8BD36
:108D6000D4F8342964329A423ED894F8283904EB76
:108D7000031393F8B42DFF2A06D06849013201206D
:108D800083F8B42D81F80801FFF7B8FF94F8A83DE7
:108D90000122092B84F83029DAD1B4F8523E134469
:108DA0009BB2A4F8523EA4F8AE3DF8BD94F8281941
:108DB000C4F834398C2303FB014394F8A80D83F8DD
:108DC0004A29002604F63C150A220223092884F8C1
:108DD0004669C4F8385984F8472984F83039B7D13E
:108DE0000131A4F8AC1DF8BD94F8462994F8473930
:108DF0009A42ADD104F63B1004F64415002310F856
:108E0000012F082153405A0013F0800F08BF5B0068
:108E100082F0070214BFD3B2DBB20139F3D185422D
:108E2000EDD194F845299A4239D194F82869B4F8DB
:108E30003F5994F84379B4F8410994F8443994F8C7
:108E40003DC904EB06126DBA40BA43EA0723ADB23E
:108E500094F83E7982F8B41DC2F8B85D81B22F4D06
:108E600094F93C09C2F8BC1D47EA0C271BB201214A
:108E7000032EA2F8B67DA2F8C03D82F8B50D85F8A4
:108E8000081109D894F8A82D0C2A2AD00D2A03D14C
:108E900004EB4606A6F8AC0DFFF730FF5CE794F84C
:108EA000283904EB031393F8B42DFF2A06D01B498D
:108EB0000132012083F8B42D81F80801FFF71EFF6D
:108EC00094F8A83D0122092B84F830297FF440AFA3
:108ED000B4F8503E13449BB2A4F8503EA4F8B03D01
:108EE000F8BD94F84E1E0E4A03EB830303EB830395
:108EF00049089B0004EB460693FBF1F382FB031247
:108F0000DB17C3EBA203A6F8AC3DC5E7181A002097
:108F100014000010D34D62103F4B4C00880100201C
:108F2000676666660B4B93F8461993F8472991429A
:108F30000ED010B493F84629D3F83849511CD2B258
:108F4000C0B2C9B283F84619A0545DF8044B70470B
:108F5000704700BF181A0020134B10B400220F24D2
:108F600083F8561E090A83F8550E83F8571EC3F876
:108F7000582EC3F85C2EC3F8602E83F8544E03F6C7
:108F80005460012110F8014F013122440E29D2B260
:108F9000F8D183F8622E0549D3F8640E5DF8044BCE
:108FA00010223FF075BC00BF181A00206C2800206A
:108FB000054B002183F8681EC3F86C1ED3F8643E8D
:108FC00003B1C9E7704700BF181A0020F8B51A4C62
:108FD00094F8703E002BFBD159B301444E1E451E40
:108FE000D4F80C28D4F8081815F8017F531CC3F3E3
:108FF0000A038B422CBF4FF400600020C91A2244A0
:1090000001440129C4F80C3882F8747E0FD1012084
:109010003EF0EEF8D4F80838D4F80C188B4294BF20
:109020004FF4006200225B1A1344012BEFD0B542CB
:10903000D6D10020F8BD00BF181A00200A4B084600
:10904000D3F8281810B569B1D3F82838052B09D101
:10905000064C002AD4F87C3504DD1146FFF7B6FF34
:10906000D4F87C3510BD00BF181A0020102B00204A
:1090700010B590F85010002380F8503089B10C4C96
:10908000D4F828287AB1D4F82828052A0DD1094C1B
:109090003C30D4F87C35FFF799FFD4F87C350120BB
:1090A00010BD0120FCE71046FAE71846F8E700BFBC
:1090B000181A0020102B0020002280F85120D7E73A
:1090C00090F85020531C0244DBB280F8503082F8F4
:1090D0003C1090F851200AB1132B00D9C8E7704713
:1090E0002DE9F04FC84DC94C84460F4616460FCDAA
:1090F0002DED068B0FC40FCD0FC495E80700C44BB0
:109100008DB093F8363E039684E80700CDE908C792
:10911000042B00F26F81DFE813F0C0016D016801DC
:109120000500D0019FEDBB8ADFEDBB8ADFF81C9301
:10913000BA49C9F82410BA49BA4BBB4AC9F8201039
:109140000399002918BF134638EE887AF5EE006AB5
:1091500086EE87AADFF8F8B2C9F82C30B34FB44BCB
:1091600004930BF5B0680026DFEDB27A9FEDB29A5A
:1091700028EE278AF0EE679A099BB34200F02F8110
:10918000049B13F8014B0493731C0593DAB2002C73
:1091900000F09881002303E00133152B00F0928149
:1091A00003EB43015D0018F80100A042F4D15944DB
:1091B000069291F88115002900F08C81204638F044
:1091C000F1FB036807938246184638F0D7FB9AF8FC
:1091D000051038F03DFC90F800E0BEF1000F40F0C3
:1091E00071810BEB050025090321013D069A079BC0
:1091F00080F8C1258D4280F8C01504F00F0C00F2F4
:109200003881814800EB4500808D40FA0CF414F061
:10921000010400F04081012404FA0CF3013B1840E2
:10922000069250F05BF8784B844A1D44032195F870
:109230003430184402EBC0031546069A9971DA716E
:1092400055F83000704D7B6100F13F4101F57E0122
:1092500005EB91219AF8082091F8381001F01F05CC
:109260004909032904FA05F400F01081042900F0EB
:109270000881022900F000819B880A93B3FA83F3E6
:10928000C3F11F03C3F3CC0100EB810103F007031B
:109290000C6A9B000F259D4024EA05040C620C6AB1
:1092A00002FA03F323430B6202230AA90B93FEF78E
:1092B000A7FEDAF80030039A002A00F0CB80544A67
:1092C000B2F8342E00EE102AB8EEC00AFCEEC07AD6
:1092D00017EE901A5A4A934200F09180A2F58062EC
:1092E000934200F08C8002F58042934200F0878028
:1092F00002F58062934200F0828002F58062934220
:109300007DD0DBF8742750084FF6FF73B0FBF1F205
:109310001A44120CB0FBF2F20398002872D0B2FB90
:10932000F1F18BB23A4890F8360E04280BBF07EEE5
:10933000901A07EE902AF8EE677AF8EE676A05BF92
:1093400007EE102A67EEA97A66EE887AF8EE476A89
:1093500029EE677A2E49A6EEA87A91F8370E089979
:109360000091019051463846C7ED027A87ED037AA5
:1093700031F0CAF8002E78DD7B68D9F8402093429E
:1093800075D0012E71D0D9F8582093426FD0022E9B
:109390006BD0D9F87020934269D0032E65D0D9F8EC
:1093A0008820934263D0042E5FD0D9F8A020934246
:1093B0005DD0052E59D0D9F8B820934257D0062E4B
:1093C00053D0D9F8D020D31A18BF0123059E3B747F
:1093D0000122082E7A7407F118077FF4CDAE0B48EE
:1093E0000DB0BDEC068BBDE8F08F9FED168AF0EE58
:1093F000488A9BE69FED148AF0EE488A96E6DBF8F1
:10940000740781E719468DE730D105081C0000106C
:10941000181A0020ACC5A737ACC5A7362D730308B2
:10942000257904080D6E030819790408500000100E
:10943000532800206F12833A00007A44FC30002049
:1094400000040140282930386F120339140000103D
:10945000102B0020B0EE4A0A069350F0B1FFFCEE4C
:10946000C07A069B17EE901A34E70123AEE700237B
:10947000ACE7C7F814E01EE717494D6C2C434C6469
:10948000FAE615490D6B2C430C63F5E612490D6C99
:109490002C430C64F0E67C610DE7DFF858909FEDFB
:1094A0000F8A0F4B0F4AC9E90832002308930123A2
:1094B0000393F0EE488A0C4B46E6DFF838909FEDB8
:1094C0000B8AEEE70A4A084BC9F82420C9F82C3069
:1094D000002085E70B68FFDE003802406F12833AF8
:1094E000257904082D730308197904080000000089
:1094F0000571030814000010F8B50546262025F074
:109500009FFE134C0146F0B9D4F8780790F8383034
:109510001E3B012B01D93FF0EFF90E4F0026AE4262
:1095200009DBB4F89C370133A4F89C37D4F87C35B8
:10953000C4F8AC37F8BD17F8011BD4F878073FF032
:10954000DBF90136EBE7002384F8AA37EEE700BF2A
:10955000102B00208C32002038B5154C94F8F138CF
:1095600094F8F0289A421CD004EBC303114AD3F8B4
:10957000F418D3F8F8080023984213DC8B780E4ACD
:109580005B0882F8AA37C2F8B007FFF7B5FF94F876
:10959000F13806210133B3FBF1F201FB123384F8F9
:1095A000F13838BDCD5C02F8015B0133E4E700BF60
:1095B000181A00208C320020102B00202DE9F84FC3
:1095C0001B4C05461E2094F8B4A794F8B5B794F840
:1095D000B667B4F8B897B4F8BA8794F8BC7725F0B2
:1095E0002FFE30B1B8F1000F1EBFC14601264FF06B
:1095F000000A94F8BE37DA070AD494F8C3273AB9B8
:10960000012F12D0022F03D113F0020F08BF012641
:1096100085F800A085F801B0AE70A5F80490A5F813
:1096200006802F722846BDE8F88F3E46F0E700BF5F
:10963000102B002013B50446FFF7B2FA08B300233D
:109640000DF106022046ADF8063013F057FEC0B10A
:109650000D4C9DF8062094F9F81084F80D2103298B
:1096600008BF62F07F024FF00501084808BF84F888
:109670000D21FFF7FFFA062184F80E010348FFF7DA
:10968000DFFA02B010BD00BF880100209102002067
:109690002DE9F84F2DED028BFFF782FA002844D018
:1096A000254B93F9F80001283FDD93F80F41DFF8CF
:1096B00090809FED228A0FF2780BDBE900AB154614
:1096C0008E1E02EB44094D4504D1BDEC028B2046B1
:1096D000BDE8F88F38F8027B26F8027F07EE907A13
:1096E000F8EEE77A67EE887A17EE900A4FF006FAFE
:1096F00052465B464FF05AFA41EC100B53F0F8F922
:1097000051EC100B4FF07AFD0E2F80B20AD91930B0
:109710003223B0FBF3F080B200EB800000EB80005E
:10972000400080B225F8020BCDE70024CDE700BF52
:109730001655B5BBB16B024088010020CDCCCC3DA5
:10974000F832002038B50D46FFF72AFA044638B142
:109750000C4890F8FB30DB0704D5B0F8FC002880FB
:10976000204638BD084A90F9F93092F8EC2893FB6E
:10977000F2F102FB11320132013100F5887013F071
:10978000D1FDECE788010020181A00202DE9F04FE8
:10979000A94D95F8F8378BB08146002B40F0B58085
:1097A000D5F8FC67002E00F0B080A44AD2F814412E
:1097B00004F0F021B1F1E02F6ED1C2F81431D5F8E8
:1097C0000028944268D004930593ADF81830B5F89A
:1097D000B83795F8B4E7ADF8143095F8B5C795F8F3
:1097E000BC3795F8B6A78DF818300DF110088DF834
:1097F00010E08DF811C08DF812A098E8070007ABB3
:1098000003C38F4F1A80C4F342533B44C4F3034253
:1098100093F83E10C5F800488E4502F1010201D1CF
:10982000944508D030468DF81C108DF81D2013F09B
:1098300079FDADF82000304613F0AAFF032804F0AC
:10984000070B34D0042836D000239A4501A93046AE
:1098500018BF8DF81E3013F0DFFD48B1019BC4F333
:10986000001103F001038B4202D0304613F082FE58
:109870000A2207A9404653F0E2FB68B19DF81E306A
:10988000BDF81C2085F8B637BDF82030A5F8B42700
:10989000A5F8B8374AF09AFD95F804A804AF95F8F2
:1098A0000438032B7BD8DFE803F00A3376A35F4448
:1098B00097F84330C9E75F4497F84B30C5E739461E
:1098C000304613F0AFFD044658B107A8FFF776FE07
:1098D0009DF81E109DF810308B4260D0304613F07A
:1098E000BFFE95F80438013303F0030385F804380C
:1098F0000CB99A45D3D195F8BE37DB0700D524B112
:10990000336849461B68304698470BB0BDE8F08F76
:1099100001A8FFF753FE95F8BE879DF8044008F0B4
:109920000108ECB1B8F1000F39D13A460DF103014D
:10993000304613F07AFD044688B307A8FFF73EFED1
:109940009DF81C109DF803309DF81D208B4203D11B
:109950009DF81030934222D0304613F08BFEC0E7C2
:10996000B8F1000FBDD13946304613F058FD04461A
:10997000A8B107A8FFF722FEBDF82010BDF81030EF
:109980008B420CD085F8058885F806883368304608
:109990009B699847A5E795F8BE37D80701D50024FD
:1099A0009FE707A9304613F037FD04460028F6D09C
:1099B0001E2025F045FC95F8073883428046EED0FE
:1099C00085F8070860B1B5F8BA37002BE7D1079BD7
:1099D000D907E4D40121304613F0CCFD444680E79A
:1099E000079BDA07DBD50146304613F0C3FD78E765
:1099F0003846FFF7E3FD97E8070007AB03C31A807B
:109A00009DF810309BB10DF11D0207A9304613F0EF
:109A10000CFD0DF11E01304613F004FD0A2207A9CA
:109A2000384653F00CFB041E18BF012459E708A95F
:109A3000304613F0F4FCECE7102B002088010020E6
:109A400030D1050800F01F0240090123032803FA62
:109A500002F304D004280CD0022805D07047074A2E
:109A6000116C0B4313647047044A516C0B435364ED
:109A70007047024A116B0B43136370470038024072
:109A8000004870475C31002000285FD00368374AE7
:109A90002DE9F04103F13F4404F57E0402EB9422EA
:109AA000012492F8382002F01F055209032A04FA13
:109AB00005F456D0042A4FD0022A48D08588B5FA3A
:109AC00085F0C0F11F00C0F3CC0603EB860600F062
:109AD000070082000F24306A944020EA04003062BC
:109AE000306A01FA02F20243002132624FF0010EA5
:109AF0000A464FF0030C02270EFA02F838EA050076
:109B000002F101021CD118680CFA01F420EA0400E9
:109B10001860186807FA01F606431E609E6826EA78
:109B200004069E6098689860586820EA08005860AB
:109B300058685860D86820EA0400D860D868D860AF
:109B4000102A01F10201D7D1BDE8F0817047084A1F
:109B5000556C2C435464B1E7054A156B2C431463D0
:109B6000ACE7034A156C2C431464A7E730D1050811
:109B7000003802402DE9F047C94C94F80818054612
:109B8000C1F34001D4F810083FF092FB94F8081894
:109B9000D4F80C08C94301F001013FF089FB002D06
:109BA00000F0E58005F1FF38BE4EBF4D5FFA88F842
:109BB0001027D4F8103833B11A689B8851690B42CA
:109BC00014BF53831383D4F80C3833B11A689B88BD
:109BD00051690B4214BF53831383B4F81838002B18
:109BE00040F0558194F81A18D4F81C083FF060FB37
:109BF0004FF0FA0C4FF47A704FF0010E7368C3F314
:109C00000803002B40F01781EFF31183002B40F085
:109C10001281D4F87C25A968D4F87C359A42F8D111
:109C2000D4F840389942F4D8D4F83C9800FB09F3B2
:109C30005B1AB3FBF9F300FB02327368C3F308034A
:109C4000002B40F0B780EFF31183002B40F0B2807F
:109C5000D4F87C35D5F808A0D4F87C158B42F7D120
:109C6000D4F840188A45F3D8D4F83C9800FB09F1A1
:109C7000A1EB0A01B1FBF9F100FB03139B1AB3F549
:109C80007A7FDAD3BCF1010CB8D1D4F8103833B1F3
:109C90001A689B8851690B4214BF53831383D4F80D
:109CA0000C3833B11A689B8851690B4214BF538337
:109CB0001383B4F81838002B40F0DD8094F81A189C
:109CC000D4F81C0881F001013FF0F2FA4FF0FA0CD1
:109CD0004FF47A704FF0010E7368C3F30803002B42
:109CE00040F08980EFF31183002B40F08480D4F89A
:109CF0007C25A968D4F87C359A42F8D1D4F840384C
:109D00009942F4D8D4F83C9800FB09F35B1AB3FBF2
:109D1000F9F300FB02327368C3F308034BBBEFF3A4
:109D2000118333BBD4F87C35D5F808A0D4F87C1562
:109D30008B42F7D1D4F840188A45F3D8D4F83C9830
:109D400000FB09F1A1EB0A01B1FBF9F100FB0313E0
:109D50009B1AB3F57A7FDED3BCF1010CBCD108F1BC
:109D6000FF385FFA88F8B8F1FF0F7FF422AFBDE843
:109D7000F087EFF3118987F31288D5F808A02B68D4
:109D8000DB0344BFC4F838E8D5F808A0D4F87C3524
:109D9000D4F838185FFA89F989F31188D4F83C9817
:109DA0000B4400FB09F1A1EB0A01B1FBF9F100FB47
:109DB0000313CDE7EFF3118987F31288D5F808A0D4
:109DC0002B68D90344BFC4F838E8D5F808A0D4F804
:109DD0007C35D4F838185FFA89F989F31188D4F8FA
:109DE0003C980B4400FB09F1A1EB0A01B1FBF9F12E
:109DF00000FB031342E7EFF3118187F31288D5F8D4
:109E000008902B68DA0344BFC4F838E8D5F8089006
:109E1000D4F87C35D4F83828C9B281F31188D4F845
:109E20003C181A4400FB01F3A3EB0903B3FBF1F365
:109E300000FB02326FE7EFF3118187F31288D5F848
:109E400008902B68DB0344BFC4F838E8D5F80890C5
:109E5000D4F87C35D4F83828C9B281F31188D4F805
:109E60003C181A4400FB01F3A3EB0903B3FBF1F325
:109E700000FB0232E1E6D4F83438002B3FF426AF81
:109E8000D4F820280023136084F831381EE7D4F872
:109E90003438002B3FF4ACAE3EF07CF9A8E600BFAE
:109EA000102B002000ED00E010E000E02DE9F84F5D
:109EB000C44CC54F94F80818D4F81008C34DC1F32A
:109EC00040013FF0F5F994F80818D4F80C08C9439C
:109ED00001F001013FF0ECF94FF0050B4FF01008D5
:109EE000D4F8103833B11A689B8851690B4214BFFB
:109EF00053831383D4F80C3833B11A689B885169A3
:109F00000B4214BF53831383B4F81838002B40F06E
:109F1000518194F81A18D4F81C083FF0C9F94FF091
:109F2000320C4FF47A7001267B68C3F30803002BD0
:109F300040F01481EFF31183002B40F00F81D4F82F
:109F40007C25A968D4F87C359A42F8D1D4F84038F9
:109F50009942F4D8D4F83C9800FB09F35B1AB3FBA0
:109F6000F9F300FB02327B68C3F30803002B40F0D7
:109F7000B480EFF31183002B40F0AF80D4F87C3530
:109F8000D5F808A0D4F87C158B42F7D1D4F8401846
:109F90008A45F3D8D4F83C9800FB09F1A1EB0A01FB
:109FA000B1FBF9F100FB03139B1AB3F57A7FDAD307
:109FB000BCF1010CB8D1D4F8103833B11A689B88C1
:109FC00051690B4214BF53831383D4F80C3833B157
:109FD0001A689B8851690B4214BF53831383B4F8EA
:109FE0001838002B40F0DA8094F81A18D4F81C08BE
:109FF00081F001013FF05CF94FF0320C4FF47A70C0
:10A0000001267B68C3F30803002B40F08780EFF341
:10A010001183002B40F08280D4F87C25A968D4F805
:10A020007C359A42F8D1D4F840389942F4D8D4F823
:10A030003C9800FB09F35B1AB3FBF9F300FB023217
:10A040007B68C3F308033BBBEFF3118323BBD4F856
:10A050007C35D5F808A0D4F87C158B42F7D1D4F81C
:10A0600040188A45F3D8D4F83C9800FB09F1A1EBDD
:10A070000A01B1FBF9F100FB03139B1AB3F57A7FD8
:10A08000DED3BCF1010CBCD10BF1FF3616F0FF0B97
:10A090007FF426AFBDE8F88FEFF3118988F31288BB
:10A0A000D5F808A02B68DB0344BFC4F83868D5F89E
:10A0B00008A0D4F87C35D4F838185FFA89F989F308
:10A0C0001188D4F83C980B4400FB09F1A1EB0A017C
:10A0D000B1FBF9F100FB0313CFE7EFF3118988F32C
:10A0E0001288D5F808A02B68D90344BFC4F8386893
:10A0F000D5F808A0D4F87C35D4F838185FFA89F977
:10A1000089F31188D4F83C980B4400FB09F1A1EBCA
:10A110000A01B1FBF9F100FB031345E7EFF31181ED
:10A1200088F31288D5F808902B68DA0344BFC4F886
:10A130003868D5F80890D4F87C35D4F83828C9B2F6
:10A1400081F31188D4F83C181A4400FB01F3A3EB07
:10A150000903B3FBF1F300FB023271E7EFF3118166
:10A1600088F31288D5F808902B68DB0344BFC4F845
:10A170003868D5F80890D4F87C35D4F83828C9B2B6
:10A1800081F31188D4F83C181A4400FB01F3A3EBC7
:10A190000903B3FBF1F300FB0232E4E6D4F83438F0
:10A1A000002B3FF429AFD4F820280023136084F853
:10A1B000313821E7D4F83438002B3FF4B0AE3DF00D
:10A1C000E9FFACE6102B002000ED00E010E000E01D
:10A1D000B0B10C49D1F84438102B03D1052100202F
:10A1E00037F078BF03EB43020A4482F84808202086
:10A1F00082F849080120034482F84A08C1F844382B
:10A20000704700BF102B0020F8B5274E00EBC004AC
:10A2100006EB8404D4F87C58002D38D094F88DC80F
:10A220000CF0FF07BCF1000F31D149004FF0010CD9
:10A23000C9B284F88E1884F88F2884F891C884F8FD
:10A24000927884F890C884F88DC884F88C78AA88AD
:10A25000C4F89438C4F89838940502D501273846D4
:10A26000F8BD2B88D9050CD44FF4805301E0013B95
:10A2700010D02A889205FAD42B889BB243F48073BD
:10A280002B80AB889BB243F44073AB80E6E700279A
:10A290003846F8BDB6F8E43801339BB2A6F8E43886
:10A2A0004DF05CFEDBE700BF102B002070B5464E82
:10A2B00096F8E64804EB440306EBC303650093F805
:10A2C000E838032B6ED8DFE803F059291E02254435
:10A2D00006EBC505D5F8EC08002870D196F848398A
:10A2E0009C425FD0013404F00302934286F8E628D2
:10A2F00058D002EB420406EBC4040223C4F8EC0875
:10A3000084F8E83870BD2B1906EBC303D3F8EC28AA
:10A3100072B1013AC3F8EC28002070BD2B1906EB8E
:10A32000C303D3F8EC28002AF3D1022283F8E828EB
:10A33000254406EBC50595F8F438013BDBB285F8FA
:10A34000F4388BBB214B96F84869D3F81811D5F82F
:10A35000F008621C02F003024B1E0324B2420344C5
:10A3600085F8E848B3FBF1F0C5F8EC081AD099423B
:10A3700018D80138C5F8EC08012070BD3FF0DAFCB0
:10A3800080B1124B2C44D3F8182106EBC4040121F0
:10A3900002F51C5384F8E8180F33B3FBF2F3C4F84A
:10A3A000EC3870BD012070BD084BD3F81821012096
:10A3B00002F2E733B3FBF2F3C5F8EC3870BD0138B5
:10A3C000C5F8EC08002070BD102B0020880100208B
:10A3D000064B93F84929002AFBD141F2AC420449CB
:10A3E0009B5801F10C001B68184700BF102B002080
:10A3F0005C34002070B5244D95F8B843022C134608
:10A4000082B00A4607D0014605F56E7002B0BDE87D
:10A4100070403FF063BBD5F8C01311B10C68898858
:10A420006183D5F8BC138E8940F2E9340E89013C72
:10A4300016F0020FA4B223D084B28C8140F2E9342A
:10A440000889013C10F0010FA4B20DD0888908469C
:10A4500000214DF023FCD5F8C03313B11A689B8856
:10A460001383012002B070BD002CE9D10846CDE96C
:10A4700000233FF0EDF9DDE90023D5F8BC13E6E752
:10A48000002CD3D1F2E700BF083C002030B405789F
:10A49000022D14D0012D02D0002030BC704704469C
:10A4A00090F90400084B421C83F8F853F4D00328B9
:10A4B000F2DC0A4603F57E73617930BCA4E630BC59
:10A4C00001223FF06BBA00BF083C00202DE9F04F9D
:10A4D0002DED108B034697B004331593DFEDCACAF8
:10A4E000149002238A4613928B461293149C4FEACF
:10A4F000DB0604EB461202EB06103101A6EB8603E5
:10A500004FEAC60806EB4605CDE9000100EBC303A0
:10A51000043108F104001196204421442C01C6EBBB
:10A52000C60C0394EC00119D04944FEACC040594EE
:10A530006C0106EB860E0294159D009C03EB4617FA
:10A540004FEACE0E02EBC6064FEACB094FF0000CE5
:10A5500051ED01AAD3ED001A92ED007A94ED005A64
:10A5600096ED004AD7ED007A15ED012A50ED016A0B
:10A5700032EE07BA76EE840A7AEE855A31EEA70AF1
:10A580003BEE256A70EE804A76EEC46A36EE244AC7
:10A5900036EE646A05ED014A82ED006AD0ED00BA3C
:10A5A000D6ED012AD3ED019A95ED00AA92ED016A4C
:10A5B00097ED013A91ED00CAD4ED014A7BEEE23A03
:10A5C00036EEE19A32EE472A73EEE98A3AEE464ACF
:10A5D00039EE279A78EE838AB0EE428AA9EE6C8A29
:10A5E000DC44E24573EEC33AB0EE441AA8EEEC1A2E
:10A5F00076EEE77A33EEA97A7CEE643A77EEA17ACA
:10A600003AEE066A7AEEC51A3CEE24AA74EECC4AFB
:10A6100039EE833A35EE6A5AF0EE639AF0EE48AAC4
:10A62000E7EE2C9AA8EEAC4AE7EE2C4AE7EE6CAACD
:10A63000F0EE418AB0EE427AB0EE612A7BEE656AB6
:10A640007BEEA22A76EE4A5AA9EE2C7AA7EEAC2A25
:10A65000A7EEAC5AE7EEEC8A32EE83BA76EEC3BAD6
:10A6600035EEE09A75EEC07A36EE0A6A76EEE26A68
:10A6700036EE0BAA76EE836A77EEA07A34EE423A93
:10A6800077EE290A36EE4B6A7BEEA22A39EE000AF3
:10A6900073EEAA3A78EE244A37EE697A31EE055A1B
:10A6A00071EEA85A32EE044A85ED00AA82ED016AE5
:10A6B0004D4441ED012A4A44C4ED006A81ED000A8F
:10A6C000C4ED017A494440ED010A4C4487ED007A1B
:10A6D000C6ED003AC3ED004A80ED003A87ED014A2D
:10A6E000484486ED015A4F44C3ED015A4E444B4451
:10A6F0003FF62EAF119B072B40F2C781029D149E9F
:10A70000019B03980499059A083575190C330E9529
:10A71000354608F108080EF10804EB180830083136
:10A72000083246442C1928186918AA18079305F10D
:10A730000C030D960C940B900A91099208934FF01C
:10A7400001084FF0000E129B9E44139B03EBCE03B7
:10A7500003EBCE02109302EBCE0303EBCE0102918A
:10A7600001EBCE0101EBCE0505EBCE06D6ED007A6E
:10A770000F93AEEB8E03019106EB031303EBCE07B1
:10A78000D3ED01AACDED067A019BD5ED007A97EDC8
:10A7900001BACDED057AD3ED007A029BCDED047AB6
:10A7A000D3ED007A0F9BCDED037A07EBCE0CD3ED02
:10A7B000007ADCED01BACDED027A0CEBCE01D2EDE0
:10A7C000007A109A009101EBCE00014691ED01DA7A
:10A7D000CDED017A0099D2ED007A91ED01CA00EB3E
:10A7E000CE0000EBCE0494ED01EAD0ED01DACDED20
:10A7F000007ADDE90776DDE90954DDE90B01DDE9E1
:10A800000D23C44602E000BFF304353F94ED009AE7
:10A8100090ED00FA91ED006AD5ED007AD3ED006A73
:10A8200057ED014A92ED005A56ED013A96ED00AA15
:10A8300035EE060A73EEA65A39EE278A34EE8F7A81
:10A8400070EE082A75EE87EA35EE465A3EEEA26AA9
:10A8500073EEE63A06ED016AD1ED019AD2ED01FA06
:10A86000D4ED016AD3ED011A95ED013AD0ED018ADC
:10A8700097ED004A3FEEE96A35EE491A76EE660A30
:10A8800031EE271A3AEE612A75EE677A70EE830A86
:10A890003FEEA95A74EECF9A77EE897A7AEE211AB2
:10A8A000B0EE42AA74EE68FAA0EEECAADC44E245EF
:10A8B00035EEC77AB0EE639A74EE285A38EEC44A81
:10A8C000F0EE698AA1EE6C9AE7EEAC8A36EE436A46
:10A8D0007FEE644A36EE266AA0EEAC2AF0EE4A0A13
:10A8E000E7EEEC0AE7EEAC4AF0EE687AF0EE498A61
:10A8F00036EE833AE6EE6C8AE1EE2C3AB0EE6F1A51
:10A90000A6EE2C1A71EEE56AA6EE2C4A71EEA55A57
:10A9100075EE031A7EEEE22A37EE43FA75EEE1EAAF
:10A92000B0EE686A76EEC08A39EE044A7FEE86FAA7
:10A9300076EEC86A33EE816A38EE888A73EEC13AE1
:10A9400037EE457A2CEE2E1A3FEE055A22EECC9ABF
:10A950009DED03FA70EE266A33EE077AAFEE221A07
:10A96000AFEE2E9A7AEE244A9DED01FA79EEA09A86
:10A9700025EE4BAA72EE670A37EE822A6BEE087A52
:10A98000AFEE08AAEFEE057A2DEEA63A9DED05FA98
:10A9900067EE6D8AAFEE073AEFEE268A66EE6A2A18
:10A9A0009DED00FA2AEEA00AEFEE202A6EEE02EAF2
:10A9B000DDED060A23EECE5AE0EEA3EA2BEEA98ADD
:10A9C000DDED023AAFEE060AA3EE848A24EE6B7A3E
:10A9D0006DEE246A9DED044A2FEECD6AA0EE825AF8
:10A9E000A3EEA97AE4EE2F6AA4EE246A75EEA15ACA
:10A9F000C6ED005A83ED001A83ED019A4E4447EDEF
:10AA0000017A87ED00AA4B4480ED003AC0ED018A3F
:10AA10004F4482ED000A4844C2ED012AC5ED00EA28
:10AA200085ED015A4A44C1ED006A81ED016A4D4449
:10AA300084ED008A84ED017A49444C443FF6E6AE49
:10AA40000E9B08330E930D9B08330D930C9B08331C
:10AA50000C930B9B08330B930A9B08330A93099BB7
:10AA600008330993089B08330893079B083307931F
:10AA7000119B08F1010843457FF465AE129BDDF898
:10AA800044B0DB009BB2129330E517B0BDEC108BE5
:10AA9000BDE8F08F0848002302461178022902F130
:10AAA000060204D00133062BF7D10020704703EBD8
:10AAB000430300EB4300704704400020F0B5A04C76
:10AAC00085B0242204F57F70002152F0E0FA94F85A
:10AAD0002164002E3BD1D4F864346BB39B6A5BB322
:10AAE0009848984783683BB30388DFF880C2013BEE
:10AAF0009BB26046654600212F78032F05F10605BD
:10AB00001DD001310629F7D100220178022900F178
:10AB1000060000F0A9800132062AF6D1D4F88C1480
:10AB2000052909D0481C02FB01C2C4F88C0402208C
:10AB30000021938010705180304605B0F0BD06238F
:10AB400003FB0141B1F8FE33013B9BB2DCE794F813
:10AB5000200404F58563C4F8243408B90026BAE754
:10AB60003DF026FFC4F8300418B183790BB1412BB6
:10AB7000F4D1751E02236DB29D4284F82834EDDCB9
:10AB800004EB0515D5F83434002BE7D0C4F82C3489
:10AB900008B12023C38009213EF0B8F9D4F8243449
:10ABA00098683EF07FFBD4F82434102158684CF0AC
:10ABB0002FFF654BD4F82424C4F8842493E80300C1
:10ABC0000123009032208DF8041084F88834002589
:10ABD0003CF00EFB052302AA6946D4F824048DF844
:10ABE0000A508DF809503EF01FFE9DF80A209DF88E
:10ABF00009009DF80B10554B120242EA00420A432D
:10AC00009A4200F0948033DCA3F5F1139A4260D0AD
:10AC100044DD4F4B9A4254D002339A4264D14FF4F0
:10AC200000724FF48073A4F86824A4F87434B4F864
:10AC30007424B4F86834120202FB03F300204FF4CA
:10AC40008071B3F1807FC4F86C24C4F8703484F848
:10AC50007604A4F86A1459D801253E4B84F87D5433
:10AC60002E46C4F8643436E7062101FB02C25EE7D3
:10AC7000394B9A4235DC053B9A4235DD374B13445C
:10AC8000032B4CD801A252F823F000BFD3AC00082C
:10AC9000C3AC0008B5AC00081FAC0008A3F5220344
:10ACA000013B9A423BD02DDD2D4B9A4209D0013316
:10ACB0009A4219D14FF48073A4F86834A4F874341C
:10ACC000B5E780224FF48073A4F86824A4F87434A4
:10ACD000ADE740224FF48073A4F86824A4F87434DC
:10ACE000A5E7204B9A42E5D0002694F82004A4F86A
:10ACF0006864A4F87464C4F86C64C4F870643EF0CA
:10AD000071FDE8E6184B9A42D4D0EDE70123D4F860
:10AD1000840484F87C34B7214AF088FE9CE7202222
:10AD20004FF48073A4F86824A4F874347FE74FF4D8
:10AD300080621023A4F86824A4F8743477E700BF75
:10AD4000083C00206C40002084D105081640E0003B
:10AD50001720C2008CD105081940EF00EABF10FF90
:10AD600017BA20001870EF0018600100044000209E
:10AD700099B10A6B824216D9154BD3F8BC24914283
:10AD800021D34C3991421ED30B6B9842F9D38B6B74
:10AD90009842F6D80B46184670470D4BD3F8BC14B2
:10ADA0000A6B904212D30B680BB9F4E70A6B90421E
:10ADB0000B4602D38A6B9042EDD951F84C3F002BE1
:10ADC000F4D1184670470023184670470A46D8E762
:10ADD000083C00202DE9F047CC0143D10346224A2C
:10ADE00043F8082B4FF0FF324260022418467E26BB
:10ADF000DFF87880D8F8C0942644013E051D494606
:10AE00006FF070474FF0010A08E0A3421CD0631CAA
:10AE100045F8043C321B1C460435CAB10B6BA342F7
:10AE200002D88B6BA34204D22046FFF7A1FF014654
:10AE300090B10A794B6B002AE7D1A34204D0E6D245
:10AE400045F8042C631CE5E745F8047C631CE1E746
:10AE5000C8F8C014BDE8F08745F804AC321B631C89
:10AE60004946D8E78026C3E7F8FFFF0F083C0020DB
:10AE7000F0B40D6800240CE0BCF1050F18D8A0F167
:10AE800037030A2B14D104EB840415F8010B03EBF0
:10AE90004404A0F13003DEB2092EA0F16107A0F155
:10AEA000410CF0D9052FE7D8A0F157030A2BEAD0BF
:10AEB0000D601460F0BC7047036870B55E6A26B11F
:10AEC00033460522BDE87040184704460D464E1D26
:10AED00000E023689B68204698470028F9D0236843
:10AEE00015F8011B1B6820469847B542F1D170BD8B
:10AEF0002DE9F047164D0746002095F9CD9405F24F
:10AF0000D44684B007EB010805F2747504464FF08F
:10AF1000B60A3368ABB193F83830142B11D019F15D
:10AF2000020F01D04B450CD1002269463046CDE9D5
:10AF30000244CDE90078ADF808A08DF80E4030F05D
:10AF4000C7F9E036B542E4D104B0BDE8F08700BFF0
:10AF5000083C00202DE9F743124E0124A0231825B8
:10AF60005FFA84F8FF2B14DCD6F87407E9B2C1F15C
:10AF70001C0282725F1C026880F80B80DBB20093B7
:10AF8000C1F11B01D2F8189000234246C9B2C8474C
:10AF90003B46013DE6D10134052CE0D103B0BDE8CC
:10AFA000F08300BF083C002070B4447941BB0368C3
:10AFB0004FF400524FF40076202502213CBB1A8C3E
:10AFC00022F001021204120C1A841A8B188C22F03F
:10AFD000F30280B2120420F00A00120C014342F086
:10AFE000010241F001011A8319841A8B22F00C022C
:10AFF0001204120C1A831A8B92B270BC1A83704717
:10B0000000220368164615461146002CD7D0042CA2
:10B0100021D0082C38D0198C21F480510904090C56
:10B0200019849C8B1D8C45F6FF7040F6FF4128402B
:10B030002140024342F4805241F4807199831A8482
:10B040009A8B22F440621204120C9A839A8B92B269
:10B0500070BC9A8370471A8C22F010021204120CF2
:10B060001A84188B198C89B240F6FF4221F0A00196
:10B0700002400D4342F4807245F010051A831D848E
:10B080001A8B22F44062B3E71A8C22F48072120405
:10B09000120C1A84998B1A8C21F0F30192B20904D4
:10B0A00022F42062090C324342F4807241F0010123
:10B0B00099831A849A8B22F00C02C4E70B88F0B4AF
:10B0C00033BB028C4C880E898B88C98822F0010220
:10B0D0001204120C0284058B028CADB225F0F3052C
:10B0E00092B22B4322F00A0243EA061322439BB298
:10B0F00042F0010203830284038B23F00C031B0440
:10B100001B0C0383038B9BB21943F0BC0183704774
:10B11000042B048C2CD0082B4E888A880D89C98872
:10B1200051D024F480542404240C0484838B078C91
:10B130002C0344EA022440F6FF421A4045F6FF730E
:10B140003B4043EA063322439BB292B243F480531E
:10B1500082830384828B22F440621204120C828365
:10B16000838B9BB243EA01239BB2F0BC838370477D
:10B1700024F010042404240C4D880F898A88C9887F
:10B180000484068B038C12029BB242EA073423F03C
:10B19000A00340F6FF42324043EA051322439BB22C
:10B1A00092B243F0100302830384028B22F44062C4
:10B1B0001204120C0283038B9BB243EA01239BB25D
:10B1C000F0BC0383704724F480742404240C0484AA
:10B1D000848B038CA4B29BB224F0F30423F4206389
:10B1E000224343EA062342EA05129BB243F48073EA
:10B1F00092B282830384838B23F00C031B041B0C09
:10B200008383838B9BB21943F0BC8183704700BF5B
:10B21000094B93F8363E042B08D9053B032B08D87D
:10B2200001231A4600B10370104670470023012223
:10B23000F8E700231A46F5E7181A00202DE9F04731
:10B240009AB0DDE9226ADDF8909004460D46174673
:10B25000984602E020683DF043FB20683DF048FB43
:10B260000028F7D10146642201A851F010FF264BB7
:10B270008DF80450CDF85CA00293002D40D0AB1E99
:10B28000012B3FD9042D14BF002203221F4B03962C
:10B29000D3F87C358DF805201E440123CDE90594B3
:10B2A00004968DF85B3037B14246394607A851F015
:10B2B0008DFE8DF85A80164E96F8BA970023189393
:10B2C000B9F1000F19D196F8B907642202FB0060AA
:10B2D00001A900F2BC7051F079FE012386F8B997FC
:10B2E00086F8BA37236843B143463A462946204692
:10B2F0001AB0BDE8F0470EF09FBA1AB0BDE8F0876B
:10B300000522C3E70222C1E780430020102B002062
:10B31000083C00209FED737A07EE901A20EE070A92
:10B32000F8EE677A27EE800AFDEEC07A17EE903AC3
:10B330002033402B00F2C780DFED6B7AB4EEE70AD2
:10B34000F1EE10FAF0EE407A0CDD9FED686ADFED69
:10B35000686AB0EE677AB4EEE67AF1EE10FA77EE4C
:10B36000C67AF6DC9FED637AF4EEC77AF1EE10FA56
:10B370000CD59FED5E6ADFED606AB0EE677AB4EEE1
:10B38000E67AF1EE10FA77EE867AF6D49FED5B7AE4
:10B39000F4EEC77AF1EE10FA00F38D809FED587A43
:10B3A000F4EEC77AF1EE10FA44BF9FED527A77EED1
:10B3B000677A27EEA76ADFED535A9FED537ADFEDE8
:10B3C000536AA6EE257A67EE865AE6EE076AB6EE6F
:10B3D000007AE5EEA67A27EE877ADFED486A70EE0E
:10B3E000267ABDEEE76A16EE103A2033402B67D876
:10B3F000B4EEE60AF1EE10FA0CDDDFED3C5A9FEDFB
:10B400003C6AF0EE676AF4EEC66AF1EE10FA77EE87
:10B41000E57AF6DCDFED376AF4EEE67AF1EE10FA63
:10B420000CD5DFED325A9FED346AF0EE676AF4EE28
:10B43000C66AF1EE10FA77EEA57AF6D4DFED2F6A40
:10B44000F4EEE67AF1EE10FA40DDDFED276A76EEF3
:10B45000E77A67EEA75A9FED2B5A9FED2B6ADFED37
:10B460002B6AA5EE856A27EEA55AE5EE866AB8EE48
:10B47000006AE5EE267A67EE867AC7EE206A002338
:10B48000836143610362C361B7EE006A76EE865A58
:10B4900076EE666A86EE257A67EE277A66EE876A2A
:10B4A000C0ED017AC0ED037A80ED007A80ED027A7A
:10B4B000C0ED046A70479FED0C7A77EE677A78E703
:10B4C000DFED137AD9E79FED127A86E7DFED0C6A9C
:10B4D000F4EEE67AF1EE10FA44BFDFED066A76EE9E
:10B4E000E77AB6E727D4D236DB0F4940DB0FC940F5
:10B4F000E4CB1641DB0F49C0E4CB16C1DB0FC93FDB
:10B50000DB0FC9BF92E741B99730083C15A82ABEA6
:10B51000000000000C480D4BD0F83C1810B40C4C47
:10B52000C0F82C388A1E2231B0F856381B01A4FB13
:10B5300003C3DB08A3F5B06322F8023F9142F3D1C5
:10B540005DF8044B704700BF083C0020DD1F020877
:10B55000CDCCCCCC70B5084C251D2E4614F8010B73
:10B5600030F020F928B1037805F8013BB442F5D159
:10B5700070BDFF23F8E700BF804400202DE9F047AD
:10B580001D4F012607F10805B2464FF03C094FF068
:10B59000000817F8010B3DF00BFA044690B180F853
:10B5A0000690C671FB7803F07F02012A18D013F0D1
:10B5B000800F20460DD185F804803DF06DFE85F8A2
:10B5C00005802C600136052E05F10805E1D1BDE8A6
:10B5D000F08785F804A03DF065FE85F805A0F0E74A
:10B5E0001B0605D4012120463DF090FCFB78DEE7E8
:10B5F0003DF058FEF6E700BF884400202DE9F04FEB
:10B60000DFF8E091DFF8E0A183B009F10C05012437
:10B6100019F8018BB8F1000F00F0BF804FEA18173E
:10B62000013F032F08F00F0200F2BA800AEB470334
:10B63000988D40FA02F616F0010600F0C38001234F
:10B640009340013B184057444DF048FE97F8343082
:10B650005E4E184406EBC00604236E61F471B371AC
:10B66000002303E00133152B00F09780584903EBCA
:10B6700043025F00895C4145F4D1564B1A4492F86D
:10B680008115002900F0A080404636F08BF98046F5
:10B69000006836F073F998F8051036F0D9F9037898
:10B6A000002B7AD14B4B3B44042283F8C14583F8ED
:10B6B000C025002E58D0336898F8080003F13F42A7
:10B6C00002F57E020AEB9222012792F8382002F05E
:10B6D0001F015209032A07FA01F169D0042A62D036
:10B6E000022A6AD0B6F804C0BCFA8CF2C2F11F027A
:10B6F000C2F3CC0103EB810102F007020E6A920053
:10B700000F27974026EA07060E620E6A90403043E4
:10B71000002208624FF0010B11460BFA01FE3EEACF
:10B720000C001CD118680326964020EA0600186019
:10B730001F6802209040384318609F6827EA060778
:10B740009F6098689860586820EA0E0058605868B2
:10B750005860D86820EA0600D860D868D8600131FF
:10B76000102902F10202D8D11B4B1C4AB3F8A818C9
:10B77000B3F8AA380091002001340190B2FBF3F332
:10B7800028469BB24146E4B22EF0BEFE0123092CAE
