:020000040800F2
:100000000000012075840508F584050811600408C6
:1000100075600408F5840508F584050800000000F3
:10002000000000000000000000000000F58405084A
:10003000F584050800000000F584050881470408E0
:10004000F5840508F5840508F5840508F584050898
:10005000F5840508F5840508B16B0408DD6C040817
:10006000A16C0408656C0408296C0408F96B050888
:10007000E96B0508D96B0508C96B0508B56B050860
:10008000A16B05088D6B0508F5840508F584050846
:10009000F5840508F5840508F5840508ED6B04086A
:1000A000B54105083D420508A5410508654205081A
:1000B0002D4205081D4205080D420508496E050838
:1000C0006D6E0508F5840508F5840508F5840508B6
:1000D000F58405085953040811510408C94E040851
:1000E000756B0408F5840508F58405089541050835
:1000F000C5410508F5840508ED410508796B05083B
:10010000F5840508F5840508FD410508F584050812
:10011000814C0408394A0408F584050809F70008E9
:10012000656B0508516B05083D6B0508296B0508D3
:10013000156B050800000000000000000000000032
:10014000000000000000000000000000F90B0108A2
:10015000016B0508ED6A0508D96A0508F14704082E
:10016000F5840508F5840508F5840508F584050877
:10017000F5840508F5840508000000000000000073
:10018000F5840508F5840508F5840508F584050857
:10019000F5840508F584050800000000F5840508CD
:1001A000000000000000000000000000F5840508C9
:1001B000F5840508F5840508000000000000000033
:1001C000000000000000000000000000000000002F
:1001D000000000000000000000000000F584050899
:0801E000CC7F050001000000C6
:1001E8002320010010000000A0410120E84A01205E
:1001F80000000000B91502080D10010058000000A9
:100208003C410120F84A0120000000006DE203088B
:1002180004000800800000007C400120504B0120B1
:100228000000000000000000FD0101001E000000A9
:1002380038400120D04B0120000000000F1D0408A9
:10024800FB01010001000000F43F0120F04B0120F8
:10025800000000008D9C0408FC010100090000005A
:10026800C03E0120F44B0120000000009D9C0408C2
:10027800F701010006000000B43E0120004C0120F7
:100288000000000038090008F9010100040000001E
:10029800B03E0120084C012000000000B91D0408F0
:1002A8000A80010028000000883E01200C4C012033
:1002B80000000000A5140208160215003F00000007
:1002C80038290120344C0120000000001D9C04083E
:1002D8003400010010000000B43D0120744C0120DE
:1002E80000000000ED9A0208110201000800000059
:1002F8008C3D0120844C0120000000003E090008CC
:100308001212010004000000843D01208C4C0120E1
:100318000000000046090008182001003200000013
:10032800503D0120904C012000000000A9980408CD
:10033800061001001C0000001C290120C44C0120EB
:10034800000000004106050812200100110000000D
:10035800543C0120E04C0120000000004A0900083C
:10036800000201000B00000090390120F44C01202C
:1003780000000000A9960408130201000400000010
:1003880018290120004D0120000000005C09000828
:10039800FA0101000300000014390120044D012076
:1003A800000000008D96040802020100030000000E
:1003B800DC320120084D0120000000000000000090
:1003C8000C02010004000000B83201200C4D01208D
:1003D80000000000B1960408FE01010014000000AE
:1003E800B4330120104D012000000000619604087C
:1003F800FD07010076000000A855012020560120C5
:100408000000000069800108261001000E000000AD
:10041800A856012098560120000000003923010841
:100428000B3001001A000000F0500120E8560120AE
:1004380000000000600900081F30010024000000CF
:10044800B850012004570120000000007C09000872
:100458000502010004000000445201202857012031
:1004680000000000A0090008030101000A000000C4
:10047800545001202C570120000000002D1F0108B6
:1004880001010100040000008C5C01202C650120A2
:10049800000000000000000000010100040000004E
:1004A800845C01203065012000000000A4090008D8
:1004B8000201010003000000805C01203465012076
:1004C8000000000029520308220201001C0100005C
:1004D800F062012038650120000000001D99040821
:1004E8000C200600CC000000346101205466012075
:1004F80000000000E9510308010201000B000000A0
:10050800985C0120206701200000000099960408EB
:100518001B02010010000000EC6001202C67012084
:1005280000000000D1FF04081B1001000C000000AF
:100538002C5901203C67012000000000FDA801089B
:1005480021020100F0000000AC570120486701209B
:100558000000000065A80108231201001000000037
:10056800005E01203868012000000000A80900088A
:10057800371001002E000000686001204868012043
:1005880000000000B80900080E0201000200000087
:10059800FC5D01207868012000000000E6090008E1
:1005A8001610010006000000F45D01207C6801209F
:1005B80000000000E80900082F10010022000000D8
:1005C800086501208468012000000000EE09000889
:1005D8001E00010009000000345D0120A868012008
:1005E80000000000100A00080510010006000000C5
:1005F800805D0120B4680120000000001A0A00088C
:10060800F5810100680000003C570120BC6801200A
:10061800000000002D9901082C00040010000000C3
:100628002C7801201C780120000000000528020811
:100638002B00120024000000607801203C78012083
:1006480000000000D92702082920140078000000C3
:100658008876012084780120000000000000000056
:10066800F62101000C00000014750120FC7801201F
:1006780000000000200A00081C0202001C00000004
:100688009C7501204C7901200000000095050508A3
:100698001400010004000000D474012068790120CE
:1006A800000000002C0A0008012001000C000000D6
:1006B8005C6B01206C79012000000000300A000802
:1006C8000EF003009E0100004469012078790120A2
:1006D80000000000D9950208130001000400000082
:1006E800F06F0120187B0120000000003C0A000880
:1006F800031201003D000000088401204884012005
:1007080000000000400A000825201E002C010000FF
:100718006C81012088840120000000000000000096
:10072800101001000200000054810120B48501204E
:10073800000000007E0A0008F82101000600000001
:1007480034810120B885012000000000800A0008DB
:100758001900010005000000A4800120C0850120C7
:1007680000000000860A00081A0001000E000000C0
:10077800107F0120C8850120000000008C0A0008B5
:10078800203201000A000000007E0120D8850120E7
:1007980000000000B5950208150010007000000068
:1007A8004C7C0120E48501200000000000000000CE
:1007B8002A00080060000000587F012054860120AC
:1007C800000000008D950208290201004000000089
:1007D800AC890120D08A0120000000009A0A000894
:1007E8000A02010014000000248A0120308B012035
:1007F80000000000FD610308030001000100000083
:10080800C08A0120448B0120000000000000000085
:10081800020001000C0000004C8E0120E08E012037
:10082800000000000000000028020400040000008E
:10083800609001207893012000000000CDFF04089B
:1008480027020400040000005C9001207C93012032
:1008580000000000C1FF04081F020800100000008B
:100868004C90012080930120000000001996040894
:100878001A0201003C000000109001209093012012
:10088800000000002597040838100100010000004E
:10089800048F0120CC93012000000000DA0A000830
:1008A8002700010004000000F8930120589401205B
:1008B80000000000DC0A000810020100010000002E
:1008C8008C9E0120889E012000000000E00A00089C
:1008D8000702010002000000709E0120949E012082
:1008E80000000000E20A00081D02020006000000E5
:1008F8002C9E0120989E01200000000000000000AE
:100908000602040010000000489E0120A09E01205D
:100918000000000029060508081204001400000061
:10092800349E0120B09E01200000000065FF0408ED
:100938003F01000000003E29000001010101FFFF06
:10094800FFFF000000010000054A4837440000008E
:100958000002000000000100AE014A015E012C0106
:1009680064010100000001000A019A01001E0A004A
:100978000002000000000000000100000005000067
:100988000102030000000000000000000000000059
:10099800000000000080070000000000C201000005
:1009A800000000000000000000000000000000003F
:1009B80020003200C800D00796001400320028003A
:1009C8004C0440060005500014000F0008006400A5
:1009D8000100000005000A000000F4019600000074
:1009E800C409000019000000000000000000000019
:1009F80000000000000000000000000000000000EF
:100A080000000000000000000005010000000000D8
:100A180000002000010100000000000001000000AB
:100A28000202000003000023E8036400040A000136
:100A380014001E000884453000000000000000007B
:100A4800000000000000000000000000000000009E
:100A5800000000000000000000000000000000008E
:100A6800000000000000000000000000000000007E
:100A780000000000010000050101F401140000005D
:100A8800280100007E05EA05B4053200E803D00716
:100A9800000000000000000000000000000000004E
:100AA800000000000000000000000000000000003E
:100AB800000000000000000000000000000000002E
:100AC800000000000000000000000000000000001E
:0C0AD80000000000200300000000013CB2
:100AE40000C20100000008000A06000200000040E5
:100AF4000100000009026400030100C0320904007F
:100B04000001030000000921110100012236000741
:100B140005830308000A080B01020202010009040C
:100B24000100010202010005240010010524010056
:100B340002042402020524060102070582030800B8
:100B4400FF09040200020A00000007050102400038
:100B540000070581024000006196000861950008C5
:100B64007D05010800000000418C0008D90101083E
:100B74006D8C000800000000000000000000000070
:100B8400218C0008318C0008118C0008018C0008AD
:100B94001A03000000000000000000000000000034
:100BA400000000000000000000000000040309042D
:100BB4000A060002000000400100000009072000AE
:100BC400010104C0320904000002080650050705AB
:100BD40081024000000705010240000009022000D4
:100BE400010104C03209040000020806500507058B
:100BF40081024000000705010240000009022000B4
:100C0400010104C03209040000020806500507056A
:100C14008102000200070501020002000A06000228
:100C2400000000400100000009022200010100E070
:100C3400320904000001030102000921110100012D
:100C44002236000705830308000A00000902220077
:100C5400010100E03209040000010301020009213E
:100C64001101000122360007058303080007000074
:100C740009022200010100E032090400000103011D
:100C8400020009211101000122360007058303082F
:100C9400000A00000A0600020000004001000000F3
:100CA40009074300020104C03209040000010202E2
:100CB400010005240010010524010001042402029E
:100CC4000524060001070582030800100904010039
:100CD400020A000000070501024000000705810226
:100CE4004000000009024300020100C03209040070
:100CF4000001020201000524001001052401000185
:100D040004240202052406000107058203080010DA
:100D140009040100020A00000007050102000200A4
:100D2400070581020002000009024300020100C01D
:100D3400320904000001020201000524001001052B
:100D4400240100010424020205240600010705828F
:100D54000308001009040100020A0000000705014D
:100D64000240000007058102400000001201000259
:100D74000000004083042A5700020102030100001E
:100D840012010002020000408304405700020102E5
:100D94000301000012010002EF02014083045632F5
:100DA4000002010203011000000000000401000021
:100DB4000007000000000000000000000002000026
:100DC4001000000000000000000000000700000008
:100DD4007D000000010000000000803F05010905BE
:100DE400A101A1000501093009310932093309358E
:100DF4000934093609371581257F7508950881025C
:100E040005091901290815002501950875018102B4
:100E1400C0C00000092111010001223600000000B9
:100E240000FF0000000000000000AA5507010000B8
:100E340001AA550501000008FCCE0508FF1FFF1F8D
:100E44002D202D2D202D2D2D2D202D2D2D2D00004F
:100E5400000000000000000000000000000000AAE4
:100E6400550B010000AA5505010000AA550902000E
:100E74000000AA5503009F0001000000C0120000FA
:100E8400E056012000000000B856012000000000D8
:100E9400B84F0608C04F0608000000009D52030822
:100EA400A086010004000000000000000000000013
:100EB400000000000000000000000000000000002E
:100EC400000000000000000000000000000000001E
:100ED400B84F0608C84F060800000000E91B0408C4
:100EE400E80300000400000000000000000000000F
:100EF40000000000000000000000000000000000EE
:100F040000000000000000000000000000000000DD
:100F1400D04F06080000000000000000511000003F
:100F24007D000000FF000000000000000000000041
:100F340000000000000000000000000000000000AD
:100F4400000000000000000000000000000000009D
:100F54003C8D06080000000000000000850600002B
:100F64007D000000FF000000000000000000000001
:100F7400000000000000000000000000000000006D
:100F8400000000000000000000000000000000005D
:100F9400A86506080000000000000000E51300003A
:100FA4007D000000FF0000000000000000000000C1
:100FB400000000000000000000000000000000002D
:100FC400000000000000000000000000000000001D
:100FD400D84F06080000000000000000292504087E
:100FE400E80300000300000000000000000000000F
:100FF40000000000000000000000000000000000ED
:1010040000000000000000000000000000000000DC
:10101400DC4F06080000000000000000C5FA0208CA
:101024001027000003000000000000000000000082
:1010340000000000000000000000000000000000AC
:10104400000000000000000000000000000000009C
:101054004489060800000000D9230208C56004087A
:101064005F760000050000000000000000000000A2
:10107400000000000000000000000000000000006C
:10108400000000000000000000000000000000005C
:10109400E08C060800000000000000009D820408A7
:1010A4001027000001000000000000000000000004
:1010B400000000000000000000000000000000002C
:1010C400000000000000000000000000000000001C
:1010D400E84F06080000000000000000ED1B0408B3
:1010E400E80300000500000000000000000000000C
:1010F40000000000000000000000000000000000EC
:1011040000000000000000000000000000000000DB
:10111400F44F0608000000000000000051640308BA
:10112400204E00000300000000000000000000004A
:1011340000000000000000000000000000000000AB
:10114400000000000000000000000000000000009B
:101154000450060800000000000000003962030883
:10116400204E00000300000000000000000000000A
:10117400000000000000000000000000000000006B
:10118400000000000000000000000000000000005B
:10119400145006080000000000000000692A04083A
:1011A400400D0300030000000000000000000000E8
:1011B400000000000000000000000000000000002B
:1011C400000000000000000000000000000000001B
:1011D40024500608000000000000000095E5030804
:1011E40010270000010000000000000000000000C3
:1011F40000000000000000000000000000000000EB
:1012040000000000000000000000000000000000DA
:101214002C500608000000000000000019B5010869
:101224001027000003000000000000000000000080
:1012340000000000000000000000000000000000AA
:10124400000000000000000000000000000000009A
:10125400305006080000000000000000A923040824
:1012640050C3000001000000000000000000000066
:10127400000000000000000000000000000000006A
:10128400000000000000000000000000000000005A
:10129400385006080000000000000000991F0408F0
:1012A400A861000001000000000000000000000030
:1012B400000000000000000000000000000000002A
:1012C400000000000000000000000000000000001A
:1012D400445006080000000000000000C90902088C
:1012E400A0860100010000000000000000000000D2
:1012F40000000000000000000000000000000000EA
:1013040000000000000000000000000000000000D9
:10131400505006080000000000000000819B0308F4
:10132400A00F000001000000000000000000000009
:1013340000000000000000000000000000000000A9
:101344000000000000000000000000000000000099
:101354005C500608000000000000000081EB01085A
:101364001027000001000000000000000000000041
:101374000000000000000000000000000000000069
:101384000000000000000000000000000000000059
:101394006850060800000000000000006DE201082B
:1013A4001A410000010000000000000000000000DD
:1013B4000000000000000000000000000000000029
:1013C4000000000000000000000000000000000019
:1013D4006C5006080000000000000000651F0108B2
:1013E40010270000010000000000000000000000C1
:1013F40000000000000000000000000000000000E9
:1014040000000000000000000000000000000000D8
:101414007850060800000000000000009D500208FB
:1014240050C30000010000000000000000000000A4
:1014340000000000000000000000000000000000A8
:101444000000000000000000000000000000000098
:101454007C5006080000000000000000ED25010893
:10146400400D030000000000000000000000000028
:101474000000000000000000000000000000000068
:101484000000000000000000000000000000000058
:10149400845006080000000000000000159B0308AB
:1014A400400D0300000000000000000000000000E8
:1014B4000000000000000000000000000000000028
:1014C4000000000000000000000000000000000018
:1014D4008C5006080000000000000000F1F601082E
:1014E40050C30000030000000000000000000000E2
:1014F40000000000000000000000000000000000E8
:1015040000000000000000000000000000000000D7
:10151400985006080000000000000000AD81030898
:1015240040420F0000000000000000000000000026
:1015340000000000000000000000000000000000A7
:101544000000000000000000000000000000000097
:10155400A45006080000000000000000599B030886
:1015640050C3000000000000000000000000000064
:101574000000000000000000000000000000000067
:101584000000000000000000000000000000000057
:101594000100000000000100E00101005D89010874
:1015A400000000000000000028D105087EFF0000B4
:1015B400FFFFFFFF08017F00FF010101FF000000A2
:1015C400FFFFFFFFF5050208000000000000000017
:1015D400E4D905081D09020800000000000000000D
:1015E4009CD905082D202D2D202D2D2D2D202D2D80
:1015F4002D000000000000000000000000000000BA
:1016040000000000000000000000000000000000D6
:1016140058D90508F05101209CFF2C01000000005E
:10162400A0640120E0150C170000000000620120F6
:101634000200000090D90508745C012088136F171C
:1016440001000000765C012088136F170000000081
:101654003A4201200000000000000000384201204E
:1016640000000000000000003642012000000000DD
:1016740000000000344201200000000000000000CF
:10168400324201200000000000000000304201202E
:1016940000000000000000009C0301200000000086
:1016A40000000000D85B01200300000080DA050878
:1016B4006C5C012088136F17010000003A5201206E
:1016C40088136F1700000000258A0108000000003D
:1016D4000000000090DA050801620120010000000A
:1016E400E4DA05083C52012001000000F0DA0508A4
:1016F4003252012002000000F8DA05080000000060
:10170400000000000000000004DB05080D8A010849
:101714000000000000000000A0DB0508000000003D
:101724000000000000000000F4DB050800000000D9
:10173400000000000000000064DC0508785C012063
:10174400020000009CDC050836520120E0150C174D
:1017540000000000046D0120586D0120010000000C
:101764000000000000000000252A02088470012007
:10177400000000000000000000000000A0F20508C6
:1017840000000000000000000000000058F30508FD
:1017940000000000000000000000000004F3050841
:1017A400D601FF00FFFFFFFF252F02080000000005
:1017B4000000000030F2050801000000FA000000FB
:1017C400010000000100000001000000000101010F
:1017D40000000000566B01200000F401010000002D
:1017E400546B01200000F40101000000526B012041
:1017F4000000F40101000000506B01200000F4011E
:10180400010000004E6B01200000F4010100000003
:101814004C6B01200000F401010000004A6B012020
:101824000000F401010000000D130208D1120208A7
:1018340000000000B0DE05083A6B0120053201000B
:10184400486B01206400F40101000000466B012094
:101854006400C40901000000386B0120E803D007CC
:1018640001000000366B0120E803D00701000000EE
:10187400346B0120E803D00701000000326B012023
:101884001E00B80B01000000406B012005000F0092
:1018940001000000426B012003000A000100000067
:1018A400306B01201E00F40101000000446B012094
:1018B400020000003CDF05082E6B012014006400C8
:1018C400010000003C6B01203200E803010000002D
:1018D4002C6B01200000C80001000000056B0120F2
:1018E40000C80100046B012000500100036B0120BB
:1018F400005A0100016B01200200000048DF0508C6
:10190400F05C0608F85C0608F64101200100C409F1
:1019140000000000F44101200100C409000000009F
:10192400F24101200100C40900000000F04101203F
:101934000100C40900000000EC4101200100C409B9
:1019440000000000EE4101200100C4090000000075
:10195400EA4101200100C40900000000E84101201F
:101964000100C40900000000B75C012000C80100A8
:10197400B65C012000C80100B45C01200000FFFF38
:101984000A000000B25C01200100C8000100000050
:10199400B05C01203200307532000000AE5C0120E2
:1019A40005820500AC5C012005002C010500000047
:1019B400AB5C0120055A0500A85C012000FF010072
:1019C400AA5C012002000000200E0120A65C012078
:1019D4000300000084D20508A75C012000FF010079
:1019E400A95C012002000000200E0120A55C01205A
:1019F4000300000084D2050861120208F1110208F4
:101A04000000000054DF05086C6B0120EE02CA08D8
:101A1400010000006A6B012000C80100640000009E
:101A2400696B012000C8010064000000686B01209C
:101A34000200000060E00508925C01200000803E86
:101A440005000000905C012080C1803E050000007C
:101A54008A5C01200083007D05000000885C012071
:101A640080C1803E05000000835C012000FF01006E
:101A74007C5C01206400F401010000007A5C012018
:101A8400040000006CE00508795C012002000000FD
:101A940080E00508336901200D0000008CE0050892
:101AA40030690120006401002E69012032001027F2
:101AB4000A0000002C6901200D0000008CE00508DC
:101AC4002B6901200D0000008CE005082A69012023
:101AD40002000000C4E0050800000000000000004F
:101AE40000000000D0E00508726B01203E000000F9
:101AF40008E10508706B01200100FF7F0100000070
:101B04006F6B01200200000004E205083569012022
:101B14000300000014E205083469012003000000FA
:101B240014E20508F26A0120000A0100F06A0120AB
:101B34000000E80301000000EE6A01200000E80351
:101B440001000000EC6A01200000E803010000002D
:101B5400EA6A01200000E80301000000E26A0120B3
:101B64000000E80301000000E86A01200000E80327
:101B740001000000E66A01200000E8030100000003
:101B8400E46A012000140100006B0120020000003F
:101B940024E20508FE6A01200000F40101000000AF
:101BA400FC6A01200000F40101000000FA6A01202F
:101BB4000000F40101000000F86A01200000F401B3
:101BC40001000000F66A01200000A00F01000000DF
:101BD400F46A01200000A00F01000000196B01202D
:101BE40019640100186B01200200000030E20508AE
:101BF400166B0120E803D0070A000000146B0120D3
:101C0400006401000A000000096B01200064010067
:101C1400086B012000640100106B012000640100C6
:101C24000A0000000F6B0120006401000A0000009C
:101C34000E6B0120006401000A000000136B0120F8
:101C440000FF01000A000000126B012000FF0100E8
:101C54000A000000116B012000FF01000A000000CF
:101C64000D6B012001FF01000A0000000C6B012034
:101C740001FF01000A0000000B6B012001FF0100BD
:101C84000A0000003E6901200000F4010100000088
:101C94003C6901200000A00F010000003A69012006
:101CA4000000A00F01000000386901200000A00F0F
:101CB40001000000366901200000A00F01000000AF
:101CC4000570012000C801000470012000640100B7
:101CD400037001200064010002700120006401000F
:101CE400017001200064010000700120FF08010060
:101CF400FF6F012001640100591102081D1102083F
:101D0400000000003CE205080870012001320100D7
:101D14000770012001000000ACE2050806700120F4
:101D240004000000B4E20508FE6F01200064010015
:101D3400FC6F01201400E80301000000FA6F012089
:101D4400E80330750A000000F86F012000C80100A4
:101D5400F76F012000C80100F66F012000C80100E0
:101D6400F56F0120003201000A700120004B0100D0
:101D74000970012004000000C8E20508F46F012086
:101D8400006401000A000000187001200000D00760
:101D9400010000001370012000C80100127001202E
:101DA40000C801001170012000C801001670012054
:101DB4000000D007010000001070012000C80100DD
:101DC4000F70012000C801000E70012000C801003E
:101DD400147001200000D007010000000D700120E4
:101DE40000C801000C70012000C801000B70012024
:101DF40000C80100450F02082D0F02080000000072
:101E0400DCE2050827690120005A01002669012047
:101E140000C8010024690120E803D0070100000084
:101E24000000000000000000652A020878E30508AD
:101E34004A484546374455414C000000A45C012003
:101E440000030100A35C012000030100718C010860
:101E5400298C010800000000CCE30508ED8B010883
:101E6400A98B01080000000068E40508B98C01088A
:101E740035EB010800000000E8E40508945C01204B
:101E840001030100E9130208BD1302080000000069
:101E940040E80508318B0108E58A010800000000CC
:101EA400B0E80508550F0208312B020800000000B5
:101EB4004CE905084D310208151402080000000021
:101EC400F4E90508950F0208000000000000000076
:101ED40080EA05084D100208F50F02080000000012
:101EE400E4EA0508E1100208A51002080000000059
:101EF4008CEB0508218F02089511020800000000F0
:101F040018EC05082B6B012001060100CD0F020817
:101F1400A50F02080000000014ED0508578E020802
:101F2400E12B02080000000084ED0508698F020817
:101F3400A52C020800000000D4EE05082A6B01203D
:101F440001030100050F0208DD0E02080000000075
:101F5400A8EF0508C18F020800000000000000007F
:101F64000CF005087D8B01082DE10108000000003C
:101F74008CF00508000000000000000000000000D4
:101F840018F10508C91102081D2D020800000000FF
:101F940088F10508FFFFFFFF0000803F00000000FC
:101FA400000000000000000000000000000000002D
:101FB400000000000000000000000000000000001D
:101FC4000000803F0000000000000000000000004E
:101FD4000000803F0000000000000000000000003E
:101FE4000000803F0000000000000000000000002E
:101FF400010000000000FA430000FA43FFFFFFFF66
:10200400FF0000000000803FA5E703080000000077
:10201400000000000000000000000000208B0120F0
:102024000800000000000000108B012008000000E0
:1020340001000000A00F0000B80B00000102FFFF28
:1020440001000000818900086589000821890008D1
:10205400000000001589000801890008ED880008C7
:10206400000000000000000000000000000000006C
:10207400DD88000800000000CD880008718F00088A
:10208400698B0008318B0008458B0008E98A000839
:10209400D58A0008C18A0008F1F40008C98800083C
:1020A40045880008D5930008685E0C000200000013
:1020B40000600240106002400000000000000000C8
:1020C400000B000000000000000000000000000001
:1020D400006002402860024001000000000000008F
:1020E400060C0000000000000000000000000000DA
:1020F4000060024040600240020000000000000056
:10210400100D0000000000000000000000000000AE
:10211400006002405860024003000000000000001C
:10212400160E000000000000000000000000000087
:1021340000600240706002400400000000000000E3
:10214400200F00000000000000000000000000005C
:1021540000600240886002400500000000000000AA
:102164002610000000000000000000000000000035
:1021740000600240A0600240060000000000000071
:10218400301100000000000000000000000000000A
:1021940000600240B8600240070000000000000038
:1021A400362F0000000000000000000000000000C6
:1021B40000640240106402400000000000000000BF
:1021C40000380000000000000000000000000000D3
:1021D4000064024028640240010000000000000086
:1021E40006390000000000000000000000000000AC
:1021F400006402404064024002000000000000004D
:10220400103A000000000000000000000000000080
:102214000064024058640240030000000000000013
:10222400163B000000000000000000000000000059
:1022340000640240706402400400000000000000DA
:10224400203C00000000000000000000000000002E
:1022540000640240886402400500000000000000A1
:102264002644000000000000000000000000000000
:1022740000640240A0640240060000000000000068
:1022840030450000000000000000000000000000D5
:1022940000640240B864024007000000000000002F
:1022A40036460000000000000000000000000000AE
:1022B4003889060800000802050304000000000035
:1022C400408906080100080205040400000000001B
:1022D4006C7A06080200FE010110030000000000F1
:1022E4005860060803001402000300000000000008
:1022F4004889060804001F020200080000000000CC
:102304005089060805001F020201080000000000B1
:10231400FFFF0000FFFFFFFFAD9500080D950008CB
:10232400D50201080000000000000000A900010817
:10233400E1000108000000000000000000000000AF
:10234400A58B0008958B0008858B0008758B000809
:10235400AD06050819000508150005081100050853
:10236400590A05080D0005080900050894440608E3
:10237400FF010000F4010000FF0000001F00000046
:102384001C0000001F0000001E0000001F000000D1
:102394001E0000001F0000001F0000001E000000BF
:1023A4001F0000001E0000001F0000000068214CF8
:1023B400B00100000200000009000000344E0608CD
:1023C40001000000E81801200000000000000000E7
:1023D40000000000000000000000000000000000F9
:1023E40000000000000000000000000000000000E9
:1023F40000000000000000000000000000000000D9
:1024040000000000000000000000000000000000C8
:1024140000000000000000000000000000000000B8
:082424000000000000000000B0
:10242C000100000001000000342300200000000027
:04243C00200000007C
:082800000000000000000000D0
:10800000026C03463AB11A6CD20608D50022012050
:1080100083F83C207047426480F83C20F3E71A6CF8
:1080200049494A4811401A6841F00201F0B4196404
:108030004168474D21F44031416041685C6821430B
:1080400041605168186921F48071D3F808C0DF6875
:10805000516054689E6A44EA0024AE4254605468F9
:1080600024F040745460506840EA0C0050609068FE
:1080700020F400609060916841EA0701916054D05B
:108080009068DC6A20F07060906091680E439660A2
:10809000906820F040509060916821439160906812
:1080A0009C6920F002009060916841EA440191606F
:1080B00093F82010002941D05468596A44F40064B0
:1080C000481E5460516821F460415160516841EA92
:1080D00040315160D06A0025DC6920F470005E698F
:1080E000611ED0622846D46A44EA0154D46294687E
:1080F00024F400749460946893F8301044EA4124A6
:108100009460946824F480649460916841EA8621C4
:1081100091605D641A6C22F0030242F001021A645D
:10812000002283F83C20F0BC7047916821F0706118
:108130009160916821F040519160B0E7516821F45D
:1081400000615160C6E700BFFDEEFFFF0023014064
:108150000100000F2DE9F04F022389468A462DEDDC
:10816000108B99B0DFEDCABA14930346169004330E
:10817000159217934FEADA06169DDDF85CC04FEAB8
:10818000CA0305EB46111396F0004FF0000B01EB0C
:10819000061437010390A6EB86020194049706EBC0
:1081A000460E04EBC202041D381D06EB86072C4464
:1081B000C6EBC60802972844029D02EB46174FEA19
:1081C000C808ED0001EBC60602954FEA0E150595AD
:1081D0004FEACE050695139D4FEA451E019D95ED8C
:1081E000007AD34492ED005AD7ED004AD945D1ED3B
:1081F000006A50ED013A35EE241AD6ED002A1CED46
:10820000016A73EE875A54ED017A33EEC73A36EEBF
:10821000264A77EEA21A36EE666A77EEE27A74EEB6
:10822000256A71EE812A77EE633A37EEC57A36EE2B
:10823000A22A77EEE47A76EEE26A0CED012A37EEB6
:10824000247A77EE857AD1ED018AC1ED006A74EE69
:10825000655A96ED015AB0EE460A94ED004AA7EE33
:108260002B6AD2ED010AE7EEAB3A74EE456AD7ED20
:10827000012AA7EE6B0A9CED007AD5ED014A34EE97
:10828000054A37EE689A90ED005A36EEE02A76EE0F
:10829000E26A30EEA28A32EE222A76EEA06AF0EE90
:1082A000492A75EE640A37EE287A75EE249AE2EED2
:1082B0006B2A74EEC54AF0EE608AB0EE40AAE6EE94
:1082C000AB4AE6EEAB8AA6EEEBAAF0EE496AB0EE58
:1082D000629A37EE695AE2EE2B6AB0EE432A74EEE8
:1082E00008AAA7EEEB9AA7EEAB2A77EE297A35EE2D
:1082F000617A75EEC89A35EE415A75EEC45A37EE7A
:10830000AABA77EEEA7A37EE011A8CED00BA36EEA9
:10831000287AC1ED017A39EE844A76EEC27A1944A0
:1083200075EE885A9C4435EE215A00ED014A70EEF4
:108330008A0A70EE244AC5ED005A36EE686A80ED6E
:10834000001A72EEA33A85ED015A33EE093A04EDB4
:10835000017A72EE266A87ED006A1D44C6ED000AB6
:108360001844C2ED004AC4ED007A1C44C7ED016A0E
:108370001F44C6ED013A1E4482ED013A1A443FF60D
:108380002EAF139A072A40F2C681039A0EF1080E07
:10839000169F08F108000832029E059D4FF0000864
:1083A00094463A46083608357244069C0499D346EA
:1083B000109207EB0C0208340C310F92BA190E928E
:1083C0007A190D923A190C923A180B927A1809926E
:1083D00007F10C020A9201220892149ADDF824C0D7
:1083E0009044159A0A9F02EBC8020B9EA8EB880ED8
:1083F0000C9D02EBC80192ED00BA0D9C01EBC80286
:10840000D1ED00AA0E9802EBC80192ED00AA01EB93
:10841000C802D1ED009A02EBC80192ED009A01EB7F
:10842000C802D1ED008A0F9902EB0E1E92ED008A70
:10843000109A0EEBC80ADEED017A1192CDED047AA6
:108440000AEBC802DAED017A02EBC80A1291CDED0F
:10845000057AD2ED017A0AEBC802DDF820E0CDED15
:10846000017ADAED017A02EBC80ACDED067AD2ED97
:10847000017A0AEBC802CDED027ADAED017ACDED90
:10848000077AD2ED017ADDE91121CDED037A01E021
:10849000F304353F17ED017ADE44D2ED007A94ED16
:1084A000005AF145D5ED006A37EE274AD0ED004A73
:1084B00077EE677A1CED016A96ED007A91ED001A6D
:1084C00076EE055A36EE872A97ED00DA71EE24EA49
:1084D00076EE453A74EE252A31EE641A35EE466A98
:1084E0003EEE825A74EE655A31EE664A72EE854A65
:1084F00031EE471AB0EE67CA47ED014A34EE077A0B
:10850000D1ED014A31EE261AD0ED016A72EEC52A8C
:1085100095ED014AA7EE6BCA74EEE60A96ED010AE4
:10852000E7EE2B7A92ED017A94ED015A74EEA64AA9
:108530003DEE473ADCED006A70EEC4CA70EEC00A48
:10854000B0EE43EA7CEE80CA74EE001A70EE840A44
:10855000ACEEEBEA36EEC54A3DEE077AB0EE63DAF2
:1085600036EE850AACEEAB3AF0EE4EDAA1EE2BDA3F
:10857000A1EE2B6AE1EE6BDA75EE666AB0EE441A94
:10858000F0EE4CCA37EE405AA0EEAB1AE0EEEBCA62
:10859000E0EEAB6A37EE007A74EEA10A35EEE1FA4E
:1085A00075EEE45A75EE6EFA37EE600A71EEA55A72
:1085B000DDED061A35EE425A7FEE244A3FEE822A5E
:1085C00022EEE1FA61EE80FADDED051A3EEE855A03
:1085D0003EEE066A73EEAD3A21EE82EA73EE4DDAB4
:1085E0003DEE033A24EEE1DADDED071A34EE2C4AD3
:1085F0007CEE266A61EE85CA25EEE1CADDED041A3D
:1086000077EE81EA77EEC17AE9EEA2FADDED032A90
:10861000A9EE80FA9DED030AAAEEA4EADDED014A77
:10862000AAEE82DA9DED012AE8EEA5CADDED025A36
:10863000A8EE85CA9DED025A21EEAD1A62EE832A9C
:108640006EEEE11A27EEC00A64EEA34A26EEC22AB5
:1086500065EE865A24EE455AABEE2E1AEBEE2D1A35
:10866000E8EE272AA8EE030AEAEE264AAAEE232A13
:10867000E9EE045AA9EE065A37EE207A87ED007A21
:108680001F44C2ED00FA82ED01FA1A440CED01EA32
:108690008CED00DA9C44C4ED00CA84ED01CA1C4490
:1086A00081ED001AC1ED011A1944C6ED002A86EDCC
:1086B000010A1E44C0ED005A80ED015A1844C5ED70
:1086C000004A85ED012A1D443FF6E4AE1099089A50
:1086D0000831013210910F99089208310F910E99CB
:1086E00008310E910D9908310D910C9908310C91BA
:1086F0000B9908310B910A9908310A9109990831AF
:108700000991139991427FF468AE149B8A46DB006D
:108710009BB214932EE519B0BDEC108BBDE8F08F21
:10872000124B30B41D686B6A28B943EA014300203C
:10873000AB6230BC7047AC6A013803EB14440BD019
:10874000002303F14002013305EB8202DBB25268E1
:10875000834204EB1244F4D3403044EA014405EB75
:1087600080004460002030BC704700BF48190120E1
:10877000037870B42BB30246C0F10105531912F807
:10878000014FDBB2002CF9D101335B000E4C032208
:108790000B8084F8043484F80524017879B102232D
:1087A00000265A1CE518023354FA82F285F80414A4
:1087B000DBB282F8046410F8011F0029F1D170BC0B
:1087C00070470223E2E700BF4819012030B5EFF3FC
:1087D0001181802383F312880A4AD2F80435D2F833
:1087E0000845D2F80405D2F80855CAB282F31188B8
:1087F000013BA84294BF4FF4006000201B1B1844AB
:1088000030BD00BF48190120012380F85130704766
:10881000014BD3F80C05704748190120012070471F
:10882000024BC3F81025C3F81415704748190120EE
:10883000024BC3F81825C3F81C15704748190120CE
:1088400070477047212870B505D0222829D02028EC
:1088500010D0002070BD0029FBD0072AF9D1184B99
:1088600018791C685A799B79087100200C604A714C
:108870008B7170BD0029ECD0072AEAD11148104B4A
:108880000C680E794D79D0F8142589791C601E7119
:108890005D719971002ADCD02146D0F8100590470F
:1088A000D7E70029D5D0022AD3D1064AD2F81C3501
:1088B000002BCED00988D2F818059847C9E700BF29
:1088C00000000120481901200020704703460A22B9
:1088D00001481A80704700BF080001200346642247
:1088E00001481A80704700BF14000120012901D0FF
:1088F00000207047014BD3F890301847000001204A
:10890000012900D05EE1024BD3F88C30184700BF3C
:1089100000000120014BD3F88830184700000120E7
:1089200010B40B780A46044603F00303012B05D06C
:10893000022B0BD000205DF8044B70478B8843B9A5
:10894000204611465DF8044B07F092BD8B88832BBF
:10895000F6D0034B5DF8044BD3F88030184700BFC6
:108960000000012038B5054B04460D46DB6F9847E3
:108970002946204600F0E2FD002038BD000001201D
:1089800038B5054B04460D469B6F9847294620464F
:1089900000F050FE002038BD0000012011F0800FD3
:1089A00001F00F01F0B4D0F8A8424FF01C0042D102
:1089B000C1EBC10500FB0140002604EB850500F575
:1089C000FE7085F8FD61457801708360C27005B165
:1089D000C180022A01D10023037194F8BC33012B1A
:1089E0001AD00122236884F8BC234178057891428B
:1089F0002CD003F5006605F00F0103F530638A40C3
:108A0000F16903EB451341EA0242F2611A6812046C
:108A100005D5002384F8BC330020F0BC7047826881
:108A20001D68C2F30A02C07818492A4342EA80420C
:108A300011431960EDE7C1EBC105012600FB0140C0
:108A400004EB85053C3085F83D60BCE705F00F067A
:108A5000D3F81CC803F5106203F50067B14002EBC0
:108A6000451241EA0C01F96113681904D1D48368F5
:108A70001668C3F30A03C0780449334343EA8043CA
:108A800043EA855319431160C3E700BF008000101B
:108A9000F0B4002452004E1C2746030FB0F1204FC3
:108AA0004FEA001003F1300503F1370334BF0D55D1
:108AB0000B5537550234A242EFD1F0BC704700BFCE
:108AC000024808B5FFF754FE014808BD644E060889
:108AD0004C1D0120024808B5FFF74AFE014808BDB9
:108AE000744E06084C1D01200B481A220B4B0068DF
:108AF0001B680A80C01801D109487047094B082239
:108B0000094910B51C68FFF7C3FF04220749204636
:108B1000FFF7BEFF024810BD107AF01F187AF01F51
:108B2000B0000120147AF01FB2000120C200012021
:108B3000024808B5FFF71CFE014808BD804E060834
:108B40004C1D012008B520B90448FFF711FE044868
:108B500008BD0448FFF70CFE014808BD8C4E06080E
:108B60004C1D0120B04E0608042301480B807047BD
:108B7000CC00012003460A2201481A80704700BF3A
:108B8000D00001200346202201481A80704700BF10
:108B9000DC0001200346202201481A80704700BFF4
:108BA000FC0001200346202201481A80704700BFC4
:108BB0001C01012003460A2201481A80704700BFA9
:108BC0003C0101200023D0F8982218461373704707
:108BD0000346222201481A80704700BF4801012045
:108BE0000346222201481A80704700BF6C01012011
:108BF0000346222201481A80704700BF90010120DD
:108C000003460A2201481A80704700BFB4010120C0
:108C10000346432201481A80704700BFC00101206B
:108C20000346432201481A80704700BF0402012016
:108C30000346432201481A80704700BF48020120C2
:108C4000D0F8943283B110B5D0F8904294F8000275
:108C5000FF2807D09B68214694F801229847FF23FC
:108C600084F80032002010BD0020704701F00F0191
:108C7000D0F8A822C1EBC10102EB810238B5D0F8CF
:108C80009032D0F89452D2F8144203F50371EA6896
:108C9000D3F80402C3F80C429047002038BD00BF4F
:108CA00008B5D0F88C325B689847002008BD00BF3B
:108CB00008B5D0F88C321BB11B68984700B908BDC5
:108CC000022008BD836B0121002283F83D101A7732
:108CD000704700BF0122836B83F83D20704700BFBF
:108CE00090F8BC33012B29D0012380F8BC330B064C
:108CF0000ED402681021124B116101E0013B02D039
:108D00001169C906FAD4002380F8BC3318467047AD
:108D100001F00F010A4B890110B441F020010468F1
:108D2000216101E0013B02D022699206FAD40023BE
:108D300080F8BC3318465DF8044B7047022070473A
:108D4000400D030011F0800F4FF01C0301F00F01E4
:108D500070B432D103FB0103C1EBC102002400EB6C
:108D6000820203F5FE7382F8FD41197090F8BC236E
:108D7000012A31D00121026880F8BC135C781D788B
:108D800002F500638C422AD005F00F04DE6B02F579
:108D90003062A1401C4C02EB451226EA0146DE631C
:108DA000DD6925EA0141D96113681C401460002384
:108DB00080F8BC33184670BC704703FB0103C1EB5D
:108DC000C102012400EB82023C3382F83D4019705D
:108DD00090F8BC23012ACDD1022070BC704705F069
:108DE0000F01DE6B02F510628C40084902EB451260
:108DF00026EA0406DE63DD6925EA0404DC61136803
:108E000019401160D3E700BF0078F3EF007833EC2E
:108E10002DE9F843884600294FD04718461E284CB4
:108E2000802507F1FF39EFF3118185F31288D4F81B
:108E30000425C9B2D4F80805D4F80435D4F808C517
:108E400081F31188634594BF4FF400630023121A25
:108E50001344012B1AD101203BF0EEFBEFF31181FB
:108E600085F31288D4F80425C9B2D4F80805D4F8DB
:108E70000435D4F8087581F31188BB4294BF4FF4D0
:108E800000630023121A1344012BE4D0EFF3118284
:108E900085F31288D4F80835D2B216F8011F23449E
:108EA00083F82015D4F808350133C3F30A03C4F856
:108EB000083582F311884E45B5D14046BDE8F883A8
:108EC00048190120F8B5002390F8505080F8503030
:108ED000CDB10F4E96F8942F032A16D1D6F8CC7F39
:108EE00000F13C0429462046FFF792FFD6F8CC3F1C
:108EF0002D1A0444DB1B322B01D8002DF2D1B5FA18
:108F000085F04009F8BD0120FCE71846FAE700BFEC
:108F100048190120002280F85120D3E790F8502012
:108F2000531C0244DBB280F8503082F83C1090F8B9
:108F300051200AB1132B00D9C4E77047F8B50B4E86
:108F40000D46144696F8943F032B0ED1D6F8CC7FED
:108F5000002C0ADD21462846FFF75AFFD6F8CC3F01
:108F6000241A0544DB1B322BF2D9F8BD4819012025
:108F700010B503200C464CF0F3FD03280AD0074B34
:108F800093F8D03F012B4FF012030CBF0448054863
:108F9000238010BD12230448238010BD48190120EE
:108FA000B4020120A00201208C0201202DE9F04F23
:108FB000DFF81883B94D44462DED068B89B0CDE915
:108FC000060105920FCD0FC40FCD0FC4B44B95E829
:108FD000070093F8D63F84E80700042B00F20C81C9
:108FE000DFE813F036010A010501050044019FED99
:108FF000AD8A9FEDAD9AAD4AAD4B0598AD490028BD
:1090000018BF1346AC4AC8E9062139EE087ADFEDED
:10901000AB7AF5EE006AAA4A28EE278AA94FB0EE8D
:1090200067AA02F1150BC6EE879A0026DFEDA68A25
:109030000292C8F82430079BB34200F0D280029A13
:10904000731C12F8014B0393DBB20292002C00F068
:109050001B81002203E00132152A00F0158102EB8A
:10906000420155001BF80100A042F4D104938C4B3F
:10907000194491F8F11F002900F00E8120463AF0C2
:1090800057FD824600684BF009FA9AF805103AF04D
:1090900089FE0178002940F0F78020090322DFF8DB
:1090A000409204F00F0C441E049B4D44944205F87A
:1090B000C73C05F8C82C00F2C580784901EB440193
:1090C000888D40FA0CF111F0010100F0BB80012104
:1090D0000493A9F19C0501FA0CF1013908404FF005
:1090E00051F86E4B032202211C44049B94F8344037
:1090F000204405EBC00078618271C3719AF80820A2
:109100003CF032FD059B002B7BD0654B6449B3F8E6
:10911000D43F91F8D61F07EE903AD9F8EC300429E5
:10912000F8EEE77AFCEEE77A17EE900AB3FBF0F27E
:1091300002F57F4202F1FF024FEA1242B3FBF2F264
:10914000B2FBF0F083B272D007EE902AF8EE676AB5
:1091500066EE887A28EEE77A5149C7ED027A91F8EF
:10916000D70FA9EE267A069901903846009151460C
:1091700087ED037A2EF064FC002E65DD7B68D8F85D
:109180003820934262D0012E5ED0D8F8502093420E
:109190005CD0022E58D0D8F86820934256D0032EC7
:1091A00052D0D8F88020934250D0042E4CD0D8F81A
:1091B000982093424AD0052E46D0D8F8B02093424A
:1091C00044D0062E40D0D8F8C820D31A18BF0123A7
:1091D000039E01223B741837082E07F8072C7FF4F2
:1091E0002AAF3A4809B0BDEC068BBDE8F08F9FED81
:1091F000388AB0EE489AFEE69FED368AB0EE489A7D
:10920000F9E6FAFE697AFCEEE77AD9F8EC104FF647
:10921000FF7317EE902A1846B1FBF2F21A44120CB3
:10922000B1FBF2F21E4991F8D61F04298CD107EE4A
:10923000900A07EE102AF8EE677AF8EE476A67EEB2
:109240008A7A87E779615DE70123C1E70023BFE7F9
:109250000023184A01219FED198A0693164BB0EEA0
:10926000489A0591C8E90632104BCEE60023114A10
:1092700001219FED198A06930F4BB0EE489A059194
:10928000C8E90632094BC0E6144A0020074BC8F86B
:109290001C20C8F82430A5E70B68FFDE70C1050864
:1092A00048190120ACC5A737ACC5A7369D1D0408D9
:1092B000D14D030859530308A91D04086F12833ABE
:1092C000232901204800002000007A4414000020D7
:1092D000282930386F12033900000000BD50030800
:1092E000402A012070B5D0F8A852C1EBC1000C464D
:1092F000002605EB80001C21C0F80822C0F81032BF
:1093000080F8FC41C0F8146280F8FD612B6901FB14
:109310000451012B01F5FE7108BFC0F80C22DAB22E
:1093200028681CB90AF0D0FB002070BD0AF058FC78
:10933000002070BD0E48D0F8B03F10B5A3B190F832
:10934000304D00F55260D3F8042234B1002440239C
:109350000121FFF7C7FF204610BD4FF40073012124
:10936000FFF7C0FF204610BD0224204610BD00BFFD
:109370004819012010B50C4CD4F80C3563B10B49D9
:10938000013BD1F8F020C4F80C3512F8014BC1F8BC
:10939000F020047013B10123184610BDFFF7CAFF77
:1093A0000123184610BD00BF48190120402A0120A2
:1093B00013B5074CD4F8F03003B9FEE701A8FFF766
:1093C000D9FF0028F6D09DF8040002B010BD00BF00
:1093D000402A012010B50B68064C074AC4F80C352A
:1093E000C2F8F0000BB1002010BDFFF7A3FF002072
:1093F00010BD00BF48190120402A012038B5D0F81F
:10940000A84201F00F03626893422BD80A062BD4BE
:109410001C25C1EBC102002005FB014104EB8202C7
:1094200001F5FE7182F8FD0101220B708A7094F83B
:10943000BC03904216D084F8BC234A782068012AE5
:1094400009781DD000F5306202EB41121568002D3D
:1094500000DBF1B9116841F4001111601BB3002366
:1094600084F8BC33002038BD1C21C3EBC3020120AB
:1094700001FB034104EB82023C3182F83D00D3E75B
:1094800000F5106202EB411215680029E2D0002DB0
:10949000E0DB116821F080411160116841F4001196
:1094A0001160002BDBD104F57172217C0AF0E0FA27
:1094B000D5E700BF10B504468021FFF79FFF0021CC
:1094C0002046BDE8104099E770B5D0F8A052044698
:1094D00095F8183213B9D5F814323BB981212046DA
:1094E000FFF78CFF6B7A022B07D070BD6B7A002BD5
:1094F000F4D10121FFF782FFF0E705F50372204662
:109500001F230121BDE87040ECE600BF38B50446DA
:1095100000250121D0F8A802FFF714FC8121D4F81E
:10952000A802C4F85851FFF70DFCD4F8A002E56278
:1095300052F0B6FC2846C4F8A05238BD38B50446EF
:109540008321D0F8A8020025FFF7FCFBD4F898028D
:10955000656518B152F0A4FCC4F89852002038BDDB
:1095600038B5044600258121D0F8A802FFF7EAFBB0
:109570000121D4F8A802E562FFF7E4FBD4F8A802C1
:109580008221C4F85851FFF7DDFBD4F890322564EE
:109590004BB1D4F894325B689847D4F8900252F0FB
:1095A0007FFCC4F89052002038BD00BF70B5037C2A
:1095B000044601259BBB4FF4007302222946FFF7A6
:1095C000EDF94FF40073C4F858510222812120466E
:1095D000FFF7E4F9E5624FF41B7052F059FC0546C1
:1095E000C4F8A00220B30026D4F8A4320681304685
:1095F000A5F85C621B6898470121D4F8A802FFF720
:109600006FFB8121D4F8A802FFF76AFB05F503720E
:1096100020461F230121FFF765FE304670BD402321
:1096200002222946FFF7BAF94023C4F85851CCE783
:10963000022070BD10B50823032283210446FFF7E2
:10964000ADF901231020636552F022FCC4F89802A2
:1096500018B103460020187310BD022010BD00BFD2
:109660002DE9F041037C04460125BBBB4FF4007398
:1096700002228121FFF792F929464FF4007302225A
:109680002046E562FFF78AF9C4F858514FF0010807
:109690000823032282212046FFF780F94FF4077048
:1096A000C4F8408052F0F4FB0546C4F8900258B369
:1096B000D4F8943200271B689847267CC5F81472AA
:1096C0004146D5F804222046C5F81872AEB14023B1
:1096D0003E46FFF707FE3046BDE8F08140230222F8
:1096E0008121FFF75BF92946402302222046E562EB
:1096F000FFF754F9C4F85851C8E74FF40073FFF767
:10970000F1FD3046BDE8F0814646E4E7154BDB68E5
:10971000C3F3022310B4C3F107041A1D042C28BF9D
:109720000424062A4FF0FF328CBF033B0023A240E3
:10973000002821EA020101FA03F108DB09010A4BC2
:10974000C9B2034483F800135DF8044B704700F07E
:109750000F000901054BC9B2034419765DF8044BAB
:10976000704700BF00ED00E000E100E0FCEC00E02D
:10977000F0B50446006883B0820AA2F58012522A2E
:1097800005D82F4E324492F838500D2D01D903B030
:10979000F0BD2C4A00214AF0D1FD2B4B02272B4A69
:1097A00003EB8510AD01D0F8F41080F831718868B2
:1097B0000240062A06D0B2F5803F03D00A6842F084
:1097C00001020A601D4421680124214A0023214826
:1097D00085F8314101E050F8332091420CD001333B
:1097E0000E2BF8D101210020FFF790FF002003B0DD
:1097F000BDE8F0400AF080BF06EBC303012193F9F6
:10980000910093F891400190FFF780FF01980AF0D2
:1098100073FF1B2C08D101211920FFF777FF0E4B96
:109820004FF000721A60B2E72E2CB0D101212C202B
:10983000FFF76CFF084B4FF480525A60A7E700BF58
:1098400070C1050840420F00402A012007000100B6
:1098500000000140FCC1050800E100E038B50F4BF5
:109860000F4AD3F8EC30A2FB03239B09013BB3F171
:10987000807F10D20B4A0024F0200B49072553604B
:1098800081F82300214694604FF0FF301560FFF708
:109890003DFF204638BD012038BD00BF402A0120D1
:1098A000D34D621010E000E000ED00E0430901221A
:1098B00000F01F0084B0013B02FA00F0032B0BD82C
:1098C000DFE803F015021E0C124B5A6C02435A6477
:1098D0005A6C10400090009B04B070470D4B1A6BFF
:1098E00002431A631A6B10400390039BF4E7094B81
:1098F0005A6B02435A635A6B10400290029BEBE78B
:10990000044B1A6C02431A641A6C10400190019BBC
:10991000E2E700BF0038024018B1002220213CF0ED
:1099200023B970472DE9F0416C4C00234FF4F072DD
:109930002021064604F5976084F8B43452F0E0FA2A
:1099400004F5D3604FF4F072202152F0D9FA94F864
:10995000790810B194F87A281AB900252846BDE88C
:10996000F0813CF0D7F90746C4F888083CF014FBB6
:1099700005460028F1D00FB12323FB800D21384686
:109980003CF0AEF9D4F888083CF01AFB94F87A0859
:10999000534F013840B23DF03DFD02232021C4F871
:1099A000800884F87C3848F03BFBB7F8C6124D4875
:1099B0003DF0ECFBD4F888083CF0FCFAFF218C2049
:1099C00048F04CFD8046D4F888083CF0F9FA0821AC
:1099D000D4F8800848F024FBB8F11B0F05D0D4F868
:1099E00088080025FFF798FFB8E70122D4F88838E7
:1099F00084F8B4240BB12322DA80B7F8C6123948B0
:109A00003DF0C4FBD4F888083CF0D4FA40210A2089
:109A100048F024FDFF218A2048F020FD0346D4F8B9
:109A20008808C3F3801384F88C383CF0C9FA082105
:109A3000D4F8800848F0F4FA94F87838012B44D030
:109A4000022B3AD0EBB394F88D38182B09D194F847
:109A50008C28B7F8C632A4F89068A4F89228A4F825
:109A60009438B7F8C6121F483DF090FBB7F8C612FD
:109A70001C483DF08BFBD4F888083CF09BFA02218F
:109A8000002048F0EBFCD4F888083CF099FA082153
:109A9000D4F8800848F0C4FA94F89D2894F89E38C9
:109AA000C2F1200294F89C18C3F1100384F89F2897
:109AB00084F8A03884F8981850E71023A7F8C63225
:109AC000C1E72023A7F8C632BDE7002EF5D094F8F1
:109AD0008C38002B14BF10232023EFE7402A0120ED
:109AE00000000120BC32012000487047042A0120F8
:109AF000002800F08F80B0F804C0BCFA8CF3202B53
:109B0000C3F11F0200F086806F4B2DE9F04F9D18C6
:109B1000DFF8E48185B0036808EB820095F8FC204B
:109B20000024DFF8D8E10192C0F8A418674A02E0E7
:109B30000134102C65D04FF0010909FA04F10CEA48
:109B4000010531EA0C01F3D14FF0030A04FA09F7D9
:109B500018684FF00F0B0AFA07F704EA0A0124F01D
:109B6000030620EA0700890006F1804618600BFA18
:109B700001F0D3F80CB006F59C362BEA0707DF603E
:109B8000DEF8447047F48047CEF84470DEF8447045
:109B900007F480470397039FB76827EA00004C4FFC
:109BA000BB421AD007F58067BB4234D0494FBB4255
:109BB00035D0494FBB426BD0484FBB4271D0484F64
:109BC000BB4269D0474FBB4278D0474FBB420CBF26
:109BD0000727082707FA01F10843B060013411682C
:109BE000102C41EA05011160516821EA050151601C
:109BF000916841EA05019160D16821EA0505D560C7
:109C000099D1019B984498F8E438F02B0CD805B012
:109C1000BDE8F08F704709FA01F10843DDE702273C
:109C200007FA01F10843D8E7F021304B264888F8BD
:109C3000E418D968019AC1F302210244C1F1070076
:109C40000B1D92F80C41042892F90C2128BF042026
:109C5000062B4FF0FF338CBF033900218340002ACD
:109C60006FEA030303F0030303FA01F31EDB20484A
:109C700001211B0104F01F0485185209DBB201FA0F
:109C800004F485F8003340F8224005B0BDE8F08FB9
:109C90000AFA01F10843A0E7052707FA01F1084392
:109CA0009BE7042707FA01F1084396E704F00F0445
:109CB0001B01104ADBB222441376A8E7062707FAF5
:109CC00001F1084389E700BF70C10508003C01406D
:109CD0000000024000080240000C02400010024058
:109CE0000014024000180240001C024000ED00E099
:109CF00000E100E0FCEC00E0402A012000380240D6
:109D00002DE9F04F002383B0DFF810820D68DFF8F3
:109D100010E203E00133102B00F0B88001229A40DA
:109D200032EA050405EA020CF4D14C6824F010076D
:109D3000022F40F0AE80DF0803F0070A4FF00F0B50
:109D40000E6900EB87074FEA8A0AD7F820900BFAD2
:109D50000AFB06FA0AF64FEA430A29EA0B094FF012
:109D6000030B46EA09090BFA0AF604EA0B0BC7F8DB
:109D700020906FEA060907680BFA0AFB27EA060635
:109D80004BEA060606608768C4F3001607EA090B6B
:109D9000CF689E4007FA0AF747EA0B0787604768D3
:109DA00027EA020216434660C668E7008A6806EAA8
:109DB000090902FA0AF242EA0902C260AAD5D8F8F1
:109DC000447023F0030903F003020F2647F4804791
:109DD00009F180499200C8F8447009F59C39D8F817
:109DE000447006FA02FA07F480470197444F019E37
:109DF000B842D9F8086026EA0A061AD007F5806743
:109E0000B8425ED03F4FB84260D03F4FB84262D0B8
:109E10003E4FB84264D03E4FB84266D03D4FB84244
:109E200068D03D4FB8420CBF0727082707FA02F257
:109E30001643C9F808606FEA0C07DEF80020E60355
:109E400003F1010354BF3A404CEA0202CEF800206D
:109E5000A203DEF8046054BF3E404CEA0606E2026C
:109E6000CEF80460DEF8086054BF3E404CEA0606B7
:109E7000A402CEF80860DEF80C2054BF3A404CEA49
:109E80000202102BCEF80C207FF448AF03B0BDE8DF
:109E9000F08F4FEA430A4FF00309D0F800B0013FBA
:109EA00004EA090609FA0AF9012F2BEA090B06FA56
:109EB0000AF66FEA090946EA0B0606603FF674AF38
:109EC00061E7012707FA02F21643B2E7022707FA11
:109ED00002F21643ADE7032707FA02F21643A8E79A
:109EE000042707FA02F21643A3E7052707FA02F24E
:109EF00016439EE7062707FA02F2164399E700BFCA
:109F00000000024000080240000C02400010024025
:109F10000014024000180240001C024000380240B9
:109F2000003C01402DE9F041D0F800E00C46DFF89C
:109F3000588084B0DEF804501746DFF850C0194648
:109F400005EA0805DDF82880064603932C434246BF
:109F500044EA0C0CCEF804C00AF01CFC78B9316855
:109F60000246039B30468F624021CDF800800AF004
:109F700041FC003818BF012004B0BDE8F081012089
:109F800004B0BDE8F08100BF009800FC0020018013
:109F9000F8B5144F04460D460BE09B69DB0602D56D
:109FA0000AF0B8FBE0B9D7F8EC385B1BB3F5805F7B
:109FB00009D823682A464FF4805120469E69B60688
:109FC000EBD50020F8BD636C2021002201200B435B
:109FD00084F84020636484F8411084F84220F8BD7E
:109FE0000120F8BD402A01202DE9F84FCB4C054651
:109FF00094F8F018D4F8F808C1F340013BF0E6FFFC
:10A0000094F8F018D4F8F408C94301F001013BF0CA
:10A01000DDFF002D00F0E78005F1FF39C04E4FF065
:10A020001008C04F5FFA89F9BF4DD4F8F83833B142
:10A030001A689B8851690B4218BF1B049361D4F8BE
:10A04000F43833B11A689B8851690B4218BF1B045E
:10A050009361B4F80039002B40F0578194F802194D
:10A06000D4F804093BF0B2FFFA204FF47A714FF0B4
:10A07000010C7B68C3F30803002B40F01981EFF358
:10A080001183002B40F01481D6F8CC2FD5F808E0CE
:10A09000D6F8CC3F9A42F7D1D4F828399E45F3D868
:10A0A000D4F824A901FB0AF3A3EB0E03B3FBFAF3E4
:10A0B00001FB02327B68C3F30803002B40F0B6803B
:10A0C000EFF31183002B40F0B180D6F8CC3FD5F8E8
:10A0D00008B0D6F8CCEF7345F7D1D4F828E9F345AA
:10A0E000F3D8D4F824A901FB0AFEAEEB0B0EBEFB9D
:10A0F000FAFE01FB03E39B1AB3F57A7FDAD301384A
:10A10000B7D1D4F8F83833B11A689B8851690B423B
:10A1100018BF1B049361D4F8F43833B11A689B88D4
:10A1200051690B4218BF1B049361B4F80039002B2E
:10A1300040F0DF8094F80219D4F8040981F001019D
:10A140003BF044FFFA204FF47A714FF0010C7B682A
:10A15000C3F30803002B40F08A80EFF31183002B38
:10A1600040F08580D6F8CC2FD5F808E0D6F8CC3F63
:10A170009A42F7D1D4F828399E45F3D8D4F824A9C7
:10A1800001FB0AF3A3EB0E03B3FBFAF301FB02326C
:10A190007B68C3F3080343BBEFF311832BBBD6F8F3
:10A1A000CC3FD5F808B0D6F8CCEF7345F7D1D4F84A
:10A1B00028E9F345F3D8D4F824A901FB0AFEAEEB55
:10A1C0000B0EBEFBFAFE01FB03E39B1AB3F57A7F8D
:10A1D000DED30138BBD109F1FF395FFA89F9B9F152
:10A1E000FF0F7FF422AFBDE8F88FEFF3118A88F3F9
:10A1F0001288D5F808B02B68DB0303D5C4F820C952
:10A20000D5F808B0D6F8CC3F5FFA8AFAD4F820E93E
:10A210008AF31188D4F824A9734401FB0AFEAEEB3B
:10A220000B0EBEFBFAFE01FB03E3CEE7EFF3118A50
:10A2300088F31288D5F808B02B68DB0303D5C4F87F
:10A2400020C9D5F808B0D6F8CC3F5FFA8AFAD4F81E
:10A2500020E98AF31188D4F824A9734401FB0AFE8B
:10A26000AEEB0B0EBEFBFAFE01FB03E343E7EFF39D
:10A27000118E88F31288D5F808A02B68DA0303D56D
:10A28000C4F820C9D5F808A0D6F8CC3F5FFA8EFEF6
:10A29000D4F820298EF31188D4F824E91A4401FB5C
:10A2A0000EF3A3EB0A03B3FBFEF301FB02326FE7ED
:10A2B000EFF3118E88F31288D5F808A02B68DA0323
:10A2C00003D5C4F820C9D5F808A0D6F8CC3F5FFA6A
:10A2D0008EFED4F820298EF31188D4F824E91A448C
:10A2E00001FB0EF3A3EB0A03B3FBFEF301FB023207
:10A2F000E0E6D4F81C39002B3FF424AF0023D4F857
:10A300000829136084F819391CE7D4F81C39002B8C
:10A310003FF4AAAE3AF05AFAA6E600BF402A01205E
:10A320004819012000ED00E010E000E02DE9F04FB9
:10A33000CA4C83B00523CA4E94F8F0184FF01009A8
:10A34000D4F8F808C1F3400101933BF03FFE94F8C4
:10A35000F018D4F8F408C943DFF80C83C14D01F0BC
:10A3600001013BF033FED4F8F83833B11A689B880A
:10A3700051690B4218BF1B049361D4F8F43833B110
:10A380001A689B8851690B4218BF1B049361B4F88B
:10A390000039002B40F0598194F80219D4F80409CF
:10A3A0003BF014FE32204FF47A710127D8F80430C4
:10A3B000C3F30803002B40F01B81EFF31183002B44
:10A3C00040F01681D6F8CC2FD5F808E0D6F8CC3F6F
:10A3D0009A42F7D1D4F828399E45F3D8D4F824A965
:10A3E00001FB0AF3A3EB0E03B3FBFAF301FB02320A
:10A3F000D8F80430C3F30803002B40F0B780EFF324
:10A400001183002B40F0B280D6F8CC3FD5F808B0CD
:10A41000D6F8CCEF7345F7D1D4F828E9F345F3D853
:10A42000D4F824A901FB0AFEAEEB0B0EBEFBFAFE2C
:10A4300001FB03E39B1AB3F57A7FD9D30138B5D179
:10A44000D4F8F83833B11A689B8851690B4218BFA9
:10A450001B049361D4F8F43833B11A689B885169AE
:10A460000B4218BF1B049361B4F80039002B40F075
:10A47000E08094F80219D4F8040981F001013BF05E
:10A48000A5FD32204FF47A710127D8F80430C3F3C8
:10A490000803002B40F08B80EFF31183002B40F07A
:10A4A0008680D6F8CC2FD5F808E0D6F8CC3F9A4273
:10A4B000F7D1D4F828399E45F3D8D4F824A901FB64
:10A4C0000AF3A3EB0E03B3FBFAF301FB0232D8F855
:10A4D0000430C3F3080343BBEFF311832BBBD6F85F
:10A4E000CC3FD5F808B0D6F8CCEF7345F7D1D4F807
:10A4F00028E9F345F3D8D4F824A901FB0AFEAEEB12
:10A500000B0EBEFBFAFE01FB03E39B1AB3F57A7F49
:10A51000DDD30138B9D1019B5F1E17F0FF03019312
:10A520007FF421AF03B0BDE8F08FEFF3118A89F318
:10A530001288D5F808B02B68DB0303D5C4F820795E
:10A54000D5F808B0D6F8CC3F5FFA8AFAD4F820E9FB
:10A550008AF31188D4F824A9734401FB0AFEAEEBF8
:10A560000B0EBEFBFAFE01FB03E3CEE7EFF3118A0D
:10A5700089F31288D5F808B02B68DB0303D5C4F83B
:10A580002079D5F808B0D6F8CC3F5FFA8AFAD4F82B
:10A5900020E98AF31188D4F824A9734401FB0AFE48
:10A5A000AEEB0B0EBEFBFAFE01FB03E342E7EFF35B
:10A5B000118E89F31288D5F808A02B68DA0303D529
:10A5C000C4F82079D5F808A0D6F8CC3F5FFA8EFE03
:10A5D000D4F820298EF31188D4F824E91A4401FB19
:10A5E0000EF3A3EB0A03B3FBFEF301FB02326EE7AB
:10A5F000EFF3118E89F31288D5F808A02B68DA03DF
:10A6000003D5C4F82079D5F808A0D6F8CC3F5FFA76
:10A610008EFED4F820298EF31188D4F824E91A4448
:10A6200001FB0EF3A3EB0A03B3FBFEF301FB0232C3
:10A63000DEE6D4F81C39002B3FF423AF0023D4F816
:10A640000829136084F819391BE7D4F81C39002B4A
:10A650003FF4A8AE3AF0BAF8A4E600BF402A0120C1
:10A660004819012010E000E000ED00E010B4B8B19E
:10A670000D4CD4F82C39102B05D1052100205DF8A4
:10A68000044B39F075BD03EB4302224482F83119C3
:10A69000012182F830090B4482F83219C4F82C39B0
:10A6A0005DF8044B704700BF402A01202DE9F04FB0
:10A6B000D04C002387B004F5166894F87429C4F8C8
:10A6C0006039C8E90133C8E903331AB194F8753920
:10A6D00084F8603994F876391BB194F8773984F8A6
:10A6E0006F3994F87A391BB194F87B3984F86A3958
:10A6F00094F878391BB194F8793984F8653994F86D
:10A700007C39013B4FFA83FADBB2BAF1FF3F029387
:10A7100000F01481B022B849B84D002302FB0A11A1
:10A720002E4605F1280001F58A711F469B460193CC
:10A7300051F074FB03953578514628463DF004F9F5
:10A740008146002840F0FD8001370536042FF2D104
:10A7500094F88C09039DFFF7A9F84FF44032A84EF6
:10A7600000230121C4F894293046D4F88829C4F87C
:10A77000ACB9C4F8A819C4F8A01984F8C019C4F871
:10A780009839C4F8B839C4F8BC39C4F89C3984F88D
:10A79000B039C4F8B439C4F8A439C4F89029FDF725
:10A7A0002FFCBAF1000F40F0EB80019B83F0010910
:10A7B00019F0FF0F40F0E480A6F108004CF0E2FB36
:10A7C000012308F11408EA78002A40F031810535A8
:10A7D000A845F8D104EB0A030299022093F98429D1
:10A7E0003BF076F80546002800F0A8800027406876
:10A7F0004AF0F6FB06213A46DFF820824AF000FCD8
:10A80000BBF1010F4FF400638CBF4FF480613946F8
:10A81000D5E90102C4F8E8194FF400554FF48071EE
:10A82000C4F8DC29C4F8EC394FF400320323C4F82F
:10A83000D8094046C4F8E079C4F8003AC4F8E4798D
:10A84000C4F8FC79C4F8047AC4F8087AC4F8F0595A
:10A85000C4F8F419C4F8F8290AF088FD94F8CC3942
:10A86000C4F8C889012B0597C4F8106A66D0012383
:10A87000D4F8905984F8CC39AB68DE0713D4D4F8F7
:10A88000EC306049AA68B3FBF1F342F0010203EB3C
:10A890004303AA600593059B2BB1059B013B0593E0
:10A8A000059B002BF9D1AB68D80747D5D4F8D02940
:10A8B000554B134043F48073C4F8D0396B68590585
:10A8C00007D5D4F8D03923F4405343F48053C4F867
:10A8D000D039D4F8D03913F4805340F03B81C4F818
:10A8E000D4394A4800234A496FF02202C4F8180AB2
:10A8F000484884F8CC395B46C4F8141A05F14C0179
:10A90000C4F8240A2A606E68434A46F080664348C9
:10A910006E60AE6846F48076AE600AF09FFC404BF5
:10A920005A68D20640F02381D4F890399A6812F020
:10A93000405F03D19A6842F080429A6007B0BDE858
:10A94000F08F28463BF0E6F9FB1D03210022DBB225
:10A95000CDF8049008B18371C2713BF0C1F9307831
:10A960003DF024F80BF1010386F802B05FFA83FB97
:10A970004FF00703707033714FF00103F370E3E69B
:10A98000B02200212748482751F0BAFAB02200210E
:10A99000244851F0B5FA244B384684F83C7AC4F880
:10A9A000383AFEF783FF4FF4403000230121D4F8FA
:10A9B000382AC4F8440A1D48C4F8581AC4F8501A72
:10A9C00084F8701AC4F8483AC4F8683AC4F86C3A83
:10A9D000C4F84C3AC4F85C3A84F8603AC4F8643A73
:10A9E000C4F8543AC4F8402AFDF70AFB0D484CF06D
:10A9F000C9FAE5E6402A012070C10508A03301200C
:10AA0000D033012040420F00FEF8FFFFFD1C01087B
:10AA1000011D0108ED1C0108080100201834012067
:10AA200000230140783401200020014080340120BF
:10AA300094F8CC0900215A1C2F7901280491D2B234
:10AA400069783DD04FF00100092984F8CC094ED92E
:10AA50004FF0030E6FF01D00D4F890C94FF00709B6
:10AA60001EFB0100DCF80CE009FA00F907FA00F01F
:10AA70002EEA0907CCF80C70DCF80C703843CCF8DF
:10AA80000C00062B4FF005001CD86FF0040710FBDC
:10AA90000373D4F890791F2000FA03FC786B01FA55
:10AAA00003F320EA0C007863786B03437B63D4F8EC
:10AAB00090393E48834230D04FF0000384F8CC39BF
:10AAC000134684E60C2B32D86FF0220710FB037379
:10AAD000D4F890091F2707FA03FC076B01FA03F368
:10AAE00027EA0C070763076B3B430363DFE7D4F8F0
:10AAF000900901EB41094FF0070ED0F810C007FA9A
:10AB000009F70EFA09FE2CEA0E0CC0F810C0D0F8B6
:10AB100010C047EA0C070761B3E7122921D01129B9
:10AB2000CAD123494B6843F400034B60C4E76FF07C
:10AB3000400710FB0373D4F890091F2707FA03FCA2
:10AB4000C76A01FA03F327EA0C07C762C76A3B43E7
:10AB5000C362ACE7D4F8D43923F00603C4F8D4397F
:10AB6000BFE613494B6843F480034B60A4E7D4F875
:10AB700090290E498A420DD05B68DB063FF5DEAEB8
:10AB80000C4B9A427FF4DAAE9A6812F0405F7FF481
:10AB9000D5AECFE6936813F0405F03D1936843F0DE
:10ABA00080439360024B5B68C8E600BF0020014011
:10ABB00000230140002201402DE9F041D0F800E0DF
:10ABC0000C46DFF8588084B0DEF804501746DFF8F2
:10ABD00050C0194605EA0805DDF8288006460393AB
:10ABE0002C43424644EA0C0CCEF804C009F0D2FDD6
:10ABF00078B931680246039B30468F628021CDF8D8
:10AC0000008009F0F7FD003818BF012004B0BDE84E
:10AC1000F081012004B0BDE8F08100BF009800FC85
:10AC2000002001810A4610B102213AF09DBF704711
:10AC3000034690F83C00012800F03E810220F0B469
:10AC4000012483F83D0083F83C40142A45D8DFE80E
:10AC500012F04D004400440044007B0044004400D6
:10AC60004400DA00440044004400AA0044004400C8
:10AC70004400060144004400440015001A688E6830
:10AC8000156A0F6825F48015AB4C1562106A55687B
:10AC900020F40010D2F854C040EA0650A74E0CEA47
:10ACA0000404B24244EA072400F0088106F58066F5
:10ACB000B24200F003814E6855605465D66510625B
:10ACC000506D0C6940F400605065506D20F4806058
:10ACD0005065516D41EA0421516500220121104661
:10ACE00083F83D1083F83C20F0BC70471A68D1F817
:10ACF00008C0156A0F6825F00105914C1562106AAD
:10AD00005668956920F002002C408C4D40EA0C00FA
:10AD1000AA4244EA070400F0DD8005F58065AA42F6
:10AD200000F0D8804D685660946155631062906958
:10AD30000C6940F008009061906920F00400906177
:10AD4000916921439161C8E71A68D1F808C0156A72
:10AD50000F6825F010057B4C1562106A56689569DE
:10AD600020F020002C40754D40EA0C10AA4244EA25
:10AD7000072400F0C38005F58065AA4200F0BE807C
:10AD80004D68566094619563106290690C6940F457
:10AD900000609061906920F480609061916941EA5F
:10ADA0000421916199E71A688E68156A0F6825F485
:10ADB0008055644C1562106A556820F40050D2F832
:10ADC0001CC040EA06305D4E0CEA0404B24244EA7C
:10ADD000072400F08D8006F58066B24200F088807E
:10ADE0004E685560D46116641062D0690C6940F4F5
:10ADF0000060D061D06920F48060D061D16941EAFF
:10AE00000421D16169E71A68D1F808C0156A0F6892
:10AE100025F480754A4C1562106A5668D56920F48D
:10AE200000702C40454D40EA0C20AA4244EA070439
:10AE300073D005F58065AA426FD04D685660D46125
:10AE4000D5631062D0690C6940F00800D061D06908
:10AE500020F00400D061D1692143D1613DE71A6837
:10AE60008E68156A0F6825F48035374C1562106AB4
:10AE7000556820F40030D2F854C040EA06402F4E06
:10AE80000CEA0404B24244EA07041DD006F58066C9
:10AE9000B24219D04E685560546596651062506D87
:10AEA0000C6940F008005065506D20F004005065BA
:10AEB000516D2143516510E70220704725F480252C
:10AEC0004E6945EA8625F6E625F480354E6945EA61
:10AED0000625DFE726F4407C20F008008E69CF6865
:10AEE0004D693843354320F0040045EA0C0619E764
:10AEF00025F480454E6945EA861571E726F4406CD5
:10AF000020F080008E69CF684D6940EA0710354314
:10AF100020F040004CEA850632E726F4405C20F43D
:10AF200000608E69CF684D6940EA0720354320F400
:10AF300080604CEA051680E7FF8FFFFE00000140AD
:10AF40008CFFFEFFFF8CFFFE8FFFFEFFF0B5D823C6
:10AF5000884E83B003FB0063D3F8E82A002A00F090
:10AF6000C38093F8F21A0022044683F8F62A0846B2
:10AF7000FEF79CFC01F01F024909012301399340AF
:10AF800003290AD8DFE811F0E9000400EF00E3002C
:10AF900079494A6A22EA03034B62D823651C03FB02
:10AFA0000463EDB293F8EC0A3AF0B4FE074610B130
:10AFB0001223C5718371D82303FB046393F8ED0A50
:10AFC0003AF0A8FE10B11323C5718371D82303FB97
:10AFD000046393F8EE0A3AF09DFE10B11423C57194
:10AFE0008371D8252E21384605FB046595F8EF2A94
:10AFF0003AF07EFF95F8ED0A3AF08CFE95F8F02ACB
:10B000002E213AF075FF95F8EE0A3AF083FE95F896
:10B01000F12A0E213AF06CFFD5F8E83A57491A6840
:10B020008B4222F040021A6060D0554A934200F0F1
:10B03000848002F58062934265D14F4A116A41F4DF
:10B0400000411162116A21F400411162D82000FB15
:10B05000046494F8F62A002A52D1012402255A6881
:10B06000484942F48052C1E9B5545A601A68520600
:10B0700032D4D1F8DCC2D1F8E472D1F8E862019799
:10B08000D1F8E072B6F5005FDFF808E1D1E9B2204F
:10B0900042EA0002186842EA0C0200EA0E0ED1F8F9
:10B0A000D00242EA0702019F40EA1C4042EA07023E
:10B0B000354F42EA060242EA0E0242EA040242EA3E
:10B0C00005021A605A6807EA020740EA070058605A
:10B0D00002D1B1F8EC221A61DA6922F40062DA6175
:10B0E0001A6842F040021A6003B0F0BD224A516A69
:10B0F00041F480515162516A21F480515162A5E7B7
:10B1000000242546ABE7214A934209D11A4A516AE5
:10B1100041F400515162516A21F40051516295E7A6
:10B120001B4A934292D1144A516A41F480115162F0
:10B13000516A21F48011516288E70F4A116A41F483
:10B1400080411162116A21F4804111627EE70A494F
:10B150000A6922EA03030B611FE707494A6922EAE9
:10B1600003034B6119E704490A6A22EA03030B62ED
:10B1700013E700BF402A01200038024000300140A0
:10B180000038004000000120FBF0FFFF00340140C8
:10B19000005001404000FFFFF8B5474E96F8484E7A
:10B1A00004EB4403650006EBC30393F84C3E032B0A
:10B1B00077D8DFE803F0492A1F02254406EBC505CE
:10B1C000D5F8503E002B6ED196F8AC2E944268D044
:10B1D000013404F003018A4286F8481E61D001EB75
:10B1E00041040222184606EBC404C4F8503E84F819
:10B1F0004C2EF8BD2B1906EBC303D3F8502E72B1B9
:10B20000013A0020C3F8502EF8BD2B1906EBC303FA
:10B21000D3F8502E002AF3D1022283F84C2E254475
:10B2200006EBC50595F8583E013BDBB285F8583E64
:10B23000F3B1224B0120D3F8F02202F2E733B3FB43
:10B24000F2F3C5F8503EF8BD3CF074FA48B31B4A1F
:10B2500042F20F732C440121D2F8F02206EBC40411
:10B26000134484F84C1EB3FBF2F3C4F8503EF8BD0F
:10B27000124B601C0327D5F8541ED3F8F022384037
:10B2800096F8AC4E531E85F84C7E001B0B4418BF3D
:10B2900001209A42B3FBF2F188BF0020C5F8501E8E
:10B2A00030B90120F8BD013B0020C5F8503EF8BD83
:10B2B0000139C5F8501EF8BD402A012000000120C8
:10B2C00008480023024611780632022904D00133CF
:10B2D000062BF8D10020704703EB430300EB43003B
:10B2E000704700BFF0380120F0B59E4C85B0242295
:10B2F000002104F56B6050F003FE94F8D56E002E2B
:10B300003AD13546D4F8EC3E5BB39B6A4BB39648D2
:10B31000984783682BB303880021DFF874C2013B90
:10B32000604666469BB237780636032F1CD0013143
:10B330000629F8D1002201780630022900F0A68003
:10B340000132062AF7D1D4F8141F052909D002FBCF
:10B3500001C20131C4F8141F022000219380107033
:10B360005180284605B0F0BD062303FB0141B1F82A
:10B37000B23E013B9BB2DDE704F6DC6394F8D40EE9
:10B38000C4F8D83E08B90025BCE73AF0C3FC07462C
:10B39000C4F8E80E3AF000FE05460028F3D0013E5E
:10B3A000022370B284F8DC3E3CF034F80028EAD086
:10B3B000C4F8E00E0FB12023FB800D2138463AF08F
:10B3C0008FFCD4F8D83E0126D8683AF0F9FDD4F8BD
:10B3D000D83E2021586846F023FE644BD4F8D82E7E
:10B3E00084F8106F0026C4F80C2F93E80300009037
:10B3F00032208DF8041039F01FF9052302AA69469E
:10B40000D4F8D80E8DF80A608DF809603BF0F0FF93
:10B410009DF80A209DF8090012029DF80B10544B6C
:10B4200042EA00420A439A4200F0948032DCA3F5DB
:10B43000F1139A425FD043DD4E4B9A4253D0023310
:10B440009A4263D14FF400724FF48073A4F8F02E47
:10B45000A4F8FC3EB4F8FC2E0020B4F8F03E4FF403
:10B460008071120284F8FE0EA4F8F21E02FB03F3B0
:10B47000C4F8F42EB3F1807FC4F8F83E59D8012205
:10B480003D4B84F8052FC4F8EC3E3BE7062101FB59
:10B4900002C261E7394B9A4235DC053B9A4235DD01
:10B4A000374B1344032B4DD801A252F823F000BFB1
:10B4B000F7B40008E7B40008D9B4000845B40008A0
:10B4C000A3F52203013B9A423CD02EDD2D4B9A423C
:10B4D00009D001339A4219D14FF48073A4F8F03E99
:10B4E000A4F8FC3EB6E780224FF48073A4F8F02E57
:10B4F000A4F8FC3EAEE740224FF48073A4F8F02E8F
:10B50000A4F8FC3EA6E7204B9A42E5D0002394F82D
:10B51000D40E1D46A4F8F03EA4F8FC3EC4F8F43E58
:10B52000C4F8F83E3BF010FEECE6184B9A42D3D03C
:10B53000ECE70123B721D4F80C0F84F8043F47F05F
:10B54000A7FA9CE720224FF48073A4F8F02EA4F809
:10B55000FC3E7FE74FF480621023A4F8F02EA4F89D
:10B56000FC3E77E7402A01202C39012094C40508CD
:10B570001640E0001720C2009CC405081940EF00E7
:10B58000EABF10FF17BA20001870EF001860010022
:10B59000F03801202DE9F04F0421B94C0027402656
:10B5A0004FF0A04204F552656160022194F8BD039A
:10B5B0008BB0C4F8C84F6661C4F80054226027639A
:10B5C0002761E7626762A161E160C4E9077700284B
:10B5D00000F05C810321164684F8BD13936823F0C4
:10B5E00001039360F368304643F04003F36008F0D2
:10B5F00025FAB36B012F054643F48033B36316D0AD
:10B60000FDB194F8D05F0223012D84F8BD3300F022
:10B61000FA8023688021012059625A6A42F480022C
:10B620009A62FDF77DF800200BB0BDE8F08FB3689B
:10B6300043F00603B360B36843F02003B360002D0A
:10B64000DFD123683220DA6822F0C042DA60DA689B
:10B6500042F08042DA6009F025F8606848B32A4673
:10B6600001272946C2EBC203561C04EB830383F86F
:10B670003C20A3F84220F2B283F83D70824283F866
:10B680003F101965C3E91111ECD300221146C2EB3A
