:020000040800F2
:10000000F0FF0010098E05080DCE0008854F04088A
:10001000A98E0508A98E0508A98E05080000000014
:1000200000000000000000000000000009CE0008F1
:1000300005CE00080000000001CE0008E94F0408CA
:10004000A98E0508A98E0508A98E0508A98E0508A0
:10005000A98E0508A98E0508A98E0508A98E050890
:10006000A98E0508A98E0508A98E050895740508AE
:1000700085740508757405086574050851740508CC
:100080003D74050829740508A98E0508A98E050880
:10009000A98E0508A98E0508A98E0508A98E050850
:1000A000D9FE030861FF0308C9FE030889FF03089E
:1000B00051FF030841FF030831FF0308B17C050825
:1000C000B97C0508A57C0508AD7C0508A98E050846
:1000D000A98E050861610408A5600408E95F0408A9
:1000E000A98E0508A98E0508A5050108B9FE030813
:1000F000E9FE0308A9FE030811FF030815740508AB
:10010000A98E0508A98E050821FF0308A98E0508F8
:100110002D5F0408715E0408699E0308559E03085C
:1001200001740508ED730508D9730508C573050842
:10013000B1730508A98E0508A98E0508A98E0508C2
:10014000A98E0508A98E0508A98E05087DF400086A
:100150009D7305088973050875730508B55D040866
:10016000997C0508A17C0508A98E0508A98E0508BB
:10017000A98E0508A98E0508A98E0508A98E05086F
:08018000A98E0508A98E0508EF
:08018800B88905000100000028
:10019000030101000A0000008C3100201C4F0020E8
:1001A00000000000710A01081302010004000000B1
:1001B0008C210020284F002000000000E0080008EB
:1001C0000D100100640000004C3D00202C4F002069
:1001D0000000000071F50308040008008000000022
:1001E0008C3C0020904F0020000000000000000028
:1001F0000902010001000000E44D00201050002021
:1002000000000000E4080008FB01010001000000FC
:10021000303C0020145000200000000021F40408AD
:10022000FC01010009000000FC3A002018500020E9
:100230000000000031F40408F7010100060000008E
:10024000F03A00202450002000000000E6080008DA
:10025000F901010004000000EC3A00202C500020BD
:1002600000000000656704080A8001002800000003
:10027000C43A00203050002000000000450702086A
:10028000160215003F000000E02E0020585000200C
:100290000000000069F304083400010010000000B1
:1002A000F03900209850002000000000393B02087F
:1002B0001102010008000000C8390020A8500020E9
:1002C00000000000EC080008121201000400000009
:1002D000C0390020B050002000000000F4080008E1
:1002E00018200100320000008C390020B45000209A
:1002F00000000000B9F40408061001001C00000012
:10030000C42E0020E8500020000000004DF4040836
:10031000FD010100210000009C3800200451002054
:1003200000000000BB66040812200100110000005C
:100330001C3600202851002000000000F8080008AA
:10034000000201000B000000583300203C51002047
:1003500000000000E5EC0408FA01010003000000C1
:10036000DC3200204851002000000000C9EC0408E5
:100370000202010003000000B82600204C510020BA
:1003800000000000000000000C020100040000005A
:10039000682600205051002000000000EDEC040809
:1003A000FE010100140000005045002054510020BF
:1003B00000000000A1EC04081B1001000C0000006C
:1003C0001C6B0020D87D002000000000653B010868
:1003D00021020100F000000080690020E47D00207F
:1003E0000000000041250108231201001000000058
:1003F000B46C0020D47E0020000000000C0900082E
:10040000371001002E00000068700020E47E0020FC
:10041000000000001C0900080E020100020000009C
:10042000B06C0020147F0020000000004A09000882
:100430001610010006000000A86C0020187F0020A4
:10044000000000004C0900082F10010022000000ED
:10045000B47D0020207F0020000000005209000829
:100460001E000100090000004C6C0020447F0020A9
:1004700000000000740900080510010006000000DB
:10048000986C0020507F0020000000007E090008CA
:10049000F58101006800000010690020587F0020ED
:1004A00000000000093301082320010010000000B3
:1004B000F46C0020C07F00200000000059080208F2
:1004C000FD070100760000004E680020D07F00206C
:1004D00000000000790F01080B3001001A00000035
:1004E00034680020788000200000000084090008A3
:1004F0001F30010024000000346B00209480002095
:1005000000000000A009000805020100040000002E
:10051000C46C0020B880002000000000C40900085E
:100520001400010004000000009100202C91002024
:1005300000000000C8090008012001000C000000B4
:100540008C8700203091002000000000CC090008BA
:100550000EF003009E010000A88400203C910020C2
:1005600000000000391C0208130001000400000014
:10057000208E0020DC92002000000000D809000836
:100580000101010004000000E8830020E092002047
:100590000000000000000000000101000400000055
:1005A000E0830020E492002000000000DC09000845
:1005B0000201010003000000DC830020E89200201B
:1005C0000000000065690308220201001C01000010
:1005D000088C0020EC92002000000000D9F30408F1
:1005E0000C200600CC0000006C860020089400203F
:1005F0000000000029690308010201000B0000004F
:10060000F4830020D494002000000000D5EC0408FE
:100610001B02010010000000D4870020E09400209D
:10062000000000006DED04081A0001000E0000003B
:1006300088A10020C8A2002000000000E0090008F6
:10064000203201000A0000007CA10020D8A2002076
:1006500000000000151C02081500100070000000CA
:10066000889F0020E4A2002000000000000000009D
:100670002A00080060000000989E002054A300207B
:1006800000000000ED1B02082C0004001000000018
:10069000C4A30020B4A3002000000000C519020874
:1006A0002B00120024000000F8A30020D4A3002097
:1006B00000000000991902082920140078000000A9
:1006C000789C00201CA40020000000000000000016
:1006D000F62101000C0000002C9B002094A40020B7
:1006E00000000000F00900081C0202001C000000CD
:1006F000B49B0020E4A400200000000085F1040861
:10070000030001000100000000A600206CA90020E9
:100710000000000000000000031201003D00000086
:1007200028A9002070A9002000000000FC09000892
:1007300025201E002C01000090A60020B0A900205A
:100740000000000000000000101001000200000086
:100750002CA60020DCAA0020000000003A0A0008B5
:10076000F821010006000000E8A50020E0AA002012
:10077000000000003C0A000819000100050000000C
:10078000ACA50020E8AA002000000000420A0008F2
:10079000020001000C00000060AE002070AE0020DE
:1007A00000000000000000002902010040000000DD
:1007B000A0AD00207CAE002000000000480A000828
:1007C0000A02010014000000F4AD0020DCAE00209D
:1007D000000000001D6E03081A0201003C0000002A
:1007E000BCAF002074B40020000000002DF5040808
:1007F0003810010001000000FCAE0020B0B4002061
:1008000000000000880A000828020400040000001C
:1008100048B5002050B500200000000069ED040834
:10082000270204000400000044B5002054B5002055
:10083000000000005DED04081F0208001000000029
:1008400034B5002058B500200000000059EC040821
:100850000702010002000000E4BB002044C00020A9
:10086000000000008A0A00081D02020006000000C5
:1008700048BB002048C0002000000000000000002D
:10088000060203000C000000CCBB002050C9002071
:10089000000000004DF20408081203000F000000E1
:1008A00050BB00205CC900200000000005ED0408DA
:1008B000270001000400000090B600206CC9002051
:1008C000000000008C0A0008100201000100000076
:1008D00084FC002080FC002000000000900A00083A
:1008E00000000100130035010000000000000000BE
:1008F00001010101FFFFFFFF000000010000054FA3
:10090000345637000008000200000000000000001C
:100910000000000000000000000000002000320085
:10092000C800D00796001400320028004C0440068E
:100930000005500014000F000800640001000000D2
:1009400005000A000000F40196000000C409000040
:10095000190000000000000000000000000000007E
:100960000000000000000000000000000000000087
:100970000000000000050100000000000000200051
:1009800001010000AE014A015E012C016401010079
:10099000000001000A019A01001E0A000002000086
:1009A000000000000001000000050000010203003B
:1009B0000000000000000000000000000000000037
:1009C000008007000000000003000023E80364002B
:1009D000040A000114001E0048044430B300000063
:1009E0007E05EA05B4053200E803D00700000000E8
:1009F00000000000010000000202000000000000F2
:100A000000000000000000000000000000000000E6
:100A100000000000000000000000000000000000D6
:100A200000000000000000000000000000000000C6
:100A30000000000000000000010000050101F401B9
:100A40001400000028010000000000000000000069
:100A50000000000000000000000000000000000096
:100A60000000000000000000000000000000000086
:100A70000000000000000000000000000000000076
:100A800000000000000000000000003C2003000007
:010A90000065
:100A91000403090412010002EF02014083045632EB
:100AA10000020102030100001201000202020040E3
:100AB10083044057000201020301000009022000E3
:100AC100010104C0320904000002080650050705AF
:100AD1008102400000070501024000000902640094
:100AE100030100C0320904000001030000000921D4
:100AF100110100012236000705830309000A080BD2
:100B010001020202010009040100010202010005C3
:100B11002400100105240100020424020205240618
:100B21000102070582030800FF09040200020A000E
:100B31000000070501024000000705810240000096
:100B410009024300020100C032090400000102024F
:100B51000100052400100105240100010424020202
:100B61000524060001070582030800FF09040100AE
:100B7100020A00000007050102400000070581028A
:100B810040000000FF00000000FF00000000000026
:100B91000000AA55070100000800AA550501000040
:100BA1000800000048C00508FF1FFF1F7D0000006E
:100BB100010000000000803F05010905A101A1001D
:100BC100050109300931093209330935093409367A
:100BD10009371581257F75089508810205091901D5
:100BE100290815002501950875018102C0C0000082
:100BF10009022200010100E03209040000010301A1
:100C010002000921110100012236000705830309B1
:100C1100000A00005D820008598200085582000820
:100C21004982000845820008518200084D8200086F
:100C3100000004010000000000000002100000009C
:100C41000700000000000000010203040102030488
:100C510006070809F5D70008CDDF000845DB0008C5
:100C610059830008A5850008698300088583000869
:100C7100318300082183000800000000000000000B
:100C81002D202D2D202D2D2D2D202D2D2D2D000014
:100C9100000000000000000000000000000000AAA9
:100CA100550B010000AA5505010000AA55090200D3
:100CB1000000AA5503009F0001000000C0120000BF
:100CC10001010000000001FFFFFFFFFF7EFF0000A8
:100CD100FFFFFFFF7080002000000000488000201F
:100CE10000000000744C0608F04B060800000000EC
:100CF100ED690308A0860100040000000000000067
:100D010000000000000000000000000000000000E2
:100D110000000000000000000000000000000000D2
:100D210000000000744C06087C4C0608000000001E
:100D31001DDD0308E80300000400000000000000BE
:100D410000000000000000000000000000000000A2
:100D51000000000000000000000000000000000092
:100D610000000000844C06080000000000000000A4
:100D7100E96A03087D000000FF0000000000000098
:100D81000000000000000000000000000000000062
:100D91000000000000000000000000000000000052
:100DA10000000000ACC506080000000000000000C3
:100DB100857303087D000000FF00000000000000B3
:100DC1000000000000000000000000000000000022
:100DD1000000000000000000000000000000000012
:100DE10000000000E85906080000000000000000B3
:100DF100F9E902087D000000FF000000000000008A
:100E010000000000000000000000000000000000E1
:100E110000000000000000000000000000000000D1
:100E2100000000008C4C06080000000000000000DB
:100E310081570408E80300000300000000000000DF
:100E410000000000000000000000000000000000A1
:100E51000000000000000000000000000000000091
:100E610000000000904C0608000000000000000097
:100E710099CE0208102700000300000000000000C6
:100E81000000000000000000000000000000000061
:100E91000000000000000000000000000000000051
:100EA10000000000B4C1060800000000AD150208F2
:100EB100493E04085F7600000500000000000000C4
:100EC1000000000000000000000000000000000021
:100ED1000000000000000000000000000000000011
:100EE1000000000050C506080000000000000000DE
:100EF1001D6204081027000001000000000000002E
:100F010000000000000000000000000000000000E0
:100F110000000000000000000000000000000000D0
:100F2100000000009C4C06080000000000000000CA
:100F310021DD0308E80300000500000000000000B7
:100F410000000000000000000000000000000000A0
:100F51000000000000000000000000000000000090
:100F610000000000A84C060800000000000000007E
:100F710071700308204E0000030000000000000013
:100F81000000000000000000000000000000000060
:100F91000000000000000000000000000000000050
:100FA10000000000B84C060800000000000000002E
:100FB100596E0308204E00000300000000000000ED
:100FC1000000000000000000000000000000000020
:100FD1000000000000000000000000000000000010
:100FE10000000000C84C06080000000000000000DE
:100FF100FD530408400D0300030000000000000041
:1010010000000000000000000000000000000000DF
:1010110000000000000000000000000000000000CF
:1010210000000000D84C060800000000000000008D
:1010310051510408102700000100000000000000C9
:10104100000000000000000000000000000000009F
:10105100000000000000000000000000000000008F
:10106100000000001C4C0608000000000000000009
:101071002DB9010810270000030000000000000046
:10108100000000000000000000000000000000005F
:10109100000000000000000000000000000000004F
:1010A10000000000E04C0608000000000000000005
:1010B100FDDB0308A8610000010000000000000042
:1010C100000000000000000000000000000000001F
:1010D100000000000000000000000000000000000F
:1010E10000000000EC4C06080000000000000000B9
:1010F10095E00108A0860100010000000000000049
:1011010000000000000000000000000000000000DE
:1011110000000000000000000000000000000000CE
:1011210000000000F84C060800000000000000006C
:10113100590F0408A00F000001000000000000008A
:10114100000000000000000000000000000000009E
:10115100000000000000000000000000000000008E
:1011610000000000044D060800000000000000001F
:10117100256E01081027000001000000000000009A
:10118100000000000000000000000000000000005E
:10119100000000000000000000000000000000004E
:1011A10000000000104D06080000000000000000D3
:1011B100656501081A4100000100000000000000FF
:1011C100000000000000000000000000000000001E
:1011D100000000000000000000000000000000000E
:1011E10000000000144D060800000000000000008F
:1011F100A10A010810270000010000000000000002
:1012010000000000000000000000000000000000DD
:1012110000000000000000000000000000000000CD
:1012210000000000044C060800000000000000005F
:1012310045EA010850C30000010000000000000061
:10124100000000000000000000000000000000009D
:10125100000000000000000000000000000000008D
:1012610000000000204D0608000000000000000002
:10127100ED960008400D0300000000000000000092
:10128100000000000000000000000000000000005D
:10129100000000000000000000000000000000004D
:1012A10000000000284D06080000000000000000BA
:1012B100B9DB0308400D030000000000000000003E
:1012C100000000000000000000000000000000001D
:1012D100000000000000000000000000000000000D
:1012E10000000000304D0608000000000000000072
:1012F100A9C7010850C3000003000000000000005E
:1013010000000000000000000000000000000000DC
:1013110000000000000000000000000000000000CC
:10132100000000003C4D0608000000000000000025
:101331009DA2030840420F000000000000000000D1
:10134100000000000000000000000000000000009C
:10135100000000000000000000000000000000008C
:1013610000000000484D06080000000000000000D9
:1013710061DD030850C30000000000000000000010
:10138100000000000000000000000000000000005C
:10139100000000000000000000000000000000004C
:1013A1000000000001007F00FF010000E0010100DA
:1013B1007D7F01080000000000000000E8CB050867
:1013C1000800000000000000000000000000000014
:1013D10080E505080000000000000000000000009A
:1013E10038E60508000000000000000000000000D1
:1013F100E4E5050800000000000000004197010835
:10140100C98800200101000055D301080000000037
:10141100000000000CE705087DD60108000000006F
:1014210000000000C4E605082D202D2D202D2D2DB6
:101431002D202D2D2D0000000000000000000000D7
:101441000000000000000000FFFFFFFF49A90108A4
:10145100000000000000000010E505080100000088
:10146100FA00000001000000010000008887002050
:101471000000F40101000000868700200000F40153
:1014810001000000848700200000F4010100000039
:10149100828700200000F401010000008087002005
:1014A1000000F401010000007E8700200000F4012B
:1014B100010000007C8700200000F4010100000011
:1014C100798701083D870108000000009CD10508CB
:1014D1006C870020053201007A8700206400F40146
:1014E10001000000788700206400C40901000000A9
:1014F1006A870020E803D007010000006887002008
:10150100E803D0070100000066870020E803D00748
:1015110001000000648700201E00B80B01000000DC
:101521007287002005000F00010000007487002071
:1015310003000A0001000000628700201E00F40180
:1015410001000000768700200200000028D2050873
:101551006087002014006400010000006E870020F5
:101561003200E803010000005E8700200000C8008F
:10157100010000006986002000C801006886002083
:101581000050010067860020005A01006586002096
:101591000200000034D205081C5106082451060837
:1015A100D63D00200100C40900000000D43D002008
:1015B1000100C40900000000D23D00200100C4095F
:1015C10000000000D03D00200100C409000000001F
:1015D100CC3D00200100C40900000000CE3D0020E8
:1015E1000100C40900000000CA3D00200100C40937
:1015F10000000000C83D00200100C40900000000F7
:101601001384002000C801001284002000C80100DA
:10161100108400200000FFFF0A0000000E8400205B
:101621000100C800010000000C8400203200307568
:10163100320000000A840020058205000884002091
:1016410005002C010500000007840020055A050053
:101651000484002000FF0100068400200200000035
:10166100900C00200284002003000000D4C605086D
:101671000384002000FF0100058400200200000017
:10168100900C00200184002003000000D4C605084E
:10169100CD8601085D8601080000000040D20508E2
:1016A1009C870020EE02CA08010000009A870020F2
:1016B10000C80100640000009987002000C80100F3
:1016C1006400000098870020020000004CD3050848
:1016D100EE8300200000803E05000000EC83002026
:1016E10080C1803E05000000E68300200083007D6C
:1016F10005000000E483002080C1803E0500000059
:10170100DF83002000FF0100D88300206400F40182
:1017110001000000D68300200400000058D3050812
:10172100D5830020020000006CD3050899840020B5
:101731000D00000078D305089684002000640100A4
:1017410094840020320010270A00000092840020B7
:101751000D00000078D30508918400200D000000E1
:1017610078D305089084002002000000B0D305085A
:10177100000000000000000000000000BCD30508CC
:10178100A28700203E000000F4D30508A0870020B6
:101791000100FF7F010000009F8700200200000080
:1017A100F0D405089B8400200300000000D5050843
:1017B1009A8400200300000000D505085686002009
:1017C100000A0100548600200000E8030100000027
:1017D100528600200000E80301000000508600202E
:1017E1000000E803010000004E8600200000E8032D
:1017F10001000000468600200000E803010000000F
:101801004C8600200000E803010000004A86002009
:101811000000E803010000004886002000140100D8
:10182100648600200200000010D5050862860020B1
:101831000000F40101000000608600200000F401B6
:10184100010000005E8600200000F401010000009C
:101851005C8600200000F401010000005A8600208F
:101861000000A00F01000000588600200000A00F1A
:10187100010000004B870020196401004A87002005
:10188100020000001CD5050848870020E803D007A6
:101891000A00000046870020006401000A000000E1
:1018A1003B870020006401003A87002000640100AA
:1018B10042870020006401000A00000041870020E7
:1018C100006401000A00000040870020006401005C
:1018D1000A0000004587002000FF01000A00000007
:1018E1004487002000FF01000A0000004387002018
:1018F10000FF01000A0000003F87002001FF0100F6
:101901000A0000003E87002001FF01000A000000DC
:101911003D87002001FF01000A000000A48400208F
:101921000000F40101000000A28400200000A00FCB
:1019310001000000A08400200000A00F01000000B1
:101941009E8400200000A00F010000009C84002064
:101951000000A00F010000001189002000C8010053
:1019610010890020006401000F890020006401003B
:101971000E890020006401000D890020006401002F
:101981000C890020FF0801000B890020016401007F
:10199100C5850108898501080000000028D50508D2
:1019A1001489002001320100138900200100000088
:1019B10098D505081289002004000000A0D505086B
:1019C1000A89002000640100088900201400E8034E
:1019D1000100000006890020E80330750A000000BC
:1019E1000589002000C801000489002000C8010009
:1019F1000389002000C80100028900200032010093
:101A010016890020004B0100158900200400000008
:101A1100B4D5050801890020006401000A00000016
:101A2100248900200000D007010000001F89002048
:101A310000C801001E89002000C801001D89002086
:101A410000C80100228900200000D0070100000029
:101A51001C89002000C801001B89002000C801006A
:101A61001A89002000C80100208900200000D00749
:101A7100010000001989002000C801001889002018
:101A810000C801001789002000C801007D830108FA
:101A91006583010800000000C8D505088D84002079
:101AA100005A01008C84002000C801008A840020B3
:101AB100E803D00701000000000000000000000062
:101AC1008197010864D605084F4D4E49425553464A
:101AD100344E414E4F563700008400200003010070
:101AE100FF83002000030100A18201085582010843
:101AF10000000000ACD6050815820108CD8101085F
:101B01000000000048D70508ED8201082DA9010851
:101B110000000000C8D70508F08300200103010080
:101B2100398801080D8801080000000020DB050844
:101B310051810108058101080000000090DB0508C2
:101B41008D830108C5DF0108000000002CDC0508B9
:101B510035AD01086588010800000000D4DC0508E6
:101B6100DD830108000000000000000060DD0508C1
:101B7100B98401086184010800000000C4DD050882
:101B81004D85010811850108000000006CDE050883
:101B9100810502080186010800000000F8DE050841
:101BA1005D8700200106010025840108F1830108F9
:101BB10000000000F4DF0508B5040208C9AA010805
:101BC1000000000064E00508CD05020891AB0108A2
:101BD10000000000B4E105085C870020010301005A
:101BE10035830108058301080000000088E205082B
:101BF100290602080000000000000000ECE20508D0
:101C01009D81010815A90108000000006CE3050889
:101C1100000000000000000000000000F8E30508DB
:101C21003586010809AC01080000000068E40508D8
:101C310000000000000000000000000080E6050830
:101C41006C4E00209CFF2C0100000000B88D00208C
:101C5100E0150C17000000005D8800200200000064
:101C6100B8E60508D083002088136F170100000033
:101C7100D283002088136F17000000007E310020FE
:101C810000000000000000007C3100200000000086
:101C9100000000007A310020000000000000000078
:101CA10078310020000000000000000076310020A3
:101CB100000000000000000074310020000000005E
:101CC10000000000B403002000000000000000003C
:101CD1005883002003000000A8E70508C8830020FE
:101CE10088136F1701000000B64E002088136F178C
:101CF1000000000045800108000000000000000015
:101D0100B8E705085E880020010000000CE805081E
:101D1100B84E00200100000018E80508AE4E002072
:101D21000200000020E8050800000000000000009B
:101D3100000000002CE805082D80010800000000CB
:101D410000000000C8E805080000000000000000D5
:101D5100000000001CE90508000000000000000070
:101D6100000000008CE90508D48300200200000077
:101D7100C4E90508B24E0020E0150C170000000070
:101D810078960020CC96002001D601FF01000000CA
:101D910000010101000000000000FA430000FA43C5
:101DA1000000803F0000803F0000000000000000B4
:101DB1000000000000000000000000000000000022
:101DC1000000000000000000000000000000803F53
:101DD1000000000000000000000000000000803F43
:101DE1000000000000000000000000000000803F33
:101DF10000000000000000000000000001000000E1
:101E0100FFFFFFFFFFFFFFFFFF000000615304081A
:101E110000000000000000000000000000000000C1
:101E2100CCAE00200800000000000000BCAE002085
:101E310008000000C5890008B584000825DB0008FA
:101E4100000000001D830008C1D70008798900083F
:101E510035D700080000000000000000D98200080A
:101E61006D82000861820008B1CE0008CDCE000865
:101E710095CE000879CE00085DCE00087D89000866
:101E81009184000871DA000800000000F182000866
:101E910039D700084D89000891D6000800000000DC
:101EA10000000000E582000801000000A00F000012
:101EB100B80B00000102FFFF01000000FFFF00005E
:101EC10000600240106002400000000000000000BD
:101ED100000B0000000000000000000000000000F6
:101EE1000060024028600240010000000000000084
:101EF100060C0000000000000000000000000000CF
:101F0100006002404060024002000000000000004A
:101F1100100D0000000000000000000000000000A3
:101F21000060024058600240030000000000000011
:101F3100160E00000000000000000000000000007C
:101F410000600240706002400400000000000000D8
:101F5100200F000000000000000000000000000051
:101F6100006002408860024005000000000000009F
:101F7100261000000000000000000000000000002A
:101F810000600240A0600240060000000000000066
:101F910030110000000000000000000000000000FF
:101FA10000600240B860024007000000000000002D
:101FB100362F0000000000000000000000000000BB
:101FC10000640240106402400000000000000000B4
:101FD10000380000000000000000000000000000C8
:101FE100006402402864024001000000000000007B
:101FF10006390000000000000000000000000000A1
:102001000064024040640240020000000000000041
:10201100103A000000000000000000000000000075
:102021000064024058640240030000000000000008
:10203100163B00000000000000000000000000004E
:1020410000640240706402400400000000000000CF
:10205100203C000000000000000000000000000023
:102061000064024088640240050000000000000096
:1020710026440000000000000000000000000000F5
:1020810000640240A064024006000000000000005D
:1020910030450000000000000000000000000000CA
:1020A10000640240B8640240070000000000000024
:1020B10036460000000000000000000000000000A3
:1020C100A8C1060800000802050303000000000083
:1020D100B0C1060801000802050403000000000069
:1020E100A86F06080200FE010110030000000000B5
:1020F10090540608030014020003000000000000D1
:10210100B8C1060804001F02020008000000000018
:10211100C0C1060805001F020201080000000000FE
:10212100FFFFFFFF1A030000000000000000000095
:10213100000000000000000000000000000000009E
:102141000403090412010002000000408304205727
:102151000002010203010000B9F50408B5ED04080D
:10216100B1ED0408ADED040805F60408A9ED040875
:10217100A5ED0408D8390608518A000871840008C1
:102181008DD80008000000000000000085D500087F
:10219100ADD50008000000000000000000000000B4
:1021A100CD8200084DEE040841EE040825FB040829
:1021B10041FB0408F9ED040809FB0408EDFA0408E1
:1021C1001F0000001C0000001F0000001E00000096
:1021D1001F0000001E0000001F0000001F00000083
:1021E1001E0000001F0000001E0000001F00000074
:1021F1000068214C78430608FF010000F40100004B
:10220100FF01000000190020000000000000000094
:1022110000000000000000000000000000000000BD
:1022210000000000000000000000000000000000AD
:10223100000000000000000000000000000000009D
:10224100000000000000000000000000000000008D
:10225100000000000000000000000000000000007D
:08226100000000000000000075
:082800000000000000000000D0
:108000002DE9F04700230F6801264FF0030C02E032
:108010000133102B41D006FA03F232EA0704F7D1FC
:10802000D0F800E05C000CFA04F52EEA050EC0F86A
:1080300000E091F80490D0F800A009FA04FE09F1DC
:10804000FF394EEA0A0EB9F1010FA846C0F800E068
:108050006FEA050515D8D0F808E005EA0E05856039
:108060004D79D0F808E0A54045EA0E0585604568E1
:1080700025EA020242608A7945689A4092B22A4310
:108080004260C26822EA0802C260CA79C568A2409A
:1080900001332A43102BC260BDD1BDE8F08700BF79
:1080A000074AD2E9003199421FBFD1180133097A3A
:1080B00001701DBFC3F30A03012013600020704745
:1080C00060190020064AD2F80838D2F80C289342EA
:1080D00094BF4FF400600020013B9B1A1844704786
:1080E00060190020012380F85130704707B501A8BE
:1080F000FFF7D6FF0028FAD09DF8040003B05DF822
:1081000004FB044BD3E90003984288BF03F50063E6
:10811000181A70476019002001207047024BC3F8FD
:108120001028C3F81418704760190020024BC3F8D8
:108130001828C3F81C187047601900207047704752
:1081400030B4124DD5E900239A4286BF03F500648E
:10815000A21A9A1A0A44B2F5006F11D899B10144D3
:108160004A1E013810F8014FE918824203F1010359
:108170000C72C3F30A03F5D16B60002030BC70476A
:10818000022030BC70470846F8E700BF60190020A5
:10819000212838B50C4605D022282ED0202813D00F
:1081A000002038BD0029FBD0072AF9D11A4BD3F89B
:1081B000200893F8241893F8252893F8263820608F
:1081C00021716271A371EBE70029E9D0072AE7D199
:1081D000114DD5F814381BB10968D5F81008984727
:1081E000206821796279A379C5F8200885F82418D8
:1081F00085F8252885F82638D2E70029D0D0022A2C
:10820000CED1054AD2F81C38002BC9D00988D2F843
:1082100018089847C4E700BF60190020024B0020EF
:10822000C3F82808704700BF60190020044B0020E5
:108230000522C3F82828C3F81C08C3F8140870479F
:1082400060190020704700BF704700BF704700BF33
:10825000704700BF704700BF704700BF704700BF46
:10826000042301480B8070478801002010B4074A9E
:10827000074B92F82C08122403F114020C800128F9
:108280000CBF184610465DF8044B7047601900207B
:108290008C01002010B40C4A92F8303802EBC30174
:1082A0000133DBB2042B4FF0050408BF00234FF469
:1082B000045081F8344882F83038C1F838085DF845
:1082C000044B4FF0FF307047601900202023014815
:1082D0000B807047B4010020642301480B80704775
:1082E000D4010020432301480B807047380200204E
:1082F00010B5084CD4F8F400FF2809D00649D1F88D
:10830000542801F65801FFF743FFFF23C4F8F43067
:10831000002010BD8801002060190020E8E700BFA0
:1083200008B5D0F8E4355B6A9847002008BD00BF67
:1083300008B5D0F8E4351B6A9847002008BD00BF97
:10834000D0F8E43510B504461B689847D4F8E835F2
:108350009B689847002010BD08B5D0F8E435DB696C
:1083600003B19847002008BD08B5042290F8121107
:10837000D0F8E83580F8131180F81221DB689847AF
:10838000002008BD10B5D0F8E83504461B699847B1
:10839000032384F81231002010BD00BF0B0617D450
:1083A00001EB810300EBC30310B400EB8100012457
:1083B000002283F8764383F8741383F87523426DA3
:1083C0005DF8044B136843F40013002013607047FA
:1083D00001F07F0101EB810300EBC303012200EBFD
:1083E000810083F81C1183F81E2183F81D21826906
:1083F0001368002B01DA43F0804343F40013136049
:10840000002070470B0630B41CD401EB810200EB56
:10841000C202002300EB810582F8741382F87533E1
:1084200001241A4604FA01F16D6D61F31F420169DE
:108430006FF3CF332B60CB6923EA0203002030BCFB
:10844000CB61704701F07F0101EB810400EBC404B4
:10845000012200EB8105002384F81C1184F81D2102
:1084600002FA01F11A46AD6961F30F02DFE700BFBE
:1084700010B581210446FFF7C5FF20460121FFF713
:10848000C1FF024B002083F8600810BD6019002076
:1084900010B581210446FFF7B5FF20460121FFF703
:1084A000B1FF82212046FFF7ADFFFFF7B7FE0020A6
:1084B00010BD00BF38B50D4604468321FFF7A2FF6B
:1084C00029462046FFF7E4FF002038BDF0B41646E9
:1084D0000A063AD401EB810500EBC50528240022E9
:1084E00004FB0104022B85F87413C5F87C6385F83E
:1084F000773385F8752304F55D7448D0154600EB95
:108500008107012202FA01F17F6D61F31F45D7F85F
:1085100000C01CF4004F11D1E488204946F080527D
:1085200042F4004242EA834204F00F041C4B42EA48
:10853000845211400CEA0303194339600269D3697C
:108540002B430020F0BCD361704701F07F0101EBA9
:10855000810500EBC5052824012204FB0104022B40
:1085600085F81C11C5F8246185F81F31A5F8221182
:1085700085F81D2104F58E740CD0002500EB8107D1
:10858000012202FA01F1BF6961F30F05BFE7227111
:108590001546B4E700252571F0E700BFFF87CC132F
:1085A000007833EC002310B5194604464022FFF74B
:1085B0008DFF8021204600234022FFF787FFD4F85B
:1085C000E835A078012284F812215B6898470020E2
:1085D00010BD00BF82B00023016801930B690193B5
:1085E0000E4B03E00A690192013B13D0019A002A65
:1085F000F8DA019A094B42F001020192019A0A61EC
:108600000A69019203E00A690192013B02D0019AD2
:10861000D207F8D4002002B0704700BF400D03001D
:10862000436D064A1A61C278012A06D100F2CC5085
:1086300058614FF0802219681A607047180008606E
:1086400010B580210446FFF7A9FE20460021FFF760
:10865000A5FE2046BDE81040E2E700BF70B44B78AD
:10866000012B26D00B784A6900EB83035C6D2568EB
:108670002369D2B18A684A6102F07F0223F40023A1
:1086800023F07F0342F4002213432361C378012BBC
:1086900004BF0B696361C5F3076363F07B0363F396
:1086A0001F652560002070BC70478A6802F07F0259
:1086B000E4E782694C691568136944B38E68B44273
:1086C0008CBF06F07F0404F07F0423F4002323F022
:1086D0007F0344F4002443EA040388BF4E6113611E
:1086E000C378012B1DD0C5F3076464F07B0464F3E9
:1086F0001F651560002BD5D14B69002BD2D00269C4
:108700000878516B012383400B435363CAE723F47A
:10871000002323F07F0343F400231361C378012B6C
:10872000E1D10B780C6900EB8300C5F30763816925
:1087300063F07B0363F31F654C610020156070BC20
:10874000704700BF2DE9F0434B78012B30D00B78F8
:108750004C6900EB83035E6D356837691CB38B6829
:108760001C44013CB4FBF3F4C4F3090203FB02F321
:10877000C3F312034B61144643EAC44363F31C077B
:108780003761C378012B04BF0B697361CB78012B70
:1087900044D0C5F3076363F07B0363F31F65356063
:1087A0000020BDE8F0838A680124C2F31203E3E7E6
:1087B00091F800804E6900EB880EDEF818C0DCF8F6
:1087C0000050DCF8107076B3D1F80890384A06EB08
:1087D0000904013CB4FBF9F402EAC444C6F31202F2
:1087E0002243CC7807F060473A43012C174649D022
:1087F000CCF81020C278012A55D00269516B03FAD7
:1088000008F30B435363C5F3076363F07B0363F320
:108810001F65CCF800500020BDE8F0834B7973B39E
:1088200045F00055B5E707F0604747F40027CC78DE
:10883000CCF81070C378012B2FD0012CE3D1026942
:108840009268D20554BF45F0005545F08055C5F3F8
:10885000076262F07B0262F31F65CCF80050002BC8
:108860009ED1B0B203308010DEF8D04098D0CA68F4
:1088700052F8041B216001339842F9D190E745F08A
:10888000805586E764F35E77CCF81070C378012BCF
:10889000D5D10A69CCF81420D1E70A69CCF81420A4
:1088A000012CB0D1CBE70B69CCF81430ABE700BF9B
:1088B0000000F81F38B501EB810400EBC4040D463D
:1088C000002184F87453C4F88C1384F87513C4F829
:1088D0008833C4F88023C3782821012B01FB0501CC
:1088E00008BFEDB201F55D7108BFC4F884231DB95E
:1088F000FFF7B4FE002038BDFFF724FF002038BD8D
:1089000070B5104BD3F86C2893F8845804461AB10C
:1089100093F870382B430DD081212046FFF73EFDA0
:10892000022D00D070BD2046074ABDE870401F23CD
:108930000121BFE70121FFF731FD20468121BDE87C
:1089400070402BE560190020C421002010B501EB18
:108950008101084A00EBC1010446B1F88C131046AE
:10896000FFF7EEFB034A204640230121FFF7A2FF59
:10897000002010BDE8210020E8E700BF10B5022369
:10898000044640228121FFF7A1FD20460223402218
:108990000121FFF79BFD8221204603230822FFF7D8
:1089A00095FD064B02229A83FFF740FC044A2046BD
:1089B00040230121FFF77EFF002010BD8801002029
:1089C000E821002038B509220D46044603238321FF
:1089D000FFF77CFD29462046FFF7D0FF002038BD79
:1089E00082B000230193019A094B42F010020192D8
:1089F000C168019A0A610A69019203E00A69019259
:108A0000013B02D0019AD206F8D4002002B0704790
:108A1000400D030082B000230193019A0B4B42F0FA
:108A200020020192019A61F38A120192C168019AAF
:108A30000A610A69019203E00A690192013B02D0CE
:108A4000019A9206F8D4002002B07047400D03004E
:108A500070B50446144EFFF70BFD2046022340225A
:108A60008121FFF733FD4022012120460223FFF739
:108A70002DFDD6F8C83800251B6886F860582846B2
:108A800086F8845898472046FFF7AAFF2046012120
:108A9000FFF7C0FF204606F664021F230121FFF7FF
:108AA00009FF284670BD00BF601900200E4BDA6830
:108AB000D20310D4DA68D1060FD4DA68D20510D404
:108AC000DA6812F0E00F0AD1DB6813F0020F14BF6E
:108AD00008200920704701207047062070470720B2
:108AE00070470220704700BF003C0240024A536AB0
:108AF00023EA0000506270470038024000207047AF
:108B0000704730B1034B93F9CC080028D4BF002044
:108B1000012070476019002008B5FFF7F2FF60B12F
:108B2000064A92F8CD3892F8CE285B0003F0020393
:108B3000002A18BF43F001030B6008BD6019002034
:108B400008B5FFF7DEFF18B1024BD3F8D0380B8021
:108B500008BD00BF6019002070B5FFF7D2FF90B1CB
:108B6000094AB2F8D45875B1D2F8D8680023B34294
:108B70001C4608DA02EB44040133B4F8DC48AC428A
:108B8000DBB2F4D30B7070BD6019002008B5FFF79D
:108B9000B8FF10B100230B70137008BD042070479C
:108BA00028B1034B93F9F800003818BF0120704733
:108BB0008801002008B5FFF7F3FF50B1054B93F98A
:108BC000F820012AC3BF93F8FB30C3F340030B60C6
:108BD000002008BD8801002008B5FFF7E1FF18B1AB
:108BE000024B93F8FA300B7008BD00BF88010020DB
:108BF00070B5FFF7D5FF38B10E4C94F8FB30DB07AA
:108C000003D500230B70137070BD0B4D94F9F93030
:108C100095F8EC6893FBF6F301330B7094F9F94087
:108C200095F8EC1894FBF1F301FB13430133137037
:108C3000EAE700BF88010020601900200320704788
:108C400070B50B4A92F8F03806255E1CB6FBF5F4B9
:108C500005FB146492F8F158AC421FBF02EBC3034A
:108C600082F8F048C3F8F408C3F8F81870BD00BFE4
:108C700060190020002230B504461046914200DC05
:108C800030BDA35C0825584010F0800F4FEA400328
:108C900018BF83F0D503013DD8B2F5D10132EDE71D
:108CA00010B5E9B10F4BD3F82409814218DCBAB1F1
:108CB000D3F8EC389A4213DC0B4C013A013903FB30
:108CC000012184F8061104F581700521FFF7D2FF18
:108CD000062184F8070104F58170BDE81040AFE774
:108CE00010BD00BF6019002088010020134B10B494
:108CF00000220F2483F82A19090A83F8290983F826
:108D00002B19C3F82C29C3F83029C3F8342983F868
:108D1000284903F62810012110F8014F013122449F
:108D20000E29D2B2F8D183F836290549D3F838098B
:108D30005DF8044B10223EF0F3BA00BF601900202A
:108D400088220020054B002183F83C19C3F8401904
:108D5000D3F8383903B1C9E7704700BF6019002064
:108D60002DE9F041714C00234FF4F07220210646AA
:108D700004F6481084F8443952F0FDFE04F6283019
:108D80004FF4F072202152F0F6FE94F8090D10B164
:108D900094F80A2D1AB900252846BDE8F0813EF066
:108DA0004FFB0746C4F8140D3EF0BEFF05460028F1
:108DB000F1D00FB12323FB80384609213EF0EEFDB0
:108DC000D4F8140D3EF0C2FF94F80A3D013B5BB2AB
:108DD0005A1C00F09880022B00F3958004EB0313DB
:108DE000D3F8180D524FC4F8100D0223102184F847
:108DF0000C3D4EF057FBB7F808114E483FF038F9DC
:108E0000D4F8140D3EF09CFFFF218C204AF00CFD9D
:108E10008046D4F8140D3EF099FFD4F8100D0421CB
:108E20004EF040FBB8F11B0F05D0D4F8140D2021F3
:108E30003EF0B4FDAFE7D4F8143D012284F8442994
:108E40000BB12322DA80B7F808113A483FF010F945
:108E5000D4F8140D3EF074FF40210A204AF0E4FCDF
:108E6000FF218A204AF0E0FCC0F38013D4F8140DEF
:108E700084F8483D3EF06AFFD4F8100D04214EF00E
:108E800011FB94F8083D012B43D0022B3DD0002B61
:108E900048D094F8493D182B09D194F8482DB7F8DB
:108EA0000831A4F84C6DA4F84E2DA4F8503DB7F845
:108EB000081120483FF0DCF8B7F808111D483FF0D2
:108EC000D7F8D4F8140D3EF03BFF022100204AF001
:108ED000ABFCD4F8140D3EF039FF0421D4F8100D8A
:108EE0004EF0E0FA94F8592D94F85A3D94F8581D34
:108EF00084F8541DC2F12002C3F1100384F85B2DE5
:108F000084F85C3D48E700206CE70823A7F80831A7
:108F1000BFE7002EF9D094F8483D002B14BF08237A
:108F20001023F3E71023A7F80831B2E760190020F7
:108F3000880100206C260020F8B51A4C94F85D3D9D
:108F4000002BFBD159B301444E1E451ED4F80C280A
:108F5000D4F8081815F8017F531CC3F30A038B4299
:108F60002CBF4FF400600020C91A2244014401299B
:108F7000C4F80C3882F8607D0FD101203BF052FF1D
:108F8000D4F80838D4F80C188B4294BF4FF4006220
:108F900000225B1A1344012BEFD0B542D6D100203A
:108FA000F8BD00BF601900200A4B0846D3F8281806
:108FB00010B569B1D3F82838052B09D1064C002A21
:108FC000D4F8683404DD1146FFF7B6FFD4F86834EE
:108FD00010BD00BF60190020582A002010B590F87D
:108FE0005010002380F8503089B10C4CD4F8282858
:108FF0007AB1D4F82828052A0DD1094C3C30D4F890
:109000006834FFF799FFD4F86834012010BD0120BF
:10901000FCE71046FAE71846F8E700BF60190020A1
:10902000582A0020002280F85120D7E790F85020DD
:10903000531C0244DBB280F8503082F83C1090F8A8
:1090400051200AB1132B00D9C8E770472DE9F04F22
:10905000CD4DDFF86483DFF86C9384460F461646E7
:109060000FCD44462DED068B0FC40FCD0FC495E8F0
:1090700007008BB099F86E34029684E80700CDE9BA
:1090800006C7042B00F26881DFE813F0B80166011F
:1090900061010500C8019FEDBD8ADFEDBD8ABD49B4
:1090A000C8F81C10BC49BD4BBD4AC8F8181002993D
:1090B000002918BF134638EE887AF5EE006A86EE6E
:1090C00087AAC8F82430B74FB74B03930026DFEDCB
:1090D000B77A9FEDB79A28EE278AF0EE679A079B3A
:1090E000B34200F02E81039B13F8014B039306F16A
:1090F000010B5FFA8BF2002C00F09381DFF8C8C2FD
:10910000002303E00133152B00F08B8103EB4301B7
:109110005D001CF80100A042F4D14944049291F88A
:109120008914002900F08581204637F037F903685B
:1091300005938246184637F01DF99AF8051037F066
:1091400071F990F800E0BEF1000F40F06A8109EB80
:10915000050025090321013D049A059B80F8C924D7
:109160008D4280F8C81404F00F0C00F23381864859
:1091700000EB4500808D40FA0CF414F0010400F07F
:109180003B81012404FA0CF3013B184004924FF098
:10919000C3FC7D4BDFF834C2049A1D44032195F8CB
:1091A0003430794D18440CEBC0037B619971DA714E
:1091B0005CF830009AF8082000F13F4101F57E018B
:1091C00005EB912191F8381001F01F054909032999
:1091D00004FA05F400F00B81042900F00381022950
:1091E00000F0FB809B880893B3FA83F3C3F11F035D
:1091F000C3F3CC0100EB810103F007030C6A9B0071
:109200000F259D4024EA05040C620C6A02FA03F360
:1092100023430B62022308A90993FEF7F1FEDAF853
:109220000030029A002A00F0A180B9F86C2400EE08
:10923000102AB8EEC00AFCEEC07A17EE901A5D4A0A
:10924000934200F08E80A2F58062934200F0898004
:1092500002F58042934200F0848002F580629342DE
:109260007FD002F5806293427BD0D9F8F426500873
:109270004FF6FF73B0FBF1F21A44120CB0FBF2F29E
:109280000298002870D0B2FBF1F18BB299F86E040D
:1092900004280BBF07EE901A07EE902AF8EE677AC3
:1092A000F8EE676A05BF07EE102A67EEA97A66EE48
:1092B000887AF8EE476A29EE677A99F86F0406997A
:1092C0000091A6EEA87A019051463846C7ED027A81
:1092D00087ED037A30F0B0FA002E52DD7B68D8F8C3
:1092E0003820934274D0012E4BD0D8F850209342AE
:1092F0006ED0022E45D0D8F86820934268D0032E55
:109300003FD0D8F88020934262D0042E39D0D8F8CC
:10931000982093425CD0052E33D0D8F8B0209342E9
:1093200056D0062E2DD0D8F8C820D31A18BF012346
:109330005E460122082E3B747A7407F118077FF409
:10934000CEAE1D480BB0BDEC068BBDE8F08F9FED97
:109350001B8AF0EE488AA2E69FED198AF0EE488A51
:109360009DE6D9F8F40683E719468FE7B0EE4A0A7E
:10937000049350F0D5FAFCEEC07A049B17EE901AD5
:109380005DE70123D4E700BF18BC0508ACC5A737CB
:10939000ACC5A736256A03085167040805650308AC
:1093A0004567040848000010CB2E00206F12833A56
:1093B00000007A44000401401400001028293038CD
:1093C0006F120339582A0020E02E00204C2F002075
:1093D0000023ADE7C7F814E023E717494D6C2C4391
:1093E0004C64FFE614490D6B2C430C63FAE61249FA
:1093F0000D6C2C430C64F5E67C6112E79FED0F8A3F
:109400000F4BC8F8183000230E4A0693012302932D
:10941000C8F81C200C4BF0EE488A4CE69FED0B8AF6
:10942000EEE70B4A084BC8F81C20C8F8243000208F
:1094300088E70B68FFDE00BF003802406F12833AF6
:1094400051670408256A0308456704080000000006
:10945000FD670308F8B50546262025F035FA134CBC
:109460000146F0B9D4F8F80690F838301E3B012BCD
:1094700001D93DF089FF0E4F0026AE4209DBB4F85A
:109480001C370133A4F81C37D4F86834C4F82C37DF
:10949000F8BD17F8011BD4F8F8063DF075FF01364A
:1094A000EBE7002384F82A37EEE700BF582A0020B4
:1094B0005431002038B5154C94F8F13894F8F02860
:1094C0009A421CD004EBC303114AD3F8F418D3F822
:1094D000F8080023984213DC8B780E4A5B0882F868
:1094E0002A37C2F83007FFF7B5FF94F8F1380621A4
:1094F0000133B3FBF1F201FB123384F8F13838BDCC
:10950000CD5C02F8015B0133E4E700BF6019002085
:1095100054310020582A00202DE9F84F1B4C0546F5
:109520001E2094F834A794F835B794F83667B4F849
:109530003897B4F83A8794F83C7725F0C5F930B1FC
:10954000B8F1000F1EBFC14601264FF0000A94F883
:109550003E37DA070AD494F843273AB9012F12D0DC
:10956000022F03D113F0020F08BF012685F800A0D7
:1095700085F801B0AE70A5F80490A5F806802F72AA
:109580002846BDE8F88F3E46F0E700BF582A002085
:1095900013B50446FFF704FB08B300230DF10602E0
:1095A0002046ADF8063013F0F1FDC0B10D4C9DF82A
:1095B000062094F9F81084F80E21032908BF62F000
:1095C0007F024FF00501084808BF84F80E21FFF71D
:1095D00051FB062184F80F010348FFF731FB02B06D
:1095E00010BD00BF88010020920200202DE9F84F35
:1095F0002DED028BFFF7D4FA002844D0264B93F9C7
:10960000F80001283FDD93F81041DFF894809FEDCA
:10961000238A0FF27C0BDBE900AB15468E1E02EBB2
:1096200044094D4504D1BDEC028B2046BDE8F88FBE
:1096300038F8027B26F8027F07EE907AF8EEE77A98
:1096400067EE887A17EE900A4EF076FE52465B4639
:109650004EF0CAFE41EC100B51F0BEFF51EC100B66
:109660004FF0EAF90E2F80B20AD919303223B0FB3D
:10967000F3F080B200EB800000EB8000400080B28D
:1096800025F8020BCDE70024CDE700BFAFF3008043
:109690001655B5BBB16B024088010020CDCCCC3D46
:1096A000C031002038B50D46FFF77AFA044638B1CC
:1096B0000C4890F8FB30DB0704D5B0F8FC0028809C
:1096C000204638BD084A90F9F93092F8EC2893FB0F
:1096D000F2F102FB11320132013100F58A7013F010
:1096E00069FDECE788010020601900202DE9F04FAA
:1096F000A94D95F878378BB08146002B40F0B580A6
:10970000D5F87C67002E00F0B080A44AD2F818414A
:1097100004F0F021B1F1E02F6ED1C2F81831D5F884
:109720008027944268D004930593ADF81830B5F8BB
:10973000383795F834E7ADF8143095F835C795F813
:109740003C3795F836A78DF818300DF110088DF8D4
:1097500010E08DF811C08DF812A098E8070007AB53
:1097600003C38F4F1A80C4F342533B44C4F30342F4
:1097700093F83E10C5F880478E4502F1010201D1F1
:10978000944508D030468DF81C108DF81D2013F03C
:1097900011FDADF82000304613F042FF032804F01D
:1097A000070B34D0042836D000239A4501A930464F
:1097B00018BF8DF81E3013F077FD48B1019BC4F33C
:1097C000001103F001038B4202D0304613F01AFE61
:1097D0000A2207A9404652F0A6F968B19DF81E304A
:1097E000BDF81C2085F83637BDF82030A5F83427A1
:1097F000A5F8383747F0FEFE95F884A704AF95F832
:109800008437032B7BD8DFE803F00A3376A35F4469
:1098100097F84330C9E75F4497F84B30C5E73946BE
:10982000304613F047FD044658B107A8FFF774FE11
:109830009DF81E109DF810308B4260D0304613F01A
:1098400057FE95F88437013303F0030385F8843716
:109850000CB99A45D3D195F83E37DB0700D524B132
:10986000336849461B68304698470BB0BDE8F08F17
:1098700001A8FFF751FE95F83E879DF8044008F0D7
:109880000108ECB1B8F1000F39D13A460DF10301EE
:10989000304613F012FD044688B307A8FFF73CFEDC
:1098A0009DF81C109DF803309DF81D208B4203D1BC
:1098B0009DF81030934222D0304613F023FEC0E7CB
:1098C000B8F1000FBDD13946304613F0F0FC044624
:1098D000A8B107A8FFF720FEBDF82010BDF8103092
:1098E0008B420CD085F8858785F8868733683046AB
:1098F0009B699847A5E795F83E37D80701D500241E
:109900009FE707A9304613F0CFFC04460028F6D0A5
:109910001E2024F0D9FF95F8873783428046EED089
:1099200085F8870760B1B5F83A37002BE7D1079B78
:10993000D907E4D40121304613F064FD444680E7A2
:10994000079BDA07DBD50146304613F05BFD78E76D
:109950003846FFF7E1FD97E8070007AB03C31A801D
:109960009DF810309BB10DF11D0207A9304613F090
:10997000A4FC0DF11E01304613F09CFC0A2207A93D
:10998000384652F0D0F8041E18BF012459E708A940
:10999000304613F08CFCECE7582A002088010020A8
:1099A00018BC050800F01F0240090123032803FA30
:1099B00002F304D004280CD0022805D07047074ACF
:1099C000116C0B4313647047044A516C0B4353648E
:1099D0007047024A116B0B43136370470038024013
:1099E00000487047AC2F002000285FD00368374A3A
:1099F0002DE9F04103F13F4404F57E0402EB94228B
:109A0000012492F8382002F01F055209032A04FAB3
:109A100005F456D0042A4FD0022A48D08588B5FADA
:109A200085F0C0F11F00C0F3CC0603EB860600F002
:109A3000070082000F24306A944020EA040030625C
:109A4000306A01FA02F20243002132624FF0010E45
:109A50000A464FF0030C02270EFA02F838EA050016
:109A600002F101021CD118680CFA01F420EA04008A
:109A70001860186807FA01F606431E609E6826EA19
:109A800004069E6098689860586820EA080058604C
:109A900058685860D86820EA0400D860D868D86050
:109AA000102A01F10201D7D1BDE8F0817047084AC0
:109AB000556C2C435464B1E7054A156B2C43146371
:109AC000ACE7034A156C2C431464A7E718BC0508DF
:109AD000003802402DE9F047C94C94F88817054634
:109AE000C1F34001D4F890073EF036F994F8881796
:109AF000D4F88C07C94301F001013EF02DF9002D87
:109B000000F0E58005F1FF38BE4EBF4D5FFA88F8E2
:109B10001027D4F8903733B11A689B8851690B42EB
:109B200014BF53831383D4F88C3733B11A689B88DE
:109B300051690B4214BF53831383B4F89837002B39
:109B400040F0558194F89A17D4F89C073EF004F938
:109B50004FF0FA0C4FF47A704FF0010E7368C3F3B4
:109B60000803002B40F01781EFF31183002B40F026
:109B70001281D4F86824A968D4F868349A42F8D1DC
:109B8000D4F8C0379942F4D8D4F8BC9700FB09F355
:109B90005B1AB3FBF9F300FB02327368C3F30803EB
:109BA000002B40F0B780EFF31183002B40F0B28020
:109BB000D4F86834D5F808A0D4F868148B42F7D1EB
:109BC000D4F8C0178A45F3D8D4F8BC9700FB09F144
:109BD000A1EB0A01B1FBF9F100FB03139B1AB3F5EA
:109BE0007A7FDAD3BCF1010CB8D1D4F8903733B115
:109BF0001A689B8851690B4214BF53831383D4F8AE
:109C00008C3733B11A689B8851690B4214BF538358
:109C10001383B4F89837002B40F0DD8094F89A173E
:109C2000D4F89C0781F001013EF096F84FF0FA0C51
:109C30004FF47A704FF0010E7368C3F30803002BE2
:109C400040F08980EFF31183002B40F08480D4F83A
:109C50006824A968D4F868349A42F8D1D4F8C03797
:109C60009942F4D8D4F8BC9700FB09F35B1AB3FB14
:109C7000F9F300FB02327368C3F308034BBBEFF345
:109C8000118333BBD4F86834D5F808A0D4F868142D
:109C90008B42F7D1D4F8C0178A45F3D8D4F8BC97D3
:109CA00000FB09F1A1EB0A01B1FBF9F100FB031381
:109CB0009B1AB3F57A7FDED3BCF1010CBCD108F15D
:109CC000FF385FFA88F8B8F1FF0F7FF422AFBDE8E4
:109CD000F087EFF3118987F31288D5F808A02B6875
:109CE000DB0344BFC4F8B8E7D5F808A0D4F868345B
:109CF000D4F8B8175FFA89F989F31188D4F8BC97BA
:109D00000B4400FB09F1A1EB0A01B1FBF9F100FBE7
:109D10000313CDE7EFF3118987F31288D5F808A074
:109D20002B68D90344BFC4F8B8E7D5F808A0D4F825
:109D30006834D4F8B8175FFA89F989F31188D4F830
:109D4000BC970B4400FB09F1A1EB0A01B1FBF9F14F
:109D500000FB031342E7EFF3118187F31288D5F874
:109D600008902B68DA0344BFC4F8B8E7D5F8089028
:109D7000D4F86834D4F8B827C9B281F31188D4F87C
:109D8000BC171A4400FB01F3A3EB0903B3FBF1F387
:109D900000FB02326FE7EFF3118187F31288D5F8E9
:109DA00008902B68DB0344BFC4F8B8E7D5F80890E7
:109DB000D4F86834D4F8B827C9B281F31188D4F83C
:109DC000BC171A4400FB01F3A3EB0903B3FBF1F347
:109DD00000FB0232E1E6D4F8B437002B3FF426AFA3
:109DE000D4F8A0270023136084F8B1371EE7D4F815
:109DF000B437002B3FF4ACAE3BF016F9A8E600BF39
:109E0000582A002000ED00E010E000E02DE9F84FB6
:109E1000C44CC54F94F88817D4F89007C34DC1F3CC
:109E200040013DF099FF94F88817D4F88C07C94396
:109E300001F001013DF090FF4FF0050B4FF01008CD
:109E4000D4F8903733B11A689B8851690B4214BF1C
:109E500053831383D4F88C3733B11A689B885169C4
:109E60000B4214BF53831383B4F89837002B40F090
:109E7000518194F89A17D4F89C073DF06DFF4FF08C
:109E8000320C4FF47A7001267B68C3F30803002B71
:109E900040F01481EFF31183002B40F00F81D4F8D0
:109EA0006824A968D4F868349A42F8D1D4F8C03745
:109EB0009942F4D8D4F8BC9700FB09F35B1AB3FBC2
:109EC000F9F300FB02327B68C3F30803002B40F078
:109ED000B480EFF31183002B40F0AF80D4F86834E6
:109EE000D5F808A0D4F868148B42F7D1D4F8C0177D
:109EF0008A45F3D8D4F8BC9700FB09F1A1EB0A011D
:109F0000B1FBF9F100FB03139B1AB3F57A7FDAD3A7
:109F1000BCF1010CB8D1D4F8903733B11A689B88E2
:109F200051690B4214BF53831383D4F88C3733B178
:109F30001A689B8851690B4214BF53831383B4F88A
:109F40009837002B40F0DA8094F89A17D4F89C07E1
:109F500081F001013DF000FF4FF0320C4FF47A70B8
:109F600001267B68C3F30803002B40F08780EFF3E2
:109F70001183002B40F08280D4F86824A968D4F8BB
:109F800068349A42F8D1D4F8C0379942F4D8D4F85A
:109F9000BC9700FB09F35B1AB3FBF9F300FB023239
:109FA0007B68C3F308033BBBEFF3118323BBD4F8F7
:109FB0006834D5F808A0D4F868148B42F7D1D4F8E7
:109FC000C0178A45F3D8D4F8BC9700FB09F1A1EB80
:109FD0000A01B1FBF9F100FB03139B1AB3F57A7F79
:109FE000DED3BCF1010CBCD10BF1FF3616F0FF0B38
:109FF0007FF426AFBDE8F88FEFF3118988F312885C
:10A00000D5F808A02B68DB0344BFC4F8B867D5F8BF
:10A0100008A0D4F86834D4F8B8175FFA89F989F33E
:10A020001188D4F8BC970B4400FB09F1A1EB0A019D
:10A03000B1FBF9F100FB0313CFE7EFF3118988F3CC
:10A040001288D5F808A02B68D90344BFC4F8B867B4
:10A05000D5F808A0D4F86834D4F8B8175FFA89F9AD
:10A0600089F31188D4F8BC970B4400FB09F1A1EBEC
:10A070000A01B1FBF9F100FB031345E7EFF311818E
:10A0800088F31288D5F808902B68DA0344BFC4F827
:10A09000B867D5F80890D4F86834D4F8B827C9B2AE
:10A0A00081F31188D4F8BC171A4400FB01F3A3EB29
:10A0B0000903B3FBF1F300FB023271E7EFF3118107
:10A0C00088F31288D5F808902B68DB0344BFC4F8E6
:10A0D000B867D5F80890D4F86834D4F8B827C9B26E
:10A0E00081F31188D4F8BC171A4400FB01F3A3EBE9
:10A0F0000903B3FBF1F300FB0232E4E6D4F8B43712
:10A10000002B3FF429AFD4F8A0270023136084F874
:10A11000B13721E7D4F8B437002B3FF4B0AE3AF0B2
:10A1200083FFACE6582A002000ED00E010E000E0DC
:10A1300010B4B8B10D4CD4F8C437102B05D15DF86C
:10A14000044B0521002036F0AFBC03EB4302224450
:10A1500082F8C91701210B4482F8C80782F8CA1790
:10A16000C4F8C4375DF8044B704700BF582A00207C
:10A1700070B5464E96F8F84704EB440306EBC3036C
:10A18000650093F8FC37032B6ED8DFE803F05929FC
:10A190001E02254406EBC505D5F80008002870D13D
:10A1A00096F85C389C425FD0013404F0030293427D
:10A1B00086F8F82758D002EB420406EBC4040223C9
:10A1C000C4F8000884F8FC3770BD2B1906EBC303F4
:10A1D000D3F8002872B1013AC3F80028002070BDFE
:10A1E0002B1906EBC303D3F80028002AF3D102226F
:10A1F00083F8FC27254406EBC50595F80838013B94
:10A20000DBB285F808388BBB214B96F85C68D3F835
:10A210001C11D5F80408621C02F003024B1E032433
:10A22000B242034485F8FC47B3FBF1F0C5F80008DF
:10A230001AD0994218D80138C5F80008012070BD1D
:10A240003EF028F980B1124B2C44D3F81C2106EBC8
:10A25000C404012102F51C5384F8FC170F33B3FB2F
:10A26000F2F3C4F8003870BD012070BD084BD3F87C
:10A270001C21012002F2E733B3FBF2F3C5F80038EA
:10A2800070BD0138C5F80008002070BD582A0020B4
:10A29000880100202DE9F04F2DED108B034697B07B
:10A2A00004331593DFEDCACA149002238A46139231
:10A2B0008B461293149C4FEADB0604EB461202EB2A
:10A2C00006103101A6EB86034FEAC60806EB4605E9
:10A2D000CDE9000100EBC303043108F1040011963D
:10A2E000204421442C01C6EBC60C0394EC00119DC4
:10A2F00004944FEACC0405946C0106EB860E02949C
:10A30000159D009C03EB46174FEACE0E02EBC606E6
:10A310004FEACB094FF0000C51ED01AAD3ED001A22
:10A3200092ED007A94ED005A96ED004AD7ED007A4E
:10A3300015ED012A50ED016A32EE07BA76EE840A75
:10A340007AEE855A31EEA70A3BEE256A70EE804A16
:10A3500076EEC46A36EE244A36EE646A05ED014AAA
:10A3600082ED006AD0ED00BAD6ED012AD3ED019A54
:10A3700095ED00AA92ED016A97ED013A91ED00CAC0
:10A38000D4ED014A7BEEE23A36EEE19A32EE472A0C
:10A3900073EEE98A3AEE464A39EE279A78EE838AD6
:10A3A000B0EE428AA9EE6C8ADC44E24573EEC33A11
:10A3B000B0EE441AA8EEEC1A76EEE77A33EEA97AFC
:10A3C0007CEE643A77EEA17A3AEE066A7AEEC51A26
:10A3D0003CEE24AA74EECC4A39EE833A35EE6A5A42
:10A3E000F0EE639AF0EE48AAE7EE2C9AA8EEAC4A9B
:10A3F000E7EE2C4AE7EE6CAAF0EE418AB0EE427A24
:10A40000B0EE612A7BEE656A7BEEA22A76EE4A5AAE
:10A41000A9EE2C7AA7EEAC2AA7EEAC5AE7EEEC8AAE
:10A4200032EE83BA76EEC3BA35EEE09A75EEC07AB4
:10A4300036EE0A6A76EEE26A36EE0BAA76EE836AAA
:10A4400077EEA07A34EE423A77EE290A36EE4B6A7E
:10A450007BEEA22A39EE000A73EEAA3A78EE244A7D
:10A4600037EE697A31EE055A71EEA85A32EE044A97
:10A4700085ED00AA82ED016A4D4441ED012A4A446E
:10A48000C4ED006A81ED000AC4ED017A494440ED53
:10A49000010A4C4487ED007AC6ED003AC3ED004A4C
:10A4A00080ED003A87ED014A484486ED015A4F4459
:10A4B000C3ED015A4E444B443FF62EAF119B072B80
:10A4C00040F2C781029D149E019B03980499059A4E
:10A4D000083575190C330E95354608F108080EF14C
:10A4E0000804EB1808300831083246442C192818A3
:10A4F0006918AA18079305F10C030D960C940B909C
:10A500000A91099208934FF001084FF0000E129B38
:10A510009E44139B03EBCE0303EBCE02109302EB9E
:10A52000CE0303EBCE01029101EBCE0101EBCE0590
:10A5300005EBCE06D6ED007A0F93AEEB8E030191BC
:10A5400006EB031303EBCE07D3ED01AACDED067A9C
:10A55000019BD5ED007A97ED01BACDED057AD3EDEB
:10A56000007A029BCDED047AD3ED007A0F9BCDEDFE
:10A57000037A07EBCE0CD3ED007ADCED01BACDED1A
:10A58000027A0CEBCE01D2ED007A109A009101EB29
:10A59000CE00014691ED01DACDED017A0099D2EDC0
:10A5A000007A91ED01CA00EBCE0000EBCE0494EDF1
:10A5B00001EAD0ED01DACDED007ADDE90776DDE9DB
:10A5C0000954DDE90B01DDE90D23C44602E000BFBB
:10A5D000F304353F94ED009A90ED00FA91ED006A96
:10A5E000D5ED007AD3ED006A57ED014A92ED005A9D
:10A5F00056ED013A96ED00AA35EE060A73EEA65A1C
:10A6000039EE278A34EE8F7A70EE082A75EE87EAE3
:10A6100035EE465A3EEEA26A73EEE63A06ED016A60
:10A62000D1ED019AD2ED01FAD4ED016AD3ED011A10
:10A6300095ED013AD0ED018A97ED004A3FEEE96AC7
:10A6400035EE491A76EE660A31EE271A3AEE612A9D
:10A6500075EE677A70EE830A3FEEA95A74EECF9AD0
:10A6600077EE897A7AEE211AB0EE42AA74EE68FA91
:10A67000A0EEECAADC44E24535EEC77AB0EE639A70
:10A6800074EE285A38EEC44AF0EE698AA1EE6C9A4C
:10A69000E7EEAC8A36EE436A7FEE644A36EE266A0F
:10A6A000A0EEAC2AF0EE4A0AE7EEEC0AE7EEAC4A7E
:10A6B000F0EE687AF0EE498A36EE833AE6EE6C8A7E
:10A6C000E1EE2C3AB0EE6F1AA6EE2C1A71EEE56AA6
:10A6D000A6EE2C4A71EEA55A75EE031A7EEEE22A1A
:10A6E00037EE43FA75EEE1EAB0EE686A76EEC08ABC
:10A6F00039EE044A7FEE86FA76EEC86A33EE816A56
:10A7000038EE888A73EEC13A37EE457A2CEE2E1A6F
:10A710003FEE055A22EECC9A9DED03FA70EE266AC2
:10A7200033EE077AAFEE221AAFEE2E9A7AEE244A73
:10A730009DED01FA79EEA09A25EE4BAA72EE670A1A
:10A7400037EE822A6BEE087AAFEE08AAEFEE057AB2
:10A750002DEEA63A9DED05FA67EE6D8AAFEE073A4B
:10A76000EFEE268A66EE6A2A9DED00FA2AEEA00A2E
:10A77000EFEE202A6EEE02EADDED060A23EECE5A57
:10A78000E0EEA3EA2BEEA98ADDED023AAFEE060A6F
:10A79000A3EE848A24EE6B7A6DEE246A9DED044A62
:10A7A0002FEECD6AA0EE825AA3EEA97AE4EE2F6ACC
:10A7B000A4EE246A75EEA15AC6ED005A83ED001A84
:10A7C00083ED019A4E4447ED017A87ED00AA4B4490
:10A7D00080ED003AC0ED018A4F4482ED000A484402
:10A7E000C2ED012AC5ED00EA85ED015A4A44C1EDEA
:10A7F000006A81ED016A4D4484ED008A84ED017A9E
:10A8000049444C443FF6E6AE0E9B08330E930D9B35
:10A8100008330D930C9B08330C930B9B08330B935D
:10A820000A9B08330A93099B08330993089B083352
:10A830000893079B08330793119B08F101084345D0
:10A840007FF465AE129BDDF844B0DB009BB212933F
:10A8500030E517B0BDEC108BBDE8F08F0848002341
:10A8600002461178022902F1060204D00133062BB8
:10A87000F7D10020704703EB430300EB4300704720
:10A88000B8320020F0B5A14C85B0242204F5066052
:10A89000002151F070F994F88568002E3CD13546BE
:10A8A000D4F898386BB39B6A5BB399489847836830
:10A8B0003BB30388DFF884C2013B9BB26046664627
:10A8C00000213778032F06F106061DD00131062935
:10A8D000F7D100220178022900F1060000F0AB80D8
:10A8E0000132062AF6D1D4F8C018052909D0481C2F
:10A8F00002FB01C2C4F8C00802200021938010703E
:10A900005180284605B0F0BD062303FB0141B1F894
:10A910006238013B9BB2DCE794F8840804F68C03B0
:10A92000C4F8883808B90025BAE73CF089FD074625
:10A93000C4F894083DF0F8F905460028F3D0013E2C
:10A94000022376B29E4284F88C38ECDC714B03EB28
:10A950000616D6F8183D002BE5D0C4F890380FB194
:10A960002023FB80092138463DF018F8D4F88838B8
:10A9700098683DF0EBF9D4F88838102158684CF00D
:10A9800091FD654BD4F88828C4F8B82893E80300F3
:10A990000123009032208DF8041084F8BC38002682
:10A9A0003AF040FA052302AA6946D4F888088DF8DF
:10A9B0000A608DF809603DF093FB9DF80A209DF830
:10A9C00009009DF80B10554B120242EA00420A435F
:10A9D0009A4200F0928032DCA3F5F1139A425ED0E5
:10A9E00042DD4F4B9A4252D002339A4262D14FF429
:10A9F00000724FF48073A4F89C28A4F8A838B4F827
:10AA0000A828B4F89C38120202FB03F300204FF48C
:10AA10008071B3F1807FC4F8A028C4F8A43884F80A
:10AA2000AA08A4F89E1857D83E4BC4F898380122BB
:10AA300084F8B12834E7062101FB02C25CE73A4BF7
:10AA40009A4234DC053B9A4234DD384B1344032BE5
:10AA50004BD801A252F823F09FAA00088FAA000841
:10AA600081AA0008EFA90008A3F52203013B9A423E
:10AA70003BD02DDD2E4B9A4209D001339A4219D199
:10AA80004FF48073A4F89C38A4F8A838B7E7802264
:10AA90004FF48073A4F89C28A4F8A838AFE74022AC
:10AAA0004FF48073A4F89C28A4F8A838A7E7214B9A
:10AAB0009A42E5D0002594F88408A4F89C58A4F89C
:10AAC000A858C4F8A058C4F8A4583DF0AFFAE7E677
:10AAD000194B9A42D4D0EDE70123D4F8B80884F892
:10AAE000B038B72148F0B6F89EE720224FF48073C3
:10AAF000A4F89C28A4F8A83881E74FF480621023BA
:10AB0000A4F89C28A4F8A83879E700BF582A0020A8
:10AB1000F0320020601900206CBC05081640E000EF
:10AB20001720C20074BC05081940EF00EABF10FFEF
:10AB300017BA20001870EF0018600100B83200202A
:10AB400099B10A6B824216D9154BD3F8F428914279
:10AB500021D34C3991421ED30B6B9842F9D38B6BA6
:10AB60009842F6D80B46184670470D4BD3F8F418A8
:10AB70000A6B904212D30B680BB9F4E70A6B904250
:10AB80000B4602D38A6B9042EDD951F84C3F002B13
:10AB9000F4D1184670470023184670470A46D8E794
:10ABA000582A00202DE9F047CC0143D10346224A20
:10ABB00043F8082B4FF0FF324260022418467E26ED
:10ABC000DFF87880D8F8F8982644013E051D4946FC
:10ABD0006FF070474FF0010A08E0A3421CD0631CDD
:10ABE00045F8043C321B1C460435CAB10B6BA3422A
:10ABF00002D88B6BA34204D22046FFF7A1FF014687
:10AC000090B10A794B6B002AE7D1A34204D0E6D277
:10AC100045F8042C631CE5E745F8047C631CE1E778
:10AC2000C8F8F818BDE8F08745F804AC321B631C7F
:10AC30004946D8E78026C3E7F8FFFF0F582A0020CF
:10AC4000F0B40D6800240CE0BCF1050F18D8A0F199
:10AC500037030A2B14D104EB840415F8010B03EB22
:10AC60004404A0F13003DEB2092EA0F16107A0F187
:10AC7000410CF0D9052FE7D8A0F157030A2BEAD0F1
:10AC80000D601460F0BC7047036870B55E6A26B151
:10AC900033460522BDE87040184704460D464E1D58
:10ACA00000E023689B68204698470028F9D0236875
:10ACB00015F8011B1B6820469847B542F1D170BDBD
:10ACC0002DE9F047164D0746002095F9059905F640
:10ACD0000C1684B007EB010805F6AC3504464FF0BE
:10ACE000B60A3368ABB193F83830142B11D019F190
:10ACF000020F01D04B450CD1002269463046CDE908
:10AD00000244CDE90078ADF808A08DF80E402FF090
:10AD100075FCE036B542E4D104B0BDE8F08700BF71
:10AD2000582A00202DE9F743124E0124A0231825AC
:10AD30005FFA84F8FF2B14DCD6F8AC0BE9B2C1F152
:10AD40001C0282725F1C026880F80B80DBB20093E9
:10AD5000C1F11B01D2F8189000234246C9B2C8477E
:10AD60003B46013DE6D10134052CE0D103B0BDE8FE
:10AD7000F08300BF582A002010B50A4C94F8C90B84
:10AD8000003818BF0120FDF7EBFF50B1064904F56C
:10AD90003B603DF0DDF804F53B600EF069FF04F523
:10ADA0003B6010BD582A0020A0BC050870B444794F
:10ADB00041BB03684FF400524FF400762025022176
:10ADC0003CBB1A8C22F001021204120C1A841A8B5A
:10ADD000188C22F0F30280B2120420F00A00120C48
:10ADE000014342F0010241F001011A8319841A8BD8
:10ADF00022F00C021204120C1A831A8B92B270BC4D
:10AE00001A83704700220368164615461146002C27
:10AE1000D7D0042C21D0082C38D0198C21F48051A3
:10AE20000904090C19849C8B1D8C45F6FF7040F6B3
:10AE3000FF4128402140024342F4805241F4807196
:10AE400099831A849A8B22F440621204120C9A831A
:10AE50009A8B92B270BC9A8370471A8C22F01002BF
:10AE60001204120C1A84188B198C89B240F6FF4216
:10AE700021F0A00102400D4342F4807245F010051C
:10AE80001A831D841A8B22F44062B3E71A8C22F4D1
:10AE900080721204120C1A84998B1A8C21F0F3011F
:10AEA00092B2090422F42062090C324342F4807207
:10AEB00041F0010199831A849A8B22F00C02C4E7B5
:10AEC0000B88F0B433BB028C4C880E898B88C98800
:10AED00022F001021204120C0284058B028CADB226
:10AEE00025F0F30592B22B4322F00A0243EA06133F
:10AEF00022439BB242F0010203830284038B23F0BE
:10AF00000C031B041B0C0383038B9BB21943F0BC83
:10AF100001837047042B048C2CD0082B4E888A8820
:10AF20000D89C98851D024F480542404240C04844D
:10AF3000838B078C2C0344EA022440F6FF421A401C
:10AF400045F6FF733B4043EA063322439BB292B27D
:10AF500043F4805382830384828B22F44062120480
:10AF6000120C8283838B9BB243EA01239BB2F0BC19
:10AF70008383704724F010042404240C4D880F8927
:10AF80008A88C9880484068B038C12029BB242EA29
:10AF9000073423F0A00340F6FF42324043EA051392
:10AFA00022439BB292B243F0100302830384028BCC
:10AFB00022F440621204120C0283038B9BB243EA18
:10AFC00001239BB2F0BC0383704724F480742404F3
:10AFD000240C0484848B038CA4B29BB224F0F3046D
:10AFE00023F42063224343EA062342EA05129BB27C
:10AFF00043F4807392B282830384838B23F00C0327
:10B000001B041B0C8383838B9BB21943F0BC81838D
:10B01000704700BF2DE9F04F824C94F84E8E94F8A3
:10B0200059AE87B016460B22054689464046114662
:10B0300002959DF840701D4635F044FAC24583469E
:10B0400040F0B080039040463CF0FAF917F0080356
:10B050000246019300F09A80BBF1000F00F092804D
:10B060009BF80710890700F18D80C4F81CBCC4F858
:10B07000180CC4F8140C10B140F60B31C18005F067
:10B08000020ADFF8B881029B674A84F8DC5B08F5A6
:10B09000807100255846C4F8043CC4F8F01B4FF4F6
:10B0A00080733146C4F8D82BC4F8E43BC4F8E83BBD
:10B0B000C4F8E06B84F8DD7BC4F8089CC4F8EC8B22
:10B0C000C4F8F85BC4F8F45BC4F8005CC4F8FC5B3B
:10B0D000C4F8305E84F8345EA4F8285E2EF006FAD8
:10B0E000D4F81C0C07F00101FFF760FE4F4A504BEB
:10B0F000D4F81C0CC4F83C5EC4F8402EC4F8383EAA
:10B10000BAF1000F25D0D4F8207C17B33A68036851
:10B110009A421ED001233146384684F8353E2EF03F
:10B12000E5F9D4F8200C08F50572294634F034FF0F
:10B13000D4F81C0C2A4608F5077134F02DFF019B4A
:10B1400093B93C482EF0EEF93A4801212EF022FA4C
:10B150000AE0394A002302F1080184F8353E34F050
:10B160001BFF019B002BECD032482EF0E7F9314851
:10B1700007B0BDE8F08FCDE90403039B13B1D97983
:10B180008B0716D5002007B0BDE8F08F15F001033E
:10B19000F1D105F002018A46BAF1000F22D1D4F8AC
:10B1A0001CBC6EE70B220C21504635F08BF9039046
:10B1B00049E750463CF044F9039AC4F81C2C15F0BA
:10B1C000020ADDE90423C4F8140C05F0020123D0BF
:10B1D000904219D0C0B140F60C3CA0F806C0BAF1BC
:10B1E000000FDCD0B8F1000FCCD0C4F8182C83B914
:10B1F000BBF1000FC6D0C4F81CBC12B140F60B3333
:10B20000D3805FFA81FACAE7B8F1000FBAD0C4F868
:10B21000182CC4F820BCF0E70028DCD1DDF80CB015
:10B220002FE700BF582A0020F0BC0508316D030845
:10B23000AD95030830360020903800207C36002081
:10B24000094B93F86E34042B08D9053B032B08D81F
:10B2500001231A4600B103701046704700230122F3
:10B26000F8E700231A46F5E7582A00202DE9F047B1
:10B270009AB0DDE9226ADDF8909004460D46174643
:10B28000984602E020683CF073F820683CF078F8BB
:10B290000028F7D10146642201A850F06CFC254B30
:10B2A0008DF80450CDF85CA00293002D3ED0AB1E6B
:10B2B000012B3DD9042D14BF00230323DFF878A010
:10B2C0008DF80530DAF8683403961E440123CDE981
:10B2D000059404968DF85B3037B14246394607A88D
:10B2E00050F0E8FB8DF85A809AF8AA6E0023189364
:10B2F000CEB99AF8A90E642202FB00A001A900F6BB
:10B30000AC6050F0D7FB01238AF8A96E8AF8AA3EF8
:10B31000236843B143463A46294620461AB0BDE861
:10B32000F04711F01FBA1AB0BDE8F0870523C5E752
:10B330000223C3E7C0380020582A00209FED737A0B
:10B3400007EE901A20EE070AF8EE677A27EE800AD9
:10B35000FDEEC07A17EE903A2033402B00F2C78002
:10B36000DFED6B7AB4EEE70AF1EE10FAF0EE407A18
:10B370000CDD9FED686ADFED686AB0EE677AB4EEC7
:10B38000E67AF1EE10FA77EEC67AF6DC9FED637A94
:10B39000F4EEC77AF1EE10FA0CD59FED5E6ADFEDA0
:10B3A000606AB0EE677AB4EEE67AF1EE10FA77EE04
:10B3B000867AF6D49FED5B7AF4EEC77AF1EE10FA56
:10B3C00000F38D809FED587AF4EEC77AF1EE10FA13
:10B3D00044BF9FED527A77EE677A27EEA76ADFEDDA
:10B3E000535A9FED537ADFED536AA6EE257A67EE46
:10B3F000865AE6EE076AB6EE007AE5EEA67A27EE02
:10B40000877ADFED486A70EE267ABDEEE76A16EEBF
:10B41000103A2033402B67D8B4EEE60AF1EE10FA6A
:10B420000CDDDFED3C5A9FED3C6AF0EE676AF4EE0E
:10B43000C66AF1EE10FA77EEE57AF6DCDFED376AF0
:10B44000F4EEE67AF1EE10FA0CD5DFED325A9FED0C
:10B45000346AF0EE676AF4EEC66AF1EE10FA77EE3F
:10B46000A57AF6D4DFED2F6AF4EEE67AF1EE10FA63
:10B4700040DDDFED276A76EEE77A67EEA75A9FEDAB
:10B480002B5A9FED2B6ADFED2B6AA5EE856A27EE1E
:10B49000A55AE5EE866AB8EE006AE5EE267A67EE12
:10B4A000867AC7EE206A0023836143610362C36129
:10B4B000B7EE006A76EE865A76EE666A86EE257AF2
:10B4C00067EE277A66EE876AC0ED017AC0ED037AEF
:10B4D00080ED007A80ED027AC0ED046A70479FED3E
:10B4E0000C7A77EE677A78E7DFED137AD9E79FED8C
:10B4F000127A86E7DFED0C6AF4EEE67AF1EE10FAE6
:10B5000044BFDFED066A76EEE77AB6E727D4D23697
:10B51000DB0F4940DB0FC940E4CB1641DB0F49C0CC
:10B52000E4CB16C1DB0FC93FDB0FC9BF92E741B9BE
:10B530009730083C15A82ABE000000000C480D4BAF
:10B54000D0F82C1F10B40C4CC0F81C3F8A1E2231BE
:10B55000B0F8463F1B01A4FB03C3DB08A3F5B063AF
:10B5600022F8023F9142F3D15DF8044B704700BFCF
:10B57000582A002005130208CDCCCCCC70B5084C5D
:10B58000251D2E4614F8010B2FF09EFA28B10378E2
:10B5900005F8013BB442F5D170BDFF23F8E700BFC9
:10B5A000C03900202DE9F0471D4F012607F108059D
:10B5B000B2464FF03C094FF0000817F8010B3BF082
:10B5C0003FFF044690B180F80690C671FB7803F007
:10B5D0007F02012A18D013F0800F20460DD185F884
:10B5E00004803CF0ADFB85F805802C600136052E0B
:10B5F00005F10805E1D1BDE8F08785F804A03CF02D
:10B60000A5FB85F805A0F0E71B0605D4012120461F
:10B610003CF0C4F9FB78DEE73CF098FBF6E700BFAE
:10B62000C83900202DE9F04FDFF8EC91DFF8ECB1DC
:10B6300085B0A9F6143309F10C05A9F69C7A039399
:10B64000012419F8017B002F00F0C0804FEA171881
:10B6500008F1FF38B8F1030F07F00F0200F2B980CC
:10B660000BEB4803988D40FA02F616F0010600F045
:10B67000CB8001239340013B1840D8444DF04CFA55
:10B6800098F83430624E184406EBC00604236E610D
:10B69000F471B371002303E00133152B00F09680A1
:10B6A000039903EB43024FEA4308895CB942F3D1A3
:10B6B000524492F88914002900F0A880384634F0EA
:10B6C0006DFE0746006834F055FE797934F0AAFE25
:10B6D0000378002B7AD1D044042388F8C94488F831
:10B6E000C834002E5AD03368387A03F13F4202F54D
:10B6F0007E020BEB9222012192F8382002F01F0CFF
:10B700005209032A01FA0CF16ED0042A64D0022AED
:10B7100072D0B6F804E0BEFA8EF2C2F11F02C2F394
:10B72000CC0103EB810102F007020E6A92004FF098
:10B730000F0C0CFA02FC26EA0C060E620E6A904010
:10B740003043002208621146012000FA01FC3CEA65
:10B750000E001ED118680326964020EA06001860E5
:10B76000D3F800800220904040EA080018609868F2
:10B7700020EA0600986098689860586820EA0C00F3
:10B78000586058685860D86820EA0600D860D868C1
:10B79000D8600131102902F10202D5D1BAF8981F00
:10B7A000BAF89A3F1B4A0091002001340190B2FB85
:10B7B000F3F328469BB23946E4B22EF03DF801235C
:10B7C000092C6B7405F118057FF43BAF05B0BDE89B
:10B7D000F08F00266E615DE7DFF844C0DCF83020B2
:10B7E0000A43CCF8302094E7DFF834C0DCF840207E
:10B7F0001143CCF840108CE7DFF824C0DCF844207B
:10B800001143CCF8441084E76E6143E70B68FFDE18
:10B810004C2F002040420F00F439002018BC0508CE
:10B82000003802402DE9F0418C4B82B013F8902C87
:10B830000190002A40F00C8113F86C2C33F86A1C3C
:10B84000DFED876A33F8688C864D07EE102A07EE25
:10B85000901AB8EEC76AB7EE007A33F86E1CA5F8F6
