:020000040800F2
:10000000F8FF0120F1A2090871A30908E55A0808C0
:1000100071A3090871A3090871A309080000000071
:1000200000000000000000000000000071A30908AB
:1000300071A309080000000071A309082521080820
:1000400071A3090871A3090871A3090871A309081C
:1000500071A3090871A309086D6708089968080861
:100060005D68080821680808E56708084D710908F7
:100070003D7109082D7109081D71090809710908E8
:10008000F5700908E170090871A3090871A309084E
:1000900071A3090871A3090871A30908A9670808D1
:1000A00071A30908A187090871A3090891870908A4
:1000B000818709087187090861870908816F090824
:1000C000A56F090871A3090871A3090881710908BE
:1000D00075710908F5210808E9210808DD210808DB
:1000E0003167080871A309080000000009870908A2
:1000F00019870908F986090841870908CD70090898
:1001000071A3090839470908518709086971090865
:10011000D1210808C521080871A30908717C0408C9
:10012000B9700908A5700908917009087D7009085F
:100130006970090871A3090871A3090871A3090866
:1001400000000000000000000000000000000000AF
:1001500055700908417009082D700908B92108086F
:1001600071A3090871A3090871A3090871A30908FB
:1001700071A3090871A3090871A309080000000010
:1001800071A3090871A30908AD210808A121080875
:100190005D71090871A3090871A3090871A3090811
:1001A00071A3090871A3090871A3090871A30908BB
:1001B00071A3090871A3090871A3090871A30908AB
:1001C00071A3090871A3090871A3090871A309089B
:1001D00071A30908F97E040871A3090871A309082D
:1001E00071A3090871A3090871A3090871A309087B
:1001F00071A3090871A3090871A3090871A309086B
:1002000071A3090871A3090871A3090871A309085A
:10021000E9860908D9860908C986090871A3090869
:1002200071A3090871A3090871A30908000000005F
:100230005D49090871A309080000000071A30908BD
:1002400071A3090871A3090871A3090871A309081A
:1002500071A3090871A3090871A3090871A309080A
:1002600071A3090871A3090871A3090871A30908FA
:1002700071A3090871A3090895210808000000006E
:1002800071A309080000000071A309080000000024
:080290000000000071A3090841
:08029800909D09000100000027
:1002A0000E02010002000000785100247C5100245D
:1002B00000000000980A0008232001001000000040
:1002C000C050002480510024000000006D16060874
:1002D0000D10010094000000984F0024905100245C
:1002E00000000000B99C070804000800800000001E
:1002F000F04E002424520024000000000000000002
:10030000F901010004000000B84E0024A4520024AA
:100310000000000039F50708FD010100240000007D
:10032000904E0024A8520024000000008DF407081D
:10033000FB01010001000000544E0024CC520024B7
:100340000000000009FC0808FC0101000900000091
:10035000204D0024D05200240000000019FC0808A1
:10036000F701010006000000144D0024DC520024B7
:10037000000000009A0A00080A800100280000001E
:10038000B04C0024E4520024000000005915060877
:10039000160215003F000000A43C00240C5300246A
:1003A00000000000FDED080834000100100000000E
:1003B000DC4B00244C53002400000000694A06086E
:1003C0001102010008000000B44B00245C5300241B
:1003D00000000000A00A0008121201000400000042
:1003E000AC4B00246453002400000000A80A00085D
:1003F0001820010032000000784B002468530024CC
:100400000000000009FD0808061001001C000000A3
:10041000883C00249C5300240000000039FC08089C
:1004200013020100040000006C1F0024B8530024D4
:1004300000000000AC0A00081220010011000000BA
:1004400088500024BC53002400000000B00A0008BB
:10045000000201000B000000CC470024D053002410
:1004600000000000B5EE0808FA01010003000000DA
:1004700088470024DC530024000000009DEE08089B
:100480000202010003000000A4250024E053002420
:1004900000000000000000000C0201000400000049
:1004A0008C250024E453002400000000BDEE080861
:1004B000110001000C00000026440024E853002431
:1004C00000000000D19D0708FE010100140000009B
:1004D000A0430024F453002400000000C9ED0808E4
:1004E000140201000500000068540024C8540024D0
:1004F00000000000C20A00082312010010000000E2
:10050000F87A00247C7F002400000000C80A00085C
:10051000371001002E000000247F00248C7F00246F
:1005200000000000D80A00081610010006000000B4
:10053000F07A0024BC7F002400000000060B0008B5
:100540002F10010022000000587F0024C47F0024E7
:10055000000000000C0B00081E0001000900000054
:100560001C790024E87F0024000000002E0B000806
:100570000510010006000000CC7A0024F47F00245E
:1005800000000000380B0008F58101006800000041
:1005900078780024FC7F0024000000005D440508FA
:1005A000FD07010076000000BE770024648000246F
:1005B0000000000051230508261001000E00000075
:1005C000EC800024DC80002400000000AD21050840
:1005D0000B3001001A000000A47700242C810024B5
:1005E000000000003E0B00081F3001002400000046
:1005F000B07900244881002400000000580B000856
:1006000005020100040000008C7B00246C810024A2
:10061000000000007C0B0008030101000A0000003C
:10062000347900247081002400000000A11D050819
:10063000012001000C000000EC89002444920024F9
:1006400000000000800B00080EF003009E01000077
:1006500004870024509200240000000045A00608F2
:10066000130001000400000040920024F0930024D5
:10067000000000008C0B00080101010004000000D4
:1006800044860024F49300240000000000000000D1
:1006900000010100040000003C860024F8930024BF
:1006A00000000000900B00080201010003000000A0
:1006B00038860024FC930024000000008D600708A9
:1006C000220201001C010000148F00240094002469
:1006D00000000000C1FB08080C200600CC00000050
:1006E000C88800241C950024000000004D60070805
:1006F000010201000B00000050860024E895002450
:1007000000000000A5EE08081B0201001000000018
:10071000C08C0024F49500240000000041EF08087C
:100720001B1001000C00000000830024049600242C
:1007300000000000399F050821020100F0000000C0
:10074000848100241096002400000000299E0508E2
:10075000203201000A00000050A6002444A6002414
:1007600000000000B12A060815001000700000000B
:100770008CA500245CA600240000000000000000FE
:100780002A000800600000009CA40024CCA60024DD
:1007900000000000892A06082C0004001000000058
:1007A0003CA700242CA700240000000069280608AC
:1007B0002B0012002400000070A700244CA7002486
:1007C000000000003D2806082920140078000000E1
:1007D0007CA2002494A70024000000000000000078
:1007E000F62101000C00000048A000240CA8002401
:1007F00000000000940B00081C0202001C00000016
:10080000EC9F00245CA800240000000005FE0808FE
:10081000282001001800000008A0002478A8002467
:1008200000000000592B060804120100020000001D
:10083000C0A1002490A8002400000000A00B000824
:100840000F02010001000000BCA1002494A80024B4
:1008500000000000A20B00081400010004000000CA
:10086000D49F002498A8002400000000A40B0008D6
:10087000031201003D000000B0AE002434AF00249C
:1008800000000000A80B000825201E002C0100001D
:1008900014AC002474AF002400000000000000002D
:1008A0001010010002000000FCAB0024A0B00024E6
:1008B00000000000E60B0008F8210100060000001F
:1008C000DCAB0024A4B0002400000000E80B00080A
:1008D000190001000500000040AB0024ACB000246A
:1008E00000000000EE0B00081A0001000E000000DE
:1008F0002CAA0024B4B0002400000000F40B00086F
:1009000029020100400000007CB300246CB90024DF
:1009100000000000020C00080A02010014000000A0
:10092000D0B80024CCB900240000000021650708DD
:1009300003000100010000005CB90024E0B90024BC
:100940000000000000000000FF1101000600000090
:10095000D0BA00245CBB0024000000008DEE080823
:10096000020001000C000000C4BA002464BB002493
:100970000000000000000000280204000400000045
:10098000ACBF0024CCC70024000000003DEF0808E5
:100990002702040004000000A8BF0024D0C70024E0
:1009A0000000000031EF08081F02080010000000DE
:1009B000ECBC0024D4C70024000000007DED080832
:1009C0001A0201003C000000B0BC0024E4C700246F
:1009D0000000000079FD0808381001000100000047
:1009E00090BB002420C8002400000000420C000836
:1009F000070201000200000010CE002428CE0024CF
:100A000000000000440C0008060204001000000072
:100A10006CCD00242CCE0024000000009DFB0808B3
:100A2000081206001E0000004CCD00243CCE00241D
:100A300000000000CDEE08082502110011000000A2
:100A400070CE00245CCE002400000000A1FC080849
:100A50002700010004000000FCC8002484CE00240C
:100A600000000000460C0008100201000100000018
:100A700094CE002490CE0024000000004A0C000810
:100A8000260201000600000088CE00249CCE00242F
:080A9000000000004C0C0008FE
:100A980000005301000000000000000001010101F6
:100AA800FFFFFFFF000001000000000100000548F3
:100AB80037343300000000020000000000FF02008D
:100AC800000000000000000000000000000000001E
:100AD80020003200C800D007960014003200280019
:100AE8004C0440060005500014000F000800640084
:100AF8000100010005000A000000F4019600C40985
:100B080000001900000000000000000000000000C4
:100B180000000000000000000000000000000000CD
:100B280000000000000000050100000000000000B7
:100B3800200002010000AE014A015E012C0164019F
:100B48000100000001000A019A01001E0A000002CB
:100B58000000000000010000000500000102030081
:100B6800000000000000000000000000000000007D
:100B78000080070000000000E8036400040A000188
:100B880014001E000020403090010000000000000A
:100B98000100000002020000000000000300002322
:100BA800000000000000000000000000000000003D
:100BB800000000000000000000000000000000002D
:100BC800000000000000000000000000000000001D
:100BD8000000000000000000000000000100000507
:100BE8000101F40114000000280100007E05EA0557
:100BF800B4053200E803D007000000000000000040
:100C080000000000000000000000000000000000DC
:100C180000000000000000000000000000000000CC
:100C280000000000000000000000000000000000BC
:100C3800000000000000000000000000013C20034C
:0A0C48000000000046472E000000E7
:100C520000C20100000008000A0600020000004075
:100C62000100000009026400030100C0320904000F
:100C720000010300000009211101000122360007D2
:100C820005830308000A080B01020202010009049D
:100C920001000102020100052400100105240100E7
:100CA2000204240202052406010207058203080049
:100CB200FF09040200020A000000070501024000C9
:100CC200000705810240000081E9040879A60408B2
:100CD200FDE60408000000009D9904080DE50408E3
:100CE200C999040800000000000000000000000094
:100CF2007D9904088D9904086D9904085D9904088A
:100D02001A030000000000000000000000000000C4
:100D120000000000000000000000000004030904BD
:100D220012010002EF020140830456320002010266
:100D32000301000012010002020000408304405738
:100D420000020102030100000090D0037D000000B8
:100D5200010000000000803F0A060002000000407F
:100D62000100000009022200010100E03209040032
:100D720000010301020009211101000122360007CE
:100D820005830308000A000009022200010100E0B5
:100D920032090400000103010200092111010001CE
:100DA200223600070583030800070000090222001B
:100DB200010100E0320904000001030102000921DF
:100DC200110100012236000705830308000A000012
:100DD2000A0600020000004001000000090743006B
:100DE200020104C0320904000001020201000524CC
:100DF200001001052401000104240202052406005A
:100E0200010705820308001009040100020A00001C
:100E120000070501024000000705810240000000B2
:100E220009024300020100C032090400000102026B
:100E3200010005240010010524010001042402021E
:100E420005240600010705820308001009040100B9
:100E5200020A0000000705010200020007058102E4
:100E62000002000009024300020100C0320904002E
:100E72000001020201000524001001052401000105
:100E8200042402020524060001070582030800105B
:100E920009040100020A00000007050102400000E7
:100EA200070581024000000005010905A101A1001A
:100EB2000501093009310932093309350934093686
:100EC20009371581257F75089508810205091901E1
:100ED200290815002501950875018102C0C000008E
:100EE200092111010001223600000000100000005B
:100EF20000FF0000000000000000AA5507010000EA
:100F02000101AA55050100007EFF0000FFFFFFFF5F
:100F120008000000ECF50908FF1FFF1F2D202D2DF2
:100F2200202D2D2D2D202D2D2D2D00000000000017
:100F32000000000000000000000000AA550B0100A4
:100F420000AA5505010000AA550902000000AA5591
:100F520003009F0001000000C01200002481002451
:100F620000000000FC80002400000000446E0A081B
:100F7200C06D0A080000000001610708A086010098
:100F8200040000000000000000000000000000005B
:100F9200000000000000000000000000000000004F
:100FA200000000000000000000000000446E0A087B
:100FB2004C6E0A0800000000ED050808E803000076
:100FC200040000000000000000000000000000001B
:100FD200000000000000000000000000000000000F
:100FE200000000000000000000000000546E0A082B
:100FF2000000000000000000611000007D00000001
:10100200FF000000000000000000000000000000DF
:1010120000000000000000000000000000000000CE
:10102200000000000000000000000000F8E80A08CC
:101032000000000000000000950600007D00000096
:10104200FF0000000000000000000000000000009F
:10105200000000000000000000000000000000008E
:101062000000000000000000000000005C790A0897
:101072000000000000000000F11300007D000000ED
:10108200FF0000000000000000000000000000005F
:10109200000000000000000000000000000000004E
:1010A2000000000000000000000000005C6E0A0862
:1010B200000000000000000011FD0708E803000026
:1010C200030000000000000000000000000000001B
:1010D200000000000000000000000000000000000E
:1010E200000000000000000000000000606E0A081E
:1010F2000000000000000000E5F0060810270000D4
:1011020003000000000000000000000000000000DA
:1011120000000000000000000000000000000000CD
:101122000000000000000000000000000CE50A08BA
:101132000000000041240608815C08085F76000078
:101142000500000000000000000000000000000098
:10115200000000000000000000000000000000008D
:101162000000000000000000000000009CE80A08E7
:101172000000000000000000016F080810270000B6
:10118200010000000000000000000000000000005C
:10119200000000000000000000000000000000004D
:1011A2000000000000000000000000006C6E0A0851
:1011B2000000000000000000B1F10708E803000091
:1011C2000500000000000000000000000000000018
:1011D200000000000000000000000000000000000D
:1011E200000000000000000000000000786E0A0805
:1011F20000000000000000009D670708204E00006C
:1012020003000000000000000000000000000000D9
:1012120000000000000000000000000000000000CC
:10122200000000000000000000000000886E0A08B4
:1012320000000000000000005D650708204E00006D
:101242000300000000000000000000000000000099
:10125200000000000000000000000000000000008C
:10126200000000000000000000000000986E0A0864
:10127200000000000000000051020808400D0300B9
:101282000300000000000000000000000000000059
:10129200000000000000000000000000000000004C
:1012A200000000000000000000000000A86E0A0814
:1012B20000000000000000002DBA070810270000FF
:1012C200010000000000000000000000000000001B
:1012D200000000000000000000000000000000000C
:1012E200000000000000000000000000EC6D0A0891
:1012F200000000000000000061AB0508102700009C
:1013020003000000000000000000000000000000D8
:1013120000000000000000000000000000000000CB
:10132200000000000000000000000000B06E0A088B
:101332000000000000000000655E0608A0860100B3
:10134200010000000000000000000000000000009A
:10135200000000000000000000000000000000008B
:10136200000000000000000000000000B86E0A0843
:10137200000000000000000091FB070850C30000BD
:10138200010000000000000000000000000000005A
:10139200000000000000000000000000000000004B
:1013A200000000000000000000000000C06E0A08FB
:1013B20000000000000000005DF90708A08601009F
:1013C200000000000000000000000000000000001B
:1013D200000000000000000000000000000000000B
:1013E200000000000000000000000000CC6E0A08AF
:1013F200000000000000000049F50708A861000095
:1014020001000000000000000000000000000000D9
:1014120000000000000000000000000000000000CA
:10142200000000000000000000000000D86E0A0862
:10143200000000000000000089FA0508A0860100F3
:101442000100000000000000000000000000000099
:10145200000000000000000000000000000000008A
:10146200000000000000000000000000E46E0A0816
:10147200000000000000000045260808A00F000040
:101482000100000000000000000000000000000059
:10149200000000000000000000000000000000004A
:1014A200000000000000000000000000F06E0A08CA
:1014B2000000000000000000B50F06081027000021
:1014C2000100000000000000000000000000000019
:1014D200000000000000000000000000000000000A
:1014E200000000000000000000000000FC6E0A087E
:1014F2000000000000000000299D0708A00F000066
:1015020001000000000000000000000000000000D8
:1015120000000000000000000000000000000000C9
:10152200000000000000000000000000086F0A0830
:101532000000000000000000818105081A4100003F
:101542000100000000000000000000000000000098
:101552000000000000000000000000000000000089
:101562000000000000000000000000000C6F0A08EC
:101572000000000000000000D91D0508102700002F
:101582000100000000000000000000000000000058
:101592000000000000000000000000000000000049
:1015A200000000000000000000000000D46D0A08E6
:1015B20000000000000000006D04060850C3000097
:1015C2000100000000000000000000000000000018
:1015D2000000000000000000000000000000000009
:1015E200000000000000000000000000186F0A0860
:1015F20000000000000000009D2D0508400D0300C2
:1016020000000000000000000000000000000000D8
:1016120000000000000000000000000000000000C8
:10162200000000000000000000000000206F0A0817
:101632000000000000000000759C0708400D030038
:101642000000000000000000000000000000000098
:101652000000000000000000000000000000000088
:10166200000000000000000000000000286F0A08CF
:10167200000000000000000019E8050850C3000047
:101682000300000000000000000000000000000055
:101692000000000000000000000000000000000048
:1016A200000000000000000000000000346F0A0883
:1016B2000000000000000000897E070840420F0081
:1016C2000000000000000000000000000000000018
:1016D2000000000000000000000000000000000008
:1016E200000000000000000000000000406F0A0837
:1016F2000000000000000000F59D070850C3000034
:1017020000000000000000000000000000000000D7
:1017120000000000000000000000000000000000C7
:1017220000000000000000000000000001007F0037
:1017320000000100E0010000FFFFFFFF01000000C8
:10174200C19405080000000000000000F8F7090835
:101752000800000042570200000001064257020042
:101762000000010601FF0000000000000000000070
:1017720000000000F8110A0800000000000000004C
:1017820000000000B0120A08000000000000000083
:10179200000000005C120A080000000000000000C7
:1017A20099C60508198E00248DDB0508000000008B
:1017B2000000000088110A080101FF00FFFFFFFF7F
:1017C2000DF60508000000000000000084130A085E
:1017D20039F9050800000000000000003C130A0867
:1017E2002D202D2D202D2D2D2D202D2D2D000000D5
:1017F20000000000000000000000000000000000E7
:10180200FFFFFFFF01000000FA00000001000000DE
:1018120001000000E48900240000F401010000003E
:10182200E28900240000F40101000000E0890024A4
:101832000000F40101000000DE8900240000F40130
:1018420001000000DC8900240000F4010100000016
:10185200DA8900240000F40101000000D889002484
:101862000000F40101000000C99C05088D9C0508D8
:101872000000000008FE0908C889002405320100A2
:10188200D68900246400F40101000000D4890024F8
:101892006400C40901000000C6890024E803D007DF
:1018A20001000000C4890024E803D0070100000001
:1018B200C2890024E803D00701000000C089002487
:1018C2001E00B80B01000000CE89002405000F00A5
:1018D20001000000D089002403000A00010000007A
:1018E200BE8900241E00F40101000000D2890024F8
:1018F2000200000094FE0908BC8900241400640060
:1019020001000000CA8900243200E803010000003F
:10191200BA8900240000C80001000000C588002424
:1019220000C80100C488002400500100C3880024BC
:10193200005A0100C188002402000000A0FE09082C
:10194200A4700A08AC700A081E5100240100C409E0
:10195200000000001C5100240100C4090000000026
:101962001A5100240100C40900000000185100248B
:101972000100C40900000000145100240100C40940
:1019820000000000165100240100C40900000000FC
:10199200125100240100C40900000000105100246B
:1019A2000100C409000000006F86002400C8010085
:1019B2006E86002400C801006C8600240000FFFF30
:1019C2000A0000006A8600240100C800010000002D
:1019D20068860024320030753200000066860024DA
:1019E2007EFF1400050000006486002405002C011F
:1019F2000500000063860024055A05006086002465
:101A020000FF01006286002402000000F00C0024A6
:101A12005E86002403000000BCF209085F860024F1
:101A220000FF01006186002402000000F00C002487
:101A32005D86002403000000BCF209081D9C050815
:101A4200AD9B050800000000ACFE0908FC890024DB
:101A5200EE02CA0801000000FA89002400C8010051
:101A620064000000F989002400C80100640000003D
:101A7200F889002402000000B8FF09084A86002401
:101A82000000803E050000004886002480C1803EA0
:101A920005000000428600240083007D050000004E
:101AA2004086002480C1803E050000003B86002461
:101AB20000FF0100348600246400F40101000000EC
:101AC2003286002404000000C4FF09083186002485
:101AD20002000000D8FF0908F58600240D0000006E
:101AE200E4FF0908F286002400640100F086002465
:101AF200320010270A000000EE8600240D000000CC
:101B0200E4FF0908ED8600240D000000E4FF090847
:101B1200EC860024020000001C000A0800000000FD
:101B2200000000000000000028000A08028A0024C9
:101B32003E00000060000A08008A00240100FF7FC6
:101B420001000000FF890024020000005C010A0875
:101B5200F7860024030000006C010A08F6860024C0
:101B6200030000006C010A08B2880024000A010088
:101B7200B08800240000E80301000000AE880024C1
:101B82000000E80301000000AC8800240000E80324
:101B920001000000AA8800240000E8030100000000
:101BA200A28800240000E80301000000A8880024A5
:101BB2000000E80301000000A68800240000E803FA
:101BC20001000000A488002400140100C088002441
:101BD200020000007C010A08BE8800240000F40113
:101BE20001000000BC8800240000F4010100000094
:101BF200BA8800240000F40101000000B888002423
:101C02000000F40101000000B68800240000A00FCB
:101C120001000000B48800240000A00F01000000B1
:101C2200A789002419640100A6890024020000008B
:101C320088010A08A4890024E803D0070A000000EA
:101C4200A2890024006401000A0000009789002490
:101C52000064010096890024006401009E8900242A
:101C6200006401000A0000009D8900240064010054
:101C72000A0000009C890024006401000A000000A0
:101C8200A189002400FF01000A000000A0890024AD
:101C920000FF01000A0000009F89002400FF0100EC
:101CA2000A0000009B89002401FF01000A000000D5
:101CB2009A89002401FF01000A000000998900248A
:101CC20001FF01000A000000008700240000F40167
:101CD20001000000FE8600240000A00F01000000A9
:101CE200FC8600240000A00F01000000FA860024F8
:101CF2000000A00F01000000F88600240000A00FE1
:101D020001000000618E002400C80100608E0024E2
:101D1200006401005F8E0024006401005E8E0024D6
:101D2200006401005D8E0024006401005C8E0024CA
:101D3200FF0801005B8E002401640100159B050869
:101D4200D99A05080000000094010A08648E002454
:101D520001320100638E00240100000004020A081F
:101D6200628E0024040000000C020A085A8E00242D
:101D720000640100588E00241400E80301000000F2
:101D8200568E0024E80330750A000000558E0024A8
:101D920000C80100548E002400C80100538E0024A4
:101DA20000C80100528E002400320100668E002419
:101DB200004B0100658E00240400000020020A0886
:101DC200518E0024006401000A000000748E002479
:101DD2000000D007010000006F8E002400C801003F
:101DE2006E8E002400C801006D8E002400C8010020
:101DF200728E00240000D007010000006C8E0024C7
:101E020000C801006B8E002400C801006A8E002405
:101E120000C80100708E00240000D00701000000FD
:101E2200698E002400C80100688E002400C80100E9
:101E3200678E002400C80100C1980508A99805080A
:101E42000000000034020A08E9860024005A01005A
:101E5200E886002400C80100E6860024E803D007D3
:101E6200010000000000000000000000D9C60508C3
:101E7200D0020A084E55434C454F483734330000D0
:101E82005C860024000301005B860024000301003D
:101E9200E5970508999705080000000024030A0841
:101EA200599705081197050800000000C0030A08A9
:101EB2003198050871DB05080000000040040A089B
:101EC2004C86002401030100719D0508459D05080B
:101ED2000000000098070A0895960508499605082B
:101EE2000000000008080A08D1980508A91406088D
:101EF20000000000A4080A081DE005089D9D0508D1
:101F0200000000004C090A082D9905080000000095
:101F120000000000D8090A08099A0508B1990508C5
:101F2200000000003C0A0A089D9A0508619A05080B
:101F320000000000E40A0A08C50C0608519B0508C7
:101F420000000000700B0A08B98900240106010094
:101F52007599050841990508000000006C0C0A08F3
:101F6200FB0B060811DD050800000000DC0C0A0866
:101F7200110D0608D9DD0508000000002C0E0A0824
:101F8200B8890024010301007998050849980508D9
:101F920000000000000F0A086D0D06080000000096
:101FA20000000000640F0A08E196050859DB0508E5
:101FB20000000000E40F0A0800000000000000001A
:101FC2000000000070100A08859B050851DE050814
:101FD20000000000E0100A080000000000000000FD
:101FE20000000000F8120A08387B00249CFF2C0134
:101FF20000000000C4900024E0150C17000000004F
:10200200AD8D00240200000030130A082C86002443
:1020120088136F17010000002E86002488136F17A3
:1020220000000000625100240000000000000000D7
:102032006051002400000000000000005E510024F6
:1020420000000000000000005C51002400000000BD
:10205200000000005A5100240000000000000000AF
:102062005851002400000000000000000803002472
:102072000000000000000000B485002403000000FE
:1020820020140A082486002488136F170100000018
:10209200827B002488136F170000000089950508D1
:1020A200000000000000000030140A08AE8D002479
:1020B2000100000084140A08847B0024010000004F
:1020C20090140A087A7B00240200000098140A087F
:1020D200000000000000000000000000A4140A0834
:1020E20071950508000000000000000040150A0874
:1020F20000000000000000000000000094150A0823
:1021020000000000000000000000000004160A08A1
:1021120030860024020000003C160A087E7B002460
:10212200E0150C170000000084980024D8980024C1
:1021320001D601FF010000000001010100000000C2
:10214200FFFFFFFF0000803F0000000000000000D2
:10215200000000000000000000000000000000007D
:102162000000000000000000000000000000803FAE
:102172000000000000000000000000000000803F9E
:102182000000000000000000000000000000803F8E
:10219200000000000000000000000000010000003C
:1021A2000000FA430000FA43FFFFFFFFFF000000B8
:1021B2000000803F3DBC0708000000000000000056
:1021C2000000000000000000BCB90024080000006C
:1021D20000000000ACB90024080000002D0804082B
:1021E20011080408CD07040800000000C107040814
:1021F200AD07040899070408000000000000000071
:102202000000000000000000890704080000000030
:10221200790704082D09040821090408E9080408BB
:10222200FD080408A10804088D08040879080408B8
:10223200890D040875070408F1060408FD0C04085A
:10224200685E0C00FFFFFFFF0200000000100000AC
:1022520010000240000000000011000028000240AF
:1022620000000000001200004000024000000000D8
:10227200001300005800024000000000001400009B
:1022820070000240000000000015000088000240BB
:102292000000000000160000A00002400000000044
:1022A20000170000B80002400000000000200000FB
:1022B2001004024000000000002100002804024037
:1022C2000000000000220000400402400000000064
:1022D2000023000058040240000000000024000017
:1022E2007004024000000000002500008804024043
:1022F2000000000000260000A004024000000000D0
:1023020000270000B8040240000000000000024064
:1023120010000240000000000000000000000B005E
:102322000000000000000000000000000000024069
:1023320028000240010000000000000006000C001E
:102342000000000000000000000000000000024049
:1023520040000240020000000000000010000D00DA
:102362000000000000000000000000000000024029
:1023720058000240030000000000000016000E009A
:102382000000000000000000000000000000024009
:1023920070000240040000000000000020000F0056
:1023A20000000000000000000000000000000240E9
:1023B2008800024005000000000000002600100016
:1023C20000000000000000000000000000000240C9
:1023D200A0000240060000000000000030001100D2
:1023E20000000000000000000000000000000240A9
:1023F200B8000240070000000000000036002F0075
:102402000000000000000000000000000004024084
:10241200100402400000000000000000000038002C
:102422000000000000000000000000000004024064
:1024320028040240010000000000000006003900EC
:102442000000000000000000000000000004024044
:1024520040040240020000000000000010003A00A8
:102462000000000000000000000000000004024024
:1024720058040240030000000000000016003B0068
:102482000000000000000000000000000004024004
:1024920070040240040000000000000020003C0024
:1024A20000000000000000000000000000040240E4
:1024B20088040240050000000000000026004400DD
:1024C20000000000000000000000000000040240C4
:1024D200A004024006000000000000003000450099
:1024E20000000000000000000000000000040240A4
:1024F200B804024007000000000000003600460059
:1025020000000000000000000000000001000000C8
:10251200A00F0000B80B00000102FFFF0100000045
:10252200FFFF000000E50A0800000802050306009C
:102532000000000008E50A08010008020504060080
:102542000000000048930A080200FE010110030087
:10255200000000000C740A080300140200030000CB
:102562000000000010E50A0804001F020200080033
:102572000000000018E50A0805001F020201080019
:102582000000000020E50A080600250201001100F3
:10259200FE810300FFFFFFFF0000000001000000BA
:1025A2000100000001000000FF010000F401000032
:1025B200FF00000000000000A5B20408B9EC040806
:1025C20019A6040845EE040849B30408FD98040856
:1025D200E9980408E198040894640A08E0010400F8
:1025E200E001020805000000000000009001040064
:1025F200900102080500000000C000000000000079
:10260200000000000F060000000100000000003082
:102612004C3100300003000101000000E0DE002424
:10262200E0F40024000300000100000001000000AB
:10263200E419002400000000000000000000000077
:102642000000000000000000000000000000000088
:102652000000000000000000000000000000000078
:102662000000000000000000000000000000000068
:102672000000000000000000000000000000000058
:102682000000000000000000000000000000000048
:042692000000000044
:102696000100000001000000981700200000000063
:0426A6002000000010
:020000040804EE
:100000002DE9F04F022389468A462DED108B99B0D9
:10001000DFEDCABA14930346169004331592179372
:100020004FEADA06169DDDF85CC04FEACA0305EB1D
:1000300046111396F0004FF0000B01EB0614370148
:100040000390A6EB86020194049706EB460E04EBA0
:10005000C202041D381D06EB86072C44C6EBC608F9
:1000600002972844029D02EB46174FEAC808ED00AC
:1000700001EBC60602954FEA0E1505954FEACE052F
:100080000695139D4FEA451E019D95ED007AD344D8
:1000900092ED005AD7ED004AD945D1ED006A50EDF6
:1000A000013A35EE241AD6ED002A1CED016A73EEF2
:1000B000875A54ED017A33EEC73A36EE264A77EE88
:1000C000A21A36EE666A77EEE27A74EE256A71EE6F
:1000D000812A77EE633A37EEC57A36EEA22A77EEBA
:1000E000E47A76EEE26A0CED012A37EE247A77EEB6
:1000F000857AD1ED018AC1ED006A74EE655A96EDFC
:10010000015AB0EE460A94ED004AA7EE2B6AD2EDF2
:10011000010AE7EEAB3A74EE456AD7ED012AA7EE85
:100120006B0A9CED007AD5ED014A34EE054A37EEB4
:10013000689A90ED005A36EEE02A76EEE26A30EEEA
:10014000A28A32EE222A76EEA06AF0EE492A75EEF5
:10015000640A37EE287A75EE249AE2EE6B2A74EE82
:10016000C54AF0EE608AB0EE40AAE6EEAB4AE6EE93
:10017000AB8AA6EEEBAAF0EE496AB0EE629A37EED1
:10018000695AE2EE2B6AB0EE432A74EE08AAA7EE93
:10019000EB9AA7EEAB2A77EE297A35EE617A75EE07
:1001A000C89A35EE415A75EEC45A37EEAABA77EEC0
:1001B000EA7A37EE011A8CED00BA36EE287AC1EDF4
:1001C000017A39EE844A76EEC27A194475EE885A7D
:1001D0009C4435EE215A00ED014A70EE8A0A70EE19
:1001E000244AC5ED005A36EE686A80ED001A72EEB8
:1001F000A33A85ED015A33EE093A04ED017A72EE25
:10020000266A87ED006A1D44C6ED000A1844C2ED57
:10021000004AC4ED007A1C44C7ED016A1F44C6EDD4
:10022000013A1E4482ED013A1A443FF62EAF139A6A
:10023000072A40F2C681039A0EF1080E169F08F1B4
:1002400008000832029E059D4FF0000894463A4689
:10025000083608357244069C0499D346109207EB81
:100260000C0208340C310F92BA190E927A190D92C1
:100270003A190C923A180B927A18099207F10C026B
:100280000A9201220892149ADDF824C09044159A2B
:100290000A9F02EBC8020B9EA8EB880E0C9D02EB96
:1002A000C80192ED00BA0D9C01EBC802D1ED00AA85
:1002B0000E9802EBC80192ED00AA01EBC802D1ED45
:1002C000009A02EBC80192ED009A01EBC802D1ED51
:1002D000008A0F9902EB0E1E92ED008A109A0EEB27
:1002E000C80ADEED017A1192CDED047A0AEBC8025C
:1002F000DAED017A02EBC80A1291CDED057AD2ED62
:10030000017A0AEBC802DDF820E0CDED017ADAEDE2
:10031000017A02EBC80ACDED067AD2ED017A0AEB3A
:10032000C802CDED027ADAED017ACDED077AD2ED91
:10033000017ADDE91121CDED037A01E0F304353FC7
:1003400017ED017ADE44D2ED007A94ED005AF145C2
:10035000D5ED006A37EE274AD0ED004A77EE677A8E
:100360001CED016A96ED007A91ED001A76EE055AC1
:1003700036EE872A97ED00DA71EE24EA76EE453AFA
:1003800074EE252A31EE641A35EE466A3EEE825A44
:1003900074EE655A31EE664A72EE854A31EE471ABE
:1003A000B0EE67CA47ED014A34EE077AD1ED014A53
:1003B00031EE261AD0ED016A72EEC52A95ED014A9A
:1003C000A7EE6BCA74EEE60A96ED010AE7EE2B7A09
:1003D00092ED017A94ED015A74EEA64A3DEE473A49
:1003E000DCED006A70EEC4CA70EEC00AB0EE43EAFB
:1003F0007CEE80CA74EE001A70EE840AACEEEBEA72
:1004000036EEC54A3DEE077AB0EE63DA36EE850A7F
:10041000ACEEAB3AF0EE4EDAA1EE2BDAA1EE2B6A9F
:10042000E1EE6BDA75EE666AB0EE441AF0EE4CCA95
:1004300037EE405AA0EEAB1AE0EEEBCAE0EEAB6A44
:1004400037EE007A74EEA10A35EEE1FA75EEE45A61
:1004500075EE6EFA37EE600A71EEA55ADDED061AFA
:1004600035EE425A7FEE244A3FEE822A22EEE1FA2E
:1004700061EE80FADDED051A3EEE855A3EEE066A23
:1004800073EEAD3A21EE82EA73EE4DDA3DEE033AB9
:1004900024EEE1DADDED071A34EE2C4A7CEE266A12
:1004A00061EE85CA25EEE1CADDED041A77EE81EA38
:1004B00077EEC17AE9EEA2FADDED032AA9EE80FA21
:1004C0009DED030AAAEEA4EADDED014AAAEE82DA66
:1004D0009DED012AE8EEA5CADDED025AA8EE85CA17
:1004E0009DED025A21EEAD1A62EE832A6EEEE11AFC
:1004F00027EEC00A64EEA34A26EEC22A65EE865AAB
:1005000024EE455AABEE2E1AEBEE2D1AE8EE272A12
:10051000A8EE030AEAEE264AAAEE232AE9EE045AD6
:10052000A9EE065A37EE207A87ED007A1F44C2ED15
:1005300000FA82ED01FA1A440CED01EA8CED00DAC2
:100540009C44C4ED00CA84ED01CA1C4481ED001A2C
:10055000C1ED011A1944C6ED002A86ED010A1E44B8
:10056000C0ED005A80ED015A1844C5ED004A85EDF2
:10057000012A1D443FF6E4AE1099089A0831013271
:1005800010910F99089208310F910E9908310E9130
:100590000D9908310D910C9908310C910B99083186
:1005A0000B910A9908310A91099908310991139917
:1005B00091427FF468AE149B8A46DB009BB2149391
:1005C0002EE519B0BDEC108BBDE8F08F124B30B4A6
:1005D0001D686B6A28B943EA01430020AB6230BC56
:1005E0007047AC6A013803EB14440BD0002303F1CD
:1005F0004002013305EB8202DBB25268834204EB16
:100600001244F4D3403044EA014405EB80004460D6
:10061000002030BC704700BF481A0024037870B433
:100620002BB30246C0F10105531912F8014FDBB29A
:10063000002CF9D101335B000E4C03220B8084F8AF
:10064000083484F80924017879B1022300265A1C61
:10065000E518023354FA82F285F80814DBB282F806
:10066000086410F8011F0029F1D170BC7047022303
:10067000E2E700BF481A002430B5EFF31181802370
:1006800083F312880A4AD2F80835D2F80C45D2F81A
:100690000805D2F80C55CAB282F31188013BA84272
:1006A00094BF4FF4006000201B1B184430BD00BFF6
:1006B000481A0024012380F851307047014BD3F8C9
:1006C00010057047481A002401207047024BC3F8F8
:1006D0001425C3F818157047481A0024024BC3F8B4
:1006E0001C25C3F820157047481A0024704770472E
:1006F000212870B505D0222829D0202810D000202C
:1007000070BD0029FBD0072AF9D1184B18791C6855
:100710005A799B79087100200C604A718B7170BD09
:100720000029ECD0072AEAD11148104B0C680E7949
:100730004D79D0F8182589791C601E715D71997109
:10074000002ADCD02146D0F814059047D7E70029CD
:10075000D5D0022AD3D1064AD2F82035002BCED0EC
:100760000988D2F81C059847C9E700BF000000249B
:10077000481A00240020704703460A2201481A80C4
:10078000704700BF080000240346642201481A8015
:10079000704700BF14000024012901D000207047D9
:1007A000014BD3F89030184700000024012901D0F4
:1007B00009F0B6B8014BD3F88C301847000000247C
:1007C000014BD3F8883018470000002410B40B7890
:1007D0000A46044603F00303012B05D0022B0BD07D
:1007E00000205DF8044B70478B8843B920461146C2
:1007F0005DF8044B0DF0D6BE8B88832BF6D0034BEF
:100800005DF8044BD3F88030184700BF0000002487
:1008100038B5054B04460D46DB6F98472946204600
:1008200009F018FF002038BD0000002438B5054B42
:1008300004460D469B6F9847294620460EF088F8DF
:10084000002038BD00000024F0B4002452004E1CEB
:100850002746030FB0F1204F4FEA001003F1300597
:1008600003F1370334BF0D550B5537550234A242FF
:10087000EFD1F0BC704700BF024808B5FFF7CEFECD
:10088000014808BDB8660A08501E0024024808B591
:10089000FFF7C4FE014808BDC8660A08501E0024C0
:1008A0000B481A220B4B00681B680A80C01801D144
:1008B00009487047094B0822094910B51C68FFF721
:1008C000C3FF042207492046FFF7BEFF024810BDC0
:1008D00000E8F11F08E8F11FB000002404E8F11F50
:1008E000B2000024C2000024024808B5FFF796FEBB
:1008F000014808BDD4660A08501E002408B520B976
:100900000448FFF78BFE044808BD0448FFF786FE45
:10091000014808BDE0660A08501E002404670A0862
:10092000042301480B807047CC000024074A084B81
:1009300010B4122492F8240503F114020C8001284B
:100940000CBF184610465DF8044B7047481A002447
:10095000D0000024D8B18268104B1AB1072283F866
:100960002A25704793F828050421C3F83425032865
:10097000C3F8382583F83C250CBF80224FF48072E1
:1009800083F82A15C3F82C25C3F830257047034B8C
:10099000012283F8102783F829257047481A00247C
:1009A00038B5544C00234FF4F072202104F28470C7
:1009B00084F880375DF0DAFB04F664104FF4F072CF
:1009C00020215DF0D3FB94F8450B10B194F8463B21
:1009D0000BB9002038BD44F05DFEC4F8540B28B1BB
:1009E00083790BB1412BF4D12323C3800D2140F037
:1009F0004FFED4F8540B45F04DF894F8460B0138EF
:100A000040B247F0ABFA02231021C4F84C0B84F833
:100A1000483B56F0BBFB0821D4F84C0B56F0B6FB14
:100A2000D4F8540B45F030F8FF218C2052F02EFE04
:100A30000546D4F8540B45F02DF80421D4F84C0B9E
:100A400056F0A4FB1B2D05D0D4F8540B202140F008
:100A50001FFEBEE70122D4F8543B84F880270BB177
:100A60002322DA800821D4F84C0B56F08FFBD4F8FF
:100A7000540B45F009F840210A2052F007FEFF21EF
:100A80008A2052F003FED4F8540B45F003F8D4F852
:100A90004C0B042156F07AFBD4F84C0B082156F08D
:100AA00075FB0821D4F84C0B56F070FBD4F8540BAE
:100AB00044F0EAFF0221002052F0E8FDD4F8540B84
:100AC00044F0E8FFD4F84C0B042156F05FFB94F897
:100AD0005D2B94F85E3B0120C2F1200294F85C1B70
:100AE000C3F1100384F85F2B84F8603B84F8581B33
:100AF00038BD00BF481A00242DE9F8438846002974
:100B00004FD04718461E284C802507F1FF39EFF3D8
:100B1000118185F31288D4F80825C9B2D4F80C05E0
:100B2000D4F80835D4F80CC581F31188634594BF17
:100B30004FF400630023121A1344012B1AD1012031
:100B400041F050FAEFF3118185F31288D4F80825AB
:100B5000C9B2D4F80C05D4F80835D4F80C7581F373
:100B60001188BB4294BF4FF400630023121A134450
:100B7000012BE4D0EFF3118285F31288D4F80C3501
:100B8000D2B216F8011F234483F8641BD4F80C3545
:100B90000133C3F30A03C4F80C3582F311884E45C0
:100BA000B5D14046BDE8F883481A0024F8B50023C3
:100BB00090F8505080F85030CDB10F4E96F808257F
:100BC000032A16D1D6F8407500F13C042946204688
:100BD000FFF792FFD6F840352D1A0444DB1B322B69
:100BE00001D8002DF2D1B5FA85F04009F8BD0120F9
:100BF000FCE71846FAE700BF402B0024002280F8EB
:100C00005120D3E790F85020531C0244DBB280F807
:100C1000503082F83C1090F851200AB1132B00D9C3
:100C2000C4E77047F8B50B4E0D46144696F80835E4
:100C3000032B0ED1D6F84075002C0ADD214628463C
:100C4000FFF75AFFD6F84035241A0544DB1B322B38
:100C5000F2D9F8BD402B00240F49D1F8243510B546
:100C6000B3B191F87C42D3F8042244B1002440236C
:100C7000D1F83C0501210DF01BFD204610BD4FF4BD
:100C80000073D1F83C0501210DF012FD204610BD86
:100C90000224204610BD00BF402B002410B50C4C90
:100CA000D4F8103563B10B49013BD1F84425C4F8A1
:100CB000103512F8014BC1F84425047013B101231B
:100CC000184610BDFFF7C8FF0123184610BD00BF2E
:100CD000481A0024402B002413B5074CD4F844359F
:100CE00003B9FEE701A8FFF7D9FF0028F6D09DF869
:100CF000040002B010BD00BF402B002410B50B68EB
:100D0000064C074AC4F81035C2F844050BB1002060
:100D100010BDFFF7A1FF002010BD00BF481A00243E
:100D2000402B0024154BDB68C3F3022310B4C3F13E
:100D300007041A1D042C28BF0424062A4FF0FF3292
:100D40008CBF033B0023A240002821EA020101FAE4
:100D500003F108DB09010A4BC9B2034483F800130D
:100D60005DF8044B704700F00F000901054BC9B254
:100D7000034419765DF8044B704700BF00ED00E0B6
:100D800000E100E0FCEC00E02A4B41F287302A4908
:100D90000022D3F8F830A1FB03132849DB0C10B56F
:100DA000274C013B82B0C4F8540504F5A960C4F88F
:100DB0004815C4F85825C4F85025C4F84C350EF031
:100DC000E3FB204B06213720D3F8E82042F0200235
:100DD000C3F8E820D3F8E83003F020030193019B27
:100DE000FFF7A0FFD4F848354FF400001649174A22
:100DF0004860D96841F00101D96099680A40062A23
:100E000006D0B2F5803F03D01A6842F001021A60A2
:100E10000F4B0020D4F8242503F664340D49C2F8A2
:100E20001002C3F82005C3F81805C2E9811402B006
:100E300010BD00BF0000002483DE1B4300140040EF
:100E4000402B00240044025800E100E007000100AC
:100E5000481A0024C8300024014BD860704700BFF6
:100E600050400058012008B5FFF7F6FF72B657F062
:100E7000C1FE00BF03689B0AA3F58013522B00D963
:100E800070470D4A70B5D45C84B00D2C12D800297F
:100E90004FF0000309494FF0010514BF1E4602261A
:100EA000427901EB84106946CDE90065CDE9023352
:100EB0000EF058FA04B070BDE0E30908C838002409
:100EC0004309012200F01F008AB0023B02FA00F041
:100ED000082B11D8DFE803F0665A4E42362A1E125C
:100EE0000500364BD3F8F4200243C3F8F420D3F8BE
:100EF000F42010400190019B0AB070472F4BD3F8AB
:100F0000E0200243C3F8E020D3F8E0201040059031
:100F1000059BF1E7294BD3F8E4200243C3F8E42012
:100F2000D3F8E42010400290029BE5E7234BD3F86E
:100F3000D4200243C3F8D420D3F8D4201040069024
:100F4000069BD9E71D4BD3F8DC200243C3F8DC2015
:100F5000D3F8DC2010400890089BCDE7174BD3F85E
:100F6000D8200243C3F8D820D3F8D82010400990E5
:100F7000099BC1E7114BD3F8EC200243C3F8EC20E6
:100F8000D3F8EC2010400390039BB5E70B4BD3F84C
:100F9000E8200243C3F8E820D3F8E820104004908A
:100FA000049BA9E7054BD3F8F0200243C3F8F020D7
:100FB000D3F8F02010400790079B9DE700440258AB
:100FC0002DE9F04FDFF8DC802A4D44462DED068BED
:100FD0008DB0CDE90A0104920FCD0FC40FCD0FC41F
:100FE000254B95E8070093F8523084E80700042B5E
:100FF00000F2A981DFE813F0D801A701A2010500E2
:10100000E6019FED1E8ADFED1E9A1E4A1E4B0498D4
:101010001E49002818BF13461D4AC8E9062139EEAB
:10102000887ADFED1C7AF5EE006ADFF87CB04FF0CD
:10103000000928EE278AB0EE679ADA4686EE87AA7C
:10104000C8F82430DFED148ACB46144B05930B9B74
:101050005B4500F06D81059A0BF1010312F8017BED
:10106000DEB206930592002F00F0D88100230C48D1
:1010700020E000BF34E40908383C0024ACC5A737A1
:10108000ACC5A7361DF50708355C07085961070888
:1010900029F507086F12833A00007A448F3C002438
:1010A000A43C002414000020480000200133152B2C
:1010B00000F0B48103EB43024FEA4309815CB9427B
:1010C000F4D1C74B1A4492F86D10002900F0AE819C
:1010D000384640F0C1F9046805460390204655F0B3
:1010E000DBFD697940F0F6F902780892002A40F0B9
:1010F00095813D09BA4B07F00F02013D4B444FF07B
:101100000309062D83F8AD6083F8AC9000F24381AB
:10111000B44B029303EB4503B3F8800040FA02F3AB
:1011200013F0010300F03D810124AF4F04FA02F3F4
:10113000013B184058F064FF029BAC4A1D4495F8EF
:1011400090100144039807EBC105EE7185F80690F5
:1011500057F83130CAF814501A44029B007A920AA8
:10116000079003EB4202B2F89800FFF7A9FEAE88A1
:1011700057F83110002E39D0089BA646CDE908BAA1
:10118000DDF81CA00EFA03F52E4229D0DC0803F08E
:1011900007024FF00F0C580001EB84044FF0020BD4
:1011A0009200276A0CFA02FC0AFA02F227EA0C0CF7
:1011B00009FA00F70BFA00F042EA0C0222620A6810
:1011C00022EA0702104308608A6822EA07028A605E
:1011D0004A6822EA05054D60CA6822EA0707CF601F
:1011E000013336FA03F2CDD1DDE908BA039B1C685E
:1011F000049B002B00F0BD80794BB3F8503007EE14
:10120000903AF8EEE77AFCEEE77A17EE905A784BD0
:101210009C420FD003F580639C420BD0754A03F5C6
:1012200080439C4218BF944204D003F580639C42E3
:1012300040F0AA800CF0E8FC6F4BD969C1F30221A1
:101240006D4A4FF6FF731269C2F3C03241EAC20120
:10125000029A0A44049992F8AC2000FB02F0B0FB19
:10126000F5F21A44120CB0FBF2F2002970D05C497E
:10127000B2FBF5F591F85210ABB204296ED007EE2F
:10128000902AF8EE676A66EE887A28EEE77A544983
:1012900091F85300A6EEA97A0A9901905046009160
:1012A0000399CAED027A8AED037A36F0ABFABBF104
:1012B000000F65DDDAF80430D8F83820934261D0A9
:1012C000BBF1010F5CD0D8F8502093425AD0BBF14B
:1012D000020F55D0D8F86820934253D0BBF1030FCA
:1012E0004ED0D8F8802093424CD0BBF1040F47D0A9
:1012F000D8F89820934245D0BBF1050F40D0D8F8DC
:10130000B02093423ED0BBF1060F39D0D8F8C820A8
:10131000D31A18BF0123DDF818B001228AF8103063
:101320000AF1180ABBF1080F0AF8072C7FF48FAEF8
:1013300032480DB0BDEC068BBDE8F08F9FED308AD2
:10134000F0EE489A61E69FED2F8AF0EE489A5CE64F
:1013500023491D4691F85210042990D107EE905A66
:1013600007EE102AF8EE677AF8EE476A67EE897A98
:101370008BE7FAFE4A7AFCEEE77A17EE905A46E7D8
:101380000123C8E70023C6E70CF056FC1A4BD969C5
:10139000C1F3021154E7089BCAF81430114B0293B1
:1013A00026E7CAF8143023E70023174A01219FEDEE
:1013B000178A0A93164BF0EE489A0491C8E9063250
:1013C000144B2CE60023104A01219FED138A0A9347
:1013D0000F4BF0EE489A0491C8E906320D4B1EE619
:1013E000383C0024E0E30908103D00240000FEA77B
:1013F0000000014000400140004402581400002059
:10140000282930386F120339596107086F12833A5F
:1014100029F507081DF5070800000000044A002010
:10142000044BC8F81C20C8F8243082E70B68FFDEA4
:10143000215F07081DF50708002850D0284A2DE92C
:10144000F84F0446274B006803449B0A02EB430312
:10145000B3F89800FFF734FDB4F804C02268BCF17B
:10146000000F3AD000204FF0010B4FF00F0A4FF061
:10147000030900F007030BFA00F645004FF0020ED7
:10148000C7081CEA060F4FEA830309FA05F402EBCA
:1014900087070EFA05F500F101000AFA03FE01FACA
:1014A00003F317D0D7F8208028EA0E0E43EA0E0384
:1014B0003B62136823EA04032B431360956825EA13
:1014C00004059560536823EA06035360D36823EA52
:1014D0000403D3603CFA00F3CBD1BDE8F88F70472A
:1014E000E0E309080000FEA700487047703D0024B3
:1014F00070B4204D06460468E36931EA030323D043
:10150000D5F858349B1AB3F1007F23681FD25807CF
:10151000F2D5E3691B05EFD54FF4006220230021CB
:1015200003202262226822F4D0722260A26822F094
:101530000102A260C6F8803086F87C10C6F88430BC
:10154000C6F8883070BC7047002070BC704723F428
:10155000D0732022002103202360A36823F001031D
:10156000A360C6F8802086F87C10C6F8842070BC82
:10157000704700BF383C0024F8B5044690F880005E
:10158000012800F0AB80B94E01272068D6F858C476
:1015900094F8815084F88070012D5FFA85FE6768A9
:1015A0000BD0B7F5800F40F08F80A568002D40F07C
:1015B0008B80BEF1040F40F08780002B18BF002AFB
:1015C00000F08780002900F0848094F88150042D79
:1015D00002D0052584F881504FF0000E6266A44DBC
:1015E000B7F5800FC4F884E0A4F86A30A4F862303C
:1015F0004268A4F8683005EA0205E165A4F86030A5
:1016000045EA0305C4E91CEE4560026842F00102A8
:10161000026003D1026842F400720260E2680F2A9D
:1016200060D91A4648F20807416989070ED56BB19F
:10163000E16D51F8043B0362B4F86230E165013BAF
:101640009BB2A4F86230B4F862309BB2416943EABD
:1016500002053942ADB211D0002A41D0056BB4F871
:101660006A20616E013A41F8045B92B26166A4F8A7
:101670006A20B4F86A2092B242EA0305002DD3D161
:10168000D6F85834A3EB0C03092B70D843691B0719
:101690000BD4D6F85834A3EB0C03092BF6D9D4F8A5
:1016A000843043F02003C4F8843020460AF00AFE58
:1016B0000122002384F88120D4F8840084F880304B
:1016C000C01A18BF0120F8BD0023022084F8803022
:1016D000F8BD0023012084F88030F8BD0220F8BD59
:1016E0001D46CBE7072A52D8024619465569AD0771
:1016F00015D5A3B1032B40F2CC80E36B402B40F215
:10170000DD80E56D55F8043B1362B4F86230E565A1
:10171000043B9BB2A4F86230B4F862309BB25569C6
:1017200015F4604F12D089B15169090440F18980E4
:10173000156BB4F86A20616E043A41F8045B92B20A
:101740006166A4F86A20B4F86A1089B2D6F8582401
:10175000A2EB0C02092A54D843EA010292B2002AF1
:1017600000F0C78022685569AD07D8D5C1E720468B
:101770000AF0A8FDD4F88430012284F8805043F4A4
:1017800080731046C4F8843084F88120F8BD19466F
:101790004269920713D593B1012B43D9E36B002B18
:1017A00040D0E26D52F8043B0362B4F86230E26567
:1017B000023B9BB2A4F86230B4F862309BB242693B
:1017C00012F4604F11D081B14269170452D5056BF4
:1017D000B4F86A20616E023A41F8045B92B2616625
:1017E000A4F86A20B4F86A1089B2D6F85824A2EB9B
:1017F0000C02092A05D843EA010292B2002AC7D195
:1018000044E720460AF05EFDD4F88430012200212E
:1018100043F48073104684F88010C4F8843084F850
:101820008120F8BDE26D32F8023B0384B4F86230E7
:10183000E265013B9BB2A4F86230B4F862309BB21F
:10184000BDE7516901F4C041B1F5005F47D9028E8F
:10185000616E21F8022BB4F86A206166023A92B2F6
:10186000A4F86A20B4F86A1089B26FE7383C002403
:101870000000FFFF028E616E21F8022BB4F86A208F
:101880006166013A92B2A4F86A20B4F86A1089B28B
:10189000ABE7012B11D1E36D1B7882F82030B4F84F
:1018A0006230E56D013B226801359BB2E565A4F825
:1018B0006230B4F862309BB231E7E36B002BEAD0C0
:1018C000E56D35F8023B0384B4F86230E565023B10
:1018D0009BB2A4F86230B4F862309BB21FE792F872
:1018E0003010626E1170B4F86A20616E013A0131F5
:1018F00025E72068CAE600BF034690F83C000128AF
:1019000000F0AF810220F0B5012483F83D0083F898
:101910003C40142A54D8DFE812F05B005300530017
:1019200053009E00530053005300670153005300BF
:101930005300DE005300530053001D0153005300B9
:10194000530015001A68D1F808C0156A0F6825F40D
:1019500080159F4E1562B242106AD2F804E0546DB1
:1019600020F4001024F4E04440EA0C5044EA072438
:101970000ED0984DAA420BD006F5804605F580455D
:10198000AA4218BFB24203D005F58065AA4204D12D
:101990002EF4003E4D694EEA852E4D68C2F804E0F3
:1019A0005465D5651062506D0C6940F40060506557
:1019B000506D20F480605065516D41EA04215165FD
:1019C00000220121104683F83D1083F83C20F0BD31
:1019D0001A688E68156A0F6825F001057E4C15623D
:1019E000106A556820F00200D2F818C03043784ED3
:1019F0000CEA0404B24244EA07040ED006F58066FD
:101A0000B2420AD0754F06F58046B24218BFBA42BC
:101A100003D006F58066B2420BD1CE6820F00800F4
:101A20008F6925F4407530434E693E4320F0040031
:101A300035434E68556094615663106290690C6935
:101A400040F008009061906920F004009061916975
:101A500021439161B4E71A688E68156A0F6825F012
:101A600010055F481562146AD2F804C024F02004FF
:101A7000956944EA0614564E2840B24240EA0720CF
:101A800000F0F180534DAA4200F0ED80534E554DC9
:101A9000AA4218BFB24203D005F58065AA4206D11A
:101AA0004E692CF4406C8D6935434CEA850C4E68C8
:101AB000C2F804C090619663146290690C6940F4A6
:101AC00000609061906920F480609061916941EAC2
:101AD0000421916174E71A68D1F808C0156A0F688B
:101AE00025F480553A4E1562B242106AD2F804E0ED
:101AF000D46920F4005024F4E64440EA0C3044EA6F
:101B000007240ED0334DAA420BD006F5804605F5CA
:101B10008045AA4218BFB24203D005F58065AA42AB
:101B200004D12EF4804E4D694EEA851E4D68C2F8F0
:101B300004E0D46115641062D0690C6940F400605F
:101B4000D061D06920F48060D061D16941EA04217C
:101B5000D16135E71A68D1F808C0156A0F6825F415
:101B600080351B4E1562B242106AD2F804E0546D03
:101B700020F4003024F0700440EA0C4044EA0704EA
:101B80000ED0144DAA420BD006F5804605F58045CF
:101B9000AA4218BFB24203D005F58065AA4204D11B
:101BA0002EF4803E4D694EEA052E4D68C2F804E0E1
:101BB000546595651062506D0C6940F008005065E1
:101BC000506D20F004005065516D21435165F7E6DA
:101BD00000000140000401408CFFFEFF0040014076
:101BE000FF8CFFFE004401401A68D1F808C0156A56
:101BF0000F6825F48075244E1562B242146A556848
:101C0000D06924F4007420F0730044EA0C2440EA04
:101C1000070030D006F58066B2422CD01B4F1C4E18
:101C2000B24218BFBA4203D006F58066B24206D16E
:101C300025F440574E698D69354347EA05154E68CE
:101C40005560D061D6631462D0690C6940F0080019
:101C5000D061D06920F00400D061D1692143D16105
:101C6000AEE60220704724F08004CE6844EA0614F1
:101C700024F0400414E724F40064CE6844EA062407
:101C800024F48064D4E700BF00000140004001401C
:101C90000044014090B301460068194AF8B5194B59
:101CA00003449B0A02EB4303B3F89800FFF708F9DB
:101CB0008D880B680DB300210126032706FA01FC6D
:101CC0004A00013115EA0C0F07FA02F006FA02F297
:101CD00010D01C6824EA000422431A609C6824EA9D
:101CE00000049C605A6822EA0C025A60DA6822EA10
:101CF0000002DA6035FA01F2E0D1F8BD704700BFAA
:101D0000E0E309080000FEA72DE9F04FDFF89C8111
:101D10008BB04822002108F25C405CF027FA08F200
:101D2000A4404FF4317253495CF0AEF998F868372B
:101D30001BB198F8693788F85C3498F86A371BB19A
:101D400098F86B3788F8803498F86E371BB198F89C
:101D50006F3788F8743498F86C371BB198F86D3782
:101D600088F86834444B0026444A1B8812881B09B3
:101D7000434C4449C3EB12102288C8F8803713093A
:101D8000414F424D424CC8F87C3791FBF0F1C8F806
:101D9000841703E001360C37062E27D0042E00F0FE
:101DA000A781052E00F0C98138780028F2D0394A81
:101DB000002301331E2BEDD012F80C1F8842F8D1FE
:101DC00003EB430C3448002204EB8C0C0168EC302C
:101DD00029B19CF881131141C90700F1D88401325F
:101DE000032AF3D101360C37062ED7D12B4C002510
:101DF000DFF8BC902A4FDFF8BCA02A4EDFF8B8B05D
:101E000054F8083C002B00F01081D4F8E020002AA0
:101E100000F00B81EC22236002FB0582D2F8001552
:101E200041F00201C2F8001599689A6801F00401B6
:101E300002F008020A43DA684AD0910105D5A18A66
:101E400040F20112914200F0F4829A68510700F1C9
:101E5000DE829A68120708D59A68920705D49968B5
:101E6000114A0A4042F020029A600C21D8F8580426
:101E70002AE000BF9CE4090820E8F11F40E8F11FB8
:101E800060E8F11F8038010094400024000084CBFA
:101E9000E0E3090860E70908DC400024E44000248E
:101EA000200882E000210240C0FFFF7F383C002470
:101EB0001CF800FCE03000FE00230240D8F8582453
:101EC000121A052A00F2CF829A680A42F6D1DA681D
:101ED00042F400122046DA600CF0B6FA002800F056
:101EE0008D82236840F2FF7C9E490022D3F804E0F3
:101EF0000EEA0101DFF884E25960C3F800C0996876
:101F0000DFF87CC221F0A0419960996841F000514E
:101F10009960D96801F08021D960D96841F0004109
:101F2000D960196901EA09011961596901F0404153
:101F30005961996901F078419961196A01F07C4110
:101F40001962596A01F07C415962D3F8B01001F06E
:101F50007C41C3F8B010D3F8B41001F07C41C3F851
:101F6000B410D3F8B81001F07C41C3F8B810D3F81E
:101F7000BC1001F07C41C3F8BC10196B21F0FB517F
:101F800021F4EF1121F4BE5121F00F011963596BB7
:101F900039405963996B39409963D96B01EA0E0E48
:101FA0007149C3F83CE08B42D3F860E01A66D3F87D
:101FB00064E05A66D3F868E09A66D3F86CE0DA66B3
:101FC000D3F8A02002EA0C02C3F8A020D3F8A42082
:101FD00002EA0C02C3F8A420D3F8C02002EA0C02E3
:101FE000C3F8C020D3F8C42002F0F822C3F8C420FC
:101FF00000F06B81B34200F068815C4B9B68D907AD
:1020000004D45B4B9A6802EA0A029A60EC2200232D
:1020100002FB0582C2F80435C4E91733C2F8003563
:1020200084F85030002840F04F810135EC34032D06
:102030007FF4E6AE0027DFF84CB1B9465D4655F8AF
:102040006C3C1BB1EB6F002B40F04A8109F1010998
:10205000EC35B9F1030FF2D14FF0000B454DDFF82D
:1020600028915E46DFF824A12B68002B00F0248124
:10207000D5F8E820002A00F01F81AC683A4B9C425A
:1020800000F02C814C4500F0298139488368A16813
:1020900049072CD495F85810012928D003F01F03C4
:1020A0000121092B85F8581000F2BC8140F2212152
:1020B000D940CF0740F1B681A16811F001017BD171
:1020C000D4F808C02C4F1CEA070F3DD0EC2303FBCB
:1020D0000686D6F8003586F8FC1443F01003C6F8DF
:1020E0000035D6F8043543F00103C6F80435FEE7A1
:1020F00002214FF4002CAE460A46EC2007237970EB
:10210000012100FB02823878BB72D2F88C35C7F807
:1021100004E043EA0C037972C2F88C3500283FF4DE
:1021200039AE43F0B7FAF31DDBB210B10022837170
:10213000C27103213FF0ACFA2CE602214FF4802C4F
:10214000DFF84CE00A46D8E7A16801EA0A0141F04D
:102150000101A160D8F858748168C80629D04C459F
:1021600027D129E000F8FFFF00200240006002585C
:1021700000630258DC4000243F00008020F8FFFF8D
:102180000000F0FF4841002400210240C0FFFF7F13
:102190000000B8CFA168C90705D4A16801EA0A0107
:1021A00041F00101A160D8F85814C91B022900F2BE
:1021B0001E842168C807EDD5EC20B5494C4500FBCD
:1021C0000680D0F8007501EA070141F48071C0F87B
:1021D000001500D143B9EC2303FB0683D3F80015A7
:1021E00021F48011C3F80015EC2303FB0683D3F818
:1021F000001511F4805140F03B83C3F804155308D7
:10220000686D9708DFF8B4C203F07733D10807F0A0
:102210003337C0F83CC0DFF8A8C201F011313B44AD
:102220009C4FC0F840C04FF01C0CD31AC764C4F8D0
:1022300000C05B1A6268002142F0100203EB131326
:1022400085F8581004F14001626003F00F33FF225B
:10225000E768B3FBF2FC27F003076A6BCCEB0C2CAE
:1022600017438D4AA3EB0C0302EB4B02E7600AF025
:10227000EBFEAA68936803EA0A0343F00403936041
:10228000002840F0A883D5F8E8305A08980802F0F2
:102290007732D90800F0333001F0113102449B1A33
:1022A000FF225B1A03EB131303F00F33B3FBF2F2BD
:1022B000C2EB02229B1A9B440136EC35032E7FF4BD
:1022C000D3AE0BB0BDE8F08FFEE7744B9B68B268ED
:1022D0001343DB073FF59AAE5B4693E67048D5E6BD
:1022E00035F8680C0426FEF7EBFDEB6FFF2245F88E
:1022F000546C59089C0801F07731D80804F0333445
:1023000000F01130214403245B1AEC211B1A55F80C
:102310006C0C01FB098103EB131345F8640C4FF4BB
:10232000403003F00F3345F8600C0820B3FBF2F2A5
:10233000C2EB022245F85C0C01209B1A002245F8F2
:10234000580C45F84C3C4FF4805305F84F0C45F8B9
:10235000440C05F8502C05F8482C05F82C2C049258
:1023600045E9102245E90E43D1F80035002B00F075
:10237000098255F8646CB3689A0003D5B268494B7A
:102380001340B360B368DB0014D4B168464A474BCE
:10239000D2F8F8200B404649B2FBF1F243F08053EB
:1023A000B3600492049B2BB1049B013B0493049BF8
:1023B000002BF9D1B368DC0027D4EC23012403FB04
:1023C0000983D3F8002542F01002C3F80025D3F8A2
:1023D00004252243C3F80425B368580772D5EC23BB
:1023E00003FB0983D3F80035EC2303FB0983D3F8FF
:1023F000002542F01002C3F80025FEE7EC2301227D
:1024000003FB0583C3F800256BE50024E4E79A6825
:1024100091073FF51EAD9968264A0A4042F0100226
:102420009A6016E5EC22002302FB068686F8FC344F
:102430005DE61A68520606D41F4A01E0013A12D03E
:1024400019684806FAD540221A609A68510708D5DB
:102450009A68900705D49968164A0A4042F010021B
:102460009A60042102E5EC22012002FB0582D2F8E9
:10247000001541F01001C2F80015D2F8041501430F
:10248000C2F80415DA6842F40012DA6029E500BFE8
:10249000FEF0FFFF6D9E04080000003000200240A7
:1024A00000230240C0FFFF5F00000024C0FFFF6F59
:1024B000400D0300C0FFFF7F00DC0C00859E040878
:1024C000819E0408EC2303FB0983D3F80025D20680
:1024D0008AD4D3F8002522F4817242F00202C3F8B4
:1024E0000025B368D90714D4AF4B9E4200F0758223
:1024F00003F580739E4200F07082AC4B9B68DB0753
:1025000007D4AB498B6855F8602C23F47C13134334
:102510008B60A84A41F203031268B3EB124F55F8DF
:102520005C2CC0F0AC8155F8343C15F84F0C1343CB
:1025300015F8481C43EA403343EA0143012904D11A
:1025400055F8442C013A43EA424355F8402C2AB14D
:1025500002F4787255F83C1C0A431343F168964A1A
:102560000A401343F360B068B36800F0040003F05E
:102570000803184300F02C8155F8643C55F8582C9A
:10258000012A00F086821A6B22F00F021A63EC26F1
:1025900006FB0986D6F8003506F5A06A23F003038A
:1025A00043F00103C6F80035002C40F0DF8115F838
:1025B000143C0594012B00F08781A5F164031846B3
:1025C0000393012305F8143C0BF03EFF002840F074
:1025D000B481D6F80015794A794B0A40794942F01E
:1025E0000202C6F8002555F8642C9068034043F0B9
:1025F000004393609368002BC0F25181EC220020CD
:10260000DFF8C8E102FB098201460190D2F80035EB
:1026100023F0030343F00103C2F8003505F8140C5E
:1026200007E0019B0EF10C0E0133062B019300F025
:102630004C819EF80930002BF3D09EF901304B45B8
:10264000EFD1614B00224E1C8EF8087003EB810025
:1026500015F8143C791C0692012BD0F8E844DEF8FA
:102660000420029100F0818155F8643C01209968B2
:1026700005F8140C4F0700F16981C2F3130CBCF18B
:10268000000F40F07481C2F38467910EB840D3F814
:102690001CB04FEA941A03F1300704F01F044BEA10
:1026A000000B0AF00C004FF01F0AC3F81CB0BB4629
:1026B00001EA0A01C7590AFA04FAA14027EA0A0AFC
:1026C0004AEA010140F80B109868996800F004008C
:1026D00001F00801014343D1D10DC2F3045B03F1C2
:1026E00014044FF0070A01F0040106270AFA0BFA56
:1026F000085907FA0BF7DFF8BCB020EA0A003843A4
:102700000851DBF8001001F07041B1F1805FD96829
:1027100000D0D968196E900601F0F841B1EB826FD4
:1027200003D1196E21F000411966596E01F0F8418C
:10273000884203D1596E21F000415966996E01F02B
:10274000F841884203D1996E21F000419966D96E13
:1027500001F0F841884203D1D96E21F00041D966D9
:102760009968C80708D4D3F8C010002A21EA0C01E0
:10277000C3F8C010C0F2048100233146029F05F85F
:10278000143C4EE7C1F8043505F8143CF1E50C2083
:102790004FF0010C51B200FB034393F88803D3F8C8
:1027A00084E30CFA00FCA8E4002002400060025818
:1027B000006302580010005C03C0F0FFFDEEFFFF55
:1027C000C0FFFE3F00F8C325E0E309089440002461
:1027D000F268C64B15F8501C134055F8382C43EAE4
:1027E000813315F82C1C13430129F36000F0698133
:1027F000336923F001033361336955F8302C23F03A
:102800007043BB4913438E42336100F05281B94B90
:102810009E4200F04E81B84B9B6813F4403F14BFBA
:1028200001230023002B00F09E810BF01DFA55F8C8
:10283000603CB3F5003F00F09281B3F5403F00F0FB
:102840007D81B3F5803F00F08A81AC4A41F20303F9
:102850001268B3EB124FC0F06781A94B984240F267
:10286000218155F8643C9A6842F480729A6085E64A
:10287000D3F8041521F00601C3F80415BFE4102AAB
:102880007FF451AE15F8481C15F84F0C0B0455F8A1
:10289000342C43EA4033134343F01C034EE6059BBC
:1028A00001330593059B8B42FFF4A4AEEC2300217A
:1028B00003FB0983D3F8002583F8FC1422F01202ED
:1028C00042F01002C3F80025FEE78E4B5FFA89F450
:1028D00002204B44214693F910203FF041FE00288E
:1028E0003FF4EFAC4FF40056D0E90123C5E90023D3
:1028F000104654F0ABF900234FF4806C4FF4006E97
:10290000621CAB60EB604FF480744FF4803301992C
:10291000D2B2C5F810C0C5E90743C5E905E654F0D1
:10292000A5F928460AF03AFD28460AF09FFE039BC7
:1029300045F8185CAB63FFF789BBDAF8003086F81E
:10294000FC4443F01003CAF80030BDE7EC2303FB5E
:102950000983D3F8002542F02002C3F80025EC23B8
:10296000002203FB098383F8FC24FEE745E592FA85
:10297000A2F7B7FA87F7910E07F01F07B84086E66F
:102980005B498B4247D001F580718B4243D05E4951
:1029900059488468896804F0E077C94301F001016F
:1029A0000029D3D059498A4255D059498A4243D047
:1029B00058498A427FF4E0AE64023FF5DDAE524AE8
:1029C00093427FF4D9AE836823F0E0733B4343F432
:1029D00080038360D0E6FFF78ABB454B454A9B687E
:1029E00092681343DA073FF594AD4B498AE5EC232F
:1029F000002203FB0686D6F8003586F8FC2443F057
:102A00001003C6F80035D6F8043543F00103C6F8C4
:102A10000435FFF76CBB4049364F8C680846A1F57A
:102A200040718968D7F808C004F0E07741EA0C01EA
:102A3000C94301F00101B3E7E2013FF59DAE324A1F
:102A400093427FF499AE836823F0E0733B4343F0F5
:102A50008073836090E621023FF58EAE2A4A93424E
:102A60007FF48AAE2D4A8368D2F8F8202C4923F0EF
:102A7000E073B2FBF1F23B43520043F40003836086
:102A8000069202E0069B013B0693069B002BF9D1C0
:102A900072E6196B55F84C2C21F00F01013A0A43EC
:102AA0001A6374E555F8643C9A6822F480729A605F
:102AB00064E5194B9B6813F4403F14BF01230023C6
:102AC000B0E655E9093155F8282C0B43D6F810C06B
:102AD000013A55F81C1C43EA0243124A0B4302EA2E
:102AE0000C02134343F00103336185E6FCBFFFFF93
:102AF0000020024000210240006302580010005CE8
:102B0000002D3101A043002400600258000084CB56
:102B1000000052C70000B8CF00230240000000248C
:102B2000400D03001EF800FC4A4B984208D855F8A7
:102B3000643C9A6822F440729A601FE5800884E63B
:102B4000454B984242D9454B984255F8643C9A68A7
:102B500025D822F4407242F400729A600EE51B0CF4
:102B6000B0FBF3F071E63E4A936D03F44033B3F5E6
:102B7000803F5ED0B3F5003F4ED0002B62D055F8B9
:102B8000603CB3F5101F45D00DD8B3F5E01F3FD022
:102B900025D9B3F5001F7FF458AE400955E642F43D
:102BA00040729A60EAE4B3F5201F50D0B3F5301FAD
:102BB0007FF44BAE2B4A41F203031268B3EB124F82
:102BC000BFF470AF234BB3EB102FB0D255F8643C79
:102BD0009A6822F4407242F480729A60CEE4B3F5AF
:102BE000801F07D00BD9B3F5A01F03D0B3F5C01FCA
:102BF0007FF42BAE9B0C5B00B0FBF3F025E6B3F546
:102C0000002FF7D023F40022B2F5802FF2D01CE67B
:102C100000091AE6800918E6D36C13F040530FD070
:102C2000B3F1805F0AD0104AB3F1005F08BF1046CD
:102C3000A5E707A808F0B0FC0998A0E70B489EE7B5
:102C40000B489CE707A808F053FD079897E7C009D1
:102C5000FBE500BF21BCBE0041787D0181F0FA0296
:102C6000004402580010005C00127A0000093D0088
:102C70000090D0032DE9F041D0F800E00C46DFF8D9
:102C8000588084B0DEF804501746DFF850C019466B
:102C900005EA0805DDF82880064603932C434246E2
:102CA00044EA0C0CCEF804C00EF07CFB78B9316815
:102CB0000246039B30468F628021CDF800800EF0E3
:102CC000A1FB003818BF012004B0BDE8F08101204D
:102CD00004B0BDE8F08100BF009800FC0020018135
:102CE000F8B5134F04460D460AE09B69DB0602D592
:102CF0000EF018FBD0B9D7F858345B1B0A2B08D854
:102D000023682A460A2120469E69B606EDD5002092
:102D1000F8BD636C2021002201200B4384F8402081
:102D2000636484F8411084F84220F8BD0120F8BDA6
:102D3000383C00242DE9F041D0F800E00C46DFF8E3
:102D4000588084B0DEF804501746DFF850C01946AA
:102D500005EA0805DDF82880064603932C43424621
:102D600044EA0C0CCEF804C00EF01CFB78B93168B4
:102D70000246039B30468F624021CDF800800EF062
:102D800041FB003818BF012004B0BDE8F0810120EC
:102D900004B0BDE8F08100BF009800FC0020018075
:102DA000F8B5474E96F8884704EB4403650006EBF8
:102DB000C30393F88C37032B77D8DFE803F0492A55
:102DC0001F02254406EBC505D5F89037002B6ED1C0
:102DD00096F8EC27944268D0013404F003018A424B
:102DE00086F8881761D001EB41040222184606EBF1
:102DF000C404C4F8903784F88C27F8BD2B1906EB6F
:102E0000C303D3F8902772B1013A0020C3F890278A
:102E1000F8BD2B1906EBC303D3F89027002AF3D192
:102E2000022283F88C27254406EBC50595F89837D0
:102E3000013BDBB285F89837F3B1224B0120D3F880
:102E4000FC2002F2E733B3FBF2F3C5F89037F8BD8C
:102E500045F032FD48B31B4A42F20F732C44012166
:102E6000D2F8FC2006EBC404134484F88C17B3FB9F
:102E7000F2F3C4F89037F8BD124B601C0327D5F865
:102E80009417D3F8FC20384096F8EC47531E85F889
:102E90008C77001B0B4418BF01209A42B3FBF2F160
:102EA00088BF0020C5F8901730B90120F8BD013B5C
:102EB0000020C5F89037F8BD0139C5F89017F8BD66
:102EC000383C002400000024054A92F8ED37002B1E
:102ED000FBD104480449D0F8603B0C301B6818470C
:102EE000383C0024000000302844002470B5114C08
:102EF00041F20D13104D41F28832D4F84018D4F845
:102F0000FC070E040D218660C66835402B43C36064
:102F10000BF0C8FD38B1D4F8302803460020134325
:102F2000C4F8303870BDD4F8FC375869C0F343207A
:102F300070BD00BF383C0024C0E0FEFFF8B5364C41
:102F400005460821D4F8FC07D4F858640BF0A4FE19
:102F5000034608B11846F8BDD4F84018D4F8FC0769
:102F600009040BF039FE03460028F3D1D4F8FC071E
:102F70004FF0FF31082241F2331741628262C26A88
:102F8000264922F0FF0242F03302C26241F2883247
:102F90008360C36819400F433321C7600BF082FD83
:102FA00003460028D6D184460746D4F8FC1740F2E1
:102FB0002A5004E0D4F85824921B01321FD04A6BE7
:102FC00002420AD14A6B1203F4D4002BF2D1D1F899
:102FD00080700123D1F880C0ECE74B6B1A0714D442
:102FE0004B6B9B070ED44B6B13F0200310D19CFA54
:102FF0008CF23FBA0A488863C5E90027AAE74FF078
:103000000043A7E702238B63A4E708238B63A1E7B0
:1030100020238B639EE700BF383C0024C0E0FEFF06
:103020003A0F0018134B30B4D3F8A0080025D3F89A
:10303000A828D3F8A44820F01F01C3F8985804FB2F
:103040000202521ABFF34F8FAA420DDD013A01F17D
:103050002003094822F01F021A449342C0F85C1270
:10306000194603F12003F8D1BFF34F8FBFF36F8FE1
:1030700030BC7047383C002400ED00E02DE9F84FEB
:10308000CB4C054694F8AC18D4F8B408C1F3400111
:1030900042F006FD94F8AC18D4F8B008C94301F02A
:1030A000010142F0FDFC002D00F0E78005F1FF3941
:1030B000C04E4FF01008C04F5FFA89F9BF4DD4F8E9
:1030C000B43833B11A689B8851690B4218BF1B048E
:1030D0009361D4F8B03833B11A689B8851690B42B8
:1030E00018BF1B049361B4F8BC38002B40F0578123
:1030F00094F8BE18D4F8C00842F0D2FCFA204FF47D
:103100007A714FF0010C7B68C3F30803002B40F089
:103110001981EFF31183002B40F01481D6F840257C
:10312000D5F808E0D6F840359A42F7D1D4F8E4381B
:103130009E45F3D8D4F8E0A801FB0AF3A3EB0E03F5
:10314000B3FBFAF301FB02327B68C3F30803002BE5
:1031500040F0B680EFF31183002B40F0B180D6F839
:103160004035D5F808B0D6F840E57345F7D1D4F826
:10317000E4E8F345F3D8D4F8E0A801FB0AFEAEEB8F
:103180000B0EBEFBFAFE01FB03E39B1AB3F57A7F3D
:10319000DAD30138B7D1D4F8B43833B11A689B8880
:1031A00051690B4218BF1B049361D4F8B03833B196
:1031B0001A689B8851690B4218BF1B049361B4F8CD
:1031C000BC38002B40F0DF8094F8BE18D4F8C0085B
:1031D00081F0010142F064FCFA204FF47A714FF063
:1031E000010C7B68C3F30803002B40F08A80EFF3E7
:1031F0001183002B40F08580D6F84025D5F808E0F3
:10320000D6F840359A42F7D1D4F8E4389E45F3D841
:10321000D4F8E0A801FB0AF3A3EB0E03B3FBFAF327
:1032200001FB02327B68C3F3080343BBEFF3118356
:103230002BBBD6F84035D5F808B0D6F840E5734535
:10324000F7D1D4F8E4E8F345F3D8D4F8E0A801FBCB
:103250000AFEAEEB0B0EBEFBFAFE01FB03E39B1A6C
:10326000B3F57A7FDED30138BBD109F1FF395FFABC
:1032700089F9B9F1FF0F7FF422AFBDE8F88FEFF3C2
:10328000118A88F31288D5F808B02B68DB0303D5C0
:10329000C4F8DCC8D5F808B0D6F840355FFA8AFA29
:1032A000D4F8DCE88AF31188D4F8E0A8734401FB71
:1032B0000AFEAEEB0B0EBEFBFAFE01FB03E3CEE70C
:1032C000EFF3118A88F31288D5F808B02B68DB0376
:1032D00003D5C4F8DCC8D5F808B0D6F840355FFA95
:1032E0008AFAD4F8DCE88AF31188D4F8E0A87344A9
:1032F00001FB0AFEAEEB0B0EBEFBFAFE01FB03E385
:1033000043E7EFF3118E88F31288D5F808A02B68F5
:10331000DA0303D5C4F8DCC8D5F808A0D6F84035E0
:103320005FFA8EFED4F8DC288EF31188D4F8E0E83A
:103330001A4401FB0EF3A3EB0A03B3FBFEF301FBFC
:1033400002326FE7EFF3118E88F31288D5F808A0E8
:103350002B68DA0303D5C4F8DCC8D5F808A0D6F882
:1033600040355FFA8EFED4F8DC288EF31188D4F84D
:10337000E0E81A4401FB0EF3A3EB0A03B3FBFEF3F0
:1033800001FB0232E0E6D4F8D838002B3FF424AF3A
:103390000023D4F8C428136084F8D5381CE7D4F887
:1033A000D838002B3FF4AAAE3EF0E2FEA6E600BFFE
:1033B000383C0024402B002400ED00E010E000E049
:1033C0002DE9F04FCA4C83B00523CA4E94F8AC18CF
:1033D0004FF01009D4F8B408C1F34001019342F052
:1033E0005FFB94F8AC18D4F8B008C943DFF80C833D
:1033F000C14D01F0010142F053FBD4F8B43833B1B0
:103400001A689B8851690B4218BF1B049361D4F85A
:10341000B03833B11A689B8851690B4218BF1B043E
