:020000040800F2
:108000000000012055E10408D5E1040891FA0308B5
:10801000F5FA0308D5E10408D5E1040800000000E2
:10802000000000000000000000000000D5E104088E
:10803000D5E1040800000000D5E1040815BB0308E1
:10804000D5E10408D5E10408D5E10408D5E1040828
:10805000D5E10408D5E10408D5E10408D5E1040818
:10806000D5E10408D5E10408D5E1040849CB0408AA
:1080700039CB040829CB040819CB040805CB040824
:10808000F1CA0408DDCA0408D5E10408D5E10408F2
:10809000D5E10408D5E10408D5E10408D5E10408D8
:1080A00059AA0408E1AA040849AA040809AB04086B
:1080B000D1AA0408C1AA0408B1AA0408D5E1040899
:1080C000D5E10408D5E10408D5E10408D5E10408A8
:1080D000D5E10408C5BB0308B5BB0308A5BB03086D
:1080E000D5E10408D5E10408D5E1040839AA04085B
:1080F00069AA0408D5E1040891AA0408C9CA0408B9
:10810000D5E10408D5E10408A1AA0408D5E10408D2
:1081100095BB030885BB0308D5E10408D5E1040835
:10812000B5CA0408A1CA04088DCA040879CA04089B
:1081300065CA040800000000000000000000000004
:10814000000000000000000000000000D5E104086D
:1081500051CA04083DCA040829CA0408D5E1040824
:10816000D5E10408D5E10408D5E10408D5E1040807
:10817000D5E10408D5E1040800000000000000007B
:10818000D5E10408D5E10408D5E10408D5E10408E7
:10819000D5E10408D5E1040800000000D5E1040899
:1081A000000000000000000000000000D5E104080D
:1081B000D5E10408D5E1040800000000000000003B
:1081C00000000000000000000000000000000000AF
:1081D000000000000000000000000000D5E10408DD
:1081E000026C03463AB11A6CD20608D5002201206F
:1081F00083F83C207047426480F83C20F3E71A6C17
:1082000049494A4811401A6841F00201F0B4196422
:108210004168474D21F44031416041685C68214329
:1082200041605168186921F48071D3F808C0DF6893
:10823000516054689E6A44EA0024AE425460546817
:1082400024F040745460506840EA0C00506090681C
:1082500020F400609060916841EA0701916054D079
:108260009068DC6A20F07060906091680E439660C0
:10827000906820F040509060916821439160906830
:108280009C6920F002009060916841EA440191608D
:1082900093F82010002941D05468596A44F40064CE
:1082A000481E5460516821F460415160516841EAB0
:1082B00040315160D06A0025DC6920F470005E69AD
:1082C000611ED0622846D46A44EA0154D46294689C
:1082D00024F400749460946893F8301044EA4124C4
:1082E0009460946824F480649460916841EA8621E3
:1082F00091605D641A6C22F0030242F001021A647C
:10830000002283F83C20F0BC7047916821F0706136
:108310009160916821F040519160B0E7516821F47B
:1083200000615160C6E700BFFDEEFFFF0023014082
:108330000100000F836B40221A645A6C42F0040261
:108340005A6470472DE9F04F022389468A462DED85
:10835000108B99B0DFEDCABA14930346169004331C
:10836000159217934FEADA06169DDDF85CC04FEAC6
:10837000CA0305EB46111396F0004FF0000B01EB1A
:10838000061437010390A6EB86020194049706EBCE
:10839000460E04EBC202041D381D06EB86072C4472
:1083A000C6EBC60802972844029D02EB46174FEA27
:1083B000C808ED0001EBC60602954FEA0E150595BB
:1083C0004FEACE050695139D4FEA451E019D95ED9A
:1083D000007AD34492ED005AD7ED004AD945D1ED49
:1083E000006A50ED013A35EE241AD6ED002A1CED54
:1083F000016A73EE875A54ED017A33EEC73A36EECE
:10840000264A77EEA21A36EE666A77EEE27A74EEC4
:10841000256A71EE812A77EE633A37EEC57A36EE39
:10842000A22A77EEE47A76EEE26A0CED012A37EEC4
:10843000247A77EE857AD1ED018AC1ED006A74EE77
:10844000655A96ED015AB0EE460A94ED004AA7EE41
:108450002B6AD2ED010AE7EEAB3A74EE456AD7ED2E
:10846000012AA7EE6B0A9CED007AD5ED014A34EEA5
:10847000054A37EE689A90ED005A36EEE02A76EE1D
:10848000E26A30EEA28A32EE222A76EEA06AF0EE9E
:10849000492A75EE640A37EE287A75EE249AE2EEE0
:1084A0006B2A74EEC54AF0EE608AB0EE40AAE6EEA2
:1084B000AB4AE6EEAB8AA6EEEBAAF0EE496AB0EE66
:1084C000629A37EE695AE2EE2B6AB0EE432A74EEF6
:1084D00008AAA7EEEB9AA7EEAB2A77EE297A35EE3B
:1084E000617A75EEC89A35EE415A75EEC45A37EE88
:1084F000AABA77EEEA7A37EE011A8CED00BA36EEB8
:10850000287AC1ED017A39EE844A76EEC27A1944AE
:1085100075EE885A9C4435EE215A00ED014A70EE02
:108520008A0A70EE244AC5ED005A36EE686A80ED7C
:10853000001A72EEA33A85ED015A33EE093A04EDC2
:10854000017A72EE266A87ED006A1D44C6ED000AC4
:108550001844C2ED004AC4ED007A1C44C7ED016A1C
:108560001F44C6ED013A1E4482ED013A1A443FF61B
:108570002EAF139A072A40F2C681039A0EF1080E15
:10858000169F08F108000832029E059D4FF0000872
:1085900094463A46083608357244069C0499D346F8
:1085A000109207EB0C0208340C310F92BA190E929C
:1085B0007A190D923A190C923A180B927A1809927C
:1085C00007F10C020A9201220892149ADDF824C0E5
:1085D0009044159A0A9F02EBC8020B9EA8EB880EE6
:1085E0000C9D02EBC80192ED00BA0D9C01EBC80294
:1085F000D1ED00AA0E9802EBC80192ED00AA01EBA2
:10860000C802D1ED009A02EBC80192ED009A01EB8D
:10861000C802D1ED008A0F9902EB0E1E92ED008A7E
:10862000109A0EEBC80ADEED017A1192CDED047AB4
:108630000AEBC802DAED017A02EBC80A1291CDED1D
:10864000057AD2ED017A0AEBC802DDF820E0CDED23
:10865000017ADAED017A02EBC80ACDED067AD2EDA5
:10866000017A0AEBC802CDED027ADAED017ACDED9E
:10867000077AD2ED017ADDE91121CDED037A01E02F
:10868000F304353F17ED017ADE44D2ED007A94ED24
:10869000005AF145D5ED006A37EE274AD0ED004A81
:1086A00077EE677A1CED016A96ED007A91ED001A7B
:1086B00076EE055A36EE872A97ED00DA71EE24EA57
:1086C00076EE453A74EE252A31EE641A35EE466AA6
:1086D0003EEE825A74EE655A31EE664A72EE854A73
:1086E00031EE471AB0EE67CA47ED014A34EE077A19
:1086F000D1ED014A31EE261AD0ED016A72EEC52A9B
:1087000095ED014AA7EE6BCA74EEE60A96ED010AF2
:10871000E7EE2B7A92ED017A94ED015A74EEA64AB7
:108720003DEE473ADCED006A70EEC4CA70EEC00A56
:10873000B0EE43EA7CEE80CA74EE001A70EE840A52
:10874000ACEEEBEA36EEC54A3DEE077AB0EE63DA00
:1087500036EE850AACEEAB3AF0EE4EDAA1EE2BDA4D
:10876000A1EE2B6AE1EE6BDA75EE666AB0EE441AA2
:10877000F0EE4CCA37EE405AA0EEAB1AE0EEEBCA70
:10878000E0EEAB6A37EE007A74EEA10A35EEE1FA5C
:1087900075EEE45A75EE6EFA37EE600A71EEA55A80
:1087A000DDED061A35EE425A7FEE244A3FEE822A6C
:1087B00022EEE1FA61EE80FADDED051A3EEE855A11
:1087C0003EEE066A73EEAD3A21EE82EA73EE4DDAC2
:1087D0003DEE033A24EEE1DADDED071A34EE2C4AE1
:1087E0007CEE266A61EE85CA25EEE1CADDED041A4B
:1087F00077EE81EA77EEC17AE9EEA2FADDED032A9F
:10880000A9EE80FA9DED030AAAEEA4EADDED014A85
:10881000AAEE82DA9DED012AE8EEA5CADDED025A44
:10882000A8EE85CA9DED025A21EEAD1A62EE832AAA
:108830006EEEE11A27EEC00A64EEA34A26EEC22AC3
:1088400065EE865A24EE455AABEE2E1AEBEE2D1A43
:10885000E8EE272AA8EE030AEAEE264AAAEE232A21
:10886000E9EE045AA9EE065A37EE207A87ED007A2F
:108870001F44C2ED00FA82ED01FA1A440CED01EA40
:108880008CED00DA9C44C4ED00CA84ED01CA1C449E
:1088900081ED001AC1ED011A1944C6ED002A86EDDA
:1088A000010A1E44C0ED005A80ED015A1844C5ED7E
:1088B000004A85ED012A1D443FF6E4AE1099089A5E
:1088C0000831013210910F99089208310F910E99D9
:1088D00008310E910D9908310D910C9908310C91C8
:1088E0000B9908310B910A9908310A9109990831BD
:1088F0000991139991427FF468AE149B8A46DB007C
:108900009BB214932EE519B0BDEC108BBDE8F08F2F
:10891000704700BF836B1A6C12F0500F1A6C20D195
:1089200042F4007219681A648A6812F0405F1AD122
:108930009A69C2B9CA6A12F4700F02D08A685005E7
:1089400011D44A6822F020024A601A6C22F4807224
:108950001A641A6CD10406D41A6C42F001021A642B
:108960007047D20600D570479B6BDB6C184700BF81
:108970000022836BA3F85A20A3F85220704700BF4F
:10898000836B1A6810B45C6F986F9168090601D503
:10899000212C1AD09168490601D5222806D0DA6F19
:1089A0005DF8044B42F01002DA6770470020202483
:1089B000A3F85A00116821F490711160916821F0B8
:1089C0000101916018669C67E9E700212024A3F863
:1089D0005210116821F0C00111605C67DAE700BF36
:1089E000704700BF704700BFC369B3F5807F12D0E6
:1089F000826B002120201368A2F85A10196821F414
:108A000080711960996821F001019960996821F0DD
:108A10004001996090677047C369B3F5807F0CD0BF
:108A2000826B00211368A2F852109A6822F080022B
:108A30009A601A6842F040021A607047836B012105
:108A4000002283F83D101A77704700BF0122836B24
:108A500083F83D20704700207047704730B1044BC9
:108A600093F900000028D4BF00200120704700BF08
:108A70009814012008B5FFF7F1FF50B1054A53786B
:108A800092785B0003F00203002A18BF43F0010351
:108A90000B6008BD9814012008B5FFF7DFFF10B187
:108AA000014B5B680B8008BD9814012070B5FFF77F
:108AB000D5FF78B1084A158965B1D6680023B3425D
:108AC0001C4607DA02EB44040133248ADBB2AC42D1
:108AD000F5D30B7070BD00BF9814012008B5FFF7E7
:108AE000BDFF10B100230B70137008BD0420704748
:108AF00028B1034B93F90000003818BF01207047DC
:108B00000000012008B5FFF7F3FF40B1054B93F9D2
:108B10000020012A04DDDB78C3F340030B6008BDAD
:108B20000020FCE70000012008B5FFF7E1FF10B1CD
:108B3000014B9B780B7008BD0000012070B5FFF75A
:108B4000D7FF30B10D4CE378DB0703D500230B7062
:108B5000137070BD0A4D94F9013095F8206093FBB5
:108B6000F6F301330B7094F9014095F8201094FB53
:108B7000F1F301FB134301331370EAE70000012016
:108B800098140120032070470A4A70B592F82430E7
:108B900006255E1CB6FBF5F405FB146492F825501F
:108BA000AC4205D002EBC30382F82440C3E90A01BA
:108BB00070BD00BF98140120002230B50446104655
:108BC000914200DC30BDA35C0825584010F0800FB6
:108BD0004FEA400318BF83F0D503013DD8B2F5D169
:108BE0000132EDE710B5C9B10D4B986D814215DC2E
:108BF000A2B11B6A9A4211DC013A0139094C03FB0C
:108C0000012104F10A00A1730521FFF7D5FF062118
:108C1000E07304F10A00BDE81040B5E710BD00BFE5
:108C200098140120000001200023038083708380BA
:108C3000C3800372704700BF074A084992F85C304E
:108C400009780133DBB2994282F85C3002D100230B
:108C500082F85C30704700BF981401201400002097
:108C6000F8B5774C236E83B176494B6893F82E3074
:108C70005BB1754B94F86420A3FB0053012A4FEAC3
:108C800093132ED0022A08D002B1F8BD6F4B984240
:108C9000FBD9012384F86430F8BDA26E64329A4295
:108CA0003BD894F85C3004EB031393F88820FF2A38
:108CB00005D001326649012083F888200874FFF747
:108CC000BBFF94F87C300122092B84F86420DCD1AE
:108CD000B4F8263113449BB2A4F82631A4F88230AC
:108CE000F8BD94F85C000026A36604F1700300EB65
:108CF000800584F87A60E3660A2694F87C3001EBFC
:108D00004511022584F87B60092B8A7284F864502F
:108D1000BBD10130A4F88000F8BD94F87A2094F813
:108D20007B309A42B1D104F16F0004F17805002341
:108D300010F8011F08224B4002E0013ACBB209D0E3
:108D400013F0800F4FEA4301F7D081F00703013A97
:108D5000DBB2F5D18542EBD194F87910994238D144
:108D6000B4F87350012794F85C606DBA94F877C03A
:108D700004EB0611B4F87500ADB294F8783040BA3F
:108D800081F8882043EA0C23C1F88C5094F871C014
:108D900080B294F872501BB2C1F89000032E45EADD
:108DA0000C2294F97000A1F89430A1F88A20284A86
:108DB00081F88900177409D894F87C200C2A29D0EE
:108DC0000D2A03D104EB4606A6F88000FFF734FF16
:108DD0005FE794F85C3004EB031393F88820FF2AD4
:108DE00005D001321A49012083F888200874FFF762
:108DF00023FF94F87C300122092B84F864207FF44F
:108E000044AFB4F8243113449BB2A4F82431A4F83D
:108E10008430F8BD03EB830394F822110D4A04EB70
:108E2000460603EB8303F9409B0093FBF1F382FBBF
:108E30000312DB17C3EBA203A6F88030C6E700BF1E
:108E40009814012014000020D34D62103F4B4C00B9
:108E500000000120676666660A4B93F87A1093F863
:108E60007B2091420DD0C0B210B493F87A20DC6E12
:108E7000511CD2B2C9B283F87A10A0545DF8044BE9
:108E8000704770479814012080F08003042B70B560
:108E900020D941281ED0FD2806D0F0281DD0EF286B
:108EA0001FD00224204670BD0B2004260F4D2E44F7
:108EB00000240135FFF7E8FF2044AE42C4B2F1D0F0
:108EC00015F8010BFFF7E0FF2044AE42C4B2F7D122
:108ED000204670BD0424204670BD03200526044DA5
:108EE000E5E70C200626034DE1E700BFC80C0508A6
:108EF000CC0C0508C00C05080C4AD2F83C31F0B483
:108F00001C680027D2F834614FF6F6751981611C90
:108F10009F81C3E900162070D2F83C31D2F8341199
:108F20001A689D81C3E90012F0BC704798140120B3
:108F300000B5034683B03221074A68468DF8001019
:108F400019689B88D2F84021CDF80110ADF80530A2
:108F5000904703B05DF804FB98140120134B0022E6
:108F600010B483F84611090A0F2483F8450183F8E9
:108F7000471103F5A2700121C3F84821C3F84C2121
:108F8000C3F8502183F8444110F8014F01312244C5
:108F90000E29D2B2F8D183F8522110220449D3F815
:108FA00054015DF8044B33F069B800BF98140120F8
:108FB000DC150120054B002183F85811C3F85C1122
:108FC000D3F8543103B1C9E7704700BF98140120AA
:108FD0002DE9F04FBF4DC04CDFF840932DED068BCF
:108FE00089B0CDE9060105920FCD0FC40FCD0FC496
:108FF00095E8070099F80A3184E80700042B00F28D
:109000001481DFE813F0400112010D010500520147
:109010009FEDB28A9FEDB29AB24A0599B24BDFF842
:109020000083002918BF1346B049B14AC8F8241577
:10903000C8F8202539EE087ADFEDAE7AF5EE006A41
:10904000AD4A28EE278AAD4EB0EE67AA02F151076D
:10905000C6EE879A0025DFEDAA8A0292C8F82C3561
:10906000079BAB4200F0D680029B05F1010B13F881
:10907000014B5FFA8BF20293002C00F0208100215B
:1090800003E00131152900F01A8101EB41004B008A
:1090900017F800C0A445F4D1484490F86111CDE917
:1090A0000332002900F01381204631F00FFF824681
:1090B000006841F0E3FE9AF8051032F041F80078BC
:1090C000002840F0FC80039B4FEA141C04F00F0EB4
:1090D000049A09EB03010CF1FF34032381F8A12169
:1090E0009C4281F8A03100F2C980864901EB44001E
:1090F000B0F8400040FA0EFC1CF0010C00F0C080FB
:109100004FF0010C03920CFA0EFC0CF1FF3C0CEA40
:10911000000044F0A7FE7B49039A032301EB040CF3
:10912000794C02219CF848C0604404EBC000706197
:109130008371C2719AF8082036F038FA059B002B2B
:1091400078D0B9F8083199F80A1107EE903AD9F8B1
:1091500054330429F8EEE77AFCEEE77A17EE900A2A
:10916000B3FBF0F202F57F4202F1FF024FEA124236
:10917000B3FBF2F2B2FBF0F083B270D007EE902AAC
:10918000F8EE676A66EE887A28EEE77A99F80B01BE
:10919000069901903046A9EE267A00915146C6ED17
:1091A000027A86ED037A2AF03BFE002D62DD7368B9
:1091B000D8F8402593425FD0012D5BD0D8F85825D0
:1091C000934259D0022D55D0D8F87025934253D0F0
:1091D000032D4FD0D8F8882593424DD0042D49D087
:1091E000D8F8A025934247D0052D43D0D8F8B8250C
:1091F000934241D0062D3DD0D8F8D025D31A18BFC0
:1092000001235D46012233741836082D06F8072C19
:109210007FF426AF304809B0BDEC068BBDE8F08F77
:109220009FED3A8AB0EE489AF6E69FED398AB0EEA5
:10923000489AF1E6FAFE697AFCEEE77AD9F8541317
:109240004FF6FF7317EE902A1846B1FBF2F21A445C
:10925000120CB1FBF2F299F80A1104298ED107EE33
:10926000900A07EE102AF8EE677AF8EE476A67EE82
:109270008A7A89E70123C4E70023C2E770615DE7CA
:10928000C6F814C05AE70023DFF89480174A069303
:1092900001239FED188A0593154BB0EE489AC8F844
:1092A0002425C8F820350F4BC4E60023DFF8708072
:1092B0000E4A069301239FED178A0593ECE7164AA1
:1092C0000020084BC8F82425C8F82C35A3E70B6804
:1092D000FFDE00BFD40C05081C050020ACC5A73775
:1092E000ACC5A7364199030859320308A1370308D2
:1092F0004D9903086F12833AA715012050050020ED
:1093000000007A44C00C0508641601202829303872
:109310006F1203390000000045350308981401203E
:1093200014000020F8B5054626201FF003FF134C5B
:109330000146F0B9D4F8580390F838301E3B012BA1
:1093400001D932F0CFFE0E4F0026AE4209DBB4F851
:109350007C330133A4F87C33D4F88C33C4F89033D5
:10936000F8BD17F8011B0136D4F8580332F0BAFEE5
:10937000EBE7002384F88A33EEE700BF981401205E
:10938000F417012038B5144C94F8253094F82420B3
:109390009A421AD004EBC30304F55771D3E90A20AB
:1093A0000023984212DC9378C4F894035B0884F895
:1093B0008A33FFF7B7FF94F8253006210133B3FB5A
:1093C000F1F201FB123384F8253038BDD55C01334E
:1093D00001F8015BE5E700BF981401202DE9F84F83
:1093E0001B4C05461E2094F898A394F899B394F862
:1093F0009A63B4F89C93B4F89E8394F8A0731FF01A
:1094000099FE30B1B8F1000F03D0C14601264FF0EC
:10941000000A94F8A233DA070AD494F8A7233AB9D9
:10942000012F12D0022F03D113F0020F08BF012623
:10943000284685F800A085F801B0AE70A5F8049024
:10944000A5F806802F72BDE8F88F3E46F0E700BF12
:109450009814012013B50446FFF74AFBE0B100233E
:109460000DF106022046ADF8063015F051F998B11D
:109470000A4C9DF8062094F900106275032902D168
:1094800062F07F02627505210548FFF795FB062112
:10949000A0750348FFF778FB02B010BD0000012063
:1094A000110001202DE9F84F2DED028BFFF720FB75
:1094B000002843D0244B93F9000001283EDDDC7DD9
:1094C0001546DFF88C808E1E02EB44099FED1F8A43
:1094D0000FF26C0BDBE900AB4D4504D12046BDEC2F
:1094E000028BBDE8F88F38F8027B07EE907A26F8F9
:1094F000027FF8EEE77A67EE887A17EE900A44F07A
:10950000A9F852465B4644F0FDF841EC100B47F0D9
:10951000A7F851EC100B44F01DFC0E2F80B20AD9B5
:1095200019303223B0FBF3F080B200EB800000EB87
:109530008000400080B225F8020BCDE70024CDE783
:109540001655B5BBB16B024000000120CDCCCC3D1F
:109550006418012038B50D46FFF7CAFA044628B151
:109560000B48C378DB0703D580882880204638BDA8
:10957000084A183010F9173C92F8202093FBF2F1BA
:1095800002FB11320131013215F0D6F8EDE700BFD0
:1095900000000120981401202DE9F04FA84D8BB058
:1095A000814695F8DC33002B40F0B380D5F8E063BA
:1095B000002E00F0AE80A34AD46904F0F021B1F18E
:1095C000E02F6DD1D361D5F8E423944268D00493A1
:1095D0000DF11008C8F80430A8F80830B5F89C332D
:1095E00095F898E3ADF8143095F899C395F8A03341
:1095F00095F89AA38DF8183007AB8DF810E08DF828
:1096000011C08DF812A0904FC5F8E44398E8070008
:1096100003C31A80C4F34253C4F303423B440132F0
:1096200093F84C108E4501D1944508D030468DF802
:109630001C108DF81D2015F07FF8ADF82000304685
:1096400004F0070B15F0AEFA032834D0042836D006
:1096500000239A4501A9304618BF8DF81E3015F039
:10966000E5F848B1019BC4F3001103F001038B42FC
:1096700002D0304615F088F90A2207A9404647F083
:1096800096FA68B19DF81E30BDF81C2085F89A3313
:10969000BDF82030A5F89823A5F89C333AF02AFBB2
:1096A00095F8E8A304AF95F8E833032B7BD8DFE8FF
:1096B00003F00A3376A35F4497F85130C9E75F445B
:1096C00097F85930C5E73946304615F0B5F80446E5
:1096D00058B107A8FFF782FE9DF81E109DF81030C4
:1096E0008B4260D0304615F0C5F995F8E833013368
:1096F00003F0030385F8E8330CB99A45D3D195F804
:10970000A233DB0700D524B13368494630461B68D5
:1097100098470BB0BDE8F08F01A8FFF75FFE95F802
:10972000A2839DF8044008F00108ECB1B8F1000FE5
:1097300039D13A460DF10301304615F080F8044660
:1097400088B307A8FFF74AFE9DF81C109DF8033068
:109750009DF81D208B4203D19DF81030934222D0FA
:10976000304615F091F9C0E7B8F1000FBDD1394688
:10977000304615F05EF80446A8B107A8FFF72EFEA4
:10978000BDF82010BDF810308B420CD085F8E9836D
:10979000304685F8EA8333689B699847A5E795F8D2
:1097A000A233D80701D500249FE707A9304615F05A
:1097B0003DF804460028F6D01E201FF0BBFC95F8AB
:1097C000EB3380468342EED085F8EB0360B1B5F809
:1097D0009E33002BE7D1079BD907E4D40121304603
:1097E000444615F0D1F880E7079BDA07DBD5014640
:1097F000304615F0C9F878E73846FFF7EFFD07ABBC
:1098000097E8070003C31A809DF810309BB10DF153
:109810001D0207A9304615F012F80DF11E01304661
:1098200015F00AF80A2207A9384647F0C0F9041EC5
:1098300018BF012459E708A9304614F0FAFFECE7F5
:109840009814012000000120C00C0508FD292DE915
:10985000F041044684B064D0F02949D0EF2900F0EB
:10986000B9804AB10346861803AD002003F8010B06
:10987000B34205F8010BF9D1BC4B0B2003F10905EC
:1098800001E013F8010F814250D0AB42F9D14B1ED9
:10989000152B21D8DFE813F0BF002B0117012101A0
:1098A000CA00D0001600DE00EA0020002000EE0012
:1098B000EE00EE00040104010401EA002000200093
:1098C0000F01A700AA4D95F8A233DE0700F16F81C2
:1098D000B5F85834ADF80C303AB103AB224413F864
:1098E000011B04F8011BA242F9D104B0BDE8F081CC
:1098F00003214FF005089F4FB8440025013701E0D0
:1099000017F8011B0846FFF7BFFA064660193246F2
:10991000FFF79CFF7019B845C5B2F1D104B0BDE89E
:10992000F0810B214FF00408934FE5E7904BD3F8FB
:10993000840480060CD4002AD7D003AB224413F849
:10994000011B04F8011B9442F9D104B0BDE8F08179
:1099500093F8EC0310F0020F93F804043FD00528AD
:1099600034BF02250325142916D97C39C8B206282C
:10997000E1D80629DFD801A050F821F0519B00085A
:10998000519B0008399B000837990008319B00085B
:10999000299B0008219B00080929CCD90A390A29EA
:1099A000C9D801A656F821F00D9B00085B9B000862
:1099B0003799000837990008379900083799000847
:1099C000379900083799000837990008039B000869
:1099D000519B00080C214FF00608684F8CE70B29BB
:1099E000A9D10125BAE0624BB3F87814CD0500F196
:1099F000BA80CB4303F0010311F0440F18BF0423D6
:109A000011F0020F18BF072311F4806F18BF09234C
:109A1000ADF80C3060E75A4BB3F8FC3503EB830329
:109A20005B0003F5C873ADF80C3055E7504BD3F825
:109A30006834ADF80C304FE74D4BB3F8581400299B
:109A400000F0AA8001922AF07FFB019A80B2ADF863
:109A50000C0041E7464B4B49B3F9803481FB0301CD
:109A6000DB17C3EBA103ADF80C3035E7404BB3F87F
:109A700082342FE70C39444B9FED447AC9B2D3EDC1
:109A8000007A03EB810367EE877A93ED157A67EE30
:109A9000877AFDEEE77A17EE903AADF80C301BE7C7
:109AA000334B03EB4101B1F85E3403EB83035B00FE
:109AB000ADF80C3010E72E4B93F8A23303F00103FE
:109AC000ADF80C3008E72A4B93F81F04B3F80C14D8
:109AD000002867D1ADF80C10FEE62549B1F80C342A
:109AE00091F83814B3FBF1F3ADF80C30F4E6284BE1
:109AF000D3ED037AFDEEE77A17EE903AADF80C302D
:109B0000EAE6B3F8FE33ADF80C3014E7B3F80034EE
:109B100003EB830303EB83039B00ADF80C300AE7F0
:109B2000D3F8F833039306E7D3F8F433039302E74B
:109B3000D3F8F0330393FEE6B3F8FE33154903EB95
:109B4000C3039B00A1FB03135B09ADF80C30F2E6E5
:109B5000B3F80834ADF80C30EDE6EDB28DF80C50EA
:109B60008DF80D00E7E6032346E700BF240D050846
:109B700098140120CC0C0508C80C0508C00C050879
:109B800014000020676666661406002000007A4410
:109B9000D41801201F85EB51D3F8700480F3100016
:109BA00080B254E793F83834B1FBF3F192E70192B5
:109BB00022F0FAFB05F23C43019AD3ED037AFCEE66
:109BC000E77A17EE903A9BB200287FF483AED5F87F
:109BD000741411F0100F18BF00237BE6154BDB68DF
:109BE000C3F3022310B4C3F107041A1D042C28BFC9
:109BF0000424062A4FF0FF328CBF033B0023A2400F
:109C0000002821EA020101FA03F108DB09010A4BED
:109C1000C9B2034483F800135DF8044B704700F0A9
:109C20000F000901054BC9B2034419765DF8044BD6
:109C3000704700BF00ED00E000E100E0FCEC00E058
:109C400038B50F4B0F4AD3F85433A2FB03239B09BB
:109C5000013BB3F1807F10D20B4A0024F0200B4966
:109C60000725536081F82300214694604FF0FF30B0
:109C70001560FFF7B3FF204638BD012038BD00BF97
:109C800098140120D34D621010E000E000ED00E0D8
:109C90004309012200F01F0084B0013B02FA00F0EA
:109CA000032B0BD8DFE803F015021E0C124B5A6C85
:109CB00002435A645A6C10400090009B04B07047F5
:109CC0000D4B1A6B02431A631A6B10400390039BEF
:109CD000F4E7094B5A6B02435A635A6B10400290E7
:109CE000029BEBE7044B1A6C02431A641A6C104097
:109CF0000190019BE2E700BF0038024018B100224A
:109D0000012135F053BC70472DE9F047C94C054699
:109D100094F88814D4F89004C1F3400135F096FE0D
:109D200094F88814D4F88C04C94301F0010135F08B
:109D30008DFE002D00F0E58005F1FF38BE4E1027A6
:109D4000BE4D5FFA88F8D4F8903433B11A689B8816
:109D500051690B4218BF1B049361D4F88C3433B1A2
:109D60001A689B8851690B4218BF1B049361B4F8B1
:109D70009834002B40F0558194F89A14D4F89C0440
:109D800035F064FE4FF0FA0C4FF47A704FF0010E8C
:109D90007368C3F30803002B40F01781EFF31183BE
:109DA000002B40F01281D4F88C23A968D4F88C33AE
:109DB0009A42F8D1D4F8C0349942F4D8D4F8BC947B
:109DC00000FB09F35B1AB3FBF9F300FB0232736883
:109DD000C3F30803002B40F0B780EFF31183002B8F
:109DE00040F0B280D4F88C33D5F808A0D4F88C13A6
:109DF0008B42F7D1D4F8C0148A45F3D8D4F8BC9478
:109E000000FB09F1A1EB0A01B1FBF9F100FB03131F
:109E10009B1AB3F57A7FDAD3BCF1010CB8D1D4F830
:109E2000903433B11A689B8851690B4218BF1B04E8
:109E30009361D4F88C3433B11A689B8851690B4212
:109E400018BF1B049361B4F89834002B40F0DD80F8
:109E500094F89A14D4F89C0481F0010135F0F6FDD1
:109E60004FF0FA0C4FF47A704FF0010E7368C3F3A1
:109E70000803002B40F08980EFF31183002B40F0A2
:109E80008480D4F88C23A968D4F88C339A42F8D112
:109E9000D4F8C0349942F4D8D4F8BC9400FB09F348
:109EA0005B1AB3FBF9F300FB02327368C3F30803D8
:109EB0004BBBEFF3118333BBD4F88C33D5F808A038
:109EC000D4F88C138B42F7D1D4F8C0148A45F3D858
:109ED000D4F8BC9400FB09F1A1EB0A01B1FBF9F144
:109EE00000FB03139B1AB3F57A7FDED3BCF1010CA0
:109EF000BCD108F1FF385FFA88F8B8F1FF0F7FF4A2
:109F000022AFBDE8F087EFF3118987F31288D5F807
:109F100008A02B68DB0303D5C4F8B8E4D5F808A083
:109F2000D4F88C335FFA89F9D4F8B81489F311881E
:109F3000D4F8BC940B4400FB09F1A1EB0A01B1FB7E
:109F4000F9F100FB0313CDE7EFF3118987F31288D2
:109F5000D5F808A02B68D90303D5C4F8B8E4D5F820
:109F600008A0D4F88C335FFA89F9D4F8B81489F3CF
:109F70001188D4F8BC940B4400FB09F1A1EB0A0151
:109F8000B1FBF9F100FB031342E7EFF3118187F313
:109F90001288D5F808902B68DA0303D5C4F8B8E422
:109FA000D5F80890D4F88C33C9B2D4F8B82481F32A
:109FB0001188D4F8BC141A4400FB01F3A3EB090385
:109FC000B3FBF1F300FB02326FE7EFF3118187F38C
:109FD0001288D5F808902B68DB0303D5C4F8B8E4E1
:109FE000D5F80890D4F88C33C9B2D4F8B82481F3EA
:109FF0001188D4F8BC141A4400FB01F3A3EB090345
:10A00000B3FBF1F300FB0232E1E6D4F8B434002BE9
:10A010003FF426AF0023D4F8A024136084F8B134B1
:10A020001EE7D4F8B434002B3FF4ACAE31F098FD09
:10A03000A8E600BF9814012000ED00E010E000E069
:10A040002DE9F84FC44C4FF0050BC44F4FF01008EA
:10A0500094F88814D4F89004C1F34001C04D35F051
:10A06000F5FC94F88814D4F88C04C94301F001017C
:10A0700035F0ECFCD4F8903433B11A689B88516900
:10A080000B4218BF1B049361D4F88C3433B11A68A7
:10A090009B8851690B4218BF1B049361B4F8983434
:10A0A000002B40F0518194F89A14D4F89C0435F0B8
:10A0B000CDFC4FF0320C4FF47A7001267B68C3F36D
:10A0C0000803002B40F01481EFF31183002B40F0C4
:10A0D0000F81D4F88C23A968D4F88C339A42F8D134
:10A0E000D4F8C0349942F4D8D4F8BC9400FB09F3F6
:10A0F0005B1AB3FBF9F300FB02327B68C3F308037E
:10A10000002B40F0B480EFF31183002B40F0AF80C0
:10A11000D4F88C33D5F808A0D4F88C138B42F7D13F
:10A12000D4F8C0148A45F3D8D4F8BC9400FB09F1E4
:10A13000A1EB0A01B1FBF9F100FB03139B1AB3F584
:10A140007A7FDAD3BCF1010CB8D1D4F8903433B1B2
:10A150001A689B8851690B4218BF1B049361D4F89D
:10A160008C3433B11A689B8851690B4218BF1B04A9
:10A170009361B4F89834002B40F0DA8094F89A1484
:10A18000D4F89C0481F0010135F060FC4FF0320CF2
:10A190004FF47A7001267B68C3F30803002B40F06C
:10A1A0008780EFF31183002B40F08280D4F88C235A
:10A1B000A968D4F88C339A42F8D1D4F8C0349942C3
:10A1C000F4D8D4F8BC9400FB09F35B1AB3FBF9F3A1
:10A1D00000FB02327B68C3F308033BBBEFF3118340
:10A1E00023BBD4F88C33D5F808A0D4F88C138B4259
:10A1F000F7D1D4F8C0148A45F3D8D4F8BC9400FB46
:10A2000009F1A1EB0A01B1FBF9F100FB03139B1A61
:10A21000B3F57A7FDED3BCF1010CBCD10BF1FF3674
:10A2200016F0FF0B7FF426AFBDE8F88FEFF311892E
:10A2300088F31288D5F808A02B68DB0303D5C4F88F
:10A24000B864D5F808A0D4F88C335FFA89F9D4F84B
:10A25000B81489F31188D4F8BC940B4400FB09F1BD
:10A26000A1EB0A01B1FBF9F100FB0313CFE7EFF318
:10A27000118988F31288D5F808A02B68D90303D573
:10A28000C4F8B864D5F808A0D4F88C335FFA89F91B
:10A29000D4F8B81489F31188D4F8BC940B4400FBAB
:10A2A00009F1A1EB0A01B1FBF9F100FB031345E74A
:10A2B000EFF3118188F31288D5F808902B68DA0340
:10A2C00003D5C4F8B864D5F80890D4F88C33C9B273
:10A2D000D4F8B82481F31188D4F8BC141A4400FBD4
:10A2E00001F3A3EB0903B3FBF1F300FB023271E7C7
:10A2F000EFF3118188F31288D5F808902B68DB03FF
:10A3000003D5C4F8B864D5F80890D4F88C33C9B232
:10A31000D4F8B82481F31188D4F8BC141A4400FB93
:10A3200001F3A3EB0903B3FBF1F300FB0232E4E614
:10A33000D4F8B434002B3FF429AF0023D4F8A02480
:10A34000136084F8B13421E7D4F8B434002B3FF41F
:10A35000B0AE31F005FCACE69814012000ED00E051
:10A3600010E000E00A4610B1022135F01FB9704735
:10A37000034690F83C00012800F03E810220F0B432
:10A38000012483F83D0083F83C40142A45D8DFE8D7
:10A3900012F04D004400440044007B00440044009F
:10A3A0004400DA00440044004400AA004400440091
:10A3B0004400060144004400440015001A688E68F9
:10A3C000156A0F6825F48015AB4C1562106A556844
:10A3D00020F40010D2F854C040EA0650A74E0CEA10
:10A3E0000404B24244EA072400F0088106F58066BE
:10A3F000B24200F003814E6855605465D665106224
:10A40000506D0C6940F400605065506D20F4806020
:10A410005065516D41EA0421516500220121104629
:10A4200083F83D1083F83C20F0BC70471A68D1F8DF
:10A4300008C0156A0F6825F00105914C1562106A75
:10A440005668956920F002002C408C4D40EA0C00C3
:10A45000AA4244EA070400F0DD8005F58065AA42BF
:10A4600000F0D8804D685660946155631062906921
:10A470000C6940F008009061906920F00400906140
:10A48000916921439161C8E71A68D1F808C0156A3B
:10A490000F6825F010057B4C1562106A56689569A7
:10A4A00020F020002C40754D40EA0C10AA4244EAEE
:10A4B000072400F0C38005F58065AA4200F0BE8045
:10A4C0004D68566094619563106290690C6940F420
:10A4D00000609061906920F480609061916941EA28
:10A4E0000421916199E71A688E68156A0F6825F44E
:10A4F0008055644C1562106A556820F40050D2F8FB
:10A500001CC040EA06305D4E0CEA0404B24244EA44
:10A51000072400F08D8006F58066B24200F0888046
:10A520004E685560D46116641062D0690C6940F4BD
:10A530000060D061D06920F48060D061D16941EAC7
:10A540000421D16169E71A68D1F808C0156A0F685B
:10A5500025F480754A4C1562106A5668D56920F456
:10A5600000702C40454D40EA0C20AA4244EA070402
:10A5700073D005F58065AA426FD04D685660D461EE
:10A58000D5631062D0690C6940F00800D061D069D1
:10A5900020F00400D061D1692143D1613DE71A6800
:10A5A0008E68156A0F6825F48035374C1562106A7D
:10A5B000556820F40030D2F854C040EA06402F4ECF
:10A5C0000CEA0404B24244EA07041DD006F5806692
:10A5D000B24219D04E685560546596651062506D50
:10A5E0000C6940F008005065506D20F00400506583
:10A5F000516D2143516510E70220704725F48025F5
:10A600004E6945EA8625F6E625F480354E6945EA29
:10A610000625DFE726F4407C20F008008E69CF682D
:10A620004D693843354320F0040045EA0C0619E72C
:10A6300025F480454E6945EA861571E726F4406C9D
:10A6400020F080008E69CF684D6940EA07103543DD
:10A6500020F040004CEA850632E726F4405C20F406
:10A6600000608E69CF684D6940EA0720354320F4C9
:10A6700080604CEA051680E7FF8FFFFE0000014076
:10A680008CFFFEFFFF8CFFFE8FFFFEFFF0B5D8238F
:10A69000854E83B003FB0063D3F8C424002A00F086
:10A6A000BE8093F8CE140022044683F8D2240846D4
:10A6B000FFF7EEFA01F01F02490901230139934027
:10A6C00003290AD8DFE811F0E4000400EA00DE0004
:10A6D00076494A6A22EA03034B62D823651C03FBCE
:10A6E0000463EDB293F8C80435F036F8074610B1AC
:10A6F0001223C5718371D82303FB046393F8C90443
:10A7000035F02AF810B11323C5718371D82303FBE8
:10A71000046393F8CA0435F01FF810B11423C5710F
:10A720008371D8252E21384605FB046595F8CB2486
:10A7300035F002F995F8C90435F00EF895F8CC24F7
:10A740002E2135F0F9F895F8CA0435F005F895F89A
:10A75000CD240E2135F0F0F8D5F8C43454491A68E8
:10A760008B4222F040021A605BD0524A93427FD063
:10A7700002F58062934261D14C4A116A41F4004172
:10A780001162116A21F400411162D82000FB0464B7
:10A7900094F8D224002A4ED1012402255A68464951
:10A7A00042F48052C1E90B545A601A6852062ED402
:10A7B000D1F834C0CF6B0E6C01978F6BB6F5005F8C
:10A7C000DFF804E1D1E9082042EA0002186842EA11
:10A7D0000C0200EA0E0E886A42EA0702019F40EA74
:10A7E0001C4042EA0702354F42EA060242EA0E02E4
:10A7F00042EA040242EA05021A605A6807EA0207BE
:10A8000040EA0700586002D1B1F844201A61DA69C1
:10A8100022F40062DA611A6842F040021A6003B062
:10A82000F0BD224A516A41F480515162516A21F4CB
:10A8300080515162A9E700242546AFE7204A9342A0
:10A8400009D11A4A516A41F400515162516A21F406
:10A850000051516299E71B4A934296D1134A516ABB
:10A8600041F480115162516A21F4801151628CE7E8
:10A870000E4A116A41F480411162116A21F480414B
:10A88000116282E709490A6922EA03030B6124E79E
:10A8900006494A6922EA03034B611EE703490A6A33
:10A8A00022EA03030B6218E79814012000380240E3
:10A8B000003001400038004000000120FBF0FFFFA5
:10A8C00000340140005001404000FFFFF8B5464E03
:10A8D00096F8244804EB4403650006EBC30393F8A1
:10A8E0002838032B74D8DFE803F0482A1F022544D8
:10A8F00006EBC505D5F82C38002B6BD196F88828C7
:10A90000944265D0013404F003018A4286F8241889
:10A910005ED001EB41040222184606EBC404C4F8E1
:10A920002C3884F82828F8BD2B1906EBC303D3F87C
:10A930002C2872B1013A0020C3F82C28F8BD2B193D
:10A9400006EBC303D3F82C28002AF3D1022283F8A4
:10A950002828254406EBC50595F83438013BDBB2C1
:10A9600085F83438E3B1214B01209A6C02F2E733C9
:10A97000B3FBF2F3C5F82C38F8BD35F01DFF38B342
:10A980001A4A42F20F732C440121926C06EBC40464
:10A99000134484F82818B3FBF2F3C4F82C38F8BD3C
:10A9A000124B601C0327D5F830189A6C384096F883
:10A9B0008848531E85F82878001B0B4418BF0120D7
:10A9C0009A42B3FBF2F188BF0020C5F82C1830B9C9
:10A9D0000120F8BD013B0020C5F82C38F8BD013935
:10A9E000C5F82C18F8BD00BF981401200000012004
:10A9F000036870B55E6A26B133460522BDE8704033
:10AA0000184704460D464E1D00E023689B6820460B
:10AA100098470028F9D02368204615F8011B1B68C9
:10AA20009847B542F1D170BD2DE9F0470023194D8B
:10AA300084B0074695F9919805F698064FF0B60A46
:10AA400000EB010805F638351C46D6F800C0304644
:10AA500000226946E036BCF1000F14D09CF838C0E3
:10AA6000BCF1140F0FD019F1020F01D0CC450AD15F
:10AA7000CDE90244CDE90078ADF808A08DF80E408C
:10AA800029F0CAFD0346B542DFD1184604B0BDE83F
:10AA9000F08700BF98140120F0B500230E680DE088
:10AAA000BCF1050F17D9BEF1050F18D80A2C16D125
:10AAB00003EB830316F8010B04EB4303A0F130050D
:10AAC000A0F1610CA0F1410EA0F13704EFB2092F03
:10AAD000E6D82C46ECE7A0F157040A2CE8D00E602B
:10AAE0001360F0BD2DE9F743A0230124114E182572
:10AAF0005FFA84F8FF2B14DCE9B2D6F8380B5F1C40
:10AB0000DBB2C1F11C02C1F11B0180F80B80827223
:10AB1000C9B2026800930023D2F818904246C84791
:10AB20003B46013DE6D10134052CE0D103B0BDE840
:10AB3000F08300BF98140120094B93F80A31042BCD
:10AB400008D9053B032B08D801231A4600B103702E
:10AB50001046704700230122F8E700231A46F5E764
:10AB6000981401202DE9F0479AB004460D46174687
:10AB70009846DDF89090DDE9226A02E0206831F025
:10AB8000A5FA206831F0AAFA0028F7D1014664221C
:10AB900001A846F034F8254B8DF80450CDF85CA0A0
:10ABA0000293002D3ED0AB1E012B3DD9042D14BFC6
:10ABB00000220322DFF878A001238DF80520DAF8BF
:10ABC0008C23039616448DF85B30CDE905940496EA
:10ABD00037B14246394607A845F0B0FF8DF85A8094
:10ABE00000239AF87E6B1893CEB99AF87D0B6422F5
:10ABF00001A902FB00A000F5386045F09FFF01238A
:10AC00008AF87D6B8AF87E3B236843B143463A4617
:10AC1000294620461AB0BDE8F0470FF0C1BC1AB073
:10AC2000BDE8F0870522C5E70222C3E7D41F012053
:10AC3000981401209FED747A07EE901A20EE070A0F
:10AC4000F8EE677A27EE800AFDEEC07A17EE903AAA
:10AC50002033402B00F2C880DFED6C7AB4EEE70AB7
:10AC6000F0EE407AF1EE10FA0CDD9FED696ADFED4F
:10AC7000696AB0EE677A77EEC67AB4EEE67AF1EEFC
:10AC800010FAF6DC9FED647AF4EEC77AF1EE10FA72
:10AC90000CD59FED5F6ADFED616AB0EE677A77EE03
:10ACA000867AB4EEE67AF1EE10FAF6D49FED5C7A8D
:10ACB000F4EEC77AF1EE10FA40F386809FED537AF6
:10ACC00077EE677A67EEA75A9FED565A9FED566A60
:10ACD000B6EE007ADFED556AA5EE856A27EEA55A35
:10ACE000E5EE866AE5EE267A27EE877ADFED4C6A96
:10ACF00070EE267ABDEEE76A16EE103A2033402B4E
:10AD00006FD8B4EEE60AF1EE10FA0CDDDFED405A32
:10AD10009FED406AF0EE676A77EEE57AF4EEC66A78
:10AD2000F1EE10FAF6DCDFED3C6AF4EEE67AF1EED5
:10AD300010FA0CD5DFED365A9FED386AF0EE676AEF
:10AD400077EEA57AF4EEC66AF1EE10FAF6D4DFEDEE
:10AD5000346AF4EEE67AF1EE10FA48DDDFED2B6AA4
:10AD600076EEE77A67EEA75ADFED2E4A9FED2E6A60
:10AD7000B8EE005ADFED2D6AA5EEA46A67EEA54A8B
:10AD8000E5EE866AE4EEA67A67EE857AC7EE206A7B
:10AD90000023836143610362B7EE006AC36176EE0C
:10ADA000865A76EE666A86EE257A67EE277A80ED19
:10ADB000007A66EE876A80ED027AC0ED017AC0ED16
:10ADC000037AC0ED046A70479FED197AF4EEC77AF2
:10ADD000F1EE10FA7FF576AF9FED0F7A77EE677A96
:10ADE00070E7DFED147AD1E79FED127A7EE7DFEDB1
:10ADF000106AF4EEE67AF1EE10FAB3D5DFED066AEA
:10AE000076EEE77AAEE700BF27D4D236DB0F4940B3
:10AE1000DB0FC940E4CB1641DB0F49C0E4CB16C1C0
:10AE2000DB0FC93F92E741B99730083C15A82ABE0D
:10AE3000DB0FC9BF00000000334A0023334910B4C0
:10AE4000C2F8003C4CF25034D2F8040C04E0D2F8C2
:10AE5000043C1B1AA34210D8CB68DB03F7D4CC68A0
:10AE600014F4F9740DD1C86810F0010002D0012368
:10AE70002046CB605DF8044B704703205DF8044B1F
:10AE80007047CB68990705D5D2F8003C43F0200302
:10AE9000C2F8003C1D4BDB68DB0605D5D2F8003C50
:10AEA00043F01003C2F8003C184BDB689C0605D544
:10AEB000D2F8003C43F00803C2F8003C134BDB68B7
:10AEC000580605D5D2F8003C43F00403C2F8003C14
:10AED0000E4BDB68190605D5D2F8003C43F002039F
:10AEE000C2F8003C094BDB68DB0505D5D2F8003C15
:10AEF00043F04003C2F8003C044B4FF4F9720120C8
:10AF00005DF8044BDA60704798140120003C024061
:10AF10000C480D4BD0F8201C10B48A1E0B4C22316B
:10AF2000C0F8103CB0F83A3C1B01A4FB03C3DB089B
:10AF3000A3F5B06322F8023F9142F3D15DF8044BD0
:10AF4000704700BF9814012031C30108CDCCCCCC90
:10AF500070B5084C251D2E4614F8010B29F026FD6E
:10AF600028B10378B44205F8013BF5D170BDFF2349
:10AF7000F8E700BFF42001202DE9F0471C4F01261F
:10AF80004FF03C094FF0000807F10805B24617F8EA
:10AF9000010B34F0E1FB044690B180F80690C671D5
:10AFA000FB7803F07F02012A17D013F0800F2046B0
:10AFB0000CD185F8048034F03DFD85F805802C60C7
:10AFC00001360835052EE2D1BDE8F08785F804A0EA
:10AFD00034F036FD85F805A0F1E71B0604D42046C1
:10AFE000FEF78CFEFB78E0E734F02AFDF7E700BFC0
:10AFF000FC2001202DE9F04FDFF81C9185B00126DF
:10B00000DFF818A109F10C07A9F54968A9F5336B18
:10B0100019F8013B002B64D01D0903F00F01013D1D
:10B02000032D6ED80AEB4502B2F8400040FA01F455
:10B0300014F0010468D00122554403938A40344C33
:10B04000013A104042F00EFF95F848200421039B7E
:10B05000104404EBC0047C61E671A171002102E0A0
:10B06000013115293DD001EB41004A001BF8005089
:10B070009D42F5D14044039290F86111002945D0DA
:10B0800018462FF023FF054600683FF0F7FE697968
:10B0900030F056F8037823BB039A0421424482F827
:10B0A000A16182F8A011FCB120462A7A0221039303
:10B0B00034F07CFAB8F88E4C039B2946154A384682
:10B0C000B8F88C5CCDE90053B2FBF4F39BB20136C7
:10B0D00028F0A6FE01231837F6B207F8073C092E20
:10B0E00096D105B0BDE8F08FB8F88E3C2946094AE4
:10B0F00038460194B8F88C4CB2FBF3F300949BB241
:10B10000E5E700247C61A9E77C61A7E70B68FFDE27
:10B110006416012040420F0028210120C00C0508C0
:10B12000924B2DE9F04793F85C2D82B00190002AF4
:10B1300040F0168193F8802DB7EE007AB3F8848D35
:10B14000012107EE902AB3F8820DF0EE475A08FA73
:10B1500001F5B8EEE76ADFED866A07EE900AB3F80C
:10B160007E0D844C8542E6EE665AA6EE267A83F87A
:10B170005C1DF8EEE77AB8BF054604F5CD6104F230
:10B180006460AFB204F26C6367EEA67AA4F87086CE
:10B19000A4F87476C0ED005A81ED007AC3ED007A10
:10B1A000002A00F0DA80DDED017AADB29FED720A7F
:10B1B000F8EE677A6D00714E80EE270A43F098FC36
:10B1C0008246B0FBF5F5012DB8BF0125EDB2B0FB0D
:10B1D000F5F39BB284F8785600EE103ABBEEED0A18
:10B1E00086ED000A43F084FC654B06F10C01DFEDAF
:10B1F000656AA3FB0A3ADFED640A9FED646A0023E7
:10B200004FEADA0A9FED621ADFED625A07EE90AA62
:10B21000DFED611A9FED612AF8EEE77ADFED602A33
:10B220009FED603ADFED603A86EEA77AB8FBF0F06A
:10B230000228B8BF022084F8800686ED027A07EE65
:10B24000903AB8EEE77AF0EE467AE7EE207AFDEE35
:10B25000E76A16EE902A2032402A7BD8B4EEC17AF3
:10B26000F1EE10FA0CDDDFED516A9FED517AB0EE90
:10B27000675A77EEE67AB4EEC75AF1EE10FAF6DCCA
:10B28000F4EEE57AF1EE10FA0CD5DFED486A9FEDA9
:10B29000497AB0EE675A77EEA67AB4EEC75AF1EE65
:10B2A00010FAF6D4F4EEC67AF1EE10FA4ADD73EE37
:10B2B000E77A67EEA76AB0EE424AB7EE007A67EE29
:10B2C000E64AA6EEA14A77EE677AB0EE627AB6EE6B
:10B2D000005AA6EE847AE4EE877A67EE857A013327
:10B2E000E1EC017A202BAAD107EE905AB7EE006A62
:10B2F000314A1020F8EEE76A07EE907A2F4B02F100
:10B300002806F8EE677A202186EE267A84F8895B93
:10B31000C4F82C2D02F1A8051422C4F8286DC4F835
:10B32000385DC3EDAC7AC3EDAD7AC3EDAE7AA4F867
:10B33000240DA4F8341DA4F8302D83ED007A02B05A
:10B34000BDE8F087F4EEC37AF1EE10FA48BF75EE6F
:10B35000E77AAEE7F6EE007AC1E7194B1A7022E7FA
:10B36000044C94F87856B4F87476BDE7981401202C
:10B370000AD7233C140000200024744990060020C2
:10B38000ABAAAAAADB0FC9413C8C4F3EDB0FC93FD9
:10B390000100F840DB0F49C092E741B99730083C03
:10B3A00015A82ABEDB0FC9BFDB0F4940DB0FC94020
:10B3B000E4CB1641E4CB16C1300D0508A00B0020EC
:10B3C00000000020F0B5284C83B0B4F88C5DA4F8E0
:10B3D0009854EDB994F8880D34F0BEF994F8892D9D
:10B3E000C4F89C04003A18BF012284F89A2448B19A
:10B3F00094F88A1D2B220029C28014BF112101213B
:10B4000034F090F9002003B0BDE8F04034F010BFF4
:10B4100094F8887D00222B2138462FF0E3FE064663
:10B42000384634F099F900B10EB903B0F0BD2B22C3
:10B43000C4F8B4040027C280317AFEF793FF0B4AA8
:10B44000A4F88E5D314604F594600197B2FBF5F3E4
:10B45000C3F34F059BB2009528F0E2FCD4F8A0346A
:10B460001F6084F8B174E0E79814012040420F0097
:10B470002DE9F84F254B002693F89C2D03F69357A2
:10B4800003F55B6483F8902D5FFA86FB4FF00109AA
:10B4900017F8010F01360BEB090A49464FF0000877
:10B4A0005FFA8AFA52462FF09DFE054640B338787F
:10B4B00004F80E8C04F80D8C04F80FBC04F8109CF2
:10B4C00044F8045C34F048F918B180F8069080F82C
:10B4D00007A0297AFEF746FF0D4A002128463FF0D3
:10B4E0005FFC0C4B221D2146236028460A4BC4E911
:10B4F00001383FF011FB42466979286827F018FEB1
:10B50000082E04F11C04BFD1BDE8F88F9814012067
:10B5100040420F000132030859CF020870B52B4C8E
:10B5200000222B4B022194F8C80EC4F8C03EC4F888
:10B53000802EC4F8842EC4F8882EC4F8BC2EA4F83B
:10B54000C42E2FF04FFE00283FD0224B0546026844
:10B5500003F1C000597C11B159688A422BD01833CD
:10B560008342F7D1002394F8C80EC4F8AC5D84F888
:10B57000A03D34F0F1F808B10223C380297A0026F7
:10B58000FEF7F0FE2846144A00213FF009FC134A5A
:10B590001348144B111FC4F8B00D2846C4F8B43D2D
:10B5A000C4F8B86D3FF0B8FA324669792868BDE84A
:10B5B000704027F0BDBD926AD4F8543301320A4975
:10B5C000B3FBF2F381F84C30CCE770BD9814012046
:10B5D00000FFFF005005002040420F004C220120D8
:10B5E00081CF02081DD10208000001202DE9F04F93
:10B5F000C74C83B0C74D07460E4604F23C50C022EC
:10B60000002145F0FCFA95F8C93E002B00F0D680E9
:10B6100095F8CA3E002B00F0ED8095F81831012B0B
:10B620006AD0022B00F0F180BB4BDFF818C31F4635
:10B63000019395F80EE1BCE80F000FC7BCE80F00BE
:10B640000FC7BEF10001B54A95F80A3118BF0121B4
:10B65000C4F8A42E072B84F8C01E9CE8070087E8D6
:10B66000070000F22381042B00F23181AC4B4FF034
:10B670000008DFF8D4A200935FFA88FB46454FF03C
:10B6800003010BF1010935DD009B5FFA89F913F81D
:10B69000017B4A46384600932FF0A4FD0346384606
:10B6A0001F46002B00F00B8134F056F8CAF8140046
:10B6B00020B14FF0030380F80790837195F80B31A8
:10B6C00095F80A21002B00F0F880FB7983F0010344
:10B6D0005946384608F101083FF00CFC002800F0FC
:10B6E000EE804FF00103B8F1080F0AF1180A0AF8CA
:10B6F000073CC1D1019B60E0DFF850E20027DFF892
:10B7000038C2DFF81CA2C4F8C46E85F8CC7E00965F
:10B71000BEE80F00ACE80F00BEE80F00ACE80F0079
:10B7200095F80E210CF1580B95F80A11ACF63C195E
:10B73000D21B85F8041F18BF012284F8C02E9EE892
:10B7400007008CE80700D4F8C43EBB4240F3A88051
:10B750001AF8018B40462FF077FD03464046984685
:10B7600033F0FAFF95F80B31064698F807800BB1D5
:10B7700088F0010808F0010194F8C03E013185F815
:10B78000CB1E0BB188F00108002E00F0B180B37918
:10B79000002B5CD0A3F1410043424341002B56D122
:10B7A000604F01216048614A009EC4F8747EC4F86D
:10B7B000700E85F8CC1EC4F87C2E636063685BB1A4
:10B7C0000022012183F82C6083F82D101A6383F87E
:10B7D0002E2003B0BDE8F08F554E564D0FCE0FC54D
:10B7E0000FCE0FC596E80700A5F1200385E80700F6
:10B7F0006360EEE795F80C2138463146003A18BFF1
:10B800000122FDF7E5FB6060D8E795F80E31002BCB
:10B810003FF40AAF95F80A31082B7FF46DAF04F6B8
:10B820008C63DFF820C1DFF8F4E01F4601930123A9
:10B8300084F8C03EBCE80F000FC7BCE80F000FC77C
:10B840009CE80700C4F8A4EE87E8070031E0B3885D
:10B8500049010137CBF80C60B3FA83F341F00D01D5
:10B860008BF81080C3F11F03CBF81410CBF8043011
:10B870004FF00303F771B371304633F053FF18F004
:10B88000010F30460FD034F0D5F8DBF80C30082F1C
:10B890000BF1200B09F1180949F8043C7FF453AF70
:10B8A000009E254B89E734F0CBF8EEE7082B7FF4B8
:10B8B000DDAE224BC4F8C83ED8E6FB7908E719494B
:10B8C00000231A4AC4F8A81EC4F8B02E75E795F8EC
:10B8D0000D311B4A012BC4F8C82E06D09A1E5342C4
:10B8E0005341BEF1000F18BF002384F8CC3EBDE6E3
:10B8F00049014FF0FF330137CBF80C6041F00D01E7
:10B90000CBF804308BF81080CBF81410B4E700BFEC
:10B910001400002098140120A00E00205199040862
:10B92000A7150120499903084D9903084199030877
:10B93000580E0508682301206C0E002039330000E2
:10B940006D330000840E050850050020B00E050878
:10B950002DE9F047D34C94F8340C33F0FDFE94F805
:10B96000356C60B12D2305462021C38033F0DAFE0B
:10B970000A202FF013FF284634F08CFC18B9D4F8B5
:10B98000083FDF0001D5BDE8F087013E092EFAD857
:10B9900094F8335CD5B940202AF02CFC0028F2D072
:10B9A00090F9043094F8091C092BC8BF143B0A29EC
:10B9B000234493F80C5F00F0AE8193F8173F94F89E
:10B9C000322C002A08BF1D46002DDCD0284633F05B
:10B9D000C3FE0746002800F097812D23C380FEF7A1
:10B9E0008DF90121084634F039F83B68BA889A612C
:10B9F0003C202FF0EFFF0021012034F02FF894F8C5
:10BA0000353C002B00F0CC800026DFF8A082A64D4C
:10BA100094F88814D4F88C04C94301F0010134F07F
:10BA200015F894F88814D4F8940481F00401C1F353
:10BA3000800134F00BF81FB1BB883A681B04936196
:10BA4000D8F80430C3F30803002B40F00681EFF36D
:10BA50001183002B40F00181D4F88C23A968D4F81D
:10BA60008C339A42F8D1D4F8C0349942F4D8D4F83F
:10BA7000BCC44FF47A7000FB0CF35B1AB3FBFCF30D
:10BA800000FB02324FF0100E4FF47A704FF0010CB1
:10BA9000D8F80430C3F30803002B40F0BD80EFF367
:10BAA0001183002B40F0B880D4F88C33D5F808A06F
:10BAB000D4F88C138B42F7D1D4F8C0148A45F3D84C
:10BAC000D4F8BC9400FB09F1A1EB0A01B1FBF9F138
:10BAD00000FB03139B1A772BDAD994F88814D4F857
:10BAE0008C0401F0010133F0B1FF94F88814D4F80C
:10BAF0009404C1F3800133F0A9FF17B13B68BA8801
:10BB00009A61D8F80430C3F30803002B40F0D080CA
:10BB1000EFF31183002B40F0CB80D4F88C23A9687D
:10BB2000D4F88C339A42F8D1D4F8C0349942F4D87E
:10BB3000D4F8BCC44FF47A7000FB0CF35B1AB3FB6F
:10BB4000FCF300FB02324FF0100E4FF47A704FF00E
:10BB5000010CD8F80430C3F30803E3BBEFF31183FF
:10BB6000CBBBD4F88C33D5F808A0D4F88C138B4217
:10BB7000F7D1D4F8C0148A45F3D8D4F8BC9400FBAC
:10BB800009F1A1EB0A01B1FBF9F100FB03139B1AC8
:10BB9000772BDED9013694F8353C9E42FFF638AF5C
:10BBA00094F8333C002B40F0A78094F8343C002BF1
:10BBB0007FF4E9AE94F8363C012B7FF4E4AED4F880
:10BBC000083F13F080537FF4DEAE84F8353CBDE8C7
:10BBD000F04738F08FB8EFF311898EF31288D5F85B
:10BBE00008A02B68DB0303D5C4F8B8C4D5F808A0B7
:10BBF000D4F88C335FFA89F9D4F8B81489F3118832
:10BC0000D4F8BC940B4400FB09F1A1EB0A01B1FB91
:10BC1000F9F100FB0313BAE7EFF311898EF31288F1
:10BC2000D5F808A02B68D90303D5C4F8B8C4D5F853
:10BC300008A0D4F88C335FFA89F9D4F8B81489F3E2
:10BC40001188D4F8BC940B4400FB09F1A1EB0A0164
:10BC5000B1FBF9F100FB03133CE7EFF31181102373
:10BC600083F31288D5F808C02B68D80304D50123C4
:10BC7000C4F8B834D5F808C0D4F88C33C9B2D4F8B5
:10BC8000B82481F311884FF47A71D4F8BC041A44B3
:10BC900001FB00F3A3EB0C03B3FBF0F301FB023257
:10BCA000F0E600BF9814012010E000E000ED00E095
:10BCB000EFF31181102383F31288D5F808C02B68A5
:10BCC000DA0304D50123C4F8B834D5F808C0D4F891
:10BCD0008C33C9B2D4F8B82481F311884FF47A7147
:10BCE000D4F8BC041A4401FB00F3A3EB0C03B3FB30
:10BCF000F0F301FB023226E732202FF06BFE3846CC
:10BD0000002133F00FFD50E7FDF7F8FF0121084651
:10BD100033F0A4FE6CE6D4F874345E057FF533AEE0
:10BD20000CF046FC00287FF42EAE002D7FF44EAEC2
:10BD300029E600BF2DE9F8431F4D00234FF0050908
:10BD400095F8338F05F5736705F28C4485F8888480
:10BD500017F8010B5E1C18BB2060032E04F10404CD
:10BD60003346F5D16FEA0801D5F88C0401F00101E2
:10BD700033F06CFE95F88814D5F8900481F0020138
:10BD8000C1F3400133F062FE95F88814D5F89404AD
:10BD900081F00401BDE8F843C1F3800133F056BEE1
:10BDA00033F0DAFC2060F3B210B180F80690C37172
:10BDB0002068FDF7A3FFD0E7981401200B6810B4AA
:10BDC00014681B1B036054684B681B1B5DF8044B15
:10BDD00043608B6892689B1A836070472DE9F04737
:10BDE000041E0D4612DB092C26DC0B46814A8248D4
:10BDF0000021A0FB04605970C00800EB8000A4EB98
:10BE00004000125C28461A70BDE8F08764422D237A
:10BE1000092C01F8013B24D8764A774B0020A3FB7C
:10BE2000046348702846DB0803EB8303A4EB430359
:10BE3000D35C0B70BDE8F0876F4B632CA3FB04262B
:10BE40004FEAD60621DC0B466A4A6B49A1FB060184
:10BE5000C90801EB8101A6EB4101515C03F8011B0C
:10BE6000C5E7654A632CA2FB04364FEAD60637D8ED
:10BE7000604A614BA3FB0603DB0803EB8303A6EBDD
:10BE80004303D35C01F8013BC7E7A3FB0627B4F5E6
:10BE90007A7F4FEAD7070DD20B46564A5649A1FB87
:10BEA0000701C90801EB8101A7EB4101515C03F8CF
:10BEB000011BCAE7A3FB072842F20F7294424FEA24
:10BEC000D80836D80B464B4A4B49A1FB0801C90894
:10BED00001EB8101A8EB4101515C03F8011BDDE797
:10BEE000A2FB0637B4F57A7F4FEAD7070CD2414A56
:10BEF000414BA3FB0703DB0803EB8303A7EB4303DF
:10BF0000D35C01F8013BB4E7A2FB073942F20F739F
:10BF10009C424FEAD90921D8364A374BA3FB090383
:10BF2000DB0803EB8303A9EB4303D35C01F8013B7C
:10BF3000DEE7A3FB0829314A94424FEAD90921D808
:10BF40000B462C4A2C49A1FB0901C90801EB8101D0
:10BF5000A9EB4101515C03F8011BB5E7A2FB093ACB
:10BF6000264B9C424FEADA0A21D8224A224BA3FBF5
:10BF70000A03DB0803EB8303AAEB4303D35C01F85A
:10BF8000013BCAE7A3FB09231D4A94424FEAD30AA7
:10BF900021D80B461849174AA1FB0A01C90801EB31
:10BFA0008101AAEB4101515C03F8011BCAE7A2FB26
:10BFB0000A38134B9C424FEAD80813D80E4B0D4A4F
:10BFC000A3FB0803DB0803EB8303A8EB4303D35C69
:10BFD00001F8013BCAE70A22BAFBF2F038F0AEF9E9
:10BFE0000346D7E70A22B8FBF2F038F0A7F901467A
:10BFF000E4E700BF04830508CDCCCCCC9F860100CC
:10C000003F420F00344870B490F8343FA3F1300140
:10C01000092958D800F6347400F64370224612F805
:10C02000015FA5F13001092904D88242F7D100202F
:10C0300070BC7047141B022C4BDD2848002101E026
:10C0400010F8013B01EB8101161A044603EB410392
:10C05000022EA3F1300303F0FF01F1DC204B03FBC0
:10C0600001F1A2424FF000030ED903EB830314F851
:10C07000016B5B00A242A3F13003334403F0FF03E2
:10C08000F3D1184800FB03F32E2D06D01648A0FB71
:10C09000032370BC01EB9300704701320425002498
:10C0A00004EB84041078013D303864000928A4B200
:10C0B000204401D8013284B215F0FF05F0D164228A
:10C0C00002FB0433E2E700211D4600F634720B4602
:10C0D000DAE70021054CC4E798140120CD230120A4
:10C0E0008096980040420F00ABAAAAAACC23012058
:10C0F00038B50D460446FF2100682A4644F07FFD0E
:10C1000022682A44226038BD0C461646054683B58F
:10C1100028F0A0FC204628F09DFC0021204B08467A
:10C12000002E08BF1E4633F099FC0021012033F099
:10C1300095FC28462FF0D2FFB0B10121002033F04A
:10C140008DFC28462FF0C2FF074620462FF0C2FF85
:10C150000028FAD0394620462FF0C4FF3846B047B1
:10C160000021084633F07AFC20462FF0B7FF002864
:10C17000DFD00121002033F071FC20462FF0A6FF14
:10C180000146284601912FF0A5FF01990028F8D01B
:10C1900028462FF0A7FF0021084633F05FFCC8E7D0
:10C1A0005D370308F0B5002289B0DFF898C004AF0E
:10C1B00013460A604A603E468A60CA600A610268A5
:10C1C000C2F3855040FA03F43546E40704D513F86A
:10C1D0000C4005F8014B2E460133062BF2D1174DCA
:10C1E000C2F303240023C2F305302C4405F50B7C75
:10C1F00033700DF1190694F824428DF8184040FA76
:10C2000003F43546E40704D513F80C4005F8014B58
:10C210002E460133062BF2D10023C2F3834506AC30
:10C220000846337002F00F030549C2F3031200976A
:10C23000CDE901453BF0EEFB09B0F0BDC00C0508AF
:10C240002C830508DC0E050870B5094C0546D4F8AA
:10C25000442F62B1002601362D21D4F8440F34F06A
:10C2600079FAAE42F7DBBDE8704036F04DBD70BDE7
:10C270009814012038B50546084638F023F8041E06
:10C280000C4B0EDB1A78944205DA21460A4838F046
:10C290004DFB204638BDFF2C03D1084838F046FB43
:10C2A000F7E71A78284606494FF0FF34013A38F08C
:10C2B000A1FAEEE7140000203B8305084C83050833
:10C2C0005F830508114A0130002302EBC000F0B47F
:10C2D000D0F838C20E4E3360336133623363336457
:10C2E000336533663367BCF1000F0DD090F83472BC
:10C2F00057B13F0100240CEB0403351910340FCB68
:10C30000A74285E80F00F6D1F0BC7047C00C0508C5
:10C31000E023012038B51E4C0968D4F8F4530068B6
:10C32000491B1C4DDFED1C6A00EE901AD4F8F01387
:10C33000D5ED147A1C46F8EEE00A401A60EEA70A22
:10C3400007EE900AF8EEE77A20EEA07AB1EE670ADF
:10C35000A7EEA77AF1EEC77A67EEA67AFCEEE77A47
:10C36000C2ED007A3CF014FB9FED0C7ADFED0C7A05
:10C37000E0EE077AFDEEE77A17EE902A002A02DB5C
:10C38000C4ED007A38BD48F6A0431344236038BD9D
:10C3900098140120000001202C7D8E3FA00CB34595
:10C3A00000A00C4638B50F4C034694F8CF1F04F696
:10C3B000C87084F8CB3F01F03F0101F10A058B1CE6
:10C3C000083184F8CA5F254484F8CD3F18F002F89C
:10C3D00085F8C60F94F8CA3F000A1C4484F8C70FBA
:10C3E00038BD00BF9814012038B50A4C0025012241
:10C3F0008021204629F0EAFE30B194F9040029F0AA
:10C4000019FF08B1006838BD01350C34062DEED196
:10C410000020F8E78824012038B5041F00F1080542
:10C4200054F8043FD81780EA430014F089F8A54275
:10C43000F6D138BD30B4084B41F2780100254FF6F3
:10C44000FF7441F27C0003F57D625D5000211C50B9
:10C45000C2F8A41030BC7047140000202DE9F0474A
:10C46000CB4F41F26503CB4E17ED1D7ADFEDCA7A53
:10C47000F35C2DED028BB8EE478A28EE278A002B5D
:10C4800056D096F8D08FB8F1000F40F0DC80C34D45
:10C490000024DFEDC38A4FF0000A05F1940917F874
:10C4A000703C2341DB0714D599F800305BBBBD4BD2
:10C4B000B8F1000F64D0BB4B1B8807EE103AB8EE02
:10C4C000477AC8EE877A77EE887A88EE277A85ED04
:10C4D000027A01342435042CE1D141F2690341F29E
:10C4E0006C05F45C36F80590002C4FD1B8F1000FC4
:10C4F00005D1AD4B07F8688C1B7807F86C3CBDEC98
:10C50000028BBDE8F087A74B281DB8F1000F27D19B
:10C510001B88013457F8741C243500EE103AB8EE2D
:10C52000400A37F06BFC042C96F8D08FB7D1D4E7D3
:10C5300041F2640141F2700341F2810241F266046A
:10C54000715CF058B1FA81F1B25C490920F056FCF7
:10C55000335B80B28342305393D096F8D08F96E706
:10C560001B88013457F8741C243500EE103AB8EEDD
:10C57000400A44F095FB042C96F8D08F8FD1ACE79D
:10C580001B88C5F804A007EE103A98E7874A41F2E5
:10C590006A0352F8BC2CF35C92F88320134366D1F3
:10C5A000A4F1010141F2700341F28102B1FA81F17B
:10C5B000F058B25C490920F021FC80B27053B8F108
:10C5C000000F69D1784B07F8684C1B7807F86C3C72
:10C5D000002894D007EE900A0123B8EE678A9C42A7
:10C5E000DFED6F7A07F8643CC7EE888A00F093802D
:10C5F000022C84D157F8741CB0EE480A6C4837F00E
:10C60000FDFB17F8683C012B00F0BE80022B7FF485
:10C6100076AFB0EE480A57F8741C664837F0EEFB68
:10C6200017F8683C012B00F0AC80022B7FF467AF59
:10C63000B0EE480A57F8741C5F48BDEC028BBDE8A9
:10C64000F04737F0DBBB41F2690341F26C05F45C63
:10C6500036F80590002C3FF452AF544A41F26A0379
:10C6600052F8BC2CF35C92F88320134305D0B8F148
:10C67000000F7FF444AF4846A4E7A4F1010141F262
:10C68000700341F28102B1FA81F1F058B25C4909BC
:10C6900020F0B4FB80B2705348453FF430AF00281F
:10C6A0003FF42DAF17F8683C002B3FF428AF07EE9E
:10C6B000900A012BB8EE678ADFED397AC7EE888AD7
:10C6C00044D0022B7FF41BAF57F8741CB0EE480A1D
:10C6D000374844F0E5FA17F8683C012B4BD0022BA1
:10C6E0007FF40DAFB0EE480A57F8741C314844F09F
:10C6F000D7FA17F8683C012B40D0022B7FF4FFAE2D
:10C70000B0EE480A57F8741C2B48BDEC028BBDE80C
:10C71000F04744F0C5BAD7ED037A002378EEA76A54
:10C720003B6187EEA67A87ED057A78EEA76A00234B
:10C73000BB6187EEA67A87ED077A77EEA88A002399
:10C740003B6287EEA87A87ED097AD8E6D7ED037ABF
:10C7500078EEA76A87EEA67A87ED057A78EEA76A63
:10C7600087EEA67A87ED077A77EEA88A87EEA87A11
:10C7700087ED097AC3E6D7ED037AEFE7D7ED037AC1
:10C78000F2E7D7ED037AD8E7D7ED037ACDE700BF1C
:10C790000C11002014000020BD378635E40F002066
:10C7A00083F9223E7A100020941000209025012069
:10C7B000AC100020D0100020F4100020012816D06A
:10C7C0002E4B93F82830012B2AD02D4BF6EE006A21
:10C7D000BEEE007ADFED2B7A03EB800010ED2A0A23
:10C7E00080FE660A80FE070A20EE270A7047244A68
:10C7F000F6EE006A214BBEEE007A12ED290ADFED5B
:10C80000217A93F82C3080FE660A80FE070A20EE1B
:10C81000270A23B1B5EEC00AF1EE10FA03DC704727
:10C820009FED190A7047194907EE903A32F9AA2C80
:10C83000B1F97E34F8EEE77ADFED156A9B1A07EE60
:10C84000103AB8EEC77A27EE267AB4EEE77AF1EE20
:10C8500010FAE5DA77EEC77AB2EE047AF4EEC77A28
:10C86000F1EE10FADBD8B1EE047A67EEA67A30EE7C
:10C87000470AA7EE807AB0EE470A70470C110020F5
:10C88000902501200000484300000000981401207A
:10C89000CDCCCC3DF8B5724C40F60302B4F87834F8
:10C8A00013402DED048BB0EE408A04D0B0EE480A60
:10C8B000BDEC048BF8BD6B4D04EB4002B5EEC00A35
:10C8C000DFED696A05EB4005B2F97C246749BFEEEC
:10C8D000007A35F9AC5CF1EE10FA01EB8006F7EE68
:10C8E000007AA2EB05024FEA8007CCBF4FF0010CA3
:10C8F0004FF0FF3C00EE102A356BB8EEC00A20EE78
:10C90000260AB5EEC00AF0EEC06AF1EE10FA77FE24
:10C91000877ACCBF4FF0010E4FF0FF3EB5EB0C0213
:10C9200091ED0E7A18BF0122002D08BF0022002AC7
:10C930003FD1F4EEC76AF1EE10FA06DDF44508BF08
:10C94000002D0CBF0122002279D0CDB3B0EE408A79
:10C95000D1ED0F6ADFED468A97EE278A9FED457A83
:10C96000DFED457A28EE268A88FE478A88FE278AE8
:10C97000002A59D191F88030984297D194F87C30B0
:10C98000262B93D1B2EE049A20EE090A42F0B0F8B9
:10C99000B0EE480AA4F88250A4F8800042F0A8F84B
:10C9A00028EE890AA4F8840042F0A2F8A4F88600D0
:10C9B0007CE7F4EEC76A3363F1EE10FA3DDC1A4609
:10C9C0002E4D9FED2F6A05EB8005D5ED077AF0EE31
:10C9D000E76AF4EEC66AF1EE10FA2BDC9FED296AE5
:10C9E00066EE866A91ED105AF0EE408AB7EE006A64
:10C9F00067EE857AFFEE005AE6EEA78AF5EEC08A6A
:10CA0000F0EEE87AF1EE10FAF4EE477ACCBF0123AB
:10CA10004FF0FF3336FE256AF1EE10FA01DD9C453A
:10CA200013D00025002AA5D03B18002201EB830378
:10CA30009A649FE7F7EE006AD4E7F445BFD1CB19BB
:10CA400075460122C3F830E07FE7B0EE688AD1ED89
:10CA50000F7A002597EE068A28EE278AE4E700BFC2
:10CA60009814012090250120CDCCCC3D0C11002044
:10CA70000000000000007A4400007AC41C07002077
:10CA8000FFFFF9436F12033B70B4674D0A7805EB63
:10CA90008001664C534207EE902A51ED2A6A07EE58
:10CAA000103A51F89C3CB8EEE76A84FB0314DB179C
:10CAB000B8EEC77AC3EB641307EE903AF8EEE77A64
:10CAC000E6EE267AF4EEC77AF1EE10FA05D407EE18
:10CAD000102AF8EE476A86FEE77A554A05EB4003CE
:10CAE00040F60104DFED536A02EB400033F9AC6C11
:10CAF000B2F87814B0F97C340C42A3EB060307EECD
:10CB0000903AF8EEE77AA7EEE67A06D04A4B93ED34
:10CB1000210A70BC27EE000A7047B2F97C34B2F9E2
:10CB20007E24002B55ED247A15ED256AB8BF5B42B3
:10CB3000002A87FE866A4049B8BF52429BB291F8EC
:10CB4000880092B29342B8BF134607EE903AF8EECF
:10CB5000E77A67EEA67A38BBF7EE005AD1ED256A80
:10CB6000F4EEE56AF1EE10FA4DD4D1ED237ADFED63
:10CB7000335AF4EEE57AF1EE10FA41D9DFED304A9E
:10CB8000B7EE005AC4EEA76AF0EE457AE6EE667A92
:10CB9000C7FEC56AC6FEA56AD1ED267A67EE277A7A
:10CBA00070BCA7EEA60A7047D1ED235A9FED235A19
:10CBB000F4EEC55AF1EE10FA1FDDD1ED244AF4EE81
:10CBC000C54AF1EE10FA18DDDFED1E6A74EEE77A61
:10CBD000B7EE004A26EE266AC7EEA46AC6EE257AAC
:10CBE000C6FEC46AC6FE856A77EE847A66EEA76AD8
:10CBF000C6FEC46AC6FE856ACEE7F0EE456ACBE79C
:10CC0000F0EE656AC8E775EEE65A9FED0F4A9FEDB4
:10CC10000F5AD1ED234A75EE677A65EE845AE5EE38
:10CC2000A76A66EEA47AA2E7902501201F85EB5142
:10CC300098140120CDCCCC3D0C1100200000000048
:10CC40000000C8420000C8C2610BB63B000034437C
:10CC50002DE9F04F0C4F97F87C50102D2DED048BE3
:10CC600083B000F06184094C002694F8218DB8F15E
:10CC7000060F00F24484DFE818F0D304940565043D
:10CC80000B00D800A80569039814012014000020A7
:10CC9000E34B102D1A4693ED037AD3ED057AB2ECEF
:10CCA000011A27EE073A67EEA73A93ED077A92ED5D
:10CCB000006AD3ED097A27EE074AD3ED0B6A66EED8
:10CCC000062A93ED0D7A67EEA74AD3ED0F7A26EE8A
:10CCD000A65AD3ED021A67EE075A93ED042A27EEFF
:10CCE000A76AD3ED116AE1EE012A93ED137AA1EE62
:10CCF000A13AD3ED157AE2EE023AD3ED060A66EEDA
:10CD0000A66A93ED081A27EE077AD3ED0A1A67EEA2
:10CD1000A77A93ED0C2AA0EEA04AE1EE014AD3EDEA
:10CD20000E0AA1EEA15A93ED101AE2EE025AD3EDCB
:10CD3000121A93ED142AA0EEA06AE1EE016AE2EE67
:10CD4000027AA1EEA17AB1EEE22AF1EEC32AB1EEA7
:10CD5000E33AF1EEC43A03ED202AB1EEE44A43EDA2
:10CD60001F2AF1EEC54A03ED1E3AB1EEE55A43ED36
:10CD70001D3AF1EEC65A03ED1C4AB1EEE66A43EDE8
:10CD80001B4AF1EEC76A03ED1A5AB1EEE77A43ED9A
:10CD9000195A03ED186A43ED176A03ED167A93EDFD
:10CDA000177AD3ED197A67EE075AD3ED1B6A27EE8F
:10CDB000A76A93ED1D7AD3ED1F7A66EEA66AD3EDCE
:10CDC000164A27EE077A93ED185A67EEA77AE4EE33
:10CDD000A45A93ED1A4AA5EE056AD3ED1C4A93EDC9
:10CDE0001E5AE4EE046AA4EEA47AE5EE057AB1EEEA
:10CDF000E55AF1EEC65AB1EEE66AF1EEC76A03ED06
:10CE0000155AB1EEE77A43ED145A03ED136A43ED78
:10CE1000126A03ED117A00F0868794F8218D08F1EB
:10CE200001085FFA88F884F8218D94F880360F2B7A
:10CE300000F3C7877B490D2B03F1010C01EB830243
:10CE400000F2D48701F2844A02F5C6620AEB83013C
:10CE5000D2ED007A91ED6C7AB4EE677AF1EE10FAC9
:10CE600005DDB5EEC07AF1EE10FA00F35787002029
:10CE7000DFED6D7A0AEB8C02D2ED6C6AF4EE476A54
:10CE8000F1EE10FA08DDF4EE676AF1EE10FA03DD58
:10CE9000F0EE667A5FFA8CF0D91C03F1020C0E29D1
:10CEA000624600F3EE800AEB830292ED6E7AB4EEF6
:10CEB000667AF1EE10FA08DDB4EE677AF1EE10FA58
:10CEC00003DDF0EE477A5FFA8CF00AEB8302D2EDD5
:10CED0006F6AF4EE476AF1EE10FA07DDF4EE676A66
:10CEE000F1EE10FA02DDF0EE667AC8B2591D03F1D8
:10CEF000040C0E29624600F3C4800AEB830292ED13
:10CF0000707AB4EE667AF1EE10FA08DDB4EE677A64
:10CF1000F1EE10FA03DDF0EE477A5FFA8CF00AEBDF
:10CF20008302D2ED716AF4EE476AF1EE10FA07DD82
:10CF3000F4EE676AF1EE10FA02DDF0EE667AC8B23E
:10CF4000D91D03F1060C0E29624600F39A800AEB04
:10CF5000830292ED727AB4EE667AF1EE10FA05DD94
:10CF6000B4EE677AF1EE10FA00F3F8860AEB83026A
:10CF7000D2ED736AF4EE476AF1EE10FA05DDF4EED5
:10CF8000676AF1EE10FA00F3E48603F1090103F198
:10CF9000080C0E29624674DC0AEB830292ED747A67
:10CFA000B4EE667AF1EE10FA05DDB4EE677AF1EED2
:10CFB00010FA00F3DE860AEB8302D2ED756AF4EE16
:10CFC000476AF1EE10FA05DDF4EE676AF1EE10FA49
:10CFD00000F3CA8603F10B0103F10A0C0E29624625
:10CFE0004FDC0AEB830292ED767AB4EE667AF1EECC
:10CFF00010FA05DDB4EE677AF1EE10FA00F3C4869C
:10D000000AEB8302D2ED776AF4EE476AF1EE10FA8A
:10D010000CDDF4EE676AF1EE10FA00F3B08605E07D
:10D02000D00D00201C0700200000000003F10C01BF
:10D03000012B0A4625DC0AEB830292ED787AB4EEE6
:10D04000667AF1EE10FA07DDB4EE677AF1EE10FAC7
:10D0500002DDF0EE477AC8B20AEB8302D2ED796ABC
:10D06000F4EE476AF1EE10FA09DDF4EE676AF1EECC
:10D0700010FA04DD03F10D00F0EE667AC0B203F1A0
:10D080000E0202F16C030AEB82010AEB830CD1ED74
:10D090006B6A9CED007AF4EE476AF1EE10FA07D560
:10D0A000B4EE677AF1EE10FA02DDF0EE477AD0B214
:10D0B0000F2A02F1010C00F0FB830AEB83030AEB59
:10D0C0008201D3ED006A91ED6D7AF4EE476AF1EEDC
:10D0D00010FA05D5B4EE677AF1EE10FA00F38E86F9
:10D0E0000E2A02F1020300F0E3830AEB830191EDC3
:10D0F0006C7AD1ED6B6AF4EE476AF1EE10FA05D561
:10D10000B4EE677AF1EE10FA00F382860F2B03F18A
:10D11000010200F0CD830AEB820191ED6C7AD1ED32
:10D120006B6AF4EE476AF1EE10FA05D5B4EE677A51
:10D13000F1EE10FA00F375860F2A02F1010300F0F8
:10D14000B7830AEB830191ED6C7AD1ED6B6AF4EE53
:10D15000476AF1EE10FA05D5B4EE677AF1EE10FAEF
:10D1600000F368860F2B03F1010200F0A1830AEBA4
:10D17000820191ED6C7AD1ED6B6AF4EE476AF1EEC3
:10D1800010FA05D5B4EE677AF1EE10FA00F35B867B
:10D190000F2A02F1010300F08B830AEB830191ED6A
:10D1A0006C7AD1ED6B6AF4EE476AF1EE10FA05D5B0
:10D1B000B4EE677AF1EE10FA00F351860F2B03F10B
:10D1C000010200F075830AEB820191ED6C7AD1EDDA
:10D1D0006B6AF4EE476AF1EE10FA05D5B4EE677AA1
:10D1E000F1EE10FA00F347860F2A02F1010300F076
:10D1F0005F830AEB830191ED6C7AD1ED6B6AF4EEFB
:10D20000476AF1EE10FA05D5B4EE677AF1EE10FA3E
:10D2100000F33A860F2B03F1010200F049830AEB79
:10D22000820191ED6C7AD1ED6B6AF4EE476AF1EE12
:10D2300010FA05D5B4EE677AF1EE10FA00F34086E5
:10D240000F2A02F1010300F033830AEB830191ED11
:10D250006C7AD1ED6B6AF4EE476AF1EE10FA05D5FF
:10D26000B4EE677AF1EE10FA00F333860F2B03F178
:10D27000010200F01D830AEB820191ED6C7AD1ED81
:10D280006B6AF4EE476AF1EE10FA05D5B4EE677AF0
:10D29000F1EE10FA00F326860F2A02F1010300F0E6
:10D2A00007830AEB830191ED6C7AD1ED6B6AF4EEA2
:10D2B000476AF1EE10FA05D5B4EE677AF1EE10FA8E
:10D2C00000F319860F2B03F1010200F0F1820AEB43
:10D2D000820191ED6C7AD1ED6B6AF4EE476AF1EE62
:10D2E00010FA05D5B4EE677AF1EE10FA00F30C8669
:10D2F0000F2A02F1010300F0DB820AEB830191EDBA
:10D300006C7AD1ED6B6AF4EE476AF1EE10FA05D54E
:10D31000B4EE677AF1EE10FA00F3FF850E2B40F0C1
:10D32000C782B84B93ED007A53ED016AB4EE667A8A
:10D33000F1EE10FA40F3BC82B4EEE77AF1EE10FAA7
:10D3400040F3B682F0EE477A0F20B4E294F8222D33
:10D3500094F89C3BDFF8C0E203F5937CC3F1200313
:10D360000CEB421C13F0FC0FC3F385005FFA83F84B
:10D370000EEB8C0C00F01E8501300CF11003AEF1A9
:10D3800070010EF244624FEA00190CEB001013ED2D
:10D39000026A103311ED027A103253ED076A103130
:10D3A00053ED057A26EE076A51ED074A13ED087A28
:10D3B000834211ED085A66EEA46A51ED055A27EE34
:10D3C000057A02ED066A67EEA57A42ED076A02ED7C
:10D3D000087A42ED057ADAD18B49A9F1100301F2FE
:10D3E000B4629C44C818134418F003021BD0DCED4F
:10D3F000007A013A90ED007A67EE877AC3ED007A01
:10D4000011D0DCED017A012A90ED017A67EE877A7E
:10D41000C3ED017A07D0DCED027A90ED027A67EE77
:10D42000877AC3ED027A94F89C0B002863D094F8B5
:10D43000223D0EEB880C5FEA90090EEBC31E0CF246
:10D44000346C01EB88080EF5936E35D009F10109B3
:10D450000EF1100308F110010CF110024FEA091A45
:10D460000EEB091913ED026A103311ED027A103236
:10D4700053ED076A103153ED057A26EE076A51ED38
:10D48000074A13ED087A4B4511ED085A66EEA46A77
:10D4900051ED055A27EE057A02ED066A67EEA57A88
:10D4A00042ED076A02ED087A42ED057ADAD1AAF177
:10D4B00010039E4498449C4410F003001BD0DEED02
:10D4C000007A013898ED007A67EE877ACCED007A21
:10D4D00011D0DEED017A012898ED017A67EE877AA6
:10D4E000CCED017A07D0DEED027A98ED027A67EE94
:10D4F000877ACCED027A102D7BD094F8218D08F13B
:10D500000108424BA3FB0823A8EB030203EB5203E1
:10D510009B08C3EBC303A8EB030384F8213D03B0CE
:10D52000BDEC048BBDE8F08F2EF0D6F9384C97F89F
:10D530007C50064694F8218D102D08BFA7F88080F6
:10D54000FFF795BBDFF8CC80DFF8D0E0B0EE006AE3
:10D55000D8ED005AF6EE006ADEED007A0EF18C038B
:10D56000B4F8240D77EEA77AD4F8381D0138B0EE60
:10D57000664A1031B0EE677A08EBC002E5EE867AB3
:10D58000083A95EE867A67EEA67A27EE267ACEEDF1
:10D590001F7A8EED207AD2ED036A0138D2ED027A3D
:10D5A00001F1080153ED215AA2F1080253ED224A7C
:10D5B00003F1080335EEE67A11ED036A37EEE45A1B
:10D5C00077EEA47A76EEA56A51ED045AA6EE057AB6
:10D5D000E5EE857AA5EEE67AE6EE267A27EE047A7F
:10D5E00067EE847A03ED037A43ED047AD3D1102DEC
:10D5F00083D12EF071F9801B94F8218DA7F8820059
:10D600007DE700BF8C0D00209C0600202549922458
:10D6100014000020500D00201C070020540D002095
:10D62000B4F8243D9E485908D4F8282D00EB83080F
:10D63000DB084FEA810C00EB810A00F0A38003F1C4
:10D64000010E0CF1100C0AF1100310300AEB0E1A47
:10D65000C44402F1100908F1100E5EED047A103393
:10D6600010ED041A09F110095CED041A103013EDE5
:10D67000086A71EE278A5EED032A31EE671A1CED07
:10D68000032A36EE218A5EED013A71EEC61A13EDD9
:10D69000064A0EF1100E53ED054A0CF1100C5EED2A
:10D6A000066A53ED075A5CED067A1CED057A35EEF5
:10D6B000820A10ED063A72EE655A10ED075A74EEC2
:10D6C000270A10ED056A77EEC47A40ED088A35EE38
:10D6D000229A36EE232A35EE625A73EE268A00ED40
:10D6E000079A74EE872A00ED052A37EE647A40ED3A
:10D6F000068A73EE666A43ED052A36EE636A03ED29
:10D70000088A03ED070A43ED060A534559ED074A17
:10D7100019ED084A24EEC12A24EE653A65EE242A62
:10D72000A5EE042A61EE843AB0EE435AE1EE042AF3
:10D73000E5EEA43AA1EEA45A0EED072A4EED082A12
:10D740004CED073A0CED085A59ED055A19ED065AF9
:10D7500026EE253A65EEE63A27EE854A65EE474A1B
:10D76000E6EE053AA6EE853AA7EE254AE7EEA54A8B
:10D770000EED063A4EED053A0CED054A4CED064A23
:10D780007FF46BAF89B246480191FAF7DBFD01994E
:10D790004046D4F8282DFAF7D5FD102D7FF4ADAE14
:10D7A00027E7DFF8FC80D4F82C2D4046B4F8301D74
:10D7B0003FF084FD97F87C50102D00F00F8394F813
:10D7C000213D013384F8213DBEE6364B1B78002B0A
:10D7D00000F07482344A94F8223D02F1DC08A2F28F
:10D7E0004C4C03EBC300A2F2444108EB8303DCED95
:10D7F000007A02EB8000D1ED000A93EDAC0AD0F87C
:10D800001CA0D0F8209020EE270A90ED054AD0F811
:10D8100018B0D4F80C17FDF70DFAC0F81CA0C0F82A
:10D82000209002F16C0380ED054AA2F58962C0F8F0
:10D8300018B094F822CDD2ED007A08EB8C08D4F819
:10D840000C170CEBCC0098EDAC0A03EB800020EE3B
:10D85000270AD0F814A0D0F81890D0F81C80026ADB
:10D86000FDF7E8F9102DC0F814A0C0F81890C0F822
:10D870001C80026200F0AA8294F8222D0B4B013228
:10D8800094F8210DA3FB0213013003F4FF7184F817
:10D89000210D01EB5303D21A84F8222D58E500BF65
:10D8A000500D002000000020C40A0020ABAAAAAA44
:10D8B000002800F04E81431E012B40F3CD820AEB7D
:10D8C0008002811E92ED6B7A1346D2ED6A6AF4EE05
:10D8D000C76AF1EE10FA00F3828001297FD093ED40
:10D8E000697AC21EB4EEE67AF1EE10FA00F35282C3
:10D8F000012A00F04F82D3ED686A021FF4EEC76A76
:10D90000F1EE10FA6BDC012A69D093ED677A421FC1
:10D91000B4EEE67AF1EE10FA00F33C82012A00F050
:10D920003982D3ED666A821FF4EEC76AF1EE10FA0F
:10D9300055DC012A53D093ED657AC21FB4EEE67A26
:10D94000F1EE10FA00F32682012A00F02382D3EDD3
:10D95000646AA0F10802F4EEC76AF1EE10FA3EDC48
:10D96000012A3CD093ED637AA0F10902B4EEE67A85
:10D97000F1EE10FA00F30E82012A00F00B82D3EDD3
:10D98000626AA0F10A02F4EEC76AF1EE10FA26DC30
:10D99000012A24D093ED617AA0F10B02B4EEE67A6D
:10D9A000F1EE10FA00F3F681012A00F0F381D3EDD5
:10D9B000606AA0F10C02F4EEC76AF1EE10FA0EDC18
:10D9C000012A0CD093ED5F7AA0F10D02B4EEE67A55
:10D9D000F1EE10FA00F3DE81022A07FE267A431CDC
:10D9E0000E2B00F345820AEB800100F1020CD1ED11
:10D9F0006D6A0A4691ED6E6AB4EEE66AF1EE10FACF
:10DA000000F37781BCF10F0F00F08E80D2ED6F6ACA
:10DA1000C11CB4EEE66AF1EE10FA00F168810F293C
:10DA200000F0BB8192ED706A011DB4EEE66AF1EE82
:10DA300010FA00F35E810F2976D0D2ED716A411D94
:10DA4000F4EEC66AF1EE10FA00F351810F2900F0EE
:10DA5000A48192ED726A811DB4EEE66AF1EE10FACD
:10DA600000F347810F295FD0D2ED736AC11DF4EE38
:10DA7000C66AF1EE10FA00F33A810F2900F08D81A9
:10DA800092ED746A00F10801B4EEE66AF1EE10FA64
:10DA900000F32F810F2947D0D2ED756A00F10901FB
:10DAA000F4EEC66AF1EE10FA00F321810F2900F0BE
:10DAB000748192ED766A00F10A01B4EEE66AF1EE45
:10DAC00010FA00F316810F292ED0D2ED776A00F1FB
:10DAD0000B01F4EEC66AF1EE10FA00F308810F298B
